PATREE     CREATED BY  MACRO  ON 10-NOV-81 AT 17:50	PAGE 1

SYMBOL CROSS REFERENCE                                  CREF

SYMBOL	VALUE		REFERENCES

ABTAB 	  000502 R	 108-4230  #109-4288
ACADR 	  000776 RG	*154-6129  *154-6130   154-6158   154-6160  #154-6162
ACDAT 	  000736 R	*151-5933   151-5950  #151-5953
ADD   	= 000270	#23-877
ADDB  	= 000273	#23-878
ADDI  	= 000271	#23-879
ADDM  	= 000272	#23-880
ADH   	= 000000	#137-5494  #137-5494   137-5494   137-5494  #137-5496   137-5496   137-5496  #137-5498  #137-5498
                         137-5498   137-5498  #137-5500   137-5500   137-5500  #139-5541   139-5541   139-5541  #139-5543
                         139-5543   139-5543  #151-5957   151-5957   151-5957
ADL   	= 000100	#137-5494   137-5494   137-5494  #137-5494   137-5494   137-5494  #137-5494   137-5494   137-5494
                        #137-5494   137-5494   137-5494  #137-5494   137-5494   137-5494  #137-5494   137-5494   137-5494
                         137-5494  #137-5494   137-5494   137-5494  #137-5496   137-5496   137-5496  #137-5496   137-5496
                         137-5496  #137-5496   137-5496   137-5496  #137-5496   137-5496   137-5496  #137-5496   137-5496
                         137-5496  #137-5496   137-5496   137-5496  #137-5498   137-5498   137-5498  #137-5498   137-5498
                         137-5498  #137-5498   137-5498   137-5498  #137-5498   137-5498   137-5498  #137-5498   137-5498
                         137-5498  #137-5498   137-5498   137-5498   137-5498  #137-5498   137-5498   137-5498  #137-5500
                         137-5500   137-5500  #137-5500   137-5500   137-5500  #137-5500   137-5500   137-5500  #137-5500
                         137-5500   137-5500  #137-5500   137-5500   137-5500  #137-5500   137-5500   137-5500  #139-5541
                         139-5541   139-5541  #139-5541   139-5541   139-5541  #139-5543   139-5543   139-5543  #139-5543
                         139-5543   139-5543  #139-5543   139-5543   139-5543  #139-5543   139-5543   139-5543  #151-5957
                         151-5957   151-5957  #151-5957   151-5957   151-5957  #151-5957   151-5957   151-5957  #151-5957
                         151-5957   151-5957
AND   	= 000404	#23-882
ANDB  	= 000407	#23-883
ANDCA 	= 000410	#23-884
ANDCAB	= 000413	#23-885
ANDCAI	= 000411	#23-886
ANDCAM	= 000412	#23-887
ANDCB 	= 000440	#23-888
ANDCBB	= 000443	#23-889
ANDCBI	= 000441	#23-890
ANDCBM	= 000442	#23-891
ANDCM 	= 000420	#23-892
ANDCMB	= 000423	#23-893
ANDCMI	= 000421	#23-894
ANDCMM	= 000422	#23-895
ANDI  	= 000405	#23-896
ANDM  	= 000406	#23-897
AOBJN 	= 000253	#23-899
AOBJP 	= 000252	#23-900
AOJ   	= 000340	#23-902
AOJA  	= 000344	#23-903
AOJE  	= 000342	#23-904
AOJG  	= 000347	#23-905
AOJGE 	= 000345	#23-906
AOJL  	= 000341	#23-907
AOJLE 	= 000343	#23-908
AOJN  	= 000346	#23-909
AOS   	= 000350	#23-911
AOSA  	= 000354	#23-912
AOSE  	= 000352	#23-913
PATREE     CREATED BY  MACRO  ON 10-NOV-81 AT 17:50	PAGE 2

SYMBOL CROSS REFERENCE                                  CREF

SYMBOL	VALUE		REFERENCES

AOSG  	= 000357	#23-914
AOSGE 	= 000355	#23-915
AOSL  	= 000351	#23-916
AOSLE 	= 000353	#23-917
AOSN  	= 000356	#23-918
APR   	= 000000	#7-244      137-5494   137-5494   137-5496   137-5496   137-5498   137-5498
APRMSG	= ******  GX	 113-4653
AP.ALL	= 000177	#9-348
AP.ARP	= 001000	#16-633     16-637     204-7745   209-7920
AP.CDP	= 000004	#9-343      9-348
AP.EIP	= 000400	#16-635     16-637     204-7757   204-7772   208-7881   208-7888
AP.IPF	= 000020	#9-345      9-348
AP.MPE	= 000010	#9-344      9-348
AP.NRM	= 001400	#16-637     16-639
AP.NXM	= 000040	#9-346      9-348
AP.PWF	= 000001	#9-341      9-348
AP.SAP	= 000002	#9-342      9-348
AP.SBE	= 000100	#9-347      9-348
ARMSG 	= ******  GX	 209-7919
ASH   	= 000240	#23-920
ASHC  	= 000244	#23-921
ATOMSG	  004044 R	 198-7474  #198-7486
AUGMSG	= ******  GX	 113-4657
A.LULU	= 000002	#125-5062  #125-5071  #125-5077
A.LUNA	= 000004	#125-5062  #125-5071  #125-5077
A.LUNU	= 000006	#125-5062  #125-5071  #125-5077
BC.HDS	= ******  GX	 221-8559
BC.SKP	= ******  GX	 221-8540
BIT0  	= 000001	#174-6874  #226-8750
BIT00 	= 000001	#9-305      10-383     11-409     11-429     12-466     12-467     13-490     13-513     22-842
                         22-856     53-2268    57-2418    58-2432    61-2534    102-3994
BIT01 	= 000002	#9-306      10-386     11-405     11-427     12-464     12-465     13-491     13-512     22-843
                         22-857
BIT02 	= 000004	#9-307      10-378     11-404     11-426     11-431     12-462     12-463     13-492     13-511
                         22-844     22-858
BIT03 	= 000010	#9-308      10-377     11-403     11-423     12-459     12-461     13-493     13-510     22-845
                         22-859
BIT04 	= 000020	#9-309      10-375     10-376     11-402     11-421     11-422     12-457     13-494     13-509
                         22-846     22-860
BIT05 	= 000040	#9-310      10-373     11-409     11-420     12-455     12-456     13-495     13-508     22-847
                         22-861
BIT06 	= 000100	#9-311      10-372     11-398     11-431     12-453     12-454     13-484     13-507     22-848
                         22-862
BIT07 	= 000200	#9-312      10-370     10-371     11-409     11-431     12-451     13-483     13-506     22-849
                         22-863
BIT08 	= 000400	#9-313      10-369     11-409     11-431     12-449     13-482     13-505     22-864
BIT09 	= 001000	#9-314      10-365     10-368     11-409     11-431     12-447     13-481     13-504
BIT1  	= 000002	#174-6874  #226-8750
BIT10 	= 002000	#9-315      10-364     10-367     11-409     11-431     12-446     13-480     13-503    #174-6874
                        #226-8750
BIT11 	= 004000	#9-316      10-363     10-366     11-409     11-431     12-444     13-479     13-502    #174-6874
                        #226-8750
PATREE     CREATED BY  MACRO  ON 10-NOV-81 AT 17:50	PAGE 3

SYMBOL CROSS REFERENCE                                  CREF

SYMBOL	VALUE		REFERENCES

BIT12 	= 010000	#9-317      10-362     11-409     11-431     12-442     12-443     13-478     13-501     90-3654
                         90-3659   #174-6874  #226-8750
BIT13 	= 020000	#9-318      10-361     11-394     11-409     11-431     12-440     13-477    #174-6874  #226-8750
BIT14 	= 040000	#9-319      10-360     11-391     11-392     11-409     11-414     11-431     12-439     13-476
                        #174-6874  #226-8750
BIT15 	= 100000	#9-320      10-359     11-390     11-409     11-413     11-431     12-437     13-475     104-4057
                        #174-6874  #226-8750
BIT2  	= 000004	#174-6874  #226-8750
BIT3  	= 000010	#174-6874  #226-8750
BIT4  	= 000020	#174-6874  #226-8750
BIT5  	= 000040	#174-6874  #226-8750
BIT6  	= 000100	#174-6874  #226-8750
BIT7  	= 000200	#174-6874  #226-8750
BIT8  	= 000400	#174-6874  #226-8750
BIT9  	= 001000	#174-6874  #226-8750
BLKI  	= 000000	#7-233
BLKO  	= 000002	#7-235
BLT   	= 000251	#23-923
BPARER	= 000020	#174-6874  #226-8750
CAI   	= 000300	#24-925
CAIA  	= 000304	#24-926
CAIE  	= 000302	#24-927
CAIG  	= 000307	#24-928
CAIGE 	= 000305	#24-929
CAIL  	= 000301	#24-930
CAILE 	= 000303	#24-931
CAIN  	= 000306	#24-932
CALL  	= 000040	#24-934
CALLI 	= 000047	#24-935
CAM   	= 000310	#24-937
CAMA  	= 000314	#24-938
CAME  	= 000312	#24-939
CAMG  	= 000317	#24-940
CAMGE 	= 000315	#24-941
CAML  	= 000311	#24-942
CAMLE 	= 000313	#24-943
CAMN  	= 000316	#24-944
CCA   	= 000014	#7-247
CCEMSG	  004060 R	 202-7672  #203-7730
CC.ALL	= 003417	#15-611
CC.NRM	= 000000	#15-610
CDD   	= 000020	#174-6874  #226-8750
CDMTB 	  001164 R	 214-8098  #215-8161
CD.ALL	= 003400	#15-608     15-611     205-7793
CD.CLC	= 000400	#15-606     203-7714   206-7839
CD.CRC	= 002000	#15-604     203-7706   206-7835
CD.DPC	= 001000	#15-605     203-7710   206-7837
CD.NRM	= 000000	#15-607
CHNPNT	= 000001	#174-6874  #226-8750
CH.ALP	= 000001	#22-842     22-851
CH.ANM	= 000003	#22-851
CH.AOP	= 000100	#22-848
PATREE     CREATED BY  MACRO  ON 10-NOV-81 AT 17:50	PAGE 4

SYMBOL CROSS REFERENCE                                  CREF

SYMBOL	VALUE		REFERENCES

CH.END	= 000034	#22-850
CH.EOC	= 000010	#22-845     22-850     110-4411   112-4527   135-5424   153-6034   158-6286   176-6935   178-6995
                         200-7580
CH.EOL	= 000004	#22-844     22-850
CH.EOS	= 000020	#22-846     22-850
CH.ILL	= 000200	#22-849
CH.NUL	= 000000	#22-841
CH.NUM	= 000002	#22-843     22-851
CH.PFX	= 000040	#22-847
CIDLUN	= 000001	#21-818     125-5062
CLDSTB	  001074 R	 205-7790  #206-7833
CLEAR 	= 000400	#24-946
CLEARB	= 000403	#24-947
CLEARI	= 000401	#24-948
CLEARM	= 000402	#24-949
CLOSE 	= 000070	#24-951
CLRTTB	  001120 R	 206-7827  #206-7845
CLSRTB	  001110 R	 206-7820  #206-7840
CMD1  	  002341 R	 128-5202  #128-5202
CMD1A 	  002360 R	 128-5203  #128-5203
CMD1B 	  002373 R	 128-5204  #128-5204
CMD1C 	  002414 R	 128-5205  #128-5205
CMD1D 	  002444 R	 128-5206  #128-5206
CMD10 	  002732 R	 128-5218  #128-5218
CMD10B	  002770 R	 128-5219  #128-5219
CMD11 	  003007 R	 128-5220  #128-5220
CMD11A	  003043 R	 128-5221  #128-5221
CMD12 	  003062 R	 128-5222  #128-5222
CMD13 	  003101 R	 128-5223  #128-5223
CMD14 	  003122 R	 128-5226  #128-5226
CMD2  	  002462 R	 128-5207  #128-5207
CMD3  	  002476 R	 128-5208  #128-5208
CMD3A 	  002514 R	 128-5209  #128-5209
CMD4  	  002524 R	 128-5210  #128-5210
CMD4A 	  002532 R	 128-5211  #128-5211
CMD5  	  002543 R	 128-5212  #128-5212
CMD5A 	  002576 R	 128-5213  #128-5213
CMD6  	  002615 R	 128-5214  #128-5214
CMD6A 	  002642 R	 128-5215  #128-5215
CMD7  	  002661 R	 128-5216  #128-5216
CMD7A 	  002713 R	 128-5217  #128-5217
CNUPE 	= 000002	#174-6874  #226-8750
CODLUN	= 000002	#21-819     125-5071
CONI  	= 000005	#7-238
CONKNC	  000152 R	 38-1582   #38-1603
CONO  	= 000004	#7-237      137-5494   137-5494   137-5496   137-5496   137-5498   137-5498   137-5500   137-5500
                         139-5541   139-5541
CONSO 	= 000007	#7-240
CONSZ 	= 000006	#7-239
CPVMSG	= ******  GX	 193-7303
CRATAB	  000364 R	 105-4096  #107-4149
CRLTAB	  000400 R	 105-4100  #107-4157
PATREE     CREATED BY  MACRO  ON 10-NOV-81 AT 17:50	PAGE 5

SYMBOL CROSS REFERENCE                                  CREF

SYMBOL	VALUE		REFERENCES

CRMMSG	= ******  GX	 206-7834   209-7921
CR.ALL	= 000003	#15-596     15-611     202-7668   206-7825
CR.CR1	= 000001	#15-590     15-596
CR.CR2	= 000002	#15-591     15-596
CR.FUL	= 000000	#15-592
CR.HLF	= 000001	#15-593     202-7658
CR.NRM	= 000000	#15-589
CR.QTR	= 000002	#15-594     202-7662
CR.SLO	= 000003	#15-595     202-7666
CS.ALL	= 000014	#15-587     15-611     202-7689   206-7818
CS.CS1	= 000004	#15-581     15-587
CS.CS2	= 000010	#15-582     15-587
CS.EXP	= 177670	#174-6874  #226-8750
CS.EXT	= 000010	#15-585     202-7676
CS.FST	= 000004	#15-583     15-584
CS.MGN	= 000004	#15-584     202-7687
CS.NRM	= 000000	#15-580
CS.UDF	= 000014	#15-586
CTLMSG	= ******  GX	 206-7838
CYCLS 	= 000002	#174-6874  #226-8750
DATAI 	= 000001	#7-234
DATAO 	= 000003	#7-236      139-5543   139-5543   151-5957   151-5957
DATBUF	  001232 R	 216-8203  #216-8248
DATE  	= 000004	#174-6874  #226-8750
DCOMST	= 000001	#174-6874  #226-8750
DEB880	= ******	 56-2341    79-3198    79-3203    109-4267   121-4924   121-4942   122-4956   125-5059   125-5068
                         152-5971   214-8118   214-8131   221-8494   221-8514   221-8523   221-8529   221-8533   221-8563
                         229-8830
DECMSG	= ******  GX	 113-4661
DEP   	= 010000	#174-6874  #226-8750
DEPBLK	  000726 R	 151-5934  #151-5949
DEPOS 	  001453 R	 82-3384   #82-3434
DEX   	= 000400	#174-6874  #226-8750
DEXDON	= 000004	#174-6874  #226-8750
DEXWD1	= 174406	#174-6874  #226-8750
DEXWD2	= 174404	#174-6874  #226-8750
DEXWD3	= 174402	#174-6874  #226-8750
DFAD  	= 000110	#24-953
DFBEND	= ******  GX	 119-4874
DFCIFC	  000644 R	 49-2046    49-2048    49-2050   #49-2062
DFDV  	= 000113	#24-954
DFMP  	= 000112	#24-955
DFN   	= 000131	#24-956
DFRMSG	  000000 R	 50-2099   #50-2141
DFSB  	= 000111	#24-957
DFUNC 	= 000200	#174-6874  #226-8750
DF.DMG	= 000004	#174-6874  #226-8750
DF.DMN	= 000007	#174-6874  #226-8750
DF.DOR	= 000001	#174-6874  #226-8750
DF.EHG	= 000010	#174-6874  #226-8750
DF.EHM	= 000011	#174-6874  #226-8750
DF.EMG	= 000005	#174-6874  #226-8750
PATREE     CREATED BY  MACRO  ON 10-NOV-81 AT 17:50	PAGE 6

SYMBOL CROSS REFERENCE                                  CREF

SYMBOL	VALUE		REFERENCES

DF.EMN	= 000006	#174-6874  #226-8750
DF.KLR	= 000012	#174-6874  #226-8750
DF.KLW	= 000013	#174-6874  #226-8750
DF.KLX	= 000014	#174-6874  #226-8750
DF.OFF	= 000002	#174-6874  #226-8750
DF.ON 	= 000003	#174-6874  #226-8750
DF.PDP	= 000016	#174-6874  #226-8750   229-8859
DF.PEX	= 000015	#174-6874  #226-8750
DG1B10	  001534 R	 83-3466   #83-3476
DG1B11	  001503 R	 83-3465   #83-3475
DG1B5 	  001757 R	 83-3471   #83-3481
DG1B6 	  001714 R	 83-3470   #83-3480
DG1B7 	  001651 R	 83-3469   #83-3479
DG1B8 	  001605 R	 83-3468   #83-3478
DG1B9 	  001560 R	 83-3467   #83-3477
DG3B1 	  002021 R	 84-3493   #84-3499
DIAG1 	= 174430	#174-6874  #226-8750
DIAG2 	= 174432	#174-6874  #226-8750
DIAG3 	= 174436	#174-6874  #226-8750
DIATAB	  000330 R	 83-3451   #83-3464
DIKL10	= 000010	#174-6874  #226-8750
DIV   	= 000234	#24-959
DIVB  	= 000237	#24-960
DIVI  	= 000235	#24-961
DIVM  	= 000236	#24-962
DLYCNT	= 174400	#174-6874  #226-8750
DMOVE 	= 000120	#24-964
DMOVEM	= 000124	#24-965
DMOVN 	= 000121	#24-966
DMOVNM	= 000125	#24-967
DON10C	= 040000	#174-6874  #226-8750
DON10S	= 100000	#174-6874  #226-8750
DON11C	= 000100	#174-6874  #226-8750
DON11S	= 000200	#174-6874  #226-8750
DOWMTB	  001214 R	 216-8217  #216-8239
DOWTAB	  001154 R	 214-8121  #215-8154
DPB   	= 000137	#24-969
DPOAPE	  002504 R	 68-2790   #68-2794
DPOATB	  000000 R	 40-1669   #40-1674
DPODTB	  000004 R	 41-1684   #41-1689
DPOITB	  000010 R	 41-1696   #41-1701
DPOKCN	  002512 R	 67-2741   #68-2797
DPONTB	  000014 R	 41-1708   #41-1713
DPOOAI	  001510 R	 57-2419    58-2433   #58-2452
DPOPTB	  000020 R	 41-1720   #41-1725
DPOVFE	  002520 R	 68-2785   #68-2800
DPOZTB	  000024 R	 41-1732   #41-1737
DPS4  	= 040000	#174-6874  #226-8750
DPTMSG	= ******  GX	 206-7836
DRATAB	  000414 R	 105-4104  #107-4165
DRESET	= 000100	#174-6874  #226-8750
DRMMSG	= ******  GX	 209-7923
PATREE     CREATED BY  MACRO  ON 10-NOV-81 AT 17:50	PAGE 7

SYMBOL CROSS REFERENCE                                  CREF

SYMBOL	VALUE		REFERENCES

DR.DTE	= 000011	#174-6874  #226-8750   229-8859
DSEND 	= 000004	#174-6874  #226-8750
DS04  	= 004000	#174-6874  #226-8750
DS05  	= 002000	#174-6874  #226-8750
DS06  	= 001000	#174-6874  #226-8750
DTEBUF	  000112 R	 79-3196    79-3209   #79-3219    80-3285    81-3345    81-3348    82-3370    82-3383    82-3405
                         83-3446    84-3490
DTECMD	= 000451	#174-6874  #226-8750
DTEFLG	= 000444	#174-6874  #226-8750
DTEF11	= 000450	#174-6874  #226-8750
DTEMTD	= 000455	#174-6874  #226-8750
DTEMTI	= 000456	#174-6874  #226-8750
DTEREG	  000152 R	 79-3207   #79-3221
DUPE  	= 000020	#174-6874  #226-8750
DURE  	= 000004	#174-6874  #226-8750
DV.LOG	= ******  GX	 222-8576
DXWRD1	= 002000	#174-6874  #226-8750
DX1MS1	  001123 R	 81-3343   #81-3358
DX1MS2	  001143 R	 81-3352   #81-3359
D.CCPU	= ******  GX	 221-8542
D.CKLN	= ******  GX	 221-8561
D1.CES	= 004000	#10-366     154-6137
D1.DCS	= 000001	#10-383
D1.DDT	= 000040	#10-373     10-386
D1.DEX	= 000400	#10-369     10-386
D1.DFM	= 000010	#10-377
D1.DS0	= 100000	#10-359
D1.DS1	= 040000	#10-360
D1.DS2	= 020000	#10-361
D1.DS3	= 010000	#10-362
D1.DS4	= 004000	#10-363
D1.DS5	= 002000	#10-364
D1.DS6	= 001000	#10-365
D1.HLP	= 001000	#10-368     122-4955
D1.LBK	= 000200	#10-371
D1.MBZ	= 000442	#10-386
D1.PLS	= 000020	#10-376
D1.RUN	= 002000	#10-367     121-4941
D1.T10	= 000200	#10-370
D1.T11	= 000100	#10-372
D1.V04	= 000020	#10-375
D1.XFR	= 000004	#10-378
D1011 	= 000040	#174-6874  #226-8750
D2.EBD	= 040000	#11-392
D2.MBZ	= 177641	#11-409
D2.MS1	= 000002	#11-405
D2.MS2	= 000004	#11-404
D2.MS4	= 000010	#11-403
D2.MS8	= 000020	#11-402
D2.RA0	= 100000	#11-390
D2.RA1	= 040000	#11-391
D2.RA2	= 020000	#11-394
PATREE     CREATED BY  MACRO  ON 10-NOV-81 AT 17:50	PAGE 8

SYMBOL CROSS REFERENCE                                  CREF

SYMBOL	VALUE		REFERENCES

D2.RST	= 000100	#11-398
D3.CDD	= 000020	#11-422
D3.MBZ	= 177704	#11-431
D3.NPE	= 000002	#11-427
D3.PAR	= 040000	#11-414
D3.RST	= 000001	#11-433
D3.SCD	= 000040	#11-420
D3.SSL	= 100000	#11-413
D3.TXB	= 000001	#11-429     11-433
D3.UPE	= 000020	#11-421
D3.URE	= 000004	#11-426
D3.WEP	= 000010	#11-423
EBSEL 	= 000100	#174-6874  #226-8750
EBUSPC	= 000020	#174-6874  #226-8750
EBUSPS	= 000004	#174-6874  #226-8750
EDNKLA	  000534 R	 47-1962    47-1964   #47-1979
EDONES	= 040000	#174-6874  #226-8750
ED.EPT	= 000000	#9-324
ED.EXV	= 000040	#9-325      138-5522   171-6778
ED.PHY	= 000200	#9-328      67-2760    68-2775    68-2780    71-2899    121-4933   151-5935   154-6133   154-6148
                         229-8859
ED.UPT	= 000100	#9-326
ED.USV	= 000140	#9-327
EF.CRI	= ******  GX	 36-1519    175-6901
EF.PR1	= ******  GX	 214-8068   221-8534
ELEMSG	= ******  GX	 183-7150
ENTER 	= 000077	#25-971
EOSMSG	  002315 R	 128-5181  #128-5195
EPMSG0	  002222 R	 96-3803   #97-3836
EPMSG1	  002236 R	 97-3817   #97-3838
EPMSG2	  002250 R	 97-3822   #97-3840
EPMSG3	  002264 R	 97-3827   #97-3842
EPTR  	= 000000	#174-6874  #226-8750
EQV   	= 000444	#25-973
EQVB  	= 000447	#25-974
EQVI  	= 000445	#25-975
EQVM  	= 000446	#25-976
ERR10C	= 010000	#174-6874  #226-8750
ERR10S	= 020000	#174-6874  #226-8750
ERR11C	= 000001	#174-6874  #226-8750
ERR11S	= 000002	#174-6874  #226-8750
EXADTB	  000034 R	 43-1787   #43-1792
EXAITB	  000040 R	 43-1799   #43-1804
EXAM  	  001463 R	 82-3387   #82-3435
EXANTB	  000044 R	 43-1811   #43-1816
EXAOAI	  002052 R	 61-2535   #61-2576
EXAPTB	  000050 R	 43-1823   #43-1828
EXAZTB	  000054 R	 43-1835   #43-1840
EXBLK 	  000772 R	 154-6132  #154-6160
EXCH  	= 000250	#25-978
EXCIOC	  003346 R	 76-3100   #76-3105
EXDAT 	  001002 RG	 154-6161  #154-6164
PATREE     CREATED BY  MACRO  ON 10-NOV-81 AT 17:50	PAGE 9

SYMBOL CROSS REFERENCE                                  CREF

SYMBOL	VALUE		REFERENCES

EXFMSG	  002121 R	 90-3650   #91-3678
EXMDTB	  000030 R	 42-1772   #42-1777
EXRTBL	= ******  GX	 98-3852
EXTEND	= 000123	#25-979
EXTKCN	  003172 R	 71-2889   #71-2950
EXTMSG	= ******  GX	 206-7843
E.FCID	= 000002	#21-802     124-5041
E.FCOD	= 000003	#21-803     124-5042
E.FCTC	= ******  GX	 124-5039
E.FFIL	= 000006	#21-806
E.FHTO	= 000001	#21-801     121-4915   124-5040   155-6207
E.FKLN	= 000004	#21-804     221-8536   221-8560   221-8564
E.FLOD	= 000005	#21-805     124-5044   164-6588   164-6591
FAD   	= 000140	#25-981
FADB  	= 000143	#25-982
FADL  	= 000141	#25-983
FADM  	= 000142	#25-984
FADR  	= 000144	#25-986
FADRB 	= 000147	#25-987
FADRI 	= 000145	#25-988
FADRM 	= 000146	#25-989
FDV   	= 000170	#25-991
FDVB  	= 000173	#25-992
FDVL  	= 000171	#25-993
FDVM  	= 000172	#25-994
FDVR  	= 000174	#25-996
FDVRB 	= 000177	#25-997
FDVRI 	= 000175	#25-998
FDVRM 	= 000176	#25-999
FEBMSG	= ******  GX	 113-4651
FERTAB	  000430 R	 105-4108  #107-4173
FIX   	= 000122	#25-1001
FIXR  	= 000126	#25-1002
FLTR  	= 000127	#25-1004
FMABO 	  003207 R	 153-6055  #153-6077
FMBUF 	  000754 R	 153-6028  #153-6070   154-6143   154-6159
FMERR 	  000752 R	*153-6013   153-6048  *153-6053  #153-6069  *154-6142
FMHED 	  003143 R	 153-6026  #153-6076
FMMSG 	= ******  GX	 209-7925
FMP   	= 000160	#25-1006
FMPB  	= 000163	#25-1007
FMPL  	= 000161	#25-1008
FMPM  	= 000162	#25-1009
FMPR  	= 000164	#25-1011
FMPRB 	= 000167	#25-1012
FMPRI 	= 000165	#25-1013
FMPRM 	= 000166	#25-1014
FNCIFC	  001274 R	 53-2252    53-2254    53-2259    53-2261    53-2266   #53-2271
FNCOFC	  001302 R	 53-2269   #53-2274
FOFMSG	  002113 R	 90-3656   #91-3676
FONMSG	  002105 R	 90-3653   #91-3674
FORPRO	= 000020	#174-6874  #226-8750
PATREE     CREATED BY  MACRO  ON 10-NOV-81 AT 17:50	PAGE 10

SYMBOL CROSS REFERENCE                                  CREF

SYMBOL	VALUE		REFERENCES

FRIMSG	  004465 R	 216-8244  #217-8268
FR.ADX	= 000254	#18-724     100-3899
FR.APR	= 000220	#18-702     73-3024
FR.ARX	= 000252	#18-722     100-3907
FR.BRX	= 000250	#18-720     100-3915
FR.CA1	= 000312	#19-754     19-755     107-4150
FR.CA2	= 000310	#19-751     19-752     107-4153
FR.CL1	= 000316	#19-761     107-4158
FR.CL2	= 000314	#19-758     107-4161
FR.CRD	= 000302	#19-745
FR.CR1	= 000316	#19-760     19-761
FR.CR2	= 000314	#19-757     19-758
FR.CR3	= 000312	#19-755
FR.CR4	= 000310	#19-752
FR.DA1	= 000260	#18-730     107-4166
FR.DA2	= 000262	#18-733     107-4169
FR.EBS	= 000356	#20-788     100-3919
FR.FE1	= 000266	#18-737     107-4174
FR.FE2	= 000264	#18-735     107-4177
FR.PI0	= 000200	#18-691     104-4055
FR.PI1	= 000202	#18-693     104-4058
FR.RAD	= 000256	#18-726     100-3895
FR.RAR	= 000240	#18-712     100-3903
FR.RBR	= 000242	#18-714     100-3911
FR.RFM	= 000246	#18-718     100-3923
FR.RMQ	= 000244	#18-716     100-3927
FR.SC1	= 000262	#18-732     107-4190
FR.SC2	= 000260	#18-729     107-4193
FR.SR1	= 000306	#19-749     107-4182
FR.SR2	= 000304	#19-747     107-4185
FR.VM0	= 000320	#19-764
FR.VM1	= 000322	#19-766
FR.VM2	= 000324	#19-768
FR.VM3	= 000326	#19-770
FR.VM4	= 000330	#19-772
FR.VM5	= 000332	#19-774
FR.VM6	= 000334	#19-776
FR.VM7	= 000336	#19-778
FR.100	= 000200	#18-690     18-691     53-2251    102-3985
FR.101	= 000202	#18-692     18-693     102-3978
FR.102	= 000204	#18-694
FR.103	= 000206	#18-695
FR.104	= 000210	#18-696
FR.105	= 000212	#18-697
FR.106	= 000214	#18-698
FR.107	= 000216	#18-699
FR.110	= 000220	#18-701     18-702
FR.111	= 000222	#18-703
FR.112	= 000224	#18-704
FR.113	= 000226	#18-705
FR.114	= 000230	#18-706
FR.115	= 000232	#18-707
PATREE     CREATED BY  MACRO  ON 10-NOV-81 AT 17:50	PAGE 11

SYMBOL CROSS REFERENCE                                  CREF

SYMBOL	VALUE		REFERENCES

FR.116	= 000234	#18-708
FR.117	= 000236	#18-709
FR.120	= 000240	#18-711     18-712
FR.121	= 000242	#18-713     18-714
FR.122	= 000244	#18-715     18-716
FR.123	= 000246	#18-717     18-718
FR.124	= 000250	#18-719     18-720
FR.125	= 000252	#18-721     18-722
FR.126	= 000254	#18-723     18-724
FR.127	= 000256	#18-725     18-726
FR.130	= 000260	#18-728     18-729     18-730
FR.131	= 000262	#18-731     18-732     18-733
FR.132	= 000264	#18-734     18-735     102-3992
FR.133	= 000266	#18-736     18-737
FR.134	= 000270	#18-738
FR.135	= 000272	#18-739
FR.136	= 000274	#18-740
FR.137	= 000276	#18-741
FR.140	= 000300	#19-743
FR.141	= 000302	#19-744     19-745
FR.142	= 000304	#19-746     19-747
FR.143	= 000306	#19-748     19-749
FR.144	= 000310	#19-750     19-751
FR.145	= 000312	#19-753     19-754
FR.146	= 000314	#19-756     19-757
FR.147	= 000316	#19-759     19-760
FR.150	= 000320	#19-763     19-764     109-4285   109-4289
FR.151	= 000322	#19-765     19-766
FR.152	= 000324	#19-767     19-768
FR.153	= 000326	#19-769     19-770
FR.154	= 000330	#19-771     19-772     109-4293   109-4297
FR.155	= 000332	#19-773     19-774
FR.156	= 000334	#19-775     19-776
FR.157	= 000336	#19-777     19-778
FR.160	= 000340	#20-780
FR.161	= 000342	#20-781
FR.162	= 000344	#20-782
FR.163	= 000346	#20-783
FR.164	= 000350	#20-784
FR.165	= 000352	#20-785
FR.166	= 000354	#20-786
FR.167	= 000356	#20-787     20-788
FR.170	= 000360	#20-790
FR.171	= 000362	#20-791
FR.172	= 000364	#20-792
FR.173	= 000366	#20-793
FR.174	= 000370	#20-794
FR.175	= 000372	#20-795
FR.176	= 000374	#20-796
FR.177	= 000376	#20-797     53-2253
FSB   	= 000150	#25-1016
FSBB  	= 000153	#25-1017
PATREE     CREATED BY  MACRO  ON 10-NOV-81 AT 17:50	PAGE 12

SYMBOL CROSS REFERENCE                                  CREF

SYMBOL	VALUE		REFERENCES

FSBL  	= 000151	#25-1018
FSBM  	= 000152	#25-1019
FSBR  	= 000154	#26-1021
FSBRB 	= 000157	#26-1022
FSBRI 	= 000155	#26-1023
FSBRM 	= 000156	#26-1024
FSC   	= 000132	#26-1026
FSSMSG	= ******  GX	 209-7927
FTBYTE	= 000000	#2-65
FTCRAM	= 000000	#2-66
FTDEBU	= 000001	#2-67
FTDISP	= 000000	#2-68
FTDRAM	= 000000	#2-69
FTHELP	= 000000	#2-70
FTKLE 	= 000001	#2-77       121-4917   128-5152   129-5254
FTKLER	= 000000	#2-71
FTLCMN	= ******	 1-1        33-1408
FTLCVT	= 000000	#2-72
FTLIST	= 000001	#2-73       124-5043
FTTRAK	= 000001	#2-74       13-489
FTTRP4	= 000001	#2-75
FTUCVR	= 000130	#2-76
FT1105	= 000001	#2-64      #2-101
FT1110	= 000001	#2-63      #2-97       2-100
FT1115	= 000001	#2-62      #2-93       2-96
FT1120	= 000001	#2-61      #2-89       2-92
FT1135	= 000001	#2-60      #2-85       2-88
FT1140	= 000001	#2-59       2-84       3-110
FT1145	= 000000	#2-58       2-80
FULMSG	= ******  GX	 206-7846
FW.APE	= 000116	#16-627
FW.CA1	= 000122	#16-643
FW.CA2	= 000124	#16-645
FW.CDR	= 000112	#15-599
FW.CHN	= 000160	#17-675
FW.CRD	= 000126	#16-647
FW.CR1	= 000136	#16-655
FW.CR2	= 000134	#16-653
FW.CR3	= 000132	#16-651
FW.CR4	= 000130	#16-649
FW.CSR	= 000110	#15-575
FW.DJE	= 000146	#17-664
FW.DJO	= 000150	#17-666
FW.DR1	= 000140	#17-658
FW.DR2	= 000142	#17-660
FW.DR3	= 000144	#17-662
FW.EBL	= 000174	#17-683
FW.IAC	= 000154	#17-670
FW.IOJ	= 000152	#17-668
FW.IPE	= 000114	#16-614
FW.KLO	= 000156	#17-672
FW.LAR	= 000176	#17-686     53-2260
PATREE     CREATED BY  MACRO  ON 10-NOV-81 AT 17:50	PAGE 13

SYMBOL CROSS REFERENCE                                  CREF

SYMBOL	VALUE		REFERENCES

FW.LBL	= 000106	#15-573
FW.LBR	= 000104	#15-571
FW.MBX	= 000162	#17-677
FW.SBR	= 000174	#17-684
FW.040	= 000100	#15-568     53-2258
FW.041	= 000102	#15-569
FW.042	= 000104	#15-570     15-571
FW.043	= 000106	#15-572     15-573
FW.044	= 000110	#15-574     15-575
FW.045	= 000112	#15-598     15-599
FW.046	= 000114	#16-613     16-614
FW.047	= 000116	#16-626     16-627
FW.050	= 000120	#16-641
FW.051	= 000122	#16-642     16-643
FW.052	= 000124	#16-644     16-645
FW.053	= 000126	#16-646     16-647
FW.054	= 000130	#16-648     16-649
FW.055	= 000132	#16-650     16-651
FW.056	= 000134	#16-652     16-653
FW.057	= 000136	#16-654     16-655
FW.060	= 000140	#17-657     17-658
FW.061	= 000142	#17-659     17-660
FW.062	= 000144	#17-661     17-662
FW.063	= 000146	#17-663     17-664
FW.064	= 000150	#17-665     17-666
FW.065	= 000152	#17-667     17-668
FW.066	= 000154	#17-669     17-670
FW.067	= 000156	#17-671     17-672
FW.070	= 000160	#17-674     17-675
FW.071	= 000162	#17-676     17-677
FW.072	= 000164	#17-678
FW.073	= 000166	#17-679
FW.074	= 000170	#17-680
FW.075	= 000172	#17-681
FW.076	= 000174	#17-682     17-683     17-684
FW.077	= 000176	#17-685     17-686
FX.BMC	= 000012	#14-528
FX.CMR	= 000014	#14-530
FX.CON	= 000024	#14-539     38-1589
FX.CRF	= 000020	#14-535
FX.CSP	= 000000	#14-518
FX.CST	= 000002	#14-520
FX.EBC	= 000006	#14-524
FX.MBC	= 000004	#14-522
FX.SMR	= 000016	#14-532
FX.SRF	= 000022	#14-537
FX.SYC	= 000010	#14-526
FX.UDR	= 000032	#14-544
FX.UIR	= 000030	#14-542
FX.000	= 000000	#14-517     14-518
FX.001	= 000002	#14-519     14-520
FX.002	= 000004	#14-521     14-522
PATREE     CREATED BY  MACRO  ON 10-NOV-81 AT 17:50	PAGE 14

SYMBOL CROSS REFERENCE                                  CREF

SYMBOL	VALUE		REFERENCES

FX.003	= 000006	#14-523     14-524
FX.004	= 000010	#14-525     14-526
FX.005	= 000012	#14-527     14-528
FX.006	= 000014	#14-529     14-530
FX.007	= 000016	#14-531     14-532
FX.010	= 000020	#14-534     14-535
FX.011	= 000022	#14-536     14-537
FX.012	= 000024	#14-538     14-539
FX.013	= 000026	#14-540
FX.014	= 000030	#14-541     14-542
FX.015	= 000032	#14-543     14-544
FX.016	= 000034	#14-545
FX.017	= 000036	#14-546
FX.020	= 000040	#14-548
FX.021	= 000042	#14-549
FX.022	= 000044	#14-550
FX.023	= 000046	#14-551
FX.024	= 000050	#14-552
FX.025	= 000052	#14-553
FX.026	= 000054	#14-554
FX.027	= 000056	#14-555
FX.030	= 000060	#14-557
FX.031	= 000062	#14-558
FX.032	= 000064	#14-559
FX.033	= 000066	#14-560
FX.034	= 000070	#14-561
FX.035	= 000072	#14-562
FX.036	= 000074	#14-563
FX.037	= 000076	#14-564     53-2265
GETSTS	= 000062	#26-1028
GOOBLK	  000766 R	 154-6147  #154-6158
GTDDBT	  006214 R	 110-4450   110-4454   110-4458  #111-4465
GTDDOR	  006222 R	 110-4433   110-4439   110-4443   110-4446  #111-4468
GTDIDF	  006230 R	 110-4383   110-4405   110-4415  #111-4471
GTDMS0	  002277 R	 110-4378  #111-4485
GTDYOR	  006236 R	 110-4420  #111-4474
GTTITF	  006576 R	 112-4530  #112-4587
GTTMS0	  002306 R	 112-4520  #112-4596
GTTTOR	  006604 R	 112-4545   112-4548   112-4564   112-4573  #112-4590
G.TICP	= 000016	#110-4369  #159-6383  #216-8204
G.TICT	= 000014	#110-4369  #159-6383  #216-8204
G.TIDA	= 000004	#110-4369  #159-6383  #216-8204
G.TIHR	= 000006	#110-4369  #159-6383  #216-8204
G.TIMI	= 000010	#110-4369  #159-6383  #216-8204
G.TIMO	= 000002	#110-4369  #159-6383  #216-8204
G.TISC	= 000012	#110-4369  #159-6383  #216-8204
G.TIYR	= 000000	#110-4369  #159-6383  #216-8204
HDDAG1	  000216 R	 79-3234   #79-3273
HDDAG2	  000232 R	 79-3235   #79-3274
HDDAG3	  000262 R	 79-3237   #79-3276
HDDEX1	  000046 R	 79-3225   #79-3264
HDDEX2	  000032 R	 79-3224   #79-3263
PATREE     CREATED BY  MACRO  ON 10-NOV-81 AT 17:50	PAGE 15

SYMBOL CROSS REFERENCE                                  CREF

SYMBOL	VALUE		REFERENCES

HDDEX3	  000016 R	 79-3223   #79-3262
HDDLY 	  000004 R	 79-3222   #79-3261
HDSTAT	  000246 R	 79-3236   #79-3275
HDTAD1	  000062 R	 79-3226   #79-3265
HDTAD2	  000076 R	 79-3227   #79-3266
HDT10A	  000140 R	 79-3230   #79-3269
HDT10B	  000111 R	 79-3228   #79-3267
HDT10D	  000167 R	 79-3232   #79-3271
HDT11A	  000154 R	 79-3231   #79-3270
HDT11B	  000125 R	 79-3229   #79-3268
HDT11D	  000203 R	 79-3233   #79-3272
HIBYTE	= 177400	#174-6874  #226-8750
HLFMSG	= ******  GX	 206-7847
HLL   	= 000500	#26-1030
HLLE  	= 000530	#26-1031
HLLEI 	= 000531	#26-1032
HLLEM 	= 000532	#26-1033
HLLES 	= 000533	#26-1034
HLLI  	= 000501	#26-1036
HLLM  	= 000502	#26-1037
HLLO  	= 000520	#26-1039
HLLOI 	= 000521	#26-1040
HLLOM 	= 000522	#26-1041
HLLOS 	= 000523	#26-1042
HLLS  	= 000503	#26-1044
HLLZ  	= 000510	#26-1046
HLLZI 	= 000511	#26-1047
HLLZM 	= 000512	#26-1048
HLLZS 	= 000513	#26-1049
HLR   	= 000544	#26-1051
HLRE  	= 000574	#26-1053
HLREI 	= 000575	#26-1054
HLREM 	= 000576	#26-1055
HLRES 	= 000577	#26-1056
HLRO  	= 000564	#26-1058
HLROI 	= 000565	#26-1059
HLROM 	= 000566	#26-1060
HLROS 	= 000567	#26-1061
HLRS  	= 000547	#26-1063
HLRZ  	= 000554	#26-1065
HLRZI 	= 000555	#26-1066
HLRZM 	= 000556	#26-1067
HLRZS 	= 000557	#26-1068
HRL   	= 000504	#27-1070
HRLE  	= 000534	#27-1072
HRLEI 	= 000535	#27-1073
HRLEM 	= 000536	#27-1074
HRLES 	= 000537	#27-1075
HRLI  	= 000505	#27-1077
HRLM  	= 000506	#27-1078
HRLO  	= 000564	#27-1080
HRLOI 	= 000565	#27-1081
PATREE     CREATED BY  MACRO  ON 10-NOV-81 AT 17:50	PAGE 16

SYMBOL CROSS REFERENCE                                  CREF

SYMBOL	VALUE		REFERENCES

HRLOM 	= 000566	#27-1082
HRLOS 	= 000567	#27-1083
HRLS  	= 000507	#27-1085
HRLZ  	= 000514	#27-1087
HRLZI 	= 000515	#27-1088
HRLZM 	= 000516	#27-1089
HRLZS 	= 000517	#27-1090
HRR   	= 000540	#27-1092
HRRE  	= 000570	#27-1094
HRREI 	= 000571	#27-1095
HRREM 	= 000572	#27-1096
HRRES 	= 000573	#27-1097
HRRI  	= 000541	#27-1099
HRRM  	= 000542	#27-1100
HRRO  	= 000560	#27-1102
HRROI 	= 000561	#27-1103
HRROM 	= 000562	#27-1104
HRROS 	= 000563	#27-1105
HRRS  	= 000543	#27-1107
HRRZ  	= 000550	#27-1109
HRRZI 	= 000551	#27-1110
HRRZM 	= 000552	#27-1111
HRRZS 	= 000553	#27-1112
H.KCAC	= ******  GX	 194-7402
H.KCHN	= ******  GX	 194-7401
H.KEXT	= ******  GX	 194-7362   194-7400
H.KMOS	= ******  GX	 194-7399
H.KPWR	= ******  GX	 194-7370
I     	= 000000	#137-5494   137-5494  #137-5496   137-5496  #137-5498   137-5498  #137-5500   137-5500  #139-5541
                         139-5541  #139-5543   139-5543  #151-5957   151-5957
IBP   	= 000133	#28-1114
IDIV  	= 000230	#28-1116
IDIVB 	= 000233	#28-1117
IDIVI 	= 000231	#28-1118
IDIVM 	= 000232	#28-1119
IDPB  	= 000136	#28-1121
IE.ACT	= ******  GX	 142-5633
IE.EBX	= ******  GX	 229-8848
IE.INS	= ******  GX	 142-5631
IFLOP 	= 100000	#174-6874  #226-8750
ILDB  	= 000134	#28-1123
IMUL  	= 000220	#28-1125
IMULB 	= 000223	#28-1126
IMULI 	= 000221	#28-1127
IMULM 	= 000222	#28-1128
IN    	= 000056	#28-1130
INBUF 	= 000064	#28-1131
INCEX 	  000072 R	 61-2554   *61-2567   *61-2570   #61-2584
INCFR 	  000064 R	 50-2116   *50-2129   *50-2132   #50-2147
INCTX 	  000102 R	 71-2914   *71-2928   *71-2929   *71-2930    71-2935   #71-2957
INDLUN	= 000005	#21-822     144-5715
INIDNP	  007314 R	 121-4925  #122-4979
PATREE     CREATED BY  MACRO  ON 10-NOV-81 AT 17:50	PAGE 17

SYMBOL CROSS REFERENCE                                  CREF

SYMBOL	VALUE		REFERENCES

INIDTC	  007322 R	 122-4957  #122-4982
INIT  	= 000041	#28-1132
INPUT 	= 000066	#28-1133
INTMSG	= ******  GX	 206-7841
INTROF	= 000010	#174-6874  #226-8750
INTRON	= 000040	#174-6874  #226-8750
INTSON	= 000001	#174-6874  #226-8750
INT10S	= 000400	#174-6874  #226-8750
INT11C	= 002000	#174-6874  #226-8750
INT11S	= 004000	#174-6874  #226-8750
IOR   	= 000434	#28-1135    29-1203
IORB  	= 000437	#28-1136    29-1204
IORI  	= 000435	#28-1137    30-1221
IORM  	= 000436	#28-1138    30-1222
IO.ACE	= ******  GX	 159-6354
IO.ACR	= ******  GX	 144-5718
IO.ATT	= ******  GX	 164-6588
IO.DET	= ******  GX	 164-6591
IP.ALL	= 000017	#16-624
IP.CRP	= 000004	#16-620     16-623     204-7749   209-7922
IP.DRP	= 000002	#16-621     16-623     204-7753   209-7924
IP.FMP	= 000010	#16-619     16-623     204-7761   209-7926
IP.FSS	= 000001	#16-622     16-624     204-7765   209-7928
IP.NRM	= 000016	#16-623     16-624     16-639
JANMSG	= ******  GX	 113-4650
JFCL  	= 000255	#28-1140
JFFO  	= 000243	#28-1142
JRA   	= 000267	#28-1144
JRST  	= 000254	#28-1146
JSA   	= 000266	#28-1148
JSP   	= 000265	#28-1150
JSR   	= 000264	#28-1152
JSYS  	= 000104	#28-1154
JULMSG	= ******  GX	 113-4656
JUMP  	= 000320	#28-1156
JUMPA 	= 000324	#28-1157
JUMPE 	= 000322	#28-1158
JUMPG 	= 000327	#28-1159
JUMPGE	= 000325	#28-1160
JUMPL 	= 000321	#28-1161
JUMPLE	= 000323	#28-1162
JUMPN 	= 000326	#28-1163
JUNMSG	= ******  GX	 113-4655
KF.BRM	= 001000	#13-481
KF.CES	= 000100	#13-484
KF.CLK	= 100000	#13-475     38-1585    65-2679    67-2740    71-2888    121-4929   121-4936   136-5445   138-5508
                         176-6940   228-8803
KF.CON	= 000200	#13-483     13-485     38-1581    121-4936
KF.DEF	= 000200	#13-485     119-4876
KF.KLO	= 000400	#13-482     121-4936
KF.MRS	= 020000	#13-477
KF.RUN	= 040000	#13-476     38-1595    49-2053    121-4929   122-4959
PATREE     CREATED BY  MACRO  ON 10-NOV-81 AT 17:50	PAGE 18

SYMBOL CROSS REFERENCE                                  CREF

SYMBOL	VALUE		REFERENCES

KF.SIM	= 010000	#13-478     38-1583
KF.SMC	= 004000	#13-479
KF.SPM	= 002000	#13-480
KLETAB	  000600 RG	 128-5158  #128-5201
KLIOT 	= 000700	#28-1165
KLNLGE	= 001276 R	 221-8546  #222-8581
KLNLGL	= ******  GX	 221-8544
KLNLOG	  001252 R	#222-8574
KLNPLN	= ******  GX	 221-8539
KLNPWD	  001276 R	 221-8374   221-8509  #222-8583
KLPWRF	= 000010	#174-6874  #226-8750
KL.ABO	= ******  GX	 153-6059
KL.REQ	= ******  GX	 128-5188   153-6057
K.LSCK	= ******  GX	 222-8577
LDB   	= 000135	#29-1167
LGFMSG	  003335 R	 159-6336  #159-6411
LGSMSG	  003270 R	 159-6370  #159-6407
LGVMSG	  003323 R	 159-6373  #159-6409
LG.ALL	= 000007	#22-866     178-7014   223-8667
LG.ARG	= 000010	#22-859
LG.MAR	= 000020	#22-860
LG.MNT	= 000004	#22-858     22-866     179-7040
LG.MOD	= 000040	#22-861
LG.NUL	= 000000	#22-855
LG.OPR	= 000001	#22-856     22-865     178-7006
LG.PRG	= 000002	#22-857     22-865     175-6893   179-7043
LG.PRM	= 000003	#22-865     22-866     178-7010   223-8670
LG.RNG	= 000100	#22-862
LG.RPT	= 000400	#22-864
LG.STR	= 000200	#22-863
LOAD11	= 000004	#174-6874  #226-8750
LOGBUF	  001010 R	 159-6382  #159-6403
LOGLUN	= 000004	#21-821     159-6344   159-6353
LOGMSG	= ******  GX	 163-6559
LOOKUP	= 000076	#29-1169
LPTMSG	= ******  GX	 163-6551
LSH   	= 000242	#29-1171
LSHC  	= 000246	#29-1172
LSTLUN	= 000003	#21-820     125-5077   164-6588   164-6591
MAP   	= 000257	#29-1174
MARMSG	= ******  GX	 113-4652
MAYMSG	= ******  GX	 113-4654
MGNMSG	= ******  GX	 206-7842   206-7844
MNTMSG	= ******  GX	 179-7039   223-8666
MONMSG	  004417 R	 216-8240  #217-8260
MOVE  	= 000200	#29-1176
MOVEI 	= 000201	#29-1177
MOVEM 	= 000202	#29-1178
MOVES 	= 000203	#29-1179
MOVM  	= 000214	#29-1181
MOVMI 	= 000215	#29-1182
MOVMM 	= 000216	#29-1183
PATREE     CREATED BY  MACRO  ON 10-NOV-81 AT 17:50	PAGE 19

SYMBOL CROSS REFERENCE                                  CREF

SYMBOL	VALUE		REFERENCES

MOVMS 	= 000217	#29-1184
MOVN  	= 000210	#29-1186
MOVNI 	= 000211	#29-1187
MOVNM 	= 000212	#29-1188
MOVNS 	= 000213	#29-1189
MOVS  	= 000204	#29-1191
MOVSI 	= 000205	#29-1192
MOVSM 	= 000206	#29-1193
MOVSS 	= 000207	#29-1194
MPE11 	= 001000	#174-6874  #226-8750
MUL   	= 000224	#29-1196
MULB  	= 000227	#29-1197
MULI  	= 000225	#29-1198
MULM  	= 000226	#29-1199
M.TAKP	= ******  GX	 128-5171   128-5175   128-5179
NOFMSG	  002056 R	 90-3664   #91-3672
NOMSG 	  004342 R	 211-7979  #212-8002
NONMSG	  004212 R	 205-7795  #207-7863   208-7890
NOOP  	  000252 R	 79-3240    79-3241    79-3242    79-3244    79-3246    79-3247    79-3248    79-3249    79-3250
                         79-3251    79-3253   #79-3257
NOVMSG	= ******  GX	 113-4660
NULSTP	= 000040	#174-6874  #226-8750
NUPE  	= 000002	#174-6874  #226-8750
OCTMSG	= ******  GX	 113-4659
OFFMSG	= ******  GX	 96-3809    188-7218   189-7229   192-7293   196-7443   198-7479   208-7883   216-8231
ONMSG 	= ******  GX	 96-3805    189-7233   192-7290   196-7440   198-7476   208-7880   216-8228
OPEN  	= 000050	#29-1201
OPRMSG	= ******  GX	 179-7045   223-8672
OR    	= 000434	#29-1203
ORB   	= 000437	#29-1204
ORCA  	= 000454	#29-1206
ORCAB 	= 000457	#29-1207
ORCAI 	= 000455	#29-1208
ORCAM 	= 000456	#29-1209
ORCB  	= 000470	#30-1211
ORCBB 	= 000473	#30-1212
ORCBI 	= 000471	#30-1213
ORCBM 	= 000472	#30-1214
ORCM  	= 000464	#30-1216
ORCMB 	= 000467	#30-1217
ORCMI 	= 000465	#30-1218
ORCMM 	= 000466	#30-1219
ORI   	= 000435	#30-1221
ORM   	= 000436	#30-1222
OUT   	= 000057	#30-1224
OUTBUF	= 000065	#30-1225
OUTPUT	= 000067	#30-1226
PAG   	= 000010	#7-246      139-5541   139-5541   139-5543   139-5543   151-5957   151-5957
PAR$$E	= 000027	#1-50
PAR$$K	= 000126	#1-54
PAR$$V	= 000006	#1-49
PCMSG 	= ******  GX	 92-3713
PATREE     CREATED BY  MACRO  ON 10-NOV-81 AT 17:50	PAGE 20

SYMBOL CROSS REFERENCE                                  CREF

SYMBOL	VALUE		REFERENCES

PCTAB 	  000474 R	 108-4226  #109-4284
PC.AFI	= 000020	#13-509
PC.AT0	= 000004	#13-511
PC.AT1	= 000010	#13-510
PC.BIS	= 000400	#13-505
PC.CY0	= 004000	#13-502
PC.CY1	= 002000	#13-503
PC.FOV	= 001000	#13-504
PC.FUF	= 000002	#13-512
PC.LIP	= 000040	#13-508
PC.NDV	= 000001	#13-513
PC.OVF	= 010000	#13-501     102-3996
PC.UIO	= 000100	#13-507
PC.USR	= 000200	#13-506
PERCLR	= 001000	#174-6874  #226-8750
PE.ALL	= 000037	#9-337
PE.CES	= 000001	#9-332      9-337
PE.CRM	= 000004	#9-334      9-337
PE.DRM	= 000002	#9-333      9-337
PE.FMP	= 000010	#9-335      9-337
PE.FSS	= 000020	#9-336      9-337
PHYS  	= 100000	#174-6874  #226-8750
PI    	= 000004	#7-245      137-5500   137-5500
PIDENT	= 000000	#174-6874  #226-8750
POP   	= 000262	#30-1228
POPJ  	= 000263	#30-1229
PRGMSG	= ******  GX	 179-7042   223-8669
PRI7  	= 000340	#174-6874  #226-8750
PROFF 	  001477 R	 82-3394   #82-3437
PRON  	  001473 R	 82-3391   #82-3436
PROPNT	= 000021	#174-6874  #226-8750
PRTOFF	= 004000	#174-6874  #226-8750
PR0   	= 000000	#174-6874  #226-8750
PR1   	= 000040	#174-6874  #226-8750
PR2   	= 000100	#174-6874  #226-8750
PR3   	= 000140	#174-6874  #226-8750
PR4   	= 000200	#174-6874  #226-8750
PR5   	= 000240	#174-6874  #226-8750
PR6   	= 000300	#174-6874  #226-8750
PR7   	= 000340	#174-6874  #226-8750
PS    	= 177776	 79-3199   *79-3199   *79-3204   #174-6874   214-8119  *214-8119  *214-8132   221-8495  *221-8495
                        *221-8515   221-8524  *221-8524  *221-8530  #226-8750
PSENTB	  001130 R	 209-7900  #209-7918
PSWW1 	= 000005	#174-6874  #226-8750
PSWW10	= 000014	#174-6874  #226-8750
PSWW11	= 000015	#174-6874  #226-8750
PSWW12	= 000016	#174-6874  #226-8750
PSWW13	= 000017	#174-6874  #226-8750
PSWW2 	= 000006	#174-6874  #226-8750
PSWW3 	= 000007	#174-6874  #226-8750
PSWW4 	= 000010	#174-6874  #226-8750
PSWW5 	= 000011	#174-6874  #226-8750
PATREE     CREATED BY  MACRO  ON 10-NOV-81 AT 17:50	PAGE 21

SYMBOL CROSS REFERENCE                                  CREF

SYMBOL	VALUE		REFERENCES

PSWW6 	= 000012	#174-6874  #226-8750
PSWW7 	= 000013	#174-6874  #226-8750
PS.NRM	= 001416	#16-639     204-7741
PULSE 	= 000020	#174-6874  #226-8750
PUSH  	= 000261	#30-1231
PUSHJ 	= 000260	#30-1232
QSIZE 	= 000023	#174-6874  #226-8750
QTRMSG	= ******  GX	 206-7848
Q.BYCT	= 000016	#21-813
Q.IBUF	= 000014	#21-811
Q.IOAE	= 000012	#164-6588  #164-6591
Q.IOEF	= 000006	#164-6588  #164-6591
Q.IOFN	= 000002	#164-6588  #164-6591
Q.IOLU	= 000004	#164-6588  #164-6591
Q.IOPL	= 000014	#21-810     21-811     21-812     21-813     21-814    #164-6588  #164-6591
Q.IOPR	= 000007	#164-6588  #164-6591
Q.IOSB	= 000010	#164-6588  #164-6591
Q.OBUF	= 000014	#21-812
Q.OVFC	= 000020	#21-814
RAMIS0	= 010000	#174-6874  #226-8750
RDPITB	  000346 R	 104-4036  #104-4054
RDPITE	= 000362 R	 104-4046  #104-4061
RELEAS	= 000071	#30-1234
REMMSG	= ******  GX	 223-8662
RENAME	= 000055	#30-1235
REQKLD	  000114 R	 223-8677  #223-8686
RFMAD0	= 100000	#174-6874  #226-8750
RFMAD1	= 040000	#174-6874  #226-8750
RFMAD2	= 020000	#174-6874  #226-8750
RFMAD3	= 010000	#174-6874  #226-8750
RM    	= 000010	#174-6874  #226-8750
RNGEX 	  000070 R	 61-2550   *61-2556   *61-2566   #61-2583
RNGFR 	  000062 R	 50-2112   *50-2118   *50-2128   #50-2146
RNGTX 	  000110 R	 71-2909   *71-2917   *71-2927   #71-2958
ROT   	= 000241	#30-1237
ROTC  	= 000245	#30-1238
RQSKLD	  000000 R	 56-2342   #56-2349
RSAKCN	  010234 R	 136-5446  #136-5463
RSAPRI	  000662 R	 137-5472  #137-5493
RSERRI	  000670 R	 137-5476  #137-5495
RSPGI0	  000712 R	 138-5525  #139-5540
RSPGI1	  000720 R	 138-5527  #139-5542
RSPKCN	  010412 R	 138-5509  #139-5534
RSTIOI	  000676 R	 137-5480  #137-5497
RSTPII	  000704 R	 137-5484  #137-5499
RUNITN	  010504 R	 141-5615  #142-5635
RUNNST	  010512 R	 142-5632  #142-5638
RUNTAA	  010520 R	 142-5634  #142-5641
R.QSGC	= 000015	#56-2350   #143-5666  #223-8687
R.QSPC	= 000014	#56-2350   #143-5666  #223-8687
R.QSPN	= 000006	#56-2350   #143-5666  #223-8687
R.QSPR	= 000012	#56-2350   #143-5666  #223-8687
PATREE     CREATED BY  MACRO  ON 10-NOV-81 AT 17:50	PAGE 22

SYMBOL CROSS REFERENCE                                  CREF

SYMBOL	VALUE		REFERENCES

R.QSTN	= 000002	#56-2350   #143-5666  #223-8687
SATMSG	  004475 R	 216-8245  #217-8270
SAVBLK	  000764 R	*153-6021   153-6029   153-6060  #153-6072
SBRTAB	  000444 R	 105-4112  #107-4181
SCAILI	  011052 R	 150-5876  #150-5885
SCANOR	  011060 R	 150-5880  #150-5887   153-6038
SCCCLE	  013372 R	 178-7019  #178-7027
SCCLKT	  001050 R	 199-7554  #201-7632
SCD   	= 000040	#174-6874  #226-8750
SCDCDI	  016330 R	 214-8069  #215-8139
SCDDAV	  016336 R	 214-8076  #215-8142
SCDNDI	  016344 R	 214-8082  #215-8145
SCDNTI	  016352 R	 214-8086  #215-8148
SCKIPC	  016720 R	#221-8390   221-8397   221-8401   221-8403
SCKKWE	  017264 R	 221-8467   221-8470   221-8473  #221-8477
SCKMS0	  004517 R	 221-8365  #222-8587
SCKMS1	  004532 R	 221-8408   221-8414  #222-8589
SCKMS2	  004556 R	 221-8422   221-8458  #222-8591
SCKMS3	  004603 R	 221-8483  #222-8593
SCKMS4	  004632 R	 221-8356  #222-8595
SCKNPI	  016676 R	 221-8369  #221-8381
SCKPTL	  016704 R	 221-8372  #221-8384
SCKSKI	  016712 R	 221-8354  #221-8387
SCOCAP	  012454 R	 160-6443   160-6450  #160-6454
SCPART	  001062 R	 199-7559   199-7566  #201-7638
SCPILS	  015060 R	 200-7583  #201-7620
SCPSCF	  015066 R	#201-7623   201-7636
SCPSPF	  015074 R	#201-7626   201-7642
SCRTAB	  000460 R	 105-4116  #107-4189
SEPMSG	= ******  GX	 113-4658
SETA  	= 000424	#30-1240
SETAB 	= 000427	#30-1241
SETACI	  000744 R	 151-5939  #151-5957
SETAI 	= 000425	#30-1242
SETAM 	= 000426	#30-1243
SETCA 	= 000450	#30-1245
SETCAB	= 000453	#30-1246
SETCAI	= 000451	#30-1247
SETCAM	= 000452	#30-1248
SETCM 	= 000460	#30-1250
SETCMB	= 000463	#30-1251
SETCMI	= 000461	#30-1252
SETCMM	= 000462	#30-1253
SETM  	= 000414	#31-1255
SETMB 	= 000417	#31-1256
SETMI 	= 000415	#31-1257
SETMM 	= 000416	#31-1258
SETO  	= 000474	#31-1260
SETOB 	= 000477	#31-1261
SETOI 	= 000475	#31-1262
SETOM 	= 000476	#31-1263
SETSTS	= 000060	#31-1265
PATREE     CREATED BY  MACRO  ON 10-NOV-81 AT 17:50	PAGE 23

SYMBOL CROSS REFERENCE                                  CREF

SYMBOL	VALUE		REFERENCES

SETZ  	= 000400	#31-1267
SETZB 	= 000403	#31-1268
SETZI 	= 000401	#31-1269
SETZM 	= 000402	#31-1270
SKIP  	= 000330	#31-1272
SKIPA 	= 000334	#31-1273
SKIPE 	= 000332	#31-1274
SKIPG 	= 000337	#31-1275
SKIPGE	= 000335	#31-1276
SKIPL 	= 000331	#31-1277
SKIPLE	= 000333	#31-1278
SKIPN 	= 000336	#31-1279
SLOMSG	= ******  GX	 206-7849
SOJ   	= 000360	#31-1281
SOJA  	= 000364	#31-1282
SOJE  	= 000362	#31-1283
SOJG  	= 000367	#31-1284
SOJGE 	= 000365	#31-1285
SOJL  	= 000361	#31-1286
SOJLE 	= 000363	#31-1287
SOJN  	= 000366	#31-1288
SOS   	= 000370	#31-1290
SOSA  	= 000374	#31-1291
SOSE  	= 000372	#31-1292
SOSG  	= 000377	#31-1293
SOSGE 	= 000375	#31-1294
SOSL  	= 000371	#31-1295
SOSLE 	= 000373	#31-1296
SOSN  	= 000376	#31-1297
SPCTAB	  000314 R	 82-3379   #82-3413
SPC1  	  001367 R	 82-3414   #82-3428
SPC2  	  001373 R	 82-3415   #82-3429
SPC3  	  001410 R	 82-3416   #82-3430
SPC4  	  001414 R	 82-3417   #82-3431
SPC5  	  001431 R	 82-3418   #82-3432
SPC6  	  001442 R	 82-3419   #82-3433
SSTLEN	= ******  GX	 123-5027
STASZI	  013200 R	 175-6891  #175-6904
STAT  	= 174434	#174-6874  #226-8750
STATAB	  000254 R	 80-3286   #80-3299
STATO 	= 000061	#31-1299
STATUS	= 000022	#31-1300   #174-6874  #226-8750
STATYP	  003462 R	 79-3254   #80-3284
STATZ 	= 000063	#31-1301
STA0  	  001100 R	 80-3315   #80-3334
STA1  	  001036 R	 80-3314   #80-3333
STA10 	  000475 R	 80-3305   #80-3324
STA11 	  000436 R	 80-3304   #80-3323
STA12 	  000414 R	 80-3303   #80-3322
STA13 	  000357 R	 80-3302   #80-3321
STA14 	  000334 R	 80-3301   #80-3320
STA15 	  000276 R	 80-3300   #80-3319
PATREE     CREATED BY  MACRO  ON 10-NOV-81 AT 17:50	PAGE 24

SYMBOL CROSS REFERENCE                                  CREF

SYMBOL	VALUE		REFERENCES

STA2  	  001004 R	 80-3313   #80-3332
STA3  	  000757 R	 80-3312   #80-3331
STA4  	  000727 R	 80-3311   #80-3330
STA5  	  000666 R	 80-3310   #80-3329
STA6  	  000641 R	 80-3309   #80-3328
STA7  	  000610 R	 80-3308   #80-3327
STA8  	  000551 R	 80-3307   #80-3326
STA9  	  000515 R	 80-3306   #80-3325
STOPEX	  000066 R	*61-2532    61-2552    61-2568    61-2571   *61-2572   #61-2582
STOPFR	  000060 R	*50-2090    50-2114    50-2130    50-2133   *50-2134   #50-2145
STOPTX	  000074 R	*71-2884   *71-2885   *71-2886    71-2911    71-2931    71-2938    71-2939    71-2940   *71-2941
                        *71-2942   *71-2943   #71-2956
ST.CED	= 000100	#12-454     12-469
ST.CLE	= 000001	#12-467     12-469
ST.CTD	= 040000	#12-439
ST.CTE	= 010000	#12-443     12-469
ST.DW1	= 002000	#12-446
ST.DXD	= 000004	#12-462
ST.EBS	= 000100	#12-453
ST.EDB	= 004000	#12-444
ST.EPE	= 000020	#12-457     12-469
ST.IDS	= 000010	#12-461
ST.IEN	= 000040	#12-456
ST.ION	= 000001	#12-466
ST.MBZ	= 000000	#12-471
ST.MOD	= 000010	#12-459     121-4923
ST.MPE	= 001000	#12-447     12-469
ST.NST	= 000040	#12-455
ST.RIZ	= 010000	#12-442
ST.RST	= 011121	#12-469
ST.SEP	= 000004	#12-463
ST.STE	= 000002	#12-465
ST.TED	= 000200	#12-451
ST.TER	= 000002	#12-464
ST.TXD	= 100000	#12-437
ST.TXE	= 020000	#12-440
ST.XDB	= 000400	#12-449
SUB   	= 000274	#32-1303
SUBB  	= 000277	#32-1304
SUBI  	= 000275	#32-1305
SUBM  	= 000276	#32-1306
SUNMSG	  004507 R	 216-8246  #217-8272
SWPFSW	  011664 R	 154-6138   154-6141  #154-6153
SWR   	= 177570	#174-6874  #226-8750
SWSLLT	= 100000	#174-6874  #226-8750
SXCT  	= 000106	#32-1308
SYMTAB	  000212 R	 79-3211    79-3211   #79-3239
TAKIRE	  010662 R	 144-5711  #144-5727
TAKNSF	  010670 R	 144-5717  #144-5729
TAKTAB	  000656 RG	 128-5176  #128-5225
TA2MS1	  001202 R	 82-3368   #82-3423
TA2MS2	  001226 R	 82-3381   #82-3424
PATREE     CREATED BY  MACRO  ON 10-NOV-81 AT 17:50	PAGE 25

SYMBOL CROSS REFERENCE                                  CREF

SYMBOL	VALUE		REFERENCES

TA2MS3	  001246 R	 82-3389   #82-3425
TA2MS4	  001305 R	 82-3398   #82-3426
TA2MS5	  001344 R	 82-3400   #82-3427
TC.CON	= 000377	#22-873
TC.CTC	= 000002	#22-870
TC.ERR	= 000000	#22-872     38-1604    47-1980    49-2063    53-2272    53-2275    58-2453    61-2577    68-2795
                         68-2798    68-2801    71-2951    76-3106    111-4466   111-4469   111-4472   111-4475   112-4588
                         112-4591   122-4980   122-4983   136-5464   139-5535   142-5636   142-5639   142-5642   144-5728
                         144-5730   150-5886   150-5888   154-6154   160-6455   175-6905   178-7028   194-7390   194-7393
                         201-7621   201-7624   201-7627   215-8140   215-8143   215-8146   215-8149   221-8382   221-8385
                         221-8388   221-8392   221-8478   229-8850   229-8853
TC.RST	= 000001	#22-871
TDC   	= 000650	#32-1310
TDCA  	= 000654	#32-1311
TDCE  	= 000652	#32-1312
TDCN  	= 000656	#32-1313
TDN   	= 000610	#32-1315
TDNA  	= 000614	#32-1316
TDNE  	= 000612	#32-1317
TDNN  	= 000616	#32-1318
TDO   	= 000670	#32-1320
TDOA  	= 000674	#32-1321
TDOE  	= 000672	#32-1322
TDON  	= 000676	#32-1323
TDZ   	= 000630	#32-1325
TDZA  	= 000634	#32-1326
TDZE  	= 000632	#32-1327
TDZN  	= 000636	#32-1328
TEMADR	  000732 R	 151-5949  #151-5951
TENAD1	= 174410	#174-6874  #226-8750
TENAD2	= 174412	#174-6874  #226-8750
TENMSG	= ******  GX	 183-7147
THUMSG	  004453 R	 216-8243  #217-8266
TLC   	= 000641	#32-1330
TLCA  	= 000645	#32-1331
TLCE  	= 000643	#32-1332
TLCN  	= 000647	#32-1333
TLN   	= 000601	#32-1335
TLNA  	= 000605	#32-1336
TLNE  	= 000603	#32-1337
TLNN  	= 000607	#32-1338
TLO   	= 000661	#32-1340
TLOA  	= 000665	#32-1341
TLOE  	= 000663	#32-1342
TLON  	= 000667	#32-1343
TLZ   	= 000621	#32-1345
TLZA  	= 000625	#32-1346
TLZE  	= 000623	#32-1347
TLZN  	= 000627	#32-1348
TOBM  	= 000004	#174-6874  #226-8750
TOD   	= 000003	#174-6874  #226-8750
TOIP  	= 000002	#174-6874  #226-8750
PATREE     CREATED BY  MACRO  ON 10-NOV-81 AT 17:50	PAGE 26

SYMBOL CROSS REFERENCE                                  CREF

SYMBOL	VALUE		REFERENCES

TOIT  	= 000001	#174-6874  #226-8750
TO10  	= 000200	#174-6874  #226-8750
TO10AD	= 174420	#174-6874  #226-8750
TO10BC	= 174414	#174-6874  #226-8750
TO10BM	= 000001	#174-6874  #226-8750
TO10DB	= 000400	#174-6874  #226-8750
TO10DN	= 100000	#174-6874  #226-8750
TO10DT	= 174424	#174-6874  #226-8750
TO10ER	= 020000	#174-6874  #226-8750
TO11  	= 000100	#174-6874  #226-8750
TO11AD	= 174422	#174-6874  #226-8750
TO11BC	= 174416	#174-6874  #226-8750
TO11BM	= 020000	#174-6874  #226-8750
TO11DB	= 004000	#174-6874  #226-8750
TO11DN	= 000200	#174-6874  #226-8750
TO11DT	= 174426	#174-6874  #226-8750
TO11ER	= 000002	#174-6874  #226-8750
TRC   	= 000640	#32-1350
TRCA  	= 000644	#32-1351
TRCE  	= 000642	#32-1352
TRCN  	= 000646	#32-1353
TRN   	= 000600	#33-1355
TRNA  	= 000604	#33-1356
TRNE  	= 000602	#33-1357
TRNN  	= 000606	#33-1358
TRO   	= 000660	#33-1360
TROA  	= 000664	#33-1361
TROE  	= 000662	#33-1362
TRON  	= 000666	#33-1363
TRZ   	= 000620	#33-1365
TRZA  	= 000624	#33-1366
TRZE  	= 000622	#33-1367
TRZN  	= 000626	#33-1368
TR.ALL	= 000077	#13-496
TR.DEP	= 000020	#13-494     13-496
TR.DTE	= 000040	#13-495     13-496
TR.EXM	= 000010	#13-493     13-496
TR.FRD	= 000002	#13-491     13-496
TR.FWR	= 000004	#13-492     13-496
TR.FXC	= 000001	#13-490     13-496
TSC   	= 000651	#33-1370
TSCA  	= 000655	#33-1371
TSCE  	= 000653	#33-1372
TSCN  	= 000657	#33-1373
TSN   	= 000611	#33-1375
TSNA  	= 000615	#33-1376
TSNE  	= 000613	#33-1377
TSNN  	= 000617	#33-1378
TSO   	= 000671	#33-1380
TSOA  	= 000675	#33-1381
TSOE  	= 000673	#33-1382
TSON  	= 000677	#33-1383
PATREE     CREATED BY  MACRO  ON 10-NOV-81 AT 17:50	PAGE 27

SYMBOL CROSS REFERENCE                                  CREF

SYMBOL	VALUE		REFERENCES

TSZ   	= 000631	#33-1385
TSZA  	= 000635	#33-1386
TSZE  	= 000633	#33-1387
TSZN  	= 000637	#33-1388
TTCALL	= 000051	#33-1390
TTYMSG	= ******  GX	 163-6543
TUEMSG	  004427 R	 216-8241  #217-8262
TYDMTB	  000544 R	 113-4633  #113-4649
TYLGMS	  012312 R	 159-6338   159-6338   159-6372   159-6372  #159-6381
TYPAD2	  003570 R	 79-3245   #82-3367
TYPDG1	  004012 R	 79-3252   #83-3445
TYPDG3	  004064 R	 79-3255   #84-3489
TYPDTE	  003364 R	 78-3169   #79-3194
TYPDX1	  003520 R	 79-3243   #81-3342
UGETF 	= 000073	#33-1392
UJEN  	= 000100	#33-1394
UNASG1	= 000032	#174-6874  #226-8750
UNASG2	= 000033	#174-6874  #226-8750
UNASG3	= 000034	#174-6874  #226-8750
UNASG4	= 000035	#174-6874  #226-8750
UNASG5	= 000036	#174-6874  #226-8750
UNASG6	= 000037	#174-6874  #226-8750
USETI 	= 000074	#33-1396
USETO 	= 000075	#33-1397
USRMSG	= ******  GX	 223-8659
VF.DSP	= 000060	#21-828
VF.FFD	= 000061	#21-829
VF.INT	= 000000	#21-826
VF.OVR	= 000053	#21-830
VF.PRM	= 000044	#21-831
VF.SSP	= 000040	#21-827
VMAMSG	= ******  GX	 92-3715
VMATB 	  000510 R	 108-4234  #109-4292
VMHTB 	  000516 R	 108-4238  #109-4296
WACMSG	  003127 R	 152-5965  #152-5987
WCMMSG	  003413 R	 179-7036  #179-7052
WCMSG0	  004130 R	 205-7786  #207-7855
WCMSG1	  004154 R	 205-7788  #207-7857
WCMSG2	  004170 R	 206-7815  #207-7859
WCMSG3	  004202 R	 206-7822  #207-7861
WEDMSG	  004440 R	 216-8242  #217-8264
WEP   	= 000010	#174-6874  #226-8750
WHDMS0	  004345 R	 216-8213  #217-8255
WHDMS1	  004373 R	 216-8226  #217-8257
WHHMS0	  003653 R	 194-7353  #194-7406
WHHMS1	  003667 R	 194-7359  #194-7408
WHHMS2	  003701 R	 194-7376  #194-7410
WHHMS3	  003711 R	 194-7399  #194-7412
WHHMS4	  003740 R	 194-7400  #194-7414
WHHMS5	  003765 R	 194-7401  #194-7416
WHHMS6	  004010 R	 194-7402  #194-7418
WHIMSG	  003433 R	 181-7087  #181-7109
PATREE     CREATED BY  MACRO  ON 10-NOV-81 AT 17:50	PAGE 28

SYMBOL CROSS REFERENCE                                  CREF

SYMBOL	VALUE		REFERENCES

WHKMRB	  005007 R	 223-8636  #224-8705
WHKMSA	  005000 R	 223-8629  #224-8703
WHKMSI	  005032 R	 223-8632  #224-8707
WHKMSK	  005043 R	 223-8657  #224-8709
WHKMS0	  004650 R	 223-8624  #224-8693
WHKMS1	  004661 R	 223-8626  #224-8695
WHKMS2	  004672 R	 223-8642  #224-8697
WHKMS3	  004720 R	 223-8649  #224-8699
WHKMS4	  004750 R	 223-8664  #224-8701
WHMMSG	  003473 R	 183-7145  #183-7157
WHOMSG	  003505 R	 185-7178  #185-7187
WHOTMS	  003371 R	 163-6538  #163-6567
WHRCRH	  014526 R	 194-7352  #194-7392
WHRECM	  004017 R	 196-7438  #196-7450
WHRMRH	  014520 R	 194-7351  #194-7389
WHRMSG	  003453 R	 181-7094  #181-7111
WHTMSG	  003567 R	 192-7288  #193-7314
WHWTAB	  001030 R	 194-7379  #194-7398
WPMSG0	  004217 R	 208-7876  #210-7934
WPMSG1	  004251 R	 208-7878  #210-7936
WPMSG2	  004277 R	 208-7886  #210-7938
WRLMSG	  003526 R	 188-7216  #189-7242
WRTMSG	  003547 R	 189-7227  #189-7244
WVMSG1	  003607 R	 193-7301  #193-7316
WVMSG2	  003631 R	 193-7305  #193-7318
XCT   	= 000256	#33-1399
XOR   	= 000430	#33-1401
XORB  	= 000433	#33-1402
XORI  	= 000431	#33-1403
XORM  	= 000432	#33-1404
XR    	= 000000	#137-5494   137-5494  #137-5496   137-5496  #137-5498   137-5498  #137-5500   137-5500  #139-5541
                         139-5541  #139-5543   139-5543  #151-5957   151-5957
YESMSG	  004336 R	 211-7975  #212-8000
YONMSG	  004317 R	 211-7968  #212-7998
ZERDPB	  000132 R	*228-8820  *228-8821   229-8833  #229-8858
ZERESD	  020436 R	 229-8849  #229-8852
ZSTOP 	= 040000	#174-6874  #226-8750
$DIV  	= ******  GX	 114-4693   114-4693   114-4697   114-4697   214-8115   214-8115
$DSW  	= ******  GX	 142-5630   229-8848
$MUL  	= ******  GX	 112-4551   112-4551   112-4555   112-4555   112-4566   112-4566   112-4576   112-4576   146-5775
                         146-5775   214-8092   214-8092
$$    	= 000037	#34-1462    34-1462   #36-1511    36-1511   #36-1518    36-1518   #36-1520    36-1520   #38-1579
                         38-1579   #38-1587    38-1587   #38-1590    38-1590   #38-1594    38-1594   #40-1666    40-1666
                        #42-1768    42-1768   #44-1870    44-1870   #45-1907    45-1907   #47-1941    47-1941   #47-1942
                         47-1942   #47-1946    47-1946   #47-1947    47-1947   #47-1951    47-1951   #47-1953    47-1953
                        #47-1957    47-1957   #47-1959    47-1959   #49-2039    49-2039   #49-2044    49-2044   #49-2056
                         49-2056   #50-2089    50-2089   #50-2091    50-2091   #50-2092    50-2092   #50-2098    50-2098
                        #50-2100    50-2100   #50-2103    50-2103   #50-2104    50-2104   #50-2105    50-2105   #50-2107
                         50-2107   #50-2108    50-2108   #50-2109    50-2109   #50-2126    50-2126   #50-2127    50-2127
                        #51-2173    51-2173   #51-2174    51-2174   #51-2175    51-2175   #51-2182    51-2182   #51-2183
                         51-2183   #51-2186    51-2186   #52-2213    52-2213   #52-2214    52-2214   #52-2215    52-2215
                        #52-2216    52-2216   #56-2339    56-2339   #57-2409    57-2409   #57-2412    57-2412   #57-2416
PATREE     CREATED BY  MACRO  ON 10-NOV-81 AT 17:50	PAGE 29

SYMBOL CROSS REFERENCE                                  CREF

SYMBOL	VALUE		REFERENCES

                         57-2416   #57-2421    57-2421   #57-2422    57-2422   #58-2431    58-2431   #58-2440    58-2440
                        #58-2442    58-2442   #58-2443    58-2443   #58-2445    58-2445   #59-2465    59-2465   #59-2469
                         59-2469   #59-2473    59-2473   #59-2477    59-2477   #59-2487    59-2487   #60-2518    60-2518
                        #60-2521    60-2521   #60-2525    60-2525   #61-2533    61-2533   #61-2542    61-2542   #61-2544
                         61-2544   #61-2545    61-2545   #61-2547    61-2547   #61-2548    61-2548   #61-2564    61-2564
                        #61-2565    61-2565   #62-2597    62-2597   #62-2601    62-2601   #62-2605    62-2605   #62-2609
                         62-2609   #65-2670    65-2670   #65-2671    65-2671   #65-2676    65-2676   #65-2677    65-2677
                        #65-2681    65-2681   #65-2684    65-2684   #66-2720    66-2720   #66-2723    66-2723   #66-2728
                         66-2728   #66-2729    66-2729   #66-2732    66-2732   #67-2739    67-2739   #67-2761    67-2761
                        #67-2763    67-2763   #67-2764    67-2764   #67-2765    67-2765   #67-2767    67-2767   #67-2768
                         67-2768   #68-2776    68-2776   #68-2781    68-2781   #68-2784    68-2784   #68-2786    68-2786
                        #68-2787    68-2787   #68-2788    68-2788   #69-2813    69-2813   #69-2817    69-2817   #69-2821
                         69-2821   #69-2825    69-2825   #69-2836    69-2836   #70-2868    70-2868   #70-2871    70-2871
                        #70-2876    70-2876   #71-2883    71-2883   #71-2900    71-2900   #71-2902    71-2902   #71-2903
                         71-2903   #71-2904    71-2904   #71-2906    71-2906   #71-2907    71-2907   #71-2912    71-2912
                        #71-2915    71-2915   #71-2925    71-2925   #71-2926    71-2926   #71-2932    71-2932   #71-2936
                         71-2936   #72-2971    72-2971   #72-2975    72-2975   #72-2979    72-2979   #72-2983    72-2983
                        #73-3025    73-3025   #73-3027    73-3027   #76-3095    76-3095   #76-3096    76-3096   #78-3168
                         78-3168   #79-3208    79-3208   #79-3210    79-3210   #79-3211    79-3211   #80-3292    80-3292
                        #81-3344    81-3344   #81-3347    81-3347   #81-3353    81-3353   #82-3369    82-3369   #82-3380
                         82-3380   #82-3382    82-3382   #82-3388    82-3388   #82-3390    82-3390   #82-3395    82-3395
                        #82-3399    82-3399   #82-3401    82-3401   #82-3407    82-3407   #83-3457    83-3457   #84-3494
                         84-3494   #89-3601    89-3601   #89-3607    89-3607   #89-3608    89-3608   #89-3609    89-3609
                        #89-3611    89-3611   #89-3612    89-3612   #89-3613    89-3613   #89-3615    89-3615   #90-3644
                         90-3644   #90-3645    90-3645   #90-3646    90-3646   #90-3647    90-3647   #90-3651    90-3651
                        #90-3658    90-3658   #90-3665    90-3665   #92-3710    92-3710   #92-3712    92-3712   #92-3714
                         92-3714   #92-3716    92-3716   #92-3717    92-3717   #92-3718    92-3718   #94-3757    94-3757
                        #94-3759    94-3759   #94-3760    94-3760   #94-3762    94-3762   #94-3764    94-3764   #94-3765
                         94-3765   #94-3766    94-3766   #94-3768    94-3768   #96-3797    96-3797   #96-3799    96-3799
                        #96-3800    96-3800   #96-3801    96-3801   #96-3804    96-3804   #97-3816    97-3816   #97-3818
                         97-3818   #97-3821    97-3821   #97-3823    97-3823   #97-3826    97-3826   #97-3828    97-3828
                        #97-3831    97-3831   #98-3849    98-3849   #98-3850    98-3850   #98-3856    98-3856   #102-3979
                         102-3979  #102-3981   102-3981  #102-3986   102-3986  #102-3988   102-3988  #102-3993   102-3993
                        #104-4041   104-4041  #104-4043   104-4043  #106-4128   106-4128  #106-4130   106-4130  #106-4135
                         106-4135  #106-4137   106-4137  #108-4240   108-4240  #108-4248   108-4248  #109-4258   109-4258
                        #109-4263   109-4263  #110-4379   110-4379  #110-4380   110-4380  #110-4382   110-4382  #110-4401
                         110-4401  #110-4404   110-4404  #110-4407   110-4407  #110-4413   110-4413  #110-4414   110-4414
                        #110-4416   110-4416  #110-4423   110-4423  #112-4521   112-4521  #112-4524   112-4524  #112-4526
                         112-4526  #112-4529   112-4529  #112-4535   112-4535  #112-4538   112-4538  #112-4543   112-4543
                        #112-4551   112-4551  #112-4555   112-4555  #112-4566   112-4566  #112-4569   112-4569  #112-4570
                         112-4570  #112-4576   112-4576  #113-4629   113-4629  #113-4630   113-4630  #113-4634   113-4634
                        #113-4635   113-4635  #113-4639   113-4639  #113-4642   113-4642  #114-4693   114-4693  #114-4697
                         114-4697  #114-4702   114-4702  #114-4705   114-4705  #114-4706   114-4706  #114-4710   114-4710
                        #114-4713   114-4713  #116-4772   116-4772  #118-4834   118-4834  #121-4922   121-4922  #121-4927
                         121-4927  #121-4935   121-4935  #121-4940   121-4940  #124-5046   124-5046  #124-5047   124-5047
                        #128-5182   128-5182  #128-5190   128-5190  #129-5256   129-5256  #132-5340   132-5340  #132-5341
                         132-5341  #132-5343   132-5343  #132-5355   132-5355  #135-5426   135-5426  #135-5428   135-5428
                        #135-5432   135-5432  #135-5436   135-5436  #135-5437   135-5437  #136-5447   136-5447  #136-5448
                         136-5448  #136-5449   136-5449  #136-5450   136-5450  #136-5451   136-5451  #136-5459   136-5459
                        #136-5460   136-5460  #138-5510   138-5510  #138-5523   138-5523  #138-5526   138-5526  #138-5528
                         138-5528  #141-5613   141-5613  #141-5614   141-5614  #141-5617   141-5617  #141-5618   141-5618
                        #144-5703   144-5703  #144-5704   144-5704  #144-5707   144-5707  #144-5709   144-5709  #144-5716
PATREE     CREATED BY  MACRO  ON 10-NOV-81 AT 17:50	PAGE 30

SYMBOL CROSS REFERENCE                                  CREF

SYMBOL	VALUE		REFERENCES

                         144-5716  #144-5719   144-5719  #146-5775   146-5775  #147-5809   147-5809  #150-5877   150-5877
                        #150-5878   150-5878  #150-5881   150-5881  #151-5937   151-5937  #151-5940   151-5940  #151-5944
                         151-5944  #152-5966   152-5966  #152-5968   152-5968  #152-5979   152-5979  #152-5981   152-5981
                        #153-6018   153-6018  #153-6022   153-6022  #153-6027   153-6027  #153-6030   153-6030  #153-6031
                         153-6031  #153-6032   153-6032  #153-6036   153-6036  #153-6040   153-6040  #153-6045   153-6045
                        #153-6056   153-6056  #153-6062   153-6062  #154-6128   154-6128  #154-6134   154-6134  #154-6136
                         154-6136  #154-6139   154-6139  #154-6144   154-6144  #154-6145   154-6145  #154-6146   154-6146
                        #154-6149   154-6149  #155-6208   155-6208  #155-6209   155-6209  #155-6211   155-6211  #158-6290
                         158-6290  #158-6291   158-6291  #158-6293   158-6293  #158-6295   158-6295  #158-6297   158-6297
                        #158-6298   158-6298  #158-6299   158-6299  #159-6337   159-6337  #159-6338   159-6338  #159-6339
                         159-6339  #159-6340   159-6340  #159-6341   159-6341  #159-6345   159-6345  #159-6355   159-6355
                        #159-6357   159-6357  #159-6358   159-6358  #159-6362   159-6362  #159-6371   159-6371  #159-6372
                         159-6372  #159-6374   159-6374  #159-6376   159-6376  #159-6377   159-6377  #159-6378   159-6378
                        #159-6393   159-6393  #159-6395   159-6395  #163-6539   163-6539  #163-6544   163-6544  #163-6550
                         163-6550  #163-6552   163-6552  #163-6558   163-6558  #163-6560   163-6560  #167-6654   167-6654
                        #167-6661   167-6661  #167-6666   167-6666  #168-6698   168-6698  #168-6699   168-6699  #168-6700
                         168-6700  #169-6707   169-6707  #171-6766   171-6766  #171-6779   171-6779  #171-6781   171-6781
                        #173-6840   173-6840  #173-6843   173-6843  #175-6879   175-6879  #175-6883   175-6883  #175-6889
                         175-6889  #175-6890   175-6890  #175-6892   175-6892  #175-6895   175-6895  #175-6898   175-6898
                        #176-6932   176-6932  #176-6937   176-6937  #176-6938   176-6938  #176-6942   176-6942  #178-6997
                         178-6997  #178-6999   178-6999  #178-7000   178-7000  #178-7004   178-7004  #179-7037   179-7037
                        #180-7066   180-7066  #180-7067   180-7067  #180-7075   180-7075  #180-7077   180-7077  #181-7097
                         181-7097  #181-7100   181-7100  #182-7122   182-7122  #182-7124   182-7124  #182-7125   182-7125
                        #182-7132   182-7132  #183-7146   183-7146  #184-7168   184-7168  #184-7170   184-7170  #185-7179
                         185-7179  #185-7181   185-7181  #186-7194   186-7194  #187-7202   187-7202  #188-7217   188-7217
                        #189-7228   189-7228  #190-7259   190-7259  #190-7261   190-7261  #190-7265   190-7265  #191-7273
                         191-7273  #192-7289   192-7289  #193-7302   193-7302  #193-7304   193-7304  #193-7306   193-7306
                        #194-7354   194-7354  #194-7358   194-7358  #194-7360   194-7360  #194-7366   194-7366  #194-7367
                         194-7367  #194-7368   194-7368  #194-7374   194-7374  #194-7377   194-7377  #194-7384   194-7384
                        #195-7428   195-7428  #196-7436   196-7436  #196-7439   196-7439  #197-7465   197-7465  #198-7472
                         198-7472  #198-7475   198-7475  #199-7553   199-7553  #199-7558   199-7558  #199-7560   199-7560
                        #199-7561   199-7561  #199-7565   199-7565  #200-7575   200-7575  #200-7577   200-7577  #200-7578
                         200-7578  #200-7592   200-7592  #200-7593   200-7593  #200-7595   200-7595  #200-7602   200-7602
                        #201-7611   201-7611  #201-7612   201-7612  #201-7613   201-7613  #202-7673   202-7673  #202-7674
                         202-7674  #205-7781   205-7781  #205-7782   205-7782  #205-7783   205-7783  #205-7787   205-7787
                        #205-7789   205-7789  #205-7796   205-7796  #205-7803   205-7803  #205-7804   205-7804  #205-7805
                         205-7805  #205-7808   205-7808  #206-7816   206-7816  #206-7821   206-7821  #206-7823   206-7823
                        #208-7871   208-7871  #208-7872   208-7872  #208-7873   208-7873  #208-7877   208-7877  #208-7879
                         208-7879  #208-7885   208-7885  #208-7887   208-7887  #208-7891   208-7891  #209-7906   209-7906
                        #209-7907   209-7907  #209-7908   209-7908  #211-7969   211-7969  #211-7970   211-7970  #211-7972
                         211-7972  #211-7976   211-7976  #211-7980   211-7980  #211-7982   211-7982  #214-8077   214-8077
                        #214-8081   214-8081  #214-8085   214-8085  #214-8092   214-8092  #214-8115   214-8115  #216-8202
                         216-8202  #216-8214   216-8214  #216-8218   216-8218  #216-8219   216-8219  #216-8221   216-8221
                        #216-8222   216-8222  #216-8224   216-8224  #216-8225   216-8225  #216-8227   216-8227  #221-8347
                         221-8347  #221-8357   221-8357  #221-8360   221-8360  #221-8362   221-8362  #221-8366   221-8366
                        #221-8368   221-8368  #221-8409   221-8409  #221-8413   221-8413  #221-8415   221-8415  #221-8418
                         221-8418  #221-8423   221-8423  #221-8427   221-8427  #221-8459   221-8459  #221-8462   221-8462
                        #221-8484   221-8484  #221-8487   221-8487  #221-8488   221-8488  #221-8490   221-8490  #221-8492
                         221-8492  #221-8543   221-8543  #221-8562   221-8562  #223-8623   223-8623  #223-8625   223-8625
                        #223-8637   223-8637  #223-8641   223-8641  #223-8643   223-8643  #223-8645   223-8645  #223-8647
                         223-8647  #223-8648   223-8648  #223-8650   223-8650  #223-8652   223-8652  #223-8654   223-8654
                        #223-8655   223-8655  #223-8658   223-8658  #223-8663   223-8663  #223-8665   223-8665  #223-8676
PATREE     CREATED BY  MACRO  ON 10-NOV-81 AT 17:50	PAGE 31

SYMBOL CROSS REFERENCE                                  CREF

SYMBOL	VALUE		REFERENCES

                         223-8676  #227-8775   227-8775  #227-8780   227-8780  #228-8798   228-8798  #228-8800   228-8800
                        #228-8802   228-8802  #228-8805   228-8805  #228-8809   228-8809  #229-8836   229-8836  #229-8838
                         229-8838  #229-8840   229-8840
$$A   	= 000100	#137-5494   137-5494  #137-5496   137-5496  #137-5498   137-5498  #137-5500   137-5500  #139-5541
                         139-5541  #139-5543   139-5543  #151-5957   151-5957
$$B   	= 000000	#137-5494   137-5494  #137-5496   137-5496  #137-5498   137-5498  #137-5500   137-5500  #139-5541
                         139-5541  #139-5543   139-5543  #151-5957   151-5957
$$C   	= 000200	#137-5494   137-5494  #137-5496   137-5496  #137-5498   137-5498  #137-5500   137-5500  #139-5541
                         139-5541  #139-5543   139-5543  #151-5957   151-5957
$$D   	= 000011	#137-5494   137-5494  #137-5496   137-5496  #137-5498   137-5498  #137-5500   137-5500  #139-5541
                         139-5541  #139-5543   139-5543  #151-5957   151-5957
$$E   	= 000016	#137-5494   137-5494  #137-5496   137-5496  #137-5498   137-5498  #137-5500   137-5500  #139-5541
                         139-5541  #139-5543   139-5543  #151-5957   151-5957
$$F   	= 000000	#137-5494   137-5494  #137-5496   137-5496  #137-5498   137-5498  #137-5500   137-5500  #139-5541
                         139-5541  #139-5543   139-5543  #151-5957   151-5957
$$$ARG	= 000006	#125-5062   125-5062  #125-5062   125-5062  #125-5062   125-5062  #125-5071   125-5071  #125-5071
                         125-5071  #125-5071   125-5071  #125-5077   125-5077  #125-5077   125-5077  #125-5077   125-5077
                        #164-6588   164-6588  #164-6591   164-6591
$$$GLB	= ******	 56-2350    56-2350    56-2350    56-2350    56-2350    56-2350    110-4369   110-4369   110-4369
                         110-4369   110-4369   110-4369   110-4369   110-4369   125-5062   125-5062   125-5062   125-5062
                         125-5071   125-5071   125-5071   125-5071   125-5077   125-5077   125-5077   125-5077   143-5666
                         143-5666   143-5666   143-5666   143-5666   143-5666   159-6383   159-6383   159-6383   159-6383
                         159-6383   159-6383   159-6383   159-6383   164-6588   164-6588   164-6588   164-6588   164-6588
                         164-6588   164-6588   164-6588   164-6591   164-6591   164-6591   164-6591   164-6591   164-6591
                         164-6591   164-6591   216-8204   216-8204   216-8204   216-8204   216-8204   216-8204   216-8204
                         216-8204   223-8687   223-8687   223-8687   223-8687   223-8687   223-8687
$$$OST	= 000016	#56-2350    56-2350    56-2350   #56-2350    56-2350    56-2350   #56-2350    56-2350    56-2350
                        #56-2350    56-2350    56-2350   #56-2350    56-2350    56-2350   #56-2350   #110-4369   110-4369
                         110-4369  #110-4369   110-4369   110-4369  #110-4369   110-4369   110-4369  #110-4369   110-4369
                         110-4369  #110-4369   110-4369   110-4369  #110-4369   110-4369   110-4369  #110-4369   110-4369
                         110-4369  #110-4369   110-4369   110-4369  #110-4369  #125-5062   125-5062   125-5062  #125-5062
                         125-5062   125-5062  #125-5062   125-5062   125-5062  #125-5062  #125-5071   125-5071   125-5071
                        #125-5071   125-5071   125-5071  #125-5071   125-5071   125-5071  #125-5071  #125-5077   125-5077
                         125-5077  #125-5077   125-5077   125-5077  #125-5077   125-5077   125-5077  #125-5077  #143-5666
                         143-5666   143-5666  #143-5666   143-5666   143-5666  #143-5666   143-5666   143-5666  #143-5666
                         143-5666   143-5666  #143-5666   143-5666   143-5666  #143-5666  #159-6383   159-6383   159-6383
                        #159-6383   159-6383   159-6383  #159-6383   159-6383   159-6383  #159-6383   159-6383   159-6383
                        #159-6383   159-6383   159-6383  #159-6383   159-6383   159-6383  #159-6383   159-6383   159-6383
                        #159-6383   159-6383   159-6383  #159-6383  #164-6588   164-6588   164-6588  #164-6588   164-6588
                         164-6588  #164-6588   164-6588   164-6588  #164-6588   164-6588   164-6588  #164-6588   164-6588
                         164-6588  #164-6588   164-6588   164-6588  #164-6588   164-6588  #164-6591   164-6591   164-6591
                        #164-6591   164-6591   164-6591  #164-6591   164-6591   164-6591  #164-6591   164-6591   164-6591
                        #164-6591   164-6591   164-6591  #164-6591   164-6591   164-6591  #164-6591   164-6591  #216-8204
                         216-8204   216-8204  #216-8204   216-8204   216-8204  #216-8204   216-8204   216-8204  #216-8204
                         216-8204   216-8204  #216-8204   216-8204   216-8204  #216-8204   216-8204   216-8204  #216-8204
                         216-8204   216-8204  #216-8204   216-8204   216-8204  #216-8204  #223-8687   223-8687   223-8687
                        #223-8687   223-8687   223-8687  #223-8687   223-8687   223-8687  #223-8687   223-8687   223-8687
                        #223-8687   223-8687   223-8687  #223-8687
$$$T1 	= 000000	#56-2350    56-2350    56-2350    56-2350   #56-2350    56-2350   #125-5062   125-5062   125-5062
                        #125-5062   125-5062   125-5062  #125-5062   125-5062   125-5062  #125-5071   125-5071   125-5071
                        #125-5071   125-5071   125-5071  #125-5071   125-5071   125-5071  #125-5077   125-5077   125-5077
                        #125-5077   125-5077   125-5077  #125-5077   125-5077   125-5077  #143-5666   143-5666   143-5666
PATREE     CREATED BY  MACRO  ON 10-NOV-81 AT 17:50	PAGE 32

SYMBOL CROSS REFERENCE                                  CREF

SYMBOL	VALUE		REFERENCES

                         143-5666  #143-5666   143-5666  #223-8687   223-8687   223-8687   223-8687  #223-8687   223-8687
.ABORT	  000004 RG	#36-1507    175-6895   175-6895
.ABRTC	  000000 RG	#34-1461
.ABRT0	  000032 RG	 36-1509   #36-1516
.APRWD	= ******  GX	*73-3029    184-7165
.ASCID	  000016 RG	 123-5031  #125-5058
.ASCOD	  000026 RG	 123-5029  #125-5067
.ASLST	  000036 RG	 123-5033  #125-5076
.ATLMD	= 000033	#21-837
.ATLST	  000064 R	 160-6449  #164-6587
.ATOTA	= ******  GX	 128-5173  *197-7466   198-7477
.BRCLK	= 005000	#174-6874  #226-8750
.BUFSZ	= ******  GX	 159-6363
.CECLK	= 004000	#174-6874  #226-8750
.CESCK	= ******  GX	 121-4927   121-4927
.CHTAB	= ******  GX	 110-4411   112-4527   135-5424   153-6034   158-6286   176-6935   178-6995   200-7580
.CIBFR	= ******  GX	 110-4376   112-4522   128-5155   128-5167   211-7971   221-8358   221-8367   221-8485
.CISTS	= ******  GX	*128-5168  *128-5183
.CKARG	= ******  GX	 40-1666    40-1666    42-1768    42-1768    57-2409    57-2409    60-2518    60-2518    66-2720
                         66-2720    70-2868    70-2868    110-4382   110-4382   110-4404   110-4404   110-4414   110-4414
                         112-4529   112-4529   135-5426   135-5426   150-5877   150-5877   173-6840   173-6840   199-7553
                         199-7553   199-7565   199-7565
.CKCOL	= ******  GX	 51-2174    51-2174    57-2421    57-2421    65-2671    65-2671    66-2729    66-2729
.CKCTC	= ******  GX	 229-8840   229-8840
.CKEOC	= ******  GX	 34-1462    34-1462    38-1579    38-1579    56-2339    56-2339    58-2431    58-2431    61-2533
                         61-2533    61-2565    61-2565    65-2677    65-2677    67-2739    67-2739    71-2883    71-2883
                         71-2926    71-2926    76-3096    76-3096    78-3168    78-3168    89-3601    89-3601    90-3644
                         90-3644    92-3710    92-3710    94-3757    94-3757    96-3797    96-3797    98-3849    98-3849
                         110-4423   110-4423   112-4538   112-4538   116-4772   116-4772   118-4834   118-4834   129-5256
                         129-5256   135-5432   135-5432   141-5618   141-5618   144-5709   144-5709   147-5809   147-5809
                         158-6298   158-6298   168-6700   168-6700   171-6766   171-6766   175-6892   175-6892   176-6938
                         176-6938   178-7000   178-7000   178-7004   178-7004   180-7067   180-7067   180-7075   180-7075
                         182-7125   182-7125   182-7132   182-7132   184-7170   184-7170   186-7194   186-7194   187-7202
                         187-7202   190-7261   190-7261   191-7273   191-7273   195-7428   195-7428   196-7436   196-7436
                         197-7465   197-7465   198-7472   198-7472   199-7558   199-7558   214-8077   214-8077   216-8202
                         216-8202   221-8347   221-8347   221-8492   221-8492   223-8623   223-8623   228-8800   228-8800
.CKEOS	= ******  GX	 50-2091    50-2091    50-2127    50-2127    51-2183    51-2183    52-2214    52-2214
.CKOBJ	= ******  GX	 158-6295   158-6295   167-6654   167-6654   167-6661   167-6661   168-6698   168-6698   169-6707
                         169-6707   178-6997   178-6997   182-7122   182-7122   221-8488   221-8488
.CKRNP	= ******  GX	 135-5436   135-5436   175-6883   175-6883
.CKRUN	= ******  GX	 49-2039    49-2039    65-2670    65-2670    132-5340   132-5340   136-5459   136-5459   150-5881
                         150-5881   176-6932   176-6932   201-7611   201-7611   227-8775   227-8775
.CKSYM	= ******  GX	 112-4526   112-4526   141-5613   141-5613   144-5703   144-5703
.CLKWD	= ******  GX	 201-7635   205-7785
.CLOSE	= ******  GX	 159-6345   159-6345
.CLRCM	  012646 RG	#167-6653
.CLRMR	= 006000	#174-6874  #226-8750
.CLRUN	= 010000	#174-6874  #226-8750
.COMEF	= ******  GX	*36-1519   *175-6901   214-8068   221-8534
.COMMA	= 000054	#21-835     200-7582
.CONBT	= 012000	#174-6874  #226-8750
.CONTC	  000056 RG	#38-1578
PATREE     CREATED BY  MACRO  ON 10-NOV-81 AT 17:50	PAGE 33

SYMBOL CROSS REFERENCE                                  CREF

SYMBOL	VALUE		REFERENCES

.CPUSN	= ******  GX	 194-7350   194-7355
.CSHRG	= 164000	#174-6874  #226-8750
.DATE3	= ******  GX	*214-8072   214-8075  *214-8130   216-8229
.DAY  	= ******  GX	*214-8129
.DEPAR	  002116 RG	#65-2669
.DFBLK	= ******  GX	 119-4871
.DFCOM	  000542 RG	#49-2038    50-2089    50-2089    50-2126    50-2126    51-2173    51-2173    52-2213    52-2213
.DFRED	  000652 RG	#50-2088    50-2122
.DFWRT	  001106 RG	#51-2172
.DFXCT	  001166 RG	#52-2212    52-2220
.DIAG1	= 000000	#10-352
.DIAG2	= 000002	#10-353
.DIAG3	= 000006	#10-355
.DISCC	  001310 RG	#56-2338
.DOW  	= ******  GX	*214-8121   216-8215
.DPBFR	= ******  GX	 67-2748    68-2782
.DPBFX	= ******  GX	 66-2731    69-2830    69-2835
.DPETB	= ******  GX	 57-2411    66-2722
.DPEWD	  001524 RG	 41-1691   #59-2464
.DPEWI	  001532 RG	 41-1703   #59-2468
.DPEWN	  001540 RG	 41-1715   #59-2472
.DPEWP	  001546 RG	 41-1727   #59-2476
.DPEWT	  001516 RG	 41-1739   #59-2460
.DPKLD	  002534 RG	 41-1690   #69-2812
.DPKLI	  002542 RG	 41-1702   #69-2816
.DPKLM	= ******  GX	 68-2776    68-2776    138-5523   138-5523   151-5937   151-5937   154-6149   154-6149   171-6779
                         171-6779
.DPKLN	  002550 RG	 41-1714   #69-2820
.DPKLP	  002556 RG	 41-1726   #69-2824
.DPKLT	  002526 RG	 41-1738   #69-2808
.DPOBJ	  000264 RG	 40-1667   #44-1868
.DPOEL	  000314 RG	#44-1880
.DPOKL	  000306 RG	#44-1876
.DPOSA	  000172 RG	#40-1668
.DPOSC	  000160 RG	#40-1664
.DPOSD	  000176 RG	#41-1683
.DPOSE	  001334 RG	 40-1676    44-1882   #57-2408
.DPOSI	  000202 RG	#41-1695
.DPOSN	  000206 RG	#41-1707
.DPOSP	  000212 RG	#41-1719
.DPOST	  002206 RG	 40-1675    44-1878   #66-2719
.DPOSZ	  000216 RG	#41-1731
.DPOTB	= ******  GX	 44-1869
.DPSEE	  001406 RG	#58-2430    59-2482    59-2490
.DPSTE	  002256 RG	#67-2738    69-2831    69-2837
.DRLTC	= 015000	#174-6874  #226-8750
.DSACF	= 066000	#174-6874  #226-8750
.DSIOJ	= 065000	#174-6874  #226-8750
.DTBUF	  000524 RG	 110-4368   110-4448  #111-4480
.DTDW1	= ******  GX	 121-4940   121-4940   154-6136   154-6136
.DTLST	  000100 R	 160-6442  #164-6590
.DTSTA	= ******  GX	 121-4922   121-4922
PATREE     CREATED BY  MACRO  ON 10-NOV-81 AT 17:50	PAGE 34

SYMBOL CROSS REFERENCE                                  CREF

SYMBOL	VALUE		REFERENCES

.DTSTW	= 000004	#10-354
.EDELA	= ******  GX	 46-1927    46-1932   *58-2436    59-2461   *61-2537    62-2593
.EDEWD	  000370 RG	#46-1925    59-2465    59-2465    62-2597    62-2597
.EDEWI	  000402 RG	#46-1930    59-2469    59-2469    62-2601    62-2601
.EDEWN	  000402 RG	#46-1931    59-2473    59-2473    62-2605    62-2605
.EDEWP	  000370 RG	#46-1926    59-2477    59-2477    62-2609    62-2609
.EDKLA	= ******  GX	 47-1969    67-2742    71-2892    72-2967
.EDKLC	  000512 RG	 47-1941    47-1941    47-1946    47-1946    47-1951    47-1951    47-1957    47-1957   #47-1967
.EDKLD	  000440 RG	#47-1950    69-2813    69-2813    72-2971    72-2971
.EDKLI	  000456 RG	#47-1956    69-2817    69-2817    72-2975    72-2975
.EDKLN	  000426 RG	#47-1945    69-2821    69-2821    72-2979    72-2979
.EDKLP	  000414 RG	#47-1940    69-2825    69-2825    72-2983    72-2983
.EDKLX	= ******  GX	 47-1968    66-2727    69-2809    70-2875   *121-4931  *121-4932   122-4989
.EIOJA	= 067000	#174-6874  #226-8750
.ELDDW	= ******  GX	*58-2437    59-2481
.ELEDW	= ******  GX	*61-2541
.ENTER	= ******  GX	 159-6357   159-6357
.EXAD 	  004112 RG	#87-3540
.EXADX	  004120 RG	#87-3544
.EXAMA	  000234 RG	#42-1771
.EXAMC	  000222 RG	#42-1766
.EXAMD	  000240 RG	#43-1786
.EXAME	  001604 RG	 42-1779    45-1916   #60-2517    61-2560
.EXAMF	  004316 RG	#90-3643    92-3718    92-3718
.EXAMI	  000244 RG	#43-1798
.EXAMK	  004422 RG	#92-3709
.EXAMN	  000250 RG	#43-1810
.EXAMP	  000254 RG	#43-1822
.EXAMT	  002614 RG	 42-1778    45-1920   #70-2867    71-2921
.EXAMZ	  000260 RG	#43-1834
.EXARR	  004126 RG	#87-3548
.EXARX	  004134 RG	#87-3552
.EXBFR	= ******  GX	 67-2757    68-2779    68-2783    71-2891    122-4990
.EXBRR	  004142 RG	#87-3556
.EXBRX	  004150 RG	#87-3560
.EXCRA	  004476 RG	#93-3727
.EXCRL	  004504 RG	#93-3731
.EXCTC	  003300 RG	#76-3090
.EXCTF	= ******  GX	 137-5486   138-5526   138-5526   138-5528   138-5528   151-5940   151-5940
.EXDRA	  004512 RG	#93-3735
.EXDTE	  003354 RG	#78-3167
.EXEBS	  004156 RG	#87-3564
.EXECT	= ******  GX	 76-3103
.EXETB	= ******  GX	 60-2520    70-2870
.EXEWD	  002066 RG	 43-1794   #62-2596
.EXEWI	  002074 RG	 43-1806   #62-2600
.EXEWN	  002102 RG	 43-1818   #62-2604
.EXEWP	  002110 RG	 43-1830   #62-2608
.EXEWT	  002060 RG	 43-1842   #62-2592
.EXFER	  004520 RG	#93-3739
.EXFMR	  004164 RG	#87-3568
.EXITP	= ******  GX	 38-1600    56-2344    122-4977   124-5051   128-5191   141-5622   147-5810   171-6782   175-6880
PATREE     CREATED BY  MACRO  ON 10-NOV-81 AT 17:50	PAGE 35

SYMBOL CROSS REFERENCE                                  CREF

SYMBOL	VALUE		REFERENCES

                         178-7025   223-8678
.EXKLD	  003206 RG	 43-1793   #72-2970
.EXKLI	  003214 RG	 43-1805   #72-2974
.EXKLM	= ******  GX	 67-2761    67-2761    68-2781    68-2781    71-2900    71-2900    121-4935   121-4935   154-6134
                         154-6134
.EXKLN	  003222 RG	 43-1817   #72-2978
.EXKLP	  003230 RG	 43-1829   #72-2982
.EXKLT	  003200 RG	 43-1841   #72-2966
.EXMEE	  001632 RG	#61-2531    62-2594    62-2598    62-2602    62-2606    62-2610
.EXMEL	  000352 RG	#45-1914
.EXMKL	  000362 RG	#45-1918
.EXMPI	  004612 RG	 92-3717    92-3717   #96-3796
.EXMQR	  004172 RG	#87-3572
.EXMTB	= ******  GX	 45-1906    98-3851
.EXMTE	  002646 RG	#71-2882    72-2968    72-2972    72-2976    72-2980    72-2984
.EXOBJ	  000324 RG	 42-1769   #45-1905
.EXREG	  004764 RG	#98-3848
.EXSBR	  004526 RG	#93-3743
.EXSCR	  004534 RG	#93-3747
.EXVAB	  004200 RG	#88-3579
.EXVMA	  004206 RG	#88-3583    92-3716    92-3716
.EXVMH	  004214 RG	#88-3587
.EXVPC	  004222 RG	#88-3591    92-3714    92-3714
.FEMOD	= ******  GX	 175-6893  *178-7021   179-7038
.FREAD	= ******  GX	 50-2098    50-2098    73-3025    73-3025    100-3930   102-3979   102-3979   102-3986   102-3986
                         102-3993   102-3993   104-4041   104-4041   106-4128   106-4128   106-4135   106-4135   109-4258
                         109-4258
.FWRIT	= ******  GX	 51-2186    51-2186
.FXCT 	= ******  GX	 38-1590    38-1590    52-2216    52-2216
.GFNR 	= 102000	#174-6874  #226-8750
.GTDAT	  005600 RG	#110-4364   214-8081   214-8081   221-8413   221-8413   221-8427   221-8427
.GTELN	= ******  GX	 57-2416    57-2416    57-2422    57-2422    59-2487    59-2487    60-2525    60-2525    61-2564
                         61-2564    132-5341   132-5341   150-5878   150-5878   153-6036   153-6036   176-6937   176-6937
                         184-7168   184-7168
.GTKLA	= ******  GX	 66-2728    66-2728    70-2876    70-2876    71-2925    71-2925    175-6889   175-6889   227-8780
                         227-8780   228-8798   228-8798
.GTKLN	= ******  GX	 49-2044    49-2044    51-2182    51-2182    66-2732    66-2732    69-2836    69-2836    76-3095
                         76-3095    190-7259   190-7259
.GTLIN	= ******  GX	 110-4380   110-4380   112-4524   112-4524   211-7972   211-7972   221-8360   221-8360   221-8368
                         221-8368   221-8487   221-8487
.GTNBR	= ******  GX	 110-4401   110-4401   110-4416   110-4416   112-4535   112-4535   112-4570   112-4570
.GTNUM	= ******  GX	 65-2676    65-2676    180-7066   180-7066
.GTR50	  010676 RG	 141-5614   141-5614   141-5617   141-5617   144-5704   144-5704   144-5707   144-5707  #146-5755
.GTTIM	  006244 RG	#112-4515   214-8085   214-8085   221-8418   221-8418   221-8462   221-8462
.HALTC	  007064 RG	#116-4771
.HRDWR	= ******  GX	 194-7362   194-7370   194-7382
.INBBC	= ******  GX	*144-5720
.INCHC	= ******  GX	 110-4462   112-4585   221-8370
.INDFG	= ******  GX	 144-5710  *144-5724
.INEXT	  000574 R	 121-4934  #122-4988
.INFN 	= ******  GX	*144-5701  *144-5702  *144-5706  *144-5708   144-5713
.INFNB	= ******  GX	 144-5714
PATREE     CREATED BY  MACRO  ON 10-NOV-81 AT 17:50	PAGE 36

SYMBOL CROSS REFERENCE                                  CREF

SYMBOL	VALUE		REFERENCES

.INICL	= 070000	#174-6874  #226-8750
.INICP	  007330 RG	#123-5019
.INIC0	  007100 RG	#118-4835   124-5047   124-5047
.INIT 	  007102 RG	#119-4868
.INITC	  007074 RG	#118-4833
.INKLF	  007132 RG	 118-4836  #121-4914
.INPOS	= ******  GX	*144-5721
.INVBN	= ******  GX	*144-5722  *144-5723
.IRADX	= ******  GX	 110-4365  *110-4366  *110-4461   112-4516  *112-4517  *112-4584   190-7251  *190-7252  *190-7266
.IRLTC	= 014000	#174-6874  #226-8750
.JUMPC	  013072 RG	#175-6878
.KACFL	= ******  GX	*187-7207   189-7230
.KLCON	= ******  GX	 38-1594    38-1594
.KLE  	  007520 RG	#128-5153
.KLEDF	= ******  GX	*128-5180  *129-5258
.KLEPT	= ******  GX	*128-5158   128-5160  *128-5161  *128-5176
.KLERQ	= ******  GX	 121-4918  *128-5186  *129-5257
.KLEVL	= ******  GX	 128-5156  *128-5159  *128-5177  *129-5259
.KLFCF	= ******  GX	*195-7429   196-7441
.KLFLG	= ******  GX	 38-1580    49-2053    49-2055    65-2678    67-2740    71-2888    92-3711   *119-4876   121-4928
                         136-5444   138-5507   176-6940   200-7591   228-8803
.KLHLT	= ******  GX	 49-2056    49-2056    65-2681    65-2681    176-6942   176-6942   200-7592   200-7592
.KLINC	= ******  GX	 47-1952    47-1958    180-7068   180-7076   181-7088
.KLIWD	= ******  GX	 128-5188   153-6057  *153-6059
.KLMTB	= ******  GX	 221-8489
.KLMT1	= ******  GX	 221-8361
.KLNFD	= ******  GX	*221-8503  *221-8504   223-8634   223-8644
.KLNFT	= ******  GX	*221-8502   223-8646
.KLNMD	= ******  GX	 178-7018  *221-8498  *221-8505   221-8521  *221-8526   223-8627   223-8660   223-8667   223-8670
.KLNPB	= ******  GX	 221-8538
.KLNPE	= ******  GX	 221-8545
.KLNPW	= ******  GX	 221-8508  *221-8527
.KLNSW	= ******  GX	*56-2340    178-7016   221-8353  *221-8528   223-8630   223-8674
.KLNTD	= ******  GX	*221-8500  *221-8501   223-8651
.KLNTT	= ******  GX	*221-8499   223-8653
.KLRLD	= ******  GX	*186-7195   188-7219
.KLRST	= ******  GX	 65-2687    200-7602   200-7602
.KLSNP	= ******  GX	 128-5184  *128-5187  *129-5260
.KLST 	= ******  GX	 175-6898   175-6898
.KLSTP	= ******  GX	 36-1511    36-1511    116-4773
.LCRDL	= 052000	#174-6874  #226-8750
.LCRDR	= 051000	#174-6874  #226-8750
.LCRM1	= 057000	#174-6874  #226-8750
.LCRM2	= 056000	#174-6874  #226-8750
.LCRM3	= 055000	#174-6874  #226-8750
.LCRM4	= 054000	#174-6874  #226-8750
.LCRM5	= 053000	#174-6874  #226-8750
.LDAR 	= 077000	#174-6874  #226-8750
.LDBRL	= 043000	#174-6874  #226-8750
.LDBRR	= 042000	#174-6874  #226-8750
.LDCK1	= 046000	#174-6874  #226-8750
.LDCK2	= 047000	#174-6874  #226-8750
PATREE     CREATED BY  MACRO  ON 10-NOV-81 AT 17:50	PAGE 37

SYMBOL CROSS REFERENCE                                  CREF

SYMBOL	VALUE		REFERENCES

.LDCLK	= ******  GX	 201-7634
.LDDIS	= 045000	#174-6874  #226-8750
.LDPAR	= ******  GX	 201-7640
.LDRJD	= 064000	#174-6874  #226-8750
.LDRJV	= 063000	#174-6874  #226-8750
.LDRM1	= 060000	#174-6874  #226-8750
.LDRM2	= 061000	#174-6874  #226-8750
.LDRM3	= 062000	#174-6874  #226-8750
.LDSEL	= 044000	#174-6874  #226-8750
.LDZFL	= ******  GX	*89-3599   *152-5978  *181-7098
.LGLWD	= ******  GX	*44-1873   *45-1910   *135-5431  *167-6669
.LOKUP	= ******  GX	 144-5716   144-5716   159-6355   159-6355
.MARKC	  007770 RG	#132-5337   132-5360
.MEMFL	= ******  GX	 40-1665    42-1767   *182-7136   183-7148
.MEMRS	= 076000	#174-6874  #226-8750
.MISC 	= ******  GX	 128-5171  *128-5175  *128-5179
.MON  	= ******  GX	*214-8127
.MONTB	= ******  GX	 110-4406
.NOERR	= ******  GX	*38-1597    153-6014  *153-6015  *153-6064  *175-6900
.NOHLT	= ******  GX	*171-6767
.NOTSW	= ******  GX	 150-5875   158-6288   159-6332   160-6438   161-6479   167-6655  *167-6657  *167-6662  *169-6708
                         178-6993   180-7060   182-7120   184-7166   186-7195   187-7204   190-7257   191-7275   195-7429
                         197-7466   202-7691   203-7716   204-7767   214-8070   221-8348   221-8551
.OPEN 	= ******  GX	 144-5719   144-5719   159-6358   159-6358   159-6362   159-6362
.ORADX	= ******  GX	 113-4624  *113-4625  *113-4643   114-4689  *114-4690  *114-4714   181-7092  *181-7093  *181-7101
                         194-7356  *194-7357  *194-7375
.OTATT	= ******  GX	 159-6343  *159-6359  *159-6360   159-6365   159-6366
.OTBBC	= ******  GX	*159-6363
.OTBUF	= ******  GX	 159-6364
.OTFN 	= ******  GX	 159-6342   159-6351
.OTFNB	= ******  GX	 159-6352
.OTPOS	= ******  GX	*159-6364
.OTVBN	= ******  GX	*159-6365  *159-6366
.OUTLG	= ******  GX	 159-6334  *159-6346   159-6349  *159-6369   162-6509   163-6554
.OUTLP	= ******  GX	 160-6440  *160-6444   160-6447  *160-6451   162-6511   163-6546
.OUTTY	= ******  GX	*161-6481  *161-6483  *162-6513   163-6541
.PASS 	= ******  GX	*153-6012   153-6050  *153-6052
.PCAB1	= 150000	#174-6874  #226-8750
.PCAB2	= 151000	#174-6874  #226-8750
.PCAB3	= 152000	#174-6874  #226-8750
.PCAB4	= 153000	#174-6874  #226-8750
.PITAB	= ******  GX	 104-4037   104-4062
.PRDTE	= ******  GX	 79-3195
.PSCWD	= ******  GX	 201-7641   208-7875
.QUITC	  011004 RG	#147-5808
.RCRM1	= 147000	#174-6874  #226-8750
.RCRM2	= 146000	#174-6874  #226-8750
.RCRM3	= 145000	#174-6874  #226-8750
.RCRM4	= 144000	#174-6874  #226-8750
.RCSPF	= 141000	#174-6874  #226-8750
.RDADR	  005026 RG	 87-3541   #100-3894
.RDADX	  005034 RG	 87-3545   #100-3898
PATREE     CREATED BY  MACRO  ON 10-NOV-81 AT 17:50	PAGE 38

SYMBOL CROSS REFERENCE                                  CREF

SYMBOL	VALUE		REFERENCES

.RDAPR	  003236 RG	 68-2787    68-2787   #73-3021
.RDARR	  005042 RG	 87-3549   #100-3902
.RDARX	  005050 RG	 87-3553   #100-3906
.RDBRR	  005056 RG	 87-3557   #100-3910
.RDBRX	  005064 RG	 87-3561   #100-3914
.RDCPP	= ******  GX	 200-7595   200-7595   201-7613   201-7613   205-7782   205-7782   208-7872   208-7872
.RDCRA	  005322 RG	 93-3728   #105-4095
.RDCRL	  005330 RG	 93-3732   #105-4099
.RDCRM	= ******  GX	 132-5343   132-5343
.RDDRA	  005336 RG	 93-3736   #105-4103
.RDEBS	  005072 RG	 87-3565   #100-3918
.RDFER	  005344 RG	 93-3740   #105-4107
.RDFLG	  005116 RG	 90-3646    90-3646   #102-3974
.RDFMA	= ******  GX	 152-5968   152-5968   153-6018   153-6018
.RDFMO	= ******  GX	 153-6030   153-6030   154-6144   154-6144
.RDFMP	= ******  GX	 154-6139   154-6139
.RDFMR	  005100 RG	 87-3569   #100-3922
.RDIPE	= ******  GX	 153-6022   153-6022
.RDJ14	= 134000	#174-6874  #226-8750
.RDJ71	= 135000	#174-6874  #226-8750
.RDMAB	= 133000	#174-6874  #226-8750
.RDMQR	  005106 RG	 87-3573   #100-3926
.RDPI 	  005242 RG	 96-3800    96-3800   #104-4034
.RDSBR	  005352 RG	 93-3744   #105-4111
.RDSCR	  005360 RG	 93-3748   #105-4115
.RDVAB	  005456 RG	 88-3580   #108-4229
.RDVMA	  005464 RG	 88-3584   #108-4233
.RDVMH	  005472 RG	 88-3588   #108-4237
.RDVPC	  005450 RG	 88-3592   #108-4225
.RDXSV	= ******  GX	*110-4365   110-4461  *112-4516   112-4584  *181-7092   181-7101  *190-7251   190-7266
.RECNT	= ******  GX	*159-6368
.RECPT	= ******  GX	*159-6367
.RECRD	= ******  GX	 159-6367
.REGSV	= ******  GX	 108-4240
.RELWD	= ******  GX	*184-7171   185-7180
.RESTB	= ******  GX	 135-5427
.RESTC	  010066 RG	#135-5422
.RESTD	= ******  GX	 136-5448   136-5448   136-5456
.RESTI	= ******  GX	 136-5461
.RESTP	= ******  GX	 135-5438   155-6208   155-6208
.RNDPB	  000046 RG	*141-5619   141-5620  #143-5665
.RPTCT	= ******  GX	 181-7095   190-7262
.RPTPT	= ******  GX	 190-7264
.RSALL	  010146 RG	#136-5443
.RSAPR	  010242 RG	 136-5449   136-5449  #137-5471
.RSDTE	  010214 RG	#136-5455
.RSERR	  010250 RG	#137-5475
.RSPAG	  010274 RG	 136-5450   136-5450  #138-5506
.RSSWP	  011672 RG	 153-6032   153-6032   154-6146   154-6146  #155-6206
.RSTIN	  010220 RG	#136-5458
.RSTIO	  010256 RG	#137-5479
.RSTKL	= ******  GX	 50-2109    50-2109    51-2188    68-2788    68-2788    89-3609    89-3609    90-3647    90-3647
PATREE     CREATED BY  MACRO  ON 10-NOV-81 AT 17:50	PAGE 39

SYMBOL CROSS REFERENCE                                  CREF

SYMBOL	VALUE		REFERENCES

                         92-3720    94-3762    94-3762    96-3801    96-3801    98-3860    136-5453   138-5531   201-7615
                         205-7783   205-7783   208-7873   208-7873
.RSTPI	  010264 RG	 136-5451   136-5451  #137-5483
.RUNCM	  010420 RG	#141-5612
.SACBK	  011066 RG	 150-5883  #151-5926
.SACB1	  011070 RG	#151-5928   153-6062   153-6062   154-6128   154-6128   155-6211   155-6211
.SCACB	  011014 RG	#150-5874
.SCCEC	  015220 RG	#203-7705
.SCCED	  015226 RG	#203-7709
.SCCEE	  015234 RG	#203-7713
.SCCLK	  014660 RG	#199-7552
.SCCLN	  015102 RG	#202-7651
.SCCOM	  013340 RG	#178-7013
.SCCON	  013256 RG	#178-6992
.SCCOO	  013324 RG	#178-7005
.SCCOP	  013332 RG	 178-6996  #178-7009
.SCCOT	= ******  GX	 178-6998
.SCCOU	  013366 RG	#178-7024
.SCCRF	  015104 RG	#202-7653
.SCCRH	  015110 RG	#202-7657
.SCCRQ	  015116 RG	#202-7661
.SCCRS	  015124 RG	#202-7665
.SCCSE	  015136 RG	#202-7671
.SCCSI	  015166 RG	#202-7682
.SCCSM	  015172 RG	#202-7686
.SCCTB	= ******  GX	 201-7633
.SCDAT	  016032 RG	#214-8067
.SCFSS	  014672 RG	#199-7557
.SCINC	  013450 RG	#180-7059
.SCKLN	  016534 RG	#221-8346
.SCMEL	  013646 RG	#182-7128
.SCMEM	  013614 RG	#182-7119
.SCMKL	  013660 RG	#182-7133
.SCMTB	= ******  GX	 182-7123
.SCNOT	  012746 RG	#169-6706
.SCOFS	  013720 RG	#184-7164
.SCOTC	  012506 RG	 159-6347   160-6445   161-6482  #162-6508
.SCOTL	  012014 RG	 158-6290   158-6290  #159-6331
.SCOTP	  012374 RG	 158-6291   158-6291  #160-6437
.SCOTT	= ******  GX	 158-6296
.SCOTY	  012462 RG	 158-6293   158-6293  #161-6478
.SCOUT	  011726 RG	#158-6285
.SCPAL	  015256 RG	#204-7740
.SCPAR	  015264 RG	#204-7744
.SCPCR	  015272 RG	#204-7748
.SCPDR	  015300 RG	#204-7752
.SCPEN	  015306 RG	#204-7756
.SCPFM	  015314 RG	#204-7760
.SCPFS	  015322 RG	 199-7561   199-7561  #204-7764
.SCPST	  014714 RG	#199-7564
.SCPTB	= ******  GX	 201-7639
.SCRLD	  013772 RG	#186-7193
PATREE     CREATED BY  MACRO  ON 10-NOV-81 AT 17:50	PAGE 40

SYMBOL CROSS REFERENCE                                  CREF

SYMBOL	VALUE		REFERENCES

.SCRPT	  014112 RG	#190-7250
.SCRTY	  014006 RG	#187-7201
.SCTAK	  014606 RG	#197-7464
.SCTRK	  014210 RG	#191-7272
.SECLK	= 003000	#174-6874  #226-8750
.SETCM	  012666 RG	#167-6660
.SETC0	  012676 RG	#167-6663   169-6709
.SETMR	= 007000	#174-6874  #226-8750
.SETRN	= 011000	#174-6874  #226-8750
.SETTB	= ******  GX	 167-6665
.SFREC	  014534 RG	#195-7427
.SHUTC	  012760 RG	#171-6765
.SNAP 	  007736 RG	#129-5255
.SPACE	= 000040	#21-836     110-4390
.SSCAN	= ******  GX	 211-7976   211-7976   211-7980   211-7980
.SSCLK	= 002000	#174-6874  #226-8750
.SSM  	= ******  GX	 159-6394  *214-8122   216-8223   221-8420
.SSTTB	= ******  GX	*58-2438   *58-2449   *61-2536   *61-2540    123-5027
.STCLK	= ******  GX	 38-1587    38-1587    155-6209   155-6209   228-8805   228-8805
.STPCL	= 000000	#174-6874  #226-8750
.STPKL	= ******  GX	 68-2786    68-2786    89-3607    89-3607    90-3645    90-3645    92-3712    92-3712    94-3759
                         94-3759    96-3799    96-3799    98-3850    98-3850    135-5437   135-5437   136-5447   136-5447
                         136-5460   136-5460   138-5510   138-5510   201-7612   201-7612   205-7781   205-7781   208-7871
                         208-7871   228-8802   228-8802
.STRCL	= 001000	#174-6874  #226-8750
.STRTB	= ******  GX	 173-6842
.STRTC	  013050 RG	#173-6839
.STRTT	  013102 RG	 173-6841  #175-6882
.STRTU	  013206 RG	#176-6931
.STRTV	= ******  GX	 124-5048   202-7680
.STUCD	= ******  GX	 36-1518    36-1518    176-6944
.SVESP	= ******  GX	*123-5020
.SVKLF	= ******  GX	*49-2055   *65-2685   *92-3719   *136-5452  *138-5530  *200-7594  *229-8845
.SWPAC	  011534 RG	 153-6040   153-6040   153-6045   153-6045  #154-6126
.SWPC 	  011234 RG	#153-6011
.SWPIP	= ******  GX	*153-6016  *153-6063
.TAKEC	  010526 RG	#144-5700
.TAKE1	  010602 RG	#144-5712
.TCRLF	= ******  GX	 50-2108    50-2108    58-2450    61-2548    61-2548    67-2768    67-2768    71-2907    71-2907
                         84-3495    89-3617    90-3667    94-3769    97-3832    124-5046   124-5046   128-5190   128-5190
                         152-5981   152-5981   159-6339   159-6339   159-6340   159-6340   159-6377   159-6377   159-6378
                         159-6378   163-6562   181-7102   185-7182   194-7387   205-7808   205-7808   209-7913   211-7982
                         211-7982   216-8225   216-8225   223-8648   223-8648   223-8655   223-8655
.TPADD	= ******  GX	 47-1959    47-1959    71-2915    71-2915
.TPCLR	= ******  GX	 108-4248   108-4248   110-4413   110-4413   112-4569   112-4569   180-7077   180-7077   190-7265
                         190-7265
.TPCMP	= ******  GX	 68-2784    68-2784    71-2912    71-2912    71-2932    71-2932    228-8809   228-8809   229-8836
                         229-8836
.TPDEC	= ******  GX	 47-1942    47-1942    228-8808
.TPDIV	= ******  GX	 112-4543   112-4543
.TPINC	= ******  GX	 47-1947    47-1947    228-8811
.TPNEG	= ******  GX	 71-2936    71-2936
PATREE     CREATED BY  MACRO  ON 10-NOV-81 AT 17:50	PAGE 41

SYMBOL CROSS REFERENCE                                  CREF

SYMBOL	VALUE		REFERENCES

.TPSHI	= ******  GX	 73-3027    73-3027    102-3981   102-3981   102-3988   102-3988   104-4043   104-4043   106-4130
                         106-4130   106-4137   106-4137   109-4263   109-4263
.TPSUB	= ******  GX	 47-1953    47-1953
.TPTST	= ******  GX	 175-6890   175-6890
.TRKWD	= ******  GX	*191-7279   192-7291
.TRPTV	= ******  GX	*36-1510   *36-1513
.TRP4V	= ******  GX	 58-2438    61-2536
.TSCAN	= ******  GX	 44-1870    44-1870    45-1907    45-1907    57-2412    57-2412    60-2521    60-2521    66-2723
                         66-2723    70-2871    70-2871    110-4407   110-4407   135-5428   135-5428   158-6297   158-6297
                         167-6666   167-6666   168-6699   168-6699   173-6843   173-6843   178-6999   178-6999   182-7124
                         182-7124   200-7577   200-7577   221-8362   221-8362   221-8490   221-8490
.TYACE	= ******  GX	 154-6145   154-6145
.TYAC1	= ******  GX	 153-6031   153-6031
.TYCHR	= ******  GX	 58-2442    58-2442    61-2544    61-2544    113-4639   113-4639   114-4702   114-4702   114-4710
                         114-4710   194-7366   194-7366
.TYCOL	= ******  GX	 114-4706   114-4706
.TYCOM	= ******  GX	 163-6550   163-6550   163-6558   163-6558   194-7367   194-7367   205-7804   205-7804   209-7907
                         209-7907
.TYDAT	  006612 RG	#113-4623   159-6393   159-6393   216-8221   216-8221   223-8645   223-8645   223-8652   223-8652
.TYELA	= ******  GX	 58-2440    58-2440    61-2542    61-2542    113-4629   113-4629   113-4642   113-4642   114-4705
                         114-4705   114-4713   114-4713   185-7181   185-7181
.TYELN	= ******  GX	 58-2445    58-2445    61-2547    61-2547    79-3210    79-3210    94-3768    94-3768    194-7358
                         194-7358   194-7374   194-7374
.TYKLA	= ******  GX	 67-2763    67-2763    71-2902    71-2902    82-3407    82-3407
.TYKLN	= ******  GX	 50-2107    50-2107    67-2767    67-2767    71-2906    71-2906    81-3347    81-3347    89-3615
                         89-3615    152-5979   152-5979   181-7100   181-7100
.TYLIN	= ******  GX	 90-3651    90-3651    153-6056   153-6056   179-7047   183-7152   189-7235   193-7304   193-7304
                         193-7309   194-7377   194-7377   194-7384   194-7384   196-7445   198-7481   205-7787   205-7787
                         205-7796   205-7796   206-7821   206-7821   206-7828   208-7877   208-7877   208-7885   208-7885
                         216-8214   216-8214   216-8234   223-8637   223-8637   223-8641   223-8641   223-8663   223-8663
                         223-8676   223-8676   223-8681
.TYMIN	= ******  GX	 113-4630   113-4630   113-4635   113-4635
.TYMSF	= ******  GX	 110-4379   110-4379   112-4521   112-4521   221-8357   221-8357   221-8366   221-8366   221-8484
                         221-8484
.TYMSG	= ******  GX	 50-2100    50-2100    79-3208    79-3208    80-3292    80-3292    81-3344    81-3344    81-3353
                         81-3353    82-3369    82-3369    82-3380    82-3380    82-3382    82-3382    82-3388    82-3388
                         82-3390    82-3390    82-3395    82-3395    82-3399    82-3399    82-3401    82-3401    83-3457
                         83-3457    84-3494    84-3494    89-3611    89-3611    90-3658    90-3658    90-3665    90-3665
                         94-3764    94-3764    96-3804    96-3804    97-3816    97-3816    97-3818    97-3818    97-3823
                         97-3823    97-3828    97-3828    113-4634   113-4634   128-5182   128-5182   152-5966   152-5966
                         153-6027   153-6027   159-6337   159-6337   159-6371   159-6371   159-6374   159-6374   159-6376
                         159-6376   163-6539   163-6539   163-6544   163-6544   163-6552   163-6552   163-6560   163-6560
                         179-7037   179-7037   181-7097   181-7097   183-7146   183-7146   185-7179   185-7179   188-7217
                         188-7217   189-7228   189-7228   192-7289   192-7289   193-7302   193-7302   193-7306   193-7306
                         194-7354   194-7354   194-7360   194-7360   196-7439   196-7439   198-7475   198-7475   202-7673
                         202-7673   205-7789   205-7789   205-7803   205-7803   206-7816   206-7816   206-7823   206-7823
                         208-7879   208-7879   208-7887   208-7887   208-7891   208-7891   209-7906   209-7906   211-7969
                         211-7969   216-8218   216-8218   216-8227   216-8227   221-8409   221-8409   221-8415   221-8415
                         221-8423   221-8423   221-8459   221-8459   223-8625   223-8625   223-8643   223-8643   223-8650
                         223-8650   223-8658   223-8658   223-8665   223-8665
.TYOUT	= ******  GX	 211-7970   211-7970
.TYP3D	= ******  GX	 50-2103    50-2103    97-3821    97-3821    97-3826    97-3826    97-3831    97-3831
PATREE     CREATED BY  MACRO  ON 10-NOV-81 AT 17:50	PAGE 42

SYMBOL CROSS REFERENCE                                  CREF

SYMBOL	VALUE		REFERENCES

.TYSLS	= ******  GX	 50-2104    50-2104    67-2764    67-2764    71-2903    71-2903    89-3612    89-3612    94-3765
                         94-3765
.TYSPC	= ******  GX	 50-2105    50-2105    58-2443    58-2443    61-2545    61-2545    67-2765    67-2765    71-2904
                         71-2904    89-3613    89-3613    94-3766    94-3766    113-4644   114-4715   194-7368   194-7368
                         205-7805   205-7805   209-7908   209-7908   216-8219   216-8219   216-8222   216-8222
.TYTIM	  006726 RG	#114-4688   159-6395   159-6395   216-8224   216-8224   223-8647   223-8647   223-8654   223-8654
.T50TB	= ******  GX	 146-5758
.UMRKC	  007764 RG	#132-5333   132-5361
.VERNO	= ******  GX	 159-6375   193-7307
.VFYFL	= ******  GX	 68-2777
.WHACB	  011152 RG	 151-5944   151-5944  #152-5963
.WHATB	= ******  GX	 168-6697
.WHATC	  012722 RG	#168-6696
.WHATV	  014262 RG	#193-7300
.WHCON	  013400 RG	 178-7022  #179-7035
.WHDAT	  016360 RG	 214-8136  #216-8201
.WHINC	  013526 RG	#181-7086
.WHKLN	  017670 RG	#223-8622
.WHMEM	  013666 RG	#183-7144
.WHOFS	  013746 RG	#185-7177
.WHOUT	  012530 RG	 158-6292  #163-6537
.WHRDW	  014322 RG	#194-7349
.WHREC	  014550 RG	#196-7435
.WHRLD	  014034 RG	 186-7196  #188-7215
.WHRPT	  013540 RG	#181-7091   190-7267
.WHRTY	  014060 RG	 187-7208  #189-7226
.WHTAK	  014622 RG	#198-7471
.WHTCA	  015364 RG	 201-7637  #205-7784
.WHTCL	  015350 RG	#205-7780
.WHTPA	  015566 RG	 201-7643  #208-7874
.WHTPS	  015552 RG	#208-7870
.WHTRK	  014232 RG	#192-7287
.WRCRM	= ******  GX	 132-5355   132-5355
.WRITZ	= ******  GX	 159-6341   159-6341
.WRMBX	= 071000	#174-6874  #226-8750
.WRTAR	= ******  GX	 65-2684    65-2684
.XFRCK	  001222 RG	 50-2092    50-2092   #53-2250
.XFWCK	  001240 RG	 51-2175    51-2175   #53-2257
.XFXCK	  001256 RG	 52-2215    52-2215   #53-2264
.YEAR 	= ******  GX	*214-8073  *214-8125
.YESNO	  015726 RG	 202-7674   202-7674  #211-7965
.ZEROC	  020176 RG	#227-8774
..DTP2	= ******  GX	 36-1520    36-1520    171-6781   171-6781   175-6902
..STIN	= ******  GX	 221-8543   221-8543   221-8562   221-8562
PATREE     CREATED BY  MACRO  ON 10-NOV-81 AT 17:50	PAGE 43

MACRO CROSS REFERENCE                                   CREF

MACRO NAME	REFERENCES

ALUN$ 		#117-4811  #125-5062  #125-5071  #125-5077  #157-6250
CALL  		#4-118     #34-1462   #36-1511   #36-1518   #36-1520   #38-1579   #38-1587   #38-1590   #38-1594   #40-1666
                #42-1768   #44-1870   #45-1907   #47-1941   #47-1942   #47-1946   #47-1947   #47-1951   #47-1953   #47-1957
                #47-1959   #49-2039   #49-2044   #49-2056   #50-2089   #50-2091   #50-2092   #50-2098   #50-2100   #50-2103
                #50-2104   #50-2105   #50-2107   #50-2108   #50-2109   #50-2126   #50-2127   #51-2173   #51-2174   #51-2175
                #51-2182   #51-2183   #51-2186   #52-2213   #52-2214   #52-2215   #52-2216   #56-2339   #57-2409   #57-2412
                #57-2416   #57-2421   #57-2422   #58-2431   #58-2440   #58-2442   #58-2443   #58-2445   #59-2465   #59-2469
                #59-2473   #59-2477   #59-2487   #60-2518   #60-2521   #60-2525   #61-2533   #61-2542   #61-2544   #61-2545
                #61-2547   #61-2548   #61-2564   #61-2565   #62-2597   #62-2601   #62-2605   #62-2609   #65-2670   #65-2671
                #65-2676   #65-2677   #65-2681   #65-2684   #66-2720   #66-2723   #66-2728   #66-2729   #66-2732   #67-2739
                #67-2761   #67-2763   #67-2764   #67-2765   #67-2767   #67-2768   #68-2776   #68-2781   #68-2784   #68-2786
                #68-2787   #68-2788   #69-2813   #69-2817   #69-2821   #69-2825   #69-2836   #70-2868   #70-2871   #70-2876
                #71-2883   #71-2900   #71-2902   #71-2903   #71-2904   #71-2906   #71-2907   #71-2912   #71-2915   #71-2925
                #71-2926   #71-2932   #71-2936   #72-2971   #72-2975   #72-2979   #72-2983   #73-3025   #73-3027   #76-3095
                #76-3096   #78-3168   #79-3208   #79-3210   #79-3211   #80-3292   #81-3344   #81-3347   #81-3353   #82-3369
                #82-3380   #82-3382   #82-3388   #82-3390   #82-3395   #82-3399   #82-3401   #82-3407   #83-3457   #84-3494
                #89-3601   #89-3607   #89-3608   #89-3609   #89-3611   #89-3612   #89-3613   #89-3615   #90-3644   #90-3645
                #90-3646   #90-3647   #90-3651   #90-3658   #90-3665   #92-3710   #92-3712   #92-3714   #92-3716   #92-3717
                #92-3718   #94-3757   #94-3759   #94-3760   #94-3762   #94-3764   #94-3765   #94-3766   #94-3768   #96-3797
                #96-3799   #96-3800   #96-3801   #96-3804   #97-3816   #97-3818   #97-3821   #97-3823   #97-3826   #97-3828
                #97-3831   #98-3849   #98-3850   #98-3856   #102-3979  #102-3981  #102-3986  #102-3988  #102-3993  #104-4041
                #104-4043  #106-4128  #106-4130  #106-4135  #106-4137  #108-4240  #108-4248  #109-4258  #109-4263  #110-4379
                #110-4380  #110-4382  #110-4401  #110-4404  #110-4407  #110-4413  #110-4414  #110-4416  #110-4423  #112-4521
                #112-4524  #112-4526  #112-4529  #112-4535  #112-4538  #112-4543  #112-4551  #112-4555  #112-4566  #112-4569
                #112-4570  #112-4576  #113-4629  #113-4630  #113-4634  #113-4635  #113-4639  #113-4642  #114-4693  #114-4697
                #114-4702  #114-4705  #114-4706  #114-4710  #114-4713  #116-4772  #118-4834  #121-4922  #121-4927  #121-4935
                #121-4940  #124-5046  #124-5047  #128-5182  #128-5190  #129-5256  #132-5340  #132-5341  #132-5343  #132-5355
                #135-5426  #135-5428  #135-5432  #135-5436  #135-5437  #136-5447  #136-5448  #136-5449  #136-5450  #136-5451
                #136-5459  #136-5460  #138-5510  #138-5523  #138-5526  #138-5528  #141-5613  #141-5614  #141-5617  #141-5618
                #144-5703  #144-5704  #144-5707  #144-5709  #144-5716  #144-5719  #146-5775  #147-5809  #150-5877  #150-5878
                #150-5881  #151-5937  #151-5940  #151-5944  #152-5966  #152-5968  #152-5979  #152-5981  #153-6018  #153-6022
                #153-6027  #153-6030  #153-6031  #153-6032  #153-6036  #153-6040  #153-6045  #153-6056  #153-6062  #154-6128
                #154-6134  #154-6136  #154-6139  #154-6144  #154-6145  #154-6146  #154-6149  #155-6208  #155-6209  #155-6211
                #158-6290  #158-6291  #158-6293  #158-6295  #158-6297  #158-6298  #158-6299  #159-6337  #159-6338  #159-6339
                #159-6340  #159-6341  #159-6345  #159-6355  #159-6357  #159-6358  #159-6362  #159-6371  #159-6372  #159-6374
                #159-6376  #159-6377  #159-6378  #159-6393  #159-6395  #163-6539  #163-6544  #163-6550  #163-6552  #163-6558
                #163-6560  #167-6654  #167-6661  #167-6666  #168-6698  #168-6699  #168-6700  #169-6707  #171-6766  #171-6779
                #171-6781  #173-6840  #173-6843  #175-6879  #175-6883  #175-6889  #175-6890  #175-6892  #175-6895  #175-6898
                #176-6932  #176-6937  #176-6938  #176-6942  #178-6997  #178-6999  #178-7000  #178-7004  #179-7037  #180-7066
                #180-7067  #180-7075  #180-7077  #181-7097  #181-7100  #182-7122  #182-7124  #182-7125  #182-7132  #183-7146
                #184-7168  #184-7170  #185-7179  #185-7181  #186-7194  #187-7202  #188-7217  #189-7228  #190-7259  #190-7261
                #190-7265  #191-7273  #192-7289  #193-7302  #193-7304  #193-7306  #194-7354  #194-7358  #194-7360  #194-7366
                #194-7367  #194-7368  #194-7374  #194-7377  #194-7384  #195-7428  #196-7436  #196-7439  #197-7465  #198-7472
                #198-7475  #199-7553  #199-7558  #199-7560  #199-7561  #199-7565  #200-7575  #200-7577  #200-7578  #200-7592
                #200-7593  #200-7595  #200-7602  #201-7611  #201-7612  #201-7613  #202-7673  #202-7674  #205-7781  #205-7782
                #205-7783  #205-7787  #205-7789  #205-7796  #205-7803  #205-7804  #205-7805  #205-7808  #206-7816  #206-7821
                #206-7823  #208-7871  #208-7872  #208-7873  #208-7877  #208-7879  #208-7885  #208-7887  #208-7891  #209-7906
                #209-7907  #209-7908  #211-7969  #211-7970  #211-7972  #211-7976  #211-7980  #211-7982  #214-8077  #214-8081
                #214-8085  #214-8092  #214-8115  #216-8202  #216-8214  #216-8218  #216-8219  #216-8221  #216-8222  #216-8224
                #216-8225  #216-8227  #221-8347  #221-8357  #221-8360  #221-8362  #221-8366  #221-8368  #221-8409  #221-8413
                #221-8415  #221-8418  #221-8423  #221-8427  #221-8459  #221-8462  #221-8484  #221-8487  #221-8488  #221-8490
                #221-8492  #221-8543  #221-8562  #223-8623  #223-8625  #223-8637  #223-8641  #223-8643  #223-8645  #223-8647
PATREE     CREATED BY  MACRO  ON 10-NOV-81 AT 17:50	PAGE 44

MACRO CROSS REFERENCE                                   CREF

MACRO NAME	REFERENCES

                #223-8648  #223-8650  #223-8652  #223-8654  #223-8655  #223-8658  #223-8663  #223-8665  #223-8676  #227-8775
                #227-8780  #228-8798  #228-8800  #228-8802  #228-8805  #228-8809  #229-8836  #229-8838  #229-8840
CALLR 		#4-127     #38-1600   #40-1669   #41-1684   #41-1696   #41-1708   #41-1720   #41-1732   #42-1772   #43-1787
                #43-1799   #43-1811   #43-1823   #43-1835   #44-1874   #44-1878   #44-1882   #45-1912   #45-1916   #45-1920
                #51-2188   #56-2344   #57-2413   #58-2450   #60-2522   #65-2687   #66-2724   #70-2872   #76-3103   #78-3169
                #84-3495   #89-3617   #90-3667   #92-3720   #94-3769   #97-3832   #98-3860   #100-3930  #113-4644  #114-4715
                #116-4773  #124-5051  #128-5191  #135-5433  #135-5438  #136-5453  #136-5456  #136-5461  #137-5486  #138-5531
                #141-5622  #147-5810  #150-5883  #158-6292  #159-6347  #160-6445  #161-6482  #163-6562  #167-6670  #168-6701
                #171-6782  #173-6844  #175-6902  #176-6944  #178-7001  #178-7025  #179-7047  #181-7102  #182-7126  #183-7152
                #185-7182  #189-7235  #190-7267  #193-7309  #194-7387  #196-7445  #198-7481  #200-7598  #200-7603  #201-7615
                #206-7828  #209-7913  #216-8234  #223-8678  #223-8681
CLEF$S		#117-4811   124-5039   124-5040   124-5041  #220-8342   221-8536
COMND$		#5-181
DEFCMD		#127-5115  #128-5202  #128-5203  #128-5204  #128-5205  #128-5206  #128-5207  #128-5208  #128-5209  #128-5210
                #128-5211  #128-5212  #128-5213  #128-5214  #128-5215  #128-5216  #128-5217  #128-5218  #128-5219  #128-5220
                #128-5221  #128-5222  #128-5223  #128-5226
DIR$  		#55-2313    56-2342   #110-4362  #110-4369   110-4369  #117-4811  #121-4915   121-4915  #123-5027   123-5027
                 123-5029   123-5031   123-5033  #124-5039   124-5039  #124-5040   124-5040  #124-5041   124-5041  #124-5042
                 124-5042  #124-5044   124-5044  #140-5587   141-5620  #155-6207   155-6207  #157-6250  #159-6383   159-6383
                 160-6442   160-6449  #216-8204   216-8204  #221-8536   221-8536  #221-8564   221-8564  #223-8620   223-8677
                #226-8748   229-8833
ERCON$		#5-172
ERROR$		#5-157      38-1604    47-1980    49-2063    53-2272    53-2275    58-2453    61-2577    68-2795    68-2798
                 68-2801    71-2951    76-3106    111-4466   111-4469   111-4472   111-4475   112-4588   112-4591   122-4980
                 122-4983   136-5464   139-5535   142-5636   142-5639   142-5642   144-5728   144-5730   150-5886   150-5888
                 154-6154   160-6455   175-6905   178-7028   194-7390   194-7393   201-7621   201-7624   201-7627   215-8140
                 215-8143   215-8146   215-8149   221-8382   221-8385   221-8388   221-8392   221-8478   229-8850   229-8853
ERR$  		#56-2342   #110-4369  #121-4915  #123-5027  #123-5029  #123-5031  #123-5033  #124-5039  #124-5040  #124-5041
                #124-5042  #124-5044  #141-5620  #155-6207  #159-6383  #160-6442  #160-6449  #216-8204  #221-8536  #221-8564
                #223-8677  #229-8833
EXCH$ 		#6-223
FATAL$		#5-164
GTIM$S		#110-4362   110-4369  #157-6250   159-6383  #214-8065   216-8204
IKL$  		#8-251
IOKL$ 		#8-279      137-5494   137-5496   137-5498   137-5500   139-5541   139-5543   151-5957
MOV$  		#110-4369  #110-4369  #121-4915  #121-4915  #123-5027  #123-5027  #123-5027  #124-5039  #124-5039  #124-5040
                #124-5040  #124-5041  #124-5041  #124-5042  #124-5042  #124-5044  #124-5044  #155-6207  #155-6207  #159-6383
                #159-6383  #216-8204  #216-8204  #221-8536  #221-8536  #221-8564  #221-8564
NBL$  		#125-5062  #125-5062  #125-5071  #125-5071  #125-5077  #125-5077
NSERR$		#6-201
OFF$  		#56-2350    56-2350    56-2350    56-2350    56-2350    56-2350    56-2350   #110-4369   110-4369   110-4369
                 110-4369   110-4369   110-4369   110-4369   110-4369   110-4369  #125-5062   125-5062   125-5062   125-5062
                 125-5062  #125-5071   125-5071   125-5071   125-5071   125-5071  #125-5077   125-5077   125-5077   125-5077
                 125-5077  #143-5666   143-5666   143-5666   143-5666   143-5666   143-5666   143-5666  #159-6383   159-6383
                 159-6383   159-6383   159-6383   159-6383   159-6383   159-6383   159-6383  #164-6588   164-6588   164-6588
                 164-6588   164-6588   164-6588   164-6588   164-6588   164-6588  #164-6591   164-6591   164-6591   164-6591
                 164-6591   164-6591   164-6591   164-6591   164-6591  #216-8204   216-8204   216-8204   216-8204   216-8204
                 216-8204   216-8204   216-8204   216-8204  #223-8687   223-8687   223-8687   223-8687   223-8687   223-8687
                 223-8687
POP   		#4-133     #36-1522   #49-2058   #50-2110   #50-2135   #51-2185   #57-2424   #58-2446   #58-2447   #59-2489
                #61-2549   #65-2685   #67-2762   #67-2766   #68-2774   #71-2901   #71-2905   #71-2908   #71-2937   #71-2944
                #71-2945   #71-2946   #73-3031   #92-3719   #94-3767   #98-3857   #102-3999  #104-4049  #106-4142  #110-4396
PATREE     CREATED BY  MACRO  ON 10-NOV-81 AT 17:50	PAGE 45

MACRO CROSS REFERENCE                                   CREF

MACRO NAME	REFERENCES

                #110-4409  #110-4460  #112-4581  #112-4583  #113-4643  #114-4704  #114-4714  #119-4877  #122-4974  #128-5169
                #136-5452  #138-5529  #138-5530  #141-5619  #146-5783  #146-5784  #151-5941  #152-5982  #153-6033  #153-6064
                #159-6397  #180-7069  #180-7070  #180-7071  #190-7263  #194-7375  #200-7594  #206-7824  #212-7993  #221-8496
                #221-8499  #221-8500  #221-8501  #221-8502  #221-8503  #221-8504  #221-8517  #228-8807
PRDP$ 		#226-8748   229-8859
PUSH  		#4-139      36-1508    36-1509    38-1580    38-1604    47-1980    49-2063    50-2097    50-2133    51-2180
                 53-2272    53-2275    57-2420    58-2434    58-2435    58-2453    59-2486    61-2539    61-2571    61-2577
                 65-2678    67-2753    67-2754    67-2756    67-2757    67-2758    68-2795    68-2798    68-2801    71-2890
                 71-2891    71-2897    71-2934    71-2938    71-2939    71-2940    71-2951    73-3022    76-3106    89-3606
                 92-3711    94-3758    94-3761    98-3855    102-3975   104-4035   106-4124   106-4132   108-4245   110-4367
                 110-4384   110-4403   111-4466   111-4469   111-4472   111-4475   112-4518   112-4541   112-4546   112-4588
                 112-4591   113-4624   114-4689   114-4694   119-4869   121-4921   122-4980   122-4983   128-5154   136-5444
                 136-5464   138-5507   138-5511   138-5512   138-5517   138-5519   138-5520   139-5535   141-5616   142-5636
                 142-5639   142-5642   144-5728   144-5730   146-5756   150-5886   150-5888   151-5929   152-5964   153-6014
                 153-6023   154-6154   159-6381   160-6455   171-6769   171-6771   171-6772   171-6773   171-6775   171-6776
                 175-6905   178-7028   194-7356   194-7390   194-7393   200-7589   200-7591   201-7621   201-7624   201-7627
                 205-7785   208-7875   211-7966   215-8140   215-8143   215-8146   215-8149   221-8355   221-8382   221-8385
                 221-8388   221-8392   221-8478   228-8801   229-8850   229-8853
QDPB$ 		#164-6588  #164-6588  #164-6591  #164-6591
QIOW$ 		#157-6250  #164-6588  #164-6591
QIOW$S		#157-6250
RETURN		#4-147      36-1523    46-1929    46-1934    47-1975    49-2061    50-2137    52-2221    53-2270    61-2574
                 68-2793    71-2948    73-3032    79-3215    79-3257    80-3295    81-3354    82-3409    83-3460    102-4000
                 104-4050   106-4143   109-4276   110-4463   112-4586   122-4975   128-5170   129-5261   132-5363   144-5725
                 146-5786   151-5945   152-5983   153-6065   154-6151   155-6212   159-6379   159-6398   160-6452   161-6484
                 162-6514   202-7699   203-7724   204-7770   204-7774   212-7994   229-8846
RQST$ 		#55-2313    56-2350   #140-5587   143-5666  #223-8620   223-8687
R50$  		#56-2350   #56-2350   #56-2350   #143-5666  #143-5666  #143-5666  #223-8687  #223-8687  #223-8687
SETF$S		#117-4811   121-4915   124-5042   124-5044  #149-5849   155-6207
SPERR$		#6-211
SVTK$S		#117-4811  #123-5027
WTSE$S		#220-8342  #221-8564
$DEF  		#174-6872   174-6874  #226-8748   226-8750
.ENB6 		#77-3141   #79-3204   #214-8065  #214-8132  #220-8342  #221-8530
.INH6 		#77-3141    79-3199   #214-8065   214-8119  #220-8342   221-8495   221-8524
