TYOUT -- GENERAL TERMINAL OUTPU	MACRO M1113  10-NOV-81 17:44  PAGE 1


      1					.IIF NDF	FTLCMN,.NLIST
      2					.TITLE	DEFINE -- LOCAL DEFINITION MODULE 7709.20
      3
      4						.IDENT	"006270"
      5
      6					;
      7					;                             COPYRIGHT (C) 1979 BY
      8					;                     DIGITAL EQUIPMENT CORPORATION, MAYNARD MASS.
      9					;
     10					;       THIS SOFTWARE IS FURNISHED UNDER A LICENSE AND MAY BE  USED  AND  COPIED
     11					;       ONLY IN ACCORDANCE WITH THE TERMS OF SUCH LICENSE AND WITH THE INCLUSION
     12					;       OF THE ABOVE COPYRIGHT NOTICE.  THIS SOFTWARE OR ANY OTHER COPIES THERE-
     13					;       OF  MAY NOT BE PROVIDED OR OTHERWISE MADE AVAILABLE TO ANY OTHER PERSON.
     14					;       NO TITLE TO OR OWNERSHIP OF THE SOFTWARE IS HEREBY TRANSFERRED.
     15					;
     16					;       THE INFORMATION CONTAINED IN THIS SOFTWARE IS SUBJECT TO CHANGE  WITHOUT
     17					;       NOTICE  AND SHOULD NOT BE CONSTRUED AS A COMMITMENT BY DIGITAL EQUIPMENT
     18					;       CORPORATION.
     19					;
     20					;       DIGITAL ASSUMES NO RESPONSIBILITY FOR THE  USE  OR  RELIABILITY  OF  ITS
     21					;       SOFTWARE ON EQUIPMENT WHICH IS NOT SUPPILED BY DIGITAL.
     22					;
     23					;		MODULE: LOCAL DEFINITIONS
     24					;
     25					;		VERSION: 06-27
     26					;
     27					;		AUTHOR: R. BELANGER
     28					;
     29					;		DATE: 7905.10
     30					;
     31					;	THIS MODULE CONTAINS:
     32					;
     33					;	1) LOCAL MACRO DEFINITIONS
     34					;	2) LOCAL ASSEMBLY SWITCHES
     35					;	3) LOCAL DEFINITIONS
     36					;	4) LOCAL EQUATED SYMBOLS
     37					;
     38					;	MODIFICATIONS:
     39					;
     40					;	NO.	DATE		PROGRAMMER	REASON
     41					;	---	----		----------	------
     42					;	001	11-DEC-77	A. PECKHAM	DELETE LOCAL DEFINITIONS
     43					;						OF PROTOCOL CHANGE AND
     44					;						CONTROL-C EVENT FLAGS
     45					;	002	16-FEB-77	R. BELANGER	REMOVE KLINIK CONDITIONALS
     46					;
     47					; SET VERSION OF THE PARSER HERE
     48					;
     49		000006 			PAR$$V	=	6		; VERSION 6
     50		000027 			PAR$$E	=	27		; EDIT 27
     51					;
     52					; THIS IS BEING EXPERIMENTED
     53					;
     54		000126 			PAR$$K	=	'V		; KEY FOR RELEASE
DEFINE -- LOCAL DEFINITION MODU	MACRO M1113  10-NOV-81 17:44  PAGE 2
DEFINE -- COMMAND PARSER ASSEMBLY SWITCHES 7709.20

     56					.SBTTL	DEFINE -- COMMAND PARSER ASSEMBLY SWITCHES 7709.20
     57
     58		000000 			FT1145=0			; ASSEMBLE FOR PDP-11/45 IF .NE. 0
     59		000001 			FT1140=1			; ASSEMBLE FOR PDP-11/40 IF .NE. 0
     60		000000 			FT1135=0			; ASSEMBLE FOR PDP-11/35 IF .NE. 0
     61		000000 			FT1120=0			; ASSEMBLE FOR PDP-11/20 IF .NE. 0
     62		000000 			FT1115=0			; ASSEMBLE FOR PDP-11/15 IF .NE. 0
     63		000000 			FT1110=0			; ASSEMBLE FOR PDP-11/10 IF .NE. 0
     64		000000 			FT1105=0			; ASSEMBLE FOR PDP-11/05 IF .NE. 0
     65		000000 			FTBYTE=0			; ASSEMBLE BYTE SUPPORT IF .NE 0
     66		000000 			FTCRAM=0			; ASSEMBLE CRAM FEATURES IF .NE. 0
     67		000001 			FTDEBUG=1			; ASSEMBLE DEBUG FEATURES IF .NE. 0
     68		000000 			FTDISP=0			; ASSEMBLE DISPATCH TABLE IF .NE 0
     69		000000 			FTDRAM=0			; ASSEMBLE DRAM FEATURES IF .NE. 0
     70		000000 			FTHELP=0			; ASSEMBLE HELP FEATURE IF .NE. 0
     71		000000 			FTKLER=0			; ASSEMBLE "KLERR" SUPPORT IF .NE. 0
     72		000000 			FTLCVT=0			; ASSEMBLE LOWER CASE SUPPORT IF .NE. 0
     73		000001 			FTLIST=1			; ASSEMBLE LPT SUPPORT IF .NE. 0
     74		000001 			FTTRAK=1			; ASSEMBLE TRACK FEATURE IF .NE. 0
     75		000001 			FTTRP4=1			; ASSEMBLE TRAP AT 4 CODE IF .NE. 0
     76		000130 			FTUCVR=130			; MICROCODE FEATURE SWITCH
     77		000001 			FTKLE=1				; KLERR SNAPSHOT SUPPORT FLAG
     78					;DEB880=0			; DEFINED IF DEBUGGING ON RSX-11M SYS880
     79
     80					.IF NE FT1145
     81						FT1140=1
     82					.ENDC		; FT1145
     83
     84					.IF NE FT1140
     85		000001 				FT1135=1
     86					.ENDC		; FT1140
     87
     88					.IF NE FT1135
     89		000001 				FT1120=1
     90					.ENDC		; FT1135
     91
     92					.IF NE FT1120
     93		000001 				FT1115=1
     94					.ENDC		; FT1135
     95
     96					.IF NE FT1115
     97		000001 				FT1110=1
     98					.ENDC		; FT1115
     99
    100					.IF NE FT1110
    101		000001 				FT1105=1
    102					.ENDC		; FT1110
DEFINE -- LOCAL DEFINITION MODU	MACRO M1113  10-NOV-81 17:44  PAGE 3
DEFINE -- COMMAND PARSER MACRO CALLS 7709.20

    104					.SBTTL	DEFINE -- COMMAND PARSER MACRO CALLS 7709.20
    105
    106						.LIST	MEB, SYM
    107						.NLIST	CND
    108						.ENABL	AMA
    109
DEFINE -- LOCAL DEFINITION MODU	MACRO M1113  10-NOV-81 17:44  PAGE 4
DEFINE -- LOCAL MACRO DEFINITIONS 7709.20

    114					.SBTTL	DEFINE -- LOCAL MACRO DEFINITIONS 7709.20
    115
    116					; SUBROUTINE CALL MACROS
    117
    118					.MACRO	CALL	REG,DEST
    119					.NTYPE	$$,REG
    120					.IF EQ	$$&70
    121						 JSR	REG,DEST
    122					.IFF
    123						 JSR	PC,REG
    124					.ENDC		; IF EQ
    125					.ENDM	CALL
    126
    127					.MACRO	CALLR	DEST
    128						 JMP	DEST
    129					.ENDM	CALLR
    130
    131					; STACK OPERATION MACROS
    132
    133					.MACRO	POP	ARG
    134					.IRP	A,<ARG>
    135						 MOV	(SP)+,A
    136					.ENDR
    137					.ENDM	POP
    138
    139					.MACRO	PUSH	ARG
    140					.IRP	A,<ARG>
    141						 MOV	A,-(SP)
    142					.ENDR
    143					.ENDM	PUSH
    144
    145					; SUBROUTINE RETURN MACRO
    146
    147					.MACRO	RETURN	REG
    148					.IF NB	<REG>
    149						 RTS	REG
    150					.IFF
    151						 RTS	PC
    152					.ENDC		; IF NB
    153					.ENDM	RETURN
DEFINE -- LOCAL DEFINITION MODU	MACRO M1113  10-NOV-81 17:44  PAGE 5
DEFINE -- LOCAL MACRO DEFINITIONS 7709.20

    155					; DEFINE THE ERROR TRAP MACRO FOR ".PTTRP"
    156
    157					.MACRO	ERROR$	CODE
    158						 PUSH	#^R'CODE
    159						 TRAP	TC.ERR
    160					.ENDM	ERROR$
    161
    162					; DEFINE THE FATAL TRAP MACRO FOR ".PTTRP"
    163
    164					.MACRO	FATAL$	CODE
    165					FA$'CODE=.
    166						 PUSH	#^R'CODE
    167						 TRAP	TC.RST
    168					.ENDM	FATAL$
    169
    170					; DEFINE THE CONTINUE TRAP MACRO FOR ".PTTRP"
    171
    172					.MACRO	ERCON$	CODE
    173					EC$'CODE=.
    174						 PUSH	#^R'CODE
    175						 TRAP	TC.CON
    176						 TST	(SP)+
    177					.ENDM	ERCON$
    178
    179					; DEFINE THE COMMAND TABLE MACRO
    180
    181					.MACRO	COMND$	COMMAND,LGLBTS,DISPAT,NAM
    182					.PSECT	MESSAG
    183					.IF	NDF,NAM'MSG
    184					$$$'NAM=0
    185					NAM'MSG:: .ASCIZ	%COMMAND%
    186					.ENDC
    187					.IF	DF,$$PASS2
    188					$$$'NAM=$$$'NAM+1
    189					.IF	EQ,$$$'NAM-1
    190					NAM'MSG:: .ASCIZ	%COMMAND%
    191					.ENDC
    192					.ENDC
    193					.PSECT	DATA
    194						 .WORD	NAM'MSG		; POINTER TO "COMMAND" SYMBOL
    195						 .WORD	LGLBTS		; LEGAL BITS
    196						 .WORD	DISPAT		; ROUTINE TO CALL OR DATA
    197					.ENDM	COMND$
DEFINE -- LOCAL DEFINITION MODU	MACRO M1113  10-NOV-81 17:44  PAGE 6
DEFINE -- LOCAL MACRO DEFINITIONS 7709.20

    199					; DEFINE THE NORMAL ERROR CODE MACRO
    200
    201					.MACRO	NSERR$	COD,STRING
    202					.PSECT	ERRMSG
    203					COD'ERM:	 .ASCIZ	%COD - STRING%
    204					.PSECT	DATA
    205						 .RAD50	/COD/		; "COD" IN .RAD50
    206						 .WORD	COD'ERM		; POINTER TO MESSAGE
    207					.ENDM	NSERR$
    208
    209					; DEFINE THE SPECIAL ERROR CODE MACRO
    210
    211					.MACRO	SPERR$	COD,STRING
    212					.PSECT	ERRMSG
    213					COD'ERM:
    214						 .ASCIZ	%COD - STRING%
    215					.PSECT	DATA
    216						 .RAD50	/COD/		; "COD" IN .RAD50
    217						 .WORD	.SE'COD		; DISPATCH TO HANDLER
    218						 .WORD	COD'ERM		; POINTER TO MESSAGE
    219					.ENDM	SPERR$
    220
    221					; DEFINE AN "EXCHANGE" MACRO
    222
    223					.MACRO	EXCH$	ARG1,ARG2
    224						 MOV	ARG1,-(SP)
    225						 MOV	ARG2,ARG1
    226						 MOV	(SP)+,ARG2
    227					.ENDM	EXCH$
DEFINE -- LOCAL DEFINITION MODU	MACRO M1113  10-NOV-81 17:44  PAGE 7
DEFINE -- SPECIAL KL MACROS AND DEFINITIONS 7709.20

    229					.SBTTL	DEFINE -- SPECIAL KL MACROS AND DEFINITIONS 7709.20
    230
    231					; DEFINE KL I/O OPCODES
    232
    233		000000 			BLKI=0			; BLOCK IN
    234		000001 			DATAI=1			; DATA IN
    235		000002 			BLKO=2			; BLOCK OUT
    236		000003 			DATAO=3			; DATA OUT
    237		000004 			CONO=4			; CONDITIONS OUT
    238		000005 			CONI=5			; CONDITIONS IN
    239		000006 			CONSZ=6			;      "     "  SKIP IF ZERO
    240		000007 			CONSO=7			;      "     "   "   "  ONES
    241
    242					; DEFINE KL INTERNAL I/O DEVICES
    243
    244		000000 			APR=0			; ARITHMETIC PROCESSOR (ALU)
    245		000004 			PI=4			; PRIORITY INTERRUPT SYSTEM
    246		000010 			PAG=10			; PAGING SYSTEM
    247		000014 			CCA=14			; CACHE CONTROL
DEFINE -- LOCAL DEFINITION MODU	MACRO M1113  10-NOV-81 17:44  PAGE 8
DEFINE -- SPECIAL KL MACROS AND DEFINITIONS 7709.20

    249					; DEFINE KL INSTRUCTION MACRO
    250
    251					.MACRO	IKL$	OP,DAC,DI,DAD,DXR
    252						ADH=0
    253						ADL=0
    254						.IF NB,DAD
    255							.IRPC AD1,DAD
    256								.IIF GE,<ADL-10000>,ADH=ADL/10000
    257							ADL=10*<ADL&7777>+AD1
    258							.ENDR
    259						.ENDC		; .IF NB
    260						.IIF B,DAC,AC=0
    261						.IIF NB,DAC,AC=DAC
    262						.IIF B,DI,I=0
    263						.IIF NB,DI,I=DI
    264						.IIF B,DXR,XR=0
    265						.IIF NB,DXR,XR=DXR
    266						$$A=<ADL&377>
    267						$$B=<<ADL/400>!<ADH*200&377>>
    268						$$C=<AC&1*200+<I*100+<XR*4>>+<ADH/2>>
    269						$$D=<OP&37*10+<AC/2>>
    270						$$E=<OP/40>
    271						$$F=0
    272						 .BYTE	$$A,$$B
    273						 .BYTE	$$C,$$D
    274						 .BYTE	$$E,$$F
    275					.ENDM	IKL$
    276
    277					; DEFINE KL I/O INSTRUCTION MACRO
    278
    279					.MACRO	IOKL$	OP,DDV,DI,DAD,DXR
    280						.IIF B,DI,I=0
    281						.IIF NB,DI,I=DI
    282						.IIF B,DXR,XR=0
    283						.IIF NB,DXR,XR=DXR
    284						ADH = 0
    285						ADL = 0
    286						.IRPC AD1,DAD
    287							.IIF GE,<ADL-10000>, ADH=ADL/10000
    288							ADL=10*<ADL&7777>+AD1
    289						.ENDR
    290						$$A=<ADL&377>
    291						$$B=<<ADL/400>!<ADH*200&377>>
    292						$$C=<OP&1*200+<I*100+<XR*4>>+<ADH/2>>
    293						$$D=<DDV&374+<OP/2>>
    294						$$E=<DDV/400+16>
    295						$$F=0
    296						 .BYTE	$$A,$$B
    297						 .BYTE	$$C,$$D
    298						 .BYTE	$$E,$$F
    299					.ENDM	IOKL$
DEFINE -- LOCAL DEFINITION MODU	MACRO M1113  10-NOV-81 17:44  PAGE 9
DEFINE -- LOCAL DEFINITIONS 7709.20

    301					.SBTTL	DEFINE -- LOCAL DEFINITIONS 7709.20
    302
    303					; LOCAL DEFINITIONS
    304
    305		000001 			BIT00=000001			; DEFINE LOW BITS FOR SYMMETRY
    306		000002 			BIT01=000002
    307		000004 			BIT02=000004
    308		000010 			BIT03=000010
    309		000020 			BIT04=000020
    310		000040 			BIT05=000040
    311		000100 			BIT06=000100
    312		000200 			BIT07=000200
    313		000400 			BIT08=000400
    314		001000 			BIT09=001000
    315		002000 			BIT10=002000
    316		004000 			BIT11=004000
    317		010000 			BIT12=010000
    318		020000 			BIT13=020000
    319		040000 			BIT14=040000
    320		100000 			BIT15=100000
    321
    322					; DEFINE EXAMINE DEPOSIT MODE BYTES
    323
    324		000000 			ED.EPT=0*40			; EXEC PROCESS TABLE (RELATIVE)
    325		000040 			ED.EXV=1*40			; EXEC VIRTUAL SPACE
    326		000100 			ED.UPT=2*40			; USER PROCESS TABLE (RELATIVE)
    327		000140 			ED.USV=3*40			; USER VIRTUAL SPACE
    328		000200 			ED.PHY=4*40			; PHYSICAL ADDRESSES
    329
    330					; DEFINE BITS IN ".PEWRD"
    331
    332		000001 			PE.CES=1			; CLOCK ERROR STOP
    333		000002 			PE.DRM=2			; DRAM PARITY ERROR
    334		000004 			PE.CRM=4			; CRAM PARITY ERROR
    335		000010 			PE.FMP=10			; FAST MEMORY PARITY ERROR
    336		000020 			PE.FSS=20			; FIELD SERVICE STOP
    337		000037 			PE.ALL=PE.CES!PE.DRM!PE.CRM!PE.FMP!PE.FSS
    338
    339					; DEFINE BITS IN ".APRWD"
    340
    341		000001 			AP.PWF=1			; APR POWER FAIL
    342		000002 			AP.SAP=2			; APR SBUS ADDRESS PARITY ERROR
    343		000004 			AP.CDP=4			; APR CACHE DIRECTORY PARITY ERROR
    344		000010 			AP.MPE=10			; APR MB (MEMORY) PARITY ERROR
    345		000020 			AP.IPF=20			; APR I/O PAGE FAIL ERROR
    346		000040 			AP.NXM=40			; APR NON-EX-MEM ERROR
    347		000100 			AP.SBE=100			; APR SBUS ERROR
    348		000177 			AP.ALL=AP.PWF!AP.SAP!AP.CDP!AP.MPE!AP.IPF!AP.NXM!AP.SBE
DEFINE -- LOCAL DEFINITION MODU	MACRO M1113  10-NOV-81 17:44  PAGE 10
DEFINE -- LOCAL DEFINITIONS 7709.20

    350					; DEFINE OFFSETS INTO DTE-20 DIAG REGISTERS
    351
    352		000000 			.DIAG1=0			; DTE-20 DIAG1 WORD
    353		000002 			.DIAG2=2			; DTE-20 DIAG2 WORD
    354		000004 			.DTSTW=4			; DTE-20 STATUS WORD
    355		000006 			.DIAG3=6			; DTE-20 DIAG3 WORD
    356
    357					; DEFINE DTE-20 DIAG1 BITS
    358
    359		100000 			D1.DS0=BIT15			; DIAGNOSTIC SELECT CODE 00 [WRITE]
    360		040000 			D1.DS1=BIT14			;     "        "     "   01    "
    361		020000 			D1.DS2=BIT13			;     "	       "     "   02    "
    362		010000 			D1.DS3=BIT12			;     "	       "     "   03    "
    363		004000 			D1.DS4=BIT11			;     "	       "     "   04    "
    364		002000 			D1.DS5=BIT10			;     "        "     "   05    "
    365		001000 			D1.DS6=BIT09			;     "        "     "   06    "
    366		004000 			D1.CES=BIT11			; KL CLOCK ERROR STOP [READ]
    367		002000 			D1.RUN=BIT10			; KL RUN FLAG [READ]
    368		001000 			D1.HLP=BIT09			; KL IS IN HALT LOOP [READ]
    369		000400 			D1.DEX=BIT08			; DTE-20 IS IN DEPOSIT / EXAMINE STATE [READ]
    370		000200 			D1.T10=BIT07			; DTE-20 IS IN TO KL STATE [READ]
    371		000200 			D1.LBK=BIT07			; PUT DTE-20 IN LOOPBACK MODE [WRITE]
    372		000100 			D1.T11=BIT06			; DTE-20 IS IN TO 11 STATE [READ]
    373		000040 			D1.DDT=BIT05			; SET DTE-20 DIAGNOSTIC MODE [WRITE]
    374									; DTE-20 IS IN DIAGNOSTIC MODE [READ]
    375		000020 			D1.V04=BIT04			; VECTOR INTERRUPT ADDRESS BIT 04 [READ]
    376		000020 			D1.PLS=BIT04			; GENERATE A CLOCK CYCLE IF D1.DDT SET [WRITE]
    377		000010 			D1.DFM=BIT03			; CHANGE EX / DEP TO DIAG FUNCTIONS IF PRIVILEGED [WRITE]
    378		000004 			D1.XFR=BIT02			; SEND DATA TO KL IF = 1 [READ]
    379									; RECEIVE DATA FROM KL IF = 0 [READ]
    380
    381					; BIT 01 IS UNUSED [MBZ]
    382
    383		000001 			D1.DCS=BIT00			; DIAG COMMAND IN PROGRESS [READ]
    384									; SET DIAGNOSTIC COMMAND START IF = 1 [WRITE]
    385									; CLEAR DIAGNOSTIC COMMAND START IF = 0 [WRITE]
    386		000442 			D1.MBZ=D1.DEX!D1.DDT!BIT01	; MUST BE ZERO ON WRITE
DEFINE -- LOCAL DEFINITION MODU	MACRO M1113  10-NOV-81 17:44  PAGE 11
DEFINE -- LOCAL DEFINITIONS 7709.20

    388					; DEFINE DTE-20 DIAG2 BITS
    389
    390		100000 			D2.RA0=BIT15			; RFM ADDRESS BIT 0 [READ]
    391		040000 			D2.RA1=BIT14			; RFM ADDRESS BIT 1 [READ]
    392		040000 			D2.EBD=BIT14			; SET EBUS DONE IF = 1 [WRITE]
    393									; CLEAR EBUS DONE IF = 0 [WRITE]
    394		020000 			D2.RA2=BIT13			; RFM ADDRESS BIT 2 [READ]
    395
    396					; BITS 11 THRU 7 ARE UNUSED [MBZ]
    397
    398		000100 			D2.RST=BIT06			; RESET THE DTE-20 IF = 1 [WRITE]
    399
    400					; BIT 5 IS UNUSED [MBZ]
    401
    402		000020 			D2.MS8=BIT04			; MINOR STATE COUNTER BIT 8 [WRITE]
    403		000010 			D2.MS4=BIT03			;   "	  "	 "     "  4    "
    404		000004 			D2.MS2=BIT02			;   "	  "	 "     "  2    "
    405		000002 			D2.MS1=BIT01			;   "     "	 "     "  1    "
    406
    407					; BIT 0 IS UNUSED [MBZ]
    408
    409		177641 			D2.MBZ=BIT15!BIT14!BIT13!BIT12!BIT11!BIT10!BIT09!BIT08!BIT07!BIT05!BIT00
    410
    411					; DEFINE DTE-20 DIAG3 BITS
    412
    413		100000 			D3.SSL=BIT15			; SWAP SELECT LEFT [READ]
    414		040000 			D3.PAR=BIT14			; PARITY FLOP [READ]
    415
    416					; BITS 13 THRU 08 ARE UNIBUS PARITY ERROR INFO [READ]
    417
    418					; BITS 07 AND 06 ARE UNUSED [MBZ]
    419
    420		000040 			D3.SCD=BIT05			; SHIFT DATA IN 13-08 FOR NEXT READ [WRITE]
    421		000020 			D3.UPE=BIT04			; DATO UNIBUS PARITY ERROR (DUPE) [READ]
    422		000020 			D3.CDD=BIT04			; CLEAR DUPE AND DURE FLAGS
    423		000010 			D3.WEP=BIT03			; WRITE EVEN UNIBUS PARITY FLOP [READ]
    424									; WRITE EVEN UNIBUS PARITY IF = 1 [WRITE]
    425									; WRITE ODD (GOOD) UNIBUS PARITY IF = 0 [WRITE]
    426		000004 			D3.URE=BIT02			; DATO UNIBUS RECEIVE ERROR FLAG (DURE) [READ]
    427		000002 			D3.NPE=BIT01			; NPR UNIBUS PARITY ERROR FLAG (NUPE) [READ]
    428									; CLEAR NUPE [WRITE]
    429		000001 			D3.TXB=BIT00			; SET TO KL BYTE TRANSFER MODE [WRITE]
    430
    431		177704 			D3.MBZ=BIT15!BIT14!BIT13!BIT12!BIT11!BIT10!BIT09!BIT08!BIT07!BIT06!BIT02
    432
    433		000001 			D3.RST=D3.TXB			; DIAG WORD 3 RESET BIT
DEFINE -- LOCAL DEFINITION MODU	MACRO M1113  10-NOV-81 17:44  PAGE 12
DEFINE -- LOCAL DEFINITIONS 7709.20

    435					; DEFINE DTE-20 STATUS BITS
    436
    437		100000 			ST.TXD=BIT15			; TO KL TRANSFER DONE FLAG [READ]
    438									; SET TO KL TRANSFER DONE [WRITE]
    439		040000 			ST.CTD=BIT14			; CLEAR TO KL TRANSFER DONE FLAG [WRITE]
    440		020000 			ST.TXE=BIT13			; TO KL ERROR DONE FLAG [READ]
    441									; SET TO KL ERROR DONE FLAG [WRITE]
    442		010000 			ST.RIZ=BIT12			; DTE-20 RAM LOCATION IS ZEROES [READ]
    443		010000 			ST.CTE=BIT12			; CLEAR TO KL ERROR DONE FLAG [WRITE]
    444		004000 			ST.EDB=BIT11			; 11 DOORBELL FLAG [READ]
    445									; SET THE 11 DOORBELL FLAG [WRITE]
    446		002000 			ST.DW1=BIT10			; YES, THIS BIT IS HERE
    447		001000 			ST.MPE=BIT09			; 11 MEMORY PARITY ERROR DURING TO KL XFER [READ]
    448									; CLEAR ST.MPE [WRITE]
    449		000400 			ST.XDB=BIT08			; KL DOORBELL FLAG [READ]
    450									; RING THE KL DOORBELL [WRITE]
    451		000200 			ST.TED=BIT07			; TO 11 TRANSFER DONE FLAG [READ]
    452									; SET ST.TED [WRITE]
    453		000100 			ST.EBS=BIT06			; E BUFFER SELECT [READ]
    454		000100 			ST.CED=BIT06			; CLEAR ST.TED [WRITE]
    455		000040 			ST.NST=BIT05			; TO 11 XFER STOPPED BECAUSE STOP BIT WAS SET [READ]
    456		000040 			ST.IEN=BIT05			; ENABLE DTE-20 TO GENERATE BR REQUESTS IF = 1
    457		000020 			ST.EPE=BIT04			; EBUS PARITY ERROR FLAG [READ]
    458									; CLEAR EBUS PARITY ERROR FLAG IF = 1 [WRITE]
    459		000010 			ST.MOD=BIT03			; DTE-20 IS PRIVILEGED IF = 0 [READ]
    460									;    "	 "  RESTRICTED "  " 1   "
    461		000010 			ST.IDS=BIT03			; DISABLE DTE-20 BR REQUESTS [WRITE]
    462		000004 			ST.DXD=BIT02			; DEPOSIT / EXAMINE DONE FLAG [READ]
    463		000004 			ST.SEP=BIT02			; SET EBUS PARITY ERROR IF = 1 [WRITE]
    464		000002 			ST.TER=BIT01			; TO 11 BYTE XFER ERROR FLAG [READ]
    465		000002 			ST.STE=BIT01			; SET ST.TER IF = 1 [WRITE]
    466		000001 			ST.ION=BIT00			; 11 CAN GENERATE BR REQUESTS [READ]
    467		000001 			ST.CLE=BIT00			; CLEAR ST.TER IF = 1 [WRITE]
    468
    469		011121 			ST.RST=ST.CTE!ST.MPE!ST.CED!ST.EPE!ST.CLE
    470
    471		000000 			ST.MBZ=0			; BIT MASK FOR WRITE
DEFINE -- LOCAL DEFINITION MODU	MACRO M1113  10-NOV-81 17:44  PAGE 13
DEFINE -- LOCAL DEFINITIONS 7709.20

    473					; DEFINE FLAG BITS IN ".KLFLG"
    474
    475		100000 			KF.CLK=BIT15			; KL CLOCK IS RUNNING IF .NE. 0
    476		040000 			KF.RUN=BIT14			; KL RUN FLOP IS ON IF .NE. 0
    477		020000 			KF.MRS=BIT13			; KL MASTER RESET FLOP IS ON IF .NE. 0
    478		010000 			KF.SIM=BIT12			; KL IS IN SINGLE INSTRUCTION MODE IF .NE. 0
    479		004000 			KF.SMC=BIT11			; KL IS IN SINGLE PULSE MBOX MODE IF .NE. 0
    480		002000 			KF.SPM=BIT10			;  "   "  "    "      "   EBOX	"   "   "   "
    481		001000 			KF.BRM=BIT09			; KL IS IN BURST MODE IF .NE. 0
    482		000400 			KF.KLO=BIT08			; KL IS IN KL INSTRUCTION MODE IF .NE. 0
    483		000200 			KF.CON=BIT07			; KL IS CONTINUABLE IF .NE. 0
    484		000100 			KF.CES=BIT06			; KL IS IN CLOCK ERROR STOP STATE IF .NE. 0
    485		000200 			KF.DEF=KF.CON			; DEFAULT FLAGS (SEE ".INKLF")
    486
    487					; DEFINE BITS IN ".TRKWD"
    488
    490		000001 			TR.FXC=BIT00			; TRACK FUNCTION EXECUTES IF .NE. 0
    491		000002 			TR.FRD=BIT01			; TRACK FUNCTION READS IF .NE. 0
    492		000004 			TR.FWR=BIT02			; TRACK FUNCTION EXECUTES IF .NE. 0
    493		000010 			TR.EXM=BIT03			; TRACK MEMORY EXAMINES IF .NE. 0
    494		000020 			TR.DEP=BIT04			; TRACK MEMORY DEPOSITS IF .NE. 0
    495		000040 			TR.DTE=BIT05			; TRACK DTE-20 OPERATIONS IF .NE. 0
    496		000077 			TR.ALL=TR.FXC!TR.FRD!TR.FWR!TR.EXM!TR.DEP!TR.DTE
    498
    499					; DEFINE KL PC FLAGS (FROM "C.MAC" V. 1, EDIT 24 7511.25)
    500
    501		010000 			PC.OVF=BIT12			; KL OVERFLOW FLAG (BIT 00)
    502		004000 			PC.CY0=BIT11			; KL CARRY 0 FLAG (BIT 01)
    503		002000 			PC.CY1=BIT10			; KL CARRY 1 FLAG (BIT 02)
    504		001000 			PC.FOV=BIT09			; KL FLOATING OVERFLOW FLAG (BIT 03)
    505		000400 			PC.BIS=BIT08			; KL BYTE INCREMENT SUPPRESSION FLAG (BIT 04)
    506		000200 			PC.USR=BIT07			; KL USER MODE FLAG (BIT 05)
    507		000100 			PC.UIO=BIT06			; KL USER IOT MODE FLAG (BIT 06)
    508		000040 			PC.LIP=BIT05			; KL LAST INSTRUCTION PUBLIC FLAG (BIT 07)
    509		000020 			PC.AFI=BIT04			; KL ADDRESS FAILURE INHIBIT FLAG (BIT 08)
    510		000010 			PC.AT1=BIT03			; KL APR TRAP 1 FLAG (BIT 09)
    511		000004 			PC.AT0=BIT02			; KL APR TRAP 0 FLAG (BIT 10)
    512		000002 			PC.FUF=BIT01			; KL FLOATING UNDERFLOW FLAG (BIT 11)
    513		000001 			PC.NDV=BIT00			; KL NO DIVIDE FLAG (BIT 12)
DEFINE -- LOCAL DEFINITION MODU	MACRO M1113  10-NOV-81 17:44  PAGE 14
DEFINE -- LOCAL DEFINITIONS 7709.20

    515					; DEFINE DIAGNOSTIC FUNCTION EXECUTE CODES
    516
    517		000000 			FX.000=0
    518		000000 				FX.CSP=FX.000		; STOP THE KL CLOCK
    519		000002 			FX.001=1*2
    520		000002 				FX.CST=FX.001		; START THE KL CLOCK
    521		000004 			FX.002=2*2
    522		000004 				FX.MBC=FX.002		; PULSE THE MBOX CLOCK
    523		000006 			FX.003=3*2
    524		000006 				FX.EBC=FX.003		; PULSE THE EBOX CLOCK
    525		000010 			FX.004=4*2
    526		000010 				FX.SYC=FX.004		; SYNCH THE EBOX CLOCK LOW
    527		000012 			FX.005=5*2
    528		000012 				FX.BMC=FX.005		; BURST THE MBOX CLOCK
    529		000014 			FX.006=6*2
    530		000014 				FX.CMR=FX.006		; CLEAR MASTER RESET STATE
    531		000016 			FX.007=7*2
    532		000016 				FX.SMR=FX.007		; SET MASTER RESET STATE
    533
    534		000020 			FX.010=10*2
    535		000020 				FX.CRF=FX.010		; CLEAR THE KL RUN FLOP
    536		000022 			FX.011=11*2
    537		000022 				FX.SRF=FX.011		; SET THE KL RUN FLOP
    538		000024 			FX.012=12*2
    539		000024 				FX.CON=FX.012		; SET THE KL CONTINUE FLOP
    540		000026 			FX.013=13*2
    541		000030 			FX.014=14*2
    542		000030 				FX.UIR=FX.014		; UNLATCH THE IR
    543		000032 			FX.015=15*2
    544		000032 				FX.UDR=FX.015		; UNLATCH THE DRAM REGISTER
    545		000034 			FX.016=16*2
    546		000036 			FX.017=17*2
    547
    548		000040 			FX.020=20*2
    549		000042 			FX.021=21*2
    550		000044 			FX.022=22*2
    551		000046 			FX.023=23*2
    552		000050 			FX.024=24*2
    553		000052 			FX.025=25*2
    554		000054 			FX.026=26*2
    555		000056 			FX.027=27*2
    556
    557		000060 			FX.030=30*2
    558		000062 			FX.031=31*2
    559		000064 			FX.032=32*2
    560		000066 			FX.033=33*2
    561		000070 			FX.034=34*2
    562		000072 			FX.035=35*2
    563		000074 			FX.036=36*2
    564		000076 			FX.037=37*2
DEFINE -- LOCAL DEFINITION MODU	MACRO M1113  10-NOV-81 17:44  PAGE 15
DEFINE -- LOCAL DEFINITIONS 7709.20

    566					; DEFINE DIAGNOSTIC FUNCTION WRITE CODES
    567
    568		000100 			FW.040=40*2
    569		000102 			FW.041=41*2
    570		000104 			FW.042=42*2
    571		000104 				FW.LBR=FW.042		; LOAD BURST COUNTER RIGHT 4 BITS
    572		000106 			FW.043=43*2
    573		000106 				FW.LBL=FW.043		; LOAD BURST COUNTER LEFT 4 BITS
    574		000110 			FW.044=44*2
    575		000110 				FW.CSR=FW.044		; LOAD THE KL CLOCK SOURCE AND RATE
    576
    577					; CLOCK SOURCE AND RATE CODES, EBUS 32-33 AND 34-35, RESPECTIVELY,
    578					; IN LOW BYTE OF CLOCK CONTROL WORD (".CLKWD").
    579
    580		000000 				CS.NRM=0&14		; KL NORMAL CLOCK SOURCE (EBUS 32-33)
    581		000004 				CS.CS1=4&14		; KL CLOCK SOURCE 1
    582		000010 				CS.CS2=10&14		; KL CLOCK SOURCE 2
    583		000004 				CS.FST=4&14		; KL FAST CLOCK SOURCE
    584		000004 				CS.MGN=CS.FST		; KL MARGIN CLOCK SOURCE
    585		000010 				CS.EXT=10&14		; KL EXTERNAL CLOCK SOURCE
    586		000014 				CS.UDF=14&14		; UNDEFINED (DEFAULT TO FAST)
    587		000014 				CS.ALL=CS.CS1!CS.CS2	; CLOCK SOURCE BIT MASK
    588
    589		000000 				CR.NRM=0&3		; KL NORMAL CLOCK SOURCE (EBUS 34-35)
    590		000001 				CR.CR1=1&3		; KL CLOCK RATE 1
    591		000002 				CR.CR2=2&3		; KL CLOCK RATE 2
    592		000000 				CR.FUL=0&3		; KL CLOCK FULL SPEED
    593		000001 				CR.HLF=1&3		;  "	 "   HALF   "
    594		000002 				CR.QTR=2&3		;  "	 "   QRTR   "
    595		000003 				CR.SLO=3&3		;  "	 "   SLOW   "
    596		000003 				CR.ALL=CR.CR1!CR.CR2	; CLOCK RATE BIT MASK
    597
    598		000112 			FW.045=45*2
    599		000112 				FW.CDR=FW.045		; LOAD THE KL CLOCK DISTRIBUTION REGISTER
    600
    601					; CLOCK DISTRIBUTION DISABLE CODES, EBUS 33-35 TO THE KL, ALSO IN
    602					; THE HIGH BYTE OF THE CLOCK CONTROL WORD (".CLKWD").
    603
    604		002000 				CD.CRC=<4&7>*400	; DISABLE CONTROL RAM CLOCKS
    605		001000 				CD.DPC=<2&7>*400	; DISABLE DATA PATHS CLOCKS
    606		000400 				CD.CLC=<1&7>*400	; DISABLE CONTROL LOGIC CLOCKS
    607		000000 				CD.NRM=<0&7>*400	; NORMAL CLOCK ENABLES
    608		003400 				CD.ALL=<7&7>*400	; CLOCK DISABLE BIT MASK
    609
    610		000000 			CC.NRM=0			; NORMAL CLOCK CONTROL WORD
    611		003417 			CC.ALL=CS.ALL!CR.ALL!CD.ALL	; CLOCK CONTROL BIT MASK
DEFINE -- LOCAL DEFINITION MODU	MACRO M1113  10-NOV-81 17:44  PAGE 16
DEFINE -- LOCAL DEFINITIONS 7709.20

    613		000114 			FW.046=46*2
    614		000114 				FW.IPE=FW.046		; LOAD INTERNAL PARITY ENABLES
    615
    616					; INTERNAL KL PARITY ENABLE CODES, EBUS 32 - 35 TO THE KL,
    617					; ALSO IN LOW BYTE OF THE PARITY STOP CONTROL WORD (".PSCWD").
    618
    619		000010 				IP.FMP=10&17		; FAST MEMORY PARITY STOP ENABLE
    620		000004 				IP.CRP=4&17		; CRAM PARITY STOP ENABLE
    621		000002 				IP.DRP=2&17		; DRAM PARITY STOP ENABLE
    622		000001 				IP.FSS=1&17		; FIELD SERVICE STOP ENABLE
    623		000016 				IP.NRM=IP.FMP!IP.CRP!IP.DRP
    624		000017 				IP.ALL=IP.NRM!IP.FSS
    625
    626		000116 			FW.047=47*2
    627		000116 				FW.APE=FW.047		; LOAD AR/ARX PARITY ENABLES (ET AL.)
    628
    629					; INTERNAL KL PARITY STOP CODES, EBUS 32 - 35 TO KL, "AP.EIP" MUST
    630					; BE SET TO ALLOW "IP.XXX" CONDITIONS TO STOP THE KL CLOCK
    631					; MAINTAINED IN HIGH BYTE OF THE PARITY STOP CONTROL WORD (".PSCWD").
    632
    633		001000 				AP.ARP=<2&17>*400	; ALLOW AR/ARX PARITY TO CAUSE A
    634									; PAGE FAIL TRAP IN THE KL
    635		000400 				AP.EIP=<1&17>*400	; ENABLE INTERNAL PARITY ENABLES TO
    636									; STOP THE KL CLOCK
    637		001400 				AP.NRM=AP.EIP!AP.ARP	; NORMAL PARITY STOP ENABLES
    638
    639		001416 			PS.NRM=AP.NRM!IP.NRM		; NORMAL PARITY STOP CONTROL WORD
    640
    641		000120 			FW.050=50*2
    642		000122 			FW.051=51*2
    643		000122 				FW.CA1=FW.051		; LOAD LOW CRAM ADDRESS
    644		000124 			FW.052=52*2
    645		000124 				FW.CA2=FW.052		; LOAD HIGH CRAM ADDRESS
    646		000126 			FW.053=53*2
    647		000126 				FW.CRD=FW.053		; LOAD CRAM DISPATCH
    648		000130 			FW.054=54*2
    649		000130 				FW.CR4=FW.054		; LOAD CRAM BITS 60 THRU 78
    650		000132 			FW.055=55*2
    651		000132 				FW.CR3=FW.055		; LOAD CRAM BITS 40 THRU 59
    652		000134 			FW.056=56*2
    653		000134 				FW.CR2=FW.056		; LOAD CRAM BITS 20 THRU 39
    654		000136 			FW.057=57*2
    655		000136 				FW.CR1=FW.057		; LOAD CRAM BITS 00 THRU 19
DEFINE -- LOCAL DEFINITION MODU	MACRO M1113  10-NOV-81 17:44  PAGE 17
DEFINE -- LOCAL DEFINITIONS 7709.20

    657		000140 			FW.060=60*2
    658		000140 				FW.DR1=FW.060		; LOAD DRAM A AND B EVEN
    659		000142 			FW.061=61*2
    660		000142 				FW.DR2=FW.061		; LOAD DRAM A AND B ODD
    661		000144 			FW.062=62*2
    662		000144 				FW.DR3=FW.062		; LOAD DRAM J COMMON
    663		000146 			FW.063=63*2
    664		000146 				FW.DJE=FW.063		; LOAD DRAM J EVEN
    665		000150 			FW.064=64*2
    666		000150 				FW.DJO=FW.064		; LOAD DRAM J ODD
    667		000152 			FW.065=65*2
    668		000152 				FW.IOJ=FW.065		; DISABLE SPECIAL DECODE OF I/O AND JRST
    669		000154 			FW.066=66*2
    670		000154 				FW.IAC=FW.066		; DISABLE IR AC OUTPUTS
    671		000156 			FW.067=67*2
    672		000156 				FW.KLO=FW.067		; ENABLE KL OPCODES AND ACS
    673
    674		000160 			FW.070=70*2
    675		000160 				FW.CHN=FW.070		; CHANNEL CONTROL FUNCTIONS
    676		000162 			FW.071=71*2
    677		000162 				FW.MBX=FW.071		; MBOX CONTROL FUNCTIONS
    678		000164 			FW.072=72*2
    679		000166 			FW.073=73*2
    680		000170 			FW.074=74*2
    681		000172 			FW.075=75*2
    682		000174 			FW.076=76*2
    683		000174 				FW.EBL=FW.076		; EBUS REGISTER LOAD FUNCTION
    684		000174 				FW.SBR=FW.076		; SBUS RESET FUNCTION
    685		000176 			FW.077=77*2
    686		000176 				FW.LAR=FW.077		; LOAD AR REGISTER
DEFINE -- LOCAL DEFINITION MODU	MACRO M1113  10-NOV-81 17:44  PAGE 18
DEFINE -- LOCAL DEFINITIONS 7709.20

    688					; DEFINE DIAGNOSTIC FUNCTION READ CODES
    689
    690		000200 			FR.100=100*2
    691		000200 				FR.PI0=FR.100		; PI BOARD READ 0
    692		000202 			FR.101=101*2
    693		000202 				FR.PI1=FR.101		; PI BOARD READ 1
    694		000204 			FR.102=102*2
    695		000206 			FR.103=103*2
    696		000210 			FR.104=104*2
    697		000212 			FR.105=105*2
    698		000214 			FR.106=106*2
    699		000216 			FR.107=107*2
    700
    701		000220 			FR.110=110*2
    702		000220 				FR.APR=FR.110		; APR STATUS
    703		000222 			FR.111=111*2
    704		000224 			FR.112=112*2
    705		000226 			FR.113=113*2
    706		000230 			FR.114=114*2
    707		000232 			FR.115=115*2
    708		000234 			FR.116=116*2
    709		000236 			FR.117=117*2
    710
    711		000240 			FR.120=120*2
    712		000240 				FR.RAR=FR.120		; ARITHMETIC REGISTER [AR 00 - 35]
    713		000242 			FR.121=121*2
    714		000242 				FR.RBR=FR.121		; BUFFER REGISTER [BR 00 - 35]
    715		000244 			FR.122=122*2
    716		000244 				FR.RMQ=FR.122		; MQ REGISTER [MQ 00 - 35]
    717		000246 			FR.123=123*2
    718		000246 				FR.RFM=FR.123		; FM REGISTER [FM 00 - 35]
    719		000250 			FR.124=124*2
    720		000250 				FR.BRX=FR.124		; BR EXTENSION REGISTER [BRX 00 - 35]
    721		000252 			FR.125=125*2
    722		000252 				FR.ARX=FR.125		; AR EXTENSION REGISTER [ARX 00 - 35]
    723		000254 			FR.126=126*2
    724		000254 				FR.ADX=FR.126		; AD EXTENSION REGISTER [ADX 00 - 35]
    725		000256 			FR.127=127*2
    726		000256 				FR.RAD=FR.127		; ADDER REGISTER [AD 00 - 35]
    727
    728		000260 			FR.130=130*2
    729		000260 				FR.SC2=FR.130		; SHIFT COUNT REGISTER 2
    730		000260 				FR.DA1=FR.130		; DRAM ADDR 1
    731		000262 			FR.131=131*2
    732		000262 				FR.SC1=FR.131		; SHIFT COUNT REGISTER 1
    733		000262 				FR.DA2=FR.131		; DRAM ADDR 2
    734		000264 			FR.132=132*2
    735		000264 				FR.FE2=FR.132		; FLOATING EXPONENT REGISTER 2
    736		000266 			FR.133=133*2
    737		000266 				FR.FE1=FR.133		; FLOATING EXPONENT REGISTER 1
    738		000270 			FR.134=134*2
    739		000272 			FR.135=135*2
    740		000274 			FR.136=136*2
    741		000276 			FR.137=137*2
DEFINE -- LOCAL DEFINITION MODU	MACRO M1113  10-NOV-81 17:44  PAGE 19
DEFINE -- LOCAL DEFINITIONS 7709.20

    743		000300 			FR.140=140*2
    744		000302 			FR.141=141*2
    745		000302 				FR.CRD=FR.141		; READ CRAM DISP FIELD
    746		000304 			FR.142=142*2
    747		000304 				FR.SR2=FR.142		; CRAM SBR RET 2
    748		000306 			FR.143=143*2
    749		000306 				FR.SR1=FR.143		; CRAM SBR RET 1
    750		000310 			FR.144=144*2
    751		000310 				FR.CA2=FR.144		; READ CRAM ADDRESS LOW
    752		000310 				FR.CR4=FR.CA2		; CRAM DATA 60 - 78
    753		000312 			FR.145=145*2
    754		000312 				FR.CA1=FR.145		; READ CRAM ADDRESS HIGH
    755		000312 				FR.CR3=FR.CA1		; CRAM DATA 40 - 59
    756		000314 			FR.146=146*2
    757		000314 				FR.CR2=FR.146		; CRAM DATA 20 - 39
    758		000314 				FR.CL2=FR.CR2		; CRAM LOC 05 - 10
    759		000316 			FR.147=147*2
    760		000316 				FR.CR1=FR.147		; CRAM DATA 00 - 19
    761		000316 				FR.CL1=FR.CR1		; CRAM LOC 00 - 04
    762
    763		000320 			FR.150=150*2
    764		000320 				FR.VM0=FR.150		; VMA REGISTER 0
    765		000322 			FR.151=151*2
    766		000322 				FR.VM1=FR.151		; VMA REGISTER 1
    767		000324 			FR.152=152*2
    768		000324 				FR.VM2=FR.152		; VMA REGISTER 2
    769		000326 			FR.153=153*2
    770		000326 				FR.VM3=FR.153		; VMA REGISTER 3
    771		000330 			FR.154=154*2
    772		000330 				FR.VM4=FR.154		; VMA REGISTER 4
    773		000332 			FR.155=155*2
    774		000332 				FR.VM5=FR.155		; VMA REGISTER 5
    775		000334 			FR.156=156*2
    776		000334 				FR.VM6=FR.156		; VMA REGISTER 6
    777		000336 			FR.157=157*2
    778		000336 				FR.VM7=FR.157		; VMA REGISTER 7
DEFINE -- LOCAL DEFINITION MODU	MACRO M1113  10-NOV-81 17:44  PAGE 20
DEFINE -- LOCAL DEFINITIONS 7709.20

    780		000340 			FR.160=160*2
    781		000342 			FR.161=161*2
    782		000344 			FR.162=162*2
    783		000346 			FR.163=163*2
    784		000350 			FR.164=164*2
    785		000352 			FR.165=165*2
    786		000354 			FR.166=166*2
    787		000356 			FR.167=167*2
    788		000356 				FR.EBS=FR.167		; [EBUS REG 00 THRU 35]
    789
    790		000360 			FR.170=170*2
    791		000362 			FR.171=171*2
    792		000364 			FR.172=172*2
    793		000366 			FR.173=173*2
    794		000370 			FR.174=174*2
    795		000372 			FR.175=175*2
    796		000374 			FR.176=176*2
    797		000376 			FR.177=177*2
DEFINE -- LOCAL DEFINITION MODU	MACRO M1113  10-NOV-81 17:44  PAGE 21
DEFINE -- LOCAL DEFINITIONS 7709.20

    799					; DEFINE EVENT FLAG CODES
    800
    801		000001 			E.FHTO=^D1			; KL HALT TIMEOUT EVENT FLAG
    802		000002 			E.FCID=^D2			; CONSOLE DEVICE INPUT DONE EVENT FLAG
    803		000003 			E.FCOD=^D3			; CONSOLE DEVICE OUTPUT DONE EVENT FLAG
    804		000004 			E.FKLN=^D4			; KLINIK EVENT LOG DONE FLAG
    805		000005 			E.FLOD=^D5			; LIST DEVICE OUTPUT DONE FLAG
    806		000006 			E.FFIL=^D6				; FILE I/O DONE FLAG
    807
    808					; DEFINE LOCAL OFFSETS FOR "QIOW$" DPBS
    809
    810		000014 			Q.IOPL=14			; **TEMPORARY**
    811		000014 			Q.IBUF=Q.IOPL			; INPUT BUFFER ADDRESS
    812		000014 			Q.OBUF=Q.IOPL			; OUTPUT BUFFER ADDRESS
    813		000016 			Q.BYCT=Q.IOPL+2		; BUFFER BYTE COUNT (INPUT AND OUTPUT)
    814		000020 			Q.OVFC=Q.IOPL+4		; OUTPUT CARRIAGE CONTROL CHARACTER
    815
    816					; DEFINE THE LOGICAL UNIT NUMBERS
    817
    818		000001 			CIDLUN=1			; CONSOLE INPUT DEVICE LUN
    819		000002 			CODLUN=2			; CONSOLE OUTPUT DEVICE LUN
    820		000003 			LSTLUN=3			; LIST DEVICE LUN
    821		000004 			LOGLUN=4			; LOG DEVICE LUN
    822		000005 			INDLUN=5			; INDIRECT COMMAND FILE LUN
    823
    824					; DEFINE THE VERTICAL FORMAT CODES FOR "QIOW$"
    825
    826		000000 			VF.INT=000			; <NULL> INTERNAL FORMAT CONTROL
    827		000040 			VF.SSP=040			; <SPACE> SINGLE SPACE ALL LINES
    828		000060 			VF.DSP=060			; "0" DOUBLE SPACE ALL LINES
    829		000061 			VF.FFD=061			; "1" FORM FEED BEFORE OUTPUT
    830		000053 			VF.OVR=053			; "+" OVER PRINT THE LINE
    831		000044 			VF.PRM=044			; "$" PRINT LINE AS A PROMPT
    832
    833					; DEFINE SOME SPECIAL CHARACTERS
    834
    835		000054 			.COMMA=54			; COMMA
    836		000040 			.SPACE=40			; SPACE
    837		000033 			.ATLMD=33			; ALT-MODE
DEFINE -- LOCAL DEFINITION MODU	MACRO M1113  10-NOV-81 17:44  PAGE 22
DEFINE -- LOCAL DEFINITIONS 7709.20

    839					; DEFINE THE BITS IN THE CHARACTER PROPERTY TABLE ".CHTAB" (Q.V.)
    840
    841		000000 			CH.NUL=0			; CHARACTER IS NULL
    842		000001 			CH.ALP=BIT00			; CHARACTER IS ALPHABETIC
    843		000002 			CH.NUM=BIT01			; CHARACTER IS NUMERIC
    844		000004 			CH.EOL=BIT02			; CHARACTER MAY END A LINE
    845		000010 			CH.EOC=BIT03			; CHARACTER MAY END A COMMAND
    846		000020 			CH.EOS=BIT04			; CHARACTER MAY END A SYMBOL
    847		000040 			CH.PFX=BIT05			; CHARACTER MAY PREFIX A SYMBOL
    848		000100 			CH.AOP=BIT06			; CHARACTER IS AN ARITHMETIC OPERATOR
    849		000200 			CH.ILL=BIT07			; CHARACTER IS ILLEGAL
    850		000034 			CH.END=CH.EOL!CH.EOC!CH.EOS	; CHARACTER IS AN END CHARACTER
    851		000003 			CH.ANM=CH.ALP!CH.NUM		; CHARACTER IS ALPHANUMERIC
    852
    853					; DEFINE THE LEGAL BITS IN THE COMMAND TABLES (Q.V.)
    854
    855		000000 			LG.NUL=0			; NULL
    856		000001 			LG.OPR=BIT00			; COMMAND IS LEGAL IN OPERATOR MODE
    857		000002 			LG.PRG=BIT01			; COMMAND IS LEGAL IN PROGRAMMER MODE
    858		000004 			LG.MNT=BIT02			; COMMAND IS LEGAL IN MAINTENANACE MODE
    859		000010 			LG.ARG=BIT03			; COMMAND MAY ACCEPT ARGUMENTS
    860		000020 			LG.MAR=BIT04			; COMMAND MAY ACCEPT MULTIPLE ARGUMENTS
    861		000040 			LG.MOD=BIT05			; COMMAND MAY ACCEPT MODIFIERS
    862		000100 			LG.RNG=BIT06			; COMMAND MAY ACCEPT RANGE ARGUMENTS
    863		000200 			LG.STR=BIT07			; COMMAND MAY ACCEPT STRING ARGUMENTS
    864		000400 			LG.RPT=BIT08			; COMMAND MAY BE REPEATED
    865		000003 			LG.PRM=LG.OPR!LG.PRG		; INSURE COMMAND IS LEGAL IN BOTH MODES
    866		000007 			LG.ALL=LG.PRM!LG.MNT		; INSURE COMMAND IS LEGAL IN ALL MODES
    867
    868					; DEFINE THE TRAP STATUS CODES
    869
    870		000002 			TC.CTC=2			; CONTROL-C TRAP, ABORT, RESTART, AND RETURN
    871		000001 			TC.RST=1			; ABORT PROCESS AND RESTART THE KL
    872		000000 			TC.ERR=0			; ABORT PROCESS AND RETURN TO PARSER
    873		000377 			TC.CON=377			; REPORT ERROR AND ATTEMPT RECOVERY
DEFINE -- LOCAL DEFINITION MODU	MACRO M1113  10-NOV-81 17:44  PAGE 23
DEFINE -- LOCAL DEFINITIONS 7709.20

    875					; DEFINE KL OPCODES
    876
    877		000270 			ADD=270			; ADD
    878		000273 			ADDB=273		; ADD TO BOTH
    879		000271 			ADDI=271		; ADD IMMEDIATE
    880		000272 			ADDM=272		; ADD TO MEMORY
    881					;
    882		000404 			AND=404			; AND
    883		000407 			ANDB=407		; AND TO BOTH
    884		000410 			ANDCA=410		; AND COMPLEMENT OF AC
    885		000413 			ANDCAB=413		; AND COMPLEMENT OF AC TO BOTH
    886		000411 			ANDCAI=411		; AND COMPLEMENT OF AC IMMEDIATE
    887		000412 			ANDCAM=412		; AND COMPLEMENT OF AC TO MEMORY
    888		000440 			ANDCB=440		; AND COMPLEMENT OF BOTH
    889		000443 			ANDCBB=443		; AND COMPLEMENT OF BOTH TO BOTH
    890		000441 			ANDCBI=441		; AND COMPLEMENT OF BOTH IMMEDIATE
    891		000442 			ANDCBM=442		; AND COMPLEMENT OF BOTH TO MEMORY
    892		000420 			ANDCM=420		; AND COMPLEMENT OF MEMORY
    893		000423 			ANDCMB=423		; AND COMPLEMENT OF MEMORY TO BOTH
    894		000421 			ANDCMI=421		; AND COMPLEMENT OF MEMORY IMMEDIATE
    895		000422 			ANDCMM=422		; AND COMPLEMENT OF MEMORY TO MEMORY
    896		000405 			ANDI=405		; AND IMMEDIATE
    897		000406 			ANDM=406		; AND TO MEMORY
    898					;
    899		000253 			AOBJN=253		; ADD 1 TO BOTH HALVES, JUMP IF NEGATIVE
    900		000252 			AOBJP=252		; ADD 1 TO BOTH HALVES, JUMP IF POSITIVE
    901					;
    902		000340 			AOJ=340			; ADD 1 AND (DON'T) JUMP
    903		000344 			AOJA=344		; ADD 1 AND JUMP ALWAYS
    904		000342 			AOJE=342		; ADD 1 AND JUMP IF .EQ. 0
    905		000347 			AOJG=347		; ADD 1 AND JUMP IF .GT. 0
    906		000345 			AOJGE=345		; ADD 1 AND JUMP IF .GE. 0
    907		000341 			AOJL=341		; ADD 1 AND JUMP IF .LT. 0
    908		000343 			AOJLE=343		; ADD 1 AND JUMP IF .LE. 0
    909		000346 			AOJN=346		; ADD 1 AND JUMP IF .NE. 0
    910					;
    911		000350 			AOS=350			; ADD 1 AND (DON'T) SKIP
    912		000354 			AOSA=354		; ADD 1 AND SKIP ALWAYS
    913		000352 			AOSE=352		; ADD 1 AND SKIP IF .EQ. 0
    914		000357 			AOSG=357		; ADD 1 AND SKIP IF .GT. 0
    915		000355 			AOSGE=355		; ADD 1 AND SKIP IF .GT. 0
    916		000351 			AOSL=351		; ADD 1 AND SKIP IF .LT. 0
    917		000353 			AOSLE=353		; ADD 1 AND SKIP IF .LE. 0
    918		000356 			AOSN=356		; ADD 1 AND SKIP IF .NE. 0
    919					;
    920		000240 			ASH=240			; ARITHMETIC SHIFT
    921		000244 			ASHC=244		; ARITHMETIC SHIFT COMBINED
    922					;
    923		000251 			BLT=251			; BLOCK TRANSFER
DEFINE -- LOCAL DEFINITION MODU	MACRO M1113  10-NOV-81 17:44  PAGE 24
DEFINE -- LOCAL DEFINITIONS 7709.20

    925		000300 			CAI=300			; COMPARE AC IMMEDIATE, DON'T SKIP
    926		000304 			CAIA=304		; COMPARE AC IMMEDIATE, SKIP ALWAYS
    927		000302 			CAIE=302		; COMPARE AC IMMEDIATE, SKIP IF .EQ.
    928		000307 			CAIG=307		; COMPARE AC IMMEDIATE, SKIP IF .GT.
    929		000305 			CAIGE=305		; COMPARE AC IMMDEIATE, SKIP IF .GE.
    930		000301 			CAIL=301		; COMAPRE AC IMMEDIATE, SKIP IF .LT.
    931		000303 			CAILE=303		; COMPARE AC IMMEDIATE, SKIP IF .LE.
    932		000306 			CAIN=306		; COMPARE AC IMMEDIATE, SKIP IF .NE.
    933					;
    934		000040 			CALL=040		; "CALL" UUO
    935		000047 			CALLI=047		; "CALLI" UUO
    936					;
    937		000310 			CAM=310			; COMPARE AC TO MEMORY, DON'T SKIP
    938		000314 			CAMA=314		; COMPARE AC TO MEMORY, ALWAYS SKIP
    939		000312 			CAME=312		; COMPARE AC TO MEMORY, SKIP IF .EQ.
    940		000317 			CAMG=317		; COMPARE AC TO MEMORY, SKIP IF .GT.
    941		000315 			CAMGE=315		; COMPARE AC TO MEMORY, SKIP IF .GE.
    942		000311 			CAML=311		; COMPARE AC TO MEMORY, SKIP IF .LT.
    943		000313 			CAMLE=313		; COMPARE AC TO MEMORY, SKIP IF .LE.
    944		000316 			CAMN=316		; COMPARE AC TO MEMORY, SKIP IF .NE.
    945					;
    946		000400 			CLEAR=400		; CLEAR AC
    947		000403 			CLEARB=403		; CLEAR BOTH
    948		000401 			CLEARI=401		; CLEAR IMMEDIATE
    949		000402 			CLEARM=402		; CLEAR MEMORY
    950					;
    951		000070 			CLOSE=070		; "CLOSE" UUO
    952					;
    953		000110 			DFAD=110		; DOUBLE FLOATING ADD
    954		000113 			DFDV=113		; DOUBLE FLOATING DIVIDE
    955		000112 			DFMP=112		; DOUBLE FLOATING MULTIPLY
    956		000131 			DFN=131			; DOUBLE FLOATING NEGATE
    957		000111 			DFSB=111		; DOUBLE FLOATING SUBTRACT
    958					;
    959		000234 			DIV=234			; DIVIDE
    960		000237 			DIVB=237		; DIVIDE BOTH
    961		000235 			DIVI=235		; DIVIDE IMMEDIATE
    962		000236 			DIVM=236		; DIVIDE MEMORY
    963					;
    964		000120 			DMOVE=120		; DOUBLE MOVE
    965		000124 			DMOVEM=124		; DOUBLE MOVE TO MEMORY
    966		000121 			DMOVN=121		; DOUBLE MOVE NEGATED
    967		000125 			DMOVNM=125		; DOUBLE MOVE NEGATED TO MEMORY
    968					;
    969		000137 			DPB=137			; DEPOSIT BYTE
DEFINE -- LOCAL DEFINITION MODU	MACRO M1113  10-NOV-81 17:44  PAGE 25
DEFINE -- LOCAL DEFINITIONS 7709.20

    971		000077 			ENTER=077		; "ENTER" UUO
    972					;
    973		000444 			EQV=444			; EQUIVALENCE TO AC
    974		000447 			EQVB=447		; EQUIVALENCE TO BOTH
    975		000445 			EQVI=445		; EQUIVALENCE IMMEDIATE
    976		000446 			EQVM=446		; EQUIVALENCE TO MEMORY
    977					;
    978		000250 			EXCH=250		; EXCHANGE
    979		000123 			EXTEND=123		; EXTEND
    980					;
    981		000140 			FAD=140			; FLOATING ADD
    982		000143 			FADB=143		; FLOATING ADD BOTH
    983		000141 			FADL=141		; FLOATING ADD LONG
    984		000142 			FADM=142		; FLOATING ADD MEMORY
    985					;
    986		000144 			FADR=144		; FLOATING ADD, ROUNDED
    987		000147 			FADRB=147		; FLOATING ADD, ROUNDED TO BOTH
    988		000145 			FADRI=145		; FLOATING ADD, ROUNDED IMMEDIATE
    989		000146 			FADRM=146		; FLOATING ADD, ROUNDED TO MEMORY
    990					;
    991		000170 			FDV=170			; FLOATING DIVIDE
    992		000173 			FDVB=173		; FLOATING DIVIDE TO BOTH
    993		000171 			FDVL=171		; FLOATING DIVIDE LONG
    994		000172 			FDVM=172		; FLOATING DIVIDE TO MEMORY
    995					;
    996		000174 			FDVR=174		; FLOATING DIVIDE, ROUNDED
    997		000177 			FDVRB=177		; FLOATING DIVIDE, ROUNDED TO BOTH
    998		000175 			FDVRI=175		; FLOATING DIVIDE, ROUNDED IMMMEDIATE
    999		000176 			FDVRM=176		; FLOATING DIVIDE, ROUNDED TO MEMORY
   1000					;
   1001		000122 			FIX=122			; FIX
   1002		000126 			FIXR=126		; FIX AND ROUND
   1003					;
   1004		000127 			FLTR=127		; FLOAT AND ROUND
   1005					;
   1006		000160 			FMP=160			; FLOATING MULTIPLY
   1007		000163 			FMPB=163		; FLOATING MULTIPLY TO BOTH
   1008		000161 			FMPL=161		; FLOATING MULTIPLY LONG
   1009		000162 			FMPM=162		; FLOATING MULTIPLY TO MEMORY
   1010					;
   1011		000164 			FMPR=164		; FLOATING MUTIPLY ROUNDED
   1012		000167 			FMPRB=167		; FLOATING MULTIPLY ROUNDED, TO BOTH
   1013		000165 			FMPRI=165		; FLOATING MULTIPLY ROUNDED, IMMEDIATE
   1014		000166 			FMPRM=166		; FLOATING MULTIPLY ROUNDED, TO MEMORY
   1015					;
   1016		000150 			FSB=150			; FLOATING SUBTRACT
   1017		000153 			FSBB=153		; FLOATING SUBTRACT TO BOTH
   1018		000151 			FSBL=151		; FLOATING SUBTRACT LONG
   1019		000152 			FSBM=152		; FLOATING SUBTRACT TO MEMORY
DEFINE -- LOCAL DEFINITION MODU	MACRO M1113  10-NOV-81 17:44  PAGE 26
DEFINE -- LOCAL DEFINITIONS 7709.20

   1021		000154 			FSBR=154		; FLOATING SUBTRACT ROUNDED
   1022		000157 			FSBRB=157		; FLOATING SUBTRACT ROUNDED, TO BOTH
   1023		000155 			FSBRI=155		; FLOATING SUBTRACT ROUNDED, IMMEDIATE
   1024		000156 			FSBRM=156		; FLOATING SUBTRACT ROUNDED, TO MEMORY
   1025					;
   1026		000132 			FSC=132			; FLOATING SCALE
   1027					;
   1028		000062 			GETSTS=062		; "GETSTS" UUO
   1029					;
   1030		000500 			HLL=500			; HALFWORD LEFT TO LEFT
   1031		000530 			HLLE=530		;    "      "   "   "	EXTEND
   1032		000531 			HLLEI=531		;    "      "   "   "     "    IMMEDIATE
   1033		000532 			HLLEM=532		;    "      "   "   "     "    TO MEMORY
   1034		000533 			HLLES=533		;    "      "   "   "     "    TO SELF
   1035					;
   1036		000501 			HLLI=501		; HALFWORD LEFT TO LEFT IMMEDIATE
   1037		000502 			HLLM=502		;    "      "   "   "   TO MEMORY
   1038					;
   1039		000520 			HLLO=520		;    "      "   "   "   ONES
   1040		000521 			HLLOI=521		;    "      "   "   "    "   IMMEDIATE
   1041		000522 			HLLOM=522		;    "	    "	"   "	 "   MEMORY
   1042		000523 			HLLOS=523		;    "	    "	"   "	 "   SELF
   1043					;
   1044		000503 			HLLS=503		; HALFWORD LEFT TO LEFT SELF
   1045					;
   1046		000510 			HLLZ=510		; HALFWORD LEFT TO LEFT ZERO, ET AL.
   1047		000511 			HLLZI=511
   1048		000512 			HLLZM=512
   1049		000513 			HLLZS=513
   1050					;
   1051		000544 			HLR=544			; HALFWORD LEFT TO RIGHT
   1052					;
   1053		000574 			HLRE=574		; HALFWORD LEFT TO RIGHT EXTEND, ET AL.
   1054		000575 			HLREI=575
   1055		000576 			HLREM=576
   1056		000577 			HLRES=577
   1057					;
   1058		000564 			HLRO=564		; HALFWORD LEFT TO RIGHT ONES, ET AL.
   1059		000565 			HLROI=565
   1060		000566 			HLROM=566
   1061		000567 			HLROS=567
   1062					;
   1063		000547 			HLRS=547		; HALFWORD LEFT TO RIGHT SELF
   1064					;
   1065		000554 			HLRZ=554		; HALFWORD LEFT TO RIGHT ZEROS, ET AL.
   1066		000555 			HLRZI=555
   1067		000556 			HLRZM=556
   1068		000557 			HLRZS=557
DEFINE -- LOCAL DEFINITION MODU	MACRO M1113  10-NOV-81 17:44  PAGE 27
DEFINE -- LOCAL DEFINITIONS 7709.20

   1070		000504 			HRL=504			; HALFWORD RIGHT TO LEFT
   1071					;
   1072		000534 			HRLE=534		; HALFWORD RIGHT TO LEFT EXTEND, ET AL.
   1073		000535 			HRLEI=535
   1074		000536 			HRLEM=536
   1075		000537 			HRLES=537
   1076					;
   1077		000505 			HRLI=505		; HALFWORD RIGHT TO LEFT IMMEDIATE
   1078		000506 			HRLM=506		;    "	     "	 "   "	 MEMORY
   1079					;
   1080		000564 			HRLO=564		; HALFWORD RIGHT TO LEFT ONES, ET AL.
   1081		000565 			HRLOI=565
   1082		000566 			HRLOM=566
   1083		000567 			HRLOS=567
   1084					;
   1085		000507 			HRLS=507		; HALFWORD RIGHT TO LEFT SELF
   1086					;
   1087		000514 			HRLZ=514		; HALFWORD RIGHT TO LEFT ZERO, ET AL.
   1088		000515 			HRLZI=515
   1089		000516 			HRLZM=516
   1090		000517 			HRLZS=517
   1091					;
   1092		000540 			HRR=540			; HALFWORD RIGHT TO RIGHT
   1093					;
   1094		000570 			HRRE=570		; HALFWORD RIGHT TO RIGHT EXTEND, ET AL.
   1095		000571 			HRREI=571
   1096		000572 			HRREM=572
   1097		000573 			HRRES=573
   1098					;
   1099		000541 			HRRI=541		; HALFWORD RIGHT TO RIGHT IMMEDIATE
   1100		000542 			HRRM=542		;    "	     "	 "    "	  MEMORY
   1101					;
   1102		000560 			HRRO=560		; HALFWORD RIGHT TO RIGHT ONES, ET AL.
   1103		000561 			HRROI=561
   1104		000562 			HRROM=562
   1105		000563 			HRROS=563
   1106					;
   1107		000543 			HRRS=543
   1108					;
   1109		000550 			HRRZ=550		; HALFWORD RIGHT TO RIGHT ZERO, ET AL.
   1110		000551 			HRRZI=551
   1111		000552 			HRRZM=552
   1112		000553 			HRRZS=553
DEFINE -- LOCAL DEFINITION MODU	MACRO M1113  10-NOV-81 17:44  PAGE 28
DEFINE -- LOCAL DEFINITIONS 7709.20

   1114		000133 			IBP=133			; INCREMENT BYTE POINTER
   1115					;
   1116		000230 			IDIV=230		; INTEGER DIVIDE
   1117		000233 			IDIVB=233		;    "	    "	 BOTH
   1118		000231 			IDIVI=231		;    "	    "	 IMMEDIATE
   1119		000232 			IDIVM=232		;    "	    "	 MEMORY
   1120					;
   1121		000136 			IDPB=136		; INCREMENT AND DEPOSIT BYTE
   1122					;
   1123		000134 			ILDB=134		; DECREMENT AND LOAD BYTE
   1124					;
   1125		000220 			IMUL=220		; INTEGER MULTIPLY
   1126		000223 			IMULB=223		;    "	     "	   BOTH
   1127		000221 			IMULI=221		;    "	     "	   IMMEDIATE
   1128		000222 			IMULM=222		;    "	     "     MEMORY
   1129					;
   1130		000056 			IN=056			; "IN" UUO
   1131		000064 			INBUF=064		; "INBUF" UUO
   1132		000041 			INIT=041		; "INIT" UUO
   1133		000066 			INPUT=066		; "INPUT" UUO
   1134					;
   1135		000434 			IOR=434			; INCLUSIVE OR, ET AL.
   1136		000437 			IORB=437
   1137		000435 			IORI=435
   1138		000436 			IORM=436
   1139					;
   1140		000255 			JFCL=255		; JUMP ON FLAGS AND CLEAR
   1141					;
   1142		000243 			JFFO=243		; JUMP IF FOUND FIRST 1
   1143					;
   1144		000267 			JRA=267			; JUMP AND RESTORE AC
   1145					;
   1146		000254 			JRST=254		; JUMP AND RESTORE (PC FLAGS)
   1147					;
   1148		000266 			JSA=266			; JUMP AND SAVE AC
   1149					;
   1150		000265 			JSP=265			; JUMP AND SAVE PC
   1151					;
   1152		000264 			JSR=264			; JUMP TO SUBROUTINE
   1153					;
   1154		000104 			JSYS=104		; JSYS CALL
   1155					;
   1156		000320 			JUMP=320		; JUMP (NEVER)
   1157		000324 			JUMPA=324		; JUMP ALWAYS
   1158		000322 			JUMPE=322		; JUMP IF AC .EQ. 0
   1159		000327 			JUMPG=327		; JUMP IF AC .GT. 0
   1160		000325 			JUMPGE=325		; JUMP IF AC .GE. 0
   1161		000321 			JUMPL=321		; JUMP IF AC .LT. 0
   1162		000323 			JUMPLE=323		; JUMP IF AC .LE. 0
   1163		000326 			JUMPN=326		; JUMP IF AC .NE. 0
   1164					;
   1165		000700 			KLIOT=700		; KL I/O INSTRUCTION BASE
DEFINE -- LOCAL DEFINITION MODU	MACRO M1113  10-NOV-81 17:44  PAGE 29
DEFINE -- LOCAL DEFINITIONS 7709.20

   1167		000135 			LDB=135			; LOAD BYTE
   1168					;
   1169		000076 			LOOKUP=076		; "LOOKUP" UUO
   1170					;
   1171		000242 			LSH=242			; LOGICAL SHIFT
   1172		000246 			LSHC=246		; LOGICAL SHIFT COMBINED
   1173					;
   1174		000257 			MAP=257			; MAP PAGED ADDRESS
   1175					;
   1176		000200 			MOVE=200		; MOVE
   1177		000201 			MOVEI=201		; MOVE IMMEDIATE
   1178		000202 			MOVEM=202		; MOVE TO MEMORY
   1179		000203 			MOVES=203		; MOVE TO SELF
   1180					;
   1181		000214 			MOVM=214		; MOVE MAGNITUDE, ET AL.
   1182		000215 			MOVMI=215
   1183		000216 			MOVMM=216
   1184		000217 			MOVMS=217
   1185					;
   1186		000210 			MOVN=210		; MOVE NEGATED, ET AL.
   1187		000211 			MOVNI=211
   1188		000212 			MOVNM=212
   1189		000213 			MOVNS=213
   1190					;
   1191		000204 			MOVS=204		; MOVE SWAPPED, ET AL.
   1192		000205 			MOVSI=205
   1193		000206 			MOVSM=206
   1194		000207 			MOVSS=207
   1195					;
   1196		000224 			MUL=224			; MULTIPLY
   1197		000227 			MULB=227		; MULTIPLY BOTH
   1198		000225 			MULI=225		; MULTIPLY IMMEDIATE
   1199		000226 			MULM=226		; MULTIPLY MEMORY
   1200					;
   1201		000050 			OPEN=050		; "OPEN" UUO
   1202					;
   1203		000434 			OR=IOR			; (INCLUSIVE) OR, ET AL.
   1204		000437 			ORB=IORB
   1205					;
   1206		000454 			ORCA=454		; OR WITH COMPLEMENT OF AC
   1207		000457 			ORCAB=457		; "   "	      "	     "	"  BOTH
   1208		000455 			ORCAI=455		; "   "	      "	     "	"  IMMEDIATE
   1209		000456 			ORCAM=456		; "   "       "	     "	"  MEMORY
DEFINE -- LOCAL DEFINITION MODU	MACRO M1113  10-NOV-81 17:44  PAGE 30
DEFINE -- LOCAL DEFINITIONS 7709.20

   1211		000470 			ORCB=470		; OR WITH COMPLEMENT OF BOTH, ET AL.
   1212		000473 			ORCBB=473
   1213		000471 			ORCBI=471
   1214		000472 			ORCBM=472
   1215					;
   1216		000464 			ORCM=464		; OR WITH COMPLEMENT OF MEMORY, ET AL.
   1217		000467 			ORCMB=467
   1218		000465 			ORCMI=465
   1219		000466 			ORCMM=466
   1220					;
   1221		000435 			ORI=IORI		; (INCLUSIVE) OR, ET AL.
   1222		000436 			ORM=IORM
   1223					;
   1224		000057 			OUT=057			; "OUT" UUO
   1225		000065 			OUTBUF=065		; "OUTBUF" UUO
   1226		000067 			OUTPUT=067		; "OUTPUT" UUO
   1227					;
   1228		000262 			POP=262			; POP
   1229		000263 			POPJ=263		; POP (RETURN) AND JUMP
   1230					;
   1231		000261 			PUSH=261		; PUSH
   1232		000260 			PUSHJ=260		; PUSH (RETURN) AND JUMP
   1233					;
   1234		000071 			RELEAS=071		; "RELEAS(E)" UUO
   1235		000055 			RENAME=055		; "RENAME" UUO
   1236					;
   1237		000241 			ROT=241			; ROTATE
   1238		000245 			ROTC=245		; ROTATE COMBINED
   1239					;
   1240		000424 			SETA=424		; SET TO AC
   1241		000427 			SETAB=427		;  "  "	 "  BOTH
   1242		000425 			SETAI=425		;  "  "	 "  IMMEDIATE
   1243		000426 			SETAM=426		;  "  "  "  MEMORY
   1244					;
   1245		000450 			SETCA=450		; SET TO COMPLEMENT OF AC, ET AL.
   1246		000453 			SETCAB=453
   1247		000451 			SETCAI=451
   1248		000452 			SETCAM=452
   1249					;
   1250		000460 			SETCM=460		; SET TO COMLEMENT OF MEMORY, ET AL.
   1251		000463 			SETCMB=463
   1252		000461 			SETCMI=461
   1253		000462 			SETCMM=462
DEFINE -- LOCAL DEFINITION MODU	MACRO M1113  10-NOV-81 17:44  PAGE 31
DEFINE -- LOCAL DEFINITIONS 7709.20

   1255		000414 			SETM=414		; SET TO MEMORY, ET AL
   1256		000417 			SETMB=417
   1257		000415 			SETMI=415
   1258		000416 			SETMM=416
   1259					;
   1260		000474 			SETO=474		; SET TO ONES, ET AL.
   1261		000477 			SETOB=477
   1262		000475 			SETOI=475
   1263		000476 			SETOM=476
   1264					;
   1265		000060 			SETSTS=060		; "SETSTS" UUO
   1266					;
   1267		000400 			SETZ=400		; SET TO ZEROS, ET AL
   1268		000403 			SETZB=403
   1269		000401 			SETZI=401
   1270		000402 			SETZM=402
   1271					;
   1272		000330 			SKIP=330		; SKIP (NEVER)
   1273		000334 			SKIPA=334		; SKIP ALWAYS
   1274		000332 			SKIPE=332		; SKIP IF MEMORY .EQ. 0
   1275		000337 			SKIPG=337		; SKIP IF MEMORY .GT. 0
   1276		000335 			SKIPGE=335		; SKIP IF MEMORY .GE. 0
   1277		000331 			SKIPL=331		; SKIP IF MEMORY .LT. 0
   1278		000333 			SKIPLE=333		; SKIP OF MEMORY .LE. 0
   1279		000336 			SKIPN=336		; SKIP IF MEMORY .NE. 0
   1280					;
   1281		000360 			SOJ=360			; SUBTRACT 1 AND NEVER JUMP
   1282		000364 			SOJA=364		; SUBTRACT 1 (FROM AC) AND ALWAYS JUMP
   1283		000362 			SOJE=362		; SUBTRACT 1 AND JUMP IF AC .EQ. 0
   1284		000367 			SOJG=367		; SUBTRACT 1 AND JUMP IF AC .GT. 0
   1285		000365 			SOJGE=365		; SUBTRACT 1 AND JUMP IF AC .GE. 0
   1286		000361 			SOJL=361		; SUBTRACT 1 AND JUMP IF AC .LT. 0
   1287		000363 			SOJLE=363		; SUBTRACT 1 AND JUMP IF AC .LE. 0
   1288		000366 			SOJN=366		; SUBTRACT 1 AND JUMP IF AC .NE. 0
   1289					;
   1290		000370 			SOS=370			; SUBTRACT 1 (FROM MEMORY) AND NEVER SKIP
   1291		000374 			SOSA=374		; SUBTRACT 1 AND ALWAYS SKIP
   1292		000372 			SOSE=372		; SUBTRACT 1 AND SKIP IF .EQ. 0
   1293		000377 			SOSG=377		; SUBTRACT 1 AND SKIP IF .GT. 0
   1294		000375 			SOSGE=375		; SUBTRACT 1 AND SKIP IF .GE. 0
   1295		000371 			SOSL=371		; SUBTRACT 1 AND SKIP IF .LT. 0
   1296		000373 			SOSLE=373		; SUBTRACT 1 AND SKIP IF .LE. 0
   1297		000376 			SOSN=376		; SUBTRACT 1 AND SKIP IF .NE. 0
   1298					;
   1299		000061 			STATO=061		; "STATO" UUO
   1300		000062 			STATUS=062		; "STATUS" UUO
   1301		000063 			STATZ=063		; "STATZ" UUO
DEFINE -- LOCAL DEFINITION MODU	MACRO M1113  10-NOV-81 17:44  PAGE 32
DEFINE -- LOCAL DEFINITIONS 7709.20

   1303		000274 			SUB=274			; SUBTRACT
   1304		000277 			SUBB=277		; SUBTRACT BOTH
   1305		000275 			SUBI=275		; SUBTRACT IMMEDIATE
   1306		000276 			SUBM=276		; SUBTRACT MEMORY
   1307					;
   1308		000106 			SXCT=106		; SECTION EXECUTE
   1309					;
   1310		000650 			TDC=650			; TEST DIRECT COMPLEMENT NEVER SKIP
   1311		000654 			TDCA=654		;  "	 "	  "	 SKIP ALWAYS
   1312		000652 			TDCE=652		;  "	 "	  "	  "   ON ZERO
   1313		000656 			TDCN=656		;  "     "	  "	  "   ON NON-ZERO
   1314					;
   1315		000610 			TDN=610			; TEST DIRECT NO MODIFICATION, ET AL.
   1316		000614 			TDNA=614
   1317		000612 			TDNE=612
   1318		000616 			TDNN=616
   1319					;
   1320		000670 			TDO=670			; TEST DIRECT ONES, ET AL.
   1321		000674 			TDOA=674
   1322		000672 			TDOE=672
   1323		000676 			TDON=676
   1324					;
   1325		000630 			TDZ=630			; TEST DIRECT ZEROS, ET AL.
   1326		000634 			TDZA=634
   1327		000632 			TDZE=632
   1328		000636 			TDZN=636
   1329					;
   1330		000641 			TLC=641			; TEST LEFT COMPLEMENT, ET AL.
   1331		000645 			TLCA=645
   1332		000643 			TLCE=643
   1333		000647 			TLCN=647
   1334					;
   1335		000601 			TLN=601			; TEST LEFT NO MODIFICATION, ET AL.
   1336		000605 			TLNA=605
   1337		000603 			TLNE=603
   1338		000607 			TLNN=607
   1339					;
   1340		000661 			TLO=661			; TEST LEFT ONES, ET AL.
   1341		000665 			TLOA=665
   1342		000663 			TLOE=663
   1343		000667 			TLON=667
   1344					;
   1345		000621 			TLZ=621			; TEST LEFT ZEROS, ET AL.
   1346		000625 			TLZA=625
   1347		000623 			TLZE=623
   1348		000627 			TLZN=627
   1349					;
   1350		000640 			TRC=640			; TEST RIGHT COMPLEMENT, ET AL.
   1351		000644 			TRCA=644
   1352		000642 			TRCE=642
   1353		000646 			TRCN=646
DEFINE -- LOCAL DEFINITION MODU	MACRO M1113  10-NOV-81 17:44  PAGE 33
DEFINE -- LOCAL DEFINITIONS 7709.20

   1355		000600 			TRN=600			; TEST RIGHT NO MODIFICATION, ET AL.
   1356		000604 			TRNA=604
   1357		000602 			TRNE=602
   1358		000606 			TRNN=606
   1359					;
   1360		000660 			TRO=660			; TEST RIGHT ONES, ET AL.
   1361		000664 			TROA=664
   1362		000662 			TROE=662
   1363		000666 			TRON=666
   1364					;
   1365		000620 			TRZ=620			; TEST RIGHT ZEROS, ET AL.
   1366		000624 			TRZA=624
   1367		000622 			TRZE=622
   1368		000626 			TRZN=626
   1369					;
   1370		000651 			TSC=651			; TEST SWAPPED COMLEMENT, ET AL.
   1371		000655 			TSCA=655
   1372		000653 			TSCE=653
   1373		000657 			TSCN=657
   1374					;
   1375		000611 			TSN=611			; TEST SWAPPED NO MODIFICATION, ET AL.
   1376		000615 			TSNA=615
   1377		000613 			TSNE=613
   1378		000617 			TSNN=617
   1379					;
   1380		000671 			TSO=671			; TEST SWAPPED ONES, ET AL.
   1381		000675 			TSOA=675
   1382		000673 			TSOE=673
   1383		000677 			TSON=677
   1384					;
   1385		000631 			TSZ=631			; TEST SWAPPED ZEROS, ET AL.
   1386		000635 			TSZA=635
   1387		000633 			TSZE=633
   1388		000637 			TSZN=637
   1389					;
   1390		000051 			TTCALL=051		; "TTCALL" UUO
   1391					;
   1392		000073 			UGETF=073		; "UGETF" UUO
   1393					;
   1394		000100 			UJEN=100		; "UJEN" CALL
   1395					;
   1396		000074 			USETI=074		; "USETI" UUO
   1397		000075 			USETO=075		; "USETO" UUO
   1398					;
   1399		000256 			XCT=256			; EXECUTE
   1400					;
   1401		000430 			XOR=430			; EXCLUSIVE OR, ET AL.
   1402		000433 			XORB=433
   1403		000431 			XORI=431
   1404		000432 			XORM=432
   1405
   1406					.SBTTL	COPYRIGHT PAGE
   1407
   1409					.TITLE	DATAB  -- COMMAND PARSER DATA BASE 7709.20
   1410
   1411						.IDENT	"006130"
   1412
DATAB  -- COMMAND PARSER DATA B	MACRO M1113  10-NOV-81 17:44  PAGE 33-1
COPYRIGHT PAGE

   1413					;
   1414					;                             COPYRIGHT (C) 1975, 1979 BY
   1415					;                     DIGITAL EQUIPMENT CORPORATION, MAYNARD MASS.
   1416					;
   1417					;       THIS SOFTWARE IS FURNISHED UNDER A LICENSE AND MAY BE  USED  AND  COPIED
   1418					;       ONLY IN ACCORDANCE WITH THE TERMS OF SUCH LICENSE AND WITH THE INCLUSION
   1419					;       OF THE ABOVE COPYRIGHT NOTICE.  THIS SOFTWARE OR ANY OTHER COPIES THERE-
   1420					;       OF  MAY NOT BE PROVIDED OR OTHERWISE MADE AVAILABLE TO ANY OTHER PERSON.
   1421					;       NO TITLE TO OR OWNERSHIP OF THE SOFTWARE IS HEREBY TRANSFERRED.
   1422					;
   1423					;       THE INFORMATION CONTAINED IN THIS SOFTWARE IS SUBJECT TO CHANGE  WITHOUT
   1424					;       NOTICE  AND SHOULD NOT BE CONSTRUED AS A COMMITMENT BY DIGITAL EQUIPMENT
   1425					;       CORPORATION.
   1426					;
   1427					;       DIGITAL ASSUMES NO RESPONSIBILITY FOR THE  USE  OR  RELIABILITY  OF  ITS
   1428					;       SOFTWARE ON EQUIPMENT WHICH IS NOT SUPPILED BY DIGITAL.
   1429					;
   1430					;		MODULE: COMMAND PARSER DATA BASE
   1431					;
   1432					;		VERSION: 06-13
   1433					;
   1434					;		AUTHOR: R. BELANGER
   1435					;
   1436					;		DATE: 7709.20
   1437					;
   1438					;	THIS MODULE CONTAINS:
   1439					;
   1440					;	1) THE IMPURE DATA BASE FOR THE COMMAND PARSER
DATAB  -- COMMAND PARSER DATA B	MACRO M1113  10-NOV-81 17:44  PAGE 34
COPYRIGHT PAGE

   1442						.MACRO	PARVR$ KEY,FRM,VER,EDT,NUM
   1443						.IF	B,NUM
   1444						.IF	NB,FRM
   1445						PARVR$	\KEY,\FRM,\VER,\EDT,0
   1446						.IFF
   1447						PARVR$	\KEY,200,\VER,\EDT,0
   1448						.ENDC
   1449						.MEXIT
   1450						.IFF
   1451						.IF	GE,VER-10
   1452						.IF	GE,EDT-10
   1453						.ASCIZ	<KEY><FRM>\'VER'-'EDT'\<200>
   1454						.IFF
   1455						.ASCIZ	<KEY><FRM>\'VER'-0'EDT'\<200>
   1456						.ENDC
   1457						.IFF
   1458						.IF	GE,EDT-10
   1459						.ASCIZ	<KEY><FRM>\0'VER'-'EDT'\<200>
   1460						.IFF
   1461						.ASCIZ	<KEY><FRM>\0'VER'-0'EDT'\<200>
   1462						.ENDC
   1463						.ENDC
   1464						.ENDC
   1465						.ENDM	PARVR$
DATAB  -- COMMAND PARSER DATA B	MACRO M1113  10-NOV-81 17:44  PAGE 35
DATAB  -- COMMAND PARSER IMPURE DATA BASE 7709.20

   1467					.SBTTL	DATAB  -- COMMAND PARSER IMPURE DATA BASE 7709.20
   1468
   1469					; COMMAND PARSER VARIABLES ARE MAINTAINED IN THIS AREA
   1470
   1471	000000					.PSECT	DATA
   1472
   1473	000000				.APRWD::
   1474	000000	000000 				.WORD	0		; KL APR ERROR STATUS WORD
   1475	000002				.CCMDN::
   1476	000002	000021'				.WORD	PARNAM		; POINTER TO CURRENT COMMAND NAME
   1477	000004				.CISTS::
   1478	000004	000000 	000000 			.WORD	0,0		; I/O STATUS BLOCK FOR CONSOLE INPUT
   1479	000010				.CLKWD::
   1480	000010	100000 				.WORD	BIT15		; KL CLOCK CONTROL WORD
   1481	000012				.COSTS::
   1482	000012	000000 	000000 			.WORD	0,0		; I/O STATUS BLOCK FOR CONSOLE OUTPUT
   1483	000016				.CRAMA::
   1484	000016	000000 				.WORD	0		; KL CRAM ADDRESSS
   1485	000020				.CRAMR::
   1486	000020	000000 	000000 	000000 		.WORD	0,0,0		; BLOCK FOR KL CRAM READ
   1487	000026	000000 	000000 	000000 		.WORD	0,0,0
   1488	000034	000000 	000000 	000000 		.WORD	0,0,0
   1489	000042				.CRAMW::
   1490	000042	000000 	000000 	000000 		.WORD	0,0,0		; BLOCK FOR CRAM WRITE
   1491	000050	000000 	000000 	000000 		.WORD	0,0,0
   1492	000056	000000 	000000 	000000 		.WORD	0,0,0
   1494	000064				.DBGSW::
   1495	000064	000000 				.WORD	0		; DEBUG SWITCH
   1497	000066				.DPBFR::
   1498	000066	000000 	000000 	000000 		.WORD	0,0,0		; KL DEPOSIT DATA BUFFER
   1499	000074				.DPBFX::
   1500	000074	000000 	000000 	000000 		.WORD	0,0,0		; KL AUXILLIARY DEPOSIT DATA BUFFER
   1509	000102				.EDELA::
   1510	000102	000000 				.WORD	0		; LAST PDP-11 EXAMINE / DEPOSIT ADDRESS
   1511	000104				.EDKLA::
   1512	000104	000000 	000000 	000000 		.WORD	0,0,0		; KL EXAMINE / DEPOSIT ADDRESS BUFFER
   1513	000112				.EDKLX::
   1514	000112	000000 	000000 	000000 		.WORD	0,0,0		; KL AUXILLIARY EXAM / DEPOS ADDRESS BUFFER
   1515	000120				.ELDDW::
   1516	000120	000000 				.WORD	0		; LAST PDP-11 DEPOSIT DATA
   1517	000122				.ELEDW::
   1518	000122	000000 				.WORD	0		; LAST PDP-11 EXAMINE DATA
   1519	000124				.EXBFR::
   1520	000124	000000 	000000 	000000 		.WORD	0,0,0		; KL EXAMINE DATA BUFFER
   1521	000132				.INCHC::
   1522	000132	000000 				.WORD	0		; INPUT CHARACTER COUNT
   1523	000134				.IRADX::
   1524	000134	000010 				.WORD	^D8		; INPUT RADIX
   1525	000136				.KLINC::
   1526	000136	000001 	000000 	000000 		.WORD	^D1,0,0		; KL EXAMINE DEPOSIT INCREMENT
   1527	000144				.KLEDF::			; [5.1006]KLE DEFAULT COMMAND FLAG
   1528	000144	000001 				.WORD	1
   1529	000146				.KLEPT::			; [5.1006]DEFAULT COMMAND TABLE POINTER
   1530	000146	000000 				.WORD	0
   1531	000150				.KLEVL::			; [5.1006]POINTER VALID FLAG
   1532	000150	   000 				.BYTE	0
   1533	000151				.KLSNP::			; [5.1006]SNAPSHOT COMMAND IN PROGRESS
DATAB  -- COMMAND PARSER DATA B	MACRO M1113  10-NOV-81 17:44  PAGE 35-1
DATAB  -- COMMAND PARSER IMPURE DATA BASE 7709.20

   1534	000151	   000 				.BYTE	0
   1535	000152				.PASS::				; [4.1.1049]FM SWEEP PASS FLAG
   1536	000152	000000 				.WORD	0
   1537	000154				.OUTLG::
   1538	000154	   000 				.BYTE	0		; [5.1000]LOG OUTPUT FLAG
   1539	000155				.OUTLP::
   1540	000155	   000 				.BYTE	0		; [5.1000]PRINT OUTPUT FLAG
   1541	000156				.OUTTY::
   1542	000156	   001 				.BYTE	1		; [5.1000]TYPE OUTPUT FLAG
   1543						.EVEN
   1544	000160				.LDSTS::
   1545	000160	000000 	000000 			.WORD	0,0		; I/O STATUS BLOCK FOR LIST DEVICE
   1546	000164				.LGLWD::
   1547	000164	000000 				.WORD	0		; LEGAL BITS OF CURRENT COMMAND
   1548	000166				.LDZFL::
   1549	000166	177777 				.WORD	-^D1		; PRINT LEADING ZEROES FLAG
   1550	000170				.MEMFL::
   1551	000170	000000 				.WORD	0		; EXAMINE DEPOSIT MEMORY OFFSET
   1552	000172				.NOTSW::
   1553	000172	000000 				.WORD	0		; "NOT" SWITCH
   1554	000174				.ORADX::
   1555	000174	000010 				.WORD	^D8		; OUTPUT RADIX
   1556	000176				.PEWRD::
   1557	000176	000000 				.WORD	0		; KL PARITY ERROR FLAGS
   1558	000200				.PITAB::
   1559	000200	000000 	000000 			.WORD	0,0		; EXAMINE PI DATA BLOCK
   1560	000204				.PSCWD::
   1561	000204	100000 				.WORD	BIT15		; KL PARITY STOP CONTROL WORD
   1562	000206				.RDXSV::
   1563	000206	000010 				.WORD	^D8		; SAVED RADIX
   1564	000210				.RELWD::
   1565	000210	000000'				.WORD	.APRWD		; RELOCATION VALUE
   1566	000212				.RPTCT::
   1567	000212	000000 	000000 	000000 		.WORD	0,0,0		; REPEAT COUNT
   1568	000220				.RPTPT::
   1569	000220	000000 				.WORD	0		; POINTER TO STACKED REPEAT COUNT
   1570	000222				.STRTV::
   1571	000222	010340'				.WORD	.START		; START VECTOR
   1572	000224				.SVESP::
   1573	000224	000000 				.WORD	0		; TO REINIT STACK POINTER
   1574	000226				.SVKLF::
   1575	000226	000000 				.WORD	0		; SAVED COPY OF ".KLFLG"
   1576	000230				.SWPIP::			; SWEEP IN PROGRESS FLAG
   1577	000230	000000 				.WORD	0
   1579	000232				.TRKWD::
   1580	000232	000000 				.WORD	0		; "TRACK" FLAGS
   1582	000234				.TRP4V::
   1583	000234	001352'				.WORD	.PTOAT		; TRAP AT 4 VECTOR
   1584	000236				.TRPEC::
   1585	000236	000000 				.WORD	0		; ERROR CODE RETURNED FROM TRAP
   1586	000240				.TRPIP::
   1587	000240	000002 				.WORD	^D2		; TRAP IN PROGRESS INTERLOCK
   1588	000242				.TRPPC::
   1589	000242	000000 				.WORD	0		; TRAP PC
   1590	000244				.TRPPS::
   1591	000244	000000 				.WORD	0		; TRAP PSW
   1592	000246				.TRPSB::
DATAB  -- COMMAND PARSER DATA B	MACRO M1113  10-NOV-81 17:44  PAGE 35-2
DATAB  -- COMMAND PARSER IMPURE DATA BASE 7709.20

   1593	000246	000000 				.WORD	0		; TRAP STATUS BYTE
   1594	000250				.TRPTV::
   1595	000250	000000 				.WORD	0		; TRAP TRAP VECTOR
   1596	000252				.TYOBC::
   1597	000252	000204 				.WORD	^D132		; CONSOLE OUTPUT BYTE COUNT
   1598	000254				.TYOBP::
   1599	000254	000544'				.WORD	.COBFR		; CONSOLE OUTPUT BYTE POINTER
   1600	000256				.VFYFL::
   1601	000256	000000 				.WORD	0		; DEPOSIT VERIFY FLAG
   1602	000260				DATABX::
   1603	000260	000137 	000000G			JMP	.INICP		; EXIT TO INIT
DATAB  -- COMMAND PARSER DATA B	MACRO M1113  10-NOV-81 17:44  PAGE 36
.SSTTB -- SYNCHRONOUS SYSTEM TRAP VECTOR TABLE 7709.20

   1605					.SBTTL	.SSTTB -- SYNCHRONOUS SYSTEM TRAP VECTOR TABLE 7709.20
   1606
   1607					; +
   1608					; .SSTTB -- SYNCHRONOUS SYSTEM TRAP VECTOR TABLE.
   1609					;
   1610					; THESE ARE THE ENTRY POINTS FOR ALL SYNCHRONOUS TRAPS IN THE KL FRONT
   1611					; END COMMAND PARSER. THE PARSER USES SYNCHRONOUS TRAPS, (SST'S),
   1612					; PRIMARILY TO HANDLE INTERNAL ERRORS VIA THE "TRAP" INSTRUCTION. SST'S
   1613					; MAY ALSO BE USED TO HANDLE ODD ADDRESS TRAPS, BREAKPOINTS, AND OTHER
   1614					; ERROR CONDITIONS, AS WELL AS THE PREVIOUSLY MENTIONED ERROR TRAPS.
   1615					;
   1616					; SYNCHRONOUS TRAPS ARE ENABLED BY THE "SVTK$" DIRECTIVE (Q.V.) AS
   1617					; ALLOWED BY THE ENTRIES IN ".SSTTB", THE SST VECTOR TABLE, BELOW.
   1618					; A NON-ZERO ENTRY IN ".SSTTB" INDICATES THAT CONTROL IS TO BE PASSED
   1619					; TO THE ADDRESS IN THAT ENTRY UPON OCCURANCE OF THE ASSOCIATED
   1620					; CONDITION. A ZERO ENTRY IN THE VECTOR TABLE INDICATES THAT THE
   1621					; SYSTEM IS TO HANDLE THE ASSOCIATED CONDITION.
   1622					;
   1623					; THE FORMAT OF THE SST VECTOR TABLE IS AS FOLLOWS:
   1624					;
   1625					;	!===============================================!
   1626					; 00	!	ODD ADDRESS TRAP HANDLER ADDRESS	!
   1627					;	!-----------------------------------------------!
   1628					; 02	!  MEMORY PROTECTION VIOLATION HANDLER ADDRESS	!
   1629					;	!-----------------------------------------------!
   1630					; 04	!	    T-BIT TRAP HANDLER ADDRESS		!
   1631					;	!-----------------------------------------------!
   1632					; 06	!	     IOT TRAP HANDLER ADDRESS		!
   1633					;	!-----------------------------------------------!
   1634					; 10	!   RESERVED INSTRUCTION TRAP HANDLER ADDRESS	!
   1635					;	!-----------------------------------------------!
   1636					; 12	!	ILLEGAL EMT TRAP HANDLER ADDRESS	!
   1637					;	!-----------------------------------------------!
   1638					; 14	!     TRAP INSTRUCTION TRAP HANDLER ADDRESS	!
   1639					;	!-----------------------------------------------!
   1640					; 16	!	FLOATING POINT TRAP HANDLER ADDRESS	!
   1641					;	!===============================================!
   1642					;-
   1643
   1644	000264				.SSTTB::
   1645	000264	000000 				.WORD	0		; ODD ADDRESS TRAP HANDLER
   1646	000266	000000 				.WORD	0		; MEMORY PROTECTION VIOLATION
   1647	000270	000000 				.WORD	0		; BREAKPOINT TRAP HANDLER
   1648	000272	000000 				.WORD	0		; "IOT" INSTRUCTION TRAP
   1649	000274	000000 				.WORD	0		; RESERVED INSTRUCTION TRAP
   1650	000276	000000 				.WORD	0		; NON-STANDARD EMT TRAP
   1651	000300	001124'				.WORD	.PTTRP		; "TRAP" INSTRUCTION TRAP
   1652	000302	000000 				.WORD	0		; FLOATING POINT TRAP
   1653		000010 			SSTLEN==.-.SSTTB/2		; LENGTH OF THIS TABLE
   1654		000302'			SSTTBE==.-2
DATAB  -- COMMAND PARSER DATA B	MACRO M1113  10-NOV-81 17:44  PAGE 37
DATAB  -- DTE-20 OPERATION BUFFERS 7709.20

   1656					.SBTTL	DATAB  -- DTE-20 OPERATION BUFFERS 7709.20
   1657
   1658	000304				.DFBLK::
   1659	000304				.DFWB::
   1660	000304	000000 	000000 	000000 		.WORD	0,0,0		; FUNCTION WRITE BUFFER
   1661	000312				.DFRB::
   1662	000312	000000 	000000 	000000 		.WORD	0,0,0		; FUNCTION READ BUFFER
   1663
   1664	000320				.DREG::
   1665	000320				.DTDI1::
   1666	000320	000000 				.WORD	0		; DTE-20 DIAG WORD 1 BUFFER
   1667	000322				.DTDI2::
   1668	000322	000000 				.WORD	0		; DTE-20 DIAG WORD 2 BUFFER
   1669	000324				.DTSTS::
   1670	000324	000000 				.WORD	0		; DTE-20 STATUS WORD BUFFER
   1671	000326				.DTDI3::
   1672	000326	000000 				.WORD	0		; DTE-20 DIAG WORD 3 BUFFER
   1673		000330'			DFBEND==.
DATAB  -- COMMAND PARSER DATA B	MACRO M1113  10-NOV-81 17:44  PAGE 38
DATAB  -- INPUT / OUTPUT BUFFERS 7709.20

   1675					.SBTTL	DATAB  -- INPUT / OUTPUT BUFFERS 7709.20
   1676
   1677					; THESE ARE THE I/O BUFFERS
   1678
   1679	000330				.CIBFR::
   1680	000330					.BLKW	^D70		; CONSOLE DEVICE INPUT BUFFER
   1681		000214 			.CIBFL==.-.CIBFR
   1682
   1683	000544				.COBFR::
   1684	000544					.BLKW	^D70		; CONSOLE DEVICE OUTPUT BUFFER
   1685		000204 			.COBFL==^D132
   1686
   1687	000760				.COMND::
   1688	000760					.BLKW	^D140		; COMMAND BUFFER
   1689		000430 			.CMNDL==.-.COMND
DATAB  -- COMMAND PARSER DATA B	MACRO M1113  10-NOV-81 17:44  PAGE 39
DATAB  -- ASCII MESSAGES AND .RAD50 TABLES 7709.20

   1691					.SBTTL	DATAB  -- ASCII MESSAGES AND .RAD50 TABLES 7709.20
   1692
   1693	001410				.R50TB::
   1694	001410	000022 				.WORD	<'0-36>-<50-50>
   1695	001412	   060 	   000 			.ASCIZ	%0%
   1696	001414	177766 				.WORD	<'%-35>-<'0-36>
   1697	001416	   045 	   000 			.ASCIZ	/%/
   1698	001420	000012 				.WORD	<'.-34>-<'%-35>
   1699	001422	   056 	   000 			.ASCIZ	%.%
   1700	001424	177767 				.WORD	<'$-33>-<'.-34>
   1701	001426	   044 	   000 			.ASCIZ	%$%
   1702	001430	000067 				.WORD	<'A-01>-<'$-33>
   1703	001432	   101 	   000 			.ASCIZ	%A%
   1704	001434	177740 				.WORD	<' -00>-<'A-01>
   1705	001436	000040 				.WORD	.SPACE
   1706
   1707	001440				.T50TB::
   1708	001440	003100 				.WORD	50*50
   1709	001442	000050 				.WORD	50
   1710	001444	000001 				.WORD	1
   1711	001446	000000 				.WORD	0
   1712
   1713	000000				.PSECT	MESSAG
   1714
   1715	000000				CPVMSG::
   1716	000000					PARVR$	PAR$$K,,PAR$$V,PAR$$E
	000000	   126 	   200 	   060 		.ASCIZ	<126><200>\06-27\<200>
	000003	   066 	   055 	   062
	000006	   067 	   200 	   000
   1717	000011				PARMSG::
   1718	000011	   120 	   101 	   122 		.ASCIZ	%PAR -- %
	000014	   040 	   055 	   055
	000017	   040 	   000
   1719	000021				PARNAM::
   1720	000021	   120 	   101 	   122 		.ASCIZ	%PARSER%
	000024	   123 	   105 	   122
	000027	   000
   1721	000030				PROMPT::
   1722	000030	   120 	   101 	   122 		.ASCIZ	%PAR%
	000033	   000
   1723	000034				KLEPRM::
   1724	000034	   113 	   114 	   105 		.ASCIZ	%KLE>%
	000037	   076 	   000
   1725	000041				ONMSG::
   1726	000041	   117 	   116 	   000 		.ASCIZ	%ON%
   1727	000044				OFFMSG::
   1728	000044	   117 	   106 	   106 		.ASCIZ	%OFF%
	000047	   000
   1729	000000				.PSECT
DATAB  -- COMMAND PARSER DATA B	MACRO M1113  10-NOV-81 17:44  PAGE 40
.CHTAB -- THE CHARACTER PROPERTY TABLE 7601.14

   1731					.SBTTL	.CHTAB -- THE CHARACTER PROPERTY TABLE 7601.14
   1732
   1733					;+
   1734					; .CHTAB -- THE CHARACTER PROPERTY TABLE
   1735					;
   1736					; THIS IS A TABLE OF ASCII CHARACTER PROPERTIES. THERE IS ONE ENTRY
   1737					; FOR EACH CHARACTER IN THE ASCII STANDARD CHARACTER SET. EACH ENTRY
   1738					; IS ONE BYTE LONG, AND CONTAINS BITS ASSOCIATED WITH THE GENERAL
   1739					; PROPETIES OF THE ASCII CHARACTER IT REPRESENTS. ".CHTAB" IS
   1740					; REFERENCED BY USING THE ASCII CHARACTER UNDER TEST AS AN OFFSET
   1741					; INTO THE TABLE. ONE ASCII CHARACTER MAY HAVE MULTIPLE CHARACTERISTICS.
   1742					; THE DEFINITIONS FOR THE CHARACTERISTIC BITS ARE IN "COMMON.MAC",
   1743					; (Q.V.), WHICH ARE:
   1744					;
   1745					;	"CH.ALP" -- (BIT00) -- CHARACTER IS ALPHABETIC,
   1746					;	"CH.NUM" -- (BIT01) -- CHARACTER IS NUMERIC,
   1747					;	"CH.EOL" -- (BIT02) -- CHARACTER MAY END A LINE,
   1748					;	"CH.EOC" -- (BIT03) -- CHARACTER MAY END A COMMAND,
   1749					;	"CH.EOS" -- (BIT04) -- CHARACTER MAY SUFFIX A SYMBOL,
   1750					;	"CH.PFX" -- (BIT05) -- CHARACTER MAY PREFIX A SYMBOL,
   1751					;	"CH.AOP" -- (BIT06) -- CHARACTER MAY PREFIX AN ARITHMETIC OPERATOR,
   1752					;	"CH.ILL" -- (BIT07) -- CHARACTER IS ILLEGAL.
   1753					;
   1754					; TABS, (ASCII 011), AND LOWER CASE ALPHABETICS ARE ILLEGAL CHARACTERS
   1755					; SINCE THE INPUT ROUTINES CONVERT THESE CHARACTERS TO SPACES AND
   1756					; UPPER CASE ALPHABETICS, RESPECTIVELY.
   1757					;-
   1758
   1759	001450					.PSECT	DATA
   1760
   1761	001450				.CHTAB::
   1762	001450	   034 				.BYTE	CH.EOL!CH.EOC!CH.EOS	; <NULL> (000)
   1763	001451	   200 				.BYTE	CH.ILL			; ^A (001)
   1764	001452	   200 				.BYTE	CH.ILL			; ^B (002)
   1765	001453	   200 				.BYTE	CH.ILL			; ^C (003)
   1766	001454	   200 				.BYTE	CH.ILL			; ^D (004)
   1767	001455	   200 				.BYTE	CH.ILL			; ^E (005)
   1768	001456	   200 				.BYTE	CH.ILL			; ^F (006)
   1769	001457	   200 				.BYTE	CH.ILL			; ^G <BELL> (007)
   1770	001460	   200 				.BYTE	CH.ILL			; ^H (010)
   1771	001461	   200 				.BYTE	CH.ILL			; ^I <HORIZONTAL-TAB> (011)
   1772	001462	   200 				.BYTE	CH.ILL			; ^J <NEW-LINE> (012)
   1773	001463	   200 				.BYTE	CH.ILL			; ^K <VERTICAL-TAB> (013)
   1774	001464	   200 				.BYTE	CH.ILL			; ^L <FORM-FEED> (014)
   1775	001465	   200 				.BYTE	CH.ILL			; ^M <CARRIAGE-RETURN> (015)
   1776	001466	   200 				.BYTE	CH.ILL			; ^N (016)
   1777	001467	   200 				.BYTE	CH.ILL			; ^O (017)
   1778	001470	   200 				.BYTE	CH.ILL			; ^P (020)
   1779	001471	   200 				.BYTE	CH.ILL			; ^Q (021)
   1780	001472	   200 				.BYTE	CH.ILL			; ^R (022)
   1781	001473	   200 				.BYTE	CH.ILL			; ^S (023)
   1782	001474	   200 				.BYTE	CH.ILL			; ^T (024)
   1783	001475	   200 				.BYTE	CH.ILL			; ^U (025)
   1784	001476	   200 				.BYTE	CH.ILL			; ^V (026)
   1785	001477	   200 				.BYTE	CH.ILL			; ^W (027)
DATAB  -- COMMAND PARSER DATA B	MACRO M1113  10-NOV-81 17:44  PAGE 41
.CHTAB -- THE CHARACTER PROPERTY TABLE 7601.14

   1787	001500	   200 				.BYTE	CH.ILL			; ^X (030)
   1788	001501	   200 				.BYTE	CH.ILL			; ^Y (031)
   1789	001502	   200 				.BYTE	CH.ILL			; ^Z (032)
   1790	001503	   200 				.BYTE	CH.ILL			; <ALT-MODE> (033)
   1791	001504	   200 				.BYTE	CH.ILL			; ^\ (034)
   1792	001505	   200 				.BYTE	CH.ILL			; ^] (035)
   1793	001506	   200 				.BYTE	CH.ILL			; ^^ (036)
   1794	001507	   200 				.BYTE	CH.ILL			; ^_ (037)
   1795	001510	   020 				.BYTE	CH.EOS			; <SPACE> (040)
   1796	001511	   200 				.BYTE	CH.ILL			; ! (041)
   1797	001512	   020 				.BYTE	CH.EOS			; " (042)
   1798	001513	   200 				.BYTE	CH.ILL			; # (043)
   1799	001514	   200 				.BYTE	CH.ILL			; $ (044)
   1800	001515	   200 				.BYTE	CH.ILL			; % (045)
   1801	001516	   200 				.BYTE	CH.ILL			; & (046)
   1802	001517	   020 				.BYTE	CH.EOS			; ' (047)
   1803	001520	   140 				.BYTE	CH.AOP!CH.PFX		; ( (050)
   1804	001521	   100 				.BYTE	CH.AOP			; ) (051)
   1805	001522	   120 				.BYTE	CH.AOP!CH.EOS		; * (052)
   1806	001523	   160 				.BYTE	CH.AOP!CH.EOS!CH.PFX	; + (053)
   1807	001524	   030 				.BYTE	CH.EOS!CH.EOC		; , (054)
   1808	001525	   160 				.BYTE	CH.AOP!CH.EOS!CH.PFX	; - (055)
   1809	001526	   200 				.BYTE	CH.ILL			; . (056)
   1810	001527	   120 				.BYTE	CH.AOP!CH.EOS		; / (057)
   1811						;
   1812	001530	   002 				.BYTE	CH.NUM			; 0 (060)
   1813	001531	   002 				.BYTE	CH.NUM			; 1 (061)
   1814	001532	   002 				.BYTE	CH.NUM			; 2 (062)
   1815	001533	   002 				.BYTE	CH.NUM			; 3 (063)
   1816	001534	   002 				.BYTE	CH.NUM			; 4 (064)
   1817	001535	   002 				.BYTE	CH.NUM			; 5 (065)
   1818	001536	   002 				.BYTE	CH.NUM			; 6 (066)
   1819	001537	   002 				.BYTE	CH.NUM			; 7 (067)
   1820	001540	   002 				.BYTE	CH.NUM			; 8 (070)
   1821	001541	   002 				.BYTE	CH.NUM			; 9 (071)
   1822						;
   1823	001542	   030 				.BYTE	CH.EOS!CH.EOC		; : (072)
   1824	001543	   030 				.BYTE	CH.EOS!CH.EOC		; ; (073)
   1825	001544	   200 				.BYTE	CH.ILL			; < (074)
   1826	001545	   020 				.BYTE	CH.EOS			; = (075)
   1827	001546	   020 				.BYTE	CH.EOS			; > (076)
   1828	001547	   041 				.BYTE	CH.PFX!CH.ALP		; ? (077)
   1829	001550	   200 				.BYTE	CH.ILL			; @ (100)
DATAB  -- COMMAND PARSER DATA B	MACRO M1113  10-NOV-81 17:44  PAGE 42
.CHTAB -- THE CHARACTER PROPERTY TABLE 7601.14

   1831	001551	   001 				.BYTE	CH.ALP			; A (101)
   1832	001552	   101 				.BYTE	CH.ALP!CH.AOP		; B (102)
   1833	001553	   101 				.BYTE	CH.ALP!CH.AOP		; C (103)
   1834	001554	   101 				.BYTE	CH.ALP!CH.AOP		; D (104)
   1835	001555	   001 				.BYTE	CH.ALP			; E (105)
   1836	001556	   001 				.BYTE	CH.ALP			; F (106)
   1837	001557	   001 				.BYTE	CH.ALP			; G (107)
   1838	001560	   001 				.BYTE	CH.ALP			; H (110)
   1839	001561	   001 				.BYTE	CH.ALP			; I (111)
   1840	001562	   001 				.BYTE	CH.ALP			; J (112)
   1841	001563	   001 				.BYTE	CH.ALP			; K (113)
   1842	001564	   001 				.BYTE	CH.ALP			; L (114)
   1843	001565	   001 				.BYTE	CH.ALP			; M (115)
   1844	001566	   001 				.BYTE	CH.ALP			; N (116)
   1845	001567	   101 				.BYTE	CH.ALP!CH.AOP		; O (117)
   1846	001570	   001 				.BYTE	CH.ALP			; P (120)
   1847	001571	   001 				.BYTE	CH.ALP			; Q (121)
   1848	001572	   001 				.BYTE	CH.ALP			; R (122)
   1849	001573	   001 				.BYTE	CH.ALP			; S (123)
   1850	001574	   001 				.BYTE	CH.ALP			; T (124)
   1851	001575	   001 				.BYTE	CH.ALP			; U (125)
   1852	001576	   001 				.BYTE	CH.ALP			; V (126)
   1853	001577	   001 				.BYTE	CH.ALP			; W (127)
   1854	001600	   001 				.BYTE	CH.ALP			; X (130)
   1855	001601	   001 				.BYTE	CH.ALP			; Y (131)
   1856	001602	   001 				.BYTE	CH.ALP			; Z (132)
   1857						;
   1858	001603	   200 				.BYTE	CH.ILL			; [ (133)
   1859	001604	   200 				.BYTE	CH.ILL			; \ (134)
   1860	001605	   200 				.BYTE	CH.ILL			; ] (135)
   1861	001606	   140 				.BYTE	CH.AOP!CH.PFX		; ^ (136)
   1862	001607	   120 				.BYTE	CH.AOP!CH.EOS		; _ (137)
   1863	001610	   200 				.BYTE	CH.ILL			; @ (140)
   1898					.EVEN
   1899	000000					.PSECT
DEB880 -- DEBUG PARSER DATA BAS	MACRO M1113  10-NOV-81 17:44  PAGE 44
.CHTAB -- THE CHARACTER PROPERTY TABLE 7601.14

   1902					.TITLE	DEB880 -- DEBUG PARSER DATA BASE
   1903
   1904						.IDENT	"006110"
   1905
   1906					;
CHECK -- GENERAL ARGUMENT CHECK	MACRO M1113  10-NOV-81 17:44  PAGE 46
.CHTAB -- THE CHARACTER PROPERTY TABLE 7601.14

   2005					.TITLE	CHECK -- GENERAL ARGUMENT CHECK MODULE 7709.21
   2006
   2007						.IDENT	"006020"
   2008
   2009					;
   2010					;                             COPYRIGHT (C) 1979 BY
   2011					;                     DIGITAL EQUIPMENT CORPORATION, MAYNARD MASS.
   2012					;
   2013					;       THIS SOFTWARE IS FURNISHED UNDER A LICENSE AND MAY BE  USED  AND  COPIED
   2014					;       ONLY IN ACCORDANCE WITH THE TERMS OF SUCH LICENSE AND WITH THE INCLUSION
   2015					;       OF THE ABOVE COPYRIGHT NOTICE.  THIS SOFTWARE OR ANY OTHER COPIES THERE-
   2016					;       OF  MAY NOT BE PROVIDED OR OTHERWISE MADE AVAILABLE TO ANY OTHER PERSON.
   2017					;       NO TITLE TO OR OWNERSHIP OF THE SOFTWARE IS HEREBY TRANSFERRED.
   2018					;
   2019					;       THE INFORMATION CONTAINED IN THIS SOFTWARE IS SUBJECT TO CHANGE  WITHOUT
   2020					;       NOTICE  AND SHOULD NOT BE CONSTRUED AS A COMMITMENT BY DIGITAL EQUIPMENT
   2021					;       CORPORATION.
   2022					;
   2023					;       DIGITAL ASSUMES NO RESPONSIBILITY FOR THE  USE  OR  RELIABILITY  OF  ITS
   2024					;       SOFTWARE ON EQUIPMENT WHICH IS NOT SUPPILED BY DIGITAL.
   2025					;
   2026					;		MODULE: ALPANUMERIC ARGUMENT CHECK
   2027					;
   2028					;		VERSION: 06-02
   2029					;
   2030					;		AUTHOR: R. BELANGER
   2031					;
   2032					;		DATE: 709.21
   2033					;
   2034					;	THIS MODULE CONTAINS:
   2035					;
   2036					;	1) ALPHANUMERIC ARGUMENT CHECK CODE
   2037					;	2) TRAILING COLON CHECK CODE
   2038					;	3) END OF COMMAND CHECK CODE
   2039					;	4) END OF SYMBOL CHECK CODE
   2040					;	5) TRAILING OBJECT CHECK CODE
   2041					;	6) TRAILING SYMBOL CHECK CODE
   2042					;
   2043					;	MODIFICATION:
   2044					;
   2045					;	NO.	DATE		PROGRAMMER	REASON
   2046					;	---	----		----------	------
   2047					;   TCO 5.1002	18-SEP-79	K. LEFEBVRE	ADD RETURN TO CES ON SWEEP
   2048
   2049						.MCALL	CLEF$S
CHECK -- GENERAL ARGUMENT CHECK	MACRO M1113  10-NOV-81 17:44  PAGE 47
.CESCK -- SUBROUTINE TO CHECK FOR CLOCK ERROR STOP 7607.15

   2051					.SBTTL	.CESCK -- SUBROUTINE TO CHECK FOR CLOCK ERROR STOP 7607.15
   2052
   2053					;+
   2054					; .CESCK -- SUBROUTINE TO CHECK FOR CLOCK ERROR STOP BY READING
   2055					;	    DTE-20 DIAG WORD 1.
   2056					;
   2057					; THIS SUBROUTINE CHECKS FOR THE KL CLOCK ERROR STOP ("D1.CES") FLAG
   2058					; IN THE DTE-20 DIAG1 REGISTER, AND WILL RETURN NORMALLY IF THE BIT IS OFF.
   2059					;
   2060					; SEQUENCE OF OPERATION:
   2061					;
   2062					;	(A) READ DTE-20 DIAG WORD 1,
   2063					;	(B) TEST THE CLOCK ERROR STOP FLAG FROM (A),
   2064					;	(C) IF THE FLAG IS CLEAR, EXIT, ELSE GO TO (D),
   2065					;	(D) RESET THE STATE OF ".KLFLG" AND ".SVKLF" (Q.V.),
   2066					;	(E) FORCE A CONTEXT SWITCH INTO SECONDARY PROTOCOL,
   2067					;	(F) RETURN A .RAD50 "CES" ERROR CODE VIA ERROR TRAP.
   2068					;
   2069					; INPUT ARGUMENTS:
   2070					;
   2071					;	NONE.
   2072					;
   2073					; OUTPUT ARGUMENTS:
   2074					;
   2075					;	R0 CONTAINS A COPY OF DTE-20 DIAG WORD 1.
   2076					;	CC-C IS SET IF CES AND SWEEP IN PROGRESS
   2077					;
   2078					; ERROR CODES RETURNED:
   2079					;
   2080					;	CES -- KL CLOCK ERROR STOP.
   2081					;	DSF -- DTE-20 STATUS FAILURE.
   2082					;-
   2083
   2084	000000				.CESCK::
   2088	000000					CALL	.DTDW1		; READ DIAG WORD 1
	000000	004737 	003530'			 JSR	PC,.DTDW1
   2089	000004	032700 	004000 			BIT	#D1.CES,R0	; IS CLOCK ERROR STOP LIT?
   2090	000010	001002 				BNE	CESCES		; YES -- GIVE "CES" ERROR
   2091	000012	000241 				CLC			; [5.1002]NO -- CLEAR CARRY
   2092	000014					RETURN			; JUST RETURN
	000014	000207 				 RTS	PC
   2093	000016				CESCES:
   2094	000016					CALL	..DTSP		; [5.1002]STOP ALL PROTOCOLS
	000016	004737 	000000G			 JSR	PC,..DTSP
   2095	000022	112737 	000001 	000000G		MOVB	#1,.NOERR	; AND DISABLE ERROR INTERRUPT
   2096	000030	005037 	000226'			CLR	.SVKLF		; DISALLOW RESTARTS
   2097	000034	042737 	140200 	000000G		BIC	#KF.CON!KF.RUN!KF.CLK,.KLFLG
   2098									; CLEAR THE CLOCK AND CONTINUEABLE FLAGS
   2099	000042	052737 	000100 	000000G		BIS	#KF.CES,.KLFLG	; FLAG THE CLOCK ERROR STOP
   2100	000050	005737 	000230'			TST	.SWPIP		; [5.1002]SWEEP IN PROGRESS?
   2101	000054	001402 				BEQ	10$		; [5.1002]NO -- TAKE ERROR TRAP
   2102	000056	000261 				SEC			; [5.1002]YES -- SET CARRY
   2103	000060					RETURN			; [5.1002]EXIT
	000060	000207 				 RTS	PC
   2104	000062				10$:	ERROR$	CES		; ERROR -- CLOCK ERROR STOP
	000062	012746 	011633 			 MOV	#^RCES,-(SP)
	000066	104400 				 TRAP	TC.ERR
CHECK -- GENERAL ARGUMENT CHECK	MACRO M1113  10-NOV-81 17:44  PAGE 47-1
.CESCK -- SUBROUTINE TO CHECK FOR CLOCK ERROR STOP 7607.15

   2105						;
CHECK -- GENERAL ARGUMENT CHECK	MACRO M1113  10-NOV-81 17:44  PAGE 48
.CKARG -- CHECK FOR ALPHANUMERIC ARGUMENT 7709.21

   2107					.SBTTL	.CKARG -- CHECK FOR ALPHANUMERIC ARGUMENT 7709.21
   2108
   2109					;+
   2110					; .CKARG -- CHECK FOR AN ALPHANUMERIC ARGUMENT
   2111					;
   2112					; THIS ROUTINE WILL CHECK THE FIRST CHARACTER OF THE NEXT SYMBOL
   2113					; IN THE INPUT STREAM TO SEE IF IT IS ALPHABETIC OR NUMERIC.
   2114					;
   2115					; INPUT ARGUMENTS:
   2116					;
   2117					;	R5 POINTS TO THE INPUT STREAM
   2118					;
   2119					; OUTPUT ARGUMENTS:
   2120					;
   2121					;	R5 POINTS TO THE FIRST CHARACTER IN THE SYMBOL
   2122					;	CC-N IS SET IF IT IS NUMERIC
   2123					;	CC-Z IS SET IF IT IS ALPHABETIC
   2124					;
   2125					; ERROR CODES RETURNED:
   2126					;
   2127					;	MRA -- MISSING REQUIRED ARGUMENT
   2128					;-
   2129
   2130	000070				.CKARG::
   2131	000070					CALL	.CKSYM		; GET OVER LEADING BLANKS
	000070	004737 	000374'			 JSR	PC,.CKSYM
   2132	000074	132764 	000001 	001450'		BITB	#CH.ALP,.CHTAB(R4)
   2133	000102	001403 				BEQ	10$		; SEE IF IT IS NUMERIC
   2134	000104	000250 				CLN			; CLEAR CC-N
   2135	000106	000264 				SEZ			; SET CC-Z TO SAY ALPHABETIC
   2136	000110	000406 				BR	20$		; AND EXIT
   2137						;
   2138	000112				10$:
   2139	000112	132764 	000042 	001450'		BITB	#CH.NUM!CH.PFX,.CHTAB(R4)
   2140	000120	001417 				BEQ	CKCMRA		; NOT NUMERIC -- GIVE ERROR
   2141	000122	000244 				CLZ			; CLEAR CC-Z
   2142	000124	000270 				SEN			; SET CC-N TO SAY NUMERIC
   2143	000126				20$:
   2144	000126					RETURN			; TO CALLER
	000126	000207 				 RTS	PC
CHECK -- GENERAL ARGUMENT CHECK	MACRO M1113  10-NOV-81 17:44  PAGE 49
.CKCOL -- CHECK FOR A EQUAL 7709.21

   2146					.SBTTL	.CKCOL -- CHECK FOR A EQUAL 7709.21
   2147
   2148					;+
   2149					; .CKCOL -- CHECK FOR A EQUAL
   2150					;
   2151					; THIS ROUTINE CHECKS FOR A EQUAL AFTER A SYMBOL
   2152					;
   2153					; INPUT ARGUMENTS:
   2154					;
   2155					;	R5 POINTS TO THE INPUT STREAM
   2156					;
   2157					; OUTPUT ARGUMENTS:
   2158					;
   2159					;	R5 POINTS TO THE FIRST CHARACTER AFTER THE EQUAL.
   2160					;
   2161					; ERROR CODES RETURNED:
   2162					;
   2163					;	ILS -- ILLEGAL SEPARATOR CHARACTER.
   2164					;	MRA -- MISSING REQUIRED ARGUMENT
   2165					;-
   2166
   2167	000130				.CKCOL::
   2168	000130	112504 				MOVB	(R5)+,R4	; GET THE CHARACTER
   2169	000132	132764 	000010 	001450'		BITB	#CH.EOC,.CHTAB(R4)
   2170	000140	001007 				BNE	CKCMRA		; MISSING ARGUMENT IF E-O-C
   2171	000142	122704 	000075 			CMPB	#'=,R4		; IS IT A EQUAL?
   2172	000146	001001 				BNE	CKCILS		; NO -- GIVE "ILS" ERROR
   2173	000150					RETURN			; YES -- JUST RETURN
	000150	000207 				 RTS	PC
   2174	000152				CKCILS:
   2175	000152					ERROR$	ILS		; ERROR -- ILLEGAL SEPARATOR CHARACTER
	000152	012746 	035063 			 MOV	#^RILS,-(SP)
	000156	104400 				 TRAP	TC.ERR
   2176						;
   2177	000160				CKCMRA:
   2178	000160					ERROR$	MRA		; ERROR -- MISSING REQUIRED ARGUMENT
	000160	012746 	052021 			 MOV	#^RMRA,-(SP)
	000164	104400 				 TRAP	TC.ERR
   2179						;
CHECK -- GENERAL ARGUMENT CHECK	MACRO M1113  10-NOV-81 17:44  PAGE 50
.CKCTC -- CHECK FOR CONTROL-C TYPED 7601.28

   2181					.SBTTL	.CKCTC -- CHECK FOR CONTROL-C TYPED 7601.28
   2182
   2183					;+
   2184					; .CKCTC -- CHECK FOR CONTROL-C TYPED
   2185					;
   2186					; THIS SUBROUTINE CHECKS THE CONTROL-C EVENT FLAG, "E.FCTC" AND WILL
   2187					; RETURN TO THE CALLING ROUTINE IF IT IS CLEAR OR TRAP IF IT IS SET.
   2188					;
   2189					; INPUT ARGUMENTS:
   2190					;
   2191					;	NONE.
   2192					;
   2193					; OUTPUT ARGUMENTS:
   2194					;
   2195					;	NONE
   2196					;
   2197					; ERROR CODES RETURNED:
   2198					;
   2199					;	NONE.
   2200					;-
   2201
   2202	000166				.CKCTC::
   2203	000166					CLEF$S	#E.FCTC		; CLEAR THE EVENT FLAG
	000166	012746 	000000G			MOV	#E.FCTC,-(SP)
	000172	012746 				MOV	(PC)+,-(SP)
	000174	   037 	   002 			.BYTE	31.,2
	000176	104375 				EMT	375
   2204	000200	022737 	000000G	000000G		CMP	#IS.SET,$DSW	; WAS IT SET?
   2205	000206	001401 				BEQ	10$		; YES -- TRAP OUT
   2206	000210					RETURN			; NO -- JUST RETURN
	000210	000207 				 RTS	PC
   2207	000212				10$:				; PC OF CALL WILL BE IN ".TRPEC"
   2208	000212	104402 				TRAP	TC.CTC		; .TRAP AND RESTART
   2209						;
CHECK -- GENERAL ARGUMENT CHECK	MACRO M1113  10-NOV-81 17:44  PAGE 51
.CKEOC -- CHECK END OF COMMAND 7602.16

   2211					.SBTTL	.CKEOC -- CHECK END OF COMMAND 7602.16
   2212
   2213					;+
   2214					; .CKEOC -- CHECK FOR END OF COMMAND
   2215					;
   2216					; THIS ROUTINE CHECKS FOR AN END OF COMMAND CHARACTER
   2217					;
   2218					; INPUT ARGUMENTS:
   2219					;
   2220					;	R5 POINTS TO THE INPUT STREAM
   2221					;
   2222					; OUTPUT ARGUMENTS:
   2223					;
   2224					;	R5 IS UNCHANGED
   2225					;
   2226					; ERROR CODES RETURNED:
   2227					;
   2228					;	EOC -- END OF COMMAND REQUIRED
   2229					;	ILS -- ILLEGAL SEPARATOR CHARACTER
   2230					;-
   2231
   2232	000214				.CKEOC::
   2233	000214	111504 				MOVB	(R5),R4		; GET THE CHARACTER
   2234	000216	132764 	000010 	001450'		BITB	#CH.EOC,.CHTAB(R4)
   2235	000224	001401 				BEQ	10$		; MAY BE ERROR IF NOT E-O-C
   2236	000226					RETURN			; TO CALLER
	000226	000207 				 RTS	PC
   2237	000230				10$:
   2238	000230					PUSH	R4		; SAVE THE CHARACTER
	000230	010446 				 MOV	R4,-(SP)
   2239	000232					CALL	.CKSYM		; .LOOK FOR A NON-BLANK CHARACTER
	000232	004737 	000374'			 JSR	PC,.CKSYM
   2240	000236	122704 	000077 			CMPB	#'?,R4		; .IS THIS AN INQUIRY?
   2241	000242	001402 				BEQ	CKEEOC		; .YES -- GIVE "EOC" ERROR
   2242	000244					POP	R4		; .NO -- GIVE "ILS" ERROR
	000244	012604 				 MOV	(SP)+,R4
   2243	000246	000741 				BR	CKCILS		; ERROR -- ILLEGAL SEPARATOR CHARACTER
   2244						;
   2245	000250				CKEEOC:
   2246	000250					ERROR$	EOC		; ERROR -- END OF COMMAND
	000250	012746 	020633 			 MOV	#^REOC,-(SP)
	000254	104400 				 TRAP	TC.ERR
   2247						;
CHECK -- GENERAL ARGUMENT CHECK	MACRO M1113  10-NOV-81 17:44  PAGE 52
.CKEOS -- CHECK END OF SYMBOL 7709.21

   2249					.SBTTL	.CKEOS -- CHECK END OF SYMBOL 7709.21
   2250
   2251					;+
   2252					; .CKEOS -- CHECK FOR A NON-BLANK END OF SYMBOL
   2253					;
   2254					; THIS ROUTINE CHECKS FOR A NON-BLANK END-OF-SYMBOL CHARACTER
   2255					;
   2256					; INPUT ARGUMENTS:
   2257					;
   2258					;	R5 POINTS TO THE END-OF-SYMBOL CHARACTER
   2259					;
   2260					; OUTPUT ARGUMENTS:
   2261					;
   2262					;	R5 IS UNCHANGED
   2263					;
   2264					; ERROR CODES RETURNED:
   2265					;
   2266					;	ILS -- ILLEGAL SEPARATOR CHRARACTER
   2267					;-
   2268
   2269	000256				.CKEOS::
   2270	000256	111504 				MOVB	(R5),R4		; GET THE CHARACTER INTO R4
   2271	000260	132764 	000020 	001450'		BITB	#CH.EOS,.CHTAB(R4)
   2272	000266	001731 				BEQ	CKCILS		; ILLEGAL IF NOT E-O-S
   2273	000270	122704 	000040 			CMPB	#.SPACE,R4	; IS IS A <SPACE>?
   2274	000274	001726 				BEQ	CKCILS		; YES -- COMPLAIN
   2275	000276					RETURN			; NO -- JUST RETURN
	000276	000207 				 RTS	PC
CHECK -- GENERAL ARGUMENT CHECK	MACRO M1113  10-NOV-81 17:44  PAGE 53
.CKOBJ -- CHECK FOR A TRAILING OBJECT 7709.21

   2277					.SBTTL	.CKOBJ -- CHECK FOR A TRAILING OBJECT 7709.21
   2278
   2279					;+
   2280					; .CKOBJ -- CHECK FOR A TRAILING OBJECT.
   2281					;
   2282					; THIS SUBROUTINE CHECKS TO SEE IF AN OBJECT SYMBOL FOLLOWS THE
   2283					; CURRENT SYMBOL.
   2284					;
   2285					; INPUT ARGUMENTS:
   2286					;
   2287					;	NONE.
   2288					;
   2289					; OUTPUT ARGUMENTS:
   2290					;
   2291					;	NONE.
   2292					;
   2293					; ERROR CODES RETURNED:
   2294					;
   2295					;	MRA -- MISSING REQUIRED ARGUMENT.
   2296					;-
   2297
   2298	000300				.CKOBJ::
   2299	000300					CALL	.CKSYM		; GET OVER LEADING BLANKS
	000300	004737 	000374'			 JSR	PC,.CKSYM
   2300	000304	132764 	000010 	001450'		BITB	#CH.EOC,.CHTAB(R4)
   2301	000312	001322 				BNE	CKCMRA		; ILLEGAL IF E-O-C
   2302	000314					RETURN			; NOT E-O-C -- RETURN
	000314	000207 				 RTS	PC
CHECK -- GENERAL ARGUMENT CHECK	MACRO M1113  10-NOV-81 17:44  PAGE 54
.CKRUN -- SUBROUTINE TO CHECK IF THE KL IS RUNNING 7601.12

   2304					.SBTTL	.CKRUN -- SUBROUTINE TO CHECK IF THE KL IS RUNNING 7601.12
   2305
   2306					;+
   2307					; .CKRUN -- SUBROUTINE TO CHECK IF THE KL IS RUNNING
   2308					; .CKRNP -- SPECIAL RUN CHECK FOR PROGRAMMER MODE
   2309					;
   2310					; THIS SUBROUTINE WILL CHECK IF THE KL IS RUNNING FROM ".KLFLG"
   2311					; OR IF THE FRONT END IS IN MAINTENANCE MODE.
   2312					;
   2313					; INPUT ARGUMENTS:
   2314					;
   2315					;	NONE.
   2316					;
   2317					; OUTPUT ARGUMENTS:
   2318					;
   2319					;	NONE.
   2320					;
   2321					; ERROR CODES RETURNED:
   2322					;
   2323					;	KLR -- KL IS RUNNING.
   2324					;-
   2325
   2326						.ENABL	LSB
   2327
   2328	000316				.CKRNP::
   2329	000316					PUSH	R0		; SAVE R0
	000316	010046 				 MOV	R0,-(SP)
   2330	000320	012700 	000002 			MOV	#LG.PRG,R0	; .SET PROGRAMMER ALLOWED
   2331	000324	000402 				BR	10$		; .AND CONTINUE TEST
   2332						;
   2333	000326				.CKRUN::
   2334	000326					PUSH	R0		; SAVE R0
	000326	010046 				 MOV	R0,-(SP)
   2335	000330	005000 				CLR	R0		; .CLEAR R0
   2336	000332				10$:
   2337	000332	052700 	000004 			BIS	#LG.MNT,R0	; .SET MAINTENANCE ALLOWED
   2338	000336					PUSH	.KLFLG		; .SAVE ".KLFLG"
	000336	013746 	000000G			 MOV	.KLFLG,-(SP)
   2339	000342	005116 				COM	(SP)		; ..INVERT ".KLFLG"
   2340	000344	032716 	140000 			BIT	#KF.RUN!KF.CLK,(SP)
   2341	000350	001003 				BNE	20$		; ..BRANCH IF THE KL IS NOT RUNNING
   2342	000352	030037 	000000G			BIT	R0,.FEMOD	; ..ARE WE IN ALLOWED MODE?
   2343	000356	001403 				BEQ	CKRKLR		; ..NO -- GIVE "KLR" ERROR
   2344	000360				20$:
   2345	000360	005726 				TST	(SP)+		; ..YES -- RESET THE STACK
   2346	000362					POP	R0		; .RESTORE R0
	000362	012600 				 MOV	(SP)+,R0
   2347	000364					RETURN			; TO CALLER
	000364	000207 				 RTS	PC
   2348
   2349						.DSABL	LSB
   2350
   2351	000366				CKRKLR:
   2352	000366					ERROR$	KLR		; ..ERROR -- KL IS RUNNING
	000366	012746 	043262 			 MOV	#^RKLR,-(SP)
	000372	104400 				 TRAP	TC.ERR
   2353						;
CHECK -- GENERAL ARGUMENT CHECK	MACRO M1113  10-NOV-81 17:44  PAGE 55
.CKSYM -- FIND THE FIRST CHARACTER IN A SYMBOL 7709.21

   2355					.SBTTL	.CKSYM -- FIND THE FIRST CHARACTER IN A SYMBOL 7709.21
   2356
   2357					;+
   2358					; .CKSYM -- SUBROUTINE TO FIND THE FIRST CHARACTER IN A SYMBOL.
   2359					;
   2360					; THIS SUBROUTINE WILL FIND THE FIRST NON-BLANK CHARACTER IN AN INPUT
   2361					; SYMBOL POINTED TO BY R5. THE SYMBOL IS THEN CHECKED TO SEE IF IT IS
   2362					; ALPAHBETIC, NUMERIC, OR A LEGAL PREFIX CHARACTER.
   2363					;
   2364					; INPUT ARGUMENTS:
   2365					;
   2366					;	R5 POINTS TO THE INPUT STREAM.
   2367					;
   2368					; OUTPUT ARGUMENTS:
   2369					;
   2370					;	R5 POINTS TO THE FIRST NON-BLANK CHARACTER.
   2371					;
   2372					; ERROR CODES RETURNED:
   2373					;
   2374					;	NONE.
   2375					;-
   2376
   2377	000374				.CKSYM::
   2378	000374	112504 				MOVB	(R5)+,R4	; GET THE CHARACTER
   2379	000376	122704 	000040 			CMPB	#.SPACE,R4	; IS IT A <SPACE>?
   2380	000402	001774 				BEQ	.CKSYM		; YES -- DO NEXT CHARACTER
   2381	000404	105745 				TSTB	-(R5)		; NO -- BACK THE POINTER UP
   2382	000406					RETURN			; TO CALLER
	000406	000207 				 RTS	PC
CHECK -- GENERAL ARGUMENT CHECK	MACRO M1113  10-NOV-81 17:44  PAGE 56
.EBPCK -- SUBROUTINE TO CHECK EBUS PARITY ERROR 7512.03

   2384					.SBTTL	.EBPCK -- SUBROUTINE TO CHECK EBUS PARITY ERROR 7512.03
   2385
   2386					;+
   2387					; .EBPCK -- SUBROUTINE TO CHECK FOR EBUS PARITY ERRORS
   2388					;
   2389					; THIS SUBROUTINE WILL CAUSE AN ERROR TRAP IF THE EBUS PARITY ERROR
   2390					; FLAG IS TRUE IN THE DTE-20 STATUS WORD.
   2391					;
   2392					; INPUT ARGUMENTS:
   2393					;
   2394					;	NONE.
   2395					;
   2396					; OUTPUT ARGUMENTS:
   2397					;
   2398					;	R0 CONTAINS A COPY OF THE DTE-20 STATUS WORD
   2399					;
   2400					; ERROR CODES RETURNED:
   2401					;
   2402					;	DSF -- DTE-20 STATUS FAILURE.
   2403					;	EPE -- EBUS PARITY ERROR.
   2404					;-
   2405
   2406	000410				.EBPCK::
   2407	000410					CALL	.DTSTA		; READ DTE-20 STATUS WORD
	000410	004737 	003546'			 JSR	PC,.DTSTA
   2408	000414	032700 	000020 			BIT	#ST.EPE,R0	; EBUS PARITY ERROR?
   2410	000420	001001 				BNE	EBPEPE		; YES -- GIVE "EPE" ERROR
   2412	000422					RETURN			; NO -- JUST RETURN
	000422	000207 				 RTS	PC
   2413	000424				EBPEPE:
   2414	000424					ERROR$	EPE		; ERROR -- EBUS PARITY ERROR
	000424	012746 	020705 			 MOV	#^REPE,-(SP)
	000430	104400 				 TRAP	TC.ERR
   2415						;
   2416					.TITLE	ERROR -- PARSER ERROR HANDLER MODULE 7609.24
   2417
   2418						.IDENT	"006020"
   2419					;
   2420					;                             COPYRIGHT (C) 1975, 1979 BY
   2421					;                     DIGITAL EQUIPMENT CORPORATION, MAYNARD MASS.
   2422					;
   2423					;       THIS SOFTWARE IS FURNISHED UNDER A LICENSE AND MAY BE  USED  AND  COPIED
   2424					;       ONLY IN ACCORDANCE WITH THE TERMS OF SUCH LICENSE AND WITH THE INCLUSION
   2425					;       OF THE ABOVE COPYRIGHT NOTICE.  THIS SOFTWARE OR ANY OTHER COPIES THERE-
   2426					;       OF  MAY NOT BE PROVIDED OR OTHERWISE MADE AVAILABLE TO ANY OTHER PERSON.
   2427					;       NO TITLE TO OR OWNERSHIP OF THE SOFTWARE IS HEREBY TRANSFERRED.
   2428					;
   2429					;       THE INFORMATION CONTAINED IN THIS SOFTWARE IS SUBJECT TO CHANGE  WITHOUT
   2430					;       NOTICE  AND SHOULD NOT BE CONSTRUED AS A COMMITMENT BY DIGITAL EQUIPMENT
   2431					;       CORPORATION.
   2432					;
   2433					;       DIGITAL ASSUMES NO RESPONSIBILITY FOR THE  USE  OR  RELIABILITY  OF  ITS
   2434					;       SOFTWARE ON EQUIPMENT WHICH IS NOT SUPPILED BY DIGITAL.
   2435					;
   2436					;		MODULE: ERROR HANDLER
   2437					;
   2438					;		VERSION: 06-02
ERROR -- PARSER ERROR HANDLER M	MACRO M1113  10-NOV-81 17:44  PAGE 56-1
.EBPCK -- SUBROUTINE TO CHECK EBUS PARITY ERROR 7512.03

   2439					;
   2440					;		AUTHOR: R. BELANGER
   2441					;
   2442					;		DATE: 7609.24
   2443					;
   2444					;	THIS MODULE CONTAINS:
   2445					;
   2446					;	1) ERROR DECODER
ERROR -- PARSER ERROR HANDLER M	MACRO M1113  10-NOV-81 17:44  PAGE 57
.PARER -- ERROR DECODE AND PRINT ROUTINE 7609.24

   2448					.SBTTL	.PARER -- ERROR DECODE AND PRINT ROUTINE 7609.24
   2449
   2450					;+
   2451					; .PARER -- ERROR DECODE AND PRINT ROUTINE.
   2452					;
   2453					; THIS ROUTINE WILL DECODE THE .RAD50 ERROR CODE PASSED TO IT IN R0
   2454					; AND PRINT AN APPROPRIATE ENGLISH ERROR MESSAGE. THIS ROUTINE IS
   2455					; CALLED FROM THE TRAP HANDLER, ".PTTRP".
   2456					;
   2457					; TWO ERROR CODE TABLES ARE SCANNED, ONE FOR SPECIAL ERRORS AND ONE FOR
   2458					; NORMAL ERRORS, UNTIL A MATCH IS FOUND. IF NO MATCH IS FOUND, ".PARER"
   2459					; WILL ISSUE A "UEC" ERROR CODE.
   2460					;
   2461					; THE SPECIAL ERROR CODES REQUIRE SPECIAL HANDLING BY SEPARATE ROUTINES,
   2462					; THIER ENTRIES LOOK LIKE THIS:
   2463					;
   2464					;	!===============================!
   2465					;	!	.RAD50 ERROR CODE	!
   2466					;	!-------------------------------!
   2467					;	!	DISPATCH ADDRESS	!
   2468					;	!-------------------------------!
   2469					;	!	MESSAGE POINTER		!
   2470					;	!===============================!
   2471					;
   2472					; THE NORMAL ERRORS SIMPLY REQUIRE THAT THE ERROR MESSAGE BE PRINTED
   2473					; AND THE ENTRIES IN THIER TABLE LOOK LIKE THIS:
   2474					;
   2475					;	!===============================!
   2476					;	!	.RAD50 ERROR CODE	!
   2477					;	!-------------------------------!
   2478					;	!	MESSAGE POINTER		!
   2479					;	!===============================!
   2480					;
   2481					; INPUT ARGUMENTS:
   2482					;
   2483					;	R0 HOLDS THE .RAD50 ERROR CODE
   2484					;
   2485					; OUTPUT ARGUMENTS:
   2486					;
   2487					;	NONE.
   2488					;
   2489					; ERROR MESSAGES RETURNED:
   2490					;
   2491					;	IF THE CONSOLE DEVICE CANNOT BE ATTACHED OR DEATCHED,
   2492					;	THE PARSER EXITS.
   2493					;
   2494					;	UEC -- UNMATCHED ERROR CODE.
   2495					;-
ERROR -- PARSER ERROR HANDLER M	MACRO M1113  10-NOV-81 17:44  PAGE 58
.PARER -- ERROR DECODE AND PRINT ROUTINE 7609.24

   2497	000432				.PARER::
   2498	000432					PUSH	<R0,R1,R2>	; SAVE CALLER'S REGISTERS
	000432	010046 				 MOV	R0,-(SP)
	000434	010146 				 MOV	R1,-(SP)
	000436	010246 				 MOV	R2,-(SP)
   2499	000440	012701 	006622'			MOV	#.SPETB,R1	; ...SPECIAL ERRORS GET CHECKED FIRST
   2500	000444				10$:
   2501	000444	012102 				MOV	(R1)+,R2	; ...ERROR CODE TO R2
   2502	000446	001405 				BEQ	30$		; ...END-OF-TABLE TRY OTHER ERROR CODES
   2503	000450	020002 				CMP	R0,R2		; ...DO THEY MATCH?
   2504	000452	001402 				BEQ	20$		; ...YES -- DISPATCH TO SPECIAL HANDLER
   2505	000454	022121 				CMP	(R1)+,(R1)+	; ...NO -- GET OVER DISPATCH
   2506	000456	000772 				BR	10$		; ...AND TRY THE NEXT ONE
   2507						;
   2508	000460				20$:
   2509	000460	000131 				JMP	@(R1)+		; ...AWAY TO SPECIAL ROUTINE
   2510						;
   2511	000462				30$:
   2512	000462	012701 	005444'			MOV	#.NSETB,R1	; ...TABLE POINTER TO R1
   2513	000466				40$:
   2514	000466	012102 				MOV	(R1)+,R2	; ...ERROR CODE TO R2
   2515	000470	001521 				BEQ	PARUEC		; ...END-OF-TABLE -- GIVE UEC ERROR
   2516	000472	020002 				CMP	R0,R2		; ...DO THEY MATCH?
   2517	000474	001402 				BEQ	50$		; ...YES -- PRINT THE MESSAGE
   2518	000476	005721 				TST	(R1)+		; ...NO -- GET OVER MESSAGE POINTER
   2519	000500	000772 				BR	40$		; ...AND TRY NEXT CODE
   2520						;
   2521	000502				50$:
   2522	000502					CALL	PARERC		; ...DO COMMON OUTPUT CODE
	000502	004737 	000662'			 JSR	PC,PARERC
   2523	000506				PARERX:
   2524	000506					POP	<R2,R1,R0>	; ...RESTORE THE REGISTERS
	000506	012602 				 MOV	(SP)+,R2
	000510	012601 				 MOV	(SP)+,R1
	000512	012600 				 MOV	(SP)+,R0
   2525	000514					CALLR	.TCRLF		; END THE LINE AND RETURN
	000514	000137 	015536'			 JMP	.TCRLF
   2526						;
ERROR -- PARSER ERROR HANDLER M	MACRO M1113  10-NOV-81 17:44  PAGE 59
.PARER -- SPECIAL ERROR ROUTINES 7609.24

   2528					.SBTTL	.PARER -- SPECIAL ERROR ROUTINES 7609.24
   2529
   2530						.ENABL	LSB
   2531
   2532	000520				.SEAMB::
   2533	000520				.SENSK::
   2534	000520					CALL	PARERC		; ...DO COMMON CODE
	000520	004737 	000662'			 JSR	PC,PARERC
   2535	000524				10$:
   2536	000524	112500 				MOVB	(R5)+,R0	; ...LOAD THE OFFENDING SYMBOL
   2537	000526	132760 	000034 	001450'		BITB	#CH.END,.CHTAB(R0)
   2538	000534	001017 				BNE	30$		; ...UNTIL THE END
   2539	000536					CALL	.TYCHR		; ...OUTPUT THE CHARACTER
	000536	004737 	015504'			 JSR	PC,.TYCHR
   2540	000542	000770 				BR	10$		; ...CONTINUE
   2541						;
   2542	000544				.SEILC::
   2543	000544				.SEILS::
   2544	000544				.SEIPC::
   2545	000544					CALL	PARERC		; ...DO COMMON CODE
	000544	004737 	000662'			 JSR	PC,PARERC
   2546	000550	110400 				MOVB	R4,R0		; ...GET THE CHARACTER
   2547	000552	122700 	000040 			CMPB	#.SPACE,R0	; ...IS IT A CONTROL CHARACTER?
   2548	000556	003404 				BLE	20$		; ...NO -- JUST PRINT IT
   2549	000560					CALL	.TYUPA		; ...YES -- TYPE AN <UPARROW>
	000560	004737 	014576'			 JSR	PC,.TYUPA
   2550	000564	052700 	000100 			BIS	#100,R0		; ...MAKE IT A PRINTING CHARACTER
   2551	000570				20$:
   2552	000570					CALL	.TYCHR		; ...PRINT THE CHARACTER
	000570	004737 	015504'			 JSR	PC,.TYCHR
   2553	000574				30$:
   2554	000574	112700 	000042 			MOVB	#'",R0		; ...END QUOTE
   2555	000600					CALL	.TYCHR		; ...PRINT THAT
	000600	004737 	015504'			 JSR	PC,.TYCHR
   2556	000604	000740 				BR	PARERX		; ...AND EXIT
   2557						;
ERROR -- PARSER ERROR HANDLER M	MACRO M1113  10-NOV-81 17:44  PAGE 60
.PARER -- SPECIAL ERROR ROUTINES 7609.24

   2559	000606				.SEFRF::
   2560	000606					PUSH	.KLDFR+2	; ...SAVE THE READ CODE
	000606	013746 	000340'			 MOV	.KLDFR+2,-(SP)
   2561	000612	000405 				BR	40$		; ....TO COMMON CODE
   2562						;
   2563	000614				.SEFWF::
   2564	000614					PUSH	.KLDFW+2	; ...SAVE THE WRITE CODE
	000614	013746 	000352'			 MOV	.KLDFW+2,-(SP)
   2565	000620	000402 				BR	40$		; ....TO COMMON CODE
   2566						;
   2567	000622				.SEFXF::
   2568	000622					PUSH	.KLDFX+2	; ...SAVE THE EXECUTE CODE
	000622	013746 	000364'			 MOV	.KLDFX+2,-(SP)
   2569	000626				40$:
   2570	000626					CALL	PARERC		; ....DO COMMON STUFF
	000626	004737 	000662'			 JSR	PC,PARERC
   2571	000632					POP	R0		; ....GET THE CODE
	000632	012600 				 MOV	(SP)+,R0
   2572	000634	000300 				SWAB	R0		; ...SWAP THE BYTES
   2573	000636	042700 	177400 			BIC	#^C377,R0	; ...CLEAR JUNK
   2574	000642	006200 				ASR	R0		; ...DIVIDE BY 2
   2575	000644					CALL	.TYP3D		; ...PRINT CODE
	000644	004737 	015016'			 JSR	PC,.TYP3D
   2576	000650	012700 	000050'			MOV	#FLDMSG,R0	; ...END MESSAGE
   2577	000654					CALL	.TYMSG		; ...PRINT IT
	000654	004737 	015446'			 JSR	PC,.TYMSG
   2578	000660	000712 				BR	PARERX		; ...AND EXIT
   2579						;
   2580
   2581	000050				.PSECT	MESSAG
   2582
   2583	000050				FLDMSG:
   2584	000050	   040 	   106 	   101 		.ASCIZ	% FAILED%
	000053	   111 	   114 	   105
	000056	   104 	   000
   2585	000662				.PSECT
ERROR -- PARSER ERROR HANDLER M	MACRO M1113  10-NOV-81 17:44  PAGE 61
.PARER -- SPECIAL ERROR ROUTINES 7609.24

   2587					; THIS IS THE COMMON ERROR CODE ROUTINE
   2588
   2589	000662				PARERC:
   2590	000662	012700 	000011'			MOV	#PARMSG,R0	; ...PREAMBLE
   2591	000666					CALL	.TYMSG		; ...PRINT IT
	000666	004737 	015446'			 JSR	PC,.TYMSG
   2592	000672	012700 	000133 			MOV	#'[,R0		; ...LEFT BRACKET
   2593	000676					CALL	.TYCHR		; ...PRINT IT
	000676	004737 	015504'			 JSR	PC,.TYCHR
   2594	000702	013700 	000002'			MOV	.CCMDN,R0	; ...CURRENT COMMAND NAME
   2595	000706					CALL	.TYMSG		; ...PRINT IT
	000706	004737 	015446'			 JSR	PC,.TYMSG
   2596	000712	012700 	000135 			MOV	#'],R0		; ...RIGHT BRACKET
   2597	000716					CALL	.TYCHR		; ...PRINT IT
	000716	004737 	015504'			 JSR	PC,.TYCHR
   2598	000722					CALL	.TYSPC		; ...<SPACE>
	000722	004737 	014566'			 JSR	PC,.TYSPC
   2599	000726	011100 				MOV	(R1),R0		; ...ERROR MESSAGE
   2600	000730					CALLR	.TYMSG		; ...PRINT IT AND RETURN
	000730	000137 	015446'			 JMP	.TYMSG
   2601						;
   2602	000734				PARUEC:
   2603	000734					PUSH	R0		; ...SAVE THE ERROR CODE
	000734	010046 				 MOV	R0,-(SP)
   2604	000736	012701 	001612'			MOV	#UECMSP,R1	; ...."UEC" MESSAGE POINTER TO R1
   2605	000742					CALL	PARERC		; ....DO COMMON CODE
	000742	004737 	000662'			 JSR	PC,PARERC
   2606	000746					POP	R0		; ....RESTORE THE ERROR CODE
	000746	012600 				 MOV	(SP)+,R0
   2607	000750					CALL	.TYR50		; ...PRINT IT
	000750	004737 	015756'			 JSR	PC,.TYR50
   2608	000754	000707 				BR	30$		; ...AND EXIT
   2609						;
   2610
   2611						.DSABL	LSB
   2612
   2613	001612				.PSECT	DATA
   2614
   2615	001612				UECMSP:
   2616	001612	000060'				.WORD	UECMSG
   2617
   2618	000060				.PSECT	MESSAG
   2619
   2620	000060				UECMSG:
   2621	000060	   125 	   116 	   115 		.ASCIZ	%UNMATCHED ERROR CODE "%
	000063	   101 	   124 	   103
	000066	   110 	   105 	   104
	000071	   040 	   105 	   122
	000074	   122 	   117 	   122
	000077	   040 	   103 	   117
	000102	   104 	   105 	   040
	000105	   042 	   000
   2622
   2623	000756				.PSECT
ERROR -- PARSER ERROR HANDLER M	MACRO M1113  10-NOV-81 17:44  PAGE 62
.PARER -- SPECIAL ERROR ROUTINES 7609.24

   2625	000756				.SECES::
   2626	000756					CALL	PARERC		; ...DO COMMON CODE
	000756	004737 	000662'			 JSR	PC,PARERC
   2627	000762					CALL	.RDIPE		; ...READ THE ERROR BITS
	000762	004737 	006670'			 JSR	PC,.RDIPE
   2628	000766					PUSH	R0		; ....SAVE THEM
	000766	010046 				 MOV	R0,-(SP)
   2629	000770	001420 				BEQ	30$		; ....BAD NEWS IF NONE THERE
   2630	000772	012701 	001614'			MOV	#SPCEST,R1	; ....TABLE POINTER TO R1
   2631	000776				10$:
   2632	000776	032716 	000001 			BIT	#BIT00,(SP)	; ....IS THE BIT ON
   2633	001002	001407 				BEQ	20$		; ....NO -- GO ON
   2634	001004	011100 				MOV	(R1),R0		; ....YES -- SAY SO
   2635	001006					CALL	.TYMSG		; ....PRINT IT
	001006	004737 	015446'			 JSR	PC,.TYMSG
   2636	001012					CALL	.TYCOM		; ....PRINT A COMMA
	001012	004737 	014536'			 JSR	PC,.TYCOM
   2637	001016					CALL	.TYSPC		; ....AND A SPACE
	001016	004737 	014566'			 JSR	PC,.TYSPC
   2638	001022				20$:
   2639	001022	005721 				TST	(R1)+		; ....ADVANCE THE POINTER
   2640	001024	006216 				ASR	(SP)		; ....SHIFT THE ERROR BITS
   2641	001026	001363 				BNE	10$		; ....AND KEEP GOING
   2642	001030	000404 				BR	40$		; ....FINISHED -- EXIT
   2643						;
   2644	001032				30$:
   2645	001032	012700 	000122'			MOV	#NEBMSG,R0	; ....NO ERROR BIT ARE SET
   2646	001036					CALL	.TYMSG		; ....SAY SO
	001036	004737 	015446'			 JSR	PC,.TYMSG
   2647	001042				40$:
   2648	001042	005726 				TST	(SP)+		; ....FLUSH THE STACK
   2649	001044	000620 				BR	PARERX		; ...AND EXIT
   2650						;
   2651
   2652	001614				.PSECT	DATA
   2653
   2654	001614				SPCEST:
   2655	001614	000107'				.WORD	ERSMSG
   2656	001616	001521'				.WORD	DRMMSG
   2657	001620	001376'				.WORD	CRMMSG
   2658	001622	001020'				.WORD	FMMSG
   2659	001624	001535'				.WORD	FSSMSG
   2660
   2661	001046				.PSECT
ERROR -- PARSER ERROR HANDLER M	MACRO M1113  10-NOV-81 17:44  PAGE 63
.PARER -- SPECIAL ERROR ROUTINES 7609.24

   2663	000107				.PSECT	MESSAG
   2664
   2665	000107				ERSMSG:
   2666	000107	   105 	   122 	   122 		.ASCIZ	%ERROR STOP%
	000112	   117 	   122 	   040
	000115	   123 	   124 	   117
	000120	   120 	   000
   2667	000122				NEBMSG:
   2668	000122	   116 	   117 	   040 		.ASCIZ	%NO ERROR STOP BITS SET%
	000125	   105 	   122 	   122
	000130	   117 	   122 	   040
	000133	   123 	   124 	   117
	000136	   120 	   040 	   102
	000141	   111 	   124 	   123
	000144	   040 	   123 	   105
	000147	   124 	   000
   2669
   2670	001046				.PSECT
ERROR -- PARSER ERROR HANDLER M	MACRO M1113  10-NOV-81 17:44  PAGE 64
.PTDIE -- RECURSIVE TRAP HANDLER 7609.24

   2672					.SBTTL	.PTDIE -- RECURSIVE TRAP HANDLER 7609.24
   2673
   2674					;+
   2675					; .PTDIE -- RECURSIVE TRAP HANDLER.
   2676					;
   2677					; THIS ROUTINE HANDLES RECURSIVE TRAPS, WHICH ARE FATAL ERRORS. THE
   2678					; OTHER TRAP HANDLERS IN "PARTRP" ENABLE THIS HANDLER BY PLACING ITS
   2679					; ENTRY POINT IN THE APPROPRIATE PLACE IN THE SST VECTOR TABLE.
   2680					; ".PTDIE" WILL PRINT A MESSAGE WITH THE PC OF THE RECURSIVE TRAP AND
   2681					; EXIT TO THE SYSTEM VIA AN "IOT" TRAP. THIS ROUTINE IS ENTERED WITH
   2682					; THE TRAP PC AND PSW ON THE STACK IN THE NORMAL MANNER.
   2683					;
   2684					; ERROR CODES RETURNED:
   2685					;
   2686					;	NONE.
   2687					;-
   2688
   2689
   2690	001046				.PTDIE::
   2691	001046	005337 	000240'			DEC	.TRPIP		; ..DECREMENT THE INTERLOCK
   2692	001052	001423 				BEQ	20$		; ..KILL NOW IF RECURSIVE
   2693	001054					PUSH	R0		; ..SAVE R0
	001054	010046 				 MOV	R0,-(SP)
   2694	001056	012700 	000264'			MOV	#.SSTTB,R0	; ...TABLE POINTER TO R0
   2695	001062				10$:
   2696	001062	005020 				CLR	(R0)+		; ...CLEAR THIS ENTRY
   2697	001064	020027 	000302'			CMP	R0,#SSTTBE	; ...ARE WE DONE?
   2698	001070	003774 				BLE	10$		; ...NO -- KEEP GOING
   2699	001072					CALL	.TCRLF		; ...START THE LINE
	001072	004737 	015536'			 JSR	PC,.TCRLF
   2700	001076	012700 	000151'			MOV	#PTRTEM,R0	; ...RECURSIVE ERROR MESSAGE
   2701	001102					CALL	.TYLIN		; ...PRINT IT
	001102	004737 	015432'			 JSR	PC,.TYLIN
   2702	001106	016600 	000002 			MOV	2(SP),R0	; ...GET THE TRAP PC
   2703	001112					CALL	.TYELN		; ...TYPE THAT
	001112	004737 	014752'			 JSR	PC,.TYELN
   2704	001116					CALL	.TCRLF		; ...END THE LINE
	001116	004737 	015536'			 JSR	PC,.TCRLF
   2705	001122				20$:
   2706	001122	000004 				IOT			; ...AND GO AWAY
   2707						;
ERROR -- PARSER ERROR HANDLER M	MACRO M1113  10-NOV-81 17:44  PAGE 65
.PTTRP -- "TRAP" INSTRUCTION TRAP HANDLER 7609.24

   2709					.SBTTL	.PTTRP -- "TRAP" INSTRUCTION TRAP HANDLER 7609.24
   2710
   2711					;+
   2712					; .PTTRP -- "TRAP" INSTRUCTION TRAP HANDLER.
   2713					;
   2714					; THIS ROUTINE HANDLES TRAPS FROM THE "TRAP" INSTRUCTION, WHICH IS USED
   2715					; BY THE RSX20F COMMAND PARSER TO HANDLE INTERNAL ERRORS. THE ACTION
   2716					; TAKEN BY THIS ROUTINE IS DICTATED BY THE TRAP STATUS BYTE, WHICH IS
   2717					; THE FIRST ITEM ON THE STACK UPON ENTRY. THERE ARE FOUR STATUS CODES
   2718					; WHICH ARE RETURNED IN THE TRAP STATUS BYTE:
   2719					;
   2720					; (A) "TC.CTC" -- CONTROL-C TRAP -- SAME EFFECT AS "TC.RST", EXCEPT THAT NO
   2721					;		  ERROR MESSAGE IS TYPED. THE VALUE OF "TC.CTC" IS +2.
   2722					;
   2723					; (B) "TC.RST" -- ABORT THE CURRENT PROCESS AND ATTEMPT TO RESTORE THE
   2724					;		  STATE OF THE KL. THE "ABORT$" MACRO (Q.V.) GENERATES
   2725					;		  THIS CODE. THE PREVIOUS STATE OF THE KL MAY BE
   2726					;		  RECOVERED FROM THESE ERRORS. THE VALUE OF "TC.RST" IS +1.
   2727					;
   2728					; (C) "TC.ERR" -- SIMPLY ABORT THE CURRENT PROCESS AND RETURN TO THE MAIN
   2729					;		  THE MAIN PARSER. THE "ERROR$" MACRO (Q.V.) GENERATES
   2730					;		  THIS CODE. THESE ERRORS DO NOT USUALLY AFFECT THE STATE
   2731					;		  OF THE KL. THE VALUE OF "TC.ERR" IS 0.
   2732					;
   2733					; (D) "TC.CON" -- SIMPLY REPORT THE ERROR AND CONTINUE THE PROCESS.
   2734					;		  THIS CODE IS GENERATED BY THE "ERCON$" MACRO (Q.V.)
   2735					;		  THESE ERRORS ALLOW ERROR SPECIFIC RECOVERY TO BE
   2736					;		  ATTEMPTED. THE VALUE OF "TC.CON" IS -1.
   2737					;
   2738					; THE DECISION TO RECOVER OR NOT IS MADE BASED ON THE TRAP STATUS BYTE,
   2739					; AFTER WHICH THE ERROR CODE IS PICKED UP, DECODED AND PRINTED BY ".PARER".
   2740					;
   2741					; UPON ENTRY TO THE TRAP INSTRUCTION TRAP HANDLER, THE STACK CONTAINS
   2742					; THE FOLLOWING INFORMATION:
   2743					;
   2744					;		!=======================================!
   2745					; 6(SP)==>	!	    TRAP ERROR CODE		!
   2746					;		!---------------------------------------!
   2747					; 4(SP)==>	!      TRAP PROCESSOR STATUS WORD	!
   2748					;		!---------------------------------------!
   2749					; 2(SP)==>	!	  TRAP PROGRAM COUNTER		!
   2750					;		!---------------------------------------!
   2751					; (SP)==>	!	  TRAP STATUS BYTE * 2		!
   2752					;		!=======================================!
   2753					;
   2754					; EXECUTION MAY BE RESUMED AFTER THE TRAP BY ISSUING AN "RTI" INSTRUCTION.
   2755					;
   2756					; ERROR CODES RETURNED:
   2757					;
   2758					;	RTH -- RECURSION IN TRAP HANDLER.
   2759					;	UEC -- UNMATCHED ERROR CODE.
   2760					;-
ERROR -- PARSER ERROR HANDLER M	MACRO M1113  10-NOV-81 17:44  PAGE 66
.PTTRP -- "TRAP" INSTRUCTION TRAP HANDLER 7609.24

   2762	001124				.PTTRP::
   2763	001124	005037 	000230'			CLR	.SWPIP		; [5.1002]CLEAR SWEEP IN PROGRESS FLAG
   2764	001130	005337 	000240'			DEC	.TRPIP		; ....DECREMENT THE TRAP IN PROGRESS FLAG
   2765	001134	002471 				BLT	30$		; ....SECOND RECURSION -- KILL TASK
   2766	001136	011637 	000246'			MOV	(SP),.TRPSB	; ....SAVE THE TRAP STATUS BYTE
   2767	001142	016637 	000002 	000242'		MOV	2(SP),.TRPPC	; ....SAVE THE TRAP PC
   2768	001150	016637 	000004 	000244'		MOV	4(SP),.TRPPS	; ....SAVE THE TRAP PSW
   2769	001156	016637 	000006 	000236'		MOV	6(SP),.TRPEC	; ....SAVE THE TRAP ERROR CODE
   2770	001164					CALL	R5,.REGSV	; ....SAVE TRAP REGISTERS
	001164	004537 	010302'			 JSR	R5,.REGSV
   2771	001170					PUSH	R0		; ....SAVE R0 TOO
	001170	010046 				 MOV	R0,-(SP)
   2772	001172	105737 	000246'			TSTB	.TRPSB		; .....TEST THE TRAP STATUS BYTE
   2773	001176	003405 				BLE	10$		; .....DON'T TRY TO RECOVER THE KL
   2774	001200	005737 	000226'			TST	.SVKLF		; .....DID WE SAVE THE PREVIOUS STATE?
   2775	001204	001402 				BEQ	10$		; .....NO -- FORGET RECOVERY
   2776	001206					CALL	.RSTKL		; .....RESTORE THE KL
	001206	004737 	007204'			 JSR	PC,.RSTKL
   2777	001212				10$:
   2778	001212	013737 	000206'	000134'		MOV	.RDXSV,.IRADX	; .....RESET THE INPUT RADIX
   2779	001220	013737 	000206'	000174'		MOV	.RDXSV,.ORADX	; .....AND OUTPUT RADIX
   2780	001226	122737 	000004 	000246'		CMPB	#TC.CTC*2,.TRPSB; .....WAS THIS A CONTROL-C TRAP?
   2781	001234	001425 				BEQ	20$		; .....YES -- JUST RESTART THE PARSER
   2782	001236	013700 	000250'			MOV	.TRPTV,R0	; .....NO -- IS THIS A NORMAL TRAP??
   2783	001242	001406 				BEQ	15$		; .....YES -- GO ON
   2784	001244	010006 				MOV	R0,SP		; .....NO -- RESET THE STACK
   2785	001246	005237 	000240'			INC	.TRPIP		; .....RESET TRAP IN PROGRESS FLAG
   2786	001252	005037 	000250'			CLR	.TRPTV		; .....RESET THE TRAP TRAP VECTOR
   2787	001256					CALLR	@(SP)+		; .....AND GO AWAY TO OTHER ROUTINE
	001256	000136 				 JMP	@(SP)+
   2788						;
   2789	001260				15$:
   2790	001260					CALL	.TCRLF		; .....GIVE A FREE <CRLF>
	001260	004737 	015536'			 JSR	PC,.TCRLF
   2791	001264	013700 	000236'			MOV	.TRPEC,R0	; .....GET THE ERROR CODE IN R0
   2792	001270					CALL	.PARER		; .....DECODE AND PRINT THE ERROR
	001270	004737 	000432'			 JSR	PC,.PARER
   2793	001274	005737 	000240'			TST	.TRPIP		; .....IS THIS A RECURSIVE TRAP?
   2794	001300	001407 				BEQ	30$		; .....YES -- GIVE UP
   2795	001302	105737 	000246'			TSTB	.TRPSB		; .....TEST THE TRAP STATUS BYTE
   2796	001306	002413 				BLT	40$		; .....RECOVER THE ERROR
   2797	001310				20$:
   2798	001310	005237 	000240'			INC	.TRPIP		; .....RESET TRAP IN PROGRESS FLAG
   2799	001314	000177 	000222'			JMP	@.STRTV		; .....RESTART THE PARSER
   2800						;
   2801
   2802					;	[CONTINUED ON THE FOLLOWING PAGE]
ERROR -- PARSER ERROR HANDLER M	MACRO M1113  10-NOV-81 17:44  PAGE 67
.PTTRP -- "TRAP" INSTRUCTION TRAP HANDLER 7609.24

   2804					;	[CONTINUED FROM THE PREVIOUS PAGE]
   2805
   2806	001320				30$:				; .....HERE ON RECURSIVE TRAP
   2807	001320	012700 	000221'			MOV	#PTRTHM,R0	; .....MESSAGE POINTER
   2808	001324					CALL	.TYLIN		; .....PRINT IT
	001324	004737 	015432'			 JSR	PC,.TYLIN
   2809	001330					CALL	.TCRLF		; .....END THE LINE
	001330	004737 	015536'			 JSR	PC,.TCRLF
   2810	001334	000004 				IOT			; .....AND GO "RIBIT"
   2811						;
   2812	001336				40$:				; .....HERE TO RECOVER THE ERROR
   2813	001336	005237 	000240'			INC	.TRPIP		; .....DECREMENT THE INTERLOCK
   2814	001342					POP	R0		; .....RESTORE R0
	001342	012600 				 MOV	(SP)+,R0
   2815	001344					CALL	@(SP)+		; ....AND THE OTHER REGISTERS
	001344	004736 				 JSR	PC,@(SP)+
   2816	001346	005726 				TST	(SP)+		; ....GET OVER THE TRAP STATUS BYTE
   2817	001350	000002 				RTI			; ...TO WHEREVER WE WERE CALLED FROM
   2818						;
   2819
   2820	000151				.PSECT	MESSAG
   2821
   2822	000151				PTRTEM:
   2823	000151	   120 	   101 	   122 		.ASCIZ	%PAR -- *FATAL* RECURSIVE TRAP FROM PC: %
	000154	   040 	   055 	   055
	000157	   040 	   052 	   106
	000162	   101 	   124 	   101
	000165	   114 	   052 	   040
	000170	   122 	   105 	   103
	000173	   125 	   122 	   123
	000176	   111 	   126 	   105
	000201	   040 	   124 	   122
	000204	   101 	   120 	   040
	000207	   106 	   122 	   117
	000212	   115 	   040 	   120
	000215	   103 	   072 	   040
	000220	   000
   2824	000221				PTRTHM:
   2825	000221	   120 	   101 	   122 		.ASCIZ	%PAR -- RTH - RECURSION IN TRAP HANDLER%
	000224	   040 	   055 	   055
	000227	   040 	   122 	   124
	000232	   110 	   040 	   055
	000235	   040 	   122 	   105
	000240	   103 	   125 	   122
	000243	   123 	   111 	   117
	000246	   116 	   040 	   111
	000251	   116 	   040 	   124
	000254	   122 	   101 	   120
	000257	   040 	   110 	   101
	000262	   116 	   104 	   114
	000265	   105 	   122 	   000
   2826
   2827	001352				.PSECT
ERROR -- PARSER ERROR HANDLER M	MACRO M1113  10-NOV-81 17:44  PAGE 68
.PTOAT -- TRAP AT 4 TRAP HANDLER 7601.15

   2829					.SBTTL	.PTOAT -- TRAP AT 4 TRAP HANDLER 7601.15
   2830
   2831					;+
   2832					; .PTOAT -- TRAP AT 4 TRAP HANDLER.
   2833					;
   2834					; THIS ROUTINE HANDLES TRAP AT 4 TRAPS FOR THE RSX20F COMMAND PARSER.
   2835					; AN ERROR MESSAGE WITH THE PC OF THE TRAP AT 4 TRAP IS PRINTED ON THE
   2836					; CONSOLE AND THE CURRENT OPERATION IS ABORTED. IF THE TRAP IS RECURSIVE,
   2837					; CONTROL IS PASSED TO ".PTDIE", AS THE TASK IS HOPELESSLY CONFUSED.
   2838					;
   2839					; UPON ENTRY TO THE TRAP AT 4 TRAP HANDLER, THE STACK CONTAINS
   2840					; THE FOLLOWING INFORMATION:
   2841					;
   2842					;		!=======================================!
   2843					; 2(SP)==>	!      TRAP PROCESSOR STATUS WORD	!
   2844					;		!---------------------------------------!
   2845					; (SP)==>	!	  TRAP PROGRAM COUNTER		!
   2846					;		!=======================================!
   2847					;
   2848					; ERROR CODES RETURNED:
   2849					;
   2850					;	NONE.
   2851					;-
   2852
   2853	001352				.PTOAT::
   2854	001352					POP	.TRPPC		; ..SAVE THE TRAP PC
	001352	012637 	000242'			 MOV	(SP)+,.TRPPC
   2855	001356					POP	.TRPPS		; .AND THE TRAP PSW
	001356	012637 	000244'			 MOV	(SP)+,.TRPPS
   2856	001362					CALL	R5,.REGSV	; SAVE THE REGISTERS FROM TRAP
	001362	004537 	010302'			 JSR	R5,.REGSV
   2857	001366					PUSH	R0		; AND R0
	001366	010046 				 MOV	R0,-(SP)
   2858	001370	012737 	001046'	000264'		MOV	#.PTDIE,.SSTTB	; .SET UP TO DIE ON RECURSION
   2859	001376					CALL	.TCRLF		; .GIVE A FREE <CRLF>
	001376	004737 	015536'			 JSR	PC,.TCRLF
   2860	001402	012700 	000270'			MOV	#PTOATM,R0	; .GET THE MESSAGE POINTER
   2861	001406					CALL	.TYMSG		; .TYPE IT
	001406	004737 	015446'			 JSR	PC,.TYMSG
   2862	001412	013700 	000102'			MOV	.EDELA,R0	; .ADDRESS TO R0
   2863	001416					CALL	.TYELN		; .TYPE THAT
	001416	004737 	014752'			 JSR	PC,.TYELN
   2864	001422					CALL	.TCRLF		; .AND A CRLF
	001422	004737 	015536'			 JSR	PC,.TCRLF
   2866	001426	005737 	000064'			TST	.DBGSW		; .IS THE DEBUG SWITCH SET?
   2867	001432	001403 				BEQ	10$		; .NO -- JUST RESTART
   2868	001434					POP	R0		; .RESTORE R0
	001434	012600 				 MOV	(SP)+,R0
   2869	001436					CALL	@(SP)+		; .AND THE REGISTERS
	001436	004736 				 JSR	PC,@(SP)+
   2870	001440	000000 				HALT			; SO WE CAN LOOK
   2871	001442				10$:
   2873	001442	005037 	000264'			CLR	.SSTTB		; RESET THE TRAP VECTOR
   2874	001446	000177 	000222'			JMP	@.STRTV		; .AND START OVER
   2875						;
   2876
   2877	000270				.PSECT	MESSAG
ERROR -- PARSER ERROR HANDLER M	MACRO M1113  10-NOV-81 17:44  PAGE 68-1
.PTOAT -- TRAP AT 4 TRAP HANDLER 7601.15

   2878
   2879	000270				PTOATM:
   2880	000270	   120 	   101 	   122 		.ASCIZ	%PAR -- ILLEGAL MEMORY REFERENCE TO: %
	000273	   040 	   055 	   055
	000276	   040 	   111 	   114
	000301	   114 	   105 	   107
	000304	   101 	   114 	   040
	000307	   115 	   105 	   115
	000312	   117 	   122 	   131
	000315	   040 	   122 	   105
	000320	   106 	   105 	   122
	000323	   105 	   116 	   103
	000326	   105 	   040 	   124
	000331	   117 	   072 	   040
	000334	   000
   2881
   2882	001452				.PSECT
   2883					.TITLE	FILIO -- FILE INTERFACE ROUTINES
   2884
   2885						.IDENT	"006150"
   2886
   2887					;                             COPYRIGHT (C) 1975, 1978, 1979 BY
   2888					;                     DIGITAL EQUIPMENT CORPORATION, MAYNARD MASS.
   2889					;
   2890					;       THIS SOFTWARE IS FURNISHED UNDER A LICENSE AND MAY BE  USED  AND  COPIED
   2891					;       ONLY IN ACCORDANCE WITH THE TERMS OF SUCH LICENSE AND WITH THE INCLUSION
   2892					;       OF THE ABOVE COPYRIGHT NOTICE.  THIS SOFTWARE OR ANY OTHER COPIES THERE-
   2893					;       OF  MAY NOT BE PROVIDED OR OTHERWISE MADE AVAILABLE TO ANY OTHER PERSON.
   2894					;       NO TITLE TO OR OWNERSHIP OF THE SOFTWARE IS HEREBY TRANSFERRED.
   2895					;
   2896					;       THE INFORMATION CONTAINED IN THIS SOFTWARE IS SUBJECT TO CHANGE  WITHOUT
   2897					;       NOTICE  AND SHOULD NOT BE CONSTRUED AS A COMMITMENT BY DIGITAL EQUIPMENT
   2898					;       CORPORATION.
   2899					;
   2900					;       DIGITAL ASSUMES NO RESPONSIBILITY FOR THE  USE  OR  RELIABILITY  OF  ITS
   2901					;       SOFTWARE ON EQUIPMENT WHICH IS NOT SUPPILED BY DIGITAL.
   2902					;
   2903					;		MODULE: PARSER FILE INTERFACE ROUTINES
   2904					;
   2905					;		VERSION: 06-15
   2906					;
   2907					;		AUTHOR: K. LEFEBVRE
   2908					;
   2909					;		DATE: 29-AUG-79
   2910					;
   2911					;	THIS MODULE CONTAINS:
   2912					;
   2913					;	1) FILE ACCESSING ROUTINES
   2914					;	2) FILE READ ROUTINES
   2915					;	3) FILE WRITE ROUTINES
   2916					;
   2917					;
   2918					;		THESE ROUTINES WERE ADDED FOR TCO 5.1000
   2919
   2920						.MCALL	DIR$,ALUN$,QIOW$,QIOW$S
FILIO -- FILE INTERFACE ROUTINE	MACRO M1113  10-NOV-81 17:44  PAGE 69
FILE INTERFACE DATA

   2922					.SBTTL	FILE INTERFACE DATA
   2923
   2924	001626				.PSECT	DATA
   2925
   2927
   2928	001626				.INDFG::			; INDIRECT COMMAND FILE FLAG
   2929	001626	000000 				.WORD	0
   2930
   2932	001630				.FISTS::			; FILE I/O STATUS BLOCK
   2933	001630	000000 	000000 			.WORD	0,0
   2934
   2935		001000 			.BUFSZ==1000			; BUFFER SIZE
   2936
   2938
   2939	001634				.INFN::				; INDIRECT COMMAND FILE NAME
   2940	001634	000000 	000000 	000000 		.WORD	0,0,0			; FILE NAME
   2941	001642	012314 				.RAD50	/CMD/			; EXTENSION
   2942	001644	000000 				.WORD	0			; VERSION
   2943	001646	   005 	   005 			.BYTE	5,5			; OWNER
   2944	001650	054523 				.WORD	"SY			; DEVICE
   2945	001652	000000 				.WORD	0			; UNIT
   2946
   2947	001654				.INVBN::			; CURRENT VIRTUAL BLOCK NO.
   2948	001654	000000 	000000 			.WORD	0,0
   2949	001660				.INBBC::			; INPUT BUFFER BYTE COUNT
   2950	001660	000000 				.WORD	0
   2951	001662				.INPOS::			; INPUT BUFFER CURRENT POSITION
   2952	001662	000000 				.WORD	0
   2953	001664				.INBUF::			; INPUT BUFFER
   2954	001664					.BLKW	.BUFSZ/2
   2955
   2956	002664				.INFNB::			; INPUT FILE NAME BLOCK
   2957	002664	000000 	000000 	000000 		.WORD	0,0,0			; N.FID
   2958	002672	140123 	140123 	000000 		.RAD50	/005005   /		; N.FNAM
   2959	002700	015172 				.RAD50	/DIR/			; N.FTYP
   2960	002702	000000 				.WORD	0			; N.FVER
   2961	002704	000000 				.WORD	0			; N.STAT
   2962	002706	000000 				.WORD	0			; N.NEXT
   2963	002710	177777 	177777 			.WORD	-1,-1			; DIRECTORY FID
   2964	002714	   005 	   005 			.BYTE	5,5			; OWNER
   2965
   2966	002716				.INATT::			; FILE ATTRIBUTES
   2967	002716	   000 				.BYTE	0			; RECORD TYPE
   2968	002717	   000 				.BYTE	0			; RECORD ATTRIBUTES
   2969	002720	000000 				.WORD	0			; LARGEST RECORD SIZE
   2970	002722	000000 	000000 			.WORD	0,0			; HIGHEST ALLOCATED BLOCK
   2971	002726	000000 	000000 			.WORD	0,0			; HIGHEST USED BLOCK
   2972	002732	000000 				.WORD	0			; FIRST FREE BYTE
   2973
   2975
   2976	002734				.OTFN::				; LOG FILE NAME
   2977	002734	062072 	073632 	000000 		.RAD50	/PARSER   /		; FILE NAME
   2978	002742	046537 				.RAD50	/LOG/			; EXTENSION
   2979	002744	000000 				.WORD	0			; VERSION
   2980	002746	   005 	   005 			.BYTE	5,5			; OWNER
   2981	002750	054523 				.WORD	"SY			; DEVICE
   2982	002752	000000 				.WORD	0			; UNIT
FILIO -- FILE INTERFACE ROUTINE	MACRO M1113  10-NOV-81 17:44  PAGE 69-1
FILE INTERFACE DATA

   2983
   2984	002754				.OTVBN::			; CURRENT VIRTUAL BLOCK NO.
   2985	002754	000000 	000000 			.WORD	0,0
   2986	002760				.OTBBC::			; OUTPUT BUFFER BYTE COUNT
   2987	002760	000000 				.WORD	0
   2988	002762				.OTPOS::			; OUTPUT BUFFER CURRENT POSITION
   2989	002762	000000 				.WORD	0
   2990	002764				.OTBUF::			; OUTPUT BUFFER
   2991	002764					.BLKW	.BUFSZ/2
   2992
   2993	003764				.OTFNB::			; OUTPUT FILE NAME BLOCK
   2994	003764	000000 	000000 	000000 		.WORD	0,0,0			; N.FID
   2995	003772	140123 	140123 	000000 		.RAD50	/005005   /		; N.FNAM
   2996	004000	015172 				.RAD50	/DIR/			; N.FTYP
   2997	004002	000000 				.WORD	0			; N.FVER
   2998	004004	000000 				.WORD	0			; N.STAT
   2999	004006	000000 				.WORD	0			; N.NEXT
   3000	004010	177777 	177777 			.WORD	-1,-1			; DIRECTORY FID
   3001	004014	   005 	   005 			.BYTE	5,5			; OWNER
   3002
   3003	004016				.OTATT::			; FILE ATTRIBUTES
   3004	004016	   000 				.BYTE	0			; RECORD TYPE
   3005	004017	   000 				.BYTE	0			; RECORD ATTRIBUTES
   3006	004020	000000 				.WORD	0			; LARGEST RECORD SIZE
   3007	004022	000000 	000000 			.WORD	0,0			; HIGHEST ALLOCATED BLOCK
   3008	004026	000000 	000000 			.WORD	0,0			; HIGHEST USED BLOCK
   3009	004032	000000 				.WORD	0			; FIRST FREE BYTE
   3010
   3011	004034				.RECNT::			; CURRENT RECORD SIZE
   3012	004034	000000 				.WORD	0
   3013	004036				.RECPT::			; CURRENT RECORD POSITION POINTER
   3014	004036	004040'				.WORD	.RECRD
   3015	004040				.RECRD::
   3016	004040					.BLKB	80.		; CURRENT RECORD
   3017
   3018	001452				.PSECT
FILIO -- FILE INTERFACE ROUTINE	MACRO M1113  10-NOV-81 17:44  PAGE 70
.FNDIR -- ROUTINE TO FIND DIRECTORY FILE ID

   3020					.SBTTL	.FNDIR -- ROUTINE TO FIND DIRECTORY FILE ID
   3021
   3022					;+
   3023					;
   3024					; .FNDIR -- ROUTINE TO FIND THE [5,5] DIRECTORY FILE ID
   3025					;
   3026					; THIS ROUTINE WILL FIND THE FILE ID FOR THE [5,5] DIRECTORY IF
   3027					; IT HAS NOT ALREADY BEEN FOUND. IT WILL ALSO ASSIGN A LUN TO THE
   3028					; SYSTEM DEVICE.
   3029					;
   3030					; INPUT ARGUMENTS:
   3031					;
   3032					;	R1=FILE NAME BLOCK
   3033					;	R2=LUN
   3034					;
   3035					; OUTPUT ARGUMENTS:
   3036					;
   3037					;	NONE
   3038					;
   3039					; ERROR CODES RETURNED:
   3040					;
   3041					;	CAL -- CAN'T ASSIGN LUN
   3042					;	DNF -- DIRECTORY FILE NOT FOUND
   3043					;-
   3044
   3045	001452				.FNDIR::
   3046	001452	026127 	000024 	177777 		CMP	24(R1),#-1	; DIRECTORY FID ALREADY FOUND?
   3047	001460	001032 				BNE	10$		; YES -- EXIT
   3048	001462	010237 	000002'			MOV	R2,FNDALU	; NO -- SET UP LUN
   3049	001466					DIR$	#FNDALN		; ASSIGN LUN
	001466	012746 	000000'			MOV	#FNDALN,-(SP)
	001472	104375 				EMT	375
   3050	001474	103425 				BCS	FNDCAL		; ERROR IF CC-C IS SET
   3051	001476	010237 	000014'			MOV	R2,FNDLUN	; SET LUN
   3052	001502	010137 	000036'			MOV	R1,FNDFNB	; SET FNB
   3053	001506					DIR$	#FNDFNA		; GET FID
	001506	012746 	000010'			MOV	#FNDFNA,-(SP)
	001512	104375 				EMT	375
   3054	001514	103420 				BCS	FNDDNF		; ERROR IF CC-C IS SET
   3055	001516	105737 	001630'			TSTB	.FISTS		; DID WE REALLY SUCCEED?
   3056	001522	002415 				BLT	FNDDNF		; NO -- ERROR
   3057	001524	016161 	000000 	000024 		MOV	0(R1),24(R1)	; SAVE DIRECTORY FID
   3058	001532	016161 	000002 	000026 		MOV	2(R1),26(R1)	; SAVE DIRECTORY FID
   3059	001540	016161 	000004 	000030 		MOV	4(R1),30(R1)	; SAVE DIRECTORY FID
   3060	001546				10$:	RETURN			; DONE
	001546	000207 				 RTS	PC
   3061						;
   3062	001550				FNDCAL:
   3063	001550					ERROR$	CAL		; ERROR -- CAN'T ASSIGN LUN
	001550	012746 	011364 			 MOV	#^RCAL,-(SP)
	001554	104400 				 TRAP	TC.ERR
   3064	001556				FNDDNF:
   3065	001556					ERROR$	DNF		; ERROR -- DIRECTORY FILE NOT FOUND
	001556	012746 	015466 			 MOV	#^RDNF,-(SP)
	001562	104400 				 TRAP	TC.ERR
   3066						;
   3067
FILIO -- FILE INTERFACE ROUTINE	MACRO M1113  10-NOV-81 17:44  PAGE 70-1
.FNDIR -- ROUTINE TO FIND DIRECTORY FILE ID

   3068	000000				.PSECT	DPBS
   3069
   3070	000000				FNDALN:				; ASSIGN LUN DIRECTIVE
   3071	000000					ALUN$	0,SY,0
	000000	   007 	   004 			.BYTE	7,4
	000002	000000 				.WORD	0
	000004	   123 				.ASCII	/S/
	000005	   131 				.ASCII	/Y/
	000006	000000 				.WORD	0
   3072
   3073		000002'			FNDALU=FNDALN+A.LULU
   3074
   3075	000010				FNDFNA:				; FIND FID DIRECTIVE
   3076	000010					QIOW$	IO.FNA,,E.FFIL,,.FISTS,,<,,,,,0>
	000010	   003 	   014 			.BYTE	3,$$$ARG
	000012	000000G				.WORD	IO.FNA
	000014	000000 				.WORD
	000016	   006 	   000 			.BYTE	E.FFIL,
	000020	001630'				.WORD	.FISTS
	000022	000000 				.WORD
	000024	000000 				.WORD
	000026	000000 				.WORD
	000030	000000 				.WORD
	000032	000000 				.WORD
	000034	000000 				.WORD
	000036	000000 				.WORD	0
   3077
   3078		000014'			FNDLUN=FNDFNA+Q.IOLU
   3079		000036'			FNDFNB=FNDFNA+Q.IOPL+12
   3080
   3081	001564				.PSECT
FILIO -- FILE INTERFACE ROUTINE	MACRO M1113  10-NOV-81 17:44  PAGE 71
.LOKUP -- ROUTINE TO LOOK UP A FILE TO GET ITS FID

   3083					.SBTTL	.LOKUP -- ROUTINE TO LOOK UP A FILE TO GET ITS FID
   3084
   3085					;+
   3086					; .LOKUP -- ROUTINE TO LOOK UP A FILE TO GET ITS FILE ID
   3087					;
   3088					; THIS ROUTINE WILL LOOK UP A FILE TO GET ITS FILE ID SO THAT ALL
   3089					; FUTURE OPERATIONS CAN BE DONE BY FILE ID. IF THE FILE IS NOT
   3090					; FOUND THEN THE CC-C BIT IS SET AND THE ROUTINE RETURNS.
   3091					;
   3092					; INPUT ARGUMENTS:
   3093					;
   3094					;	R0=FILE NAME
   3095					;	R1=FILE NAME BLOCK
   3096					;	R2=LUN
   3097					;
   3098					; OUTPUT ARGUMENTS:
   3099					;
   3100					;	CC-C IS SET IF FILE NOT FOUND
   3101					;
   3102					; ERROR CODES RETURNED:
   3103					;
   3104					;	CAL -- CAN'T ASSIGN LUN
   3105					;	DNF -- DIRECTORY FILE NOT FOUND
   3106					;	FLF -- FILE LOOKUP FAILURE
   3107					;-
   3108
   3109						.ENABL	LSB
   3110
   3111	001564				.REMOV::
   3112	001564	012737 	000000G	000042'		MOV	#IO.RNA,LOKIOF	; REMOVE FROM DIRECTORY
   3113	001572	000403 				BR	3$		; GO ON
   3114	001574				.LOKUP::
   3115	001574	012737 	000000G	000042'		MOV	#IO.FNA,LOKIOF	; FIND DIRECTORY
   3116	001602				3$:	CALL	.FNDIR		; FIND THE DIRECTORY FID
	001602	004737 	001452'			 JSR	PC,.FNDIR
   3117	001606					CALL	.SETFN		; SET THE FILE NAME IN THE FNB
	001606	004737 	002166'			 JSR	PC,.SETFN
   3118	001612	010237 	000044'			MOV	R2,LOKLUN	; SET LUN
   3119	001616	010137 	000066'			MOV	R1,LOKFNB	; SET FNB
   3120	001622					DIR$	#LOKFNA		; GET FID
	001622	012746 	000040'			MOV	#LOKFNA,-(SP)
	001626	104375 				EMT	375
   3121	001630	103412 				BCS	LOKFLF		; ERROR IF CC-C IS SET
   3122	001632	105737 	001630'			TSTB	.FISTS		; DID WE REALLY SUCCEED?
   3123	001636	002401 				BLT	10$		; NO -- SEE WHY
   3124	001640				5$:	RETURN			; YES -- RETURN
	001640	000207 				 RTS	PC
   3125	001642	122737 	000000G	001630'	10$:	CMPB	#IE.NSF,.FISTS	; NO SUCH FILE?
   3126	001650	001002 				BNE	LOKFLF		; NO -- ERROR
   3127	001652	000261 				SEC			; YES -- SET CC-C
   3128	001654					RETURN			; DONE
	001654	000207 				 RTS	PC
   3129
   3130						.DSABL	LSB
   3131						;
   3132	001656				LOKFLF:
   3133	001656					ERROR$	FLF		; ERROR -- FILE LOOKUP FAILURE
FILIO -- FILE INTERFACE ROUTINE	MACRO M1113  10-NOV-81 17:44  PAGE 71-1
.LOKUP -- ROUTINE TO LOOK UP A FILE TO GET ITS FID

	001656	012746 	023546 			 MOV	#^RFLF,-(SP)
	001662	104400 				 TRAP	TC.ERR
   3134						;
   3135
   3136	000040				.PSECT	DPBS
   3137
   3138	000040				LOKFNA:				; GET FID DIRECTIVE
   3139	000040					QIOW$	0,,E.FFIL,,.FISTS,,<,,,,,0>
	000040	   003 	   014 			.BYTE	3,$$$ARG
	000042	000000 				.WORD	0
	000044	000000 				.WORD
	000046	   006 	   000 			.BYTE	E.FFIL,
	000050	001630'				.WORD	.FISTS
	000052	000000 				.WORD
	000054	000000 				.WORD
	000056	000000 				.WORD
	000060	000000 				.WORD
	000062	000000 				.WORD
	000064	000000 				.WORD
	000066	000000 				.WORD	0
   3140
   3141		000042'			LOKIOF=LOKFNA+Q.IOFN
   3142		000044'			LOKLUN=LOKFNA+Q.IOLU
   3143		000066'			LOKFNB=LOKFNA+Q.IOPL+12
   3144
   3145	001664				.PSECT
FILIO -- FILE INTERFACE ROUTINE	MACRO M1113  10-NOV-81 17:44  PAGE 72
.ENTER -- ROUTINE TO ENTER A FILE

   3147					.SBTTL	.ENTER -- ROUTINE TO ENTER A FILE
   3148
   3149					;+
   3150					; .ENTER -- ROUTINE TO ENTER A FILE INTO A DIRECTORY
   3151					;
   3152					; THIS ROUTINE WILL CREATE A FILE OF A GIVEN NAME AND THEN ENTER IT
   3153					; INTO A DIRECTORY.
   3154					;
   3155					; INPUT ARGUMENTS:
   3156					;
   3157					;	NONE
   3158					;
   3159					; OUTPUT ARGUMENTS:
   3160					;
   3161					;	NONE
   3162					;
   3163					; ERROR CODES RETURNED:
   3164					;
   3165					;	FEN -- FILE ENTER FAILURE
   3166					;-
   3167
   3168	001664				.ENTER::
   3169	001664					DIR$	#ENTCRE		; CREATE THE FILE
	001664	012746 	000070'			MOV	#ENTCRE,-(SP)
	001670	104375 				EMT	375
   3170	001672	103416 				BCS	ENTFEN		; ERROR IF CC-C IS SET
   3171	001674	105737 	001630'			TSTB	.FISTS		; DID WE REALLY SUCCEED?
   3172	001700	002413 				BLT	ENTFEN		; NO -- ERROR
   3173	001702					DIR$	#ENTENA		; YES -- ENTER THE FILE IN A DIRECTORY
	001702	012746 	000114'			MOV	#ENTENA,-(SP)
	001706	104375 				EMT	375
   3174	001710	103404 				BCS	10$		; ERROR IF CC-C IS SET
   3175	001712	105737 	001630'			TSTB	.FISTS		; DID WE REALLY SUCCEED
   3176	001716	002401 				BLT	10$		; NO -- ERROR
   3177	001720					RETURN			; RETURN
	001720	000207 				 RTS	PC
   3178	001722				10$:	DIR$	#ENTDEL		; DELETE NEW FILE
	001722	012746 	000144'			MOV	#ENTDEL,-(SP)
	001726	104375 				EMT	375
   3179						;
   3180	001730				ENTFEN:
   3181	001730					ERROR$	FEN		; ERROR -- FILE ENTER FAILURE
	001730	012746 	023126 			 MOV	#^RFEN,-(SP)
	001734	104400 				 TRAP	TC.ERR
   3182						;
   3183
   3184	000070				.PSECT	DPBS
   3185
   3186	000070				ENTCRE:				; CREATE FILE DIRECTIVE
   3187	000070					QIOW$	IO.CRE,LOGLUN,E.FFIL,,.FISTS,,<.OTFNB,,BIT15,1>
	000070	   003 	   012 			.BYTE	3,$$$ARG
	000072	000000G				.WORD	IO.CRE
	000074	000004 				.WORD	LOGLUN
	000076	   006 	   000 			.BYTE	E.FFIL,
	000100	001630'				.WORD	.FISTS
	000102	000000 				.WORD
	000104	003764'				.WORD	.OTFNB
FILIO -- FILE INTERFACE ROUTINE	MACRO M1113  10-NOV-81 17:44  PAGE 72-1
.ENTER -- ROUTINE TO ENTER A FILE

	000106	000000 				.WORD
	000110	100000 				.WORD	BIT15
	000112	000001 				.WORD	1
   3188
   3189	000114				ENTENA:				; ENTER FILE DIRECTIVE
   3190	000114					QIOW$	IO.ENA,LOGLUN,E.FFIL,,.FISTS,,<,,,,,.OTFNB>
	000114	   003 	   014 			.BYTE	3,$$$ARG
	000116	000000G				.WORD	IO.ENA
	000120	000004 				.WORD	LOGLUN
	000122	   006 	   000 			.BYTE	E.FFIL,
	000124	001630'				.WORD	.FISTS
	000126	000000 				.WORD
	000130	000000 				.WORD
	000132	000000 				.WORD
	000134	000000 				.WORD
	000136	000000 				.WORD
	000140	000000 				.WORD
	000142	003764'				.WORD	.OTFNB
   3191
   3192	000144				ENTDEL:				; DELETE FILE DIRECTIVE
   3193	000144					QIOW$	IO.DEL,LOGLUN,E.FFIL
	000144	   003 	   006 			.BYTE	3,$$$ARG
	000146	000000G				.WORD	IO.DEL
	000150	000004 				.WORD	LOGLUN
	000152	   006 	   000 			.BYTE	E.FFIL,
	000154	000000 				.WORD
	000156	000000 				.WORD
   3194
   3195	001736				.PSECT
FILIO -- FILE INTERFACE ROUTINE	MACRO M1113  10-NOV-81 17:44  PAGE 73
.OPEN -- ROUTINE TO OPEN A FILE

   3197					.SBTTL	.OPEN -- ROUTINE TO OPEN A FILE
   3198
   3199					;+
   3200					; .OPEN -- ROUTINE TO OPEN A FILE WITH SOME ACCESS FUNCTION
   3201					;
   3202					; THIS ROUTINE WILL OPEN A FILE WITH SOME SPECIFIED ACCESS RIGHTS.
   3203					; IT WILL ALSO READ THE FILE ATTRIBUTES.
   3204					;
   3205					; INPUT ARGUMENTS:
   3206					;
   3207					;	R1=FILE NAME BLOCK (FIRST 2 WORDS ARE FILE ID)
   3208					;	R2=LUN
   3209					;	R4=ACCESS FUNCTION
   3210					;
   3211					; OUTPUT ARGUMENTS:
   3212					;
   3213					;	NONE
   3214					;
   3215					; ERROR CODES RETURNED:
   3216					;
   3217					;	FOF -- FILE OPEN FAILURE
   3218					;-
   3219
   3220	001736				.OPEN::
   3221	001736	010437 	000162'			MOV	R4,OPEFUN	; SET FUNCTION
   3222	001742	010237 	000164'			MOV	R2,OPELUN	; SET LUN
   3223	001746	010137 	000174'			MOV	R1,OPEFID	; SET FID
   3224	001752	010137 	000210'			MOV	R1,OPEATT	; SET FILE ATTRIBUTES
   3225	001756	062737 	000032 	000210'		ADD	#32,OPEATT	; POINT TO CORRECT ADDR
   3226	001764					DIR$	#OPEACC		; OPEN THE FILE WITH SOME ACCESS
	001764	012746 	000160'			MOV	#OPEACC,-(SP)
	001770	104375 				EMT	375
   3227	001772	103401 				BCS	OPEFOF		; ERROR IF CC-C IS SET
   3228	001774					RETURN
	001774	000207 				 RTS	PC
   3229						;
   3230	001776				OPEFOF:
   3231	001776					ERROR$	FOF		; ERROR -- FILE OPEN FAILURE
	001776	012746 	023736 			 MOV	#^RFOF,-(SP)
	002002	104400 				 TRAP	TC.ERR
   3232						;
   3233
   3234	000160				.PSECT	DPBS
   3235
   3236	000160				OPEACC:				; OPEN FILE DIRECTIVE
   3237	000160					QIOW$	0,0,E.FFIL,,.FISTS,,<0,OPERAT,,,BIT15>
	000160	   003 	   013 			.BYTE	3,$$$ARG
	000162	000000 				.WORD	0
	000164	000000 				.WORD	0
	000166	   006 	   000 			.BYTE	E.FFIL,
	000170	001630'				.WORD	.FISTS
	000172	000000 				.WORD
	000174	000000 				.WORD	0
	000176	000206'				.WORD	OPERAT
	000200	000000 				.WORD
	000202	000000 				.WORD
	000204	100000 				.WORD	BIT15
FILIO -- FILE INTERFACE ROUTINE	MACRO M1113  10-NOV-81 17:44  PAGE 73-1
.OPEN -- ROUTINE TO OPEN A FILE

   3238
   3239		000162'			OPEFUN=OPEACC+Q.IOFN
   3240		000164'			OPELUN=OPEACC+Q.IOLU
   3241		000174'			OPEFID=OPEACC+Q.IOPL
   3242
   3243	000206				OPERAT:
   3244	000206	   374 	   016 			.BYTE	-4,16
   3245	000210	000000 				.WORD	0
   3246	000212	   000 	   000 			.BYTE	0,0
   3247
   3248		000210'			OPEATT=OPERAT+2
   3249
   3250	002004				.PSECT
FILIO -- FILE INTERFACE ROUTINE	MACRO M1113  10-NOV-81 17:44  PAGE 74
.EXTND -- ROUTINE TO EXTEND A FILE

   3252					.SBTTL	.EXTND -- ROUTINE TO EXTEND A FILE
   3253
   3254					;+
   3255					; .EXTND -- ROUTINE TO EXTEND A FILE BY ONE BLOCK
   3256					;
   3257					; THIS ROUTINE WILL EXTEND A CURRENTLY OPEN FILE WITH EXTEND ACCESS
   3258					; BY ONE BLOCK.
   3259					;
   3260					; INPUT ARGUMENTS:
   3261					;
   3262					;	NONE
   3263					;
   3264					; OUTPUT ARGUMENTS:
   3265					;
   3266					;	NONE
   3267					;
   3268					; ERROR CODES RETURNED:
   3269					;
   3270					;	FEF -- FILE EXTEND FAILURE
   3271					;-
   3272
   3273	002004				.EXTND::
   3274	002004					DIR$	#EXTEXT		; EXTEND THE FILE
	002004	012746 	000214'			MOV	#EXTEXT,-(SP)
	002010	104375 				EMT	375
   3275	002012	103411 				BCS	EXTFEF		; ERROR IF CC-C IS SET
   3276	002014	105737 	001630'			TSTB	.FISTS		; DID WE REALLY SUCCEED?
   3277	002020	002406 				BLT	EXTFEF		; NO -- ERROR
   3278	002022	062737 	000001 	004024'		ADD	#1,.OTATT+6	; INCREASE BLOCKS ALLOCATED
   3279	002030	005537 	004022'			ADC	.OTATT+4	; PROPAGATE CARRY
   3280	002034					RETURN			; DONE
	002034	000207 				 RTS	PC
   3281						;
   3282	002036				EXTFEF:
   3283	002036	013737 	002762'	004032'		MOV	.OTPOS,.OTATT+14	; SET NEXT FREE BYTE
   3284	002044	162737 	002764'	004032'		SUB	#.OTBUF,.OTATT+14	; MAKE RELATIVE
   3285	002052	012701 	004016'			MOV	#.OTATT,R1		; SET ATTRIBUTE ADDR
   3286	002056	012702 	000004 			MOV	#LOGLUN,R2		; SET LUN
   3288	002062	105037 	000154'			CLRB	.OUTLG			; INDICATE FILE CLOSED
   3290	002066					CALL	.CLOSE			; CLOSE FILE
	002066	004737 	002114'			 JSR	PC,.CLOSE
   3291	002072					ERROR$	FEF		; ERROR -- FILE EXTEND FAILURE
	002072	012746 	023116 			 MOV	#^RFEF,-(SP)
	002076	104400 				 TRAP	TC.ERR
   3292						;
   3293
   3294	000214				.PSECT	DPBS
   3295
   3296	000214				EXTEXT:				; FILE EXTEND DIRECTIVE
   3297	000214					QIOW$	IO.EXT,LOGLUN,E.FFIL,,.FISTS,,<,,BIT15,1>
	000214	   003 	   012 			.BYTE	3,$$$ARG
	000216	000000G				.WORD	IO.EXT
	000220	000004 				.WORD	LOGLUN
	000222	   006 	   000 			.BYTE	E.FFIL,
	000224	001630'				.WORD	.FISTS
	000226	000000 				.WORD
	000230	000000 				.WORD
FILIO -- FILE INTERFACE ROUTINE	MACRO M1113  10-NOV-81 17:44  PAGE 74-1
.EXTND -- ROUTINE TO EXTEND A FILE

	000232	000000 				.WORD
	000234	100000 				.WORD	BIT15
	000236	000001 				.WORD	1
   3298
   3299	002100				.PSECT
FILIO -- FILE INTERFACE ROUTINE	MACRO M1113  10-NOV-81 17:44  PAGE 75
.CLOSE -- ROUTINE TO CLOSE A FILE

   3301					.SBTTL	.CLOSE -- ROUTINE TO CLOSE A FILE
   3302
   3303					;+
   3304					; .CLOSE -- ROUTINE TO CLOSE A SPECIFIED FILE
   3305					;
   3306					; THIS ROUTINE WILL CLOSE AND DEACCESS A SPECIFIED FILE.
   3307					; IT WILL ALSO WRITE OUT THE CURRENT ATTRIBUTES.
   3308					;
   3309					; INPUT ARGUMENTS:
   3310					;
   3311					;	R1=ATTRIBUTE BLOCK
   3312					;	R2=LUN
   3313					;
   3314					; OUTPUT ARGUMENTS:
   3315					;
   3316					;	NONE
   3317					;
   3318					; ERROR CODES RETURNED:
   3319					;
   3320					;	FCF -- FILE CLOSE FAILURE
   3321					;-
   3322
   3323						.ENABL	LSB
   3324
   3325	002100				.DELET::
   3326	002100	012737 	000000G	000242'		MOV	#IO.DEL,CLOIOF	; I/O FUNCTION FOR DELETE
   3327	002106	005037 	000256'			CLR	CLOATR		; NO ATTRIBUTES
   3328	002112	000406 				BR	5$		; DO IT
   3329	002114				.CLOSE::
   3330	002114	012737 	000000G	000242'		MOV	#IO.DAC,CLOIOF	; I/O FUNCTION FOR DEACCESS
   3331	002122	012737 	000260'	000256'		MOV	#CLOWAT,CLOATR	; WRITE ATTRIBUTES
   3332	002130	010237 	000244'		5$:	MOV	R2,CLOLUN	; SET LUN
   3333	002134	010137 	000262'			MOV	R1,CLOATT	; SET FILE ATTRIBUTES
   3334	002140					DIR$	#CLODAC		; CLOSE FILE
	002140	012746 	000240'			MOV	#CLODAC,-(SP)
	002144	104375 				EMT	375
   3335	002146	103404 				BCS	CLOFCF		; ERROR IF CC-C IS SET
   3336	002150	105737 	001630'			TSTB	.FISTS		; DID WE REALLY SUCCEED?
   3337	002154	002401 				BLT	CLOFCF		; NO -- ERROR
   3338	002156					RETURN			; YES -- DONE
	002156	000207 				 RTS	PC
   3339						;
   3340
   3341						.DSABL	LSB
   3342
   3343	002160				CLOFCF:
   3344	002160					ERROR$	FCF		; ERROR -- FILE CLOSE FAILURE
	002160	012746 	022776 			 MOV	#^RFCF,-(SP)
	002164	104400 				 TRAP	TC.ERR
   3345						;
   3346
   3347	000240				.PSECT	DPBS
   3348
   3349	000240				CLODAC:				; FILE CLOSE DIRECTIVE
   3350	000240					QIOW$	0,0,E.FFIL,,.FISTS,,<0,0>
	000240	   003 	   010 			.BYTE	3,$$$ARG
	000242	000000 				.WORD	0
FILIO -- FILE INTERFACE ROUTINE	MACRO M1113  10-NOV-81 17:44  PAGE 75-1
.CLOSE -- ROUTINE TO CLOSE A FILE

	000244	000000 				.WORD	0
	000246	   006 	   000 			.BYTE	E.FFIL,
	000250	001630'				.WORD	.FISTS
	000252	000000 				.WORD
	000254	000000 				.WORD	0
	000256	000000 				.WORD	0
   3351
   3352		000242'			CLOIOF=CLODAC+Q.IOFN
   3353		000244'			CLOLUN=CLODAC+Q.IOLU
   3354		000256'			CLOATR=CLODAC+Q.IOPL+2
   3355
   3356	000260				CLOWAT:
   3357	000260	   004 	   016 			.BYTE	4,16
   3358	000262	000000 				.WORD	0
   3359	000264	   000 	   000 			.BYTE	0,0
   3360
   3361		000262'			CLOATT=CLOWAT+2
   3362
   3363	002166				.PSECT
FILIO -- FILE INTERFACE ROUTINE	MACRO M1113  10-NOV-81 17:44  PAGE 76
.SETFN -- ROUTINE TO SET A FILE NAME IN A FILE NAME BLOCK

   3365					.SBTTL	.SETFN -- ROUTINE TO SET A FILE NAME IN A FILE NAME BLOCK
   3366
   3367					;+
   3368					; .SETFN -- ROUTINE TO SET A FILE NAME IN A FILE NAME BLOCK
   3369					;
   3370					; THIS ROUTINE WILL INITIALIZE A FILE NAME BLOCK WITH A FILE NAME,
   3371					; VERSION NUMBER, AND STATUS VALUES.
   3372					;
   3373					; INPUT ARGUMENTS:
   3374					;
   3375					;	R0=FILE NAME PTR
   3376					;	R1=FILE NAME BLOCK ADDR
   3377					;
   3378					; OUTPUT ARGUMENTS:
   3379					;
   3380					;	NONE
   3381					;
   3382					; ERROR CODES RETURNED:
   3383					;
   3384					;	NONE
   3385					;-
   3386
   3387	002166				.SETFN::
   3388	002166					PUSH	<R1,R0>		; SAVE R0,R1
	002166	010146 				 MOV	R1,-(SP)
	002170	010046 				 MOV	R0,-(SP)
   3389	002172	005021 				CLR	(R1)+		; CLEAR FID
   3390	002174	005021 				CLR	(R1)+		; CLEAR FID
   3391	002176	005021 				CLR	(R1)+		; CLEAR FID
   3392	002200	012021 				MOV	(R0)+,(R1)+	; FILE NAME
   3393	002202	012021 				MOV	(R0)+,(R1)+	; FILE NAME
   3394	002204	012021 				MOV	(R0)+,(R1)+	; FILE NAME
   3395	002206	012021 				MOV	(R0)+,(R1)+	; EXTENSION
   3396	002210	012021 				MOV	(R0)+,(R1)+	; VERSION
   3397	002212	005021 				CLR	(R1)+		; STATUS
   3398	002214	005011 				CLR	(R1)		; NEXT PTR
   3399	002216					POP	<R0,R1>		; RESTORE R0,R1
	002216	012600 				 MOV	(SP)+,R0
	002220	012601 				 MOV	(SP)+,R1
   3400	002222					RETURN			; DONE
	002222	000207 				 RTS	PC
FILIO -- FILE INTERFACE ROUTINE	MACRO M1113  10-NOV-81 17:44  PAGE 77
.SETFN -- ROUTINE TO SET A FILE NAME IN A FILE NAME BLOCK

   3403
   3404					.SBTTL	.READR -- ROUTINE TO READ A RECORD
   3405
   3406					;+
   3407					; .READR -- ROUTINE TO READ A RECORD FROM THE INDIRECT COMMAND FILE.
   3408					;
   3409					; THIS ROUTINE WILL GET A RECORD (EQUIVILENT TO A TYPED COMMAND) FROM
   3410					; THE CURRENTLY OPEN INDIRECT COMMAND FILE. IT WILL INVISIBLY READ
   3411					; VIRTUAL BLOCKS INORDER TO BLOCK THE RECORDS. IF AN E-O-F IS
   3412					; ENCOUNTERED THE OPEN FILE IS CLOSED AND INPUT IS REDIRECTED TO CTY.
   3413					;
   3414					; INPUT ARGUMENTS:
   3415					;
   3416					;	R2=OUTPUT BUFFER
   3417					;	R3=STATUS BLOCK
   3418					;
   3419					; OUTPUT ARGUMENTS:
   3420					;	R2 POINTS TO END OF RECORD
   3421					;	2(R3) CONTAINS BYTE COUNT OF RECORD
   3422					;
   3423					; ERROR CODES RETURNED:
   3424					;
   3425					;	FRD -- FILE READ FAILURE
   3426					;-
   3427
   3428	002224				.READR::
   3429	002224					PUSH	<R0,R1>		; SAVE R1 AND R0
	002224	010046 				 MOV	R0,-(SP)
	002226	010146 				 MOV	R1,-(SP)
   3430	002230				10$:	CALL	.READW		; READ RECORD LENGTH FROM FILE
	002230	004737 	002330'			 JSR	PC,.READW
   3431	002234	103415 				BCS	30$		; EOF IF CC-C IS SET
   3432	002236	005700 				TST	R0		; SEE IF A NULL RECORD?
   3433	002240	001773 				BEQ	10$		; YES -- READ NEXT RECORD
   3434	002242	010001 				MOV	R0,R1		; NO -- SAVE BYTE COUNT
   3435	002244	010063 	000002 			MOV	R0,2(R3)	; SET RETURNED BYTE COUNT
   3436	002250				20$:	CALL	.READB		; READ CHARACTER
	002250	004737 	002406'			 JSR	PC,.READB
   3437	002254	103405 				BCS	30$		; EOF IF CC-C IS SET
   3438	002256	110022 				MOVB	R0,(R2)+	; SAVE CHARACTER
   3439	002260	077105 				SOB	R1,20$		; DONE?
   3440	002262				25$:	POP	<R1,R0>		; YES -- RESTORE R1 AND R0
	002262	012601 				 MOV	(SP)+,R1
	002264	012600 				 MOV	(SP)+,R0
   3441	002266					RETURN			; RETURN
	002266	000207 				 RTS	PC
   3442	002270	005037 	001626'		30$:	CLR	.INDFG		; REDIRECT INPUT TO CTY
   3443	002274	012701 	002664'			MOV	#.INFNB,R1	; INPUT FILE NAME BLOCK
   3444	002300	012702 	000005 			MOV	#INDLUN,R2	; FILE LUN
   3445	002304					CALL	.CLOSE		; CLOSE FILE AND DEACCESS
	002304	004737 	002114'			 JSR	PC,.CLOSE
   3446	002310	012700 	000335'			MOV	#EOFMSG,R0	; E-O-F MESSAGE PTR
   3447	002314					CALL	.TYMSG		; OUTPUT MESSAGE
	002314	004737 	015446'			 JSR	PC,.TYMSG
   3448	002320	005063 	000002 		40$:	CLR	2(R3)		; CLEAR BYTE COUNT
   3449	002324	000261 				SEC			; SET CC-C BIT
   3450	002326	000755 				BR	25$		; DONE
FILIO -- FILE INTERFACE ROUTINE	MACRO M1113  10-NOV-81 17:44  PAGE 77-1
.READR -- ROUTINE TO READ A RECORD

   3451						;
   3452
   3453	000335				.PSECT	MESSAG
   3454
   3455	000335				EOFMSG:
   3456	000335	   040 	   074 	   105 		.ASCIZ	% <EOF> %
	000340	   117 	   106 	   076
	000343	   040 	   000
   3457
   3458	002330				.PSECT
FILIO -- FILE INTERFACE ROUTINE	MACRO M1113  10-NOV-81 17:44  PAGE 78
.READW -- READ A WORD FROM A FILE

   3460					.SBTTL	.READW -- READ A WORD FROM A FILE
   3461
   3462					;+
   3463					; .READW -- ROUTINE TO READ A WORD FROM A FILE
   3464					;
   3465					; THIS ROUTINE WILL READ A WORD FROM THE CURRENTLY OPEN INDIRECT
   3466					; COMMAND FILE. IF THE CURRENT BLOCK IS EMPTY IT WILL READ IN THE
   3467					; NEXT ONE. THE WORD READ MUST BE WORD ALIGNED. IF AN E-O-F IS
   3468					; ENCOUNTERED THE CC-C BIT IS SET AND THE ROUTINE RETURNS.
   3469					;
   3470					; INPUT ARGUMENTS:
   3471					;
   3472					;	NONE
   3473					;
   3474					; OUTPUT ARGUMENTS:
   3475					;
   3476					;	R0 CONTAINS WORD READ
   3477					;
   3478					; ERROR CODES RETURNED:
   3479					;
   3480					;	FRD -- FILE READ FAILURE
   3481					;-
   3482
   3483	002330				.READW::
   3484	002330	032737 	000001 	001662'		BIT	#1,.INPOS	; ARE WE ON A WORD BOUNDRY?
   3485	002336	001404 				BEQ	10$		; YES -- GO ON
   3486	002340	005237 	001662'			INC	.INPOS		; NO -- GET ON A WORD BOUNDRY
   3487	002344	005337 	001660'			DEC	.INBBC		; DECREMENT BYTE COUNT
   3488	002350	005737 	001660'		10$:	TST	.INBBC		; IS CURRENT BUFFER EMPTY?
   3489	002354	003003 				BGT	20$		; NO -- GO ON
   3490	002356					CALL	.READ		; YES -- READ NEXT BLOCK
	002356	004737 	002440'			 JSR	PC,.READ
   3491	002362	103410 				BCS	30$		; EOF IF CC-C IS SET
   3492	002364	017700 	001662'		20$:	MOV	@.INPOS,R0	; GET WORD INTO R0
   3493	002370	062737 	000002 	001662'		ADD	#2,.INPOS	; UPDATE BUFFER POSITION PTR
   3494	002376	162737 	000002 	001660'		SUB	#2,.INBBC	; UPDATE BUFFER BYTE COUNT
   3495	002404				30$:	RETURN			; DONE
	002404	000207 				 RTS	PC
FILIO -- FILE INTERFACE ROUTINE	MACRO M1113  10-NOV-81 17:44  PAGE 79
.READB -- READ A BYTE FROM A FILE

   3497					.SBTTL	.READB -- READ A BYTE FROM A FILE
   3498
   3499					;+
   3500					; .READB -- ROUTINE TO READ A BYTE FROM A FILE
   3501					;
   3502					; THIS ROUTINE WILL READ A BYTE FROM THE CURRENTLY OPEN INDIRECT
   3503					; COMMAND FILE. IF THE CURRENT BLOCK IS EMPTY IT WILL READ IN THE
   3504					; NEXT ONE. IF AN E-O-F IS ENCOUNTERED THE CC-C BIT IS SET AND THE
   3505					; ROUTINE RETURNS.
   3506					;
   3507					; INPUT ARGUMENTS:
   3508					;
   3509					;	NONE
   3510					;
   3511					; OUTPUT ARGUMENTS:
   3512					;
   3513					;	R0 CONTAINS BYTE READ
   3514					;
   3515					; ERROR CODES RETURNED:
   3516					;
   3517					;	FRD -- FILE READ FAILURE
   3518					;-
   3519
   3520	002406				.READB::
   3521	002406	005737 	001660'			TST	.INBBC		; IS CURRENT BUFFER EMPTY?
   3522	002412	003003 				BGT	10$		; NO -- GO ON
   3523	002414					CALL	.READ		; YES -- READ NEXT BLOCK
	002414	004737 	002440'			 JSR	PC,.READ
   3524	002420	103406 				BCS	20$		; EOF IF CC-C IS SET
   3525	002422	117700 	001662'		10$:	MOVB	@.INPOS,R0	; GET WORD INTO R0
   3526	002426	005237 	001662'			INC	.INPOS		; UPDATE BUFFER POSITION PTR
   3527	002432	005337 	001660'			DEC	.INBBC		; UPDATE BUFFER BYTE COUNT
   3528	002436				20$:	RETURN			; DONE
	002436	000207 				 RTS	PC
FILIO -- FILE INTERFACE ROUTINE	MACRO M1113  10-NOV-81 17:44  PAGE 80
.READ -- ROUTINE TO READ A BLOCK

   3530					.SBTTL	.READ -- ROUTINE TO READ A BLOCK
   3531
   3532					;+
   3533					; .READ -- ROUTINE TO READ A BLOCK FROM INDIRECT COMMAND FILE
   3534					;
   3535					; THIS ROUTINE WILL READ A BLOCK FROM THE CURRENTLY OPEN INDIRECT
   3536					; COMMAND FILE. THE BUFFER COUNTS AND POINTERS WILL THEN BE SET.
   3537					; IF AN E-O-F IS ENCOUNTERED THE CC-C BIT IS SET AND THE ROUTINE
   3538					; RETURNS.
   3539					;
   3540					; INPUT ARGUMENTS:
   3541					;
   3542					;	NONE
   3543					;
   3544					; OUTPUT ARGUMENTS:
   3545					;
   3546					;	NONE
   3547					;
   3548					; ERROR CODES RETURNED:
   3549					;
   3550					;	FRD -- FILE READ FAILURE
   3551					;-
   3552
   3553	002440				.READ::
   3554	002440	062737 	000001 	001656'		ADD	#1,.INVBN+2	; NEXT VIRTUAL BLOCK
   3555	002446	005537 	001654'			ADC	.INVBN		; PROPAGATE CARRY
   3556	002452	023737 	001656'	002730'		CMP	.INVBN+2,.INATT+12	; EOF?
   3557	002460	003041 				BGT	10$		; YES -- EXIT
   3558	002462					QIOW$S	#IO.RVB,#INDLUN,#E.FFIL,,#.FISTS,,<#.INBUF,#.BUFSZ,,.INVBN,.INVBN+2>
	002462	013746 	001656'			MOV	.INVBN+2,-(SP)
	002466	013746 	001654'			MOV	.INVBN,-(SP)
	002472	005046 				CLR	-(SP)
	002474	012746 	001000 			MOV	#.BUFSZ,-(SP)
	002500	012746 	001664'			MOV	#.INBUF,-(SP)
	002504	005046 				CLR	-(SP)
	002506	012746 	001630'			MOV	#.FISTS,-(SP)
	002512	005046 				CLR	-(SP)
	002514	112716 	000006 			MOVB	#E.FFIL,(SP)
	002520	012746 	000005 			MOV	#INDLUN,-(SP)
	002524	012746 	000000G			MOV	#IO.RVB,-(SP)
	002530	012746 				MOV	(PC)+,-(SP)
	002532	   003 	   013 			.BYTE	3,$$$T1
	002534	104375 				EMT	375
   3559	002536	103414 				BCS	REAFRD		; ERROR IF CC-C IS SET
   3560	002540	105737 	001630'			TSTB	.FISTS		; SEE IF WE REALLY SUCCEEDED?
   3561	002544	002411 				BLT	REAFRD		; NO -- CHECK ERROR
   3562	002546	012737 	001664'	001662'		MOV	#.INBUF,.INPOS	; YES -- SET BUFFER POSITION PTR
   3563	002554	013737 	001632'	001660'		MOV	.FISTS+2,.INBBC	; SET BUFFER BYTE COUNT
   3564	002562					RETURN			; DONE
	002562	000207 				 RTS	PC
   3565	002564	000261 			10$:	SEC			; YES -- SET CC-C
   3566	002566					RETURN			; DONE
	002566	000207 				 RTS	PC
   3567						;
   3568	002570				REAFRD:
   3569	002570	012701 	002716'			MOV	#.INATT,R1	; SET ATTRIBUTE ADDR
   3570	002574	012702 	000005 			MOV	#INDLUN,R2	; SET LUN
FILIO -- FILE INTERFACE ROUTINE	MACRO M1113  10-NOV-81 17:44  PAGE 80-1
.READ -- ROUTINE TO READ A BLOCK

   3571	002600	005037 	001626'			CLR	.INDFG		; INDICATE FILE CLOSED
   3572	002604					CALL	.CLOSE		; CLOSE FILE
	002604	004737 	002114'			 JSR	PC,.CLOSE
   3573	002610				20$:	ERROR$	FRD		; ERROR -- FILE READ FAILURE
	002610	012746 	024124 			 MOV	#^RFRD,-(SP)
	002614	104400 				 TRAP	TC.ERR
   3574						;
   3575
FILIO -- FILE INTERFACE ROUTINE	MACRO M1113  10-NOV-81 17:44  PAGE 81
.WRITR -- ROUTINE TO WRITE A RECORD

   3578					.SBTTL	.WRITR -- ROUTINE TO WRITE A RECORD
   3579
   3580					;+
   3581					; .WRITR -- ROUTINE TO WRITE A RECORD TO THE LOG FILE
   3582					;
   3583					; THIS ROUTINE WILL WRITE A RECORD TO THE FILE PARSER.LOG WHEN
   3584					; OUTPUT IS DIRECTED TO THE LOG FILE.
   3585					;
   3586					; INPUT ARGUMENTS:
   3587					;
   3588					;	R2=RECORD PTR
   3589					;	R1=BYTE COUNT
   3590					;
   3591					; OUTPUT ARGUMENTS:
   3592					;
   3593					;	NONE
   3594					;
   3595					; ERROR CODES RETURNED:
   3596					;
   3597					;	FEF -- FILE EXTEND FAILURE
   3598					;	FWT -- FILE WRITE FAILURE
   3599					;-
   3600
   3601	002616				.WRITR::
   3602	002616					PUSH	R0		; SAVE R0
	002616	010046 				 MOV	R0,-(SP)
   3603	002620	121227 	000012 		5$:	CMPB	(R2),#12	; CHARACTER A <LF>?
   3604	002624	001414 				BEQ	7$		; YES -- WRITE OUT RECORD
   3605	002626	121227 	000015 			CMPB	(R2),#15	; NO -- CHARACTER A <CR>?
   3606	002632	001444 				BEQ	40$		; YES -- PROCESS IT
   3607	002634	112277 	004036'			MOVB	(R2)+,@.RECPT	; NO -- WRITE CHAR TO RECORD
   3608	002640	005237 	004036'			INC	.RECPT		; UPDATE POINTER
   3609	002644	005237 	004034'			INC	.RECNT		; INCREMENT COUNT
   3610	002650	077115 				SOB	R1,5$		; DONE?
   3611	002652				6$:	POP	R0		; YES -- RESTORE R0
	002652	012600 				 MOV	(SP)+,R0
   3612	002654					RETURN			; EXIT
	002654	000207 				 RTS	PC
   3613	002656				7$:	PUSH	<R2,R1>		; SAVE R2,R1
	002656	010246 				 MOV	R2,-(SP)
	002660	010146 				 MOV	R1,-(SP)
   3614	002662	012702 	004040'			MOV	#.RECRD,R2	; R2 POINTS TO RECORD
   3615	002666	013701 	004034'			MOV	.RECNT,R1	; R1 HAS RECORD COUNT
   3616	002672	020137 	004020'			CMP	R1,.OTATT+2	; IS THIS THE BIGGEST RECORD?
   3617	002676	101402 				BLOS	10$		; NO -- GO ON
   3618	002700	010137 	004020'			MOV	R1,.OTATT+2	; YES -- SAVE IT
   3619	002704	010100 			10$:	MOV	R1,R0		; WRITE OUT RECORD BYTE COUNT
   3620	002706					CALL	.WRITW		; WRITE IT
	002706	004737 	002754'			 JSR	PC,.WRITW
   3621	002712	005701 				TST	R1		; IS THIS A NULL RECORD?
   3622	002714	001404 				BEQ	30$		; YES -- DONE
   3623	002716	112200 			20$:	MOVB	(R2)+,R0	; NO -- GET NEXT BYTE OF RECORD
   3624	002720					CALL	.WRITB		; WRITE IT
	002720	004737 	003030'			 JSR	PC,.WRITB
   3625	002724	077104 				SOB	R1,20$		; ALL BYTES WRITTEN?
   3626	002726				30$:	POP	<R1,R2>		; YES -- RESTORE R2,R1
	002726	012601 				 MOV	(SP)+,R1
FILIO -- FILE INTERFACE ROUTINE	MACRO M1113  10-NOV-81 17:44  PAGE 81-1
.WRITR -- ROUTINE TO WRITE A RECORD

	002730	012602 				 MOV	(SP)+,R2
   3627	002732	012737 	004040'	004036'		MOV	#.RECRD,.RECPT	; RESET RECORD POINTER
   3628	002740	005037 	004034'			CLR	.RECNT		; CLEAR RECORD COUNT
   3629	002744	105722 			40$:	TSTB	(R2)+		; REMOVE NEW LINE CHARACTER
   3630	002746	005301 				DEC	R1		; REMOVE FROM COUNT
   3631	002750	001323 				BNE	5$		; NO -- GO ON
   3632	002752	000737 				BR	6$		; YES -- EXIT
FILIO -- FILE INTERFACE ROUTINE	MACRO M1113  10-NOV-81 17:44  PAGE 82
.WRITW -- WRITE A WORD TO A FILE

   3634					.SBTTL	.WRITW -- WRITE A WORD TO A FILE
   3635
   3636					;+
   3637					; .WRITW -- ROUTINE TO WRITE A WORD TO A FILE
   3638					;
   3639					; THIS ROUTINE WILL WRITE A WORD TO A CURRENTLY OPEN FILE. IF THE
   3640					; CURRENT BLOCK IS FULL THEN THE BLOCK WILL BE WRITTEN TO DISK AND
   3641					; THE WORD WILL BE WRITTEN TO THE NEW BLOCK.
   3642					;
   3643					; INPUT ARGUMENTS:
   3644					;
   3645					;	R0=WORD TO WRITE
   3646					;
   3647					; OUTPUT ARGUMENTS:
   3648					;
   3649					;	NONE
   3650					;
   3651					; ERROR CODES RETURNED:
   3652					;
   3653					;	FEF -- FILE EXTEND FAILURE
   3654					;	FWT -- FILE WRITE FAILURE
   3655					;-
   3656
   3657	002754				.WRITW::
   3658	002754	032737 	000001 	002762'		BIT	#1,.OTPOS	; ARE WE ON A WORD BOUNDRY?
   3659	002762	001404 				BEQ	10$		; YES -- GO ON
   3660	002764	005237 	002762'			INC	.OTPOS		; NO -- POSITION TO WORD BOUNDRY
   3661	002770	005337 	002760'			DEC	.OTBBC		; DECREMENT FREE BYTE COUNT
   3662	002774	005737 	002760'		10$:	TST	.OTBBC		; BLOCK FULL?
   3663	003000	003002 				BGT	20$		; NO -- GO ON
   3664	003002					CALL	.WRITE		; YES -- WRITE OUT BLOCK
	003002	004737 	003160'			 JSR	PC,.WRITE
   3665	003006	010077 	002762'		20$:	MOV	R0,@.OTPOS	; WRITE WORD TO BUFFER
   3666	003012	062737 	000002 	002762'		ADD	#2,.OTPOS	; UPDATE BUFFER POINTER
   3667	003020	162737 	000002 	002760'		SUB	#2,.OTBBC	; UPDATE BYTE COUNT
   3668	003026					RETURN			; DONE
	003026	000207 				 RTS	PC
FILIO -- FILE INTERFACE ROUTINE	MACRO M1113  10-NOV-81 17:44  PAGE 83
.WRITB -- WRITE A BYTE TO A FILE

   3670					.SBTTL	.WRITB -- WRITE A BYTE TO A FILE
   3671
   3672					;+
   3673					; .WRITB -- ROUTINE TO WRITE A BYTE TO A FILE
   3674					;
   3675					; THIS ROUTINE WILL WRITE A BYTE TO A BUFFER THAT WILL THEN BE WRITTEN
   3676					; TO DISK WHEN IT IS FULL.
   3677					;
   3678					; INPUT ARGUMENTS:
   3679					;
   3680					;	R0=BYTE TO WRITE
   3681					;
   3682					; OUTPUT ARGUMENTS:
   3683					;
   3684					;	NONE
   3685					;
   3686					; ERROR CODES RETURNED:
   3687					;
   3688					;	FEF -- FILE EXTEND FAILURE
   3689					;	FWT -- FILE WRITE FAILURE
   3690					;-
   3691
   3692	003030				.WRITB::
   3693	003030	005737 	002760'			TST	.OTBBC		; BUFFER FULL?
   3694	003034	003002 				BGT	10$		; NO -- GO ON
   3695	003036					CALL	.WRITE		; YES -- WRITE OUT BLOCK
	003036	004737 	003160'			 JSR	PC,.WRITE
   3696	003042	110077 	002762'		10$:	MOVB	R0,@.OTPOS	; WRITE BYE TO BUFFER
   3697	003046	005237 	002762'			INC	.OTPOS		; UPDATE POSITION
   3698	003052	005337 	002760'			DEC	.OTBBC		; UPDATE BYTE COUNT
   3699	003056					RETURN			; DONE
	003056	000207 				 RTS	PC
FILIO -- FILE INTERFACE ROUTINE	MACRO M1113  10-NOV-81 17:44  PAGE 84
.WRITZ -- WRITE OUT CURRENT BLOCK

   3701					.SBTTL	.WRITZ -- WRITE OUT CURRENT BLOCK
   3702
   3703					;+
   3704					; .WRITZ -- ROUTINE TO WRITE OUT CURRENT BUFFER
   3705					;
   3706					; THIS ROUTINE WILL WRITE OUT THE CURRENT BUFFER TO THE DISK FILE.
   3707					; IF THE BUFFER IS NOT FULL THE THE EXCESS SPACE IS ZEROED.
   3708					;
   3709					; INPUT ARGUMENTS:
   3710					;
   3711					;	NONE
   3712					;
   3713					; OUTPUT ARGUMENTS:
   3714					;
   3715					;	NONE
   3716					;
   3717					; ERROR CODES RETURNED:
   3718					;
   3719					;	FEF -- FILE EXTEND FAILURE
   3720					;	FWT -- FILE WRITE FAILURE
   3721					;-
   3722
   3723	003060				.WRITZ::
   3724	003060	013737 	002762'	004032'		MOV	.OTPOS,.OTATT+14	; NEXT FREE BYTE
   3725	003066	162737 	002764'	004032'		SUB	#.OTBUF,.OTATT+14	; MAKE RELATIVE ADDR
   3726	003074	023727 	002760'	000002 		CMP	.OTBBC,#2	; MORE THAN 1 BYTE LEFT?
   3727	003102	002413 				BLT	10$		; NO -- JUST ZERO BUFFER
   3728	003104	013700 	002760'			MOV	.OTBBC,R0	; YES -- WRITE ZERO RECORD
   3729	003110	032737 	000001 	002762'		BIT	#1,.OTPOS	; ON WORD BOUNDRY?
   3730	003116	001401 				BEQ	5$		; YES -- GO ON
   3731	003120	005300 				DEC	R0		; NO -- DECREMENT COUNT
   3732	003122	162700 	000002 		5$:	SUB	#2,R0		; DISCOUNT RECORD COUNT FIELD
   3733	003126					CALL	.WRITW		; WRITE COUNT
	003126	004737 	002754'			 JSR	PC,.WRITW
   3734	003132	005737 	002760'		10$:	TST	.OTBBC		; BUFFER FULL?
   3735	003136	001405 				BEQ	20$		; YES -- DONE
   3736	003140	112700 	000000 			MOVB	#0,R0		; WRITE OUT ZEROS
   3737	003144				12$:	CALL	.WRITB		; NO -- FILL BUFFER
	003144	004737 	003030'			 JSR	PC,.WRITB
   3738	003150	000770 				BR	10$		; NEXT
   3739	003152				20$:	CALL	.WRITE		; WRITE OUT BUFFER
	003152	004737 	003160'			 JSR	PC,.WRITE
   3740	003156					RETURN			; DONE
	003156	000207 				 RTS	PC
FILIO -- FILE INTERFACE ROUTINE	MACRO M1113  10-NOV-81 17:44  PAGE 85
.WRITE -- ROUTINE TO WRITE A BLOCK

   3742					.SBTTL	.WRITE -- ROUTINE TO WRITE A BLOCK
   3743
   3744					;+
   3745					; .WRITE -- ROUTINE TO WRITE A BLOCK TO A FILE
   3746					;
   3747					; THIS ROUTINE WILL WRITE A BLOCK TO A CURRENTLY OPEN FILE ON DISK.
   3748					; IF THE FILE SPACE IS FULL THE FILE WILL BE EXTENDED.
   3749					;
   3750					; INPUT ARGUMENTS:
   3751					;
   3752					;	NONE
   3753					;
   3754					; OUTPUT ARGUMENTS:
   3755					;
   3756					;	NONE
   3757					;
   3758					; ERROR CODES RETURNED:
   3759					;
   3760					;	FEF -- FILE EXTEND FAILURE
   3761					;	FWT -- FILE WRITE FAILURE
   3762					;-
   3763
   3764	003160				.WRITE::
   3765	003160	062737 	000001 	002756'		ADD	#1,.OTVBN+2	; NEXT VIRTUAL BLOCK
   3766	003166	005537 	002754'			ADC	.OTVBN		; PROPAGATE CARRY
   3767	003172				10$:	QIOW$S	#IO.WVB,#LOGLUN,#E.FFIL,,#.FISTS,,<#.OTBUF,#.BUFSZ,,.OTVBN,.OTVBN+2>
	003172	013746 	002756'			MOV	.OTVBN+2,-(SP)
	003176	013746 	002754'			MOV	.OTVBN,-(SP)
	003202	005046 				CLR	-(SP)
	003204	012746 	001000 			MOV	#.BUFSZ,-(SP)
	003210	012746 	002764'			MOV	#.OTBUF,-(SP)
	003214	005046 				CLR	-(SP)
	003216	012746 	001630'			MOV	#.FISTS,-(SP)
	003222	005046 				CLR	-(SP)
	003224	112716 	000006 			MOVB	#E.FFIL,(SP)
	003230	012746 	000004 			MOV	#LOGLUN,-(SP)
	003234	012746 	000000G			MOV	#IO.WVB,-(SP)
	003240	012746 				MOV	(PC)+,-(SP)
	003242	   003 	   013 			.BYTE	3,$$$T1
	003244	104375 				EMT	375
   3768	003246	103427 				BCS	WRIFWT		; ERROR IF CC-C IS SET
   3769	003250	105737 	001630'			TSTB	.FISTS		; DID WE REALLY SUCCEED?
   3770	003254	002415 				BLT	20$		; NO -- SEE WHY
   3771	003256	013737 	002756'	004030'		MOV	.OTVBN+2,.OTATT+12	; SET HIGHEST USED BLOCK
   3772	003264	013737 	002754'	004026'		MOV	.OTVBN,.OTATT+10	; SET HIGHEST USED BLOCK
   3773	003272	012737 	002764'	002762'		MOV	#.OTBUF,.OTPOS	; YES -- SET BUFFER POINTER
   3774	003300	012737 	001000 	002760'		MOV	#.BUFSZ,.OTBBC	; SET BYTE COUNT
   3775	003306					RETURN			; DONE
	003306	000207 				 RTS	PC
   3776	003310	122737 	000000G	001630'	20$:	CMPB	#IE.EOF,.FISTS	; E-O-F FOUND?
   3777	003316	001003 				BNE	WRIFWT		; NO -- ERROR
   3778	003320					CALL	.EXTND		; YES -- EXTEND FILE
	003320	004737 	002004'			 JSR	PC,.EXTND
   3779	003324	000722 				BR	10$		; TRY AGAIN
   3780						;
   3781	003326				WRIFWT:
   3782	003326					ERROR$	FWT		; ERROR -- FILE WRITE FAILURE
FILIO -- FILE INTERFACE ROUTINE	MACRO M1113  10-NOV-81 17:44  PAGE 85-1
.WRITE -- ROUTINE TO WRITE A BLOCK

	003326	012746 	024454 			 MOV	#^RFWT,-(SP)
	003332	104400 				 TRAP	TC.ERR
   3783						;
KL10F -- KL10 FUNCTION MODULE  	MACRO M1113  10-NOV-81 17:44  PAGE 87
.WRITE -- ROUTINE TO WRITE A BLOCK

   3786					.TITLE	KL10F -- KL10 FUNCTION MODULE  7812.21
   3787
   3788						.IDENT	"006140"
   3789
   3790					;
   3791					;                             COPYRIGHT (C) 1975, 1979 BY
   3792					;                     DIGITAL EQUIPMENT CORPORATION, MAYNARD MASS.
   3793					;
   3794					;       THIS SOFTWARE IS FURNISHED UNDER A LICENSE AND MAY BE  USED  AND  COPIED
   3795					;       ONLY IN ACCORDANCE WITH THE TERMS OF SUCH LICENSE AND WITH THE INCLUSION
   3796					;       OF THE ABOVE COPYRIGHT NOTICE.  THIS SOFTWARE OR ANY OTHER COPIES THERE-
   3797					;       OF  MAY NOT BE PROVIDED OR OTHERWISE MADE AVAILABLE TO ANY OTHER PERSON.
   3798					;       NO TITLE TO OR OWNERSHIP OF THE SOFTWARE IS HEREBY TRANSFERRED.
   3799					;
   3800					;       THE INFORMATION CONTAINED IN THIS SOFTWARE IS SUBJECT TO CHANGE  WITHOUT
   3801					;       NOTICE  AND SHOULD NOT BE CONSTRUED AS A COMMITMENT BY DIGITAL EQUIPMENT
   3802					;       CORPORATION.
   3803					;
   3804					;       DIGITAL ASSUMES NO RESPONSIBILITY FOR THE  USE  OR  RELIABILITY  OF  ITS
   3805					;       SOFTWARE ON EQUIPMENT WHICH IS NOT SUPPILED BY DIGITAL.
   3806					;
   3807					;		MODULE: KL10 FUNCTIONS
   3808					;
   3809					;		VERSION: 06-14
   3810					;
   3811					;		AUTHOR: R. BELANGER
   3812					;
   3813					;		DATE: 7812.21
   3814					;
   3815					;	THIS MODULE CONTAINS:
   3816					;
   3817					;	1) KL MBOX CLOCK BURST CODE
   3818
   3819						.MCALL	$DEF,DIR$,MRKT$,PREX$,PRDP$,KLDR$,KLDW$,KLDX$,WTSE$S
   3820
   3821	003334					$DEF
KL10F -- KL10 FUNCTION MODULE  	MACRO M1113  10-NOV-81 17:44  PAGE 88
.BURST -- MBOX CLOCK BURST SUBROUTINE 7601.02

   3823					.SBTTL	.BURST -- MBOX CLOCK BURST SUBROUTINE 7601.02
   3824
   3825					;+
   3826					; .BRMBC -- SUBROUTINE TO STOP THE KL CLOCK AND BURST THE MBOX
   3827					;	    CLOCK AS IN ".BURST".
   3828					; .BURST -- SUBROUTINE TO BURST THE KL MBOX CLOCK
   3829					;	    A MAXIMUM OF 255 DECIMAL TICKS PER CALL.
   3830					;
   3831					; THIS SUBROUTINE LOADS THE KL BURST COUNT REGISTER
   3832					; AND RUNS THE MBOX CLOCK FROM THE BURST COUNT REGISTER. IT WILL
   3833					; FAIL IF A BURST COUNT .GT. 255 DECIMAL IS REQUESTED IN ONE CALL.
   3834					;
   3835					; INPUT ARGUMENTS:
   3836					;
   3837					;	R0 CONTAINS THE BURST COUNT
   3838					;
   3839					; OUTPUT ARGUMENTS:
   3840					;
   3841					;	NONE.
   3842					;
   3843					; ERROR CODES RETURNED:
   3844					;
   3845					;	BAE -- BURST ARGUMENT ERROR.
   3846					;	FWF -- FUNCTION WRITE FAILED.
   3847					;	FXF -- FUNCTION EXECUTE FAILED.
   3848					;-
   3849
   3850	003334				.BRMBC::
   3851	003334					CALL	.STPXC		; STOP THE KL CLOCK
	003334	004737 	007302'			 JSR	PC,.STPXC
   3852	003340				.BURST::
   3853	003340	022700 	000377 			CMP	#^D255,R0	; IS ARGUMENT .GT. 255 DECIMAL?
   3854	003344	103406 				BLO	BCCTER		; YES -- ERROR
   3855	003346					CALL	.LDBRG		; NO -- LOAD THE BURST COUNTER
	003346	004737 	005456'			 JSR	PC,.LDBRG
   3856	003352	012700 	000012 			MOV	#FX.BMC,R0	; SET UP TO BURST THE MBOX CLOCK
   3857	003356					CALLR	.FXCT		; DO IT
	003356	000137 	004566'			 JMP	.FXCT
   3858						;
   3859	003362				BCCTER:
   3860	003362					ERROR$	BAE		; ERROR -- ARGUMENT OUT OF RANGE
	003362	012746 	006255 			 MOV	#^RBAE,-(SP)
	003366	104400 				 TRAP	TC.ERR
   3861						;
KL10F -- KL10 FUNCTION MODULE  	MACRO M1113  10-NOV-81 17:44  PAGE 89
.CLDFB -- DTE-20 OPERATION BUFFER CLEAR SUBROUTINE 7508.26

   3863					.SBTTL	.CLDFB -- DTE-20 OPERATION BUFFER CLEAR SUBROUTINE 7508.26
   3864
   3865					;+
   3866					; .CLDFB -- SUBROUTINE TO CLEAR THE DTE-20 TRANSFER BUFFERS
   3867					; .CLDFR -- SUBROUTINE TO CLEAR THE DTE-20 READ BUFFER
   3868					; .CLDFW -- SUBROUTINE TO CLEAR THE DTE-20 WRITE BUFFER
   3869					;
   3870					; THE SUBROUTINES CLEAR THE INDICATED BUFFERS
   3871					;
   3872					; INPUT ARGUMENTS:
   3873					;
   3874					;	NONE.
   3875					;
   3876					; OUTPUT ARGUMENTS:
   3877					;
   3878					;	NONE.
   3879					;
   3880					; ERROR CODES RETURNED:
   3881					;
   3882					;	NONE.
   3883					;-
   3884
   3885						.ENABL	LSB
   3886
   3887	003370				.CLDFB::
   3888	003370					CALL	.CLDFW		; CLEAR THE WRITE HALF OF THE BUFFER
	003370	004737 	003404'			 JSR	PC,.CLDFW
   3889	003374				.CLDFR::
   3890	003374					PUSH	R0		; SAVE R0
	003374	010046 				 MOV	R0,-(SP)
   3891	003376	012700 	000312'			MOV	#.DFRB,R0	; .CLEAR THE FUNCTION READ BUFFER
   3892	003402	000403 				BR	10$		; .
   3893						;
   3894	003404				.CLDFW::
   3895	003404					PUSH	R0		; SAVE R0
	003404	010046 				 MOV	R0,-(SP)
   3896	003406	012700 	000304'			MOV	#.DFWB,R0	; .CLEAR THE FUNCTION WRITE BUFFER
   3897	003412				10$:
   3898	003412					CALL	.TPCLR		; .CLEAR THE BUFFER
	003412	004737 	011356'			 JSR	PC,.TPCLR
   3899	003416	000414 				BR	20$		; .RESTORE R0 AND EXIT
   3900						;
KL10F -- KL10 FUNCTION MODULE  	MACRO M1113  10-NOV-81 17:44  PAGE 90
.CLRFF -- CLEAR KL RUN FLOP SUBROUTINE 7609.10

   3902					.SBTTL	.CLRFF -- CLEAR KL RUN FLOP SUBROUTINE 7609.10
   3903
   3904					;+
   3905					; .CLRFF -- SUBROUTINE TO CLEAR THE KL RUN FLOP.
   3906					;
   3907					; THIS SUBROUTINE CLEARS THE KL RUN FLOP AND ISSUES A
   3908					; "MARK TIME" DIRECTIVE FOR THE CLOCK SHUTDOWN IN ".KLHLT".
   3909					;
   3910					; INPUT ARGUMENTS:
   3911					;
   3912					;	NONE.
   3913					;
   3914					; OUTPUT ARGUMENTS:
   3915					;
   3916					;	NONE
   3917					;
   3918					; ERROR CODES RETURNED:
   3919					;
   3920					;	FXF -- FUNCTION EXECUTE FAILED.
   3921					;-
   3922
   3923	003420				.CLRFF::
   3924	003420	000241 				CLC			; CLEAR CC-C
   3926	003422					DIR$	#.MTDPB		; REQUEST MARK TIME (FOR ".KLHLT")
	003422	012746 	000266'			MOV	#.MTDPB,-(SP)
	003426	104375 				EMT	375
   3928	003430					PUSH	R0		; SAVE R0
	003430	010046 				 MOV	R0,-(SP)
   3929	003432	112737 	000001 	000000G		MOVB	#1,.NOHLT	; TELL RSX20F NOT TO WORRY ABOUT THIS
   3930	003440	012700 	000020 			MOV	#FX.CRF,R0	; .SET UP TO CLEAR KL RUN FLOP
   3931	003444					CALL	.FXCT		; .DO IT
	003444	004737 	004566'			 JSR	PC,.FXCT
   3932	003450				20$:
   3933	003450					POP	R0		; .RESTORE R0
	003450	012600 				 MOV	(SP)+,R0
   3934	003452					RETURN			; TO CALLER
	003452	000207 				 RTS	PC
   3935
   3936						.DSABL	LSB
KL10F -- KL10 FUNCTION MODULE  	MACRO M1113  10-NOV-81 17:44  PAGE 91
.CLRFF -- CLEAR KL RUN FLOP SUBROUTINE 7609.10

   3938					; DPB FOR MARK TIME DIRECTIVE
   3939
   3940					;	!===============================================!
   3941					; 00	!	DPB SIZE	!	  DIC		!
   3942					;	!-----------------------------------------------!
   3943					; 02	!		  EVENT FLAG			!
   3944					;	!-----------------------------------------------!
   3945					; 04	!	TIME INTERVAL IN CLOCK TICKS		!
   3946					;	!-----------------------------------------------!
   3947					; 06	!	RESCHEDULE INTERVAL IN CLOCK TICKS	!
   3948					;	!-----------------------------------------------!
   3949					; 10	!	     AST HANDLER ENTRY POINT		!
   3950					;	!===============================================!
   3951
   3952	000266				.PSECT	DPBS
   3953
   3954	000266				.MTDPB::
   3955	000266					MRKT$	E.FHTO,30.,0,0
	000266	   027 	   005 			.BYTE	23.,5
	000270	000001 				.WORD	E.FHTO
	000272	000036 				.WORD	30.
	000274	000000 				.WORD	0
	000276	000000 				.WORD	0
   3956
   3957	003454				.PSECT
KL10F -- KL10 FUNCTION MODULE  	MACRO M1113  10-NOV-81 17:44  PAGE 92
.DTERW -- DTE-20 REGISTER READ / WRITE SUBROUTINES 7608.05

   3959					.SBTTL	.DTERW -- DTE-20 REGISTER READ / WRITE SUBROUTINES 7608.05
   3960
   3961					;+
   3962					; .DTDW1 -- SUBROUTINE TO READ DTE-20 DIAG WORD 1.
   3963					; .DTDW2 -- SUBROUTINE TO READ DTE-20 DIAG WORD 2.
   3964					; .DTSTA -- SUBROUTINE TO READ DTE-20 STATUS WORD.
   3965					; .DTDW3 -- SUBROUTINE TO READ DTE-20 DIAG WORD 3.
   3966					; .DWDW1 -- SUBROUTINE TO WRITE DTE-20 DIAG WORD 1.
   3967					; .DWDW2 -- SUBROUTINE TO WRITE DTE-20 DIAG WORD 2.
   3968					; .DWSTA -- SUBROUTINE TO WRITE DTE-20 STATUS WORD.
   3969					; .DWDW3 -- SUBROUTINE TO WRITE DTE-20 DIAG WORD 3.
   3970					;
   3971					; THESE SUBROUTINES READ OR WRITE THE CONTENT OF THE SPECIFIED
   3972					; DTE-20 REGISTER.
   3973					;
   3974					; THE CONTENT OF THE REGISTER TO BE WRITTEN IS PASSED IN R0.
   3975					; WHETHER A READ OR WRITE IS SPECIFIED, THE CONTENT OF THE REGISTER
   3976					; AFTER THE READ OR WRITE IS ALWAYS RETURNED IN R0 AND IN ".DREG".
   3977					;
   3978					; INPUT ARGUMENTS:
   3979					;
   3980					;	(READ) NONE.
   3981					;	(WRITE) R0 POINTS TO THE DATA TO BE WRITTEN.
   3982					;
   3983					; OUTPUT ARGUMENTS:
   3984					;
   3985					;	R0 CONTAINS THE DATA FROM THE REGISTER WHICH WAS
   3986					;	READ OR WRITTEN.
   3987					;
   3988					; ERROR CODES RETURNED:
   3989					;
   3990					;	DSF -- DTE-20 STATUS FAILURE.
   3991					;-
KL10F -- KL10 FUNCTION MODULE  	MACRO M1113  10-NOV-81 17:44  PAGE 93
.DTERW -- DTE-20 REGISTER READ / WRITE SUBROUTINES 7608.05

   3993						.ENABL	LSB
   3994
   3995	003454				.DWDW1::			; DIAG WORD 1 WRITE ENTRY
   3996	003454	105037 	000303'			CLRB	.REGRW+3	; SET DIAG1 OFFSET
   3997	003460	000413 				BR	10$		; DO COMMON WRITE CODE
   3998						;
   3999	003462				.DWDW2::			; DIAG WORD 2 WRITE ENTRY
   4000	003462	112737 	000002 	000303'		MOVB	#.DIAG2,.REGRW+3; DIAG2 OFFSET
   4001	003470	000407 				BR	10$		; DO COMMON WRITE CODE
   4002						;
   4003	003472				.DWSTA::			; STATUS WRITE ENTRY
   4004	003472	112737 	000004 	000303'		MOVB	#.DTSTW,.REGRW+3; OFFSET FOR STATUS
   4005	003500	000403 				BR	10$		; DO COMMON WRITE CODE
   4006						;
   4007	003502				.DWDW3::			; DIAG WORD 3 WRITE ENTRY
   4008	003502	112737 	000006 	000303'		MOVB	#.DIAG3,.REGRW+3; SET DIAG WORD 3 OFFSET
   4009	003510				10$:				; COMMON WRITE CODE
   4010	003510	010037 	000304'			MOV	R0,.REGRW+4	; SET THE DATA POINTER IN THE DPB
   4011	003514	113700 	000303'			MOVB	.REGRW+3,R0	; GET THE REGISTER OFFSET
   4012	003520	046077 	004160'	000304'		BIC	MBZTAB(R0),@.REGRW+4
   4013									; ZERO THE MBZ BITS
   4014	003526	000420 				BR	30$		; WRITE IT
   4015						;
   4016	003530				.DTDW1::			; DIAG WORD 1 READ ENTRY
   4017	003530	105037 	000303'			CLRB	.REGRW+3	; DIAG WORD 1 OFFSET IS 0
   4018	003534	000413 				BR	20$		; GO READ IT
   4019						;
   4020	003536				.DTDW2::			; DIAG WORD 2 READ ENTRY
   4021	003536	112737 	000002 	000303'		MOVB	#.DIAG2,.REGRW+3; DIAG WORD 2 OFFSET IS 2
   4022	003544	000407 				BR	20$		; GO READ IT
   4023						;
   4024	003546				.DTSTA::			; STATUS WORD READ ENTRY
   4025	003546	112737 	000004 	000303'		MOVB	#.DTSTW,.REGRW+3; SET THE OFFSET FOR THE STATUS WORD
   4026	003554	000403 				BR	20$		; GO READ THE DTE-20 STATUS REGISTER
   4027						;
   4028	003556				.DTDW3::			; DIAG WORD 3 READ ENTRY
   4029	003556	112737 	000006 	000303'		MOVB	#.DIAG3,.REGRW+3; SET THE OFFSET FOR DIAG WORD 3
   4030
   4031					;	[CONTINUED ON THE FOLLOWING PAGE]
KL10F -- KL10 FUNCTION MODULE  	MACRO M1113  10-NOV-81 17:44  PAGE 94
.DTERW -- DTE-20 REGISTER READ / WRITE SUBROUTINES 7608.05

   4033					;	[CONTINUED FROM THE PREVIOUS PAGE]
   4034
   4035	003564				20$:
   4036	003564	005037 	000304'			CLR	.REGRW+4	; THIS IS NOT A WRITE
   4037	003570				30$:				; DATA BUFFER ALREADY LOADED FOR WRITE
   4038	003570	005037 	000320'			CLR	.DREG		; CLEAR RETURNED DATA BUFFER
   4042	003574					DIR$	#.REGRW		; READ OR WRITE THE REGISTER
	003574	012746 	000300'			MOV	#.REGRW,-(SP)
	003600	104375 				EMT	375
   4044	003602	103411 				BCS	DTEDSF		; ERROR IF CC-C IS SET
   4045	003604	013700 	000320'			MOV	.DREG,R0	; PUT A COPY IN R0
   4047	003610	032737 	000040 	000232'		BIT	#TR.DTE,.TRKWD	; NO -- ARE WE TRACKING DTE-20 OPS?
   4048	003616	001402 				BEQ	40$		; NO -- JUST RETURN
   4049	003620					CALLR	.DTTRK		; YES -- TRACK IT AND RETURN
	003620	000137 	012316'			 JMP	.DTTRK
   4050						;
   4051	003624				40$:
   4053	003624					RETURN			; GO AWAY
	003624	000207 				 RTS	PC
   4054
   4055						.DSABL	LSB
   4056
   4057	003626				DTEDSF:
   4058	003626					ERROR$	DSF		; ERROR -- DTE-20 REGISTER READ OR WRITE FAILED
	003626	012746 	015776 			 MOV	#^RDSF,-(SP)
	003632	104400 				 TRAP	TC.ERR
   4059						;
   4060
   4061					; TABLE TO CLEAR MBZ BITS ON REGISTER WRITE
   4062
   4063	004160				.PSECT	DATA
   4064
   4065	004160				MBZTAB:
   4066	004160	000442 				.WORD	D1.MBZ
   4067	004162	177641 				.WORD	D2.MBZ
   4068	004164	000000 				.WORD	ST.MBZ
   4069	004166	177704 				.WORD	D3.MBZ
   4070
   4071	003634				.PSECT
KL10F -- KL10 FUNCTION MODULE  	MACRO M1113  10-NOV-81 17:44  PAGE 95
.DTERW -- DTE-20 REGISTER READ / WRITE SUBROUTINES 7608.05

   4073					; DPB TO READ OR WRITE THE DTE-20 REGISTERS
   4074
   4075					;	!===============================================!
   4076					; 00	!	DPB SIZE	!	  DIC		!
   4077					;	!-----------------------------------------------!
   4078					; 02	!   REGISTER OFFSET	!    DIRECTIVE CODE	!
   4079					;	!-----------------------------------------------!
   4080					; 04	!	  POINTER TO DATA TO BE WRITTEN		!
   4081					;	!-----------------------------------------------!
   4082					; 06	!	DESTINATION ADDRESS FOR DATA READ	!
   4083					;	!-----------------------------------------------!
   4084					; 10	!		DTE-20 NUMBER			!
   4085					;	!===============================================!
   4086
   4087	000300				.PSECT	DPBS
   4088
   4089	000300				.REGRW::
   4090	000300	002411 				.WORD	2411
   4091	000302	   017 	   000 			.BYTE	17,0
   4092	000304	000000 				.WORD	0
   4093	000306	000320'				.WORD	.DREG
   4094	000310	000000 				.WORD	0
   4095		000310'			RGDTEN==.-2
   4096
   4097	003634				.PSECT
KL10F -- KL10 FUNCTION MODULE  	MACRO M1113  10-NOV-81 17:44  PAGE 96
.EBCLK -- SUBROUTINE TO SIMULATE AN EBOX CLOCK 7512.01

   4099					.SBTTL	.EBCLK -- SUBROUTINE TO SIMULATE AN EBOX CLOCK 7512.01
   4100
   4101					;+
   4102					; .EBCLK -- SUBROUTINE TO SIMULATE AN EBOX CLOCK VIA MBOX CLOCKS
   4103					;
   4104					; THIS SUBROUTINE WILL SIMULATE AN EBOX CLOCK WITH MBOX CLOCKS.
   4105					; DOING THIS PREVENTS THE EBOX AND MBOX FROM BECOMING UNSYNCHRONIZED.
   4106					; THE EBOX CLOCK IS SYNCHED LOW ON EXIT.
   4107					;
   4108					; SEQUENCE OF OPERATION:
   4109					;
   4110					;	(A) AN MBOX CLOCK IS ISSUED (FX.002),
   4111					;	(B) THE STATE OF [CLK EBOX SRC H] IS TESTED:
   4112					;		(1) IF FALSE GO TO (A),
   4113					;		(2) IF TRUE GO TO (C),
   4114					;	(C) THE EBOX CLOCK IS SYNCHED LOW.
   4115					;
   4116					; INPUT ARGUMENTS:
   4117					;
   4118					;	NONE.
   4119					;
   4120					; OUTPUT ARGUMENTS:
   4121					;
   4122					;	NONE.
   4123					;
   4124					; ERROR CODES RETURNED:
   4125					;
   4126					;	CES -- CLOCK ERROR STOP.
   4127					;	DSF -- DTE-20 STATUS FAILURE.
   4128					;	ECT -- EBOX CLOCK TIMEOUT.
   4129					;	FRF -- FUNCTION READ FAILED.
   4130					;	FXF -- FUNCTION EXECUTE FAILED.
   4131					;
   4132					; NOTE:
   4133					;
   4134					;	THIS SUBROUTINE ASSUMES THAT THE KL CLOCK IS OFF.
   4135					;-
KL10F -- KL10 FUNCTION MODULE  	MACRO M1113  10-NOV-81 17:44  PAGE 97
.EBCLK -- SUBROUTINE TO SIMULATE AN EBOX CLOCK 7512.01

   4137	003634				.EBCLK::
   4138	003634					PUSH	<R2,R1,R0>	; SAVE CALLER'S REGISTERS
	003634	010246 				 MOV	R2,-(SP)
	003636	010146 				 MOV	R1,-(SP)
	003640	010046 				 MOV	R0,-(SP)
   4139	003642					CALL	.CESCK		; ...SEE IF CLOCK ERROR STOP IS UP
	003642	004737 	000000'			 JSR	PC,.CESCK
   4140	003646	012702 	000310 			MOV	#^D200,R2	; ...TIMEOUT COUNT TO R2
   4141	003652				10$:
   4142	003652	005001 				CLR	R1		; ...CLEAR R1
   4143	003654	012700 	000004 			MOV	#FX.MBC,R0	; ...DO ONE MBOX CLOCK
   4144	003660					CALL	.FXCT		; ...DO IT
	003660	004737 	004566'			 JSR	PC,.FXCT
   4145	003664	012700 	000210 			MOV	#FR.104,R0	; ...READ STATE OF [CLK EBX SRC H]
   4146	003670					CALL	.FREAD		; ...DO IT
	003670	004737 	004362'			 JSR	PC,.FREAD
   4147	003674	032710 	000004 			BIT	#BIT02,(R0)	; ...IS IT THERE?
   4151	003700	001001 				BNE	20$		; ...YES -- SYNCH THE CLOCK AND EXIT
   4152	003702	077215 				SOB	R2,10$		; ...NO -- LOOP TILL COUNT EXHAUSTED
   4153	003704				20$:
   4154	003704	005702 				TST	R2		; ...WHAT'S IN R2?
   4155	003706	003405 				BLE	EBCECT		; ...TIMED OUT IF .LE. 0
   4156	003710					POP	<R0,R1,R2>	; ...RESTORE CALLER'S REGISTERS
	003710	012600 				 MOV	(SP)+,R0
	003712	012601 				 MOV	(SP)+,R1
	003714	012602 				 MOV	(SP)+,R2
   4157	003716					CALLR	.SYNXC		; FORCE SYNCH THE CLOCK AND EXIT
	003716	000137 	007454'			 JMP	.SYNXC
   4158						;
   4159	003722				EBCECT:
   4160	003722					ERROR$	ECT		; ERROR -- EBOX CLOCK TIME OUT
	003722	012746 	017714 			 MOV	#^RECT,-(SP)
	003726	104400 				 TRAP	TC.ERR
   4161						;
KL10F -- KL10 FUNCTION MODULE  	MACRO M1113  10-NOV-81 17:44  PAGE 98
.EXDPM -- KL MEMORY EXAMINE / DEPOSIT SUBROUTINE 7702.24

   4163					.SBTTL	.EXDPM -- KL MEMORY EXAMINE / DEPOSIT SUBROUTINE 7702.24
   4164
   4165					;+
   4166					; .EXKLM -- SUBROUTINE TO EXAMINE KL MEMORY.
   4167					; .DPKLM -- SUBROUTINE TO DEPOSIT KL MEMORY.
   4168					;
   4169					; THIS SUBROUTINE EXAMINES OR DEPOSITS ONE LOCATION OF KL MEMORY.
   4170					;
   4171					; INPUT ARGUMENTS:
   4172					;
   4173					; R0 MUST CONTAIN ONE OF THE FOLLOWING ADDRESS SPACE CODES:
   4174					;
   4175					;	(A) ED.EPT (000) EXEC PROCESS TABLE (RELATIVE),
   4176					;	(B) ED.EXV (040) EXEC VIRTUAL ADDRESS SPACE,
   4177					;	(C) ED.UPT (100) USER PROCESS TABLE (RELATIVE),
   4178					;	(D) ED.USV (140) USER VIRTUAL ADDRESS SPACE,
   4179					;	(E) ED.PHY (200) PHYSICAL ADDRESS SPACE.
   4180					;
   4181					; R1 MUST CONTAIN A POINTER TO A TWO WORD POINTER BLOCK OF THE FORM:
   4182					;
   4183					;		!===================================!
   4184					;	00	!      POINTER TO KL ADDRESS	    !
   4185					;		!-----------------------------------!
   4186					;	02	!       POINTER TO KL DATA	    !
   4187					;		!===================================!
   4188					;
   4189					; THE KL ADDRESS POINTER MUST POINT TO A TWO WORD BLOCK OF THE FORM:
   4190					;
   4191					;		!===================================!
   4192					;	00	!	  KL ADDRESS 20 - 35	    !
   4193					;		!-----------------------------------!
   4194					;	02	!	  KL ADDRESS 19 - 14	    !
   4195					;		!===================================!
   4196					;
   4197					; THE KL DATA POINTER POINTS TO A TRIPLET IN DEXWORD FORMAT.
   4198					;
   4199					; OUTPUT ARGUMENTS:
   4200					;
   4201					;	SAME AS INPUT ARGUMENTS.
   4202					;
   4203					; ERROR CODES RETURNED:
   4204					;
   4205					;	ESD -- EBOX STOPPED - DEPOSIT.
   4206					;	ESE -- EBOX STOPPED - EXAMINE.
   4207					;	EMF -- EXAMINE KL MEMORY FAILED.
   4208					;	DMF -- DEPOSIT KL MEMORY FAILED.
   4209					;-
KL10F -- KL10 FUNCTION MODULE  	MACRO M1113  10-NOV-81 17:44  PAGE 99
.EXDPM -- KL MEMORY EXAMINE / DEPOSIT SUBROUTINE 7702.24

   4211						.ENABL	LSB
   4212
   4213	003730				.EXKLM::
   4214	003730					PUSH	<R2,R3>		; SAVE R2 AND R3 ON THE STACK
	003730	010246 				 MOV	R2,-(SP)
	003732	010346 				 MOV	R3,-(SP)
   4215	003734	012702 	004170'			MOV	#.ETAB,R2	; ..POINTER TO EXAMINE TABLE
   4216	003740					CALL	.EXDPM		; ..GO DO EXAMINE
	003740	004737 	004020'			 JSR	PC,.EXDPM
   4223	003744	032737 	000010 	000232'		BIT	#TR.EXM,.TRKWD	; ..ARE WE TRACKING EXAMINES?
   4224	003752	001417 				BEQ	10$		; ..NO -- GO ON
   4225	003754					CALL	.EXTRK		; ..YES -- TRACK IT
	003754	004737 	012426'			 JSR	PC,.EXTRK
   4227	003760	000414 				BR	10$		; ..AND GO AWAY
   4228						;
   4229	003762				.DPKLM::
   4230	003762					PUSH	<R2,R3>		; SAVE R2 AND R3 ON THE STACK
	003762	010246 				 MOV	R2,-(SP)
	003764	010346 				 MOV	R3,-(SP)
   4231	003766	012702 	004200'			MOV	#.DTAB,R2	; ..POINTER TO DEPOSIT TABLE
   4232	003772					CALL	.EXDPM		; ..DO THE DEPOSIT
	003772	004737 	004020'			 JSR	PC,.EXDPM
   4239	003776	032737 	000020 	000232'		BIT	#TR.DEP,.TRKWD	; ..ARE WE TRACKING DEPOSITS?
   4240	004004	001402 				BEQ	10$		; ..NO -- GO ON
   4241	004006					CALL	.DPTRK		; ..YES -- TRACK THE DEPOSIT
	004006	004737 	012440'			 JSR	PC,.DPTRK
   4243	004012				10$:
   4244	004012					POP	<R3,R2>		; ..RESTORE R2 AND R3
	004012	012603 				 MOV	(SP)+,R3
	004014	012602 				 MOV	(SP)+,R2
   4245	004016					RETURN			; RETURN TO CALLER
	004016	000207 				 RTS	PC
   4246
   4247						.DSABL	LSB
KL10F -- KL10 FUNCTION MODULE  	MACRO M1113  10-NOV-81 17:44  PAGE 100
.EXDPM -- KL MEMORY EXAMINE / DEPOSIT SUBROUTINE 7702.24

   4249					; THIS IS THE COMMON DEPOSIT / EXAMINE CODE
   4250
   4251	004020				.EXDPM::
   4252	004020	000241 				CLC			; CLEAR CC-C
   4253	004022	012203 				MOV	(R2)+,R3	; GET THE DPB POINTER INTO R3
   4254	004024	110023 				MOVB	R0,(R3)+	; PUT THE MODE INTO THE DPB
   4255	004026	011123 				MOV	(R1),(R3)+	; PUT THE POINTER TO THE KL ADDRESS IN THE DPB
   4256	004030	016113 	000002 			MOV	2(R1),(R3)	; AND DESTINATION POINTER TOO
   4257	004034	011303 				MOV	(R3),R3		; GET ADDRESS OF CALLER'S DATA BLOCK
   4258	004036	042763 	177760 	000004 		BIC	#177760,4(R3)	; CLEAR EXTRANEOUS BITS
   4262	004044					DIR$	(R2)+		; DO THE EXAMINE OR DEPOSIT
	004044	012246 				MOV	(R2)+,-(SP)
	004046	104375 				EMT	375
   4264	004050	103401 				BCS	10$		; ERROR IF CC-C IS SET
   4265	004052					RETURN			; TO CALLER
	004052	000207 				 RTS	PC
   4266	004054				10$:
   4267	004054	022737 	000000G	000000G		CMP	#IE.EBX,$DSW	; IS THE EBOX STOPPED?
   4268	004062	001401 				BEQ	20$		; YES -- EBOX IS STOPPED
   4269	004064	005722 				TST	(R2)+		; NO -- OTHER ERROR
   4270	004066				20$:
   4271	004066					CALL	.CESCK		; SEE IF CLOCK ERROR STOP IS UP
	004066	004737 	000000'			 JSR	PC,.CESCK
   4272	004072	103001 				BCC	25$		; [5.1002]CES SWEEP RETURN?
   4273	004074					RETURN			; [5.1002]YES -- EXIT
	004074	000207 				 RTS	PC
   4274	004076				25$:	CALL	.RESTD		; RESET THE DTE-20 SINCE IT MAY BE CONFUSED
	004076	004737 	007066'			 JSR	PC,.RESTD
   4275	004102	000132 				JMP	@(R2)+		; GIVE THE EXAMINE ERROR TRAP
   4276						;
KL10F -- KL10 FUNCTION MODULE  	MACRO M1113  10-NOV-81 17:44  PAGE 101
.EXDPM -- KL MEMORY EXAMINE / DEPOSIT SUBROUTINE 7702.24

   4278					; TABLES FOR EXAMINE / DEPOSIT KL MEMORY
   4279
   4280	004170				.PSECT	DATA
   4281
   4282	004170				.ETAB:
   4283	004170	000327'				.WORD	.EXDPB+3	; POINTER FOR EXAMINE MODE IN DPB
   4284	004172	000324'				.WORD	.EXDPB		; EXAMINE DPB POINTER
   4285	004174	004120'				.WORD	EXDESE		; EBOX STOPPED - EXAMINE
   4286	004176	004142'				.WORD	EXDEMF		; EXAMINE KL FAILED
   4287
   4288	004200				.DTAB:
   4289	004200	000315'				.WORD	.DPDPB+3	; POINTER FOR DEPOSIT MODE IN DPB
   4290	004202	000312'				.WORD	.DPDPB		; DEPOSIT DPB POINTER
   4291	004204	004104'				.WORD	EXDESD		; EBOX STOPPED - DEPOSIT
   4292	004206	004134'				.WORD	EXDDMF		; DEPOSIT KL FAILED
   4293
   4294	004104				.PSECT
   4295
   4296	004104				EXDESD:
   4297	004104	042737 	100000 	000000G		BIC	#KF.CLK,.KLFLG	; FLAG THE EBOX STOP
   4298	004112					ERROR$	ESD		; ERROR -- EBOX STOPPED - DEPOSIT
	004112	012746 	021074 			 MOV	#^RESD,-(SP)
	004116	104400 				 TRAP	TC.ERR
   4299						;
   4300	004120				EXDESE:
   4301	004120	042737 	100000 	000000G		BIC	#KF.CLK,.KLFLG	; FLAG THE EBOX STOP
   4302	004126					ERROR$	ESE		; ERROR -- EBOX STOPPED - EXAMINE
	004126	012746 	021075 			 MOV	#^RESE,-(SP)
	004132	104400 				 TRAP	TC.ERR
   4303						;
   4304	004134				EXDDMF:
   4305	004134					ERROR$	DMF		; ERROR -- DEPOSIT MEMORY FAILED
	004134	012746 	015416 			 MOV	#^RDMF,-(SP)
	004140	104400 				 TRAP	TC.ERR
   4306						;
   4307	004142				EXDEMF:
   4308	004142					ERROR$	EMF		; ERROR -- EXAMINE MEMORY FAILED
	004142	012746 	020516 			 MOV	#^REMF,-(SP)
	004146	104400 				 TRAP	TC.ERR
   4309						;
KL10F -- KL10 FUNCTION MODULE  	MACRO M1113  10-NOV-81 17:44  PAGE 102
.EXDPM -- KL MEMORY EXAMINE / DEPOSIT SUBROUTINE 7702.24

   4311					; DPB FOR PRIVILEGED DEPOSIT
   4312
   4313					;	!===============================================!
   4314					; 00	!	DPB SIZE	!	  DIC		!
   4315					;	!-----------------------------------------------!
   4316					; 02	!    DEPOSIT TYPE	!    DIRECTIVE CODE	!
   4317					;	!-----------------------------------------------!
   4318					; 04	!	  KL DEPOSIT ADDRESS POINTER		!
   4319					;	!-----------------------------------------------!
   4320					; 06	!	   KL DEPOSIT DATA POINTER		!
   4321					;	!-----------------------------------------------!
   4322					; 10	!		DTE-20 NUMBER			!
   4323					;	!===============================================!
   4324
   4325	000312				.PSECT	DPBS
   4326
   4327	000312				.DPDPB::
   4328	000312					PRDP$	0,.EDKLA,.DPBFR,ED.PHY
	000312	   011 	   005 			.BYTE	DR.DTE,5
	000314	   016 	   200 			.BYTE	DF.PDP,ED.PHY
	000316	000104'				.WORD	.EDKLA
	000320	000066'				.WORD	.DPBFR
	000322	000000 				.WORD	0
   4329		000322'			DPDTEN==.-2
   4330
   4331					; DPB FOR PRIVILEGED EXAMINE
   4332
   4333					;	!===============================================!
   4334					; 00	!	DPB SIZE	!	  DIC		!
   4335					;	!-----------------------------------------------!
   4336					; 02	!    EXAMINE TYPE	!    DIRECTIVE CODE	!
   4337					;	!-----------------------------------------------!
   4338					; 04	!	    KL ADDRESS WORD POINTER		!
   4339					;	!-----------------------------------------------!
   4340					; 06	!	     DATA DESTINATION POINTER		!
   4341					;	!-----------------------------------------------!
   4342					; 10	!		DTE-20 NUMBER			!
   4343					;	!===============================================!
   4344
   4345	000324				.EXDPB::
   4346	000324					PREX$	0,.EDKLA,.EXBFR,ED.PHY
	000324	   011 	   005 			.BYTE	DR.DTE,5
	000326	   015 	   200 			.BYTE	DF.PEX,ED.PHY
	000330	000104'				.WORD	.EDKLA
	000332	000124'				.WORD	.EXBFR
	000334	000000 				.WORD	0
   4347		000334'			EXDTEN==.-2
   4348
   4349	004150				.PSECT
KL10F -- KL10 FUNCTION MODULE  	MACRO M1113  10-NOV-81 17:44  PAGE 103
.EXCTF -- FAST INTERNAL EXECUTE 7602.17

   4351					.SBTTL	.EXCTF -- FAST INTERNAL EXECUTE 7602.17
   4352
   4353					;+
   4354					; .EXCTF -- FST INTERNAL EXECUTE.
   4355					;
   4356					; THIS SUBROUTINE WILL EXECUTE A KL INSTRUCTION WITHOUT
   4357					; CLOCKING THE KL OUT THE HALT LOOP; THE KL IS SIMPLY
   4358					; CONTINUED
   4359					;
   4360					; INPUT ARGUMENTS:
   4361					;
   4362					;	NONE.
   4363					;
   4364					; OUTPUT ARGUMENTS:
   4365					;
   4366					;	NONE.
   4367					;
   4368					; ERROR CODES RETURNED:
   4369					;
   4370					;	NONE
   4371					;-
   4372
   4373	004150				.EXCTF::
   4374	004150					PUSH	.KLFLG		; SAVE ".KLFLG"
	004150	013746 	000000G			 MOV	.KLFLG,-(SP)
   4375	004154	005116 				COM	(SP)		; .INVERT IT
   4376	004156	032716 	140000 			BIT	#KF.CLK!KF.RUN,(SP)
   4377	004162	001013 				BNE	10$		; .NOT REALLY RUNNING -- DO OTHER XCT
   4378	004164	005116 				COM	(SP)		; .RESET SAVED ".KLFLG"
   4379	004166					PUSH	R0		; .SAVE R0
	004166	010046 				 MOV	R0,-(SP)
   4380	004170					CALL	.STPKL		; ..STOP THE KL
	004170	004737 	007256'			 JSR	PC,.STPKL
   4381	004174					POP	R1		; ..INSTRUCTION POINTER TO R1
	004174	012601 				 MOV	(SP)+,R1
   4382	004176					CALL	.KLXCT		; .EXECUTE THE INSTRUCTION
	004176	004737 	005426'			 JSR	PC,.KLXCT
   4383	004202					POP	.SVKLF		; .SET UP ".SVKLF"
	004202	012637 	000226'			 MOV	(SP)+,.SVKLF
   4384	004206					CALLR	.RSTKL		; RESTART THE KL
	004206	000137 	007204'			 JMP	.RSTKL
   4385						;
   4386	004212				10$:
   4387	004212	005726 				TST	(SP)+		; .FLUSH THE STACK
   4388	004214	022020 				CMP	(R0)+,(R0)+	; ADVANCE THE POINTER
   4389	004216					PUSH	<(R0),-(R0),-(R0)>
	004216	011046 				 MOV	(R0),-(SP)
	004220	014046 				 MOV	-(R0),-(SP)
	004222	014046 				 MOV	-(R0),-(SP)
   4390	004224	010600 				MOV	SP,R0		; ...POINT TO STACKED INSTRUCTION
   4391
   4392					;	[CONTINUED ON THE FOLLOWING PAGE]
KL10F -- KL10 FUNCTION MODULE  	MACRO M1113  10-NOV-81 17:44  PAGE 104
.EXCTF -- FAST INTERNAL EXECUTE 7602.17

   4394					;	[CONTINUED FROM THE PREVIOUS PAGE]
   4395
   4396	004226				.EXECT::
   4397	004226	010001 				MOV	R0,R1		; ...POINTER TO R1
   4398	004230					PUSH	.KLFLG		; ...SAVE ".KLFLG"
	004230	013746 	000000G			 MOV	.KLFLG,-(SP)
   4399	004234					CALL	.KLXCT		; ....START THE EXECUTE
	004234	004737 	005426'			 JSR	PC,.KLXCT
   4400	004240				10$:
   4401	004240					CALL	.EBCLK		; ....GIVE ONE EBOX CLOCK
	004240	004737 	003634'			 JSR	PC,.EBCLK
   4402	004244					CALL	.DTDW1		; ....READ DTE-20 DIAG WORD 1
	004244	004737 	003530'			 JSR	PC,.DTDW1
   4403	004250	032700 	001000 			BIT	#D1.HLP,R0	; ....IS THE HALT LOOP UP?
   4405	004254	001371 				BNE	10$		; ....YES -- WAIT TILL IT ISN'T
   4407	004256					CALL	.STCLK		; ....OUT OF HALT LOOP -- START THE CLOCK
	004256	004737 	007232'			 JSR	PC,.STCLK
   4408	004262	012701 	005000 			MOV	#5000,R1	; ....WAIT COUNT TO R1
   4409	004266				20$:
   4410	004266					CALL	.DTDW1		; ....READ DTE-20 DIAG WORD 1
	004266	004737 	003530'			 JSR	PC,.DTDW1
   4411	004272	032700 	001000 			BIT	#D1.HLP,R0	; ....LOOK FOR THE HALT LOOP AGAIN
   4415	004276	001002 				BNE	30$		; ....IN THE HALT LOOP -- FINISH UP
   4416	004300	077106 				SOB	R1,20$		; ....NOT YET -- TRY AGAIN
   4417	004302	000424 				BR	EXECTO		; ....EXECUTE TIMED OUT
   4418						;
   4419	004304				30$:
   4420	004304	005116 				COM	(SP)		; ....INVERT OLD ".KLFLG"
   4421	004306	032716 	140000 			BIT	#KF.CLK!KF.RUN,(SP) ; ....WAS THE KL RUNNING??
   4422	004312	001003 				BNE	40$		; ....NO -- GO ON
   4423	004314					CALL	.KLCON		; ....YES -- CONTINUE THE KL
	004314	004737 	004736'			 JSR	PC,.KLCON
   4424	004320	000412 				BR	60$		; ....AND EXIT
   4425						;
   4426	004322				40$:
   4427	004322	032716 	100000 			BIT	#KF.CLK,(SP)	; ....WAS THE CLOCK ON?
   4428	004326	001402 				BEQ	50$		; ....YES -- GO ON
   4429	004330					CALL	.STPXC		; ....NO -- STOP IT
	004330	004737 	007302'			 JSR	PC,.STPXC
   4430	004334				50$:
   4431	004334	032716 	040000 			BIT	#KF.RUN,(SP)	; ....WAS THE RUN FLOP ON??
   4432	004340	001002 				BNE	60$		; ....NO -- GO ON
   4433	004342					CALL	.STRUN		; ....YES -- SET IT
	004342	004737 	007332'			 JSR	PC,.STRUN
   4434	004346				60$:
   4435	004346	062706 	000010 			ADD	#^D8,SP		; ....RESET THE STACK
   4436	004352					RETURN			; AND EXIT
	004352	000207 				 RTS	PC
   4437	004354				EXECTO:
   4438	004354					ERROR$	XTO		; ERROR -- EXECUTE TIMED OUT
	004354	012746 	114457 			 MOV	#^RXTO,-(SP)
	004360	104400 				 TRAP	TC.ERR
   4439						;
KL10F -- KL10 FUNCTION MODULE  	MACRO M1113  10-NOV-81 17:44  PAGE 105
.FREAD -- DIAGNOSTIC FUNCTION READ SUBROUTINE 7609.15

   4441					.SBTTL	.FREAD -- DIAGNOSTIC FUNCTION READ SUBROUTINE 7609.15
   4442
   4443					;+
   4444					; .FREAD -- SUBROUTINE TO EXECUTE A DIAGNOSTIC FUNCTION READ.
   4445					;
   4446					; THESE SUBROUTINES EXECUTE A DIAGNOSTIC FUNCTION READ.
   4447					;
   4448					; SEQUENCE OF OPERATION:
   4449					;
   4450					;	THE DFR IS EXECUTED AND DATA LOADED THRU R1 IF R1 .NE. 0,
   4451					;	IF R1 IS .EQ. 0 THE DATA IS NOT MOVED FROM ".DFRB".
   4452					;
   4453					; INPUT ARGUMENTS:
   4454					;
   4455					;	R0 HOLDS THE FUNCTION READ CODE
   4456					;	R1 POINTS TO A DESTINATION BUFFER
   4457					;
   4458					; OUTPUT ARGUMENTS:
   4459					;
   4460					;	R0 POINTS TO THE SUBROUTINE DATA BLOCK
   4461					;	R1 POINTS TO THE CALLER'S READ BLOCK
   4462					;
   4463					; ERROR CODES RETURNED:
   4464					;
   4465					;	FRF -- FUNCTION READ FAILED.
   4466					;-
KL10F -- KL10 FUNCTION MODULE  	MACRO M1113  10-NOV-81 17:44  PAGE 106
.FREAD -- DIAGNOSTIC FUNCTION READ SUBROUTINE 7609.15

   4468	004362				.FREAD::
   4469	004362	110037 	000341'			MOVB	R0,.KLDFR+3	; SET THE DFR# IN THE DPB
   4473	004366					DIR$	#.KLDFR		; CALL THE EXEC TO DO THE READ
	004366	012746 	000336'			MOV	#.KLDFR,-(SP)
	004372	104375 				EMT	375
   4475	004374	103420 				BCS	FRDFRF		; ERROR IF CC-C IS SET
   4476	004376	012700 	000312'			MOV	#.DFRB,R0	; POINT TO TOP OF READ BLOCK
   4477	004402	005701 				TST	R1		; TEST R1
   4478	004404	001405 				BEQ	10$		; EXIT IF R1 .EQ. 0
   4479	004406	012021 				MOV	(R0)+,(R1)+	; LOAD HIS BUFFER FROM OURS
   4480	004410	012021 				MOV	(R0)+,(R1)+
   4481	004412	011011 				MOV	(R0),(R1)
   4482	004414	024040 				CMP	-(R0),-(R0)	; BACK THE POINTERS UP
   4483	004416	024141 				CMP	-(R1),-(R1)
   4484	004420				10$:
   4486	004420	032737 	000002 	000232'		BIT	#TR.FRD,.TRKWD	; ARE WE TRACKING FUNCTION READS?
   4487	004426	001402 				BEQ	20$		; NO -- JUST EXIT
   4488	004430					CALL	.FRTRK		; YES -- DO IT
	004430	004737 	012156'			 JSR	PC,.FRTRK
   4489	004434				20$:
   4491	004434					RETURN			; TO CALLER
	004434	000207 				 RTS	PC
   4492	004436				FRDFRF:
   4493	004436					ERROR$	FRF		; ERROR -- FUNCTION READ FAILED
	004436	012746 	024126 			 MOV	#^RFRF,-(SP)
	004442	104400 				 TRAP	TC.ERR
   4494						;
   4495
   4496					; DPB FOR DIAGNOSTIC FUNCTION READ
   4497
   4498					;	!===============================================!
   4499					; 00	!	DPB SIZE	!	DIC		!
   4500					;	!-----------------------------------------------!
   4501					; 02	!	DFR OPCODE	!	DFR CODE	!
   4502					;	!-----------------------------------------------!
   4503					; 04	!	    TRANSFER BUFFER ADDRESS		!
   4504					;	!-----------------------------------------------!
   4505					; 06	!	DIAGNOSTIC REGISTER BUFFER ADDRESS	!
   4506					;	!-----------------------------------------------!
   4507					; 10	!		DTE-20 NUMBER			!
   4508					;	!===============================================!
   4509
   4510	000336				.PSECT	DPBS
   4511
   4512	000336				.KLDFR::
   4513	000336					KLDR$	.-.,.DFBLK,.DREG,0
	000336	002411 				.WORD	400*5.+DR.DTE
	000340	   012 	   000 			.BYTE	DF.KLR,.-./400
	000342	000304'				.WORD	.DFBLK
	000344	000320'				.WORD	.DREG
	000346	000000 				.WORD	0
   4514		000346'			FRDTEN==.-2
   4515
   4516	004444				.PSECT
KL10F -- KL10 FUNCTION MODULE  	MACRO M1113  10-NOV-81 17:44  PAGE 107
.FWRIT -- DIAGNOSTIC FUNCTION WRITE SUBROUTINE 7609.15

   4518					.SBTTL	.FWRIT -- DIAGNOSTIC FUNCTION WRITE SUBROUTINE 7609.15
   4519
   4520					;+
   4521					; .FWRIT -- SUBROUTINE TO EXECUTE A DIAGNOSTIC FUNCTION WRITE.
   4522					;
   4523					; THESE SUBROUTINES EXECUTE A DIAGNOSTIC FUNCTION WRITE.
   4524					;
   4525					; SEQUENCE OF OPERATION:
   4526					;
   4527					; .FWRIT:
   4528					;
   4529					;	(A) THE DATA IS LOADED THRU R1 IF R1 .NE. 0,
   4530					;	    IF R1 IS .EQ. 0 THE DATA IS ASSUMED TO BE IN ".DFWB",
   4531					;	(B) THE FUNCTION WRITE IS EXECUTED.
   4532					;
   4533					; INPUT ARGUMENTS:
   4534					;
   4535					;	R0 HOLDS THE FUNCTION WRITE CODE
   4536					;	R1 POINTS TO A SOURCE BUFFER
   4537					;
   4538					; OUTPUT ARGUMENTS:
   4539					;
   4540					;	R0 POINTS TO THE SUBROUTINE DATA BLOCK
   4541					;	R1 POINTS TO THE CALLER'S WRITE BLOCK
   4542					;
   4543					; ERROR CODES RETURNED:
   4544					;
   4545					;	FWF -- FUNCTION WRITE FAILED.
   4546					;-
   4547
   4548	004444				.FWRIT::
   4549	004444	110037 	000353'			MOVB	R0,.KLDFW+3	; SET THE DFW# IN THE DPB
   4550	004450	012700 	000304'			MOV	#.DFWB,R0	; POINT TO TOP OF WRITE BLOCK
   4551	004454	005701 				TST	R1		; TEST R1
   4552	004456	001405 				BEQ	10$		; ALREADY IN ".DFWB" IF R1 .EQ. 0
   4553	004460	012120 				MOV	(R1)+,(R0)+	; LOAD THE DATA BLOCK
   4554	004462	012120 				MOV	(R1)+,(R0)+
   4555	004464	011110 				MOV	(R1),(R0)
   4556	004466	024040 				CMP	-(R0),-(R0)	; BACK THE POINTERS UP
   4557	004470	024141 				CMP	-(R1),-(R1)
   4558
   4559
   4560					;	[CONTINUED ON THE FOLLOWING PAGE]
KL10F -- KL10 FUNCTION MODULE  	MACRO M1113  10-NOV-81 17:44  PAGE 108
.FWRIT -- DIAGNOSTIC FUNCTION WRITE SUBROUTINE 7609.15

   4562					;	[CONTINUED FROM THE PREVIOUS PAGE]
   4563
   4564	004472				10$:
   4565	004472	042760 	177760 	000004 		BIC	#177760,4(R0)	; FLUSH EXTRANEOUS BITS
   4569	004500					DIR$	#.KLDFW		; CALL THE EXEC TO DO THE WRITE
	004500	012746 	000350'			MOV	#.KLDFW,-(SP)
	004504	104375 				EMT	375
   4571	004506	103424 				BCS	FWRFWF		; ERROR IF CC-C IS SET
   4572	004510					PUSH	R0		; SAVE THE BUFFER POINTER
	004510	010046 				 MOV	R0,-(SP)
   4573	004512	113700 	000353'			MOVB	.KLDFW+3,R0	; .GET THE WRITE CODE
   4574	004516	120027 	000110 			CMPB	R0,#FW.044	; .DID WE WRITE THE CLOCK BOARD?
   4575	004522	002406 				BLT	20$		; .NO -- JUST EXIT
   4576	004524	120027 	000116 			CMPB	R0,#FW.047	; .MAYBE -- DID WE REALLY?
   4577	004530	003003 				BGT	20$		; .NO -- JUST EXIT
   4578	004532	042737 	100000 	000000G		BIC	#KF.CLK,.KLFLG	; .YES -- TURN THE CLOCK BIT OFF
   4579	004540				20$:
   4581	004540	032737 	000004 	000232'		BIT	#TR.FWR,.TRKWD	; .ARE WE TRACKING FUNCTION WRITES?
   4582	004546	001402 				BEQ	30$		; .NO -- GO ON
   4583	004550					CALL	.FWTRK		; .YES -- LEAVE TRACKS ON CONSOLE
	004550	004737 	012176'			 JSR	PC,.FWTRK
   4584	004554				30$:
   4586	004554					POP	R0		; .RESTORE THE BUFFER POINTER
	004554	012600 				 MOV	(SP)+,R0
   4587	004556					RETURN			; YES -- RETURN TO CALLER
	004556	000207 				 RTS	PC
   4588
   4589	004560				FWRFWF:
   4590	004560					ERROR$	FWF		; ERROR -- FUNCTION WRITE FAILED
	004560	012746 	024436 			 MOV	#^RFWF,-(SP)
	004564	104400 				 TRAP	TC.ERR
   4591						;
   4592
   4593					; DPB FOR DIAGNOSTIC FUNCTION WRITE
   4594
   4595					;	!===============================================!
   4596					; 00	!	DPB SIZE	!	DIC		!
   4597					;	!-----------------------------------------------!
   4598					; 02	!	DFW OPCODE	!	DFW CODE	!
   4599					;	!-----------------------------------------------!
   4600					; 04	!	   TRANSFER BUFFER ADDRESS		!
   4601					;	!-----------------------------------------------!
   4602					; 06	!	DIAGNOSTIC REGISTER BUFFER ADDRESS	!
   4603					;	!-----------------------------------------------!
   4604					; 10	!		DTE-20 NUMBER			!
   4605					;	!===============================================!
   4606
   4607	000350				.PSECT	DPBS
   4608
   4609	000350				.KLDFW::
   4610	000350					KLDW$	.-.,.DFBLK,.DREG,0
	000350	002411 				.WORD	400*5.+DR.DTE
	000352	   013 	   000 			.BYTE	DF.KLW,.-./400
	000354	000304'				.WORD	.DFBLK
	000356	000320'				.WORD	.DREG
	000360	000000 				.WORD		0
   4611		000360'			FWDTEN==.-2
KL10F -- KL10 FUNCTION MODULE  	MACRO M1113  10-NOV-81 17:44  PAGE 108-1
.FWRIT -- DIAGNOSTIC FUNCTION WRITE SUBROUTINE 7609.15

   4612
   4613	004566				.PSECT
KL10F -- KL10 FUNCTION MODULE  	MACRO M1113  10-NOV-81 17:44  PAGE 109
.FXCT  -- DIAGNOSTIC FUNCTION EXECUTE SUBROUTINE 7609.15

   4615					.SBTTL	.FXCT  -- DIAGNOSTIC FUNCTION EXECUTE SUBROUTINE 7609.15
   4616					;+
   4617					; .FXCT -- SUBROUTINE TO EXECUTE A DIAGNOSTIC FUNCTION EXECUTE.
   4618					;
   4619					; THESE SUBROUTINES EXECUTE A DIAGNOSTIC FUNCTION EXECUTE AND MAINTAIN
   4620					; THE STATE OF THE KL CLOCK ("KF.CLK") AND RUN FLOP ("KF.RUN") FLAGS
   4621					; IN THE KL STATE FLAG WORD, ".KLFLG".
   4622					;
   4623					; SEQUENCE OF OPERATION:
   4624					;
   4625					;	THE DFX IS SIMPLY EXECUTED.
   4626					;
   4627					; INPUT ARGUMENTS:
   4628					;
   4629					;	R0 CONTAINS THE FUNCTION EXECUTE CODE
   4630					;
   4631					; OUTPUT ARGUMENTS:
   4632					;
   4633					;	NONE.
   4634					;
   4635					; ERROR CODES RETURNED:
   4636					;
   4637					;	FXF -- FUNCTION EXECUTE FAILED.
   4638					;-
KL10F -- KL10 FUNCTION MODULE  	MACRO M1113  10-NOV-81 17:44  PAGE 110
.FXCT  -- DIAGNOSTIC FUNCTION EXECUTE SUBROUTINE 7609.15

   4640	004566				.FXCT::
   4641	004566	110037 	000365'			MOVB	R0,.KLDFX+3	; SET THE EXECUTE CODE IN THE DPB
   4645	004572					DIR$	#.KLDFX		; CALL THE EXEC TO DO THE DFX
	004572	012746 	000362'			MOV	#.KLDFX,-(SP)
	004576	104375 				EMT	375
   4647	004600	103453 				BCS	FXCFXF		; ERROR IF CC-C IS SET
   4648	004602	113746 	000365'			MOVB	.KLDFX+3,-(SP)	; PUT THE EXECUTE CODE ON THE STACK
   4649	004606	012700 	100000 			MOV	#KF.CLK,R0	; .FLAG BIT TO R0
   4650	004612	121627 	000002 			CMPB	(SP),#FX.CST	; .IS DFX CODE .EQ. 1?
   4651	004616	001411 				BEQ	10$		; .YES -- DO CLOCK STARTED STUFF
   4652	004620	121627 	000016 			CMPB	(SP),#FX.SMR	; .NO -- IS DFX CODE .GT. 7?
   4653	004624	101014 				BHI	20$		; .YES -- LEAVE NOW
   4654	004626	030037 	000000G			BIT	R0,.KLFLG	; .NO -- IS THE FLAG OFF ALREADY?
   4655	004632	001426 				BEQ	40$		; .YES -- LEAVE NOW
   4656	004634	040037 	000000G			BIC	R0,.KLFLG	; .NO -- TURN IF OFF
   4657	004640	000423 				BR	40$		; .AND GO AWAY
   4658						;
   4659	004642				10$:
   4660	004642	030037 	000000G			BIT	R0,.KLFLG	; .IS THE FLAG ON ALREADY?
   4661	004646	001020 				BNE	40$		; .YES -- LEAVE NOW
   4662	004650	050037 	000000G			BIS	R0,.KLFLG	; .NO -- LIGHT IT UP
   4663	004654	000415 				BR	40$		; .AND EXIT
   4664						;
   4665	004656				20$:
   4666	004656	012700 	040000 			MOV	#KF.RUN,R0	; .DO RUN FLAG STUFF
   4667	004662	121627 	000022 			CMPB	(SP),#FX.SRF	; .SET THE RUN FLOP?
   4668	004666	001003 				BNE	30$		; .NO -- GO ON
   4669	004670	050037 	000000G			BIS	R0,.KLFLG	; .YES -- SET THE FLAG
   4670	004674	000405 				BR	40$		; .AND GO AWAY
   4671						;
   4672	004676				30$:
   4673	004676	121627 	000020 			CMPB	(SP),#FX.CRF	; .CLEAR RUN FLOP?
   4674	004702	001002 				BNE	40$		; .NO  -- JUST GO AWAY
   4675	004704	040037 	000000G			BIC	R0,.KLFLG	; .YES -- CLEAR THE FLAG
   4676
   4677					;	[CONTINUED ON THE FOLLOWING PAGE]
KL10F -- KL10 FUNCTION MODULE  	MACRO M1113  10-NOV-81 17:44  PAGE 111
.FXCT  -- DIAGNOSTIC FUNCTION EXECUTE SUBROUTINE 7609.15

   4679					;	[CONTINUED FROM THE PREVIOUS PAGE]
   4680
   4681	004710				40$:
   4683	004710	032737 	000001 	000232'		BIT	#TR.FXC,.TRKWD	; .ARE WE TRACKING FUNCTION EXECUTES?
   4684	004716	001402 				BEQ	50$		; .NO -- JUST EXIT
   4685	004720					CALL	.FXTRK		; .YES -- DO IT
	004720	004737 	012216'			 JSR	PC,.FXTRK
   4686	004724				50$:
   4688	004724					POP	R0		; .RESTORE R0
	004724	012600 				 MOV	(SP)+,R0
   4689	004726					RETURN			; TO CALLER
	004726	000207 				 RTS	PC
   4690	004730				FXCFXF:
   4691	004730					ERROR$	FXF		; FUNCTION EXECUTE FAILED
	004730	012746 	024506 			 MOV	#^RFXF,-(SP)
	004734	104400 				 TRAP	TC.ERR
   4692						;
   4693
   4694					; DIRECTIVE PARAMETER BLOCK DIAGNOSTIC FUNCTION EXECUTE
   4695
   4696					;	!===============================================!
   4697					; 00	!	DPB SIZE	!	DIC		!
   4698					;	!-----------------------------------------------!
   4699					; 02	!	DFX OPCODE	!	DFX CODE	!
   4700					;	!-----------------------------------------------!
   4701					; 04	!	    TRANSFER BUFFER ADDRESS		!
   4702					;	!-----------------------------------------------!
   4703					; 06	!	DIAGNOSTIC REGISTER BUFFER ADDRESS	!
   4704					;	!-----------------------------------------------!
   4705					; 10	!		DTE-20 NUMBER			!
   4706					;	!===============================================!
   4707
   4708
   4709	000362				.PSECT	DPBS
   4710
   4711	000362				.KLDFX::
   4712	000362					KLDX$	.-.,.DFBLK,.DREG,0
	000362	002411 				.WORD	400*5.+DR.DTE
	000364	   014 	   000 			.BYTE	DF.KLX,.-./400
	000366	000304'				.WORD	.DFBLK
	000370	000320'				.WORD	.DREG
	000372	000000 				.WORD	0
   4713		000372'			FXDTEN==.-2
   4714
   4715	004736				.PSECT
KL10F -- KL10 FUNCTION MODULE  	MACRO M1113  10-NOV-81 17:44  PAGE 112
.KLCON -- KL CONTINUE SUBROUTINE 7710.11

   4717					.SBTTL	.KLCON -- KL CONTINUE SUBROUTINE 7710.11
   4718
   4719					;+
   4720					; .KLCON -- SUBROUTINE TO CONTINUE THE KL.
   4721					; .KLGO -- SUBROUTINE TO FINISH STARTING THE KL.
   4722					;
   4723					; THIS SUBROUTINE STARTS THE KL CLOCK AND SETS THE KL
   4724					; RUN FLOP ".KLCON" SETS THE CONTINUE FLOP PRIOR TO THIS.
   4725					;
   4726					; SEQUENCE OF OPERATION:
   4727					;
   4728					; .KLCON:
   4729					;
   4730					;	(A) THE KL CONTINUE FLOP IS SET,
   4731					;
   4732					; .KLGO:
   4733					;
   4734					;	(A) THE KL CLOCK IS STARTED IF NOT IN SINGLE PULSE MODE,
   4735					;	(B) THE KL RUN FLOP IS SET IF NOT IN SINGLE INSTRUCTION MODE
   4736					;	    OR SINGLE PULSE MODE.
   4737					;
   4738					; INPUT ARGUMENTS:
   4739					;
   4740					;	NONE.
   4741					;
   4742					; OUTPUT ARGUMENTS:
   4743					;
   4744					;	NONE.
   4745					;
   4746					; ERROR CODES RETURNED:
   4747					;
   4748					;	CFH -- CAN'T FIND KL HALT LOOP.
   4749					;	CSK -- CAN'T START KL.
   4750					;	DSF -- DTE-20 STATUS FAILURE.
   4751					;	FRF -- FUNCTION READ FAILED.
   4752					;	FWF -- FUNCTION WRITE FAILED.
   4753					;	FXF -- FUNCTION EXECUTE FAILED.
   4754					;-
KL10F -- KL10 FUNCTION MODULE  	MACRO M1113  10-NOV-81 17:44  PAGE 113
.KLCON -- KL CONTINUE SUBROUTINE 7710.11

   4756	004736				.KLCON::
   4757	004736					PUSH	R1		; SAVE R1 ON THE STACK
	004736	010146 				 MOV	R1,-(SP)
   4758	004740	012701 	000000G			MOV	#.KLFLG,R1	; .FLAG WORD POINTER TO R1
   4759	004744				.KLGO::
   4760	004744	032711 	002000 			BIT	#KF.SPM,(R1)	; .SINGLE PULSE MODE?
   4761	004750	001027 				BNE	30$		; .YES -- JUST EXIT
   4762	004752	032711 	010000 			BIT	#KF.SIM,(R1)	; .NO -- SINGLE INSTRUCTION MODE?
   4763	004756	001002 				BNE	10$		; .YES -- GO ON
   4764	004760					CALL	.STRUN		; .NO -- SET THE KL RUN FLOP
	004760	004737 	007332'			 JSR	PC,.STRUN
   4765	004764				10$:
   4766	004764	012700 	000024 			MOV	#FX.CON,R0	; .SET THE CONTINUE BUTTON
   4767	004770					CALL	.FXCT		; .DO IT
	004770	004737 	004566'			 JSR	PC,.FXCT
   4768	004774	032711 	100000 			BIT	#KF.CLK,(R1)	; .IS THE CLOCK RUNNING?
   4769	005000	001002 				BNE	20$		; .YES -- EXIT
   4770	005002					CALL	.STCLK		; .NO -- START THE KL CLOCK
	005002	004737 	007232'			 JSR	PC,.STCLK
   4771	005006				20$:
   4772	005006	011100 				MOV	(R1),R0		; .GET ".KLFLG" INTO R0
   4773	005010	005100 				COM	R0		; .INVERT IT
   4774	005012	032700 	140000 			BIT	#KF.CLK!KF.RUN,R0 ; .IS THE KL RUNNING??
   4775	005016	001004 				BNE	30$		; .NO -- JUST EXIT
   4776	005020	052711 	000200 			BIS	#KF.CON,(R1)	; .YES -- KL IS NOW CONTINUEABLE
   4777	005024	105037 	000000G			CLRB	.NOHLT		; .LET RSX20F CATCH KL HALTS
   4778	005030				30$:
   4779	005030					POP	R1		; .RESTORE R1
	005030	012601 				 MOV	(SP)+,R1
   4780	005032					RETURN			; EXIT
	005032	000207 				 RTS	PC
KL10F -- KL10 FUNCTION MODULE  	MACRO M1113  10-NOV-81 17:44  PAGE 114
.KLHLT -- SUBROUTINE TO STOP THE KL IN THE HALT LOOP 7601.09

   4782					.SBTTL	.KLHLT -- SUBROUTINE TO STOP THE KL IN THE HALT LOOP 7601.09
   4783
   4784					;+
   4785					; .KLHLT -- SUBROUTINE TO STOP THE KL IN THE HALT LOOP
   4786					;	    AND SYNCH THE EBOX CLOCK LOW.
   4787					;
   4788					; THIS SUBROUTINE CLEARS THE KL RUN FLOP, GETS THE KL INTO
   4789					; THE MICROCODE HALT LOOP, AND TURNS THE KL CLOCK OFF.
   4790					;
   4791					; SEQUENCE OF OPERATION:
   4792					;
   4793					;	(A) THE KL RUN FLOP IS TURNED OFF,
   4794					;	(B) THE KL IS MOVED INTO THE UCODE HALT LOOP,
   4795					;	(C) A SMALL WAIT IS TIMED OUT (TO LET KL I/O SETTLE)
   4796					;	(D) THE KL CLOCK IS TURNED OFF,
   4797					;	(E) THE KL CLOCK IS SYNCHED LOW.
   4798					;
   4799					; INPUT ARGUMENTS:
   4800					;
   4801					;	NONE.
   4802					;
   4803					; OUTPUT ARGUMENTS:
   4804					;
   4805					;	NONE.
   4806					;
   4807					; ERROR CODES RETURNED:
   4808					;
   4809					;	CFH -- CAN'T FIND KL HALT LOOP.
   4810					;	DSF -- DTE-20 STATUS FAILURE.
   4811					;	FWF -- FUNCTION WRITE FAILED.
   4812					;	FXF -- FUNCTION EXECUTE FAILED.
   4813					;
   4814					; NOTE: THIS SUBROUTINE EXITS WITH THE KL CLOCK OFF.
   4815					;-
   4816
   4817	005034				.KLHLT::
   4818	005034					PUSH	<R0,R1,R2>	; SAVE CALLER'S REGISTERS
	005034	010046 				 MOV	R0,-(SP)
	005036	010146 				 MOV	R1,-(SP)
	005040	010246 				 MOV	R2,-(SP)
   4819	005042					CALL	.DTDW1		; ...READ DIAG WORD 1
	005042	004737 	003530'			 JSR	PC,.DTDW1
   4820	005046	032700 	004000 			BIT	#D1.CES,R0	; ...IS CLOCK ERROR STOP UP?
   4822	005052	001016 				BNE	40$		; ...YES -- JUST EXIT
   4824	005054					CALL	.CLRFF		; ...NO -- CLEAR THE RUN FLOP
	005054	004737 	003420'			 JSR	PC,.CLRFF
   4825	005060	012701 	000024 			MOV	#^D20,R1	; ...SET UP WAIT COUNT
   4826
   4827					;	[CONTINUED ON THE FOLLOWING PAGE]
KL10F -- KL10 FUNCTION MODULE  	MACRO M1113  10-NOV-81 17:44  PAGE 115
.KLHLT -- SUBROUTINE TO STOP THE KL IN THE HALT LOOP 7601.09

   4829					;	[CONTINUED FROM THE PREVIOUS PAGE]
   4830
   4831	005064				10$:
   4832	005064					CALL	.DTDW1		; ...READ THE DTE-20 DIAG WORD 1
	005064	004737 	003530'			 JSR	PC,.DTDW1
   4833	005070	032700 	001000 			BIT	#D1.HLP,R0	; ...IN THE HALT LOOP YET?
   4837	005074	001001 				BNE	20$		; ...YES -- EXIT
   4838	005076	077106 				SOB	R1,10$		; ...NO -- TRY TILL COUNT EXHAUSTED
   4839	005100				20$:
   4840	005100	005701 				TST	R1		; ...IS R1 .GT. 0?
   4841	005102	003407 				BLE	50$		; ...NO -- GO MOVE THE CLOCK MANUALLY
   4842	005104				30$:
   4843	005104					CALL	.STPXC		; ...STOP THE KL CLOCK
	005104	004737 	007302'			 JSR	PC,.STPXC
   4844	005110				40$:
   4845	005110					POP	<R2,R1,R0>	; ...RESTORE CALLER'S REGISTERS
	005110	012602 				 MOV	(SP)+,R2
	005112	012601 				 MOV	(SP)+,R1
	005114	012600 				 MOV	(SP)+,R0
   4846	005116					CALLR	.SYNXC		; SYNCH THE EBOX CLOCK LOW AND EXIT
	005116	000137 	007454'			 JMP	.SYNXC
   4847						;
   4848
   4849					; GET HERE IF WE CAN'T GET INTO HALT LOOP NORMALLY.
   4850					; THIS MEANS THAT:
   4851					;
   4852					;	(A) MICROCODE WASN'T RUNNING, OR
   4853					;	(B) MICROCODE WASN'T LOADED.
   4854
   4855	005122				50$:
   4856	005122					CALL	.STPXC		; ...MAKE SURE THE CLOCK IS OFF
	005122	004737 	007302'			 JSR	PC,.STPXC
   4857	005126	012702 	000012 			MOV	#^D10,R2	; ...ITERATION COUNT TO R2
   4858	005132				60$:
   4859	005132	012700 	000310 			MOV	#^D200,R0	; ...200 (DECIMAL) CLOCKS PER PASS
   4860	005136					CALL	.BURST		; ...BURST THE CLOCK
	005136	004737 	003340'			 JSR	PC,.BURST
   4861	005142					CALL	.DTDW1		; ...READ DTE-20 DIAG WORD 1
	005142	004737 	003530'			 JSR	PC,.DTDW1
   4862	005146	032700 	001000 			BIT	#D1.HLP,R0	; ...ARE WE IN HALT LOOP NOW?
   4866	005152	001354 				BNE	30$		; ...YES -- GO STOP AND SYNCH THE CLOCK
   4867	005154	077212 				SOB	R2,60$		; ...NO -- LOOP TILL COUNT EXHAUSTED
   4868	005156				KLHCFH:
   4869	005156					ERROR$	CFH		; ERROR -- CAN'T FIND HALT LOOP
	005156	012746 	011670 			 MOV	#^RCFH,-(SP)
	005162	104400 				 TRAP	TC.ERR
   4870						;
KL10F -- KL10 FUNCTION MODULE  	MACRO M1113  10-NOV-81 17:44  PAGE 116
.KLST  -- SUBROUTINE TO START THE KL 7512.08

   4872					.SBTTL	.KLST  -- SUBROUTINE TO START THE KL 7512.08
   4873
   4874					; .KLST -- SUBROUTINE TO START THE KL.
   4875					;
   4876					; THIS SUBROUTINE STARTS THE KL FROM THE HALT LOOP AT THE ADDRESS
   4877					; POINTED T0 BY R1 IN THE CALL.
   4878					;
   4879					; SEQUENCE OF OPERATION:
   4880					;
   4881					;	(A) THE KL IS STOPPED IN THE HALT LOOP,
   4882					;	(B) THE PC WORD IS LOADED INTO THE AR REGISTER,
   4883					;	(C) THE KL IS ALLOWED TO RUN THRU ".KLCON".
   4884					;
   4885					; INPUT ARGUMENTS:
   4886					;
   4887					;	R1 POINTS TO A 23 BIT KL ADDRESS
   4888					;
   4889					; OUTPUT ARGUMENTS:
   4890					;
   4891					;	NONE.
   4892					;
   4893					; ERROR CODES RETURNED:
   4894					;
   4895					;	CFH -- CAN'T FIND KL HALT LOOP.
   4896					;	CSK -- CAN'T START KL.
   4897					;	DSF -- DTE-20 STATUS FAILURE.
   4898					;	FRF -- FUNCTION READ FAILED.
   4899					;	FWF -- FUNCTION WRITE FAILED.
   4900					;	FXF -- FUNCTION EXECUTE FAILED.
   4901					;
   4902					; NOTE:
   4903					;
   4904					;	THIS SUBROUTINE IS DEPENDENT UPON MICROCODE VERSION 122.
   4905					;-
   4906
   4907	005164				.KLST::
   4908	005164					PUSH	R1		; SAVE POINTER ON THE STACK
	005164	010146 				 MOV	R1,-(SP)
   4909	005166					CALL	.KLHLT		; .HALT THE KL
	005166	004737 	005034'			 JSR	PC,.KLHLT
   4910	005172	011601 				MOV	(SP),R1		; .GET THE POINTER
   4911	005174	012700 	000176 			MOV	#FW.LAR,R0	; .LOAD THE AR REGISTER
   4912	005200					CALL	.FWRIT		; .DO IT
	005200	004737 	004444'			 JSR	PC,.FWRIT
   4913	005204	012701 	000000G			MOV	#.KLFLG,R1	; .POINT TO ".KLFLG"
   4914	005210	000655 				BR	.KLGO		; .AND FINISH THE START
   4915						;
KL10F -- KL10 FUNCTION MODULE  	MACRO M1113  10-NOV-81 17:44  PAGE 117
.KLSTP -- SUBROUTINE TO GET THE KL INTO THE HALT LOOP 7512.19

   4917					.SBTTL	.KLSTP -- SUBROUTINE TO GET THE KL INTO THE HALT LOOP 7512.19
   4918
   4919					;+
   4920					; .KLSTP -- SUBROUTINE TO PUT THE KL INTO THE HALT LOOP.
   4921					;
   4922					; THIS SUBROUTINE WILL PUT THE KL INTO THE MICROCODE HALT LOOP
   4923					; AND EXIT WITH THE KL CLOCK RUNNING.
   4924					;
   4925					; INPUT ARGUMENTS:
   4926					;
   4927					;	NONE.
   4928					;
   4929					; OUTPUT ARGUMENTS:
   4930					;
   4931					;	NONE.
   4932					;
   4933					; ERROR CODES RETURNED:
   4934					;
   4935					;	CFH -- CAN'T FIND HALT LOOP.
   4936					;	DSF -- DTE-20 STATUS FAILURE.
   4937					;	FXF -- FUNCTION EXECUTE FAILED.
   4938					;-
   4939
   4940	005212				.KLSTP::
   4941	005212	032737 	100000 	000000G		BIT	#KF.CLK,.KLFLG	; IS THE CLOCK OFF?
   4942	005220	001001 				BNE	10$		; NO -- GO ON
   4943	005222	000704 				BR	.KLHLT		; YES -- HALT THE KL
   4944						;
   4945	005224				10$:
   4946	005224					PUSH	<R0,R1>		; SAVE R0 AND R1 ON THE STACK
	005224	010046 				 MOV	R0,-(SP)
	005226	010146 				 MOV	R1,-(SP)
   4947	005230	012701 	000144 			MOV	#^D100,R1	; ..SETUP WAIT COUNT
   4948	005234					CALL	.CLRFF		; ..CLEAR THE RUN FLOP
	005234	004737 	003420'			 JSR	PC,.CLRFF
   4949	005240				20$:
   4950	005240					CALL	.DTDW1		; ..READ DIAG WORD 1
	005240	004737 	003530'			 JSR	PC,.DTDW1
   4951	005244	032700 	001000 			BIT	#D1.HLP,R0	; ..ARE WE IN THE HALT LOOP?
   4955	005250	001001 				BNE	30$		; ..YES -- GO ON
   4956	005252	077106 				SOB	R1,20$		; ..NO -- KEEP TRYING
   4957	005254				30$:
   4958	005254	005701 				TST	R1		; ..IS R1 .GT. 0?
   4959	005256	003403 				BLE	KLSCFH		; ..NO -- GIVE "CFH" ERROR
   4960	005260					POP	<R1,R0>		; ..YES -- RESTORE REGISTERS
	005260	012601 				 MOV	(SP)+,R1
	005262	012600 				 MOV	(SP)+,R0
   4961	005264					RETURN			; TO CALLER
	005264	000207 				 RTS	PC
   4962	005266				KLSCFH:
   4963	005266					ERROR$	CFH		; ERROR -- CAN'T FIND KL HALT LOOP
	005266	012746 	011670 			 MOV	#^RCFH,-(SP)
	005272	104400 				 TRAP	TC.ERR
   4964						;
KL10F -- KL10 FUNCTION MODULE  	MACRO M1113  10-NOV-81 17:44  PAGE 118
.KLRST -- SUBROUTINE TO RESTART THE KL 7512.22

   4966					.SBTTL	.KLRST -- SUBROUTINE TO RESTART THE KL 7512.22
   4967
   4968					;+
   4969					; .KLRST -- SUBROUTINE TO RESTART THE KL.
   4970					;
   4971					; THIS SUBROUTINE WILL RESTART THE KL AS DIRECTED BY ".SVKLF",
   4972					; THE SAVED KL STATE FLAG WORD.
   4973					;
   4974					; INPUT ARGUMENTS:
   4975					;
   4976					;	THE SAVED COPY OF ".KLFLG" IS IN ".SVKLF"
   4977					;
   4978					; OUTPUT ARGUMENTS:
   4979					;
   4980					;	".SVKLF" IS CLEARED.
   4981					;
   4982					; ERROR CODES RETURNED:
   4983					;
   4984					;	CFH -- CAN'T FIND KL HALT LOOP.
   4985					;	DSF -- DTE-20 STATUS FAILURE.
   4986					;	FRF -- FUNCTION READ FAILED.
   4987					;	FWF -- FUNCTION WRITE FAILED.
   4988					;	FXF -- FUNCTION EXECUTE FAILED.
   4989					;-
KL10F -- KL10 FUNCTION MODULE  	MACRO M1113  10-NOV-81 17:44  PAGE 119
.KLRST -- SUBROUTINE TO RESTART THE KL 7512.22

   4991	005274				.KLRST::
   4992	005274					PUSH	<R1,R0>		; SAVE R0 AND R1
	005274	010146 				 MOV	R1,-(SP)
	005276	010046 				 MOV	R0,-(SP)
   4993	005300	013701 	000226'			MOV	.SVKLF,R1	; ..GET COPY OF OLD FLAGS
   4994	005304	032701 	013000 			BIT	#KF.SPM!KF.SIM!KF.BRM,R1
   4995	005310	001016 				BNE	20$		; ..BRANCH IF BURST, SINGLE INSTRUCTION OR PULSE MODE
   4996	005312	005101 				COM	R1		; ..INVERT R1
   4997	005314	032701 	140000 			BIT	#KF.RUN!KF.CLK,R1
   4998	005320	001011 				BNE	10$		; ..BRANCH IF NOT RUNNING
   4999	005322					CALL	.STRUN		; ..SET THE RUN FLOP
	005322	004737 	007332'			 JSR	PC,.STRUN
   5000	005326	012700 	000024 			MOV	#FX.CON,R0	; ..NOW DO THE CONTINUE BUTTON
   5001	005332					CALL	.FXCT		; ..SO
	005332	004737 	004566'			 JSR	PC,.FXCT
   5002	005336	013701 	000226'			MOV	.SVKLF,R1	; ..ELSE GET THE WORD AGAIN
   5003	005342	000406 				BR	30$		; ..AND GO AWAY
   5004						;
   5005	005344				10$:
   5006	005344	005101 				COM	R1		; ..STRAIGHTEN R1 OUT
   5007	005346				20$:
   5008	005346	032701 	040000 			BIT	#KF.RUN,R1	; ..WAS RUN FLOP SET?
   5009	005352	001402 				BEQ	30$		; ..NO -- GO ON
   5010	005354					CALL	.STRUN		; ..YES -- SET THE RUN FLOP
	005354	004737 	007332'			 JSR	PC,.STRUN
   5011	005360				30$:
   5012	005360	032701 	100000 			BIT	#KF.CLK,R1	; ..WAS CLOCK RUNNING?
   5013	005364	001413 				BEQ	40$		; ..NO -- JUST EXIT
   5014	005366	032737 	100000 	000000G		BIT	#KF.CLK,.KLFLG	; ..YES -- IS THE CLOCK ALREADY ON?
   5015	005374	001007 				BNE	40$		; ..YES -- JUST EXIT
   5016	005376					CALL	.STCLK		; ..NO -- START THE CLOCK
	005376	004737 	007232'			 JSR	PC,.STCLK
   5017	005402	032701 	040000 			BIT	#KF.RUN,R1	; ..DID WE LET IT RUN ?
   5018	005406	001402 				BEQ	40$		; ..NO -- JUST EXIT
   5019	005410	105037 	000000G			CLRB	.NOHLT		; ..YES -- LET RSX20F CHECK FOR HALTS
   5020	005414				40$:
   5021	005414					POP	<R0,R1>		; ..RESTORE R0 AND R1
	005414	012600 				 MOV	(SP)+,R0
	005416	012601 				 MOV	(SP)+,R1
   5022	005420	005037 	000226'			CLR	.SVKLF		; RESET ".SVKLF"
   5023	005424					RETURN			; AND EXIT
	005424	000207 				 RTS	PC
KL10F -- KL10 FUNCTION MODULE  	MACRO M1113  10-NOV-81 17:44  PAGE 120
.KLXCT -- KL INSTRUCTION EXECUTE SUBROUTINE 7509.10

   5025					.SBTTL	.KLXCT -- KL INSTRUCTION EXECUTE SUBROUTINE 7509.10
   5026
   5027					;+
   5028					; .KLXCT -- SUBROUTINE TO EXECUTE A KL INSTRUCTION.
   5029					;
   5030					; THIS SUBROUTINE LOADS A KL INSTRUCTION INTO THE AR REGISTER
   5031					; AND CAUSES THAT INSTRUCTION TO BE EXECUTED.
   5032					;
   5033					; SEQUENCE OF OPERATION:
   5034					;
   5035					;	(A) THE KL IS STOPPED IN THE HALT LOOP WITH THE CLOCK OFF,
   5036					;	(B) INSTRUCTION TO BE EXECUTED IS LOADED INTO THE AR,
   5037					;	(C) THE KL CONTINUE FLOP IS SET.
   5038					;
   5039					; INPUT ARGUMENTS:
   5040					;
   5041					;	R1 POINTS TO A 36 BIT KL INSTRUCTION WORD
   5042					;
   5043					; OUTPUT ARGUMENTS:
   5044					;
   5045					;	NONE.
   5046					;
   5047					; ERROR CODES RETURNED:
   5048					;
   5049					;	CFH -- CAN'T FIND KL HALT LOOP.
   5050					;	DSF -- DTE-20 STATUS FAILURE.
   5051					;	FRF -- FUNCTION READ FAILED.
   5052					;	FWF -- FUNCTION WRITE FAILED.
   5053					;	FXF -- FUNCTION EXECUTE FAILED.
   5054					;-
   5055
   5056	005426				.KLXCT::
   5057	005426					CALL	.KLHLT		; STOP THE KL IN THE HALT LOOP
	005426	004737 	005034'			 JSR	PC,.KLHLT
   5058	005432	012700 	000176 			MOV	#FW.LAR,R0	; LOAD THE AR REGISTER
   5059	005436					CALL	.FWRIT		; DO IT
	005436	004737 	004444'			 JSR	PC,.FWRIT
   5060	005442	012700 	000024 			MOV	#FX.CON,R0	; SET THE "CONTINUE BUTTON"
   5061	005446					CALLR	.FXCT		; DO IT AND RETURN
	005446	000137 	004566'			 JMP	.FXCT
   5062						;
KL10F -- KL10 FUNCTION MODULE  	MACRO M1113  10-NOV-81 17:44  PAGE 121
.LDBRG -- MBOX BURST COUNT LOAD SUBROUTINE 7601.02

   5064					.SBTTL	.LDBRG -- MBOX BURST COUNT LOAD SUBROUTINE 7601.02
   5065
   5066					;+
   5067					; .LDBRC -- SUBROUTINE TO STOP THE KL CLOCK AND LOAD THE
   5068					;	    MBOX BURST COUNT REGISTER AS IN ".LDBRG".
   5069					; .LDBRG -- SUBROUTINE TO LOAD THE MBOX CLOCK BURST COUNTER.
   5070					;
   5071					; THIS SUBROUTINE LOADS THE KL MBOX BURST COUNT REGISTER
   5072					; WITH THE COUNT PASSED TO IT IN R0.
   5073					;
   5074					; INPUT ARGUMENTS:
   5075					;
   5076					;	R0 CONTAINS THE CLOCK COUNT
   5077					;
   5078					; OUTPUT ARGUMENTS:
   5079					;
   5080					;	NONE.
   5081					;
   5082					; ERROR CODES RETURNED:
   5083					;
   5084					;	FWF -- FUNCTION WRITE FAILED.
   5085					;	FXF -- FUNCTION EXECUTE FAILED.
   5086					;-
KL10F -- KL10 FUNCTION MODULE  	MACRO M1113  10-NOV-81 17:44  PAGE 122
.LDBRG -- MBOX BURST COUNT LOAD SUBROUTINE 7601.02

   5088	005452				.LDBRC::
   5089	005452					CALL	.STPXC		; STOP THE KL CLOCK
	005452	004737 	007302'			 JSR	PC,.STPXC
   5090	005456				.LDBRG::
   5091	005456					PUSH	<R1,R0>		; SAVE R1 AND R0 ON THE STACK
	005456	010146 				 MOV	R1,-(SP)
	005460	010046 				 MOV	R0,-(SP)
   5092	005462					CALL	.CLDFB		; ..CLEAR THE DFW BUFFERS
	005462	004737 	003370'			 JSR	PC,.CLDFB
   5093	005466	011600 				MOV	(SP),R0		; ..GET THE BURST COUNT FROM THE STACK
   5094	005470	042700 	177760 			BIC	#177760,R0	; ..CLEAR UNUSED BITS
   5095	005474	010037 	000304'			MOV	R0,.DFWB	; ..SET RIGHT COUNT IN THE BUFFER
   5096	005500	012700 	000104 			MOV	#FW.LBR,R0	; ..SET UP TO LOAD THE RIGHT HALF
   5097	005504	005001 				CLR	R1		; ..CLEAR R1
   5098	005506					CALL	.FWRIT		; ..DO IT
	005506	004737 	004444'			 JSR	PC,.FWRIT
   5099	005512	011600 				MOV	(SP),R0		; ..GET THE ORIGINAL COUNT FROM THE STACK
   5100	005514	012701 	177774 			MOV	#-^D4,R1	; ..SHIFT COUNT TO R1
   5101	005520					CALL	.SHIFT		; ..SHIFT IT RIGHT 4 PLACES
	005520	004737 	011114'			 JSR	PC,.SHIFT
   5102	005524	042700 	177760 			BIC	#177760,R0	; ..CLEAR UNUSED BITS
   5103	005530	010037 	000304'			MOV	R0,.DFWB	; ..PUT THE HIGH COUNT IN THE WRITE BUFFER
   5104	005534	005001 				CLR	R1		; ..CLEAR R1
   5105	005536	012700 	000106 			MOV	#FW.LBL,R0	; ..SET UP TO LOAD THE LEFT HALF
   5106	005542					CALL	.FWRIT		; ..DO IT
	005542	004737 	004444'			 JSR	PC,.FWRIT
   5107	005546					POP	<R0,R1>		; ..RESTORE R0 AND R1
	005546	012600 				 MOV	(SP)+,R0
	005550	012601 				 MOV	(SP)+,R1
   5108	005552					RETURN			; AND LEAVE
	005552	000207 				 RTS	PC
KL10F -- KL10 FUNCTION MODULE  	MACRO M1113  10-NOV-81 17:44  PAGE 123
.LDCPC -- KL CLOCK AND PARITY LOAD SUBROUTINES 7509.30

   5110					.SBTTL	.LDCPC -- KL CLOCK AND PARITY LOAD SUBROUTINES 7509.30
   5111
   5112					;+
   5113					; .LDCLK -- SUBROUTINE TO LOAD THE KL CLOCK CONTROL REGISTERS.
   5114					; .LDPAR -- SUBROUTINE TO LOAD THE KL PARITY CONTROL REGISTERS.
   5115					;
   5116					; THESE SUBROUTINES SET UP THE KL CLOCK SOURCE, RATE, AND
   5117					; DISTRIBUTION REGISTERS OR THE PARITY CONTROL REGISTERS.
   5118					;
   5119					; SEQUENCE OF OPERATION:
   5120					;
   5121					; .LDCLK:
   5122					;
   5123					;	(A) THE KL CLOCK SOURCE, RATE, AND DISTRIBUTION
   5124					;	    PARAMETERS ARE SET IN THE CLOCK CONTROL REGISTERS,
   5125					;	(B) THE PARAMETERS WRITTEN IN (A) ARE SAVED IN THE
   5126					;	    CLOCK STATUS WORD (".CLKWD").
   5127					;
   5128					; .LDPAR:
   5129					;
   5130					;	(A) THE KL INTERNAL PARITY CONTROL BITS ARE WRITTEN INTO THE
   5131					;	    PARITY CONTROL REGISTER,
   5132					;	(B) THE CONTROL BITS WITTEN IN (A) ARE SAVED IN THE PARITY
   5133					;	    CONTROL WORD (".PSCWD").
   5134					;
   5135					; INPUT ARGUMENTS:
   5136					;
   5137					;	R1 POINTS TO A PARAMETER WORD
   5138					;
   5139					; THE CLOCK PARAMETER POINTER POINTS TO A WORD WITH FORMAT:
   5140					;
   5141					;		!========================================!
   5142					;		!   DISTRIBUTION   !   SOURCE AND RATE   !
   5143					;		!========================================!
   5144					;
   5145					; THE PARITY PARAMETER POINTER POINTS TO A WORD WITH FORMAT:
   5146					;
   5147					;		!========================================!
   5148					;		!   CONTROL BITS   !   CLOCK STOP BITS	 !
   5149					;		!========================================!
   5150					;
   5151					; OUTPUT ARGUMENTS:
   5152					;
   5153					;	R0 CONTAINS A COPY OF THE UPDATED PARAMTER WORD
   5154					;
   5155					; ERROR CODES RETURNED:
   5156					;
   5157					;	FWF -- FUNCTION WRITE FAILED.
   5158					;-
KL10F -- KL10 FUNCTION MODULE  	MACRO M1113  10-NOV-81 17:44  PAGE 124
.LDCPC -- KL CLOCK AND PARITY LOAD SUBROUTINES 7509.30

   5160						.ENABL	LSB
   5161
   5162	005554				.LDCLK::
   5163	005554					CALL	R5,.REGSV	; SAVE R5 - R1 ON THE STACK
	005554	004537 	010302'			 JSR	R5,.REGSV
   5164	005560	012703 	000010'			MOV	#.CLKWD,R3	; CONTROL WORD POINTER TO R3
   5165	005564	012704 	000110 			MOV	#FW.CSR,R4	; BASE CLOCK WRITE TO R4
   5166	005570	000406 				BR	10$		; DO COMMON CODE
   5167						;
   5168	005572				.LDPAR::
   5169	005572					CALL	R5,.REGSV	; SAVE R5 - R1 ON THE STACK
	005572	004537 	010302'			 JSR	R5,.REGSV
   5170	005576	012703 	000204'			MOV	#.PSCWD,R3	; CONTROL WORD POINTER TO R3
   5171	005602	012704 	000114 			MOV	#FW.IPE,R4	; BASE PARITY WRITE TO R4
   5172									; FALL INTO COMMON CODE
   5173	005606				10$:
   5174	005606	010102 				MOV	R1,R2		; CALLER'S PARAMETER POINTER TO R2
   5175	005610					CALL	.CLDFW		; CLEAR THE WRITE BUFFER
	005610	004737 	003404'			 JSR	PC,.CLDFW
   5176	005614	005001 				CLR	R1		; CLEAR R1
   5177	005616	111237 	000304'			MOVB	(R2),.DFWB	; SET LOW BYTE PARAMETER
   5178	005622	010400 				MOV	R4,R0		; DFW CODE TO R0
   5179	005624					CALL	.FWRIT		; DO IT
	005624	004737 	004444'			 JSR	PC,.FWRIT
   5180	005630	112223 				MOVB	(R2)+,(R3)+	; MARK THE NEW LOW BYTE CODE
   5181	005632	005724 				TST	(R4)+		; NEXT WRITE CODE
   5182	005634	111210 				MOVB	(R2),(R0)	; SET THE HIGH BYTE PARAMETERS
   5183	005636	010400 				MOV	R4,R0		; DFW CODE TO R0
   5184	005640					CALL	.FWRIT		; DO IT
	005640	004737 	004444'			 JSR	PC,.FWRIT
   5185	005644	111223 				MOVB	(R2),(R3)+	; MARK THE NEW HIGH BYTE CODE
   5186	005646	014300 				MOV	-(R3),R0	; PUT A COPY IN R0
   5187	005650					RETURN			; EXIT
	005650	000207 				 RTS	PC
   5188
   5189						.DSABL	LSB
KL10F -- KL10 FUNCTION MODULE  	MACRO M1113  10-NOV-81 17:44  PAGE 125
.LDCRA -- LOAD CRAM ADDRESS SUBROUTINE 7511.19

   5191					.SBTTL	.LDCRA -- LOAD CRAM ADDRESS SUBROUTINE 7511.19
   5192
   5193					;+
   5194					; .LDCRA -- SUBROUTINE TO LOAD A 12 BIT ADDRESS INTO THE
   5195					;	    KL CRAM ADDRESS REGISTER.
   5196					;
   5197					; THIS SUBROUTINE LOADS A 12 BIT CRAM ADDRESS INTO THE
   5198					; KL CRAM ADDRESS REGISTER.
   5199					;
   5200					; SEQUENCE OF OPERATION:
   5201					;
   5202					;	(A) THE KL CLOCK IS TURNED OFF (BY (B)),
   5203					;	(B) THE KL CRAM ADDRESS IS CLEARED BY ".RESET",
   5204					;	(C) THE ADDRESS IS LOADED INTO CRAM DIAG ADDR.
   5205					;
   5206					; INPUT ARGUMENTS:
   5207					;
   5208					;	R0 CONTAINS THE CRAM ADDRESS TO BE LOADED
   5209					;
   5210					; OUTPUT ARGUMENTS:
   5211					;
   5212					;	NONE.
   5213					;
   5214					; ERROR CODES RETURNED:
   5215					;
   5216					;	FWF -- FUNCTION WRITE FAILED.
   5217					;-
KL10F -- KL10 FUNCTION MODULE  	MACRO M1113  10-NOV-81 17:44  PAGE 126
.LDCRA -- LOAD CRAM ADDRESS SUBROUTINE 7511.19

   5219	005652				.LDCRA::
   5220	005652	042700 	170000 			BIC	#170000,R0	; CLEAR UNUSED BITS
   5221	005656					PUSH	<R1,R0>		; PUT R0 AND R1 ON THE STACK
	005656	010146 				 MOV	R1,-(SP)
	005660	010046 				 MOV	R0,-(SP)
   5222	005662					CALL	.RESTP		; ..CLEAR CRAM DIAG ADDR AND CRAM ADDR
	005662	004737 	007132'			 JSR	PC,.RESTP
   5223									; ..ALSO RETAIN CLOCK AND PARITY CONTROL
   5224	005666					CALL	.CLDFW		; ..CLEAR THE FW BUFFER
	005666	004737 	003404'			 JSR	PC,.CLDFW
   5225	005672	012700 	000304'			MOV	#.DFWB,R0	; ..SET UP THE BUFFER ADDRESS
   5226	005676	011610 				MOV	(SP),(R0)	; ..LOAD THE ADDRESS FROM THE STACK
   5227	005700	001427 				BEQ	10$		; ..LEAVE NOW IF ZERO
   5228	005702	042710 	174077 			BIC	#174077,(R0)	; ..CLEAR UNWANTED BITS
   5229	005706	012701 	000030 			MOV	#^D24,R1	; ..SHIFT COUNT TO R1
   5230	005712					CALL	.TPSHI		; ..SHIFT IT OVER
	005712	004737 	011756'			 JSR	PC,.TPSHI
   5231	005716	005001 				CLR	R1		; ..CLEAR R1
   5232	005720	012700 	000124 			MOV	#FW.CA2,R0	; ..SET UP TO WRITE IT
   5233	005724					CALL	.FWRIT		; ..DO IT
	005724	004737 	004444'			 JSR	PC,.FWRIT
   5234	005730	011610 				MOV	(SP),(R0)	; ..GET ADDRESS FROM THE STACK AGAIN
   5235	005732	042710 	177700 			BIC	#177700,(R0)	; ..CLEAR UNWANTED BITS
   5236	005736	012701 	000036 			MOV	#^D30,R1	; ..SHIFT COUNT TO R1
   5237	005742					CALL	.TPSHI		; ..SHIFT THAT OVER
	005742	004737 	011756'			 JSR	PC,.TPSHI
   5238	005746	005001 				CLR	R1		; ..CLEAR R1
   5239	005750	012700 	000122 			MOV	#FW.CA1,R0	; ..SET UP TO WRITE IT
   5240	005754					CALL	.FWRIT		; ..DO IT
	005754	004737 	004444'			 JSR	PC,.FWRIT
   5241	005760				10$:
   5242	005760					POP	<R0,R1>		; ..RESTORE REGISTERS
	005760	012600 				 MOV	(SP)+,R0
	005762	012601 				 MOV	(SP)+,R1
   5243	005764					RETURN			; EXIT TO CALLER
	005764	000207 				 RTS	PC
KL10F -- KL10 FUNCTION MODULE  	MACRO M1113  10-NOV-81 17:44  PAGE 127
.MRCLR -- KL MASTER RESET SUBROUTINE 7607.15

   5245					.SBTTL	.MRCLR -- KL MASTER RESET SUBROUTINE 7607.15
   5246
   5247					;+
   5248					; .MRCLR -- SUBROUTINE TO CLEAR THE KL IN THE MASTER RESET STATE.
   5249					;
   5250					; THIS SUBROUTINE SETS THE KL MASTER RESET FLOP AND ALLOWS THE
   5251					; KL CLOCK TO RUN, CLEARING THE KL.
   5252					;
   5253					; SEQUENCE OF OPERATION:
   5254					;
   5255					;	(A) THE MASTER RESET FLOP IS SET,
   5256					;	(B) THE KL CLOCK IS ALLOWED TO RUN FOR A SHORT TIME,
   5257					;	(C) THE NXM TIMERS ARE RESYNCHRONIZED,
   5258					;	(D) THE KL CLOCK IS STOPPED AND SYNCHED,
   5259					;	(E) THE MASTER RESET FLOP IS CLEARED.
   5260					;
   5261					; INPUT ARGUMENTS:
   5262					;
   5263					;	NONE.
   5264					;
   5265					; OUTPUT ARGUMENTS:
   5266					;
   5267					;	NONE.
   5268					;
   5269					; ERROR CODES RETURNED:
   5270					;
   5271					;	FRF -- FUNCTION READ FAILED.
   5272					;	FWF -- FUNCTION WRITE FAILED.
   5273					;	FXF -- FUNCTION EXECUTE FAILED.
   5274					;-
   5275
   5276	005766				.MRCLR::
   5277	005766					PUSH	<R0,R1,R2>	; SAVE REGISTERS
	005766	010046 				 MOV	R0,-(SP)
	005770	010146 				 MOV	R1,-(SP)
	005772	010246 				 MOV	R2,-(SP)
   5278	005774	012700 	000016 			MOV	#FX.SMR,R0	; ...SET MASTER RESET FLOP
   5279	006000					CALL	.FXCT		; ...DO IT
	006000	004737 	004566'			 JSR	PC,.FXCT
   5280	006004	052737 	020000 	000000G		BIS	#KF.MRS,.KLFLG	; ...SET THE FLAG
   5281	006012					CALL	.STCLF		; ...FORCE START THE KL CLOCK
	006012	004737 	007240'			 JSR	PC,.STCLF
   5282	006016	012701 	000764 			MOV	#^D500,R1	; ...SET UP WAIT COUNT
   5283
   5284					;	[CONTINUED ON THE FOLLOWING PAGE]
KL10F -- KL10 FUNCTION MODULE  	MACRO M1113  10-NOV-81 17:44  PAGE 128
.MRCLR -- KL MASTER RESET SUBROUTINE 7607.15

   5286					;	[CONTINUED FROM THE PREVIOUS PAGE]
   5287
   5288	006022				10$:
   5289	006022	077101 				SOB	R1,10$		; ...STALL A WHILE
   5290	006024					CALL	.STPXC		; ...STOP THE KL CLOCK
	006024	004737 	007302'			 JSR	PC,.STPXC
   5291	006030					CALL	.CLDFB		; ...CLEAR THE FUNCTION BUFFERS
	006030	004737 	003370'			 JSR	PC,.CLDFB
   5292	006034	012700 	000160 			MOV	#FW.CHN,R0	; ...CLEAR THE CHANNELS
   5293	006040					CALL	.FWRIT		; ...DO IT
	006040	004737 	004444'			 JSR	PC,.FWRIT
   5294	006044	012702 	000003 			MOV	#^D3,R2		; ...LOOP COUNT TO R2
   5295	006050				20$:				; ...HERE TO RESYNCH THE NXM TIMERS
   5296	006050	005001 				CLR	R1		; ...CLEAR R1
   5297	006052	012700 	000344 			MOV	#FR.162,R0	; ...LOOK FOR [A CHANGE COMING L]
   5298	006056					CALL	.FREAD		; ...DO THE READ
	006056	004737 	004362'			 JSR	PC,.FREAD
   5299	006062	032710 	000010 			BIT	#BIT03,(R0)	; ...IS IT THERE?
   5303	006066	001405 				BEQ	30$		; ...YES -- GO ON
   5304	006070	012700 	000004 			MOV	#FX.MBC,R0	; ...NO -- STEP THE CLOCK
   5305	006074					CALL	.FXCT		; ...DO IT
	006074	004737 	004566'			 JSR	PC,.FXCT
   5306	006100	077215 				SOB	R2,20$		; ...LOOP THREE TIMES MAX
   5307	006102				30$:
   5308	006102					CALL	.SYNXC		; ...SYNCH THE CLOCK
	006102	004737 	007454'			 JSR	PC,.SYNXC
   5309	006106	012700 	000014 			MOV	#FX.CMR,R0	; ...CLEAR MASTER RESET FLOP
   5310	006112					CALL	.FXCT		; ...DO IT
	006112	004737 	004566'			 JSR	PC,.FXCT
   5311	006116	042737 	020300 	000000G		BIC	#KF.MRS!KF.CON!KF.CES,.KLFLG
   5312									; ...CLEAR THE FLAGS
   5313	006124					POP	<R2,R1,R0>	; ...RESTORE REGISTERS
	006124	012602 				 MOV	(SP)+,R2
	006126	012601 				 MOV	(SP)+,R1
	006130	012600 				 MOV	(SP)+,R0
   5314	006132					RETURN			; EXIT TO CALLER
	006132	000207 				 RTS	PC
KL10F -- KL10 FUNCTION MODULE  	MACRO M1113  10-NOV-81 17:44  PAGE 129
.RDCPP -- SUBOUTINE TO READ THE KL CLOCK AND PARITY ENABLES 75

   5316					.SBTTL	.RDCPP -- SUBOUTINE TO READ THE KL CLOCK AND PARITY ENABLES 7510.09
   5317
   5318					;+
   5319					; .RDCPP -- SUBROUTINE TO READ THE KL CLOCK AND INTERNAL PARITY
   5320					;	    CHECKING PARAMETERS.
   5321					;
   5322					; THIS SUBROUTINE READS THE KL CLOCK SOURCE, RATE AND DISTRIBUTION
   5323					; ENABLES AS WELL AS THE KL INTERNAL PARITY ENABLES AND MAINTAINS
   5324					; THEM IN ".CLKWD" AND ".PSCWD", RESPECTIVELY.
   5325					;
   5326					; INPUT ARGUMENTS:
   5327					;
   5328					;	NONE.
   5329					;
   5330					; OUTPUT ARGUMENTS:
   5331					;
   5332					;	".CLKWD" AND ".PSCWD" CONTAIN THE UPDATED CLOCK AND
   5333					;	PARITY ENABLES.
   5334					;
   5335					; ERROR CODES RETURNED:
   5336					;
   5337					;	FRF -- FUNCTION READ FAILED.
   5338					;-
   5339
   5340	006134				.RDCPP::
   5341	006134					CALL	R5,.REGSV	; SAVE R5 - R1 ON THE STACK
	006134	004537 	010302'			 JSR	R5,.REGSV
   5342	006140					PUSH	R0		; R0 TOO
	006140	010046 				 MOV	R0,-(SP)
   5343	006142	012704 	000004 			MOV	#^D4,R4		; .USE R4 AS A COUNTER
   5344	006146	012703 	004230'			MOV	#RDCPT1,R3	; .BIT TEST TABLE POINTER TO R3
   5345	006152	012705 	004220'			MOV	#RDCPT3,R5	; .SAVE AREA POINTER TO R5
   5346	006156				10$:
   5347	006156	112300 				MOVB	(R3)+,R0	; .FR CODE TO R0
   5348	006160	005001 				CLR	R1		; .CLEAR R1
   5349	006162					CALL	.FREAD		; .READ A WORD
	006162	004737 	004362'			 JSR	PC,.FREAD
   5350	006166	011025 				MOV	(R0),(R5)+	; .SAVE BITS 20 THRU 35 IN TABLE
   5351	006170	077406 				SOB	R4,10$		; .READ ALL FOUR OF THEM
   5352	006172	005037 	000010'			CLR	.CLKWD		; .CLEAR THE OLD CLOCK PARAMETERS
   5353	006176	005037 	000204'			CLR	.PSCWD		; .AND THE OLD PARITY STOP PARAMETERS
   5354
   5355					;	[CONTINUED ON THE FOLLOWING PAGE]
KL10F -- KL10 FUNCTION MODULE  	MACRO M1113  10-NOV-81 17:44  PAGE 130
.RDCPP -- SUBOUTINE TO READ THE KL CLOCK AND PARITY ENABLES 75

   5357					;	[CONTINUED FROM THE PREVIOUS PAGE]
   5358
   5359	006202	012700 	000004 			MOV	#^D4,R0		; .DO OUTER LOOP 4 TIMES
   5360	006206	012705 	004220'			MOV	#RDCPT3,R5	; .KL SAVE AREA POINTER TO R5
   5361	006212				20$:
   5362	006212	012704 	000004 			MOV	#^D4,R4		; .DO INNER LOOP 4 TIMES
   5363	006216	012702 	004210'			MOV	#RDCPT2,R2	; .KL MASK POINTER TO R2
   5364	006222				30$:
   5365	006222	012701 	000010'			MOV	#.CLKWD,R1	; .CLOCK WORD POINTER TO R1
   5366	006226	020427 	000002 			CMP	R4,#^D2		; .IS INNER LOOP COUNT .GT. 2?
   5367	006232	101004 				BHI	50$		; .YES -- CONTINUE
   5368	006234	001001 				BNE	40$		; .NO -- IS IT  .LT. 2?
   5369	006236	005115 				COM	(R5)		; .NO -- INVERT THE WORD SO REST OF CODE WORKS
   5370	006240				40$:
   5371	006240	012701 	000204'			MOV	#.PSCWD,R1	; .DO PARITY WORD
   5372	006244				50$:
   5373	006244	041311 				BIC	(R3),(R1)	; .FLUSH THE BIT IN THE FLAG WORD
   5374	006246	031215 				BIT	(R2),(R5)	; .TEST THE BIT WE READ IN THIS WORD
   5375	006250	001401 				BEQ	60$		; .BRANCH IF BIT IS OFF
   5376	006252	051311 				BIS	(R3),(R1)	; .TURN THE BIT ON IN THE FLAG WORD
   5377	006254				60$:
   5378	006254	022322 				CMP	(R3)+,(R2)+	; .ADVANCE THE MASK POINTERS
   5379	006256	077417 				SOB	R4,30$		; .DO INNER LOOP 4 TIMES
   5380	006260	005125 				COM	(R5)+		; .ADVANCE THE SAVE AREA POINTER
   5381									; .AND STRAIGHTEN THE WORD OUT
   5382	006262	077025 				SOB	R0,20$		; .DO OUTER LOOP 4 TIMES
   5383	006264					POP	R0		; .GIVE R0 BACK
	006264	012600 				 MOV	(SP)+,R0
   5384	006266					RETURN			; AND GO AWAY
	006266	000207 				 RTS	PC
   5385
   5386					; THESE BITS ARE USED TO MASK THE DATA FROM THE FUNCTION READS
   5387
   5388	004210				.PSECT	DATA
   5389
   5390	004210				RDCPT2:
   5391	004210	000010 				.WORD	BIT03		; KL BIT 32
   5392	004212	000004 				.WORD	BIT02		; KL BIT 33
   5393	004214	000002 				.WORD	BIT01		; KL BIT 34
   5394	004216	000001 				.WORD	BIT00		; KL BIT 35
   5395
   5396					; THE DATA FROM THE FUNCTION READS ARE STORED IN THIS TABLE
   5397
   5398	004220				RDCPT3:
   5399	004220	000000 				.WORD	0		; FR.104 BITS 20 - 35
   5400	004222	000000 				.WORD	0		; FR.105 BITS 20 - 35
   5401	004224	000000 				.WORD	0		; FR.106 BITS 20 - 35
   5402	004226	000000 				.WORD	0		; FR.107 BITS 20 - 35
KL10F -- KL10 FUNCTION MODULE  	MACRO M1113  10-NOV-81 17:44  PAGE 131
.RDCPP -- SUBOUTINE TO READ THE KL CLOCK AND PARITY ENABLES 75

   5404					; TABLES USED TO READ AND SET CLOCK AND PARITY ENABLES
   5405					; THE FIRST FOUR BYTES IN THIS TABLE ARE THE FUNCTION READ CODES
   5406					; TO BE EXECUTED, THE REMAINING WORDS ARE USED TO SET OR CLEAR
   5407					; THE APPROPRIATE BITS IN ".CLKWD" AND ".PSCWD"
   5408
   5409	004230				RDCPT1:
   5410	004230	   210 				.BYTE	FR.104
   5411	004231	   212 				.BYTE	FR.105
   5412	004232	   214 				.BYTE	FR.106
   5413	004233	   216 				.BYTE	FR.107
   5414	004234	000010 				.WORD	CS.CS2		; CLK SOURCE 2 H [FR.104 - BIT 32]
   5415									; [FW 44 - BIT 32]
   5416	004236	000000 				.WORD	0		; BLANK [FR.104 - BIT 33]
   5417	004240	000010 				.WORD	IP.FMP		; FM PAR EN L [FR.104 - BIT 34]
   5418									; [FW 46 - BIT 32]
   5419	004242	000000 				.WORD	0		; BLANK [FR.104 - BIT 35]
   5420	004244	000004 				.WORD	CS.CS1		; CLK SOURCE 1 H [FR.105 - BIT 32]
   5421									; [FW 44 - BIT 33]
   5422	004246	002000 				.WORD	CD.CRC		; CLK CRAM DIS H [FR.105 - BIT 33]
   5423									; [FW 45 - BIT 33]
   5424	004250	000004 				.WORD	IP.CRP		; CRAM PAR EN L [FR.105 - BIT 34]
   5425									; [FW 46 - BIT 33]
   5426	004252	000000 				.WORD	0		; BLANK [FR.105 BIT - 35]
   5427	004254	000002 				.WORD	CR.CR2		; CLK RATE 2 H [FR.106 - BIT 32]
   5428									; [FW 44 - BIT 34]
   5429	004256	001000 				.WORD	CD.DPC		; CLK EDP DIS H [FR.106 - BIT 33]
   5430									; [FW 45 - BIT 34]
   5431	004260	000002 				.WORD	IP.DRP		; DRAM PAR EN L [FR.106 - BIT 34]
   5432									; [FW 46 - BIT 34]
   5433	004262	001000 				.WORD	AP.ARP		; AR/ARX PAR EN L [FR.106 - BIT 35]
   5434									; [FW 47 - BIT 34]
   5435	004264	000001 				.WORD	CR.CR1		; CLK RATE 1 H [FR.107 - BIT 32]
   5436									; [FW 44 - BIT 35]
   5437	004266	000400 				.WORD	CD.CLC		; CLK CTL DIS H [FR.107 - BIT 33]
   5438									; [FW 45 - BIT 35]
   5439	004270	000001 				.WORD	IP.FSS		; FS STOP EN L [FR.107 -BIT 34]
   5440									; [FW 46 - BIT 35]
   5441	004272	000400 				.WORD	AP.EIP		; CLK ERR STOP EN L [FR.107 - BIT 35]
   5442									; [FW 47 - BIT 35]
   5443
   5444	006270				.PSECT
KL10F -- KL10 FUNCTION MODULE  	MACRO M1113  10-NOV-81 17:44  PAGE 132
.RDCRD -- SUBROUTINE TO READ THE KL CRAM DISP FIELD 7511.22

   5446					.SBTTL	.RDCRD -- SUBROUTINE TO READ THE KL CRAM DISP FIELD 7511.22
   5447
   5448					;+
   5449					; .RDCRD -- SUBROUTINE TO READ THE KL CRAM DISP FIELD.
   5450					;
   5451					; THIS SUBROUTINE READS AND RETURNS THE CONTENT OF THE CRAM DISP FIELD
   5452					; IN R0.
   5453					;
   5454					; INPUT ARGUMENTS:
   5455					;
   5456					;	NONE.
   5457					;
   5458					; OUTPUT ARGUMENTS:
   5459					;
   5460					;	R0 CONTAINS THE CURRENT CRAM DISP FIELD
   5461					;
   5462					; ERROR CODES RETURNED:
   5463					;
   5464					;	FRF -- FUNCTION READ FAILED.
   5465					;-
   5466
   5467	006270				.RDCRD::
   5468	006270					PUSH	R1		; SAVE R1 ON THE STACK
	006270	010146 				 MOV	R1,-(SP)
   5469	006272	005001 				CLR	R1		; .CLEAR R1
   5470	006274	012700 	000302 			MOV	#FR.CRD,R0	; .FR CODE TO R0
   5471	006300					CALL	.FREAD		; .READ IT
	006300	004737 	004362'			 JSR	PC,.FREAD
   5472	006304	012701 	177742 			MOV	#-^D30,R1	; .SHIFT COUNT TO R1
   5473	006310					CALL	.TPSHI		; .SHIFT IT
	006310	004737 	011756'			 JSR	PC,.TPSHI
   5474	006314	042710 	177700 			BIC	#^C77,(R0)	; .MASK UNWANTED BITS
   5475	006320	011000 				MOV	(R0),R0		; .COPY TO R0
   5476	006322					POP	R1		; .RESTORE R1
	006322	012601 				 MOV	(SP)+,R1
   5477	006324					RETURN			; AND GO AWAY
	006324	000207 				 RTS	PC
KL10F -- KL10 FUNCTION MODULE  	MACRO M1113  10-NOV-81 17:44  PAGE 133
.RDCRM -- KL CONTROL RAM READ SUBROUTINE 7511.19

   5479					.SBTTL	.RDCRM -- KL CONTROL RAM READ SUBROUTINE 7511.19
   5480
   5481					;+
   5482					; .RDCRM -- SUBROUTINE TO READ A LOCATION IN THE KL CONTROL RAM.
   5483					; .RDCRR -- SUBROUTINE TO READ THE OUTPUT OF THE CRAM REGISTER.
   5484					;
   5485					; THIS SUBROUTINE WILL READ ONE LOCATION IN THE KL CONTROL RAM.
   5486					;
   5487					; SEQUENCE OF OPERATION:
   5488					;
   5489					; .RDCRM:
   5490					;
   5491					;	(A) THE KL IS HALTED IN THE HALT LOOP,
   5492					;	(B) THE CONTROL RAM ADDRESS IS LOADED,
   5493					;
   5494					; .RDCRR:
   5495					;
   5496					;	(C) THE CONTENT OF THE CURRENT CRAM ADDRESS IS READ.
   5497					;
   5498					; INPUT ARGUMENTS:
   5499					;
   5500					;	R0 CONTAINS THE CRAM ADDRESS TO BE READ IN THE CALL TO ".RDCRM".
   5501					;
   5502					; OUTPUT ARGUMENTS:
   5503					;
   5504					;	 R0 CONTAINS A POINTER TO THE RAM DATA.
   5505					;
   5506					; THE FOLLOWING IS A PICTURE OF THRE DATA RETURNED BY THIS SUBROUTINE:
   5507					;
   5508					;	WORD		CRAM DATA
   5509					;	----		---------
   5510					;		+==================================+
   5511					;	00	|	CRAM BITS 68 THRU 78	   |
   5512					;		+----------------------------------+
   5513					;	01	|	CRAM BITS 60 THRU 66       |
   5514					;		+----------------------------------+
   5515					;	02	|	CRAM BITS 48 THRU 59	   |
   5516					;		+----------------------------------+
   5517					;	03	|	CRAM BITS 40 THRU 47	   |
   5518					;		+----------------------------------+
   5519					;	04	|	CRAM BITS 28 THRU 39	   |
   5520					;		+----------------------------------+
   5521					;	05	|	CRAM BITS 20 THRU 27	   |
   5522					;		+----------------------------------+
   5523					;	06	|	CRAM BITS 08 THRU 19	   |
   5524					;		+----------------------------------+
   5525					;	07	|	CRAM BITS 00 THRU 07	   |
   5526					;		+----------------------------------+
   5527					;	08	|    CRAM DISP BITS 00 THRU 04	   |
   5528					;		+==================================+
   5529					;
   5530					; ERROR CODES RETURNED:
   5531					;
   5532					;	CAE -- CRAM ADDRESS ERROR.
   5533					;	FRF -- FUNCTION READ FAILED.
   5534					;	FWF -- FUNCTION WRITE FAILED.
   5535					;	FXF -- FUNCTION EXECUTE FAILED.
KL10F -- KL10 FUNCTION MODULE  	MACRO M1113  10-NOV-81 17:44  PAGE 133-1
.RDCRM -- KL CONTROL RAM READ SUBROUTINE 7511.19

   5536					;-
KL10F -- KL10 FUNCTION MODULE  	MACRO M1113  10-NOV-81 17:44  PAGE 134
.RDCRM -- KL CONTROL RAM READ SUBROUTINE 7511.19

   5538	006326				.RDCRM::
   5539	006326					PUSH	<R1,R2,R3,R4>	; SAVE CALLER'S REGISTERS
	006326	010146 				 MOV	R1,-(SP)
	006330	010246 				 MOV	R2,-(SP)
	006332	010346 				 MOV	R3,-(SP)
	006334	010446 				 MOV	R4,-(SP)
   5540	006336	020027 	002377 			CMP	R0,#2377	; ....IS THE ADDRESS IN RANGE?
   5541	006342	101052 				BHI	RDCRME		; ....NO -- GIVE "CRA" ERROR
   5542	006344					CALL	.LDCRA		; ....YES -- LOAD THE CRAM ADDRESS
	006344	004737 	005652'			 JSR	PC,.LDCRA
   5543	006350	012700 	000006 			MOV	#FX.EBC,R0	; ....NOW CLOCK THE DATA OUT OF THE RAM
   5544	006354					CALL	.FXCT		; ....DO IT
	006354	004737 	004566'			 JSR	PC,.FXCT
   5545	006360				.RDCRR::			; ....HERE TO READ THE CRAM REGISTER
   5546	006360	012702 	000020'			MOV	#.CRAMR,R2	; ....SAVE AREA POINTER TO R2
   5547	006364	012704 	000310 			MOV	#FR.CR4,R4	; ....BASE READ TO R4
   5548	006370	012703 	000004 			MOV	#^D4,R3		; ....USE R3 AS A COUNTER
   5549	006374				10$:
   5550	006374	005001 				CLR	R1		; ....CLEAR R1
   5551	006376	010400 				MOV	R4,R0		; ....PASS THE FREAD CODE
   5552	006400					CALL	.FREAD		; ....DO IT
	006400	004737 	004362'			 JSR	PC,.FREAD
   5553	006404	012022 				MOV	(R0)+,(R2)+	; ....LOAD CALLER'S BUFFER FROM OURS
   5554	006406	012022 				MOV	(R0)+,(R2)+	; ....
   5555	006410	062704 	000002 			ADD	#^D2,R4		; ....INCREMENT THE FREAD CODE
   5556	006414	077311 				SOB	R3,10$		; ....LOOP TILL DONE
   5557	006416					CALL	.RDCRD		; ....READ THE DISPATCH FIELD
	006416	004737 	006270'			 JSR	PC,.RDCRD
   5558	006422	010012 				MOV	R0,(R2)		; ....PUT IT IN THE DATA BLOCK
   5559	006424					CALL	.CLDFW		; ....CLEAR THE FUNCTION WRITE BUFFER
	006424	004737 	003404'			 JSR	PC,.CLDFW
   5560	006430	005001 				CLR	R1		; ....CLEAR R1
   5561	006432	012700 	000122 			MOV	#FW.CA1,R0	; ....CLEAR CRAM DIAG ADDR
   5562	006436					CALL	.FWRIT		; ....SO
	006436	004737 	004444'			 JSR	PC,.FWRIT
   5563	006442	012700 	000124 			MOV	#FW.CA2,R0	; ....NOW THE OTHER HALF
   5564	006446					CALL	.FWRIT		; ....SO
	006446	004737 	004444'			 JSR	PC,.FWRIT
   5565	006452	012700 	000020'			MOV	#.CRAMR,R0	; ....POINT TO SAVE AREA
   5566	006456					POP	<R4,R3,R2,R1>	; ....RESTORE THE REGISTERS
	006456	012604 				 MOV	(SP)+,R4
	006460	012603 				 MOV	(SP)+,R3
	006462	012602 				 MOV	(SP)+,R2
	006464	012601 				 MOV	(SP)+,R1
   5567	006466					RETURN			; TO CALLER
	006466	000207 				 RTS	PC
   5568	006470				RDCRME:
   5569	006470					ERROR$	CAE		; ERROR -- CRAM ADDRESS ERROR
	006470	012746 	011355 			 MOV	#^RCAE,-(SP)
	006474	104400 				 TRAP	TC.ERR
   5570						;
KL10F -- KL10 FUNCTION MODULE  	MACRO M1113  10-NOV-81 17:44  PAGE 135
.RDCRO -- SUBROUTINE TO READ THE KL CRAM OUTPUT 7511.05

   5572					.SBTTL	.RDCRO -- SUBROUTINE TO READ THE KL CRAM OUTPUT 7511.05
   5573
   5574					;+
   5575					; .RDCRO -- SUBROUTINE TO READ THE KL CRAM OUTPUT.
   5576					;
   5577					; THIS SUBROUTINE WILL READ THE CURRENT OUTPUT OF THE KL CRAM
   5578					; AND IS USEFUL ON CLOCK ERROR STOPS (Q.V.) WHICH ARE CAUSED BY
   5579					; CRAM PARITY ERRORS.
   5580					;
   5581					; INPUT ARGUMENTS:
   5582					;
   5583					;	NONE.
   5584					;
   5585					; OUTPUT ARGUMENTS:
   5586					;
   5587					;	R0 CONTAINS A POINTER TO A TEN WORD BLOCK WHICH CONTAINS THE
   5588					;	CURRENT CRAM ADDRESS FOLLOWED BY THE CURRENT CRAM CONTENTS
   5589					;
   5590					; ERROR CODES RETURNED:
   5591					;
   5592					;	CAE -- CRAM ADDRESS ERROR.
   5593					;	FRF -- FUNCTION READ FAILED.
   5594					;	FWF -- FUNCTION WRITE FAILED.
   5595					;	FXF -- FUNCTION EXECUTE FAILED.
   5596					;-
   5597
   5598	006476				.RDCRO:
   5599	006476					CALL	.RDCRA		; READ THE CRAM ADDRESS
	006476	004737 	000000G			 JSR	PC,.RDCRA
   5600	006502	010037 	000016'			MOV	R0,.CRAMA	; SAVE THE ADDRESS
   5601	006506					CALL	.RDCRR		; READ THE CRAM DATA
	006506	004737 	006360'			 JSR	PC,.RDCRR
   5602	006512	005740 				TST	-(R0)		; RETURN POINTER
   5603	006514					RETURN			; TO CALLER
	006514	000207 				 RTS	PC
KL10F -- KL10 FUNCTION MODULE  	MACRO M1113  10-NOV-81 17:44  PAGE 136
.RDFMA -- SUBROUTINE TO READ THE KL FM ADDRESS 7511.14

   5605					.SBTTL	.RDFMA -- SUBROUTINE TO READ THE KL FM ADDRESS 7511.14
   5606
   5607					;+
   5608					; .RDFMA -- SUBROUTINE TO READ THE KL FAST MEMORY ADDRESS REGISTER.
   5609					;
   5610					; THIS SUBROUTINE WILL READ AND RETURN THE KL FAST MEMORY ADDRESS
   5611					; A LOCATION POINTED TO BY R1 IN THE CALL. IF R1 IS ZERO, THE DATA
   5612					; IS RETURNED ONLY IN R0.
   5613					;
   5614					; INPUT ARGUMENTS:
   5615					;
   5616					;	R1 POINTS TO A BUFFER FOR THE DATA
   5617					;
   5618					; OUTPUT ARGUMENTS:
   5619					;
   5620					;	R0 CONTAINS THE DATA
   5621					;	THE BUFFER POINTED TO BY R1 CONTAINS THE DATA
   5622					;
   5623					; THE FORMAT OF THE DATA RETURNED IS:
   5624					;
   5625					;	!===============================================!
   5626					;	!	FM BLOCK	!      FM ADDRESS	!
   5627					;	!===============================================!
   5628					;
   5629					; ERROR CODES RETURNED:
   5630					;
   5631					;	FRF -- FUNCTION READ FAILED.
   5632					;-
   5633
   5634	006516				.RDFMA::
   5635	006516					PUSH	R1		; SAVE R1 ON THE STACK
	006516	010146 				 MOV	R1,-(SP)
   5636	006520	005001 				CLR	R1		; .CLEAR R1
   5637	006522	012700 	000230 			MOV	#FR.114,R0	; .FR CODE TO READ FM ADDRESS
   5638	006526					CALL	.FREAD		; .READ IT
	006526	004737 	004362'			 JSR	PC,.FREAD
   5639	006532	012701 	177753 			MOV	#-^D21,R1	; .SHIFT COUNT TO R1
   5640	006536					CALL	.TPSHI		; .SHIFT IT
	006536	004737 	011756'			 JSR	PC,.TPSHI
   5641	006542					PUSH	(R0)		; .SAVE THE WORD ON THE STACK
	006542	011046 				 MOV	(R0),-(SP)
   5642	006544	042716 	177760 			BIC	#177760,(SP)	; ..MASK FM ADDRESS
   5643	006550	042710 	176017 			BIC	#176017,(R0)	; ..MASK OUT THE FM BLOCK NUMBER
   5644	006554	012701 	000004 			MOV	#^D4,R1		; ..SHIFT IT INTO THE HIGH BYTE
   5645	006560					CALL	.TPSHI		; ..SO
	006560	004737 	011756'			 JSR	PC,.TPSHI
   5646	006564	052610 				BIS	(SP)+,(R0)	; ..SET IN THE FAST MEMORY ADDRESS
   5647	006566	011000 				MOV	(R0),R0		; .GET IT INTO R0
   5648	006570					POP	R1		; .DO WE HAVE A POINTER?
	006570	012601 				 MOV	(SP)+,R1
   5649	006572	001401 				BEQ	10$		; NO -- JUST EXIT
   5650	006574	010011 				MOV	R0,(R1)		; YES -- PUT IT WHERE HE WANTS IT
   5651	006576				10$:	RETURN			; AND LEAVE
	006576	000207 				 RTS	PC
KL10F -- KL10 FUNCTION MODULE  	MACRO M1113  10-NOV-81 17:44  PAGE 137
.RDFMO -- SUBROUTINE TO READ KL FAST MEMORY OUTPUT 7708.30

   5653					.SBTTL	.RDFMO -- SUBROUTINE TO READ KL FAST MEMORY OUTPUT 7708.30
   5654
   5655					;+
   5656					; .RDFMO -- SUBROUTINE TO READ THE KL FAST MEMORY REGISTERS
   5657					;
   5658					; THIS SUBROUTINE WILL READ AND STORE THE FAST MEMORY ADDRESS AND
   5659					; OUTPUT IN A FOUR WORD BLOCK STARTING AT ".FMADR", AND IS USEFUL
   5660					; FOR GATHERING DATA ON FAST MEMORY PARITY ERRORS.
   5661					;
   5662					; INPUT ARGUMENTS:
   5663					;
   5664					;	R0 POINTS TO OUTPUT BUFFER
   5665					;
   5666					; OUTPUT ARGUMENTS:
   5667					;
   5668					;	R0 POINTS TO OUTPUT BUFFER
   5669					;
   5670					; ERROR CODES RETURNED:
   5671					;
   5672					;	FRF -- FUNCTION READ FAILED.
   5673					;-
   5674
   5675	006600				.RDFMO::
   5676	006600					PUSH	<R1,R0>		; SAVE R0,R1 ON THE STACK
	006600	010146 				 MOV	R1,-(SP)
	006602	010046 				 MOV	R0,-(SP)
   5677	006604	005001 				CLR	R1		; ..CLEAR R1
   5678	006606					CALL	.RDFMA		; ..READ THE FAST MEMORY ADDRESS
	006606	004737 	006516'			 JSR	PC,.RDFMA
   5679	006612	011601 				MOV	(SP),R1		; ..SET UP POINTER
   5680	006614	010021 				MOV	R0,(R1)+	; ..SAVE FM ADDRESS
   5681	006616	012700 	000246 			MOV	#FR.RFM,R0	; ..READ FM REGISTER FUNCTION READ
   5682	006622					CALL	.FREAD		; ..READ IT
	006622	004737 	004362'			 JSR	PC,.FREAD
   5683	006626					POP	<R0,R1>		; ..RESTORE R1,R0
	006626	012600 				 MOV	(SP)+,R0
	006630	012601 				 MOV	(SP)+,R1
   5684	006632					RETURN			; TO CALLER
	006632	000207 				 RTS	PC
KL10F -- KL10 FUNCTION MODULE  	MACRO M1113  10-NOV-81 17:44  PAGE 138
.RDFMP -- READ FM PARITY ERROR BIT

   5686					.SBTTL	.RDFMP -- READ FM PARITY ERROR BIT
   5687
   5688					;+
   5689					; .RDFMP -- SUBROUTINE TO READ FM PARITY BIT
   5690					;
   5691					; THIS ROUTINE WILL:
   5692					;	1. READ FM BLOCK,ADDR,AND PARITY
   5693					;	2. SHIFT PARITY BIT INTO R0
   5694					;
   5695					; INPUT ARGUMENTS:
   5696					;
   5697					;	NONE
   5698					;
   5699					; OUTPUT ARGUMENTS:
   5700					;
   5701					;	R0-PARITY ERROR BIT VALUE
   5702					;
   5703					; ERROR CODES RETURNED:
   5704					;
   5705					;	FRF -- FUNCTION READ FAILED
   5706					;-
   5707
   5708	006634				.RDFMP::
   5709	006634	005001 				CLR	R1		; NO BUFFER FOR .FREAD OUTPUT
   5710	006636	012700 	000230 			MOV	#FR.114,R0	; FUNCTION READ 114
   5711	006642					CALL	.FREAD		; DO READ
	006642	004737 	004362'			 JSR	PC,.FREAD
   5712	006646	103407 				BCS	10$		; ERROR
   5713	006650	012701 	177756 			MOV	#-^D18,R1	; SHIFT KL BIT 17 TO ELEVEN BIT 0
   5714	006654					CALL	.TPSHI		; SHIFT IT
	006654	004737 	011756'			 JSR	PC,.TPSHI
   5715	006660	011000 				MOV	(R0),R0		; GET VALUE
   5716	006662	042700 	177776 			BIC	#177776,R0	; CLEAR ALL BUT BIT 0
   5717	006666				10$:	RETURN
	006666	000207 				 RTS	PC
KL10F -- KL10 FUNCTION MODULE  	MACRO M1113  10-NOV-81 17:44  PAGE 139
.RDIPE -- READ KL INTERNAL PARITY ERROR FLAGS 7511.13

   5719					.SBTTL	.RDIPE -- READ KL INTERNAL PARITY ERROR FLAGS 7511.13
   5720
   5721					;+
   5722					; .RDIPE -- SUBROUTINE TO READ THE KL INTERNAL PARITY ERROR FLAGS.
   5723					;
   5724					; THIS SUBROUTINE READS THE INTERNAL KL PARITY ERROR FLAGS AND
   5725					; STORES THEM IN ".PEWRD" IN THE FOLLOWING FORMAT:
   5726					;
   5727					;	(A) BIT00 ("PE.CES") [CLK ERROR STOP H],
   5728					;	(B) BIT01 ("PE.DRM") [CLK DRAM PAR ERR H],
   5729					;	(C) BIT02 ("PE.CRM") [CLK CRAM PAR ERR H],
   5730					;	(D) BIT03 ("PE.FMP") [CLK FM PAR ERR H],
   5731					;	(E) BIT04 ("PE.FSS") [CLK FS ERROR H].
   5732					;
   5733					; INPUT ARGUMENTS:
   5734					;
   5735					;	NONE.
   5736					;
   5737					; OUTPUT ARGUMENTS:
   5738					;	R0 CONTAINS A COPY OF THE FLAGS IN ".PEWRD".
   5739					;
   5740					; ERROR CODES RETURNED:
   5741					;
   5742					;	FRF -- FUNCTION READ FAILED.
   5743					;-
   5744
   5745	006670				.RDIPE::
   5746	006670					CALL	R5,.REGSV	; SAVE R5 - R1 ON THE STACK
	006670	004537 	010302'			 JSR	R5,.REGSV
   5747	006674	012702 	000204 			MOV	#FR.102,R2	; BASE FUNCTION READ TO R2
   5748	006700	012703 	000040 			MOV	#BIT05,R3	; MASK BIT TO R3
   5749	006704	012704 	000176'			MOV	#.PEWRD,R4	; WORD POINTER TO R4
   5750	006710	005014 				CLR	(R4)		; CLEAR THE WORD
   5751	006712	012705 	000001 			MOV	#BIT00,R5	; BASE WORD MASK TO R5
   5752	006716	005001 				CLR	R1		; CLEAR R1
   5753	006720				10$:
   5754	006720	010200 				MOV	R2,R0		; GET THE FR NUMBER
   5755	006722					CALL	.FREAD		; DO THE READ
	006722	004737 	004362'			 JSR	PC,.FREAD
   5756	006726	030310 				BIT	R3,(R0)		; IS THE BIT ON?
   5757	006730	001401 				BEQ	20$		; NO -- GO ON
   5758	006732	050514 				BIS	R5,(R4)		; YES -- SET THE BIT IN THE WORD
   5759	006734				20$:
   5760	006734	062702 	000002 			ADD	#^D2,R2		; NEXT FUNCTION READ
   5761	006740	006305 				ASL	R5		; SHIFT THE WORD MASK
   5762	006742	020503 				CMP	R5,R3		; ARE WE DONE?
   5763	006744	001365 				BNE	10$		; NO -- KEEP GOING
   5767	006746	011400 				MOV	(R4),R0		; YES -- PUT THE WORD IN R0
   5768	006750					RETURN			; AND GO AWAY
	006750	000207 				 RTS	PC
KL10F -- KL10 FUNCTION MODULE  	MACRO M1113  10-NOV-81 17:44  PAGE 140
.RESET -- KL RESET SUBROUTINES 7511.18

   5770					.SBTTL	.RESET -- KL RESET SUBROUTINES 7511.18
   5771
   5772					;+
   5773					; .RESET -- SUBROUTINE TO RESET THE KL.
   5774					;
   5775					; THIS SUBROUTINE PERFORM ALL DIAGNOSTIC FUNCTIONS REQUIRED TO RESET
   5776					; THE KL MICROPROCESSOR AND SET UP CLOCK ENABLES AND PARITY STOPS.
   5777					;
   5778					; SEQUENCE OF OPERATION:
   5779					;
   5780					;	(A) THE DTE-20 IS CLEARED,
   5781					;	(B) THE MASTER RESET SUBROUTINE IS INVOKED,
   5782					;	(C) THE MAJOR KL CONTROL REGISTERS ARE CLEARED
   5783					;	    (THIS IS A FULL KL MASTER RESET).
   5784					;
   5785					; INPUT ARGUMENTS:
   5786					;
   5787					;	NONE.
   5788					;
   5789					; OUTPUT ARGUMENTS:
   5790					;
   5791					;	NONE.
   5792					;
   5793					; ERROR CODES RETURNED:
   5794					;
   5795					;	DSF -- DTE-20 STATUS FAILURE.
   5796					;	FRF -- FUNCTION READ FAILED.
   5797					;	FWF -- FUNCTION WRITE FAILED.
   5798					;	FXF -- FUNCTION EXECUTE FAILED.
   5799					;-
KL10F -- KL10 FUNCTION MODULE  	MACRO M1113  10-NOV-81 17:44  PAGE 141
.RESET -- KL RESET SUBROUTINES 7511.18

   5801	006752				.RESET::
   5802	006752					PUSH	<R0,R1,R2>	; SAVE CALLER'S REGISTERS
	006752	010046 				 MOV	R0,-(SP)
	006754	010146 				 MOV	R1,-(SP)
	006756	010246 				 MOV	R2,-(SP)
   5803	006760					CALL	.RESTD		; ...RESET THE DTE-20
	006760	004737 	007066'			 JSR	PC,.RESTD
   5804	006764	012702 	004274'			MOV	#RESETT,R2	; ...FUNCTION TABLE POINTER TO R2
   5805	006770					CALL	.STPXC		; ...STOP THE KL CLOCK
	006770	004737 	007302'			 JSR	PC,.STPXC
   5806	006774	005046 				CLR	-(SP)		; ...CLEAR A TEMP BUFFER
   5807	006776	010601 				MOV	SP,R1		; ....POINT TO TEMP BUFFER
   5808	007000					CALL	.LDCLK		; ....CLEAR THE CLOCKS OUT
	007000	004737 	005554'			 JSR	PC,.LDCLK
   5809	007004					CALL	.LDPAR		; ....RESET THE PARITY REGISTERS
	007004	004737 	005572'			 JSR	PC,.LDPAR
   5810	007010					CALL	.MRCLR		; ....DO MASTER RESET STUFF
	007010	004737 	005766'			 JSR	PC,.MRCLR
   5811	007014					CALL	.CLDFB		; ....CLEAR THE FUNCTION BUFFERS
	007014	004737 	003370'			 JSR	PC,.CLDFB
   5812	007020				10$:
   5813	007020	005001 				CLR	R1		; ....CLEAR R1
   5814	007022	112200 				MOVB	(R2)+,R0	; ....FUNCTION WRITE CODE TO R0
   5815	007024					CALL	.FWRIT		; ....DO THE WRITE
	007024	004737 	004444'			 JSR	PC,.FWRIT
   5816	007030	022702 	004302'			CMP	#RSTEND,R2	; ....ARE WE CLOSE TO END?
   5817	007034	101371 				BHI	10$		; ....NO -- KEEP GOING
   5818	007036	112210 				MOVB	(R2)+,(R0)	; ....YES -- GET THE DATA
   5819	007040	111200 				MOVB	(R2),R0		; ....FOR LAST WRITE
   5820	007042					CALL	.FWRIT		; ....DO IT
	007042	004737 	004444'			 JSR	PC,.FWRIT
   5821	007046	005726 				TST	(SP)+		; ....CLEAR THE STACK
   5822	007050					POP	<R2,R1,R0>	; ...RESTORE REGISTERS
	007050	012602 				 MOV	(SP)+,R2
	007052	012601 				 MOV	(SP)+,R1
	007054	012600 				 MOV	(SP)+,R0
   5823	007056	052737 	000000G	000002G		BIS	#EF.CRI,.COMEF+2 ; DECLARE THE COMM REGION INVALID
   5824	007064					RETURN			; TO CALLER
	007064	000207 				 RTS	PC
   5825
   5826					; TABLE OF FUNCTION WRITE CODES FOR RESET
   5827
   5828	004274				.PSECT	DATA
   5829
   5830	004274				RESETT:
   5831	004274	   104 				.BYTE	FW.LBR		; CLEAR BURST COUNTER - RIGHT
   5832	004275	   106 				.BYTE	FW.LBL		; CLEAR BURST COUNTER - LEFT
   5833	004276	   124 				.BYTE	FW.CA2		; CLEAR CRAM DIAG ADDR - LEFT
   5834	004277	   122 				.BYTE	FW.CA1		; CLEAR CRAM DIAG ADDR - RIGHT
   5835	004300	   156 				.BYTE	FW.KLO		; ENABLE KL OPCODES
   5836	004301	   174 				.BYTE	FW.EBL		; EBUS LOAD
   5837		004302'			RSTEND=.
   5838	004302	   012 				.BYTE	12		; DATA FOR
   5839	004303	   162 				.BYTE	FW.MBX		; MBOX CONTROL
   5840					.EVEN
   5841	007066				.PSECT
KL10F -- KL10 FUNCTION MODULE  	MACRO M1113  10-NOV-81 17:44  PAGE 142
.RESTD -- DTE-20 RESET SUBROUTINE 7607.20

   5843					.SBTTL	.RESTD -- DTE-20 RESET SUBROUTINE 7607.20
   5844
   5845					;+
   5846					; .RESTD -- SUBROUTINE TO RESET THE DTE-20.
   5847					;
   5848					; THIS SUBROUTINE RESETS THE DTE-20.
   5849					;
   5850					; SEQUENCE OF OPERATION:
   5851					;
   5852					;	(A) THE DTE-20 IS CLEARED.
   5853					;
   5854					; INPUT ARGUMENTS:
   5855					;
   5856					;	NONE.
   5857					;
   5858					; OUTPUT ARGUMENTS:
   5859					;
   5860					;	NONE.
   5861					;
   5862					; ERROR CODES RETURNED:
   5863					;
   5864					;	DSF -- DTE-20 STATUS FAILURE.
   5865					;	FRF -- FUNCTION READ FAILED.
   5866					;	FWF -- FUNCTION WRITE FAILED.
   5867					;	FXF -- FUNCTION EXECUTE FAILED.
   5868					;-
   5869
   5870	007066				.RESTD::
   5871	007066	012700 	004304'			MOV	#D2RST,R0	; DIAG WORD 2 RESET
   5872	007072					CALL	.DWDW2		; WRITE IT
	007072	004737 	003462'			 JSR	PC,.DWDW2
   5873	007076	012700 	004306'			MOV	#D3RST,R0	; DIAG WORD 3 RESET
   5874	007102					CALLR	.DWDW3		; WRITE IT
	007102	000137 	003502'			 JMP	.DWDW3
   5875						;
   5876
   5877	004304				.PSECT	DATA
   5878
   5879	004304				D2RST:
   5880	004304	000100 				.WORD	D2.RST		; DIAG WORD 2 RESET
   5881	004306				D3RST:
   5882	004306	000001 				.WORD	D3.RST		; DIAG WORD 3 RESET
   5883
   5884	007106				.PSECT
KL10F -- KL10 FUNCTION MODULE  	MACRO M1113  10-NOV-81 17:44  PAGE 143
.RESTI -- RESET KL AND ENABLE NORMAL CLOCK AND PARITY 7607.19

   5886					.SBTTL	.RESTI -- RESET KL AND ENABLE NORMAL CLOCK AND PARITY 7607.19
   5887
   5888					;+
   5889					; .RESTI -- SUBROUTINE TO RESET THE KL AND SET UP NORMAL
   5890					;	    KL CLOCK ENABLES AND PARITY STOPS.
   5891					;
   5892					; THIS SUBROUTINE PERFORMS ALL DIAGNOSTIC FUNCTIONS REQUIRED TO RESET
   5893					; THE KL MICROPROCESSOR AND SET UP NORMAL CLOCK ENABLES AND PARITY STOPS
   5894					;
   5895					; SEQUENCE OF OPERATION:
   5896					;
   5897					;	(A) ".RESET" IS INVOKED,
   5898					;	(B) NORMAL KL CLOCKS ARE ENABLED,
   5899					;	(C) NORMAL KL PARITY STOPS ARE ENABLED.
   5900					;
   5901					; INPUT ARGUMENTS:
   5902					;
   5903					;	NONE.
   5904					;
   5905					; OUTPUT ARGUMENTS:
   5906					;
   5907					;	NONE.
   5908					;
   5909					; ERROR CODES RETURNED:
   5910					;
   5911					;	DSF -- DTE-20 STATUS FAILURE.
   5912					;	FRF -- FUNCTION READ FAILED.
   5913					;	FWF -- FUNCTION WRITE FAILED.
   5914					;	FXF -- FUNCTION EXECUTE FAILED.
   5915					;-
   5916
   5917						.ENABL	LSB
   5918
   5919	007106				.RESTI::
   5920	007106					PUSH	R1		; SAVE R1
	007106	010146 				 MOV	R1,-(SP)
   5921	007110	005046 				CLR	-(SP)		; .CLEAR A LOCATION ON THE STACK
   5922	007112					CALL	.RESET		; ..RESET THE KL
	007112	004737 	006752'			 JSR	PC,.RESET
   5923	007116	010601 				MOV	SP,R1		; ..POINT TO SCRATCH BUFFER
   5927	007120					CALL	.LDCLK		; ..SET NORMAL CLOCK ENABLES
	007120	004737 	005554'			 JSR	PC,.LDCLK
   5928	007124	012716 	001416 			MOV	#PS.NRM,(SP)	; ..SET UP NORMAL PARITY ENABLES
   5929	007130	000417 				BR	10$		; ..AND GO SET THEM
   5930						;
KL10F -- KL10 FUNCTION MODULE  	MACRO M1113  10-NOV-81 17:44  PAGE 144
.RESTP -- RESET KL AND SAVE CURRENT CLOCK AND PARITY 7511.19

   5932					.SBTTL	.RESTP -- RESET KL AND SAVE CURRENT CLOCK AND PARITY 7511.19
   5933
   5934					;+
   5935					; .RESTP -- SUBROUTINE TO RESET THE KL AND RESTORE THE
   5936					;	    PREVIOUS KL PARITY STOPS.
   5937					;
   5938					; THIS SUBROUTINE PERFORMS ALL DIAGNOSTIC FUNCTIONS REQUIRED TO RESET
   5939					; THE KL MICROPROCESSOR AND SET UP CURRENT CLOCK ENABLES AND PARITY STOPS
   5940					;
   5941					; SEQUENCE OF OPERATION:
   5942					;
   5943					;	(A) ".RESET" IS INVOKED.
   5944					;	(B) THE PREVIOUSLY ENABLED CLOCK AND PARITY CONTROLS ARE
   5945					;	    REENABLED.
   5946					;
   5947					; INPUT ARGUMENTS:
   5948					;
   5949					;	NONE.
   5950					;
   5951					; OUTPUT ARGUMENTS:
   5952					;
   5953					;	NONE.
   5954					;
   5955					; ERROR CODES RETURNED:
   5956					;
   5957					;	DSF -- DTE-20 STATUS FAILURE.
   5958					;	FRF -- FUNCTION READ FAILED.
   5959					;	FWF -- FUNCTION WRITE FAILED.
   5960					;	FXF -- FUNCTION EXECUTE FAILED.
   5961					;-
KL10F -- KL10 FUNCTION MODULE  	MACRO M1113  10-NOV-81 17:44  PAGE 145
.RESTP -- RESET KL AND SAVE CURRENT CLOCK AND PARITY 7511.19

   5963	007132				.RESTP::
   5964	007132					PUSH	R1		; SAVE R1
	007132	010146 				 MOV	R1,-(SP)
   5965	007134					CALL	.STPXC		; .STOP THE KL CLOCK
	007134	004737 	007302'			 JSR	PC,.STPXC
   5966	007140					CALL	.RDCPP		; .READ CURRENT CLOCK AND PARITY ENABLES
	007140	004737 	006134'			 JSR	PC,.RDCPP
   5967	007144					PUSH	.PSCWD		; .SAVE THE PARITY CONTROL WORD
	007144	013746 	000204'			 MOV	.PSCWD,-(SP)
   5968	007150					PUSH	.CLKWD		; ..SAVE THE CLOCK CONTROL WORD
	007150	013746 	000010'			 MOV	.CLKWD,-(SP)
   5969	007154					CALL	.RESET		; ...DO A MASTER RESET
	007154	004737 	006752'			 JSR	PC,.RESET
   5970	007160	010601 				MOV	SP,R1		; ...POINT TO THE CLOCK WORD
   5971	007162					CALL	.LDCLK		; ...LOAD THE CLOCKS AGAIN
	007162	004737 	005554'			 JSR	PC,.LDCLK
   5972	007166	005726 				TST	(SP)+		; ...FLUSH SAVED CLOCK WORD
   5973	007170				10$:
   5974	007170	010601 				MOV	SP,R1		; ..POINT TO THE PARITY WORD
   5975	007172					CALL	.LDPAR		; ..LOAD THE PARITY STOPS
	007172	004737 	005572'			 JSR	PC,.LDPAR
   5976	007176	005726 				TST	(SP)+		; ..FLUSH THE PARITY WORD
   5977	007200					POP	R1		; .RESTORE R1
	007200	012601 				 MOV	(SP)+,R1
   5978	007202					RETURN			; AND GO AWAY
	007202	000207 				 RTS	PC
   5979
   5980						.DSABL	LSB
KL10F -- KL10 FUNCTION MODULE  	MACRO M1113  10-NOV-81 17:44  PAGE 146
.RSTKL -- SUBROUTINE TO RESTART THE KL 7611.17

   5982					.SBTTL	.RSTKL -- SUBROUTINE TO RESTART THE KL 7611.17
   5983
   5984					;+
   5985					; .RSTKL -- SUBROUTINE TO RESTART THE KL
   5986					;
   5987					; THIS SUBROUTINE WILL RESTART THE KL, IF IT WAS STOPPED BY ".STPKL".
   5988					;
   5989					; INPUT ARGUMENTS:
   5990					;
   5991					;	THE STATE FLAGS IN ".SVKLF" REPRESENT THE STATE TO WHICH
   5992					;	THE KL IS TO BE RESTORED.
   5993					;
   5994					; OUTPUT ARGUMENTS:
   5995					;
   5996					;	".SVKLF" IS CLEARED.
   5997					;
   5998					; ERROR CODES RETURNED:
   5999					;
   6000					;	NONE.
   6001					;-
   6002
   6003	007204				.RSTKL::
   6004	007204	032737 	040000 	000226'		BIT	#KF.RUN,.SVKLF	; DID WE STOP THE KL?
   6005	007212	001404 				BEQ	10$		; NO -- JUST RETURN
   6006	007214					CALL	.KLRST		; YES -- RESTART THE KL
	007214	004737 	005274'			 JSR	PC,.KLRST
   6007	007220	105037 	000000G			CLRB	.NOHLT		; LET RSX20F DETECT HALTS
   6008	007224				10$:
   6009	007224	005037 	000226'			CLR	.SVKLF		; CLEAR SAVED FLAGS
   6010	007230					RETURN			; TO CALLER
	007230	000207 				 RTS	PC
KL10F -- KL10 FUNCTION MODULE  	MACRO M1113  10-NOV-81 17:44  PAGE 147
.STCLK -- START KL CLOCK SUBROUTINE 7607.15

   6012					.SBTTL	.STCLK -- START KL CLOCK SUBROUTINE 7607.15
   6013
   6014					;+
   6015					; .STCLK -- SUBROUTINE TO START THE KL CLOCK.
   6016					;
   6017					; THIS SUBROUTINE WILL START THE KL CLOCK.
   6018					;
   6019					; INPUT ARGUMENTS:
   6020					;
   6021					;	NONE.
   6022					;
   6023					; OUTPUT ARGUMENTS:
   6024					;
   6025					;	NONE.
   6026					;
   6027					; ERROR CODES RETURNED:
   6028					;
   6029					;	CES -- CLOCK ERROR STOP.
   6030					;	FXF -- FUNCTION EXECUTE FAILED.
   6031					;-
   6032
   6033	007232				.STCLK::
   6034	007232	000241 				CLC			; CLEAR CC-C
   6035	007234					CALL	.CESCK		; CHECK FOR CLOCK ERROR STOP
	007234	004737 	000000'			 JSR	PC,.CESCK
   6036	007240				.STCLF::			; HERE TO START THE CLOCK ANYWAY
   6037	007240					PUSH	R0		; SAVE R0
	007240	010046 				 MOV	R0,-(SP)
   6038	007242	012700 	000002 			MOV	#FX.CST,R0	; .SET UP TO START THE KL CLOCK
   6039	007246					CALL	.FXCT		; .DO IT
	007246	004737 	004566'			 JSR	PC,.FXCT
   6040	007252					POP	R0		; .RESTORE R0
	007252	012600 				 MOV	(SP)+,R0
   6041	007254					RETURN			; RETURN TO CALLER
	007254	000207 				 RTS	PC
KL10F -- KL10 FUNCTION MODULE  	MACRO M1113  10-NOV-81 17:44  PAGE 148
.STPKL -- SUBROUTINE TO STOP THE KL 7602.25

   6043					.SBTTL	.STPKL -- SUBROUTINE TO STOP THE KL 7602.25
   6044
   6045					;+
   6046					; .STPKL -- SUBROUTINE TO STOP THE KL.
   6047					;
   6048					; THIS SUBROUTINE WILL STOP THE KL HALT LOOP IF IT BELIEVES THAT
   6049					; THE KL RUN FLOP IS SET ("KF.RUN" IN ".KLFLG").
   6050					;
   6051					; INPUT ARGUMENTS:
   6052					;
   6053					;	THE STATE OF THE KL IS IN ".KLFLG"
   6054					;
   6055					; OUTPUT ARGUMENTS:
   6056					;
   6057					;	THE CURRENT STATE OF THE KL IS IN ".KLFLG"
   6058					;	THE PREVIOUS STATE OF THE KL IS IN ".SVKLF"
   6059					;
   6060					; ERROR CODES RETURNED:
   6061					;
   6062					;	NONE.
   6063					;-
   6064
   6065	007256				.STPKL::
   6066	007256	032737 	040000 	000000G		BIT	#KF.RUN,.KLFLG	; IS THE KL RUNNING?
   6067	007264	001405 				BEQ	10$		; NO -- JUST EXIT
   6068	007266	013737 	000000G	000226'		MOV	.KLFLG,.SVKLF	; YES -- SAVE CURRENT KL STATE
   6069	007274					CALL	.KLSTP		; STOP THE KL
	007274	004737 	005212'			 JSR	PC,.KLSTP
   6070	007300				10$:
   6071	007300					RETURN			; TO CALLER
	007300	000207 				 RTS	PC
KL10F -- KL10 FUNCTION MODULE  	MACRO M1113  10-NOV-81 17:44  PAGE 149
.STPXC -- STOP KL CLOCK SUBROUTINE 7601.09

   6073					.SBTTL	.STPXC -- STOP KL CLOCK SUBROUTINE 7601.09
   6074
   6075					;+
   6076					; .STPXC -- SUBROUTINE TO STOP THE KL CLOCK.
   6077					;
   6078					; THIS SUBROUTINE STOPS THE KL CLOCK.
   6079					;
   6080					; INPUT ARGUMENTS:
   6081					;
   6082					;	NONE.
   6083					;
   6084					; OUTPUT ARGUMENTS:
   6085					;
   6086					;	NONE
   6087					;
   6088					; ERROR CODES RETURNED:
   6089					;
   6090					;	FXF -- FUNCTION EXECUTE FAILED
   6091					;-
   6092
   6093						.ENABL	LSB
   6094
   6095	007302				.STPXC::
   6096	007302	000241 				CLC			; CLEAR CC-C
   6098	007304					WTSE$S	#E.FHTO		; WAIT FOR KL I/O TO SETTLE FROM ".CLRFF"
	007304	012746 	000001 			MOV	#E.FHTO,-(SP)
	007310	012746 				MOV	(PC)+,-(SP)
	007312	   051 	   002 			.BYTE	41.,2
	007314	104375 				EMT	375
   6100	007316					PUSH	R0		; SAVE R0
	007316	010046 				 MOV	R0,-(SP)
   6101	007320	112737 	000001 	000000G		MOVB	#1,.NOERR	; TELL RSX20F NOT TO PANIC ABOUT CLOCK STOP
   6102	007326	005000 				CLR	R0		; .SET UP TO STOP THE KL CLOCK
   6103									; .FUNCTION CODE IS ZERO
   6104	007330	000404 				BR	10$		; .DO IT
   6105						;
KL10F -- KL10 FUNCTION MODULE  	MACRO M1113  10-NOV-81 17:44  PAGE 150
.STRUN -- SET KL RUN FLOP SUBROUTINE 7601.09

   6107					.SBTTL	.STRUN -- SET KL RUN FLOP SUBROUTINE 7601.09
   6108
   6109					;+
   6110					; .STRUN -- SUBROUTINE TO SET THE KL RUN FLOP.
   6111					;
   6112					; THIS SUBROUTINE SETS THE KL RUN FLOP.
   6113					;
   6114					;
   6115					; INPUT ARGUMENTS:
   6116					;
   6117					;	NONE.
   6118					;
   6119					; OUTPUT ARGUMENTS:
   6120					;
   6121					;	NONE
   6122					;
   6123					; ERROR CODES RETURNED:
   6124					;
   6125					;	FXF -- FUNCTION EXECUTE FAILED
   6126					;-
   6127
   6128	007332				.STRUN::
   6129	007332	000241 				CLC			; CLEAR CC-C
   6130	007334					PUSH	R0		; SAVE R0
	007334	010046 				 MOV	R0,-(SP)
   6131	007336	012700 	000022 			MOV	#FX.SRF,R0	; .SET UP TO SET KL RUN FLOP
   6132	007342				10$:
   6133	007342					CALL	.FXCT		; .DO IT
	007342	004737 	004566'			 JSR	PC,.FXCT
   6134	007346					POP	R0		; .RESTORE R0
	007346	012600 				 MOV	(SP)+,R0
   6135	007350					RETURN			; TO CALLER
	007350	000207 				 RTS	PC
   6136
   6137						.DSABL	LSB
KL10F -- KL10 FUNCTION MODULE  	MACRO M1113  10-NOV-81 17:44  PAGE 151
.STUCD -- START KL MICROCODE SUBROUTINE 7511.22

   6139					.SBTTL	.STUCD -- START KL MICROCODE SUBROUTINE 7511.22
   6140
   6141					;+
   6142					; .STUCD -- SUBROUTINE TO START THE KL MICROCODE AT THE
   6143					;	    ADDRESS SPECIFIED IN R0.
   6144					;
   6145					; SEQUENCE OF OPERATION:
   6146					;
   6147					;	(A) THE KL RUN FLOP IS CLEARED,
   6148					;	(B) THE KL RUN FLOP IS TURNED OFF,
   6149					;	(C) THE KL IS CLEARED,
   6150					;	(D) THE CRAM ADDRESS IS LOADED,
   6151					;	(E) THE KL CLOCK IS RESTARTED.
   6152					;
   6153					; THE SUBROUTINE EXITS WHEN THE KL HAS FOUND THE HALT LOOP.
   6154					; IF THE HALT LOOP IS NOT FOUND, AN ERROR RETURN IS GIVEN.
   6155					;
   6156					; INPUT ARGUMENTS:
   6157					;
   6158					;	R0 CONTAINS THE CRAM ADDRESS
   6159					;
   6160					; OUTPUT ARGUMENTS:
   6161					;
   6162					;	NONE.
   6163					;
   6164					; ERROR CODES RETURNED:
   6165					;
   6166					;	CAE -- CRAM ADDRESS ERROR.
   6167					;	FRF -- FUNCTION READ FAILED.
   6168					;	FWF -- FUNCTION WRITE FAILED.
   6169					;	FXF -- FUNCTION EXECUTE FAILED
   6170					;	UNL -- UCODE NOT LOADED.
   6171					;
   6172					; NOTE:
   6173					;
   6174					;	THE NORMAL CRAM STARTING ADDRESS IS 0. ATTEMPTING TO
   6175					;	START THE CONTROL RAM AT AN ADDRESS OTHER THAN 0 CAN
   6176					;	PRODUCE STRANGE RESULTS. CAVEAT PROGRAMMATOR (OPERATOR).
   6177					;	CONSIDER YOURSELF WARNED.
   6178					;-
KL10F -- KL10 FUNCTION MODULE  	MACRO M1113  10-NOV-81 17:44  PAGE 152
.STUCD -- START KL MICROCODE SUBROUTINE 7511.22

   6180	007352				.STUCD::
   6181	007352	020027 	002377 			CMP	R0,#2377	; IS IT IN RANGE?
   6182	007356	101030 				BHI	STUCAE		; NO -- GIVE "CAE" ERROR
   6183	007360					PUSH	<R1,R0>		; YES -- SAVE THE ADDRESS ON THE STACK
	007360	010146 				 MOV	R1,-(SP)
	007362	010046 				 MOV	R0,-(SP)
   6184	007364					CALL	.CLRFF		; ..CLEAR THE KL RUN FLOP
	007364	004737 	003420'			 JSR	PC,.CLRFF
   6185	007370					CALL	.STPXC		; ..STOP THE KL CLOCK
	007370	004737 	007302'			 JSR	PC,.STPXC
   6186	007374	011600 				MOV	(SP),R0		; ..CRAM ADDRESS TO R0
   6187	007376					CALL	.LDCRA		; ..LOAD IT
	007376	004737 	005652'			 JSR	PC,.LDCRA
   6188	007402					CALL	.STCLK		; ..START THE KL CLOCK
	007402	004737 	007232'			 JSR	PC,.STCLK
   6189	007406	012701 	000310 			MOV	#^D200,R1	; ..SETUP WAIT LOOP
   6190	007412				10$:
   6191	007412					CALL	.DTDW1		; ..READ DTE-20 DIAG WORD 1
	007412	004737 	003530'			 JSR	PC,.DTDW1
   6192	007416	032700 	001000 			BIT	#D1.HLP,R0	; ..ARE WE IN THE HALT LOOP?
   6196	007422	001001 				BNE	20$		; ..YES -- EXIT
   6197	007424	077106 				SOB	R1,10$		; ..NO -- TRY TILL COUNT EXHAUSTED
   6198	007426				20$:
   6199	007426	005701 				TST	R1		; ..DID COUNT GET EXHAUSTED?
   6200	007430	003406 				BLE	STUUNL		; ..YES -- WE LOST
   6201	007432					POP	<R0,R1>		; ..NO -- RESTORE R0 AND R1
	007432	012600 				 MOV	(SP)+,R0
	007434	012601 				 MOV	(SP)+,R1
   6202	007436					RETURN			; TO CALLER
	007436	000207 				 RTS	PC
   6203	007440				STUCAE:
   6204	007440					ERROR$	CAE		; ERROR -- CRAM ADDRESSING ERROR
	007440	012746 	011355 			 MOV	#^RCAE,-(SP)
	007444	104400 				 TRAP	TC.ERR
   6205						;
   6206	007446				STUUNL:
   6207	007446					ERROR$	UNL		; ERROR -- UCODE NOT LOADED
	007446	012746 	102574 			 MOV	#^RUNL,-(SP)
	007452	104400 				 TRAP	TC.ERR
   6208						;
KL10F -- KL10 FUNCTION MODULE  	MACRO M1113  10-NOV-81 17:44  PAGE 153
.SYNXC -- SYNCH EBOX CLOCK SUBROUTINE 7509.03

   6210					.SBTTL	.SYNXC -- SYNCH EBOX CLOCK SUBROUTINE 7509.03
   6211
   6212					;+
   6213					; .SYNXC -- SUBROUTINE TO SYNCH THE EBOX CLOCK LOW.
   6214					;
   6215					; THIS SUBROUTINE SYNCHS THE KL EBOX CLOCK LOW
   6216					;
   6217					;
   6218					; INPUT ARGUMENTS:
   6219					;
   6220					;	NONE.
   6221					;
   6222					; OUTPUT ARGUMENTS:
   6223					;
   6224					;	NONE
   6225					;
   6226					; ERROR CODES RETURNED:
   6227					;
   6228					;	FXF -- FUNCTION EXECUTE FAILED
   6229					;-
   6230
   6231						.ENABL	LSB
   6232
   6233	007454				.SYNXC::
   6234	007454	000241 				CLC			; CLEAR CC-C
   6235	007456					PUSH	R0		; SAVE R0
	007456	010046 				 MOV	R0,-(SP)
   6236	007460	012700 	000010 			MOV	#FX.SYC,R0	; .SET UP TO SYNCH EBOX CLOCK
   6237	007464					CALL	.FXCT		; .DO IT
	007464	004737 	004566'			 JSR	PC,.FXCT
   6238	007470	000411 				BR	10$		; .RESTORE R0 AND EXIT
   6239						;
KL10F -- KL10 FUNCTION MODULE  	MACRO M1113  10-NOV-81 17:44  PAGE 154
.WRTAR -- SUBROUTINE TO WRITE THE KL AR REGISTER 7511.05

   6241					.SBTTL	.WRTAR -- SUBROUTINE TO WRITE THE KL AR REGISTER 7511.05
   6242
   6243					;+
   6244					; .WRTAR -- SUBROUTINE TO WRITE THE KL AR REGISTER.
   6245					; .WRAR1 -- SUBROUTINE TO WRITE THE KL AR REGISTER WITHOUT
   6246					;	    STOPPING THE KL CLOCK.
   6247					;
   6248					; THIS SUBROUTINE WILL WRITE A 36 BIT WORD TO THE KL AR REGISTER.
   6249					;
   6250					; SEQUENCE OF OPERATION:
   6251					;
   6252					; .WRTAR:
   6253					;
   6254					;	(A) THE KL CLOCK IS STOPPED,
   6255					;
   6256					; .WRAR1:
   6257					;
   6258					;	(B) THE EBOX CLOCK IS SYNCHED LOW,
   6259					;	(C) THE DATA IS WRITTEN INTO THE KL AR REGISTER.
   6260					;
   6261					; INPUT ARGUMENTS:
   6262					;
   6263					;	R1 POINTS TO THE DATA TO BE WRITTEN
   6264					;
   6265					; OUTPUT ARGUMENTS:
   6266					;
   6267					;	NONE.
   6268					;
   6269					; ERROR CODES RETURNED:
   6270					;
   6271					;	FWF -- FUNCTION WRITE FAILED.
   6272					;-
   6273
   6274	007472				.WRTAR::
   6275	007472					CALL	.STPXC		; STOP THE KL CLOCK
	007472	004737 	007302'			 JSR	PC,.STPXC
   6276	007476				.WRAR1::
   6277	007476					CALL	.SYNXC		; FORCE THE EBOX CLOCK LOW
	007476	004737 	007454'			 JSR	PC,.SYNXC
   6278	007502					PUSH	R0		; SAVE R0
	007502	010046 				 MOV	R0,-(SP)
   6279	007504	012700 	000176 			MOV	#FW.LAR,R0	; .FUNCTION WRITE CODE TO R0
   6280	007510					CALL	.FWRIT		; .LOAD THE AR
	007510	004737 	004444'			 JSR	PC,.FWRIT
   6281	007514				10$:
   6282	007514					POP	R0		; .RESTORE R0
	007514	012600 				 MOV	(SP)+,R0
   6283	007516					RETURN			; RETURN TO CALLER
	007516	000207 				 RTS	PC
   6284
   6285						.DSABL	LSB
KL10F -- KL10 FUNCTION MODULE  	MACRO M1113  10-NOV-81 17:44  PAGE 155
.WRCRM -- WRITE CONTROL RAM SUBROUTINE 7511.03

   6287					.SBTTL	.WRCRM -- WRITE CONTROL RAM SUBROUTINE 7511.03
   6288
   6289					;+
   6290					; .WRCRM -- SUBROUTINE TO WRITE A LOCATION IN THE KL CONTROL RAM.
   6291					;
   6292					; THIS SUBROUTINE WILL WRITE ONE LOCATION IN THE KL CONTROL RAM.
   6293					; THE CRAM ADDRESS TO BE WRITTEN IS SPECIFIED IN R0.
   6294					;
   6295					; SEQUENCE OF OPERATION:
   6296					;
   6297					;	(A) THE KL IS HALTED IN THE HALT LOOP,
   6298					;	(B) THE CONTROL RAM ADDRESS IS LOADED,
   6299					;	(C) THE CONTENT OF THAT CRAM ADDRESS IS WRITTEN.
   6300					;
   6301					; INPUT ARGUMENTS:
   6302					;
   6303					;	R0 CONTAINS THE CRAM ADDRESS TO BE WRITTEN.
   6304					;	R1 POINTS TO A NINE WORD DATA BLOCK TO BE WRITTEN.
   6305					;
   6306					; OUTPUT ARGUMENTS:
   6307					;
   6308					;	NONE.
   6309					;
   6310					; THE FOLLOWING IS A PICTURE OF THE DATA WRITTEN BY THIS SUBROUTINE:
   6311					;
   6312					;	WORD		CRAM DATA
   6313					;	----		---------
   6314					;		+==================================+
   6315					;	00	|	CRAM BITS 68 THRU 78	   |
   6316					;		+----------------------------------+
   6317					;	01	|	CRAM BITS 60 THRU 66       |
   6318					;		+----------------------------------+
   6319					;	02	|	CRAM BITS 48 THRU 59	   |
   6320					;		+----------------------------------+
   6321					;	03	|	CRAM BITS 40 THRU 47	   |
   6322					;		+----------------------------------+
   6323					;	04	|	CRAM BITS 28 THRU 39	   |
   6324					;		+----------------------------------+
   6325					;	05	|	CRAM BITS 20 THRU 27	   |
   6326					;		+----------------------------------+
   6327					;	06	|	CRAM BITS 08 THRU 19	   |
   6328					;		+----------------------------------+
   6329					;	07	|	CRAM BITS 00 THRU 07	   |
   6330					;		+----------------------------------+
   6331					;	08	|    CRAM DISP BITS 00 THRU 04	   |
   6332					;		+==================================+
   6333					;
   6334					; ERROR CODES RETURNED:
   6335					;
   6336					;	CAE -- CRAM ADDRESS ERROR.
   6337					;	FRF -- FUNCTION READ FAILED.
   6338					;	FWF -- FUNCTION WRITE FAILED.
   6339					;	FXF -- FUNCTION EXECUTE FAILED.
   6340					;-
   6341
   6342	007520				.WRCRM::
   6343	007520	020027 	002377 			CMP	R0,#2377	; IS THE ADDRESS IN RANGE?
KL10F -- KL10 FUNCTION MODULE  	MACRO M1113  10-NOV-81 17:44  PAGE 155-1
.WRCRM -- WRITE CONTROL RAM SUBROUTINE 7511.03

   6344	007524	101063 				BHI	WRCRME		; NO -- GIVE "CAE" ERROR
   6345	007526					PUSH	<R4,R3,R2,R1,R0>; YES -- SAVE CALLER'S REGISTERS
	007526	010446 				 MOV	R4,-(SP)
	007530	010346 				 MOV	R3,-(SP)
	007532	010246 				 MOV	R2,-(SP)
	007534	010146 				 MOV	R1,-(SP)
	007536	010046 				 MOV	R0,-(SP)
   6346	007540	010102 				MOV	R1,R2		; .....CALLER'S POINTER TO R2
   6347	007542	012704 	000130 			MOV	#FW.CR4,R4	; .....BASE WRITE TO R4
   6348	007546	011600 				MOV	(SP),R0		; .....GET CRAM ADDRESS FROM THE STACK
   6349	007550					CALL	.LDCRA		; .....LOAD IT
	007550	004737 	005652'			 JSR	PC,.LDCRA
   6350	007554	012703 	000004 			MOV	#^D4,R3		; .....USE R3 AS A COUNTER
   6351	007560	012700 	000304'		10$:	MOV	#.DFWB,R0	; .....POINT TO THE WRITE BUFFER
   6352	007564	012220 				MOV	(R2)+,(R0)+	; .....LOAD OUR BUFFER FROM CALLER'S
   6353	007566	012220 				MOV	(R2)+,(R0)+	; .....
   6354	007570	005010 				CLR	(R0)		; .....
   6355	007572	005001 				CLR	R1		; .....CLEAR R1
   6356	007574	010400 				MOV	R4,R0		; .....PASS THE FWRITE CODE
   6357	007576					CALL	.FWRIT		; .....DO IT
	007576	004737 	004444'			 JSR	PC,.FWRIT
   6358	007602	062704 	000002 			ADD	#^D2,R4		; .....INCREMENT THE FWRITE CODE
   6359	007606	077314 				SOB	R3,10$		; .....LOOP TILL DONE
   6360	007610	011210 				MOV	(R2),(R0)	; .....LOAD THE CRAM DISP BITS
   6361	007612	012701 	000036 			MOV	#^D30,R1	; .....SHIFT COUNT
   6362	007616					CALL	.TPSHI		; .....SHIFT IT
	007616	004737 	011756'			 JSR	PC,.TPSHI
   6363	007622	005001 				CLR	R1		; .....CLEAR R1
   6364	007624	012700 	000126 			MOV	#FW.CRD,R0	; .....WRITE CODE
   6365	007630					CALL	.FWRIT		; .....WRITE IT
	007630	004737 	004444'			 JSR	PC,.FWRIT
   6366	007634					CALL	.CLDFW		; .....CLEAR THE FUNCTION WRITE BUFFER
	007634	004737 	003404'			 JSR	PC,.CLDFW
   6367	007640	012700 	000122 			MOV	#FW.CA1,R0	; .....CLEAR CRAM DIAG ADDR
   6368	007644					CALL	.FWRIT		; .....SO
	007644	004737 	004444'			 JSR	PC,.FWRIT
   6369	007650	012700 	000124 			MOV	#FW.CA2,R0	; .....NOW FOR THE OTHER HALF
   6370	007654					CALL	.FWRIT		; .....SO
	007654	004737 	004444'			 JSR	PC,.FWRIT
   6371	007660					POP	<R0,R1,R2,R3,R4>; .....RESTORE REGISTERS
	007660	012600 				 MOV	(SP)+,R0
	007662	012601 				 MOV	(SP)+,R1
	007664	012602 				 MOV	(SP)+,R2
	007666	012603 				 MOV	(SP)+,R3
	007670	012604 				 MOV	(SP)+,R4
   6372	007672					RETURN			; TO CALLER
	007672	000207 				 RTS	PC
   6373	007674				WRCRME:
   6374	007674					ERROR$	CAE		; ERROR -- CRAM ADDRESSING ERROR
	007674	012746 	011355 			 MOV	#^RCAE,-(SP)
	007700	104400 				 TRAP	TC.ERR
   6375						;
   6376					.TITLE	NULLC -- NULL COMMAND MODULE 7603.30
   6377
   6378						.IDENT	"005000"
   6379
   6380					;
NULLC -- NULL COMMAND MODULE 76	MACRO M1113  10-NOV-81 17:44  PAGE 155-2
.WRCRM -- WRITE CONTROL RAM SUBROUTINE 7511.03

   6381					;                             COPYRIGHT (C) 1975, 1979 BY
   6382					;                     DIGITAL EQUIPMENT CORPORATION, MAYNARD MASS.
   6383					;
   6384					;       THIS SOFTWARE IS FURNISHED UNDER A LICENSE AND MAY BE  USED  AND  COPIED
   6385					;       ONLY IN ACCORDANCE WITH THE TERMS OF SUCH LICENSE AND WITH THE INCLUSION
   6386					;       OF THE ABOVE COPYRIGHT NOTICE.  THIS SOFTWARE OR ANY OTHER COPIES THERE-
   6387					;       OF  MAY NOT BE PROVIDED OR OTHERWISE MADE AVAILABLE TO ANY OTHER PERSON.
   6388					;       NO TITLE TO OR OWNERSHIP OF THE SOFTWARE IS HEREBY TRANSFERRED.
   6389					;
   6390					;       THE INFORMATION CONTAINED IN THIS SOFTWARE IS SUBJECT TO CHANGE  WITHOUT
   6391					;       NOTICE  AND SHOULD NOT BE CONSTRUED AS A COMMITMENT BY DIGITAL EQUIPMENT
   6392					;       CORPORATION.
   6393					;
   6394					;       DIGITAL ASSUMES NO RESPONSIBILITY FOR THE  USE  OR  RELIABILITY  OF  ITS
   6395					;       SOFTWARE ON EQUIPMENT WHICH IS NOT SUPPILED BY DIGITAL.
   6396					;
   6397					;		MODULE: NULL COMMAND
   6398					;
   6399					;		VERSION: 01-01
   6400					;
   6401					;		AUTHOR: R. BELANGER
   6402					;
   6403					;		DATE: 7603.30
   6404					;
   6405					;	THIS MODULE CONTAINS:
   6406					;
   6407					;	1) NULL COMMAND CODE
NULLC -- NULL COMMAND MODULE 76	MACRO M1113  10-NOV-81 17:44  PAGE 156
.NULLC -- THE NULL COMMAND 7602.10

   6409					.SBTTL	.NULLC -- THE NULL COMMAND 7602.10
   6410
   6411	007702				.NULLC::
   6412	007702	012737 	000021'	000002'		MOV	#PARNAM,.CCMDN	; RESET THE COMMAND NAME
   6413	007710					CALLR	.CKEOC		; CHECK E-O-C CHARACTER
	007710	000137 	000214'			 JMP	.CKEOC
   6414						;
PARSE -- TOP-LEVEL COMMAND DECO	MACRO M1113  10-NOV-81 17:44  PAGE 157
.NULLC -- THE NULL COMMAND 7602.10

   6416					.TITLE	PARSE -- TOP-LEVEL COMMAND DECODER MODULE 7603.30
   6417
   6418						.IDENT	"006270"
   6419
   6420					;
   6421					;                             COPYRIGHT (C) 1975, 1979 BY
   6422					;                     DIGITAL EQUIPMENT CORPORATION, MAYNARD MASS.
   6423					;
   6424					;       THIS SOFTWARE IS FURNISHED UNDER A LICENSE AND MAY BE  USED  AND  COPIED
   6425					;       ONLY IN ACCORDANCE WITH THE TERMS OF SUCH LICENSE AND WITH THE INCLUSION
   6426					;       OF THE ABOVE COPYRIGHT NOTICE.  THIS SOFTWARE OR ANY OTHER COPIES THERE-
   6427					;       OF  MAY NOT BE PROVIDED OR OTHERWISE MADE AVAILABLE TO ANY OTHER PERSON.
   6428					;       NO TITLE TO OR OWNERSHIP OF THE SOFTWARE IS HEREBY TRANSFERRED.
   6429					;
   6430					;       THE INFORMATION CONTAINED IN THIS SOFTWARE IS SUBJECT TO CHANGE  WITHOUT
   6431					;       NOTICE  AND SHOULD NOT BE CONSTRUED AS A COMMITMENT BY DIGITAL EQUIPMENT
   6432					;       CORPORATION.
   6433					;
   6434					;       DIGITAL ASSUMES NO RESPONSIBILITY FOR THE  USE  OR  RELIABILITY  OF  ITS
   6435					;       SOFTWARE ON EQUIPMENT WHICH IS NOT SUPPILED BY DIGITAL.
   6436					;
   6437					;		MODULE: TOP-LEVEL COMMAND DECODER
   6438					;
   6439					;		VERSION: 06-27
   6440					;
   6441					;		AUTHOR: R. BELANGER
   6442					;
   6443					;		DATE: 7603.30
   6444					;
   6445					;	THIS MODULE CONTAINS:
   6446					;
   6447					;	1) COMMAND DECODER
   6448
   6449						.MCALL	DIR$,EXIT$S,QIOW$S,.ENB6,.INH6
PARSE -- TOP-LEVEL COMMAND DECO	MACRO M1113  10-NOV-81 17:44  PAGE 158
.DOCMD -- DECODE A SINGLE COMMAND 7602.03

   6451					.SBTTL	.DOCMD -- DECODE A SINGLE COMMAND 7602.03
   6452
   6453					;+
   6454					; .DOCMD -- DECODE AND DISPATCH FOR A SINGLE COMMAND
   6455					;
   6456					; THIS SUBROUTINE WILL DECODE THE INPUT STREAM FROM THE MAIN COMMAND
   6457					; SYMBOL TABLE, ".CMDTB", SET UP THE LEGAL BITS FOR EACH COMMAND
   6458					; DECODED, AND PERFORM THE DISPATCH FOR THAT COMMAND.
   6459					;
   6460					; INPUT ARGUMENTS:
   6461					;
   6462					;	R0 POINTS TO A REPEAT COUNT
   6463					;	R5 POINTS TO THE INPUT STREAM.
   6464					;
   6465					; OUTPUT ARGUMENTS:
   6466					;
   6467					;	R0 POINTS TO THE COMMAND NAME POINTER IN THE COMMAND TABLE
   6468					;
   6469					; ERROR CODES RETURNED:
   6470					;
   6471					;	CNR -- COMMAND IS NOT REPEATABLE
   6472					;-
   6473
   6474	007714				.DOCMD::
   6475	007714	022020 				CMP	(R0)+,(R0)+	; POINT TO THE END OF THE REPEAT COUNT
   6476	007716					PUSH	<(R0),-(R0),-(R0)>
	007716	011046 				 MOV	(R0),-(SP)
	007720	014046 				 MOV	-(R0),-(SP)
	007722	014046 				 MOV	-(R0),-(SP)
   6477	007724	010600 				MOV	SP,R0		; ...POINT TO THE REPEAT COUNT
   6478	007726					PUSH	R5		; ...SAVE COMMAND LINE POINTER
	007726	010546 				 MOV	R5,-(SP)
   6479	007730					PUSH	R0		; ....SAVE THE REPEAT COUNT POINTER
	007730	010046 				 MOV	R0,-(SP)
   6480	007732	010037 	000220'			MOV	R0,.RPTPT	; .....FOR "CLEAR REPEAT"
   6481	007736				10$:
   6482	007736	012700 	004310'			MOV	#.CMDTB,R0	; .....POINT TO THE COMMAND TABLE
   6483	007742	012737 	000021'	000002'		MOV	#PARNAM,.CCMDN	; ....."PARSER" IS CURRENT COMMAND
   6484	007750					CALL	.TSCAN		; .....SCAN THE TABLE
	007750	004737 	010510'			 JSR	PC,.TSCAN
   6485	007754	011037 	000164'			MOV	(R0),.LGLWD	; .....SET UP THE LEGAL BITS FOR COMMAND
   6486	007760	014037 	000002'			MOV	-(R0),.CCMDN	; .....SET THE POINTER TO THIS NAME
   6487
   6488					;	[CONTINUED ON THE FOLLOWING PAGE]
PARSE -- TOP-LEVEL COMMAND DECO	MACRO M1113  10-NOV-81 17:44  PAGE 159
.DOCMD -- DECODE A SINGLE COMMAND 7602.03

   6490					;	[CONTINUED FROM THE PREVIOUS PAGE]
   6491
   6492	007764				20$:
   6493	007764					CALL	@4(R0)		; .....DO THE COMMAND
	007764	004770 	000004 			 JSR	PC,@4(R0)
   6494	007770	011600 				MOV	(SP),R0		; .....POINT TO THE REPEAT COUNT
   6495	007772					CALL	.TPTST		; .....IS THERE REALLY ONE THERE
	007772	004737 	011460'			 JSR	PC,.TPTST
   6496	007776	001404 				BEQ	30$		; .....NO -- JUST GO ON
   6497	010000	032737 	000400 	000164'		BIT	#LG.RPT,.LGLWD	; .....YES -- IS THIS COMMAND REPEATABLE?
   6498	010006	001427 				BEQ	DOCCNR		; .....NO -- GIVE "CNR" ERROR
   6499	010010				30$:
   6500	010010	105725 				TSTB	(R5)+		; .....YES -- IS THIS THE END??
   6501	010012	001010 				BNE	40$		; .....NO -- GO ON SCANNING THIS LINE
   6502	010014	105745 				TSTB	-(R5)		; .....YES -- BACK THE POINTER UP
   6503	010016					CALL	.TPDEC		; .....DECREMENT STACKED REPEAT COUNT
	010016	004737 	011534'			 JSR	PC,.TPDEC
   6504	010022					CALL	.TPTST		; .....SEE WHAT THE COUNT IS
	010022	004737 	011460'			 JSR	PC,.TPTST
   6505	010026	003405 				BLE	50$		; .....DONE IF .LE. 0
   6506	010030	016605 	000002 			MOV	2(SP),R5	; .....RESTORE INPUT STREAM POINTER
   6507	010034				40$:
   6508	010034	005037 	000164'			CLR	.LGLWD		; .....CLEAR THE LEGAL BITS
   6509	010040	000736 				BR	10$		; .....AND REITERATE OR CONTINUE
   6510						;
   6511	010042				50$:
   6512	010042	062706 	000012 			ADD	#^D10,SP	; .....FLUSH THE STACK
   6514	010046	005737 	000000G			TST	.KLERQ		; [5.1006]SNAPSHOT IN PROGRESS?
   6515	010052	001401 				BEQ	55$		; [5.1006]NO -- DO ERROR CHECKS
   6516	010054					RETURN			; [5.1006]YES -- DONE
	010054	000207 				 RTS	PC
   6518	010056				55$:	CALL	.CESCK		; CHECK FOR CLOCK ERROR STOP
	010056	004737 	000000'			 JSR	PC,.CESCK
   6519	010062					CALLR	.EBPCK		; AND EBUS PARITY ERROR
	010062	000137 	000410'			 JMP	.EBPCK
   6520						;
   6521	010066				DOCCNR:
   6522	010066					ERROR$	CNR		; ERROR -- COMMAND IS NOT REPEATABLE
	010066	012746 	012402 			 MOV	#^RCNR,-(SP)
	010072	104400 				 TRAP	TC.ERR
   6523						;
PARSE -- TOP-LEVEL COMMAND DECO	MACRO M1113  10-NOV-81 17:44  PAGE 160
.EXITP -- THE COMMAND PARSER EXIT POINT 7605.17

   6525					.SBTTL	.EXITP -- THE COMMAND PARSER EXIT POINT 7605.17
   6526
   6527					;+
   6528					; .EXITP -- THE COMMAND PARSER EXIT POINT.
   6529					;
   6530					; THIS ROUTINE IS THE COMMAND PARSER EXIT POINT
   6531					;
   6532					; INPUT ARGUMENTS:
   6533					;
   6534					;	NONE.
   6535					;
   6536					; OUTPUT ARGUMENTS:
   6537					;
   6538					;	NONE.
   6539					;
   6540					; ERROR CODES RETURNED:
   6541					;
   6542					;	NONE.
   6543					;-
   6544
   6545	010074				.EXITP::
   6547	010074	005737 	000064'			TST	.DBGSW		; LOOK AT THE DEBUG SWITCH
   6548	010100	001401 				BEQ	5$		; CLEAR -- DON'T HALT
   6549	010102	000000 				HALT			; FOR DEBUGGING
   6550	010104				5$:
   6552	010104	005737 	001626'			TST	.INDFG		; [5.1000]INDIRECT FILE OPEN?
   6553	010110	001410 				BEQ	10$		; [5.1000]NO -- GO ON
   6554	010112	012701 	002716'			MOV	#.INATT,R1	; [5.1000]SET ATTRIBUTE ADDR
   6555	010116	012702 	000005 			MOV	#INDLUN,R2	; [5.1000]SET LUN
   6556	010122	005037 	001626'			CLR	.INDFG		; [5.1000]INDICATE FILE CLOSED
   6557	010126					CALL	.CLOSE		; [5.1000]CLOSE FILE
	010126	004737 	002114'			 JSR	PC,.CLOSE
   6558	010132	105737 	000154'		10$:	TSTB	.OUTLG		; [5.1000]LOG FILE OPEN?
   6559	010136	001412 				BEQ	20$		; [5.1000]NO -- GO NO
   6560	010140	105037 	000154'			CLRB	.OUTLG		; [5.1000]INDICATE FILE CLOSED
   6561	010144					CALL	.WRITZ		; [5.1000]WRITE OUT CURRENT BLOCK
	010144	004737 	003060'			 JSR	PC,.WRITZ
   6562	010150	012701 	004016'			MOV	#.OTATT,R1	; [5.1000]YES -- SET ATTRIBUTE ADDR
   6563	010154	012702 	000004 			MOV	#LOGLUN,R2	; [5.1000]SET LUN
   6564	010160					CALL	.CLOSE		; [5.1000]CLOSE FILE
	010160	004737 	002114'			 JSR	PC,.CLOSE
   6565	010164				20$:	QIOW$S	#IO.DET,#CIDLUN,#E.FCID,#0,#0,#0
	010164	005046 				CLR	-(SP)
	010166	005046 				CLR	-(SP)
	010170	112746 	000002 			MOVB	#E.FCID,-(SP)
	010174	112766 	000000 	000001 		MOVB	#0,1(SP)
	010202	012746 	000001 			MOV	#CIDLUN,-(SP)
	010206	012746 	000000G			MOV	#IO.DET,-(SP)
	010212	012746 				MOV	(PC)+,-(SP)
	010214	   003 	   006 			.BYTE	3,$$$T1
	010216	104375 				EMT	375
   6566	010220	005037 	000000G			CLR	.KLERQ		; [5.1006]CLEAR SNAPSHOT FLAG
   6567	010224	142737 	000000G	000000G		BICB	#M.PARQ,.MISC	; CLEAR THE PRIORITY FLAG
   6568	010232					.INH6			; DISALLOW INTERRUPTS
	010232	013746 	177776 			MOV	@#PS,-(SP)
	010236	112737 	000300 	177776 		MOVB	#300,@#PS
   6569	010244	013705 	000000G			MOV	CTYPTR,R5	; POINT TO THE CTY
PARSE -- TOP-LEVEL COMMAND DECO	MACRO M1113  10-NOV-81 17:44  PAGE 160-1
.EXITP -- THE COMMAND PARSER EXIT POINT 7605.17

   6570	010250	042765 	000000G	000000G		BIC	#TT.OUT,STSW1(R5) ; CLEAR ANY I/O IN PROGRESS WE MAY HAVE SCREWED
   6571	010256	012703 	000000G			MOV	#D.CDLS,R3	;;; SEND A FREE ACK FOR THE CTY
   6572	010262					CALL	..SACK		;;;
	010262	004737 	000000G			 JSR	PC,..SACK
   6573	010266					.ENB6			; ALLOW INTERRUPTS
	010266	012637 	177776 			MOV	(SP)+,@#PS
   6574	010272					EXIT$S			; EXIT
	010272	012746 				MOV	(PC)+,-(SP)
	010274	   063 	   001 			.BYTE	51.,1
	010276	104375 				EMT	375
   6575	010300	000004 				IOT			; HELP....
   6576						;
PARSE -- TOP-LEVEL COMMAND DECO	MACRO M1113  10-NOV-81 17:44  PAGE 161
.START -- COMMAND PARSER MAIN LOOP 7602.02

   6578					.SBTTL	.START -- COMMAND PARSER MAIN LOOP 7602.02
   6579
   6580					;+
   6581					; .START -- COMMAND PARSER MAIN LOOP.
   6582					;
   6583					; THIS IS THE MAIN LOOP AND TOPMOST LEVEL OF THE RSX20F CONSOLE
   6584					; COMMAND PARSER. CONTROL IS PASSED HERE ON STARTUP AND ON ERROR
   6585					; RESTARTS FROM ".PTTRP". THE PROMPT STRING IS OUTPUT TO THE CONSOLE
   6586					; OUTPUT DEVICE AND THE NEXT COMMAND STRING IS SOLICITED FROM
   6587					; THE OPERATOR.
   6588					;
   6589					; INPUT ARGUMENTS:
   6590					;
   6591					;	NONE.
   6592					;
   6593					; OUTPUT ARGUMENTS:
   6594					;
   6595					;	R0 POINTS TO THE REPEAT COUNT
   6596					;	R5 POINTS TO THE INPUT STREAM
   6597					;
   6598					; ERROR CODES RETURNED:
   6599					;
   6600					;	IF THE CONSOLE DEVICE CANNOT BE ATTACHED OR DETACHED, THE
   6601					;	PARSER EXITS.
   6602					;-
PARSE -- TOP-LEVEL COMMAND DECO	MACRO M1113  10-NOV-81 17:44  PAGE 162
.RGSAV -- R1 - R5 SAVE AND RESTORE SUBROUTINE 7509.16

   6604					.SBTTL	.RGSAV -- R1 - R5 SAVE AND RESTORE SUBROUTINE 7509.16
   6605
   6606					;+
   6607					; .REGSV -- SUBROUTINE TO SAVE AND RESTORE R5 - R1 ON THE STACK.
   6608					;
   6609					; R1 - R5 ARE SAVED ON THE STACK, AND MAY BE RESTORED BY EITHER:
   6610					;
   6611					;	RETURN			; RETURNS TO HIGHER LEVEL
   6612					;		-OR-
   6613					;	CALL	@(SP)+		; RETURNS TO SAME LEVEL
   6614					;
   6615					; NO REGISTERS ARE DESTROYED BY THIS SUBROUTINE, AND SUBSEQUENT CALLS
   6616					; WILL NEST.
   6617					;
   6618					; CALLING SEQUENCE IS:
   6619					;
   6620					;	CALL	R5,.REGSV
   6621					;	ONLY RETURN
   6622					;-
   6623
   6624	010302				.REGSV::			; DEFINE AS GLOBAL
   6625	010302					PUSH	<R4,R3,R2,R1,R5>
	010302	010446 				 MOV	R4,-(SP)
	010304	010346 				 MOV	R3,-(SP)
	010306	010246 				 MOV	R2,-(SP)
	010310	010146 				 MOV	R1,-(SP)
	010312	010546 				 MOV	R5,-(SP)
   6626	010314	016605 	000012 			MOV	12(SP),R5	; .....RESTORE R5
   6627	010320	000241 				CLC			; .....CLEAR CC-C
   6628	010322					CALL	@(SP)+		; .....RETURN WITH RESTORE ADDRESS ON THE STACK
	010322	004736 				 JSR	PC,@(SP)+
   6629
   6630					; HERE TO RESTORE R1 - R5 AND RETURN
   6631
   6632	010324					POP	<R1,R2,R3,R4,R5>
	010324	012601 				 MOV	(SP)+,R1
	010326	012602 				 MOV	(SP)+,R2
	010330	012603 				 MOV	(SP)+,R3
	010332	012604 				 MOV	(SP)+,R4
	010334	012605 				 MOV	(SP)+,R5
   6633	010336					RETURN			; RETURN
	010336	000207 				 RTS	PC
PARSE -- TOP-LEVEL COMMAND DECO	MACRO M1113  10-NOV-81 17:44  PAGE 163
.RGSAV -- R1 - R5 SAVE AND RESTORE SUBROUTINE 7509.16

   6635	010340				.START::
   6636	010340	013706 	000224'			MOV	.SVESP,SP	; INIT THE STACK POINTER
   6637	010344				10$:
   6638	010344	005037 	000226'			CLR	.SVKLF		; RESET ".SVKLF"
   6639	010350	012737 	000021'	000002'		MOV	#PARNAM,.CCMDN	; SET UP PARSER NAME
   6640	010356					CALL	.TYINI		; INIT OUTPUT POINTERS
	010356	004737 	015722'			 JSR	PC,.TYINI
   6641	010362	012701 	000000G			MOV	#.KLFLG,R1	; POINT TO ".KLFLG"
   6643	010366	012700 	000034'			MOV	#KLEPRM,R0	; [5.1006]KLE PROMPT
   6644	010372	005737 	000000G			TST	.KLERQ		; [5.1006]KL CRASH?
   6645	010376	001003 				BNE	12$		; [5.1006]YES -- GET KLE INPUT
   6646	010400	005037 	000144'			CLR	.KLEDF		; [5.1006]NO -- CLEAR DEFAULT FLAG
   6647	010404	000403 				BR	15$		; [5.1006]GO ON
   6648	010406				12$:	CALL	.TYMSF		; [5.1006]YES -- OUTPUT PROMPT
	010406	004737 	015440'			 JSR	PC,.TYMSF
   6649	010412	000423 				BR	35$		; [5.1006]GET COMMANDS
   6651	010414	012700 	000030'		15$:	MOV	#PROMPT,R0	; POINT TO THE PROMPT STRING
   6652	010420					CALL	.TYMSG		; PRINT IT
	010420	004737 	015446'			 JSR	PC,.TYMSG
   6653	010424	012700 	000076 			MOV	#'>,R0		; ASSUME THE KL IS RUNNING
   6654	010430	032711 	100000 			BIT	#KF.CLK,(R1)	; IS THE CLOCK ON?
   6655	010434	001406 				BEQ	20$		; NO -- PRINT "#"
   6656	010436	032711 	040000 			BIT	#KF.RUN,(R1)	; YES -- IS THE RUN FLOP ON?
   6657	010442	001005 				BNE	30$		; YES -- PRINT ">"
   6658	010444	012700 	000045 			MOV	#'%,R0		; NO -- PRINT "%"
   6659	010450	000402 				BR	30$		; GO DO IT
   6660						;
   6661	010452				20$:
   6662	010452	012700 	000043 			MOV	#'#,R0		; KL CLOCK IS OFF
   6663	010456				30$:
   6664	010456					CALL	.TFCHR		; FORCE PRINT THE PROMPT CHARACTER
	010456	004737 	015470'			 JSR	PC,.TFCHR
   6665	010462	012705 	000760'		35$:	MOV	#.COMND,R5	; SET UP COMMAND BUFFER POINTER
   6666	010466					CALL	.GTCMD		; GO READ A COMMAND LINE
	010466	004737 	012574'			 JSR	PC,.GTCMD
   6667	010472	005037 	000164'			CLR	.LGLWD		; FLUSH OLD LEGAL BITS
   6668	010476	012700 	000212'			MOV	#.RPTCT,R0	; GET THE REPEAT COUNT POINTER
   6669	010502					CALL	.DOCMD		; NOW GO EXECUTE A COMMAND
	010502	004737 	007714'			 JSR	PC,.DOCMD
   6670	010506	000716 				BR	10$		; AND START OVER AGAIN
   6671						;
PARSE -- TOP-LEVEL COMMAND DECO	MACRO M1113  10-NOV-81 17:44  PAGE 164
.TSCAN -- ROUTINE TO SCAN A SYMBOL TABLE 7703.25

   6673					.SBTTL	.TSCAN -- ROUTINE TO SCAN A SYMBOL TABLE 7703.25
   6674
   6675					;+
   6676					; .TSCAN -- ROUTINE TO SCAN AN ".ASCIZ" SYMBOL TABLE.
   6677					;
   6678					; THIS ROUTINE WILL SCAN A SYMBOL TABLE AND RETURN THE DISPATCH
   6679					; ADDRESS ASSOCIATED WITH THE SYMBOL IN R0.
   6680					;
   6681					; THE ENTRIES IN THE SYMBOL TABLE ARE OF THE FORM:
   6682					;
   6683					;	!=======================================!
   6684					;	!	POINTER TO ".ASCIZ" SYMBOL	!
   6685					;	!---------------------------------------!
   6686					;	!	  LEGAL BITS FOR OBJECT		!
   6687					;	!---------------------------------------!
   6688					;	!	   DISPATCH FOR OBJECT		!
   6689					;	!=======================================!
   6690					;
   6691					; INPUT ARGUMENTS:
   6692					;
   6693					;	R0 POINTS TO THE SYMBOL TABLE
   6694					;
   6695					; OUTPUT ARGUMENTS:
   6696					;
   6697					;	R0 POINTS TO THE "LEGAL" BITS OF THE MATCHED SYMBOL
   6698					;
   6699					; ERROR CODES RETURNED:
   6700					;
   6701					;	AMB -- AMBIGUOUS KEYWORD.
   6702					;	NSK -- NON-EXISTENT KEYWORD.
   6703					;	WRM -- WRONG MODE FOR COMMAND.
   6704					;-
PARSE -- TOP-LEVEL COMMAND DECO	MACRO M1113  10-NOV-81 17:44  PAGE 165
.TSCAN -- ROUTINE TO SCAN A SYMBOL TABLE 7703.25

   6706	010510				.TSCAN::
   6707	010510					CALL	.CKCTC		; SEE IF "^C" WAS TYPED
	010510	004737 	000166'			 JSR	PC,.CKCTC
   6708	010514					CALL	.CKSYM		; GET OVER LEADING BLANKS
	010514	004737 	000374'			 JSR	PC,.CKSYM
   6709	010520	122704 	000077 			CMPB	#'?,R4		; IS THIS AN INQUIRY?
   6710	010524	001442 				BEQ	50$		; YES -- DISPLAY THE TABLE
   6711	010526					PUSH	R1		; NO -- SAVE R1 ON THE STACK
	010526	010146 				 MOV	R1,-(SP)
   6712	010530					PUSH	R5		; .SAVE THE INPUT POINTER
	010530	010546 				 MOV	R5,-(SP)
   6713	010532	010001 				MOV	R0,R1		; ..TABLE POINTER TO R1
   6714	010534					PUSH	R5		; ..SAVE THE INPUT POINTER AGAIN
	010534	010546 				 MOV	R5,-(SP)
   6715	010536	005046 				CLR	-(SP)		; ...CLEAR A SCRATCH AREA
   6716	010540				10$:
   6717	010540	012100 				MOV	(R1)+,R0	; ....GET THE ADDRESS OF THE SYMBOL
   6718	010542					CALL	.SSCAN		; ....SCAN IT
	010542	004737 	010760'			 JSR	PC,.SSCAN
   6719	010546	103412 				BCS	30$		; ....NO MATCH -- TRY NEXT ENTRY
   6720	010550	001004 				BNE	20$		; ....MATCH -- SAVE POINTER AND CONTINUE
   6721	010552	010100 				MOV	R1,R0		; ....EXACT MATCH -- PUT THE POINTER IN R0
   6722	010554	010566 	000004 			MOV	R5,4(SP)	; ....FIX THE INPUT POINTER
   6723	010560	000414 				BR	40$		; ....AND SET UP FOR EXIT
   6724						;
   6725	010562				20$:
   6726	010562	005716 				TST	(SP)		; ....HAVE WE ALREADY FOUND A MATCH?
   6727	010564	001062 				BNE	TSCAMB		; ....YES -- GIVE "AMB" ERROR
   6728	010566	010116 				MOV	R1,(SP)		; ....NO -- SAVE POINTER AND GO ON
   6729	010570	010566 	000004 			MOV	R5,4(SP)	; ....SAVE THE BUFFER POINTER
   6730	010574				30$:
   6731	010574	016605 	000002 			MOV	2(SP),R5	; ....RESET THE INPUT POINTER
   6732	010600	022121 				CMP	(R1)+,(R1)+	; ....ADVANCE THE POINTER
   6733	010602	005711 				TST	(R1)		; ....IS THIS THE END OF THE TABLE?
   6734	010604	001355 				BNE	10$		; ....NO -- TRY THIS SYMBOL
   6735	010606	011600 				MOV	(SP),R0		; ....YES -- DID WE FIND A MATCH?
   6736	010610	001455 				BEQ	TSCNSK		; ....NO -- GIVE "NSK" ERROR
   6737	010612				40$:
   6738	010612	033710 	000000G			BIT	.FEMOD,(R0)	; ....YES -- CAN WE DO THIS COMMAND?
   6739	010616	001455 				BEQ	TSCWRM		; ....NO -- GIVE "WRM" ERROR
   6740	010620	022626 				CMP	(SP)+,(SP)+	; ....YES -- CLEAR THE STACK
   6741	010622					POP	R5		; ..RETURN UPDATED LINE POINTER
	010622	012605 				 MOV	(SP)+,R5
   6742	010624	111504 				MOVB	(R5),R4		; .PUT THE DELIMITER IN R4
   6743	010626					POP	R1		; .RESTORE R1
	010626	012601 				 MOV	(SP)+,R1
   6744	010630					RETURN			; WITH POINTER TO LEGAL BITS IN R0
	010630	000207 				 RTS	PC
PARSE -- TOP-LEVEL COMMAND DECO	MACRO M1113  10-NOV-81 17:44  PAGE 166
.TSCAN -- ROUTINE TO SCAN A SYMBOL TABLE 7703.25

   6746	010632				50$:
   6747	010632	105725 				TSTB	(R5)+		; GET OVER THE "?"
   6748	010634					CALL	.CKEOC		; CHECK FOR E-O-C
	010634	004737 	000214'			 JSR	PC,.CKEOC
   6749	010640	010001 				MOV	R0,R1		; TABLE POINTER TO R1
   6750	010642					CALL	.TCRLF		; TYPE A <CRLF>
	010642	004737 	015536'			 JSR	PC,.TCRLF
   6751	010646	013700 	000002'			MOV	.CCMDN,R0	; CURRENT COMMAND NAME
   6752	010652					CALL	.TYMSG		; PRINT THAT
	010652	004737 	015446'			 JSR	PC,.TYMSG
   6753	010656	012700 	000345'			MOV	#TDMSG0,R0	; REST OF LINE
   6754	010662					CALL	.TYLIN		; PRINT IT
	010662	004737 	015432'			 JSR	PC,.TYLIN
   6755	010666				60$:
   6756	010666	012100 				MOV	(R1)+,R0	; NAME POINTER TO R0
   6757	010670	001414 				BEQ	80$		; EXIT IF NULL
   6758	010672	031137 	000000G			BIT	(R1),.FEMOD	; COMMAND LEGAL IN THIS MODE?
   6759	010676	001407 				BEQ	70$		; NO -- GO ON
   6760	010700	105760 	000001 			TSTB	1(R0)		; [5.1012]ONE CHAR COMMAND?
   6761	010704	001404 				BEQ	70$		; [5.1012]YES -- SKIP IT
   6762	010706					CALL	.TYSPC		; YES -- SPACE OVER
	010706	004737 	014566'			 JSR	PC,.TYSPC
   6763	010712					CALL	.TYLIN		; PRINT THIS NAME
	010712	004737 	015432'			 JSR	PC,.TYLIN
   6764	010716				70$:
   6765	010716	022121 				CMP	(R1)+,(R1)+	; POINT TO THE NEXT NAME
   6766	010720	000762 				BR	60$		; AND GO ON
   6767						;
   6768	010722				80$:
   6769	010722	013706 	000224'			MOV	.SVESP,SP	; RESET THE STACK
   6770	010726	000177 	000222'			JMP	@.STRTV		; AND START OVER
   6771						;
PARSE -- TOP-LEVEL COMMAND DECO	MACRO M1113  10-NOV-81 17:44  PAGE 167
.TSCAN -- ROUTINE TO SCAN A SYMBOL TABLE 7703.25

   6773	010732				TSCAMB:
   6774	010732	016605 	000002 			MOV	2(SP),R5	; RESET INPUT POINTER
   6775	010736					ERROR$	AMB		; .ERROR -- MULTIPLE MATCH
	010736	012746 	004112 			 MOV	#^RAMB,-(SP)
	010742	104400 				 TRAP	TC.ERR
   6776						;
   6777	010744				TSCNSK:
   6778	010744					ERROR$	NSK		; .ERROR -- NON-EXISTENT KEYWORD
	010744	012746 	055203 			 MOV	#^RNSK,-(SP)
	010750	104400 				 TRAP	TC.ERR
   6779						;
   6780	010752				TSCWRM:
   6781	010752					ERROR$	WRM		; .ERROR -- WRONG MODE FOR COMMAND
	010752	012746 	111235 			 MOV	#^RWRM,-(SP)
	010756	104400 				 TRAP	TC.ERR
   6782						;
   6783
   6784	000345				.PSECT	MESSAG
   6785
   6786	000345				TDMSG0:
   6787	000345	   040 	   103 	   117 		.ASCIZ	% COMMANDS ARE:%
	000350	   115 	   115 	   101
	000353	   116 	   104 	   123
	000356	   040 	   101 	   122
	000361	   105 	   072 	   000
   6788	010760				.PSECT
PARSE -- TOP-LEVEL COMMAND DECO	MACRO M1113  10-NOV-81 17:44  PAGE 168
.SSCAN -- ROUTINE TO SCAN A SYMBOL 7601.14

   6790					.SBTTL	.SSCAN -- ROUTINE TO SCAN A SYMBOL 7601.14
   6791
   6792					;+
   6793					; .SSCAN -- ROUTINE TO SCAN A SYMBOL IN THE INPUT STREAM FOR A MATCH
   6794					;	    WITH AN ".ASCIZ" SYMBOL IN A TABLE.
   6795					;
   6796					; THIS ROUTINE WILL FIND A MATCH OR NON-MATCH ON A SYMBOL POINTED TO
   6797					; BY R5 WITH THE ".ASCIZ" SYMBOLS IN THE TABLE POINTED TO BY R0.
   6798					;
   6799					; INPUT ARGUMENTS:
   6800					;
   6801					;	R0 POINTS TO AN ".ASCIZ" SYMBOL IN A TABLE DESCRIBED IN
   6802					;	".TSCAN" (Q.V.).
   6803					;	R5 POINTS TO THE INPUT STREAM, OR THE OTHER SYMBOL TO BE
   6804					;	MATCHED.
   6805					;
   6806					; OUTPUT ARGUMENTS:
   6807					;
   6808					;  ON FAILURE, (NO MATCH):
   6809					;	R5 POINTS TO THE BEGINNING OF THE SYMBOL IN THE INPUT STREAM
   6810					;	R4 CONTAINS THE LAST CHARACTER PROCESSED IN THE INPUT STREAM
   6811					;	CC-C IS SET.
   6812					;
   6813					;  ON SUCCESS, (MATCH):
   6814					;	R5 POINTS TO THE DELIMITER AFTER THE SYMBOL
   6815					;	R4 CONTAINS THAT DELIMITER CHARACTER
   6816					;	CC-C IS CLEAR
   6817					;	IF CC-Z IS SET, THE MATCH WAS EXACT.
   6818					;
   6819					; ERROR CODES RETURNED:
   6820					;
   6821					;	ILS -- ILLEGAL SEPARATOR CHARCATER.
   6822					;-
PARSE -- TOP-LEVEL COMMAND DECO	MACRO M1113  10-NOV-81 17:44  PAGE 169
.SSCAN -- ROUTINE TO SCAN A SYMBOL 7601.14

   6824	010760				.SSCAN::
   6825	010760	121510 				CMPB	(R5),(R0)	; TEST CHARACTERS FOR MATCH
   6826	010762	001006 				BNE	20$		; NO MATCH -- CHECK DELIMITER
   6827	010764	105720 				TSTB	(R0)+		; ADVANCE THE POINTERS
   6828	010766	001402 				BEQ	10$		; MATCH ON ".ASCIZ" SYMBOLS?
   6829	010770	105725 				TSTB	(R5)+		; NO -- ADVANCE OTHER POINTER
   6830	010772	000772 				BR	.SSCAN		; AND TRY NEXT TWO CHARACTERS
   6831						;
   6832	010774				10$:
   6833	010774	105740 				TSTB	-(R0)		; BACK THE POINTER UP
   6834	010776	000405 				BR	30$		; AND EXIT
   6835						;
   6836	011000				20$:
   6837	011000	111504 				MOVB	(R5),R4		; GET LAST CHARACTER FROM INPUT
   6838	011002	132764 	000034 	001450'		BITB	#CH.END,.CHTAB(R4)
   6839	011010	001402 				BEQ	40$		; NOT LEGAL DELIMITER -- GIVE NO MATCH
   6840	011012				30$:
   6841	011012	105710 				TSTB	(R0)		; LOOK AT THE LAST CHARACTER IN OUR SYMBOL
   6842	011014	000401 				BR	50$		; AND EXIT
   6843						;
   6844	011016				40$:
   6845	011016	000261 				SEC			; SET CC-C TO SAY "NO MATCH"
   6846	011020				50$:
   6847	011020					RETURN			; TO CALLER
	011020	000207 				 RTS	PC
REPTC -- REPEAT COMMAND MODULE 	MACRO M1113  10-NOV-81 17:44  PAGE 171
.SSCAN -- ROUTINE TO SCAN A SYMBOL 7601.14

   6850					.TITLE	REPTC -- REPEAT COMMAND MODULE 7703.25
   6851
   6852						.IDENT	"005000"
   6853
   6854					;
   6855					;                             COPYRIGHT (C) 1975, 1979 BY
   6856					;                     DIGITAL EQUIPMENT CORPORATION, MAYNARD MASS.
   6857					;
   6858					;       THIS SOFTWARE IS FURNISHED UNDER A LICENSE AND MAY BE  USED  AND  COPIED
   6859					;       ONLY IN ACCORDANCE WITH THE TERMS OF SUCH LICENSE AND WITH THE INCLUSION
   6860					;       OF THE ABOVE COPYRIGHT NOTICE.  THIS SOFTWARE OR ANY OTHER COPIES THERE-
   6861					;       OF  MAY NOT BE PROVIDED OR OTHERWISE MADE AVAILABLE TO ANY OTHER PERSON.
   6862					;       NO TITLE TO OR OWNERSHIP OF THE SOFTWARE IS HEREBY TRANSFERRED.
   6863					;
   6864					;       THE INFORMATION CONTAINED IN THIS SOFTWARE IS SUBJECT TO CHANGE  WITHOUT
   6865					;       NOTICE  AND SHOULD NOT BE CONSTRUED AS A COMMITMENT BY DIGITAL EQUIPMENT
   6866					;       CORPORATION.
   6867					;
   6868					;       DIGITAL ASSUMES NO RESPONSIBILITY FOR THE  USE  OR  RELIABILITY  OF  ITS
   6869					;       SOFTWARE ON EQUIPMENT WHICH IS NOT SUPPILED BY DIGITAL.
   6870					;
   6871					;		MODULE: REPEAT COMMAND
   6872					;
   6873					;		VERSION: 05-00
   6874					;
   6875					;		AUTHOR: R. BELANGER
   6876					;
   6877					;		DATE: 7703.25
   6878					;
   6879					;	THIS MODULE CONTAINS:
   6880					;
   6881					;	1) REPEAT COMMAND CODE
REPTC -- REPEAT COMMAND MODULE 	MACRO M1113  10-NOV-81 17:44  PAGE 172
.REPTC -- THE "REPEAT" COMMAND 7703.25

   6883					.SBTTL	.REPTC -- THE "REPEAT" COMMAND 7703.25
   6884
   6885					;+
   6886					; .REPTC -- THE "REPEAT" COMMAND
   6887					;
   6888					; THIS ROUTINE WILL ACCEPT AND CHECK A 36 BIT REPEAT COUNT BEFORE
   6889					; CALLING THE TOP LEVEL OF THE COMMAND PARSER.
   6890					;
   6891					; INPUT ARGUMENTS:
   6892					;
   6893					;	NONE.
   6894					;
   6895					; OUTPUT ARGUMENTS:
   6896					;
   6897					;	R0 POINTS TO A 36 BIT REPEAT COUNT
   6898					;
   6899					; ERROR CODES RETURNED:
   6900					;
   6901					;	IRC -- ILLEGAL REPEAT COUNT
   6902					;-
   6903
   6904	011022				.REPTC::
   6905	011022	013737 	000134'	000206'		MOV	.IRADX,.RDXSV	; SAVE CURRENT INPUT RADIX
   6906	011030	012737 	000012 	000134'		MOV	#^D10,.IRADX	; SET IT TO DECIMAL
   6907	011036	005046 				CLR	-(SP)		; CLEAR A BUFFER ON THE STACK
   6908	011040	005046 				CLR	-(SP)		; .
   6909	011042	005046 				CLR	-(SP)		; ..
   6910	011044	010600 				MOV	SP,R0		; ...POINT TO IT
   6911	011046					CALL	.GTKLN		; ...READ THE NUMBER
	011046	004737 	013266'			 JSR	PC,.GTKLN
   6912	011052	013737 	000206'	000134'		MOV	.RDXSV,.IRADX	; ...RESET INPUT RADIX
   6913	011060					CALL	.TPTST		; ...SEE WHAT WE GOT
	011060	004737 	011460'			 JSR	PC,.TPTST
   6914	011064	003410 				BLE	REPIRC		; ...ILLEGAL IF .LE. 0
   6915	011066					CALL	.CKEOC		; ...CHECK E-O-C
	011066	004737 	000214'			 JSR	PC,.CKEOC
   6916	011072	105725 				TSTB	(R5)+		; ...GET OVER THE E-O-C CHARACTER
   6917	011074					CALL	.DOCMD		; ...CONTINUE PROCESSING THE LINE
	011074	004737 	007714'			 JSR	PC,.DOCMD
   6918	011100	062706 	000006 			ADD	#^D6,SP		; ...FLUSH THE STACK
   6919	011104					RETURN			; TO CALLER
	011104	000207 				 RTS	PC
   6920	011106				REPIRC:
   6921	011106					ERROR$	IRC		; ERROR -- ILLEGAL REPEAT COUNT
	011106	012746 	035423 			 MOV	#^RIRC,-(SP)
	011112	104400 				 TRAP	TC.ERR
   6922						;
TABLE -- COMMAND PARSER COMMAND	MACRO M1113  10-NOV-81 17:44  PAGE 173
.REPTC -- THE "REPEAT" COMMAND 7703.25

   6924					.TITLE	TABLE -- COMMAND PARSER COMMAND TABLES 7812.20
   6925
   6926						.IDENT	"006250"
   6927
   6928					;
   6929					;                             COPYRIGHT (C) 1975, 1979 BY
   6930					;                     DIGITAL EQUIPMENT CORPORATION, MAYNARD MASS.
   6931					;
   6932					;       THIS SOFTWARE IS FURNISHED UNDER A LICENSE AND MAY BE  USED  AND  COPIED
   6933					;       ONLY IN ACCORDANCE WITH THE TERMS OF SUCH LICENSE AND WITH THE INCLUSION
   6934					;       OF THE ABOVE COPYRIGHT NOTICE.  THIS SOFTWARE OR ANY OTHER COPIES THERE-
   6935					;       OF  MAY NOT BE PROVIDED OR OTHERWISE MADE AVAILABLE TO ANY OTHER PERSON.
   6936					;       NO TITLE TO OR OWNERSHIP OF THE SOFTWARE IS HEREBY TRANSFERRED.
   6937					;
   6938					;       THE INFORMATION CONTAINED IN THIS SOFTWARE IS SUBJECT TO CHANGE  WITHOUT
   6939					;       NOTICE  AND SHOULD NOT BE CONSTRUED AS A COMMITMENT BY DIGITAL EQUIPMENT
   6940					;       CORPORATION.
   6941					;
   6942					;       DIGITAL ASSUMES NO RESPONSIBILITY FOR THE  USE  OR  RELIABILITY  OF  ITS
   6943					;       SOFTWARE ON EQUIPMENT WHICH IS NOT SUPPILED BY DIGITAL.
   6944					;
   6945					;		MODULE: MAIN COMMAND PARSER TABLES
   6946					;
   6947					;		VERSION: 06-25
   6948					;
   6949					;		AUTHOR: R. BELANGER
   6950					;
   6951					;		DATE: 7812.20
   6952					;
   6953					;	THIS MODULE CONTAINS:
   6954					;
   6955					;	1) THE MAIN COMMAND TABLES
   6956					;
   6957					;  MODIFICATIONS:
   6958					;
   6959					;	NO.	DATE		PROGRAMMER	REASON
   6960					;	---	----		----------	------
   6961					;	001	28-FEB-77	R. BELANGER	ADD DISCONNECT COMMAND
   6962					;
   6963					;    [5.1000]	24-AUG-79	K. LEFEBVRE	ADD "TAKE" COMMAND
   6964					;						ADD "SET OUTPUT" COMMAND
   6965					;    [5.1002]	14-SEP-79	K. LEFEBVRE	ADD "SET AC-BLOCK" COMMAND
   6966					;						ADD "SWEEP" COMMAND
   6967					;    [5.1010]	17-OCT-79	K.LEFEBVRE	ADD "SHOW" COMMAND
   6968					;    [5.1011]	19-OCT-79	R.BELANGER	ADD "WHAT HARDWARE" COMMAND
   6969					;    [5.1012]	19-OCT-79	R.BELANGER	ADD "MARK-MICROCODE" COMMAND
   6970					;						ADD "UNMARK-MICROCODE" COMMAND
   6971					;	002	05-NOV-80	S. LEAPLINE	ADD "AUTO-TAKE" COMMAND
TABLE -- COMMAND PARSER COMMAND	MACRO M1113  10-NOV-81 17:44  PAGE 174
.CMDTB -- THE MAIN COMMAND TABLE 7703.25

   6973					.SBTTL	.CMDTB -- THE MAIN COMMAND TABLE 7703.25
   6974
   6975	004310					.PSECT	DATA
   6976
   6977	004310				.CMDTB::
   6978	004310					COMND$	,<LG.OPR!LG.RPT>,.NULLC,NUL
	000364	   000 			NULMSG:: .ASCIZ	%%
	004310	000364'				 .WORD	NULMSG		; POINTER TO "" SYMBOL
	004312	000401 				 .WORD	LG.OPR!LG.RPT		; LEGAL BITS
	004314	007702'				 .WORD	.NULLC		; ROUTINE TO CALL OR DATA
   6979					;
   6980	004316					COMND$	ABORT,LG.OPR,.ABRTC,ABO
	000365	   101 	   102 	   117 	ABOMSG:: .ASCIZ	%ABORT%
	000370	   122 	   124 	   000
	004316	000365'				 .WORD	ABOMSG		; POINTER TO "ABORT" SYMBOL
	004320	000001 				 .WORD	LG.OPR		; LEGAL BITS
	004322	000000G				 .WORD	.ABRTC		; ROUTINE TO CALL OR DATA
   6981					;
   6982	004324					COMND$	CLEAR,<LG.OPR!LG.RPT>,.CLRCM,CLR
	000373	   103 	   114 	   105 	CLRMSG:: .ASCIZ	%CLEAR%
	000376	   101 	   122 	   000
	004324	000373'				 .WORD	CLRMSG		; POINTER TO "CLEAR" SYMBOL
	004326	000401 				 .WORD	LG.OPR!LG.RPT		; LEGAL BITS
	004330	000000G				 .WORD	.CLRCM		; ROUTINE TO CALL OR DATA
   6983					;
   6984	004332					COMND$	CONTINUE,<LG.PRG!LG.RPT>,.CONTC,CNT
	000401	   103 	   117 	   116 	CNTMSG:: .ASCIZ	%CONTINUE%
	000404	   124 	   111 	   116
	000407	   125 	   105 	   000
	004332	000401'				 .WORD	CNTMSG		; POINTER TO "CONTINUE" SYMBOL
	004334	000402 				 .WORD	LG.PRG!LG.RPT		; LEGAL BITS
	004336	000000G				 .WORD	.CONTC		; ROUTINE TO CALL OR DATA
   6985					;
   6986	004340					COMND$	DEPOSIT,<LG.PRG!LG.RPT>,.DPOSC,DEP
	000412	   104 	   105 	   120 	DEPMSG:: .ASCIZ	%DEPOSIT%
	000415	   117 	   123 	   111
	000420	   124 	   000
	004340	000412'				 .WORD	DEPMSG		; POINTER TO "DEPOSIT" SYMBOL
	004342	000402 				 .WORD	LG.PRG!LG.RPT		; LEGAL BITS
	004344	000000G				 .WORD	.DPOSC		; ROUTINE TO CALL OR DATA
   6987					;
   6988	004346					COMND$	DISCONNECT,LG.ALL,.DISCC,DIS
	000422	   104 	   111 	   123 	DISMSG:: .ASCIZ	%DISCONNECT%
	000425	   103 	   117 	   116
	000430	   116 	   105 	   103
	000433	   124 	   000
	004346	000422'				 .WORD	DISMSG		; POINTER TO "DISCONNECT" SYMBOL
	004350	000007 				 .WORD	LG.ALL		; LEGAL BITS
	004352	000000G				 .WORD	.DISCC		; ROUTINE TO CALL OR DATA
   6989					;
   6990	004354					COMND$	EXAMINE,<LG.OPR!LG.RPT>,.EXAMC,EXA
	000435	   105 	   130 	   101 	EXAMSG:: .ASCIZ	%EXAMINE%
	000440	   115 	   111 	   116
	000443	   105 	   000
	004354	000435'				 .WORD	EXAMSG		; POINTER TO "EXAMINE" SYMBOL
	004356	000401 				 .WORD	LG.OPR!LG.RPT		; LEGAL BITS
	004360	000000G				 .WORD	.EXAMC		; ROUTINE TO CALL OR DATA
TABLE -- COMMAND PARSER COMMAND	MACRO M1113  10-NOV-81 17:44  PAGE 174-1
.CMDTB -- THE MAIN COMMAND TABLE 7703.25

   6991					;
   6992	004362					COMND$	FREAD,<LG.MNT!LG.RPT>,.DFRED,FRD
	000445	   106 	   122 	   105 	FRDMSG:: .ASCIZ	%FREAD%
	000450	   101 	   104 	   000
	004362	000445'				 .WORD	FRDMSG		; POINTER TO "FREAD" SYMBOL
	004364	000404 				 .WORD	LG.MNT!LG.RPT		; LEGAL BITS
	004366	000000G				 .WORD	.DFRED		; ROUTINE TO CALL OR DATA
   6993					;
   6994	004370					COMND$	FWRITE,<LG.MNT!LG.RPT>,.DFWRT,FWR
	000453	   106 	   127 	   122 	FWRMSG:: .ASCIZ	%FWRITE%
	000456	   111 	   124 	   105
	000461	   000
	004370	000453'				 .WORD	FWRMSG		; POINTER TO "FWRITE" SYMBOL
	004372	000404 				 .WORD	LG.MNT!LG.RPT		; LEGAL BITS
	004374	000000G				 .WORD	.DFWRT		; ROUTINE TO CALL OR DATA
   6995					;
   6996	004376					COMND$	FXCT,<LG.MNT!LG.RPT>,.DFXCT,FXC
	000462	   106 	   130 	   103 	FXCMSG:: .ASCIZ	%FXCT%
	000465	   124 	   000
	004376	000462'				 .WORD	FXCMSG		; POINTER TO "FXCT" SYMBOL
	004400	000404 				 .WORD	LG.MNT!LG.RPT		; LEGAL BITS
	004402	000000G				 .WORD	.DFXCT		; ROUTINE TO CALL OR DATA
   6997					;
   6998	004404					COMND$	HALT,<LG.PRG!LG.RPT>,.HALTC,HLT
	000467	   110 	   101 	   114 	HLTMSG:: .ASCIZ	%HALT%
	000472	   124 	   000
	004404	000467'				 .WORD	HLTMSG		; POINTER TO "HALT" SYMBOL
	004406	000402 				 .WORD	LG.PRG!LG.RPT		; LEGAL BITS
	004410	000000G				 .WORD	.HALTC		; ROUTINE TO CALL OR DATA
   6999					;
   7004	004412					COMND$	INITIALIZE,<LG.PRG!LG.RPT>,.INITC,INI
	000474	   111 	   116 	   111 	INIMSG:: .ASCIZ	%INITIALIZE%
	000477	   124 	   111 	   101
	000502	   114 	   111 	   132
	000505	   105 	   000
	004412	000474'				 .WORD	INIMSG		; POINTER TO "INITIALIZE" SYMBOL
	004414	000402 				 .WORD	LG.PRG!LG.RPT		; LEGAL BITS
	004416	000000G				 .WORD	.INITC		; ROUTINE TO CALL OR DATA
   7005					;
   7006	004420					COMND$	JUMP,LG.OPR,.JUMPC,JMP
	000507	   112 	   125 	   115 	JMPMSG:: .ASCIZ	%JUMP%
	000512	   120 	   000
	004420	000507'				 .WORD	JMPMSG		; POINTER TO "JUMP" SYMBOL
	004422	000001 				 .WORD	LG.OPR		; LEGAL BITS
	004424	000000G				 .WORD	.JUMPC		; ROUTINE TO CALL OR DATA
   7007					;
   7008	004426					COMND$	M,LG.OPR,.RUNCM,M
	000514	   115 	   000 		MMSG:: .ASCIZ	%M%
	004426	000514'				 .WORD	MMSG		; POINTER TO "M" SYMBOL
	004430	000001 				 .WORD	LG.OPR		; LEGAL BITS
	004432	000000G				 .WORD	.RUNCM		; ROUTINE TO CALL OR DATA
   7009					;
   7010	004434					COMND$	MARK-MICROCODE,LG.MNT,.MARKC,MRK
	000516	   115 	   101 	   122 	MRKMSG:: .ASCIZ	%MARK-MICROCODE%
	000521	   113 	   055 	   115
	000524	   111 	   103 	   122
	000527	   117 	   103 	   117
TABLE -- COMMAND PARSER COMMAND	MACRO M1113  10-NOV-81 17:44  PAGE 174-2
.CMDTB -- THE MAIN COMMAND TABLE 7703.25

	000532	   104 	   105 	   000
	004434	000516'				 .WORD	MRKMSG		; POINTER TO "MARK-MICROCODE" SYMBOL
	004436	000004 				 .WORD	LG.MNT		; LEGAL BITS
	004440	000000G				 .WORD	.MARKC		; ROUTINE TO CALL OR DATA
   7011					;
   7012	004442					COMND$	MCR,LG.OPR,.RUNCM,MCR
	000535	   115 	   103 	   122 	MCRMSG:: .ASCIZ	%MCR%
	000540	   000
	004442	000535'				 .WORD	MCRMSG		; POINTER TO "MCR" SYMBOL
	004444	000001 				 .WORD	LG.OPR		; LEGAL BITS
	004446	000000G				 .WORD	.RUNCM		; ROUTINE TO CALL OR DATA
   7013					;
   7014	004450					COMND$	R,LG.OPR,.RUNCM,R
	000541	   122 	   000 		RMSG:: .ASCIZ	%R%
	004450	000541'				 .WORD	RMSG		; POINTER TO "R" SYMBOL
	004452	000001 				 .WORD	LG.OPR		; LEGAL BITS
	004454	000000G				 .WORD	.RUNCM		; ROUTINE TO CALL OR DATA
   7015					;
   7016	004456					COMND$	REPEAT,<LG.OPR!LG.RPT>,.REPTC,RPT
	000543	   122 	   105 	   120 	RPTMSG:: .ASCIZ	%REPEAT%
	000546	   105 	   101 	   124
	000551	   000
	004456	000543'				 .WORD	RPTMSG		; POINTER TO "REPEAT" SYMBOL
	004460	000401 				 .WORD	LG.OPR!LG.RPT		; LEGAL BITS
	004462	011022'				 .WORD	.REPTC		; ROUTINE TO CALL OR DATA
   7017					;
   7018	004464					COMND$	RESET,<LG.PRG!LG.RPT>,.RESTC,RST
	000552	   122 	   105 	   123 	RSTMSG:: .ASCIZ	%RESET%
	000555	   105 	   124 	   000
	004464	000552'				 .WORD	RSTMSG		; POINTER TO "RESET" SYMBOL
	004466	000402 				 .WORD	LG.PRG!LG.RPT		; LEGAL BITS
	004470	000000G				 .WORD	.RESTC		; ROUTINE TO CALL OR DATA
   7019					;
   7020	004472					COMND$	RUN,LG.OPR,.RUNCM,RUN
	000560	   122 	   125 	   116 	RUNMSG:: .ASCIZ	%RUN%
	000563	   000
	004472	000560'				 .WORD	RUNMSG		; POINTER TO "RUN" SYMBOL
	004474	000001 				 .WORD	LG.OPR		; LEGAL BITS
	004476	000000G				 .WORD	.RUNCM		; ROUTINE TO CALL OR DATA
   7021					;
   7022	004500					COMND$	SET,<LG.OPR!LG.RPT>,.SETCM,SET
	000564	   123 	   105 	   124 	SETMSG:: .ASCIZ	%SET%
	000567	   000
	004500	000564'				 .WORD	SETMSG		; POINTER TO "SET" SYMBOL
	004502	000401 				 .WORD	LG.OPR!LG.RPT		; LEGAL BITS
	004504	000000G				 .WORD	.SETCM		; ROUTINE TO CALL OR DATA
   7023					;
   7024	004506					COMND$	SHOW,LG.OPR,.WHATC,SHO
	000570	   123 	   110 	   117 	SHOMSG:: .ASCIZ	%SHOW%
	000573	   127 	   000
	004506	000570'				 .WORD	SHOMSG		; POINTER TO "SHOW" SYMBOL
	004510	000001 				 .WORD	LG.OPR		; LEGAL BITS
	004512	000000G				 .WORD	.WHATC		; ROUTINE TO CALL OR DATA
   7025					;
   7026	004514					COMND$	SHUTDOWN,LG.OPR,.SHUTC,SHU
	000575	   123 	   110 	   125 	SHUMSG:: .ASCIZ	%SHUTDOWN%
	000600	   124 	   104 	   117
TABLE -- COMMAND PARSER COMMAND	MACRO M1113  10-NOV-81 17:44  PAGE 174-3
.CMDTB -- THE MAIN COMMAND TABLE 7703.25

	000603	   127 	   116 	   000
	004514	000575'				 .WORD	SHUMSG		; POINTER TO "SHUTDOWN" SYMBOL
	004516	000001 				 .WORD	LG.OPR		; LEGAL BITS
	004520	000000G				 .WORD	.SHUTC		; ROUTINE TO CALL OR DATA
   7027					;
   7029	004522					COMND$	SNAPSHOT,LG.MNT,.SNAP,SNP
	000606	   123 	   116 	   101 	SNPMSG:: .ASCIZ	%SNAPSHOT%
	000611	   120 	   123 	   110
	000614	   117 	   124 	   000
	004522	000606'				 .WORD	SNPMSG		; POINTER TO "SNAPSHOT" SYMBOL
	004524	000004 				 .WORD	LG.MNT		; LEGAL BITS
	004526	000000G				 .WORD	.SNAP		; ROUTINE TO CALL OR DATA
   7031					;
   7032	004530					COMND$	START,<LG.PRG!LG.RPT>,.STRTC,STR
	000617	   123 	   124 	   101 	STRMSG:: .ASCIZ	%START%
	000622	   122 	   124 	   000
	004530	000617'				 .WORD	STRMSG		; POINTER TO "START" SYMBOL
	004532	000402 				 .WORD	LG.PRG!LG.RPT		; LEGAL BITS
	004534	000000G				 .WORD	.STRTC		; ROUTINE TO CALL OR DATA
   7033					;
   7034	004536					COMND$	SWEEP,<LG.MNT!LG.RPT>,.SWPC,SWP
	000625	   123 	   127 	   105 	SWPMSG:: .ASCIZ	%SWEEP%
	000630	   105 	   120 	   000
	004536	000625'				 .WORD	SWPMSG		; POINTER TO "SWEEP" SYMBOL
	004540	000404 				 .WORD	LG.MNT!LG.RPT		; LEGAL BITS
	004542	000000G				 .WORD	.SWPC		; ROUTINE TO CALL OR DATA
   7035					;
   7036	004544					COMND$	TAKE,<LG.OPR>,.TAKEC,TAK
	000633	   124 	   101 	   113 	TAKMSG:: .ASCIZ	%TAKE%
	000636	   105 	   000
	004544	000633'				 .WORD	TAKMSG		; POINTER TO "TAKE" SYMBOL
	004546	000001 				 .WORD	LG.OPR		; LEGAL BITS
	004550	000000G				 .WORD	.TAKEC		; ROUTINE TO CALL OR DATA
   7037					;
   7038	004552					COMND$	UNMARK-MICROCODE,LG.MNT,.UMRKC,UNM
	000640	   125 	   116 	   115 	UNMMSG:: .ASCIZ	%UNMARK-MICROCODE%
	000643	   101 	   122 	   113
	000646	   055 	   115 	   111
	000651	   103 	   122 	   117
	000654	   103 	   117 	   104
	000657	   105 	   000
	004552	000640'				 .WORD	UNMMSG		; POINTER TO "UNMARK-MICROCODE" SYMBOL
	004554	000004 				 .WORD	LG.MNT		; LEGAL BITS
	004556	000000G				 .WORD	.UMRKC		; ROUTINE TO CALL OR DATA
   7039					;
   7040	004560					COMND$	QUIT,LG.OPR,.QUITC,QUT
	000661	   121 	   125 	   111 	QUTMSG:: .ASCIZ	%QUIT%
	000664	   124 	   000
	004560	000661'				 .WORD	QUTMSG		; POINTER TO "QUIT" SYMBOL
	004562	000001 				 .WORD	LG.OPR		; LEGAL BITS
	004564	000000G				 .WORD	.QUITC		; ROUTINE TO CALL OR DATA
   7041					;
   7042	004566					COMND$	WHAT,LG.OPR,.WHATC,WHA
	000666	   127 	   110 	   101 	WHAMSG:: .ASCIZ	%WHAT%
	000671	   124 	   000
	004566	000666'				 .WORD	WHAMSG		; POINTER TO "WHAT" SYMBOL
	004570	000001 				 .WORD	LG.OPR		; LEGAL BITS
TABLE -- COMMAND PARSER COMMAND	MACRO M1113  10-NOV-81 17:44  PAGE 174-4
.CMDTB -- THE MAIN COMMAND TABLE 7703.25

	004572	000000G				 .WORD	.WHATC		; ROUTINE TO CALL OR DATA
   7043					;
   7044	004574					COMND$	XCT,<LG.PRG!LG.RPT>,.EXCTC,XCT
	000673	   130 	   103 	   124 	XCTMSG:: .ASCIZ	%XCT%
	000676	   000
	004574	000673'				 .WORD	XCTMSG		; POINTER TO "XCT" SYMBOL
	004576	000402 				 .WORD	LG.PRG!LG.RPT		; LEGAL BITS
	004600	000000G				 .WORD	.EXCTC		; ROUTINE TO CALL OR DATA
   7045					;
   7046	004602					COMND$	ZERO,LG.PRG,.ZEROC,ZER
	000677	   132 	   105 	   122 	ZERMSG:: .ASCIZ	%ZERO%
	000702	   117 	   000
	004602	000677'				 .WORD	ZERMSG		; POINTER TO "ZERO" SYMBOL
	004604	000002 				 .WORD	LG.PRG		; LEGAL BITS
	004606	000000G				 .WORD	.ZEROC		; ROUTINE TO CALL OR DATA
   7047					;
   7048	004610	000000 				.WORD	0		; END OF TABLE MARKER
TABLE -- COMMAND PARSER COMMAND	MACRO M1113  10-NOV-81 17:44  PAGE 175
.DPETB -- THE DEPOSIT EXTENSION TABLE 7602.23

   7050					.SBTTL	.DPETB -- THE DEPOSIT EXTENSION TABLE 7602.23
   7051
   7052	004612				.DPETB::
   7053	004612					COMND$	DECREMENT,<LG.RPT!LG.OPR>,.DPOSD,DCR
	000704	   104 	   105 	   103 	DCRMSG:: .ASCIZ	%DECREMENT%
	000707	   122 	   105 	   115
	000712	   105 	   116 	   124
	000715	   000
	004612	000704'				 .WORD	DCRMSG		; POINTER TO "DECREMENT" SYMBOL
	004614	000401 				 .WORD	LG.RPT!LG.OPR		; LEGAL BITS
	004616	000000G				 .WORD	.DPOSD		; ROUTINE TO CALL OR DATA
   7054					;
   7055	004620					COMND$	INCREMENT,<LG.RPT!LG.OPR>,.DPOSI,INC
	000716	   111 	   116 	   103 	INCMSG:: .ASCIZ	%INCREMENT%
	000721	   122 	   105 	   115
	000724	   105 	   116 	   124
	000727	   000
	004620	000716'				 .WORD	INCMSG		; POINTER TO "INCREMENT" SYMBOL
	004622	000401 				 .WORD	LG.RPT!LG.OPR		; LEGAL BITS
	004624	000000G				 .WORD	.DPOSI		; ROUTINE TO CALL OR DATA
   7056					;
   7057	004626					COMND$	NEXT,<LG.RPT!LG.OPR>,.DPOSN,NXT
	000730	   116 	   105 	   130 	NXTMSG:: .ASCIZ	%NEXT%
	000733	   124 	   000
	004626	000730'				 .WORD	NXTMSG		; POINTER TO "NEXT" SYMBOL
	004630	000401 				 .WORD	LG.RPT!LG.OPR		; LEGAL BITS
	004632	000000G				 .WORD	.DPOSN		; ROUTINE TO CALL OR DATA
   7058					;
   7059	004634					COMND$	PREVIOUS,<LG.RPT!LG.OPR>,.DPOSP,PRV
	000735	   120 	   122 	   105 	PRVMSG:: .ASCIZ	%PREVIOUS%
	000740	   126 	   111 	   117
	000743	   125 	   123 	   000
	004634	000735'				 .WORD	PRVMSG		; POINTER TO "PREVIOUS" SYMBOL
	004636	000401 				 .WORD	LG.RPT!LG.OPR		; LEGAL BITS
	004640	000000G				 .WORD	.DPOSP		; ROUTINE TO CALL OR DATA
   7060					;
   7061	004642					COMND$	THIS,<LG.RPT!LG.OPR>,.DPOSZ,THS
	000746	   124 	   110 	   111 	THSMSG:: .ASCIZ	%THIS%
	000751	   123 	   000
	004642	000746'				 .WORD	THSMSG		; POINTER TO "THIS" SYMBOL
	004644	000401 				 .WORD	LG.RPT!LG.OPR		; LEGAL BITS
	004646	000000G				 .WORD	.DPOSZ		; ROUTINE TO CALL OR DATA
   7062					;
   7063	004650	000000 				.WORD	0		; END OF TABLE MARKER
TABLE -- COMMAND PARSER COMMAND	MACRO M1113  10-NOV-81 17:44  PAGE 176
.DPOTB -- THE DEPOSIT COMMAND TABLE 7602.23

   7065					.SBTTL	.DPOTB -- THE DEPOSIT COMMAND TABLE 7602.23
   7066
   7067	004652				.DPOTB::
   7068	004652					COMND$	AR,<LG.PRG!LG.RPT>,.DEPAR,AR
	000753	   101 	   122 	   000 	ARMSG:: .ASCIZ	%AR%
	004652	000753'				 .WORD	ARMSG		; POINTER TO "AR" SYMBOL
	004654	000402 				 .WORD	LG.PRG!LG.RPT		; LEGAL BITS
	004656	000000G				 .WORD	.DEPAR		; ROUTINE TO CALL OR DATA
   7069					;
   7070	004660					COMND$	ELEVEN,<LG.PRG!LG.RPT>,.DPOEL,ELE
	000756	   105 	   114 	   105 	ELEMSG:: .ASCIZ	%ELEVEN%
	000761	   126 	   105 	   116
	000764	   000
	004660	000756'				 .WORD	ELEMSG		; POINTER TO "ELEVEN" SYMBOL
	004662	000402 				 .WORD	LG.PRG!LG.RPT		; LEGAL BITS
	004664	000000G				 .WORD	.DPOEL		; ROUTINE TO CALL OR DATA
   7071					;
   7072	004666					COMND$	TEN,<LG.PRG!LG.RPT>,.DPOKL,TEN
	000765	   124 	   105 	   116 	TENMSG:: .ASCIZ	%TEN%
	000770	   000
	004666	000765'				 .WORD	TENMSG		; POINTER TO "TEN" SYMBOL
	004670	000402 				 .WORD	LG.PRG!LG.RPT		; LEGAL BITS
	004672	000000G				 .WORD	.DPOKL		; ROUTINE TO CALL OR DATA
   7073					;
   7074	004674					COMND$	DECREMENT,<LG.RPT!LG.OPR>,.DPOSD,DCR
	004674	000704'				 .WORD	DCRMSG		; POINTER TO "DECREMENT" SYMBOL
	004676	000401 				 .WORD	LG.RPT!LG.OPR		; LEGAL BITS
	004700	000000G				 .WORD	.DPOSD		; ROUTINE TO CALL OR DATA
   7075					;
   7076	004702					COMND$	INCREMENT,<LG.RPT!LG.OPR>,.DPOSI,INC
	004702	000716'				 .WORD	INCMSG		; POINTER TO "INCREMENT" SYMBOL
	004704	000401 				 .WORD	LG.RPT!LG.OPR		; LEGAL BITS
	004706	000000G				 .WORD	.DPOSI		; ROUTINE TO CALL OR DATA
   7077					;
   7078	004710					COMND$	NEXT,<LG.RPT!LG.OPR>,.DPOSN,NXT
	004710	000730'				 .WORD	NXTMSG		; POINTER TO "NEXT" SYMBOL
	004712	000401 				 .WORD	LG.RPT!LG.OPR		; LEGAL BITS
	004714	000000G				 .WORD	.DPOSN		; ROUTINE TO CALL OR DATA
   7079					;
   7080	004716					COMND$	PREVIOUS,<LG.RPT!LG.OPR>,.DPOSP,PRV
	004716	000735'				 .WORD	PRVMSG		; POINTER TO "PREVIOUS" SYMBOL
	004720	000401 				 .WORD	LG.RPT!LG.OPR		; LEGAL BITS
	004722	000000G				 .WORD	.DPOSP		; ROUTINE TO CALL OR DATA
   7081					;
   7082	004724					COMND$	THIS,<LG.RPT!LG.OPR>,.DPOSZ,THS
	004724	000746'				 .WORD	THSMSG		; POINTER TO "THIS" SYMBOL
	004726	000401 				 .WORD	LG.RPT!LG.OPR		; LEGAL BITS
	004730	000000G				 .WORD	.DPOSZ		; ROUTINE TO CALL OR DATA
   7083					;
   7084	004732	000000 				.WORD	0		; END OF TABLE MARKER
TABLE -- COMMAND PARSER COMMAND	MACRO M1113  10-NOV-81 17:44  PAGE 177
.EXETB -- THE EXAMINE EXTENSION TABLE 7602.16

   7086					.SBTTL	.EXETB -- THE EXAMINE EXTENSION TABLE 7602.16
   7087
   7088	004734				.EXETB::
   7089	004734					COMND$	DECREMENT,<LG.RPT!LG.OPR>,.EXAMD,DCR
	004734	000704'				 .WORD	DCRMSG		; POINTER TO "DECREMENT" SYMBOL
	004736	000401 				 .WORD	LG.RPT!LG.OPR		; LEGAL BITS
	004740	000000G				 .WORD	.EXAMD		; ROUTINE TO CALL OR DATA
   7090					;
   7091	004742					COMND$	INCREMENT,<LG.RPT!LG.OPR>,.EXAMI,INC
	004742	000716'				 .WORD	INCMSG		; POINTER TO "INCREMENT" SYMBOL
	004744	000401 				 .WORD	LG.RPT!LG.OPR		; LEGAL BITS
	004746	000000G				 .WORD	.EXAMI		; ROUTINE TO CALL OR DATA
   7092					;
   7093	004750					COMND$	NEXT,<LG.RPT!LG.OPR>,.EXAMN,NXT
	004750	000730'				 .WORD	NXTMSG		; POINTER TO "NEXT" SYMBOL
	004752	000401 				 .WORD	LG.RPT!LG.OPR		; LEGAL BITS
	004754	000000G				 .WORD	.EXAMN		; ROUTINE TO CALL OR DATA
   7094					;
   7095	004756					COMND$	PREVIOUS,<LG.RPT!LG.OPR>,.EXAMP,PRV
	004756	000735'				 .WORD	PRVMSG		; POINTER TO "PREVIOUS" SYMBOL
	004760	000401 				 .WORD	LG.RPT!LG.OPR		; LEGAL BITS
	004762	000000G				 .WORD	.EXAMP		; ROUTINE TO CALL OR DATA
   7096					;
   7097	004764					COMND$	THIS,<LG.RPT!LG.OPR>,.EXAMZ,THS
	004764	000746'				 .WORD	THSMSG		; POINTER TO "THIS" SYMBOL
	004766	000401 				 .WORD	LG.RPT!LG.OPR		; LEGAL BITS
	004770	000000G				 .WORD	.EXAMZ		; ROUTINE TO CALL OR DATA
   7098					;
   7099	004772	000000 				.WORD	0		; END OF TABLE MARKER
TABLE -- COMMAND PARSER COMMAND	MACRO M1113  10-NOV-81 17:44  PAGE 178
.EXMTB -- THE EXAMINE COMMAND TABLE 7703.25

   7101					.SBTTL	.EXMTB -- THE EXAMINE COMMAND TABLE 7703.25
   7102
   7103	004774				.EXMTB::
   7104	004774					COMND$	AD,<LG.PRG!LG.RPT>,.EXAD,AD
	000771	   101 	   104 	   000 	ADMSG:: .ASCIZ	%AD%
	004774	000771'				 .WORD	ADMSG		; POINTER TO "AD" SYMBOL
	004776	000402 				 .WORD	LG.PRG!LG.RPT		; LEGAL BITS
	005000	000000G				 .WORD	.EXAD		; ROUTINE TO CALL OR DATA
   7105					;
   7106	005002					COMND$	ADX,<LG.PRG!LG.RPT>,.EXADX,ADX
	000774	   101 	   104 	   130 	ADXMSG:: .ASCIZ	%ADX%
	000777	   000
	005002	000774'				 .WORD	ADXMSG		; POINTER TO "ADX" SYMBOL
	005004	000402 				 .WORD	LG.PRG!LG.RPT		; LEGAL BITS
	005006	000000G				 .WORD	.EXADX		; ROUTINE TO CALL OR DATA
   7107					;
   7108	005010					COMND$	AR,<LG.PRG!LG.RPT>,.EXARR,AR
	005010	000753'				 .WORD	ARMSG		; POINTER TO "AR" SYMBOL
	005012	000402 				 .WORD	LG.PRG!LG.RPT		; LEGAL BITS
	005014	000000G				 .WORD	.EXARR		; ROUTINE TO CALL OR DATA
   7109					;
   7110	005016					COMND$	ARX,<LG.PRG!LG.RPT>,.EXARX,ARX
	001000	   101 	   122 	   130 	ARXMSG:: .ASCIZ	%ARX%
	001003	   000
	005016	001000'				 .WORD	ARXMSG		; POINTER TO "ARX" SYMBOL
	005020	000402 				 .WORD	LG.PRG!LG.RPT		; LEGAL BITS
	005022	000000G				 .WORD	.EXARX		; ROUTINE TO CALL OR DATA
   7111					;
   7112	005024					COMND$	BR,<LG.PRG!LG.RPT>,.EXBRR,BR
	001004	   102 	   122 	   000 	BRMSG:: .ASCIZ	%BR%
	005024	001004'				 .WORD	BRMSG		; POINTER TO "BR" SYMBOL
	005026	000402 				 .WORD	LG.PRG!LG.RPT		; LEGAL BITS
	005030	000000G				 .WORD	.EXBRR		; ROUTINE TO CALL OR DATA
   7113					;
   7114	005032					COMND$	BRX,<LG.PRG!LG.RPT>,.EXBRX,BRX
	001007	   102 	   122 	   130 	BRXMSG:: .ASCIZ	%BRX%
	001012	   000
	005032	001007'				 .WORD	BRXMSG		; POINTER TO "BRX" SYMBOL
	005034	000402 				 .WORD	LG.PRG!LG.RPT		; LEGAL BITS
	005036	000000G				 .WORD	.EXBRX		; ROUTINE TO CALL OR DATA
   7115					;
   7116	005040					COMND$	EBUS,<LG.PRG!LG.RPT>,.EXEBS,EBS
	001013	   105 	   102 	   125 	EBSMSG:: .ASCIZ	%EBUS%
	001016	   123 	   000
	005040	001013'				 .WORD	EBSMSG		; POINTER TO "EBUS" SYMBOL
	005042	000402 				 .WORD	LG.PRG!LG.RPT		; LEGAL BITS
	005044	000000G				 .WORD	.EXEBS		; ROUTINE TO CALL OR DATA
   7117					;
   7118	005046					COMND$	FM,<LG.PRG!LG.RPT>,.EXFMR,FM
	001020	   106 	   115 	   000 	FMMSG:: .ASCIZ	%FM%
	005046	001020'				 .WORD	FMMSG		; POINTER TO "FM" SYMBOL
	005050	000402 				 .WORD	LG.PRG!LG.RPT		; LEGAL BITS
	005052	000000G				 .WORD	.EXFMR		; ROUTINE TO CALL OR DATA
   7119					;
   7120	005054					COMND$	MQ,<LG.PRG!LG.RPT>,.EXMQR,MQ
	001023	   115 	   121 	   000 	MQMSG:: .ASCIZ	%MQ%
	005054	001023'				 .WORD	MQMSG		; POINTER TO "MQ" SYMBOL
TABLE -- COMMAND PARSER COMMAND	MACRO M1113  10-NOV-81 17:44  PAGE 178-1
.EXMTB -- THE EXAMINE COMMAND TABLE 7703.25

	005056	000402 				 .WORD	LG.PRG!LG.RPT		; LEGAL BITS
	005060	000000G				 .WORD	.EXMQR		; ROUTINE TO CALL OR DATA
   7121					;
   7122	005062					COMND$	PC,<LG.ALL!LG.RPT>,.EXVPC,PC
	001026	   120 	   103 	   000 	PCMSG:: .ASCIZ	%PC%
	005062	001026'				 .WORD	PCMSG		; POINTER TO "PC" SYMBOL
	005064	000407 				 .WORD	LG.ALL!LG.RPT		; LEGAL BITS
	005066	000000G				 .WORD	.EXVPC		; ROUTINE TO CALL OR DATA
   7123					;
   7124		000012 			EXRTBL==<.-.EXMTB>/6
   7125	005070					COMND$	AB,<LG.PRG!LG.RPT>,.EXVAB,AB
	001031	   101 	   102 	   000 	ABMSG:: .ASCIZ	%AB%
	005070	001031'				 .WORD	ABMSG		; POINTER TO "AB" SYMBOL
	005072	000402 				 .WORD	LG.PRG!LG.RPT		; LEGAL BITS
	005074	000000G				 .WORD	.EXVAB		; ROUTINE TO CALL OR DATA
   7126					;
   7127	005076					COMND$	CRADDR,<LG.PRG!LG.RPT>,.EXCRA,CRA
	001034	   103 	   122 	   101 	CRAMSG:: .ASCIZ	%CRADDR%
	001037	   104 	   104 	   122
	001042	   000
	005076	001034'				 .WORD	CRAMSG		; POINTER TO "CRADDR" SYMBOL
	005100	000402 				 .WORD	LG.PRG!LG.RPT		; LEGAL BITS
	005102	000000G				 .WORD	.EXCRA		; ROUTINE TO CALL OR DATA
   7128					;
   7129	005104					COMND$	CRLOC,<LG.PRG!LG.RPT>,.EXCRL,CRL
	001043	   103 	   122 	   114 	CRLMSG:: .ASCIZ	%CRLOC%
	001046	   117 	   103 	   000
	005104	001043'				 .WORD	CRLMSG		; POINTER TO "CRLOC" SYMBOL
	005106	000402 				 .WORD	LG.PRG!LG.RPT		; LEGAL BITS
	005110	000000G				 .WORD	.EXCRL		; ROUTINE TO CALL OR DATA
   7130					;
   7131	005112					COMND$	DRADDR,<LG.PRG!LG.RPT>,.EXDRA,DRA
	001051	   104 	   122 	   101 	DRAMSG:: .ASCIZ	%DRADDR%
	001054	   104 	   104 	   122
	001057	   000
	005112	001051'				 .WORD	DRAMSG		; POINTER TO "DRADDR" SYMBOL
	005114	000402 				 .WORD	LG.PRG!LG.RPT		; LEGAL BITS
	005116	000000G				 .WORD	.EXDRA		; ROUTINE TO CALL OR DATA
   7132					;
   7133	005120					COMND$	DTE-20,<LG.PRG!LG.RPT>,.EXDTE,DTE
	001060	   104 	   124 	   105 	DTEMSG:: .ASCIZ	%DTE-20%
	001063	   055 	   062 	   060
	001066	   000
	005120	001060'				 .WORD	DTEMSG		; POINTER TO "DTE-20" SYMBOL
	005122	000402 				 .WORD	LG.PRG!LG.RPT		; LEGAL BITS
	005124	000000G				 .WORD	.EXDTE		; ROUTINE TO CALL OR DATA
   7134					;
   7135	005126					COMND$	ELEVEN,<LG.OPR!LG.RPT>,.EXMEL,ELE
	005126	000756'				 .WORD	ELEMSG		; POINTER TO "ELEVEN" SYMBOL
	005130	000401 				 .WORD	LG.OPR!LG.RPT		; LEGAL BITS
	005132	000000G				 .WORD	.EXMEL		; ROUTINE TO CALL OR DATA
   7136					;
   7137	005134					COMND$	FE,<LG.PRG!LG.RPT>,.EXFER,FER
	001067	   106 	   105 	   000 	FERMSG:: .ASCIZ	%FE%
	005134	001067'				 .WORD	FERMSG		; POINTER TO "FE" SYMBOL
	005136	000402 				 .WORD	LG.PRG!LG.RPT		; LEGAL BITS
	005140	000000G				 .WORD	.EXFER		; ROUTINE TO CALL OR DATA
TABLE -- COMMAND PARSER COMMAND	MACRO M1113  10-NOV-81 17:44  PAGE 178-2
.EXMTB -- THE EXAMINE COMMAND TABLE 7703.25

   7138					;
   7139	005142					COMND$	FLAGS,<LG.PRG!LG.RPT>,.EXAMF,FLG
	001072	   106 	   114 	   101 	FLGMSG:: .ASCIZ	%FLAGS%
	001075	   107 	   123 	   000
	005142	001072'				 .WORD	FLGMSG		; POINTER TO "FLAGS" SYMBOL
	005144	000402 				 .WORD	LG.PRG!LG.RPT		; LEGAL BITS
	005146	000000G				 .WORD	.EXAMF		; ROUTINE TO CALL OR DATA
   7140					;
   7141	005150					COMND$	KL,<LG.ALL!LG.RPT>,.EXAMK,KL
	001100	   113 	   114 	   000 	KLMSG:: .ASCIZ	%KL%
	005150	001100'				 .WORD	KLMSG		; POINTER TO "KL" SYMBOL
	005152	000407 				 .WORD	LG.ALL!LG.RPT		; LEGAL BITS
	005154	000000G				 .WORD	.EXAMK		; ROUTINE TO CALL OR DATA
   7142					;
   7143	005156					COMND$	PI,<LG.PRG!LG.RPT>,.EXMPI,PI
	001103	   120 	   111 	   000 	PIMSG:: .ASCIZ	%PI%
	005156	001103'				 .WORD	PIMSG		; POINTER TO "PI" SYMBOL
	005160	000402 				 .WORD	LG.PRG!LG.RPT		; LEGAL BITS
	005162	000000G				 .WORD	.EXMPI		; ROUTINE TO CALL OR DATA
   7144					;
   7145	005164					COMND$	REGISTERS,<LG.PRG!LG.RPT>,.EXREG,REG
	001106	   122 	   105 	   107 	REGMSG:: .ASCIZ	%REGISTERS%
	001111	   111 	   123 	   124
	001114	   105 	   122 	   123
	001117	   000
	005164	001106'				 .WORD	REGMSG		; POINTER TO "REGISTERS" SYMBOL
	005166	000402 				 .WORD	LG.PRG!LG.RPT		; LEGAL BITS
	005170	000000G				 .WORD	.EXREG		; ROUTINE TO CALL OR DATA
   7146					;
   7147	005172					COMND$	TEN,<LG.OPR!LG.RPT>,.EXMKL,TEN
	005172	000765'				 .WORD	TENMSG		; POINTER TO "TEN" SYMBOL
	005174	000401 				 .WORD	LG.OPR!LG.RPT		; LEGAL BITS
	005176	000000G				 .WORD	.EXMKL		; ROUTINE TO CALL OR DATA
   7148					;
   7149	005200					COMND$	VMA,<LG.PRG!LG.RPT>,.EXVMA,VMA
	001120	   126 	   115 	   101 	VMAMSG:: .ASCIZ	%VMA%
	001123	   000
	005200	001120'				 .WORD	VMAMSG		; POINTER TO "VMA" SYMBOL
	005202	000402 				 .WORD	LG.PRG!LG.RPT		; LEGAL BITS
	005204	000000G				 .WORD	.EXVMA		; ROUTINE TO CALL OR DATA
   7150					;
   7151	005206					COMND$	VMAH,<LG.PRG!LG.RPT>,.EXVMH,VMH
	001124	   126 	   115 	   101 	VMHMSG:: .ASCIZ	%VMAH%
	001127	   110 	   000
	005206	001124'				 .WORD	VMHMSG		; POINTER TO "VMAH" SYMBOL
	005210	000402 				 .WORD	LG.PRG!LG.RPT		; LEGAL BITS
	005212	000000G				 .WORD	.EXVMH		; ROUTINE TO CALL OR DATA
   7152					;
   7153	005214					COMND$	SBR,<LG.PRG!LG.RPT>,.EXSBR,SBR
	001131	   123 	   102 	   122 	SBRMSG:: .ASCIZ	%SBR%
	001134	   000
	005214	001131'				 .WORD	SBRMSG		; POINTER TO "SBR" SYMBOL
	005216	000402 				 .WORD	LG.PRG!LG.RPT		; LEGAL BITS
	005220	000000G				 .WORD	.EXSBR		; ROUTINE TO CALL OR DATA
   7154					;
   7155	005222					COMND$	SC,<LG.PRG!LG.RPT>,.EXSCR,SCR
	001135	   123 	   103 	   000 	SCRMSG:: .ASCIZ	%SC%
TABLE -- COMMAND PARSER COMMAND	MACRO M1113  10-NOV-81 17:44  PAGE 178-3
.EXMTB -- THE EXAMINE COMMAND TABLE 7703.25

	005222	001135'				 .WORD	SCRMSG		; POINTER TO "SC" SYMBOL
	005224	000402 				 .WORD	LG.PRG!LG.RPT		; LEGAL BITS
	005226	000000G				 .WORD	.EXSCR		; ROUTINE TO CALL OR DATA
   7156					;
   7157	005230					COMND$	DECREMENT,<LG.RPT!LG.OPR>,.EXAMD,DCR
	005230	000704'				 .WORD	DCRMSG		; POINTER TO "DECREMENT" SYMBOL
	005232	000401 				 .WORD	LG.RPT!LG.OPR		; LEGAL BITS
	005234	000000G				 .WORD	.EXAMD		; ROUTINE TO CALL OR DATA
   7158					;
   7159	005236					COMND$	INCREMENT,<LG.RPT!LG.OPR>,.EXAMI,INC
	005236	000716'				 .WORD	INCMSG		; POINTER TO "INCREMENT" SYMBOL
	005240	000401 				 .WORD	LG.RPT!LG.OPR		; LEGAL BITS
	005242	000000G				 .WORD	.EXAMI		; ROUTINE TO CALL OR DATA
   7160					;
   7161	005244					COMND$	NEXT,<LG.RPT!LG.OPR>,.EXAMN,NXT
	005244	000730'				 .WORD	NXTMSG		; POINTER TO "NEXT" SYMBOL
	005246	000401 				 .WORD	LG.RPT!LG.OPR		; LEGAL BITS
	005250	000000G				 .WORD	.EXAMN		; ROUTINE TO CALL OR DATA
   7162					;
   7163	005252					COMND$	PREVIOUS,<LG.RPT!LG.OPR>,.EXAMP,PRV
	005252	000735'				 .WORD	PRVMSG		; POINTER TO "PREVIOUS" SYMBOL
	005254	000401 				 .WORD	LG.RPT!LG.OPR		; LEGAL BITS
	005256	000000G				 .WORD	.EXAMP		; ROUTINE TO CALL OR DATA
   7164					;
   7165	005260					COMND$	THIS,<LG.RPT!LG.OPR>,.EXAMZ,THS
	005260	000746'				 .WORD	THSMSG		; POINTER TO "THIS" SYMBOL
	005262	000401 				 .WORD	LG.RPT!LG.OPR		; LEGAL BITS
	005264	000000G				 .WORD	.EXAMZ		; ROUTINE TO CALL OR DATA
   7166					;
   7167	005266	000000 				.WORD	0		; END OF TABLE MARKER
TABLE -- COMMAND PARSER COMMAND	MACRO M1113  10-NOV-81 17:44  PAGE 179
.KLMTB -- THE KLINIK MODE TABLE 7702.16

   7169					.SBTTL	.KLMTB -- THE KLINIK MODE TABLE 7702.16
   7170
   7171	005270				.KLMTB::
   7172	005270					COMND$	MAINTENANCE,LG.ALL,LG.ALL,MNT
	001140	   115 	   101 	   111 	MNTMSG:: .ASCIZ	%MAINTENANCE%
	001143	   116 	   124 	   105
	001146	   116 	   101 	   116
	001151	   103 	   105 	   000
	005270	001140'				 .WORD	MNTMSG		; POINTER TO "MAINTENANCE" SYMBOL
	005272	000007 				 .WORD	LG.ALL		; LEGAL BITS
	005274	000007 				 .WORD	LG.ALL		; ROUTINE TO CALL OR DATA
   7173					;
   7174	005276					COMND$	OPERATOR,LG.ALL,LG.OPR,OPR
	001154	   117 	   120 	   105 	OPRMSG:: .ASCIZ	%OPERATOR%
	001157	   122 	   101 	   124
	001162	   117 	   122 	   000
	005276	001154'				 .WORD	OPRMSG		; POINTER TO "OPERATOR" SYMBOL
	005300	000007 				 .WORD	LG.ALL		; LEGAL BITS
	005302	000001 				 .WORD	LG.OPR		; ROUTINE TO CALL OR DATA
   7175					;
   7176	005304					COMND$	PROGRAMMER,LG.ALL,LG.PRM,PRG
	001165	   120 	   122 	   117 	PRGMSG:: .ASCIZ	%PROGRAMMER%
	001170	   107 	   122 	   101
	001173	   115 	   115 	   105
	001176	   122 	   000
	005304	001165'				 .WORD	PRGMSG		; POINTER TO "PROGRAMMER" SYMBOL
	005306	000007 				 .WORD	LG.ALL		; LEGAL BITS
	005310	000003 				 .WORD	LG.PRM		; ROUTINE TO CALL OR DATA
   7177					;
   7178	005312	000000 				.WORD	0		; END OF TABLE MARKER
   7179
   7180	005314				.KLMT1::
   7181	005314					COMND$	REMOTE,LG.ALL,1,REM
	001200	   122 	   105 	   115 	REMMSG:: .ASCIZ	%REMOTE%
	001203	   117 	   124 	   105
	001206	   000
	005314	001200'				 .WORD	REMMSG		; POINTER TO "REMOTE" SYMBOL
	005316	000007 				 .WORD	LG.ALL		; LEGAL BITS
	005320	000001 				 .WORD	1		; ROUTINE TO CALL OR DATA
   7182					;
   7183	005322					COMND$	USER,LG.ALL,-1,USR
	001207	   125 	   123 	   105 	USRMSG:: .ASCIZ	%USER%
	001212	   122 	   000
	005322	001207'				 .WORD	USRMSG		; POINTER TO "USER" SYMBOL
	005324	000007 				 .WORD	LG.ALL		; LEGAL BITS
	005326	177777 				 .WORD	-1		; ROUTINE TO CALL OR DATA
   7184					;
   7185	005330	000000 				.WORD	0		; END OF TABLE MARKER
TABLE -- COMMAND PARSER COMMAND	MACRO M1113  10-NOV-81 17:44  PAGE 180
.MONTB -- THE MONTH TABLE 7702.16

   7187					.SBTTL	.MONTB -- THE MONTH TABLE 7702.16
   7188
   7189
   7190	005332				.MONTB::
   7191	005332					COMND$	JANUARY,LG.ALL,1.,JAN
	001214	   112 	   101 	   116 	JANMSG:: .ASCIZ	%JANUARY%
	001217	   125 	   101 	   122
	001222	   131 	   000
	005332	001214'				 .WORD	JANMSG		; POINTER TO "JANUARY" SYMBOL
	005334	000007 				 .WORD	LG.ALL		; LEGAL BITS
	005336	000001 				 .WORD	1.		; ROUTINE TO CALL OR DATA
   7192					;
   7193	005340					COMND$	FEBRUARY,LG.ALL,2.,FEB
	001224	   106 	   105 	   102 	FEBMSG:: .ASCIZ	%FEBRUARY%
	001227	   122 	   125 	   101
	001232	   122 	   131 	   000
	005340	001224'				 .WORD	FEBMSG		; POINTER TO "FEBRUARY" SYMBOL
	005342	000007 				 .WORD	LG.ALL		; LEGAL BITS
	005344	000002 				 .WORD	2.		; ROUTINE TO CALL OR DATA
   7194					;
   7195	005346					COMND$	MARCH,LG.ALL,3.,MAR
	001235	   115 	   101 	   122 	MARMSG:: .ASCIZ	%MARCH%
	001240	   103 	   110 	   000
	005346	001235'				 .WORD	MARMSG		; POINTER TO "MARCH" SYMBOL
	005350	000007 				 .WORD	LG.ALL		; LEGAL BITS
	005352	000003 				 .WORD	3.		; ROUTINE TO CALL OR DATA
   7196					;
   7197	005354					COMND$	APRIL,LG.ALL,4.,APR
	001243	   101 	   120 	   122 	APRMSG:: .ASCIZ	%APRIL%
	001246	   111 	   114 	   000
	005354	001243'				 .WORD	APRMSG		; POINTER TO "APRIL" SYMBOL
	005356	000007 				 .WORD	LG.ALL		; LEGAL BITS
	005360	000004 				 .WORD	4.		; ROUTINE TO CALL OR DATA
   7198					;
   7199	005362					COMND$	MAY,LG.ALL,5.,MAY
	001251	   115 	   101 	   131 	MAYMSG:: .ASCIZ	%MAY%
	001254	   000
	005362	001251'				 .WORD	MAYMSG		; POINTER TO "MAY" SYMBOL
	005364	000007 				 .WORD	LG.ALL		; LEGAL BITS
	005366	000005 				 .WORD	5.		; ROUTINE TO CALL OR DATA
   7200					;
   7201	005370					COMND$	JUNE,LG.ALL,6.,JUN
	001255	   112 	   125 	   116 	JUNMSG:: .ASCIZ	%JUNE%
	001260	   105 	   000
	005370	001255'				 .WORD	JUNMSG		; POINTER TO "JUNE" SYMBOL
	005372	000007 				 .WORD	LG.ALL		; LEGAL BITS
	005374	000006 				 .WORD	6.		; ROUTINE TO CALL OR DATA
   7202					;
   7203	005376					COMND$	JULY,LG.ALL,7.,JUL
	001262	   112 	   125 	   114 	JULMSG:: .ASCIZ	%JULY%
	001265	   131 	   000
	005376	001262'				 .WORD	JULMSG		; POINTER TO "JULY" SYMBOL
	005400	000007 				 .WORD	LG.ALL		; LEGAL BITS
	005402	000007 				 .WORD	7.		; ROUTINE TO CALL OR DATA
   7204					;
   7205	005404					COMND$	AUGUST,LG.ALL,8.,AUG
	001267	   101 	   125 	   107 	AUGMSG:: .ASCIZ	%AUGUST%
TABLE -- COMMAND PARSER COMMAND	MACRO M1113  10-NOV-81 17:44  PAGE 180-1
.MONTB -- THE MONTH TABLE 7702.16

	001272	   125 	   123 	   124
	001275	   000
	005404	001267'				 .WORD	AUGMSG		; POINTER TO "AUGUST" SYMBOL
	005406	000007 				 .WORD	LG.ALL		; LEGAL BITS
	005410	000010 				 .WORD	8.		; ROUTINE TO CALL OR DATA
   7206					;
   7207	005412					COMND$	SEPTEMBER,LG.ALL,9.,SEP
	001276	   123 	   105 	   120 	SEPMSG:: .ASCIZ	%SEPTEMBER%
	001301	   124 	   105 	   115
	001304	   102 	   105 	   122
	001307	   000
	005412	001276'				 .WORD	SEPMSG		; POINTER TO "SEPTEMBER" SYMBOL
	005414	000007 				 .WORD	LG.ALL		; LEGAL BITS
	005416	000011 				 .WORD	9.		; ROUTINE TO CALL OR DATA
   7208					;
   7209	005420					COMND$	OCTOBER,LG.ALL,10.,OCT
	001310	   117 	   103 	   124 	OCTMSG:: .ASCIZ	%OCTOBER%
	001313	   117 	   102 	   105
	001316	   122 	   000
	005420	001310'				 .WORD	OCTMSG		; POINTER TO "OCTOBER" SYMBOL
	005422	000007 				 .WORD	LG.ALL		; LEGAL BITS
	005424	000012 				 .WORD	10.		; ROUTINE TO CALL OR DATA
   7210					;
   7211	005426					COMND$	NOVEMBER,LG.ALL,11.,NOV
	001320	   116 	   117 	   126 	NOVMSG:: .ASCIZ	%NOVEMBER%
	001323	   105 	   115 	   102
	001326	   105 	   122 	   000
	005426	001320'				 .WORD	NOVMSG		; POINTER TO "NOVEMBER" SYMBOL
	005430	000007 				 .WORD	LG.ALL		; LEGAL BITS
	005432	000013 				 .WORD	11.		; ROUTINE TO CALL OR DATA
   7212					;
   7213	005434					COMND$	DECEMBER,LG.ALL,12.,DEC
	001331	   104 	   105 	   103 	DECMSG:: .ASCIZ	%DECEMBER%
	001334	   105 	   115 	   102
	001337	   105 	   122 	   000
	005434	001331'				 .WORD	DECMSG		; POINTER TO "DECEMBER" SYMBOL
	005436	000007 				 .WORD	LG.ALL		; LEGAL BITS
	005440	000014 				 .WORD	12.		; ROUTINE TO CALL OR DATA
   7214					;
   7215	005442	000000 				.WORD	0		; END OF TABLE MARKER
   7216
TABLE -- COMMAND PARSER COMMAND	MACRO M1113  10-NOV-81 17:44  PAGE 181
.NSETB -- NORMAL ERROR CODE TABLE 7710.11

   7218					.SBTTL	.NSETB -- NORMAL ERROR CODE TABLE 7710.11
   7219
   7220	005444				.NSETB::
   7221	005444					NSERR$	APE,<KL APR ERROR>
	000000	   101 	   120 	   105 	APEERM:	 .ASCIZ	%APE - KL APR ERROR%
	000003	   040 	   055 	   040
	000006	   113 	   114 	   040
	000011	   101 	   120 	   122
	000014	   040 	   105 	   122
	000017	   122 	   117 	   122
	000022	   000
	005444	004305 				 .RAD50	/APE/		; "APE" IN .RAD50
	005446	000000'				 .WORD	APEERM		; POINTER TO MESSAGE
   7222						;
   7223	005450					NSERR$	BAE,<BURST ARGUMENT ERROR>
	000023	   102 	   101 	   105 	BAEERM:	 .ASCIZ	%BAE - BURST ARGUMENT ERROR%
	000026	   040 	   055 	   040
	000031	   102 	   125 	   122
	000034	   123 	   124 	   040
	000037	   101 	   122 	   107
	000042	   125 	   115 	   105
	000045	   116 	   124 	   040
	000050	   105 	   122 	   122
	000053	   117 	   122 	   000
	005450	006255 				 .RAD50	/BAE/		; "BAE" IN .RAD50
	005452	000023'				 .WORD	BAEERM		; POINTER TO MESSAGE
   7224						;
   7225	005454					NSERR$	CAE,<KL CRAM ADDRESS ERROR>
	000056	   103 	   101 	   105 	CAEERM:	 .ASCIZ	%CAE - KL CRAM ADDRESS ERROR%
	000061	   040 	   055 	   040
	000064	   113 	   114 	   040
	000067	   103 	   122 	   101
	000072	   115 	   040 	   101
	000075	   104 	   104 	   122
	000100	   105 	   123 	   123
	000103	   040 	   105 	   122
	000106	   122 	   117 	   122
	000111	   000
	005454	011355 				 .RAD50	/CAE/		; "CAE" IN .RAD50
	005456	000056'				 .WORD	CAEERM		; POINTER TO MESSAGE
   7226	005460					NSERR$	CAL,<CAN'T ASSIGN LUN>
	000112	   103 	   101 	   114 	CALERM:	 .ASCIZ	%CAL - CAN'T ASSIGN LUN%
	000115	   040 	   055 	   040
	000120	   103 	   101 	   116
	000123	   047 	   124 	   040
	000126	   101 	   123 	   123
	000131	   111 	   107 	   116
	000134	   040 	   114 	   125
	000137	   116 	   000
	005460	011364 				 .RAD50	/CAL/		; "CAL" IN .RAD50
	005462	000112'				 .WORD	CALERM		; POINTER TO MESSAGE
   7227	005464					NSERR$	CAP,<CAN'T ATTACH LINEPRINTER>
	000141	   103 	   101 	   120 	CAPERM:	 .ASCIZ	%CAP - CAN'T ATTACH LINEPRINTER%
	000144	   040 	   055 	   040
	000147	   103 	   101 	   116
	000152	   047 	   124 	   040
	000155	   101 	   124 	   124
TABLE -- COMMAND PARSER COMMAND	MACRO M1113  10-NOV-81 17:44  PAGE 181-1
.NSETB -- NORMAL ERROR CODE TABLE 7710.11

	000160	   101 	   103 	   110
	000163	   040 	   114 	   111
	000166	   116 	   105 	   120
	000171	   122 	   111 	   116
	000174	   124 	   105 	   122
	000177	   000
	005464	011370 				 .RAD50	/CAP/		; "CAP" IN .RAD50
	005466	000141'				 .WORD	CAPERM		; POINTER TO MESSAGE
   7228	005470					NSERR$	CBO,<COMMAND BUFFER OVERFLOW>
	000200	   103 	   102 	   117 	CBOERM:	 .ASCIZ	%CBO - COMMAND BUFFER OVERFLOW%
	000203	   040 	   055 	   040
	000206	   103 	   117 	   115
	000211	   115 	   101 	   116
	000214	   104 	   040 	   102
	000217	   125 	   106 	   106
	000222	   105 	   122 	   040
	000225	   117 	   126 	   105
	000230	   122 	   106 	   114
	000233	   117 	   127 	   000
	005470	011437 				 .RAD50	/CBO/		; "CBO" IN .RAD50
	005472	000200'				 .WORD	CBOERM		; POINTER TO MESSAGE
   7229	005474					NSERR$	CDI,<SET/CLEAR DATE ILLEGAL IN PRIMARY PROTOCOL>
	000236	   103 	   104 	   111 	CDIERM:	 .ASCIZ	%CDI - SET/CLEAR DATE ILLEGAL IN PRIMARY PROTOCOL%
	000241	   040 	   055 	   040
	000244	   123 	   105 	   124
	000247	   057 	   103 	   114
	000252	   105 	   101 	   122
	000255	   040 	   104 	   101
	000260	   124 	   105 	   040
	000263	   111 	   114 	   114
	000266	   105 	   107 	   101
	000271	   114 	   040 	   111
	000274	   116 	   040 	   120
	000277	   122 	   111 	   115
	000302	   101 	   122 	   131
	000305	   040 	   120 	   122
	000310	   117 	   124 	   117
	000313	   103 	   117 	   114
	000316	   000
	005474	011551 				 .RAD50	/CDI/		; "CDI" IN .RAD50
	005476	000236'				 .WORD	CDIERM		; POINTER TO MESSAGE
   7230	005500					NSERR$	CFH,<CAN'T FIND KL HALT LOOP>
	000317	   103 	   106 	   110 	CFHERM:	 .ASCIZ	%CFH - CAN'T FIND KL HALT LOOP%
	000322	   040 	   055 	   040
	000325	   103 	   101 	   116
	000330	   047 	   124 	   040
	000333	   106 	   111 	   116
	000336	   104 	   040 	   113
	000341	   114 	   040 	   110
	000344	   101 	   114 	   124
	000347	   040 	   114 	   117
	000352	   117 	   120 	   000
	005500	011670 				 .RAD50	/CFH/		; "CFH" IN .RAD50
	005502	000317'				 .WORD	CFHERM		; POINTER TO MESSAGE
   7231	005504					NSERR$	CLE,<CONSOLE LIMIT EXCEEDED>
	000355	   103 	   114 	   105 	CLEERM:	 .ASCIZ	%CLE - CONSOLE LIMIT EXCEEDED%
	000360	   040 	   055 	   040
TABLE -- COMMAND PARSER COMMAND	MACRO M1113  10-NOV-81 17:44  PAGE 181-2
.NSETB -- NORMAL ERROR CODE TABLE 7710.11

	000363	   103 	   117 	   116
	000366	   123 	   117 	   114
	000371	   105 	   040 	   114
	000374	   111 	   115 	   111
	000377	   124 	   040 	   105
	000402	   130 	   103 	   105
	000405	   105 	   104 	   105
	000410	   104 	   000
	005504	012245 				 .RAD50	/CLE/		; "CLE" IN .RAD50
	005506	000355'				 .WORD	CLEERM		; POINTER TO MESSAGE
   7232	005510					NSERR$	CNR,<COMMAND IS NOT REPEATABLE>
	000412	   103 	   116 	   122 	CNRERM:	 .ASCIZ	%CNR - COMMAND IS NOT REPEATABLE%
	000415	   040 	   055 	   040
	000420	   103 	   117 	   115
	000423	   115 	   101 	   116
	000426	   104 	   040 	   111
	000431	   123 	   040 	   116
	000434	   117 	   124 	   040
	000437	   122 	   105 	   120
	000442	   105 	   101 	   124
	000445	   101 	   102 	   114
	000450	   105 	   000
	005510	012402 				 .RAD50	/CNR/		; "CNR" IN .RAD50
	005512	000412'				 .WORD	CNRERM		; POINTER TO MESSAGE
   7233	005514					NSERR$	CPE,<CAN'T PHASE EBOX>
	000452	   103 	   120 	   105 	CPEERM:	 .ASCIZ	%CPE - CAN'T PHASE EBOX%
	000455	   040 	   055 	   040
	000460	   103 	   101 	   116
	000463	   047 	   124 	   040
	000466	   120 	   110 	   101
	000471	   123 	   105 	   040
	000474	   105 	   102 	   117
	000477	   130 	   000
	005514	012505 				 .RAD50	/CPE/		; "CPE" IN .RAD50
	005516	000452'				 .WORD	CPEERM		; POINTER TO MESSAGE
   7234	005520					NSERR$	CRH,<CAN'T READ HARDWARE OPTIONS>
	000501	   103 	   122 	   110 	CRHERM:	 .ASCIZ	%CRH - CAN'T READ HARDWARE OPTIONS%
	000504	   040 	   055 	   040
	000507	   103 	   101 	   116
	000512	   047 	   124 	   040
	000515	   122 	   105 	   101
	000520	   104 	   040 	   110
	000523	   101 	   122 	   104
	000526	   127 	   101 	   122
	000531	   105 	   040 	   117
	000534	   120 	   124 	   111
	000537	   117 	   116 	   123
	000542	   000
	005520	012630 				 .RAD50	/CRH/		; "CRH" IN .RAD50
	005522	000501'				 .WORD	CRHERM		; POINTER TO MESSAGE
   7235						;
   7239	005524					NSERR$	DAV,<DATE ALREADY VALID>
	000543	   104 	   101 	   126 	DAVERM:	 .ASCIZ	%DAV - DATE ALREADY VALID%
	000546	   040 	   055 	   040
	000551	   104 	   101 	   124
	000554	   105 	   040 	   101
	000557	   114 	   122 	   105
TABLE -- COMMAND PARSER COMMAND	MACRO M1113  10-NOV-81 17:44  PAGE 181-3
.NSETB -- NORMAL ERROR CODE TABLE 7710.11

	000562	   101 	   104 	   131
	000565	   040 	   126 	   101
	000570	   114 	   111 	   104
	000573	   000
	005524	014476 				 .RAD50	/DAV/		; "DAV" IN .RAD50
	005526	000543'				 .WORD	DAVERM		; POINTER TO MESSAGE
   7240	005530					NSERR$	DBT,<DATE BEFORE TODAY>
	000574	   104 	   102 	   124 	DBTERM:	 .ASCIZ	%DBT - DATE BEFORE TODAY%
	000577	   040 	   055 	   040
	000602	   104 	   101 	   124
	000605	   105 	   040 	   102
	000610	   105 	   106 	   117
	000613	   122 	   105 	   040
	000616	   124 	   117 	   104
	000621	   101 	   131 	   000
	005530	014544 				 .RAD50	/DBT/		; "DBT" IN .RAD50
	005532	000574'				 .WORD	DBTERM		; POINTER TO MESSAGE
   7241	005534					NSERR$	DCK,<DIVIDE CHECK>
	000624	   104 	   103 	   113 	DCKERM:	 .ASCIZ	%DCK - DIVIDE CHECK%
	000627	   040 	   055 	   040
	000632	   104 	   111 	   126
	000635	   111 	   104 	   105
	000640	   040 	   103 	   110
	000643	   105 	   103 	   113
	000646	   000
	005534	014603 				 .RAD50	/DCK/		; "DCK" IN .RAD50
	005536	000624'				 .WORD	DCKERM		; POINTER TO MESSAGE
   7242	005540					NSERR$	DMF,<DEPOSIT KL MEMORY FAILED>
	000647	   104 	   115 	   106 	DMFERM:	 .ASCIZ	%DMF - DEPOSIT KL MEMORY FAILED%
	000652	   040 	   055 	   040
	000655	   104 	   105 	   120
	000660	   117 	   123 	   111
	000663	   124 	   040 	   113
	000666	   114 	   040 	   115
	000671	   105 	   115 	   117
	000674	   122 	   131 	   040
	000677	   106 	   101 	   111
	000702	   114 	   105 	   104
	000705	   000
	005540	015416 				 .RAD50	/DMF/		; "DMF" IN .RAD50
	005542	000647'				 .WORD	DMFERM		; POINTER TO MESSAGE
   7243	005544					NSERR$	DOR,<DATE OUT OF RANGE>
	000706	   104 	   117 	   122 	DORERM:	 .ASCIZ	%DOR - DATE OUT OF RANGE%
	000711	   040 	   055 	   040
	000714	   104 	   101 	   124
	000717	   105 	   040 	   117
	000722	   125 	   124 	   040
	000725	   117 	   106 	   040
	000730	   122 	   101 	   116
	000733	   107 	   105 	   000
	005544	015552 				 .RAD50	/DOR/		; "DOR" IN .RAD50
	005546	000706'				 .WORD	DORERM		; POINTER TO MESSAGE
   7244	005550					NSERR$	DNF,<DIRECTORY FILE NOT FOUND>
	000736	   104 	   116 	   106 	DNFERM:	 .ASCIZ	%DNF - DIRECTORY FILE NOT FOUND%
	000741	   040 	   055 	   040
	000744	   104 	   111 	   122
	000747	   105 	   103 	   124
TABLE -- COMMAND PARSER COMMAND	MACRO M1113  10-NOV-81 17:44  PAGE 181-4
.NSETB -- NORMAL ERROR CODE TABLE 7710.11

	000752	   117 	   122 	   131
	000755	   040 	   106 	   111
	000760	   114 	   105 	   040
	000763	   116 	   117 	   124
	000766	   040 	   106 	   117
	000771	   125 	   116 	   104
	000774	   000
	005550	015466 				 .RAD50	/DNF/		; "DNF" IN .RAD50
	005552	000736'				 .WORD	DNFERM		; POINTER TO MESSAGE
   7245	005554					NSERR$	DNP,<DTE-20 IS NOT PRIVILEGED>
	000775	   104 	   116 	   120 	DNPERM:	 .ASCIZ	%DNP - DTE-20 IS NOT PRIVILEGED%
	001000	   040 	   055 	   040
	001003	   104 	   124 	   105
	001006	   055 	   062 	   060
	001011	   040 	   111 	   123
	001014	   040 	   116 	   117
	001017	   124 	   040 	   120
	001022	   122 	   111 	   126
	001025	   111 	   114 	   105
	001030	   107 	   105 	   104
	001033	   000
	005554	015500 				 .RAD50	/DNP/		; "DNP" IN .RAD50
	005556	000775'				 .WORD	DNPERM		; POINTER TO MESSAGE
   7246	005560					NSERR$	DSF,<DTE-20 STATUS FAILED>
	001034	   104 	   123 	   106 	DSFERM:	 .ASCIZ	%DSF - DTE-20 STATUS FAILED%
	001037	   040 	   055 	   040
	001042	   104 	   124 	   105
	001045	   055 	   062 	   060
	001050	   040 	   123 	   124
	001053	   101 	   124 	   125
	001056	   123 	   040 	   106
	001061	   101 	   111 	   114
	001064	   105 	   104 	   000
	005560	015776 				 .RAD50	/DSF/		; "DSF" IN .RAD50
	005562	001034'				 .WORD	DSFERM		; POINTER TO MESSAGE
   7247	005564					NSERR$	DTC,<DTE-20 CONFUSED - RUN AND HALT LOOP>
	001067	   104 	   124 	   103 	DTCERM:	 .ASCIZ	%DTC - DTE-20 CONFUSED - RUN AND HALT LOOP%
	001072	   040 	   055 	   040
	001075	   104 	   124 	   105
	001100	   055 	   062 	   060
	001103	   040 	   103 	   117
	001106	   116 	   106 	   125
	001111	   123 	   105 	   104
	001114	   040 	   055 	   040
	001117	   122 	   125 	   116
	001122	   040 	   101 	   116
	001125	   104 	   040 	   110
	001130	   101 	   114 	   124
	001133	   040 	   114 	   117
	001136	   117 	   120 	   000
	005564	016043 				 .RAD50	/DTC/		; "DTC" IN .RAD50
	005566	001067'				 .WORD	DTCERM		; POINTER TO MESSAGE
   7248						;
   7249	005570					NSERR$	ECT,<EBOX CLOCK TIMEOUT>
	001141	   105 	   103 	   124 	ECTERM:	 .ASCIZ	%ECT - EBOX CLOCK TIMEOUT%
	001144	   040 	   055 	   040
	001147	   105 	   102 	   117
TABLE -- COMMAND PARSER COMMAND	MACRO M1113  10-NOV-81 17:44  PAGE 181-5
.NSETB -- NORMAL ERROR CODE TABLE 7710.11

	001152	   130 	   040 	   103
	001155	   114 	   117 	   103
	001160	   113 	   040 	   124
	001163	   111 	   115 	   105
	001166	   117 	   125 	   124
	001171	   000
	005570	017714 				 .RAD50	/ECT/		; "ECT" IN .RAD50
	005572	001141'				 .WORD	ECTERM		; POINTER TO MESSAGE
   7250	005574					NSERR$	EMF,<EXAMINE KL MEMORY FAILED>
	001172	   105 	   115 	   106 	EMFERM:	 .ASCIZ	%EMF - EXAMINE KL MEMORY FAILED%
	001175	   040 	   055 	   040
	001200	   105 	   130 	   101
	001203	   115 	   111 	   116
	001206	   105 	   040 	   113
	001211	   114 	   040 	   115
	001214	   105 	   115 	   117
	001217	   122 	   131 	   040
	001222	   106 	   101 	   111
	001225	   114 	   105 	   104
	001230	   000
	005574	020516 				 .RAD50	/EMF/		; "EMF" IN .RAD50
	005576	001172'				 .WORD	EMFERM		; POINTER TO MESSAGE
   7251	005600					NSERR$	EOC,<END OF COMMAND REQUIRED>
	001231	   105 	   117 	   103 	EOCERM:	 .ASCIZ	%EOC - END OF COMMAND REQUIRED%
	001234	   040 	   055 	   040
	001237	   105 	   116 	   104
	001242	   040 	   117 	   106
	001245	   040 	   103 	   117
	001250	   115 	   115 	   101
	001253	   116 	   104 	   040
	001256	   122 	   105 	   121
	001261	   125 	   111 	   122
	001264	   105 	   104 	   000
	005600	020633 				 .RAD50	/EOC/		; "EOC" IN .RAD50
	005602	001231'				 .WORD	EOCERM		; POINTER TO MESSAGE
   7252	005604					NSERR$	EPE,<EBUS PARITY ERROR>
	001267	   105 	   120 	   105 	EPEERM:	 .ASCIZ	%EPE - EBUS PARITY ERROR%
	001272	   040 	   055 	   040
	001275	   105 	   102 	   125
	001300	   123 	   040 	   120
	001303	   101 	   122 	   111
	001306	   124 	   131 	   040
	001311	   105 	   122 	   122
	001314	   117 	   122 	   000
	005604	020705 				 .RAD50	/EPE/		; "EPE" IN .RAD50
	005606	001267'				 .WORD	EPEERM		; POINTER TO MESSAGE
   7253	005610					NSERR$	ESD,<EBOX STOPPED - DEPOSIT>
	001317	   105 	   123 	   104 	ESDERM:	 .ASCIZ	%ESD - EBOX STOPPED - DEPOSIT%
	001322	   040 	   055 	   040
	001325	   105 	   102 	   117
	001330	   130 	   040 	   123
	001333	   124 	   117 	   120
	001336	   120 	   105 	   104
	001341	   040 	   055 	   040
	001344	   104 	   105 	   120
	001347	   117 	   123 	   111
	001352	   124 	   000
TABLE -- COMMAND PARSER COMMAND	MACRO M1113  10-NOV-81 17:44  PAGE 181-6
.NSETB -- NORMAL ERROR CODE TABLE 7710.11

	005610	021074 				 .RAD50	/ESD/		; "ESD" IN .RAD50
	005612	001317'				 .WORD	ESDERM		; POINTER TO MESSAGE
   7254	005614					NSERR$	ESE,<EBOX STOPPED - EXAMINE>
	001354	   105 	   123 	   105 	ESEERM:	 .ASCIZ	%ESE - EBOX STOPPED - EXAMINE%
	001357	   040 	   055 	   040
	001362	   105 	   102 	   117
	001365	   130 	   040 	   123
	001370	   124 	   117 	   120
	001373	   120 	   105 	   104
	001376	   040 	   055 	   040
	001401	   105 	   130 	   101
	001404	   115 	   111 	   116
	001407	   105 	   000
	005614	021075 				 .RAD50	/ESE/		; "ESE" IN .RAD50
	005616	001354'				 .WORD	ESEERM		; POINTER TO MESSAGE
   7255						;
   7256	005620					NSERR$	FCF,<FILE CLOSE FAILURE>
	001411	   106 	   103 	   106 	FCFERM:	 .ASCIZ	%FCF - FILE CLOSE FAILURE%
	001414	   040 	   055 	   040
	001417	   106 	   111 	   114
	001422	   105 	   040 	   103
	001425	   114 	   117 	   123
	001430	   105 	   040 	   106
	001433	   101 	   111 	   114
	001436	   125 	   122 	   105
	001441	   000
	005620	022776 				 .RAD50	/FCF/		; "FCF" IN .RAD50
	005622	001411'				 .WORD	FCFERM		; POINTER TO MESSAGE
   7257	005624					NSERR$	FEF,<FILE EXTEND FAILURE>
	001442	   106 	   105 	   106 	FEFERM:	 .ASCIZ	%FEF - FILE EXTEND FAILURE%
	001445	   040 	   055 	   040
	001450	   106 	   111 	   114
	001453	   105 	   040 	   105
	001456	   130 	   124 	   105
	001461	   116 	   104 	   040
	001464	   106 	   101 	   111
	001467	   114 	   125 	   122
	001472	   105 	   000
	005624	023116 				 .RAD50	/FEF/		; "FEF" IN .RAD50
	005626	001442'				 .WORD	FEFERM		; POINTER TO MESSAGE
   7258	005630					NSERR$	FEN,<FILE ENTER FAILURE>
	001474	   106 	   105 	   116 	FENERM:	 .ASCIZ	%FEN - FILE ENTER FAILURE%
	001477	   040 	   055 	   040
	001502	   106 	   111 	   114
	001505	   105 	   040 	   105
	001510	   116 	   124 	   105
	001513	   122 	   040 	   106
	001516	   101 	   111 	   114
	001521	   125 	   122 	   105
	001524	   000
	005630	023126 				 .RAD50	/FEN/		; "FEN" IN .RAD50
	005632	001474'				 .WORD	FENERM		; POINTER TO MESSAGE
   7259	005634					NSERR$	FLF,<FILE LOOKUP FAILURE>
	001525	   106 	   114 	   106 	FLFERM:	 .ASCIZ	%FLF - FILE LOOKUP FAILURE%
	001530	   040 	   055 	   040
	001533	   106 	   111 	   114
	001536	   105 	   040 	   114
TABLE -- COMMAND PARSER COMMAND	MACRO M1113  10-NOV-81 17:44  PAGE 181-7
.NSETB -- NORMAL ERROR CODE TABLE 7710.11

	001541	   117 	   117 	   113
	001544	   125 	   120 	   040
	001547	   106 	   101 	   111
	001552	   114 	   125 	   122
	001555	   105 	   000
	005634	023546 				 .RAD50	/FLF/		; "FLF" IN .RAD50
	005636	001525'				 .WORD	FLFERM		; POINTER TO MESSAGE
   7260	005640					NSERR$	FOF,<FILE OPEN FAILURE>
	001557	   106 	   117 	   106 	FOFERM:	 .ASCIZ	%FOF - FILE OPEN FAILURE%
	001562	   040 	   055 	   040
	001565	   106 	   111 	   114
	001570	   105 	   040 	   117
	001573	   120 	   105 	   116
	001576	   040 	   106 	   101
	001601	   111 	   114 	   125
	001604	   122 	   105 	   000
	005640	023736 				 .RAD50	/FOF/		; "FOF" IN .RAD50
	005642	001557'				 .WORD	FOFERM		; POINTER TO MESSAGE
   7261	005644					NSERR$	FRD,<FILE READ FAILURE>
	001607	   106 	   122 	   104 	FRDERM:	 .ASCIZ	%FRD - FILE READ FAILURE%
	001612	   040 	   055 	   040
	001615	   106 	   111 	   114
	001620	   105 	   040 	   122
	001623	   105 	   101 	   104
	001626	   040 	   106 	   101
	001631	   111 	   114 	   125
	001634	   122 	   105 	   000
	005644	024124 				 .RAD50	/FRD/		; "FRD" IN .RAD50
	005646	001607'				 .WORD	FRDERM		; POINTER TO MESSAGE
   7262	005650					NSERR$	FSW,<FM SWEEP ERROR>
	001637	   106 	   123 	   127 	FSWERM:	 .ASCIZ	%FSW - FM SWEEP ERROR%
	001642	   040 	   055 	   040
	001645	   106 	   115 	   040
	001650	   123 	   127 	   105
	001653	   105 	   120 	   040
	001656	   105 	   122 	   122
	001661	   117 	   122 	   000
	005650	024217 				 .RAD50	/FSW/		; "FSW" IN .RAD50
	005652	001637'				 .WORD	FSWERM		; POINTER TO MESSAGE
   7263	005654					NSERR$	FWT,<FILE WRITE FAILURE>
	001664	   106 	   127 	   124 	FWTERM:	 .ASCIZ	%FWT - FILE WRITE FAILURE%
	001667	   040 	   055 	   040
	001672	   106 	   111 	   114
	001675	   105 	   040 	   127
	001700	   122 	   111 	   124
	001703	   105 	   040 	   106
	001706	   101 	   111 	   114
	001711	   125 	   122 	   105
	001714	   000
	005654	024454 				 .RAD50	/FWT/		; "FWT" IN .RAD50
	005656	001664'				 .WORD	FWTERM		; POINTER TO MESSAGE
   7264						;
   7265	005660					NSERR$	IDF,<ILLEGAL DATE FORMAT>
	001715	   111 	   104 	   106 	IDFERM:	 .ASCIZ	%IDF - ILLEGAL DATE FORMAT%
	001720	   040 	   055 	   040
	001723	   111 	   114 	   114
	001726	   105 	   107 	   101
TABLE -- COMMAND PARSER COMMAND	MACRO M1113  10-NOV-81 17:44  PAGE 181-8
.NSETB -- NORMAL ERROR CODE TABLE 7710.11

	001731	   114 	   040 	   104
	001734	   101 	   124 	   105
	001737	   040 	   106 	   117
	001742	   122 	   115 	   101
	001745	   124 	   000
	005660	034346 				 .RAD50	/IDF/		; "IDF" IN .RAD50
	005662	001715'				 .WORD	IDFERM		; POINTER TO MESSAGE
   7266	005664					NSERR$	IFC,<ILLEGAL FUNCTION CODE>
	001747	   111 	   106 	   103 	IFCERM:	 .ASCIZ	%IFC - ILLEGAL FUNCTION CODE%
	001752	   040 	   055 	   040
	001755	   111 	   114 	   114
	001760	   105 	   107 	   101
	001763	   114 	   040 	   106
	001766	   125 	   116 	   103
	001771	   124 	   111 	   117
	001774	   116 	   040 	   103
	001777	   117 	   104 	   105
	002002	   000
	005664	034463 				 .RAD50	/IFC/		; "IFC" IN .RAD50
	005666	001747'				 .WORD	IFCERM		; POINTER TO MESSAGE
   7267	005670					NSERR$	ILI,<ILLEGAL INSTRUCTION>
	002003	   111 	   114 	   111 	ILIERM:	 .ASCIZ	%ILI - ILLEGAL INSTRUCTION%
	002006	   040 	   055 	   040
	002011	   111 	   114 	   114
	002014	   105 	   107 	   101
	002017	   114 	   040 	   111
	002022	   116 	   123 	   124
	002025	   122 	   125 	   103
	002030	   124 	   111 	   117
	002033	   116 	   000
	005670	035051 				 .RAD50	/ILI/		; "ILI" IN .RAD50
	005672	002003'				 .WORD	ILIERM		; POINTER TO MESSAGE
   7268	005674					NSERR$	IOC,<ILLEGAL KL OPCODE>
	002035	   111 	   117 	   103 	IOCERM:	 .ASCIZ	%IOC - ILLEGAL KL OPCODE%
	002040	   040 	   055 	   040
	002043	   111 	   114 	   114
	002046	   105 	   107 	   101
	002051	   114 	   040 	   113
	002054	   114 	   040 	   117
	002057	   120 	   103 	   117
	002062	   104 	   105 	   000
	005674	035233 				 .RAD50	/IOC/		; "IOC" IN .RAD50
	005676	002035'				 .WORD	IOCERM		; POINTER TO MESSAGE
   7269	005700					NSERR$	IRC,<ILLEGAL REPEAT COUNT>
	002065	   111 	   122 	   103 	IRCERM:	 .ASCIZ	%IRC - ILLEGAL REPEAT COUNT%
	002070	   040 	   055 	   040
	002073	   111 	   114 	   114
	002076	   105 	   107 	   101
	002101	   114 	   040 	   122
	002104	   105 	   120 	   105
	002107	   101 	   124 	   040
	002112	   103 	   117 	   125
	002115	   116 	   124 	   000
	005700	035423 				 .RAD50	/IRC/		; "IRC" IN .RAD50
	005702	002065'				 .WORD	IRCERM		; POINTER TO MESSAGE
   7270	005704					NSERR$	IRE,<ILLEGAL RECURSION>
	002120	   111 	   122 	   105 	IREERM:	 .ASCIZ	%IRE - ILLEGAL RECURSION%
TABLE -- COMMAND PARSER COMMAND	MACRO M1113  10-NOV-81 17:44  PAGE 181-9
.NSETB -- NORMAL ERROR CODE TABLE 7710.11

	002123	   040 	   055 	   040
	002126	   111 	   114 	   114
	002131	   105 	   107 	   101
	002134	   114 	   040 	   122
	002137	   105 	   103 	   125
	002142	   122 	   123 	   111
	002145	   117 	   116 	   000
	005704	035425 				 .RAD50	/IRE/		; "IRE" IN .RAD50
	005706	002120'				 .WORD	IREERM		; POINTER TO MESSAGE
   7271	005710					NSERR$	ITF,<ILLEGAL TIME FORMAT>
	002150	   111 	   124 	   106 	ITFERM:	 .ASCIZ	%ITF - ILLEGAL TIME FORMAT%
	002153	   040 	   055 	   040
	002156	   111 	   114 	   114
	002161	   105 	   107 	   101
	002164	   114 	   040 	   124
	002167	   111 	   115 	   105
	002172	   040 	   106 	   117
	002175	   122 	   115 	   101
	002200	   124 	   000
	005710	035546 				 .RAD50	/ITF/		; "ITF" IN .RAD50
	005712	002150'				 .WORD	ITFERM		; POINTER TO MESSAGE
   7272	005714					NSERR$	ITN,<ILLEGAL TASK NAME>
	002202	   111 	   124 	   116 	ITNERM:	 .ASCIZ	%ITN - ILLEGAL TASK NAME%
	002205	   040 	   055 	   040
	002210	   111 	   114 	   114
	002213	   105 	   107 	   101
	002216	   114 	   040 	   124
	002221	   101 	   123 	   113
	002224	   040 	   116 	   101
	002227	   115 	   105 	   000
	005714	035556 				 .RAD50	/ITN/		; "ITN" IN .RAD50
	005716	002202'				 .WORD	ITNERM		; POINTER TO MESSAGE
   7273						;
   7274	005720					NSERR$	KCN,<KL CLOCK IS OFF>
	002232	   113 	   103 	   116 	KCNERM:	 .ASCIZ	%KCN - KL CLOCK IS OFF%
	002235	   040 	   055 	   040
	002240	   113 	   114 	   040
	002243	   103 	   114 	   117
	002246	   103 	   113 	   040
	002251	   111 	   123 	   040
	002254	   117 	   106 	   106
	002257	   000
	005720	042506 				 .RAD50	/KCN/		; "KCN" IN .RAD50
	005722	002232'				 .WORD	KCNERM		; POINTER TO MESSAGE
   7275	005724					NSERR$	KLA,<KL ADDRESS ERROR>
	002260	   113 	   114 	   101 	KLAERM:	 .ASCIZ	%KLA - KL ADDRESS ERROR%
	002263	   040 	   055 	   040
	002266	   113 	   114 	   040
	002271	   101 	   104 	   104
	002274	   122 	   105 	   123
	002277	   123 	   040 	   105
	002302	   122 	   122 	   117
	002305	   122 	   000
	005724	043241 				 .RAD50	/KLA/		; "KLA" IN .RAD50
	005726	002260'				 .WORD	KLAERM		; POINTER TO MESSAGE
   7276	005730					NSERR$	KLR,<ILLEGAL WHILE KL IS RUNNING>
	002307	   113 	   114 	   122 	KLRERM:	 .ASCIZ	%KLR - ILLEGAL WHILE KL IS RUNNING%
TABLE -- COMMAND PARSER COMMAND	MACRO M1113  10-NOV-81 17:44  PAGE 181-10
.NSETB -- NORMAL ERROR CODE TABLE 7710.11

	002312	   040 	   055 	   040
	002315	   111 	   114 	   114
	002320	   105 	   107 	   101
	002323	   114 	   040 	   127
	002326	   110 	   111 	   114
	002331	   105 	   040 	   113
	002334	   114 	   040 	   111
	002337	   123 	   040 	   122
	002342	   125 	   116 	   116
	002345	   111 	   116 	   107
	002350	   000
	005730	043262 				 .RAD50	/KLR/		; "KLR" IN .RAD50
	005732	002307'				 .WORD	KLRERM		; POINTER TO MESSAGE
   7277	005734					NSERR$	KNC,<KL IS NOT CONTINUABLE>
	002351	   113 	   116 	   103 	KNCERM:	 .ASCIZ	%KNC - KL IS NOT CONTINUABLE%
	002354	   040 	   055 	   040
	002357	   113 	   114 	   040
	002362	   111 	   123 	   040
	002365	   116 	   117 	   124
	002370	   040 	   103 	   117
	002373	   116 	   124 	   111
	002376	   116 	   125 	   101
	002401	   102 	   114 	   105
	002404	   000
	005734	043363 				 .RAD50	/KNC/		; "KNC" IN .RAD50
	005736	002351'				 .WORD	KNCERM		; POINTER TO MESSAGE
   7278	005740					NSERR$	KWE,<KLINIK WINDOW ERROR>
	002405	   113 	   127 	   105 	KWEERM:	 .ASCIZ	%KWE - KLINIK WINDOW ERROR%
	002410	   040 	   055 	   040
	002413	   113 	   114 	   111
	002416	   116 	   111 	   113
	002421	   040 	   127 	   111
	002424	   116 	   104 	   117
	002427	   127 	   040 	   105
	002432	   122 	   122 	   117
	002435	   122 	   000
	005740	044135 				 .RAD50	/KWE/		; "KWE" IN .RAD50
	005742	002405'				 .WORD	KWEERM		; POINTER TO MESSAGE
   7279						;
   7280	005744					NSERR$	MRA,<MISSING REQUIRED ARGUMENT>
	002437	   115 	   122 	   101 	MRAERM:	 .ASCIZ	%MRA - MISSING REQUIRED ARGUMENT%
	002442	   040 	   055 	   040
	002445	   115 	   111 	   123
	002450	   123 	   111 	   116
	002453	   107 	   040 	   122
	002456	   105 	   121 	   125
	002461	   111 	   122 	   105
	002464	   104 	   040 	   101
	002467	   122 	   107 	   125
	002472	   115 	   105 	   116
	002475	   124 	   000
	005744	052021 				 .RAD50	/MRA/		; "MRA" IN .RAD50
	005746	002437'				 .WORD	MRAERM		; POINTER TO MESSAGE
   7281	005750					NSERR$	MRH,<HARDWARE OPTIONS MUST BE READ>
	002477	   115 	   122 	   110 	MRHERM:	 .ASCIZ	%MRH - HARDWARE OPTIONS MUST BE READ%
	002502	   040 	   055 	   040
	002505	   110 	   101 	   122
TABLE -- COMMAND PARSER COMMAND	MACRO M1113  10-NOV-81 17:44  PAGE 181-11
.NSETB -- NORMAL ERROR CODE TABLE 7710.11

	002510	   104 	   127 	   101
	002513	   122 	   105 	   040
	002516	   117 	   120 	   124
	002521	   111 	   117 	   116
	002524	   123 	   040 	   115
	002527	   125 	   123 	   124
	002532	   040 	   102 	   105
	002535	   040 	   122 	   105
	002540	   101 	   104 	   000
	005750	052030 				 .RAD50	/MRH/		; "MRH" IN .RAD50
	005752	002477'				 .WORD	MRHERM		; POINTER TO MESSAGE
   7282						;
   7283	005754					NSERR$	NDI,<NULL DATE ILLEGAL>
	002543	   116 	   104 	   111 	NDIERM:	 .ASCIZ	%NDI - NULL DATE ILLEGAL%
	002546	   040 	   055 	   040
	002551	   116 	   125 	   114
	002554	   114 	   040 	   104
	002557	   101 	   124 	   105
	002562	   040 	   111 	   114
	002565	   114 	   105 	   107
	002570	   101 	   114 	   000
	005754	054051 				 .RAD50	/NDI/		; "NDI" IN .RAD50
	005756	002543'				 .WORD	NDIERM		; POINTER TO MESSAGE
   7284	005760					NSERR$	NER,<NUMERIC EXPRESSION REQUIRED>
	002573	   116 	   105 	   122 	NERERM:	 .ASCIZ	%NER - NUMERIC EXPRESSION REQUIRED%
	002576	   040 	   055 	   040
	002601	   116 	   125 	   115
	002604	   105 	   122 	   111
	002607	   103 	   040 	   105
	002612	   130 	   120 	   122
	002615	   105 	   123 	   123
	002620	   111 	   117 	   116
	002623	   040 	   122 	   105
	002626	   121 	   125 	   111
	002631	   122 	   105 	   104
	002634	   000
	005760	054132 				 .RAD50	/NER/		; "NER" IN .RAD50
	005762	002573'				 .WORD	NERERM		; POINTER TO MESSAGE
   7285	005764					NSERR$	NOR,<INPUT NUMBER OUT OF RANGE>
	002635	   116 	   117 	   122 	NORERM:	 .ASCIZ	%NOR - INPUT NUMBER OUT OF RANGE%
	002640	   040 	   055 	   040
	002643	   111 	   116 	   120
	002646	   125 	   124 	   040
	002651	   116 	   125 	   115
	002654	   102 	   105 	   122
	002657	   040 	   117 	   125
	002662	   124 	   040 	   117
	002665	   106 	   040 	   122
	002670	   101 	   116 	   107
	002673	   105 	   000
	005764	054752 				 .RAD50	/NOR/		; "NOR" IN .RAD50
	005766	002635'				 .WORD	NORERM		; POINTER TO MESSAGE
   7286	005770					NSERR$	NPI,<NULL PASSWORD ILLEGAL>
	002675	   116 	   120 	   111 	NPIERM:	 .ASCIZ	%NPI - NULL PASSWORD ILLEGAL%
	002700	   040 	   055 	   040
	002703	   116 	   125 	   114
	002706	   114 	   040 	   120
TABLE -- COMMAND PARSER COMMAND	MACRO M1113  10-NOV-81 17:44  PAGE 181-12
.NSETB -- NORMAL ERROR CODE TABLE 7710.11

	002711	   101 	   123 	   123
	002714	   127 	   117 	   122
	002717	   104 	   040 	   111
	002722	   114 	   114 	   105
	002725	   107 	   101 	   114
	002730	   000
	005770	055011 				 .RAD50	/NPI/		; "NPI" IN .RAD50
	005772	002675'				 .WORD	NPIERM		; POINTER TO MESSAGE
   7287	005774					NSERR$	NSF,<NO SUCH FILE>
	002731	   116 	   123 	   106 	NSFERM:	 .ASCIZ	%NSF - NO SUCH FILE%
	002734	   040 	   055 	   040
	002737	   116 	   117 	   040
	002742	   123 	   125 	   103
	002745	   110 	   040 	   106
	002750	   111 	   114 	   105
	002753	   000
	005774	055176 				 .RAD50	/NSF/		; "NSF" IN .RAD50
	005776	002731'				 .WORD	NSFERM		; POINTER TO MESSAGE
   7288	006000					NSERR$	NST,<NO SUCH TASK>
	002754	   116 	   123 	   124 	NSTERM:	 .ASCIZ	%NST - NO SUCH TASK%
	002757	   040 	   055 	   040
	002762	   116 	   117 	   040
	002765	   123 	   125 	   103
	002770	   110 	   040 	   124
	002773	   101 	   123 	   113
	002776	   000
	006000	055214 				 .RAD50	/NST/		; "NST" IN .RAD50
	006002	002754'				 .WORD	NSTERM		; POINTER TO MESSAGE
   7289	006004					NSERR$	NTI,<NULL TIME ILLEGAL>
	002777	   116 	   124 	   111 	NTIERM:	 .ASCIZ	%NTI - NULL TIME ILLEGAL%
	003002	   040 	   055 	   040
	003005	   116 	   125 	   114
	003010	   114 	   040 	   124
	003013	   111 	   115 	   105
	003016	   040 	   111 	   114
	003021	   114 	   105 	   107
	003024	   101 	   114 	   000
	006004	055251 				 .RAD50	/NTI/		; "NTI" IN .RAD50
	006006	002777'				 .WORD	NTIERM		; POINTER TO MESSAGE
   7290						;
   7291	006010					NSERR$	OAI,<ODD ADDRESS ILLEGAL>
	003027	   117 	   101 	   111 	OAIERM:	 .ASCIZ	%OAI - ODD ADDRESS ILLEGAL%
	003032	   040 	   055 	   040
	003035	   117 	   104 	   104
	003040	   040 	   101 	   104
	003043	   104 	   122 	   105
	003046	   123 	   123 	   040
	003051	   111 	   114 	   114
	003054	   105 	   107 	   101
	003057	   114 	   000
	006010	056761 				 .RAD50	/OAI/		; "OAI" IN .RAD50
	006012	003027'				 .WORD	OAIERM		; POINTER TO MESSAGE
   7292	006014					NSERR$	OFC,<ODD FUNCTION CODE>
	003061	   117 	   106 	   103 	OFCERM:	 .ASCIZ	%OFC - ODD FUNCTION CODE%
	003064	   040 	   055 	   040
	003067	   117 	   104 	   104
	003072	   040 	   106 	   125
TABLE -- COMMAND PARSER COMMAND	MACRO M1113  10-NOV-81 17:44  PAGE 181-13
.NSETB -- NORMAL ERROR CODE TABLE 7710.11

	003075	   116 	   103 	   124
	003100	   111 	   117 	   116
	003103	   040 	   103 	   117
	003106	   104 	   105 	   000
	006014	057263 				 .RAD50	/OFC/		; "OFC" IN .RAD50
	006016	003061'				 .WORD	OFCERM		; POINTER TO MESSAGE
   7293						;
   7294	006020					NSERR$	PTL,<PASSWORD TOO LONG>
	003111	   120 	   124 	   114 	PTLERM:	 .ASCIZ	%PTL - PASSWORD TOO LONG%
	003114	   040 	   055 	   040
	003117	   120 	   101 	   123
	003122	   123 	   127 	   117
	003125	   122 	   104 	   040
	003130	   124 	   117 	   117
	003133	   040 	   114 	   117
	003136	   116 	   107 	   000
	006020	063454 				 .RAD50	/PTL/		; "PTL" IN .RAD50
	006022	003111'				 .WORD	PTLERM		; POINTER TO MESSAGE
   7295						;
   7296	006024					NSERR$	RPM,<RIGHT PARENTHESES MISSING>
	003141	   122 	   120 	   115 	RPMERM:	 .ASCIZ	%RPM - RIGHT PARENTHESES MISSING%
	003144	   040 	   055 	   040
	003147	   122 	   111 	   107
	003152	   110 	   124 	   040
	003155	   120 	   101 	   122
	003160	   105 	   116 	   124
	003163	   110 	   105 	   123
	003166	   105 	   123 	   040
	003171	   115 	   111 	   123
	003174	   123 	   111 	   116
	003177	   107 	   000
	006024	071415 				 .RAD50	/RPM/		; "RPM" IN .RAD50
	006026	003141'				 .WORD	RPMERM		; POINTER TO MESSAGE
   7297						;
   7298	006030					NSERR$	SCF,<SET CLOCK FAILED>
	003201	   123 	   103 	   106 	SCFERM:	 .ASCIZ	%SCF - SET CLOCK FAILED%
	003204	   040 	   055 	   040
	003207	   123 	   105 	   124
	003212	   040 	   103 	   114
	003215	   117 	   103 	   113
	003220	   040 	   106 	   101
	003223	   111 	   114 	   105
	003226	   104 	   000
	006030	073476 				 .RAD50	/SCF/		; "SCF" IN .RAD50
	006032	003201'				 .WORD	SCFERM		; POINTER TO MESSAGE
   7299	006034					NSERR$	SKI,<SET KLINIK ILLEGAL WHILE KLINIK ACTIVE>
	003230	   123 	   113 	   111 	SKIERM:	 .ASCIZ	%SKI - SET KLINIK ILLEGAL WHILE KLINIK ACTIVE%
	003233	   040 	   055 	   040
	003236	   123 	   105 	   124
	003241	   040 	   113 	   114
	003244	   111 	   116 	   111
	003247	   113 	   040 	   111
	003252	   114 	   114 	   105
	003255	   107 	   101 	   114
	003260	   040 	   127 	   110
	003263	   111 	   114 	   105
	003266	   040 	   113 	   114
TABLE -- COMMAND PARSER COMMAND	MACRO M1113  10-NOV-81 17:44  PAGE 181-14
.NSETB -- NORMAL ERROR CODE TABLE 7710.11

	003271	   111 	   116 	   111
	003274	   113 	   040 	   101
	003277	   103 	   124 	   111
	003302	   126 	   105 	   000
	006034	074201 				 .RAD50	/SKI/		; "SKI" IN .RAD50
	006036	003230'				 .WORD	SKIERM		; POINTER TO MESSAGE
   7300	006040					NSERR$	SPF,<SET PARITY FAILED>
	003305	   123 	   120 	   106 	SPFERM:	 .ASCIZ	%SPF - SET PARITY FAILED%
	003310	   040 	   055 	   040
	003313	   123 	   105 	   124
	003316	   040 	   120 	   101
	003321	   122 	   111 	   124
	003324	   131 	   040 	   106
	003327	   101 	   111 	   114
	003332	   105 	   104 	   000
	006040	074506 				 .RAD50	/SPF/		; "SPF" IN .RAD50
	006042	003305'				 .WORD	SPFERM		; POINTER TO MESSAGE
   7301	006044					NSERR$	SZI,<START AT ZERO ILLEGAL>
	003335	   123 	   132 	   111 	SZIERM:	 .ASCIZ	%SZI - START AT ZERO ILLEGAL%
	003340	   040 	   055 	   040
	003343	   123 	   124 	   101
	003346	   122 	   124 	   040
	003351	   101 	   124 	   040
	003354	   132 	   105 	   122
	003357	   117 	   040 	   111
	003362	   114 	   114 	   105
	003365	   107 	   101 	   114
	003370	   000
	006044	075331 				 .RAD50	/SZI/		; "SZI" IN .RAD50
	006046	003335'				 .WORD	SZIERM		; POINTER TO MESSAGE
   7302						;
   7303	006050					NSERR$	TAA,<TASK IS ALREADY ACTIVE>
	003371	   124 	   101 	   101 	TAAERM:	 .ASCIZ	%TAA - TASK IS ALREADY ACTIVE%
	003374	   040 	   055 	   040
	003377	   124 	   101 	   123
	003402	   113 	   040 	   111
	003405	   123 	   040 	   101
	003410	   114 	   122 	   105
	003413	   101 	   104 	   131
	003416	   040 	   101 	   103
	003421	   124 	   111 	   126
	003424	   105 	   000
	006050	076451 				 .RAD50	/TAA/		; "TAA" IN .RAD50
	006052	003371'				 .WORD	TAAERM		; POINTER TO MESSAGE
   7304	006054					NSERR$	TOR,<TIME OUT OF RANGE>
	003426	   124 	   117 	   122 	TORERM:	 .ASCIZ	%TOR - TIME OUT OF RANGE%
	003431	   040 	   055 	   040
	003434	   124 	   111 	   115
	003437	   105 	   040 	   117
	003442	   125 	   124 	   040
	003445	   117 	   106 	   040
	003450	   122 	   101 	   116
	003453	   107 	   105 	   000
	006054	077552 				 .RAD50	/TOR/		; "TOR" IN .RAD50
	006056	003426'				 .WORD	TORERM		; POINTER TO MESSAGE
   7305						;
   7306	006060					NSERR$	UNL,<KL MICROCODE NOT LOADED>
TABLE -- COMMAND PARSER COMMAND	MACRO M1113  10-NOV-81 17:44  PAGE 181-15
.NSETB -- NORMAL ERROR CODE TABLE 7710.11

	003456	   125 	   116 	   114 	UNLERM:	 .ASCIZ	%UNL - KL MICROCODE NOT LOADED%
	003461	   040 	   055 	   040
	003464	   113 	   114 	   040
	003467	   115 	   111 	   103
	003472	   122 	   117 	   103
	003475	   117 	   104 	   105
	003500	   040 	   116 	   117
	003503	   124 	   040 	   114
	003506	   117 	   101 	   104
	003511	   105 	   104 	   000
	006060	102574 				 .RAD50	/UNL/		; "UNL" IN .RAD50
	006062	003456'				 .WORD	UNLERM		; POINTER TO MESSAGE
   7307						;
   7308	006064					NSERR$	VFY,<DEPOSIT VERIFY FAILED>
	003514	   126 	   106 	   131 	VFYERM:	 .ASCIZ	%VFY - DEPOSIT VERIFY FAILED%
	003517	   040 	   055 	   040
	003522	   104 	   105 	   120
	003525	   117 	   123 	   111
	003530	   124 	   040 	   126
	003533	   105 	   122 	   111
	003536	   106 	   131 	   040
	003541	   106 	   101 	   111
	003544	   114 	   105 	   104
	003547	   000
	006064	105211 				 .RAD50	/VFY/		; "VFY" IN .RAD50
	006066	003514'				 .WORD	VFYERM		; POINTER TO MESSAGE
   7309						;
   7310	006070					NSERR$	WRM,<COMMAND NOT AVAILABLE IN THIS CONSOLE MODE>
	003550	   127 	   122 	   115 	WRMERM:	 .ASCIZ	%WRM - COMMAND NOT AVAILABLE IN THIS CONSOLE MODE%
	003553	   040 	   055 	   040
	003556	   103 	   117 	   115
	003561	   115 	   101 	   116
	003564	   104 	   040 	   116
	003567	   117 	   124 	   040
	003572	   101 	   126 	   101
	003575	   111 	   114 	   101
	003600	   102 	   114 	   105
	003603	   040 	   111 	   116
	003606	   040 	   124 	   110
	003611	   111 	   123 	   040
	003614	   103 	   117 	   116
	003617	   123 	   117 	   114
	003622	   105 	   040 	   115
	003625	   117 	   104 	   105
	003630	   000
	006070	111235 				 .RAD50	/WRM/		; "WRM" IN .RAD50
	006072	003550'				 .WORD	WRMERM		; POINTER TO MESSAGE
   7311						;
   7312	006074					NSERR$	YOR,<YEAR OUT OF RANGE>
	003631	   131 	   117 	   122 	YORERM:	 .ASCIZ	%YOR - YEAR OUT OF RANGE%
	003634	   040 	   055 	   040
	003637	   131 	   105 	   101
	003642	   122 	   040 	   117
	003645	   125 	   124 	   040
	003650	   117 	   106 	   040
	003653	   122 	   101 	   116
	003656	   107 	   105 	   000
TABLE -- COMMAND PARSER COMMAND	MACRO M1113  10-NOV-81 17:44  PAGE 181-16
.NSETB -- NORMAL ERROR CODE TABLE 7710.11

	006074	117252 				 .RAD50	/YOR/		; "YOR" IN .RAD50
	006076	003631'				 .WORD	YORERM		; POINTER TO MESSAGE
   7313						;
   7314	006100					NSERR$	XTO,<KL EXECUTE TIMED OUT>
	003661	   130 	   124 	   117 	XTOERM:	 .ASCIZ	%XTO - KL EXECUTE TIMED OUT%
	003664	   040 	   055 	   040
	003667	   113 	   114 	   040
	003672	   105 	   130 	   105
	003675	   103 	   125 	   124
	003700	   105 	   040 	   124
	003703	   111 	   115 	   105
	003706	   104 	   040 	   117
	003711	   125 	   124 	   000
	006100	114457 				 .RAD50	/XTO/		; "XTO" IN .RAD50
	006102	003661'				 .WORD	XTOERM		; POINTER TO MESSAGE
   7315						;
   7316	006104	000000 				.WORD	0		; END OF TABLE MARKER
TABLE -- COMMAND PARSER COMMAND	MACRO M1113  10-NOV-81 17:44  PAGE 182
.RESTB -- THE RESET COMMAND TABLE 7602.18

   7318					.SBTTL	.RESTB -- THE RESET COMMAND TABLE 7602.18
   7319
   7320	006106				.RESTB::
   7321	006106					COMND$	ALL,<LG.PRG!LG.RPT>,.RSALL,ALL
	001342	   101 	   114 	   114 	ALLMSG:: .ASCIZ	%ALL%
	001345	   000
	006106	001342'				 .WORD	ALLMSG		; POINTER TO "ALL" SYMBOL
	006110	000402 				 .WORD	LG.PRG!LG.RPT		; LEGAL BITS
	006112	000000G				 .WORD	.RSALL		; ROUTINE TO CALL OR DATA
   7322					;
   7323	006114					COMND$	APR,<LG.PRG!LG.RPT>,.RSAPR,CPU
	001346	   101 	   120 	   122 	CPUMSG:: .ASCIZ	%APR%
	001351	   000
	006114	001346'				 .WORD	CPUMSG		; POINTER TO "APR" SYMBOL
	006116	000402 				 .WORD	LG.PRG!LG.RPT		; LEGAL BITS
	006120	000000G				 .WORD	.RSAPR		; ROUTINE TO CALL OR DATA
   7324					;
   7325	006122					COMND$	DTE-20,<LG.PRG!LG.RPT>,.RSDTE,DTE
	006122	001060'				 .WORD	DTEMSG		; POINTER TO "DTE-20" SYMBOL
	006124	000402 				 .WORD	LG.PRG!LG.RPT		; LEGAL BITS
	006126	000000G				 .WORD	.RSDTE		; ROUTINE TO CALL OR DATA
   7326					;
   7327	006130					COMND$	ERROR,<LG.RPT!LG.PRG>,.RSERR,ERR
	001352	   105 	   122 	   122 	ERRMSG:: .ASCIZ	%ERROR%
	001355	   117 	   122 	   000
	006130	001352'				 .WORD	ERRMSG		; POINTER TO "ERROR" SYMBOL
	006132	000402 				 .WORD	LG.RPT!LG.PRG		; LEGAL BITS
	006134	000000G				 .WORD	.RSERR		; ROUTINE TO CALL OR DATA
   7328					;
   7329	006136					COMND$	INITIALIZE,<LG.PRG!LG.RPT>,.RSTIN,INI
	006136	000474'				 .WORD	INIMSG		; POINTER TO "INITIALIZE" SYMBOL
	006140	000402 				 .WORD	LG.PRG!LG.RPT		; LEGAL BITS
	006142	000000G				 .WORD	.RSTIN		; ROUTINE TO CALL OR DATA
   7330					;
   7331	006144					COMND$	IO,<LG.PRG!LG.RPT>,.RSTIO,IO
	001360	   111 	   117 	   000 	IOMSG:: .ASCIZ	%IO%
	006144	001360'				 .WORD	IOMSG		; POINTER TO "IO" SYMBOL
	006146	000402 				 .WORD	LG.PRG!LG.RPT		; LEGAL BITS
	006150	000000G				 .WORD	.RSTIO		; ROUTINE TO CALL OR DATA
   7332					;
   7333	006152					COMND$	PAG,<LG.PRG!LG.RPT>,.RSPAG,PAG
	001363	   120 	   101 	   107 	PAGMSG:: .ASCIZ	%PAG%
	001366	   000
	006152	001363'				 .WORD	PAGMSG		; POINTER TO "PAG" SYMBOL
	006154	000402 				 .WORD	LG.PRG!LG.RPT		; LEGAL BITS
	006156	000000G				 .WORD	.RSPAG		; ROUTINE TO CALL OR DATA
   7334					;
   7335	006160					COMND$	PI,<LG.PRG!LG.RPT>,.RSTPI,PI
	006160	001103'				 .WORD	PIMSG		; POINTER TO "PI" SYMBOL
	006162	000402 				 .WORD	LG.PRG!LG.RPT		; LEGAL BITS
	006164	000000G				 .WORD	.RSTPI		; ROUTINE TO CALL OR DATA
   7336					;
   7337	006166	000000 				.WORD	0		; END OF TABLE MARKER
TABLE -- COMMAND PARSER COMMAND	MACRO M1113  10-NOV-81 17:44  PAGE 183
.SCCTB -- THE "SET / CLEAR CLOCK" COMMAND TABLE 7603.12

   7339					.SBTTL	.SCCTB -- THE "SET / CLEAR CLOCK" COMMAND TABLE 7603.12
   7340
   7341	006170				.SCCTB::
   7342	006170					COMND$	NORMAL,<LG.MNT!LG.RPT>,.SCCLN,NRM
	001367	   116 	   117 	   122 	NRMMSG:: .ASCIZ	%NORMAL%
	001372	   115 	   101 	   114
	001375	   000
	006170	001367'				 .WORD	NRMMSG		; POINTER TO "NORMAL" SYMBOL
	006172	000404 				 .WORD	LG.MNT!LG.RPT		; LEGAL BITS
	006174	000000G				 .WORD	.SCCLN		; ROUTINE TO CALL OR DATA
   7343					;
   7344	006176					COMND$	CRAM,<LG.MNT!LG.RPT>,.SCCEC,CRM
	001376	   103 	   122 	   101 	CRMMSG:: .ASCIZ	%CRAM%
	001401	   115 	   000
	006176	001376'				 .WORD	CRMMSG		; POINTER TO "CRAM" SYMBOL
	006200	000404 				 .WORD	LG.MNT!LG.RPT		; LEGAL BITS
	006202	000000G				 .WORD	.SCCEC		; ROUTINE TO CALL OR DATA
   7345					;
   7346	006204					COMND$	DATA-PATH,<LG.MNT!LG.RPT>,.SCCED,DPT
	001403	   104 	   101 	   124 	DPTMSG:: .ASCIZ	%DATA-PATH%
	001406	   101 	   055 	   120
	001411	   101 	   124 	   110
	001414	   000
	006204	001403'				 .WORD	DPTMSG		; POINTER TO "DATA-PATH" SYMBOL
	006206	000404 				 .WORD	LG.MNT!LG.RPT		; LEGAL BITS
	006210	000000G				 .WORD	.SCCED		; ROUTINE TO CALL OR DATA
   7347					;
   7348	006212					COMND$	CONTROL,<LG.MNT!LG.RPT>,.SCCEE,CTL
	001415	   103 	   117 	   116 	CTLMSG:: .ASCIZ	%CONTROL%
	001420	   124 	   122 	   117
	001423	   114 	   000
	006212	001415'				 .WORD	CTLMSG		; POINTER TO "CONTROL" SYMBOL
	006214	000404 				 .WORD	LG.MNT!LG.RPT		; LEGAL BITS
	006216	000000G				 .WORD	.SCCEE		; ROUTINE TO CALL OR DATA
   7349					;
   7350	006220					COMND$	EXTERNAL,<LG.MNT!LG.RPT>,.SCCSE,EXT
	001425	   105 	   130 	   124 	EXTMSG:: .ASCIZ	%EXTERNAL%
	001430	   105 	   122 	   116
	001433	   101 	   114 	   000
	006220	001425'				 .WORD	EXTMSG		; POINTER TO "EXTERNAL" SYMBOL
	006222	000404 				 .WORD	LG.MNT!LG.RPT		; LEGAL BITS
	006224	000000G				 .WORD	.SCCSE		; ROUTINE TO CALL OR DATA
   7351					;
   7352	006226					COMND$	INTERNAL,<LG.MNT!LG.RPT>,.SCCSI,INT
	001436	   111 	   116 	   124 	INTMSG:: .ASCIZ	%INTERNAL%
	001441	   105 	   122 	   116
	001444	   101 	   114 	   000
	006226	001436'				 .WORD	INTMSG		; POINTER TO "INTERNAL" SYMBOL
	006230	000404 				 .WORD	LG.MNT!LG.RPT		; LEGAL BITS
	006232	000000G				 .WORD	.SCCSI		; ROUTINE TO CALL OR DATA
   7353					;
   7354	006234					COMND$	MARGIN,<LG.MNT!LG.RPT>,.SCCSM,MGN
	001447	   115 	   101 	   122 	MGNMSG:: .ASCIZ	%MARGIN%
	001452	   107 	   111 	   116
	001455	   000
	006234	001447'				 .WORD	MGNMSG		; POINTER TO "MARGIN" SYMBOL
	006236	000404 				 .WORD	LG.MNT!LG.RPT		; LEGAL BITS
TABLE -- COMMAND PARSER COMMAND	MACRO M1113  10-NOV-81 17:44  PAGE 183-1
.SCCTB -- THE "SET / CLEAR CLOCK" COMMAND TABLE 7603.12

	006240	000000G				 .WORD	.SCCSM		; ROUTINE TO CALL OR DATA
   7355					;
   7356	006242					COMND$	FULL,<LG.MNT!LG.RPT>,.SCCRF,FUL
	001456	   106 	   125 	   114 	FULMSG:: .ASCIZ	%FULL%
	001461	   114 	   000
	006242	001456'				 .WORD	FULMSG		; POINTER TO "FULL" SYMBOL
	006244	000404 				 .WORD	LG.MNT!LG.RPT		; LEGAL BITS
	006246	000000G				 .WORD	.SCCRF		; ROUTINE TO CALL OR DATA
   7357					;
   7358	006250					COMND$	HALF,<LG.MNT!LG.RPT>,.SCCRH,HLF
	001463	   110 	   101 	   114 	HLFMSG:: .ASCIZ	%HALF%
	001466	   106 	   000
	006250	001463'				 .WORD	HLFMSG		; POINTER TO "HALF" SYMBOL
	006252	000404 				 .WORD	LG.MNT!LG.RPT		; LEGAL BITS
	006254	000000G				 .WORD	.SCCRH		; ROUTINE TO CALL OR DATA
   7359					;
   7360	006256					COMND$	QUARTER,<LG.MNT!LG.RPT>,.SCCRQ,QTR
	001470	   121 	   125 	   101 	QTRMSG:: .ASCIZ	%QUARTER%
	001473	   122 	   124 	   105
	001476	   122 	   000
	006256	001470'				 .WORD	QTRMSG		; POINTER TO "QUARTER" SYMBOL
	006260	000404 				 .WORD	LG.MNT!LG.RPT		; LEGAL BITS
	006262	000000G				 .WORD	.SCCRQ		; ROUTINE TO CALL OR DATA
   7361					;
   7362	006264					COMND$	SLOW,<LG.MNT!LG.RPT>,.SCCRS,SLO
	001500	   123 	   114 	   117 	SLOMSG:: .ASCIZ	%SLOW%
	001503	   127 	   000
	006264	001500'				 .WORD	SLOMSG		; POINTER TO "SLOW" SYMBOL
	006266	000404 				 .WORD	LG.MNT!LG.RPT		; LEGAL BITS
	006270	000000G				 .WORD	.SCCRS		; ROUTINE TO CALL OR DATA
   7363					;
   7364	006272	000000 				.WORD	0		; END OF TABLE MARKER
TABLE -- COMMAND PARSER COMMAND	MACRO M1113  10-NOV-81 17:44  PAGE 184
.SCMTB -- THE "SET / CLEAR MEMORY" COMMAND TABLE 7603.18

   7366					.SBTTL	.SCMTB -- THE "SET / CLEAR MEMORY" COMMAND TABLE 7603.18
   7367
   7368	006274				.SCMTB::
   7369	006274					COMND$	ELEVEN,LG.OPR,.SCMEL,ELE
	006274	000756'				 .WORD	ELEMSG		; POINTER TO "ELEVEN" SYMBOL
	006276	000001 				 .WORD	LG.OPR		; LEGAL BITS
	006300	000000G				 .WORD	.SCMEL		; ROUTINE TO CALL OR DATA
   7370					;
   7371	006302					COMND$	TEN,LG.OPR,.SCMKL,TEN
	006302	000765'				 .WORD	TENMSG		; POINTER TO "TEN" SYMBOL
	006304	000001 				 .WORD	LG.OPR		; LEGAL BITS
	006306	000000G				 .WORD	.SCMKL		; ROUTINE TO CALL OR DATA
   7372					;
   7373	006310	000000 				.WORD	0		; END OF TABLE MARKER
TABLE -- COMMAND PARSER COMMAND	MACRO M1113  10-NOV-81 17:44  PAGE 185
.SCCOT -- THE "SET CONSOLE" COMMAND TABLE 7602.12

   7375					.SBTTL	.SCCOT -- THE "SET CONSOLE" COMMAND TABLE 7602.12
   7376
   7377	006312				.SCCOT::
   7378	006312					COMND$	MAINTENANCE,LG.OPR,.SCCOM,MNT
	006312	001140'				 .WORD	MNTMSG		; POINTER TO "MAINTENANCE" SYMBOL
	006314	000001 				 .WORD	LG.OPR		; LEGAL BITS
	006316	000000G				 .WORD	.SCCOM		; ROUTINE TO CALL OR DATA
   7379					;
   7380	006320					COMND$	OPERATOR,LG.OPR,.SCCOO,OPR
	006320	001154'				 .WORD	OPRMSG		; POINTER TO "OPERATOR" SYMBOL
	006322	000001 				 .WORD	LG.OPR		; LEGAL BITS
	006324	000000G				 .WORD	.SCCOO		; ROUTINE TO CALL OR DATA
   7381					;
   7382	006326					COMND$	PROGRAMMER,LG.OPR,.SCCOP,PRG
	006326	001165'				 .WORD	PRGMSG		; POINTER TO "PROGRAMMER" SYMBOL
	006330	000001 				 .WORD	LG.OPR		; LEGAL BITS
	006332	000000G				 .WORD	.SCCOP		; ROUTINE TO CALL OR DATA
   7383					;
   7384	006334					COMND$	USER,LG.OPR,.SCCOU,USR
	006334	001207'				 .WORD	USRMSG		; POINTER TO "USER" SYMBOL
	006336	000001 				 .WORD	LG.OPR		; LEGAL BITS
	006340	000000G				 .WORD	.SCCOU		; ROUTINE TO CALL OR DATA
   7385					;
   7386	006342	000000 				.WORD	0		; END OF TABLE MARKER
TABLE -- COMMAND PARSER COMMAND	MACRO M1113  10-NOV-81 17:44  PAGE 186
.SCOTT -- THE "SET OUTPUT" COMMAND TABLE

   7388					.SBTTL	.SCOTT -- THE "SET OUTPUT" COMMAND TABLE
   7389
   7390	006344				.SCOTT::
   7391	006344					COMND$	LOG,LG.OPR,.SCOTL,LOG
	001505	   114 	   117 	   107 	LOGMSG:: .ASCIZ	%LOG%
	001510	   000
	006344	001505'				 .WORD	LOGMSG		; POINTER TO "LOG" SYMBOL
	006346	000001 				 .WORD	LG.OPR		; LEGAL BITS
	006350	000000G				 .WORD	.SCOTL		; ROUTINE TO CALL OR DATA
   7392					;
   7393	006352					COMND$	LPT,LG.OPR,.SCOTP,LPT
	001511	   114 	   120 	   124 	LPTMSG:: .ASCIZ	%LPT%
	001514	   000
	006352	001511'				 .WORD	LPTMSG		; POINTER TO "LPT" SYMBOL
	006354	000001 				 .WORD	LG.OPR		; LEGAL BITS
	006356	000000G				 .WORD	.SCOTP		; ROUTINE TO CALL OR DATA
   7394					;
   7395	006360					COMND$	TTY,LG.OPR,.SCOTY,TTY
	001515	   124 	   124 	   131 	TTYMSG:: .ASCIZ	%TTY%
	001520	   000
	006360	001515'				 .WORD	TTYMSG		; POINTER TO "TTY" SYMBOL
	006362	000001 				 .WORD	LG.OPR		; LEGAL BITS
	006364	000000G				 .WORD	.SCOTY		; ROUTINE TO CALL OR DATA
   7396					;
   7397	006366	000000 				.WORD	0		; END OF TABLE MARKER
TABLE -- COMMAND PARSER COMMAND	MACRO M1113  10-NOV-81 17:44  PAGE 187
.SCPTB -- THE SET / CLEAR "PARITY-STOP" TABLE 7603.10

   7399					.SBTTL	.SCPTB -- THE SET / CLEAR "PARITY-STOP" TABLE 7603.10
   7400
   7401	006370				.SCPTB::
   7402	006370					COMND$	ALL,LG.MNT,.SCPAL,ALL
	006370	001342'				 .WORD	ALLMSG		; POINTER TO "ALL" SYMBOL
	006372	000004 				 .WORD	LG.MNT		; LEGAL BITS
	006374	000000G				 .WORD	.SCPAL		; ROUTINE TO CALL OR DATA
   7403					;
   7404	006376					COMND$	AR,LG.MNT,.SCPAR,AR
	006376	000753'				 .WORD	ARMSG		; POINTER TO "AR" SYMBOL
	006400	000004 				 .WORD	LG.MNT		; LEGAL BITS
	006402	000000G				 .WORD	.SCPAR		; ROUTINE TO CALL OR DATA
   7405					;
   7406	006404					COMND$	CRAM,LG.MNT,.SCPCR,CRM
	006404	001376'				 .WORD	CRMMSG		; POINTER TO "CRAM" SYMBOL
	006406	000004 				 .WORD	LG.MNT		; LEGAL BITS
	006410	000000G				 .WORD	.SCPCR		; ROUTINE TO CALL OR DATA
   7407					;
   7408	006412					COMND$	DRAM,LG.MNT,.SCPDR,DRM
	001521	   104 	   122 	   101 	DRMMSG:: .ASCIZ	%DRAM%
	001524	   115 	   000
	006412	001521'				 .WORD	DRMMSG		; POINTER TO "DRAM" SYMBOL
	006414	000004 				 .WORD	LG.MNT		; LEGAL BITS
	006416	000000G				 .WORD	.SCPDR		; ROUTINE TO CALL OR DATA
   7409					;
   7410	006420					COMND$	ENABLE,LG.MNT,.SCPEN,ENB
	001526	   105 	   116 	   101 	ENBMSG:: .ASCIZ	%ENABLE%
	001531	   102 	   114 	   105
	001534	   000
	006420	001526'				 .WORD	ENBMSG		; POINTER TO "ENABLE" SYMBOL
	006422	000004 				 .WORD	LG.MNT		; LEGAL BITS
	006424	000000G				 .WORD	.SCPEN		; ROUTINE TO CALL OR DATA
   7411					;
   7412	006426					COMND$	FM,LG.MNT,.SCPFM,FM
	006426	001020'				 .WORD	FMMSG		; POINTER TO "FM" SYMBOL
	006430	000004 				 .WORD	LG.MNT		; LEGAL BITS
	006432	000000G				 .WORD	.SCPFM		; ROUTINE TO CALL OR DATA
   7413					;
   7414	006434					COMND$	FS-STOP,LG.MNT,.SCPFS,FSS
	001535	   106 	   123 	   055 	FSSMSG:: .ASCIZ	%FS-STOP%
	001540	   123 	   124 	   117
	001543	   120 	   000
	006434	001535'				 .WORD	FSSMSG		; POINTER TO "FS-STOP" SYMBOL
	006436	000004 				 .WORD	LG.MNT		; LEGAL BITS
	006440	000000G				 .WORD	.SCPFS		; ROUTINE TO CALL OR DATA
   7415					;
   7416	006442	000000 				.WORD	0		; END OF TABLE MARKER
TABLE -- COMMAND PARSER COMMAND	MACRO M1113  10-NOV-81 17:44  PAGE 188
.SETTB -- THE SET / CLEAR COMMAND TABLE 7703.25

   7418					.SBTTL	.SETTB -- THE SET / CLEAR COMMAND TABLE 7703.25
   7419
   7420	006444				.SETTB::
   7421	006444					COMND$	AC-BLOCK,<LG.MNT>,.SCACB,ACB
	001545	   101 	   103 	   055 	ACBMSG:: .ASCIZ	%AC-BLOCK%
	001550	   102 	   114 	   117
	001553	   103 	   113 	   000
	006444	001545'				 .WORD	ACBMSG		; POINTER TO "AC-BLOCK" SYMBOL
	006446	000004 				 .WORD	LG.MNT		; LEGAL BITS
	006450	000000G				 .WORD	.SCACB		; ROUTINE TO CALL OR DATA
   7422					;
   7423	006452					COMND$	AUTO-TAKE,LG.OPR,.SCTAK,AUT
	001556	   101 	   125 	   124 	AUTMSG:: .ASCIZ	%AUTO-TAKE%
	001561	   117 	   055 	   124
	001564	   101 	   113 	   105
	001567	   000
	006452	001556'				 .WORD	AUTMSG		; POINTER TO "AUTO-TAKE" SYMBOL
	006454	000001 				 .WORD	LG.OPR		; LEGAL BITS
	006456	000000G				 .WORD	.SCTAK		; ROUTINE TO CALL OR DATA
   7424					;
   7425	006460					COMND$	CLOCK,<LG.MNT!LG.RPT>,.SCCLK,CLK
	001570	   103 	   114 	   117 	CLKMSG:: .ASCIZ	%CLOCK%
	001573	   103 	   113 	   000
	006460	001570'				 .WORD	CLKMSG		; POINTER TO "CLOCK" SYMBOL
	006462	000404 				 .WORD	LG.MNT!LG.RPT		; LEGAL BITS
	006464	000000G				 .WORD	.SCCLK		; ROUTINE TO CALL OR DATA
   7426					;
   7427	006466					COMND$	CONSOLE,LG.OPR,.SCCON,CON
	001576	   103 	   117 	   116 	CONMSG:: .ASCIZ	%CONSOLE%
	001601	   123 	   117 	   114
	001604	   105 	   000
	006466	001576'				 .WORD	CONMSG		; POINTER TO "CONSOLE" SYMBOL
	006470	000001 				 .WORD	LG.OPR		; LEGAL BITS
	006472	000000G				 .WORD	.SCCON		; ROUTINE TO CALL OR DATA
   7428					;
   7429	006474					COMND$	DATE,LG.PRG,.SCDAT,DAT
	001606	   104 	   101 	   124 	DATMSG:: .ASCIZ	%DATE%
	001611	   105 	   000
	006474	001606'				 .WORD	DATMSG		; POINTER TO "DATE" SYMBOL
	006476	000002 				 .WORD	LG.PRG		; LEGAL BITS
	006500	000000G				 .WORD	.SCDAT		; ROUTINE TO CALL OR DATA
   7430					;
   7431	006502					COMND$	FAULT-CONTINUE,LG.PRG,.SFREC,FLT
	001613	   106 	   101 	   125 	FLTMSG:: .ASCIZ	%FAULT-CONTINUE%
	001616	   114 	   124 	   055
	001621	   103 	   117 	   116
	001624	   124 	   111 	   116
	001627	   125 	   105 	   000
	006502	001613'				 .WORD	FLTMSG		; POINTER TO "FAULT-CONTINUE" SYMBOL
	006504	000002 				 .WORD	LG.PRG		; LEGAL BITS
	006506	000000G				 .WORD	.SFREC		; ROUTINE TO CALL OR DATA
   7432					;
   7433	006510					COMND$	FS-STOP,<LG.MNT!LG.RPT>,.SCFSS,FSS
	006510	001535'				 .WORD	FSSMSG		; POINTER TO "FS-STOP" SYMBOL
	006512	000404 				 .WORD	LG.MNT!LG.RPT		; LEGAL BITS
	006514	000000G				 .WORD	.SCFSS		; ROUTINE TO CALL OR DATA
   7434					;
TABLE -- COMMAND PARSER COMMAND	MACRO M1113  10-NOV-81 17:44  PAGE 188-1
.SETTB -- THE SET / CLEAR COMMAND TABLE 7703.25

   7435	006516					COMND$	INCREMENT,LG.OPR,.SCINC,INC
	006516	000716'				 .WORD	INCMSG		; POINTER TO "INCREMENT" SYMBOL
	006520	000001 				 .WORD	LG.OPR		; LEGAL BITS
	006522	000000G				 .WORD	.SCINC		; ROUTINE TO CALL OR DATA
   7436					;
   7437	006524					COMND$	KLINIK,LG.ALL,.SCKLN,KLI
	001632	   113 	   114 	   111 	KLIMSG:: .ASCIZ	%KLINIK%
	001635	   116 	   111 	   113
	001640	   000
	006524	001632'				 .WORD	KLIMSG		; POINTER TO "KLINIK" SYMBOL
	006526	000007 				 .WORD	LG.ALL		; LEGAL BITS
	006530	000000G				 .WORD	.SCKLN		; ROUTINE TO CALL OR DATA
   7438					;
   7439	006532					COMND$	MEMORY,LG.OPR,.SCMEM,MEM
	001641	   115 	   105 	   115 	MEMMSG:: .ASCIZ	%MEMORY%
	001644	   117 	   122 	   131
	001647	   000
	006532	001641'				 .WORD	MEMMSG		; POINTER TO "MEMORY" SYMBOL
	006534	000001 				 .WORD	LG.OPR		; LEGAL BITS
	006536	000000G				 .WORD	.SCMEM		; ROUTINE TO CALL OR DATA
   7440					;
   7441	006540					COMND$	NOT,<LG.OPR!LG.RPT>,.SCNOT,NOT
	001650	   116 	   117 	   124 	NOTMSG:: .ASCIZ	%NOT%
	001653	   000
	006540	001650'				 .WORD	NOTMSG		; POINTER TO "NOT" SYMBOL
	006542	000401 				 .WORD	LG.OPR!LG.RPT		; LEGAL BITS
	006544	000000G				 .WORD	.SCNOT		; ROUTINE TO CALL OR DATA
   7442					;
   7443	006546					COMND$	OFFSET,LG.PRG,.SCOFS,OFS
	001654	   117 	   106 	   106 	OFSMSG:: .ASCIZ	%OFFSET%
	001657	   123 	   105 	   124
	001662	   000
	006546	001654'				 .WORD	OFSMSG		; POINTER TO "OFFSET" SYMBOL
	006550	000002 				 .WORD	LG.PRG		; LEGAL BITS
	006552	000000G				 .WORD	.SCOFS		; ROUTINE TO CALL OR DATA
   7444					;
   7445	006554					COMND$	OUTPUT,LG.OPR,.SCOUT,OUT
	001663	   117 	   125 	   124 	OUTMSG:: .ASCIZ	%OUTPUT%
	001666	   120 	   125 	   124
	001671	   000
	006554	001663'				 .WORD	OUTMSG		; POINTER TO "OUTPUT" SYMBOL
	006556	000001 				 .WORD	LG.OPR		; LEGAL BITS
	006560	000000G				 .WORD	.SCOUT		; ROUTINE TO CALL OR DATA
   7446					;
   7447	006562					COMND$	PARITY-STOP,<LG.MNT!LG.RPT>,.SCPST,PST
	001672	   120 	   101 	   122 	PSTMSG:: .ASCIZ	%PARITY-STOP%
	001675	   111 	   124 	   131
	001700	   055 	   123 	   124
	001703	   117 	   120 	   000
	006562	001672'				 .WORD	PSTMSG		; POINTER TO "PARITY-STOP" SYMBOL
	006564	000404 				 .WORD	LG.MNT!LG.RPT		; LEGAL BITS
	006566	000000G				 .WORD	.SCPST		; ROUTINE TO CALL OR DATA
   7448					;
   7449	006570					COMND$	RELOAD,LG.PRG,.SCRLD,RLD
	001706	   122 	   105 	   114 	RLDMSG:: .ASCIZ	%RELOAD%
	001711	   117 	   101 	   104
	001714	   000
TABLE -- COMMAND PARSER COMMAND	MACRO M1113  10-NOV-81 17:44  PAGE 188-2
.SETTB -- THE SET / CLEAR COMMAND TABLE 7703.25

	006570	001706'				 .WORD	RLDMSG		; POINTER TO "RELOAD" SYMBOL
	006572	000002 				 .WORD	LG.PRG		; LEGAL BITS
	006574	000000G				 .WORD	.SCRLD		; ROUTINE TO CALL OR DATA
   7450					;
   7451	006576					COMND$	REPEAT,LG.OPR,.SCRPT,RPT
	006576	000543'				 .WORD	RPTMSG		; POINTER TO "REPEAT" SYMBOL
	006600	000001 				 .WORD	LG.OPR		; LEGAL BITS
	006602	000000G				 .WORD	.SCRPT		; ROUTINE TO CALL OR DATA
   7452					;
   7453	006604					COMND$	RETRY,<LG.PRG!LG.MNT>,.SCRTY,RTY
	001715	   122 	   105 	   124 	RTYMSG:: .ASCIZ	%RETRY%
	001720	   122 	   131 	   000
	006604	001715'				 .WORD	RTYMSG		; POINTER TO "RETRY" SYMBOL
	006606	000006 				 .WORD	LG.PRG!LG.MNT		; LEGAL BITS
	006610	000000G				 .WORD	.SCRTY		; ROUTINE TO CALL OR DATA
   7454					;
   7456	006612					COMND$	TRACKS,LG.PRG,.SCTRK,TRK
	001723	   124 	   122 	   101 	TRKMSG:: .ASCIZ	%TRACKS%
	001726	   103 	   113 	   123
	001731	   000
	006612	001723'				 .WORD	TRKMSG		; POINTER TO "TRACKS" SYMBOL
	006614	000002 				 .WORD	LG.PRG		; LEGAL BITS
	006616	000000G				 .WORD	.SCTRK		; ROUTINE TO CALL OR DATA
   7457					;
   7459	006620	000000 				.WORD	0		; END OF TABLE MARKER
TABLE -- COMMAND PARSER COMMAND	MACRO M1113  10-NOV-81 17:44  PAGE 189
.SPETB -- SPECIAL ERROR CODE TABLE 7702.16

   7461					.SBTTL	.SPETB -- SPECIAL ERROR CODE TABLE 7702.16
   7462
   7463	006622				.SPETB::
   7464	006622					SPERR$	AMB,<AMBIGUOUS KEYWORD ">
	003714	   101 	   115 	   102 		 .ASCIZ	%AMB - AMBIGUOUS KEYWORD "%
	003717	   040 	   055 	   040
	003722	   101 	   115 	   102
	003725	   111 	   107 	   125
	003730	   117 	   125 	   123
	003733	   040 	   113 	   105
	003736	   131 	   127 	   117
	003741	   122 	   104 	   040
	003744	   042 	   000
	006622	004112 				 .RAD50	/AMB/		; "AMB" IN .RAD50
	006624	000520'				 .WORD	.SEAMB		; DISPATCH TO HANDLER
	006626	003714'				 .WORD	AMBERM		; POINTER TO MESSAGE
   7465						;
   7466	006630					SPERR$	CES,<CLOCK ERROR STOP - >
	003746	   103 	   105 	   123 		 .ASCIZ	%CES - CLOCK ERROR STOP - %
	003751	   040 	   055 	   040
	003754	   103 	   114 	   117
	003757	   103 	   113 	   040
	003762	   105 	   122 	   122
	003765	   117 	   122 	   040
	003770	   123 	   124 	   117
	003773	   120 	   040 	   055
	003776	   040 	   000
	006630	011633 				 .RAD50	/CES/		; "CES" IN .RAD50
	006632	000756'				 .WORD	.SECES		; DISPATCH TO HANDLER
	006634	003746'				 .WORD	CESERM		; POINTER TO MESSAGE
   7467						;
   7468	006636					SPERR$	FRF,<FUNCTION READ >
	004000	   106 	   122 	   106 		 .ASCIZ	%FRF - FUNCTION READ %
	004003	   040 	   055 	   040
	004006	   106 	   125 	   116
	004011	   103 	   124 	   111
	004014	   117 	   116 	   040
	004017	   122 	   105 	   101
	004022	   104 	   040 	   000
	006636	024126 				 .RAD50	/FRF/		; "FRF" IN .RAD50
	006640	000606'				 .WORD	.SEFRF		; DISPATCH TO HANDLER
	006642	004000'				 .WORD	FRFERM		; POINTER TO MESSAGE
   7469	006644					SPERR$	FWF,<FUNCTION WRITE >
	004025	   106 	   127 	   106 		 .ASCIZ	%FWF - FUNCTION WRITE %
	004030	   040 	   055 	   040
	004033	   106 	   125 	   116
	004036	   103 	   124 	   111
	004041	   117 	   116 	   040
	004044	   127 	   122 	   111
	004047	   124 	   105 	   040
	004052	   000
	006644	024436 				 .RAD50	/FWF/		; "FWF" IN .RAD50
	006646	000614'				 .WORD	.SEFWF		; DISPATCH TO HANDLER
	006650	004025'				 .WORD	FWFERM		; POINTER TO MESSAGE
   7470	006652					SPERR$	FXF,<FUNCTION EXECUTE >
	004053	   106 	   130 	   106 		 .ASCIZ	%FXF - FUNCTION EXECUTE %
	004056	   040 	   055 	   040
TABLE -- COMMAND PARSER COMMAND	MACRO M1113  10-NOV-81 17:44  PAGE 189-1
.SPETB -- SPECIAL ERROR CODE TABLE 7702.16

	004061	   106 	   125 	   116
	004064	   103 	   124 	   111
	004067	   117 	   116 	   040
	004072	   105 	   130 	   105
	004075	   103 	   125 	   124
	004100	   105 	   040 	   000
	006652	024506 				 .RAD50	/FXF/		; "FXF" IN .RAD50
	006654	000622'				 .WORD	.SEFXF		; DISPATCH TO HANDLER
	006656	004053'				 .WORD	FXFERM		; POINTER TO MESSAGE
   7471						;
   7472	006660					SPERR$	ILC,<ILLEGAL CHARACTER ">
	004103	   111 	   114 	   103 		 .ASCIZ	%ILC - ILLEGAL CHARACTER "%
	004106	   040 	   055 	   040
	004111	   111 	   114 	   114
	004114	   105 	   107 	   101
	004117	   114 	   040 	   103
	004122	   110 	   101 	   122
	004125	   101 	   103 	   124
	004130	   105 	   122 	   040
	004133	   042 	   000
	006660	035043 				 .RAD50	/ILC/		; "ILC" IN .RAD50
	006662	000544'				 .WORD	.SEILC		; DISPATCH TO HANDLER
	006664	004103'				 .WORD	ILCERM		; POINTER TO MESSAGE
   7473	006666					SPERR$	ILS,<ILLEGAL SEPARATOR CHARACTER ">
	004135	   111 	   114 	   123 		 .ASCIZ	%ILS - ILLEGAL SEPARATOR CHARACTER "%
	004140	   040 	   055 	   040
	004143	   111 	   114 	   114
	004146	   105 	   107 	   101
	004151	   114 	   040 	   123
	004154	   105 	   120 	   101
	004157	   122 	   101 	   124
	004162	   117 	   122 	   040
	004165	   103 	   110 	   101
	004170	   122 	   101 	   103
	004173	   124 	   105 	   122
	004176	   040 	   042 	   000
	006666	035063 				 .RAD50	/ILS/		; "ILS" IN .RAD50
	006670	000544'				 .WORD	.SEILS		; DISPATCH TO HANDLER
	006672	004135'				 .WORD	ILSERM		; POINTER TO MESSAGE
   7474	006674					SPERR$	IPC,<ILLEGAL PASSWORD CHARACTER ">
	004201	   111 	   120 	   103 		 .ASCIZ	%IPC - ILLEGAL PASSWORD CHARACTER "%
	004204	   040 	   055 	   040
	004207	   111 	   114 	   114
	004212	   105 	   107 	   101
	004215	   114 	   040 	   120
	004220	   101 	   123 	   123
	004223	   127 	   117 	   122
	004226	   104 	   040 	   103
	004231	   110 	   101 	   122
	004234	   101 	   103 	   124
	004237	   105 	   122 	   040
	004242	   042 	   000
	006674	035303 				 .RAD50	/IPC/		; "IPC" IN .RAD50
	006676	000544'				 .WORD	.SEIPC		; DISPATCH TO HANDLER
	006700	004201'				 .WORD	IPCERM		; POINTER TO MESSAGE
   7475						;
   7476	006702					SPERR$	NSK,<NO SUCH KEYWORD ">
TABLE -- COMMAND PARSER COMMAND	MACRO M1113  10-NOV-81 17:44  PAGE 189-2
.SPETB -- SPECIAL ERROR CODE TABLE 7702.16

	004244	   116 	   123 	   113 		 .ASCIZ	%NSK - NO SUCH KEYWORD "%
	004247	   040 	   055 	   040
	004252	   116 	   117 	   040
	004255	   123 	   125 	   103
	004260	   110 	   040 	   113
	004263	   105 	   131 	   127
	004266	   117 	   122 	   104
	004271	   040 	   042 	   000
	006702	055203 				 .RAD50	/NSK/		; "NSK" IN .RAD50
	006704	000520'				 .WORD	.SENSK		; DISPATCH TO HANDLER
	006706	004244'				 .WORD	NSKERM		; POINTER TO MESSAGE
   7477						;
   7478	006710	000000 				.WORD	0		; END OF TABLE MARKER
TABLE -- COMMAND PARSER COMMAND	MACRO M1113  10-NOV-81 17:44  PAGE 190
.STRTB -- THE START COMMAND TABLE 7602.26

   7480					.SBTTL	.STRTB -- THE START COMMAND TABLE 7602.26
   7481
   7482	006712				.STRTB::
   7483	006712					COMND$	TEN,<LG.PRG!LG.RPT>,.STRTT,TEN
	006712	000765'				 .WORD	TENMSG		; POINTER TO "TEN" SYMBOL
	006714	000402 				 .WORD	LG.PRG!LG.RPT		; LEGAL BITS
	006716	000000G				 .WORD	.STRTT		; ROUTINE TO CALL OR DATA
   7484					;
   7485	006720					COMND$	MICROCODE,<LG.PRG!LG.RPT>,.STRTU,UCD
	001732	   115 	   111 	   103 	UCDMSG:: .ASCIZ	%MICROCODE%
	001735	   122 	   117 	   103
	001740	   117 	   104 	   105
	001743	   000
	006720	001732'				 .WORD	UCDMSG		; POINTER TO "MICROCODE" SYMBOL
	006722	000402 				 .WORD	LG.PRG!LG.RPT		; LEGAL BITS
	006724	000000G				 .WORD	.STRTU		; ROUTINE TO CALL OR DATA
   7486					;
   7487	006726	000000 				.WORD	0		; END OF TABLE MARKER
TABLE -- COMMAND PARSER COMMAND	MACRO M1113  10-NOV-81 17:44  PAGE 191
.WHATB -- THE WHAT COMMAND TABLE 7703.25

   7489					.SBTTL	.WHATB -- THE WHAT COMMAND TABLE 7703.25
   7490
   7491	006730				.WHATB::
   7492	006730					COMND$	AC-BLOCK,<LG.MNT>,.WHACB,ACB
	006730	001545'				 .WORD	ACBMSG		; POINTER TO "AC-BLOCK" SYMBOL
	006732	000004 				 .WORD	LG.MNT		; LEGAL BITS
	006734	000000G				 .WORD	.WHACB		; ROUTINE TO CALL OR DATA
   7493					;
   7494	006736					COMND$	AUTO-TAKE,LG.OPR,.WHTAK,AUT
	006736	001556'				 .WORD	AUTMSG		; POINTER TO "AUTO-TAKE" SYMBOL
	006740	000001 				 .WORD	LG.OPR		; LEGAL BITS
	006742	000000G				 .WORD	.WHTAK		; ROUTINE TO CALL OR DATA
   7495					;
   7496	006744					COMND$	CLOCK,<LG.PRG!LG.RPT>,.WHTCL,CLK
	006744	001570'				 .WORD	CLKMSG		; POINTER TO "CLOCK" SYMBOL
	006746	000402 				 .WORD	LG.PRG!LG.RPT		; LEGAL BITS
	006750	000000G				 .WORD	.WHTCL		; ROUTINE TO CALL OR DATA
   7497					;
   7498	006752					COMND$	CONSOLE,LG.OPR,.WHCON,CON
	006752	001576'				 .WORD	CONMSG		; POINTER TO "CONSOLE" SYMBOL
	006754	000001 				 .WORD	LG.OPR		; LEGAL BITS
	006756	000000G				 .WORD	.WHCON		; ROUTINE TO CALL OR DATA
   7499					;
   7500	006760					COMND$	DATE,<LG.ALL!LG.RPT>,.WHDAT,DAT
	006760	001606'				 .WORD	DATMSG		; POINTER TO "DATE" SYMBOL
	006762	000407 				 .WORD	LG.ALL!LG.RPT		; LEGAL BITS
	006764	000000G				 .WORD	.WHDAT		; ROUTINE TO CALL OR DATA
   7501					;
   7502	006766					COMND$	FAULT-CONTINUE,LG.ALL,.WHREC,FLT
	006766	001613'				 .WORD	FLTMSG		; POINTER TO "FAULT-CONTINUE" SYMBOL
	006770	000007 				 .WORD	LG.ALL		; LEGAL BITS
	006772	000000G				 .WORD	.WHREC		; ROUTINE TO CALL OR DATA
   7503					;
   7504	006774					COMND$	HARDWARE,LG.OPR,.WHRDW,HAR
	001744	   110 	   101 	   122 	HARMSG:: .ASCIZ	%HARDWARE%
	001747	   104 	   127 	   101
	001752	   122 	   105 	   000
	006774	001744'				 .WORD	HARMSG		; POINTER TO "HARDWARE" SYMBOL
	006776	000001 				 .WORD	LG.OPR		; LEGAL BITS
	007000	000000G				 .WORD	.WHRDW		; ROUTINE TO CALL OR DATA
   7505					;
   7506	007002					COMND$	INCREMENT,LG.OPR,.WHINC,INC
	007002	000716'				 .WORD	INCMSG		; POINTER TO "INCREMENT" SYMBOL
	007004	000001 				 .WORD	LG.OPR		; LEGAL BITS
	007006	000000G				 .WORD	.WHINC		; ROUTINE TO CALL OR DATA
   7507					;
   7508	007010					COMND$	KLINIK,LG.ALL,.WHKLN,KLI
	007010	001632'				 .WORD	KLIMSG		; POINTER TO "KLINIK" SYMBOL
	007012	000007 				 .WORD	LG.ALL		; LEGAL BITS
	007014	000000G				 .WORD	.WHKLN		; ROUTINE TO CALL OR DATA
   7509					;
   7510	007016					COMND$	MEMORY,LG.OPR,.WHMEM,MEM
	007016	001641'				 .WORD	MEMMSG		; POINTER TO "MEMORY" SYMBOL
	007020	000001 				 .WORD	LG.OPR		; LEGAL BITS
	007022	000000G				 .WORD	.WHMEM		; ROUTINE TO CALL OR DATA
   7511					;
   7512	007024					COMND$	OFFSET,LG.PRG,.WHOFS,OFS
TABLE -- COMMAND PARSER COMMAND	MACRO M1113  10-NOV-81 17:44  PAGE 191-1
.WHATB -- THE WHAT COMMAND TABLE 7703.25

	007024	001654'				 .WORD	OFSMSG		; POINTER TO "OFFSET" SYMBOL
	007026	000002 				 .WORD	LG.PRG		; LEGAL BITS
	007030	000000G				 .WORD	.WHOFS		; ROUTINE TO CALL OR DATA
   7513					;
   7514	007032					COMND$	OUTPUT,LG.OPR,.WHOUT,OUT
	007032	001663'				 .WORD	OUTMSG		; POINTER TO "OUTPUT" SYMBOL
	007034	000001 				 .WORD	LG.OPR		; LEGAL BITS
	007036	000000G				 .WORD	.WHOUT		; ROUTINE TO CALL OR DATA
   7515					;
   7516	007040					COMND$	PARITY-STOP,<LG.PRG!LG.RPT>,.WHTPS,PST
	007040	001672'				 .WORD	PSTMSG		; POINTER TO "PARITY-STOP" SYMBOL
	007042	000402 				 .WORD	LG.PRG!LG.RPT		; LEGAL BITS
	007044	000000G				 .WORD	.WHTPS		; ROUTINE TO CALL OR DATA
   7517					;
   7518	007046					COMND$	RELOAD,LG.PRG,.WHRLD,RLD
	007046	001706'				 .WORD	RLDMSG		; POINTER TO "RELOAD" SYMBOL
	007050	000002 				 .WORD	LG.PRG		; LEGAL BITS
	007052	000000G				 .WORD	.WHRLD		; ROUTINE TO CALL OR DATA
   7519					;
   7520	007054					COMND$	REPEAT,LG.OPR,.WHRPT,RPT
	007054	000543'				 .WORD	RPTMSG		; POINTER TO "REPEAT" SYMBOL
	007056	000001 				 .WORD	LG.OPR		; LEGAL BITS
	007060	000000G				 .WORD	.WHRPT		; ROUTINE TO CALL OR DATA
   7521					;
   7522	007062					COMND$	RETRY,<LG.PRG!LG.MNT>,.WHRTY,RTY
	007062	001715'				 .WORD	RTYMSG		; POINTER TO "RETRY" SYMBOL
	007064	000006 				 .WORD	LG.PRG!LG.MNT		; LEGAL BITS
	007066	000000G				 .WORD	.WHRTY		; ROUTINE TO CALL OR DATA
   7523					;
   7525	007070					COMND$	TRACKS,LG.PRG,.WHTRK,TRK
	007070	001723'				 .WORD	TRKMSG		; POINTER TO "TRACKS" SYMBOL
	007072	000002 				 .WORD	LG.PRG		; LEGAL BITS
	007074	000000G				 .WORD	.WHTRK		; ROUTINE TO CALL OR DATA
   7526					;
   7528	007076					COMND$	VERSION,LG.OPR,.WHATV,VER
	001755	   126 	   105 	   122 	VERMSG:: .ASCIZ	%VERSION%
	001760	   123 	   111 	   117
	001763	   116 	   000
	007076	001755'				 .WORD	VERMSG		; POINTER TO "VERSION" SYMBOL
	007100	000001 				 .WORD	LG.OPR		; LEGAL BITS
	007102	000000G				 .WORD	.WHATV		; ROUTINE TO CALL OR DATA
   7529					;
   7530	007104	000000 				.WORD	0		; END OF TABLE MARKER
   7531	011114				.PSECT
   7532
   7533		000000 				$$PASS2=0
TPSIM -- TRIPLE PRECISION ARITH	MACRO M1113  10-NOV-81 17:44  PAGE 193
.WHATB -- THE WHAT COMMAND TABLE 7703.25

   7536					.TITLE	TPSIM -- TRIPLE PRECISION ARITHMETIC SIMULATOR MODULE 7603.30
   7537
   7538						.IDENT	"005000"
   7539
   7540					;
   7541					;                             COPYRIGHT (C) 1975, 1979 BY
   7542					;                     DIGITAL EQUIPMENT CORPORATION, MAYNARD MASS.
   7543					;
   7544					;       THIS SOFTWARE IS FURNISHED UNDER A LICENSE AND MAY BE  USED  AND  COPIED
   7545					;       ONLY IN ACCORDANCE WITH THE TERMS OF SUCH LICENSE AND WITH THE INCLUSION
   7546					;       OF THE ABOVE COPYRIGHT NOTICE.  THIS SOFTWARE OR ANY OTHER COPIES THERE-
   7547					;       OF  MAY NOT BE PROVIDED OR OTHERWISE MADE AVAILABLE TO ANY OTHER PERSON.
   7548					;       NO TITLE TO OR OWNERSHIP OF THE SOFTWARE IS HEREBY TRANSFERRED.
   7549					;
   7550					;       THE INFORMATION CONTAINED IN THIS SOFTWARE IS SUBJECT TO CHANGE  WITHOUT
   7551					;       NOTICE  AND SHOULD NOT BE CONSTRUED AS A COMMITMENT BY DIGITAL EQUIPMENT
   7552					;       CORPORATION.
   7553					;
   7554					;       DIGITAL ASSUMES NO RESPONSIBILITY FOR THE  USE  OR  RELIABILITY  OF  ITS
   7555					;       SOFTWARE ON EQUIPMENT WHICH IS NOT SUPPILED BY DIGITAL.
   7556					;
   7557					;		MODULE: TRIPLE PRECISION ARITHMETIC SIMULATOR
   7558					;
   7559					;		VERSION: 05-00
   7560					;
   7561					;		AUTHOR: R. BELANGER
   7562					;
   7563					;		DATE: 7603.30
   7564					;
   7565					;	THIS MODULE CONTAINS:
   7566					;
   7567					;	1) TRIPLE PRECISION ARITHMETIC SIMULATOR
TPSIM -- TRIPLE PRECISION ARITH	MACRO M1113  10-NOV-81 17:44  PAGE 194
.SHIFT -- 16 BIT BY 16 BIT SHIFT OPERATIONS 7603.30

   7569					.SBTTL	.SHIFT -- 16 BIT BY 16 BIT SHIFT OPERATIONS 7603.30
   7570
   7571					;+
   7572					; .SHIFT -- 16 BIT BY 16 BIT SHIFT OPERATIONS
   7573					;
   7574					; THIS SUBROUTINE SHIFTS THE NUMBER IN R0 AS SPECIFIED BY THE SHIFT
   7575					; COUNT IN R1.
   7576					;
   7577					; INPUT ARGUMENTS:
   7578					;
   7579					;	R0 HOLDS THE NUMBER TO BE SHIFTED
   7580					;	R1 HOLDS A 16 BIT SHIFT COUNT
   7581					;
   7582					; OUTPUT ARGUMENTS:
   7583					;
   7584					;	R0 HOLDS THE SHIFTED NUMBER
   7585					;	R1 HOLDS THE SHIFT COUNT
   7586					;
   7587					; ERROR CODES RETURNED:
   7588					;
   7589					;	NONE
   7590					;-
   7591
   7592	011114				.SHIFT::
   7593	011114					PUSH	R1		; SAVE R1 ON THE STACK
	011114	010146 				 MOV	R1,-(SP)
   7594	011116	001407 				BEQ	30$		; .EXIT IF .EQ. 0
   7595	011120	002403 				BLT	20$		; .SHIFT RIGHT IF NEGATIVE
   7596	011122				10$:
   7597	011122	006300 				ASL	R0		; .SHIFT IT LEFT
   7598	011124	077102 				SOB	R1,10$		; .TILL COUNT IS EXHAUSTED
   7599	011126	000403 				BR	30$		; .EXIT
   7600						;
   7601	011130				20$:
   7602	011130	006200 				ASR	R0		; .SHIFT IT RIGHT
   7603	011132	005201 				INC	R1		; .COUNT THE SHIFT
   7604	011134	001375 				BNE	20$		; .TILL COUNT EXHAUSTED
   7605	011136				30$:
   7606	011136					POP	R1		; .RESTORE R1 FROM THE STACK
	011136	012601 				 MOV	(SP)+,R1
   7607	011140	000241 				CLC			; CLEAR CC-C
   7608	011142					RETURN			; RETURN
	011142	000207 				 RTS	PC
TPSIM -- TRIPLE PRECISION ARITH	MACRO M1113  10-NOV-81 17:44  PAGE 195
.TPDIV -- 48 BIT INTEGER DIVIDE SUBROUTINE 7601.19

   7610					.SBTTL	.TPDIV -- 48 BIT INTEGER DIVIDE SUBROUTINE 7601.19
   7611
   7612					;+
   7613					; .TPDIV -- 48 BIT INTEGER DIVIDE SUBROUTINE.
   7614					;
   7615					; THIS SUBROUTINE WILL DIVIDE THE 48 BIT DIVIDEND POINTED TO BY R0
   7616					; BY THE 48 BIT DIVISOR POINTED TO BY R1 IN THE CALL. ON RETURN,
   7617					; R0 POINTS TO A 48 BIT QUOTIENT, AND R2 POINTS TO A 48 BIT REMAINDER.
   7618					;
   7619					; INPUT ARGUMENTS:
   7620					;
   7621					;	R0 POINTS TO THE DIVIDEND
   7622					;	R1 POINTS TO THE DIVISOR
   7623					;
   7624					; OUTPUT ARGUMENTS:
   7625					;
   7626					;	R0 POINTS TO THE QUOTIENT
   7627					;	R1 POINTS TO THE REMAINDER
   7628					;	THE DIVISOR AND DIVIDEND ARE DESTROYED
   7629					;
   7630					; ERROR CODES RETURNED:
   7631					;
   7632					;	DCK -- DIVIDE CHECK.
   7633					;-
   7634
   7635	007106				.PSECT	DATA
   7636
   7637	007106				TPDRMN:
   7638	007106	000000 	000000 	000000 		.WORD	0,0,0	; SPACE FOR  REMAINDER
   7639	007114				TPDDVS:
   7640	007114	000000 	000000 	000000 		.WORD	0,0,0	; SPACE FOR DIVISOR
   7641	007122				TPDDVD:
   7642	007122	000000 	000000 	000000 		.WORD	0,0,0	; SPACE FOR DIVIDEND / QUOTIENT
   7643
   7644	011144				.PSECT
TPSIM -- TRIPLE PRECISION ARITH	MACRO M1113  10-NOV-81 17:44  PAGE 196
.TPDIV -- 48 BIT INTEGER DIVIDE SUBROUTINE 7601.19

   7646						.ENABL	LSB
   7647
   7648	011144				.TPDIV::
   7649	011144					PUSH	<R3,R2,R1,R0>	; SAVE CALLER'S REGISTERS
	011144	010346 				 MOV	R3,-(SP)
	011146	010246 				 MOV	R2,-(SP)
	011150	010146 				 MOV	R1,-(SP)
	011152	010046 				 MOV	R0,-(SP)
   7650	011154					CALL	.TPXTN		; ....SIGN EXTEND THE DIVIDEND
	011154	004737 	011404'			 JSR	PC,.TPXTN
   7651	011160	010100 				MOV	R1,R0		; ....POINT TO THE DIVISOR
   7652	011162					CALL	.TPXTN		; ....AND SIGN EXTEND IT
	011162	004737 	011404'			 JSR	PC,.TPXTN
   7653	011166					CALL	.TPTST		; ....SEE IF IT IS ZERO OR NEGATIVE
	011166	004737 	011460'			 JSR	PC,.TPTST
   7654	011172	003466 				BLE	TPDDCK		; ....YES -- GIVE "DCK" ERROR
   7655	011174	011600 				MOV	(SP),R0		; ....NO -- RESTORE DIVIDEND POINTER
   7656	011176	012703 	000060 			MOV	#^D48,R3	; ....ITERATION COUNT TO R3
   7657	011202	012702 	007106'			MOV	#TPDRMN,R2	; ....DATA BLOCK POINTER TO R2
   7658	011206	005022 				CLR	(R2)+		; ....CLEAR THE REMAINDER
   7659	011210	005022 				CLR	(R2)+		; ....
   7660	011212	005022 				CLR	(R2)+		; ....
   7661	011214	012122 				MOV	(R1)+,(R2)+	; ....LOAD THE DIVISOR
   7662	011216	012122 				MOV	(R1)+,(R2)+	; ....
   7663	011220	012122 				MOV	(R1)+,(R2)+	; ....
   7664	011222	012022 				MOV	(R0)+,(R2)+	; ....LOAD THE DIVIDEND
   7665	011224	012022 				MOV	(R0)+,(R2)+	; ....
   7666	011226	012022 				MOV	(R0)+,(R2)+	; ....
   7667	011230	012700 	007106'			MOV	#TPDRMN,R0	; ....REMAINDER POINTER TO R0
   7668	011234	012701 	007114'			MOV	#TPDDVS,R1	; ....DIVISOR POINTER TO R1
   7669	011240	012702 	007122'			MOV	#TPDDVD,R2	; ....DIVIDEND POINTER TO R2
   7670
   7671					;	[CONTINUED ON THE FOLLOWING PAGE]
TPSIM -- TRIPLE PRECISION ARITH	MACRO M1113  10-NOV-81 17:44  PAGE 197
.TPDIV -- 48 BIT INTEGER DIVIDE SUBROUTINE 7601.19

   7673					;	[CONTINUED FROM THE PREVIOUS PAGE]
   7674
   7675	011244				10$:
   7676	011244	006312 				ASL	(R2)		; ....SHIFT THE DIVIDEND LEFT
   7677	011246	006162 	000002 			ROL	2(R2)		; ....
   7678	011252	006162 	000004 			ROL	4(R2)		; ....
   7679	011256	006110 				ROL	(R0)		; ....INTO THE REMAINDER
   7680	011260	006160 	000002 			ROL	2(R0)		; ....
   7681	011264	006160 	000004 			ROL	4(R0)		; ....
   7682	011270					CALL	.TPCMP		; ....SEE IF REMAINDER IS .GE. DIVISOR
	011270	004737 	011424'			 JSR	PC,.TPCMP
   7683	011274	103407 				BLO	20$		; ....NO -- JUST KEEP GOING
   7684	011276					CALL	.TPSUB		; ....YES -- SUBTRACT DIVISOR FROM REMAINDER
	011276	004737 	011546'			 JSR	PC,.TPSUB
   7685	011302					PUSH	R0		; ....SAVE REMAINDER POINTER
	011302	010046 				 MOV	R0,-(SP)
   7686	011304	010200 				MOV	R2,R0		; .....QUOTIENT POINTER TO R0
   7687	011306					CALL	.TPINC		; .....INCREMENT THE QUOTIENT
	011306	004737 	011522'			 JSR	PC,.TPINC
   7688	011312					POP	R0		; .....RESTORE REMAINDER POINTER
	011312	012600 				 MOV	(SP)+,R0
   7689	011314				20$:
   7690	011314	077325 				SOB	R3,10$		; ....LOOP TILL COUNT IS EXHAUSTED
   7691	011316					POP	<R0,R1>		; ....GET R0 AND R1 FROM THE STACK
	011316	012600 				 MOV	(SP)+,R0
	011320	012601 				 MOV	(SP)+,R1
   7692	011322	012220 				MOV	(R2)+,(R0)+	; ..UNLOAD THE QUOTIENT
   7693	011324	012220 				MOV	(R2)+,(R0)+	; ..
   7694	011326	011210 				MOV	(R2),(R0)	; ..
   7695	011330	012702 	007106'			MOV	#TPDRMN,R2	; ..POINT TO THE REMAINDER
   7696	011334	012221 				MOV	(R2)+,(R1)+	; ..UNLOAD THE REMAINDER
   7697	011336	012221 				MOV	(R2)+,(R1)+	; ..
   7698	011340	011211 				MOV	(R2),(R1)	; ..
   7699	011342					POP	<R2,R3>		; ..RESTORE OTHER REGISTERS
	011342	012602 				 MOV	(SP)+,R2
	011344	012603 				 MOV	(SP)+,R3
   7700	011346	000506 				BR	50$		; AND GO AWAY
   7701						;
   7702	011350				TPDDCK:
   7703	011350					ERROR$	DCK		; ERROR -- DIVIDE CHECK
	011350	012746 	014603 			 MOV	#^RDCK,-(SP)
	011354	104400 				 TRAP	TC.ERR
   7704						;
TPSIM -- TRIPLE PRECISION ARITH	MACRO M1113  10-NOV-81 17:44  PAGE 198
.TPCLR -- SUBROUTINE TO CLEAR A 48 BIT NUMBER 7601.19

   7706					.SBTTL	.TPCLR -- SUBROUTINE TO CLEAR A 48 BIT NUMBER 7601.19
   7707
   7708					;+
   7709					; .TPCLR -- SUBROUTINE TO CLEAR A 48 BIT NUMBER
   7710					; .TPCOM -- SUBROUTINE TO COMPLEMENT A 48 BIT NUMBER.
   7711					; .TPNEG -- SUBROUTINE TO NEGATE A 48 BIT NUMBER.
   7712					; .TPXTN -- SUBROUTINE TO SIGN EXTEND A 36 BIT NUMBER INTO A 48 BIT NUMBER
   7713					;
   7714					; THESE SUBROUTINE PERFORM THE FUNCTIONS INDICATED. ALL SUBROUTINES
   7715					; ACCEPT A DESTINATION POINTER IN R0. ALL SUBROUTINES
   7716					; RETURN THE POINTER UNALTERED. NO OTHER REGISTERS ARE ALTERED
   7717					; BY THESE ROUTINES.
   7718					;
   7719					; INPUT ARGUMENTS:
   7720					;
   7721					;	R0 POINTS TO THE DESTINATION OPERAND
   7722					;
   7723					; OUTPUT ARGUMENTS:
   7724					;
   7725					;	R0 POINTS TO THE DESINATION OPERAND
   7726					;
   7727					; ERROR CODES RETURNED:
   7728					;
   7729					;	NONE.
   7730					;-
   7731
   7732	011356				.TPCLR::			; CLEAR A 48 BIT WORD
   7733	011356	005020 				CLR	(R0)+		; SO
   7734	011360	005020 				CLR	(R0)+
   7735	011362	005010 				CLR	(R0)
   7736	011364	000500 				BR	60$		; RESET R0 AND RETURN
   7737						;
   7738
   7739	011366				.TPCOM::			; COMPLEMENT A 48 BIT NUMBER
   7740	011366	005120 				COM	(R0)+		; COMPLEMENT
   7741	011370	005120 				COM	(R0)+		; EACH WORD
   7742	011372	005110 				COM	(R0)		; IN THE TRIPLET
   7743	011374	000474 				BR	60$		; RESET R0 AND RETURN
   7744						;
   7745
   7746	011376				.TPNEG::			; NEGATE A 48 BIT NUMBER
   7747	011376					CALL	.TPCOM		; FIRST COMPLEMENT THE NUMBER
	011376	004737 	011366'			 JSR	PC,.TPCOM
   7748	011402	000447 				BR	.TPINC		; -0 + NOT(0)+1 AND RETURN
   7749						;
   7750
   7751	011404				.TPXTN::
   7752	011404	032760 	000010 	000004 		BIT	#10,4(R0)	; TEST THE SIGN BIT
   7753	011412	001466 				BEQ	70$		; EXIT IF POSITIVE
   7754	011414	052760 	177760 	000004 		BIS	#^C17,4(R0)	; SIGN EXTEND IF NEGATIVE
   7755	011422	000462 				BR	70$		; EXIT
   7756						;
TPSIM -- TRIPLE PRECISION ARITH	MACRO M1113  10-NOV-81 17:44  PAGE 199
.TPCMP -- SUBROUTINE TO COMPARE TWO 48 BIT NUMBERS 7610.19

   7758					.SBTTL	.TPCMP -- SUBROUTINE TO COMPARE TWO 48 BIT NUMBERS 7610.19
   7759
   7760					;+
   7761					; .TPCMP -- SUBROUTINE TO COMPARE TWO 48 BIT NUMBERS.
   7762					;
   7763					; THIS SUBROUTINE WILL COMPARE THE 48 BIT NUMBER POINTED TO BY
   7764					; R0 AND THE 48 BIT NUMBER POINTED TO BY R1 IN THE CALL.
   7765					;
   7766					; INPUT ARGUMENTS:
   7767					;
   7768					;	R0 POINTS TO THE FIRST NUMBER
   7769					;	R1 POINTS TO THE SECOND NUMBER
   7770					;
   7771					; OUTPUT ARGUMENTS:
   7772					;
   7773					;	R0 POINTS TO THE FIRST NUMBER
   7774					;	R1 POINTS TO THE SECOND NUMBER
   7775					;	CC-N IS SET IF (R0) .LT. (R1)
   7776					;	CC-Z IS SET IF (R0) .EQ. (R1)
   7777					;	CC-Z IS CLEAR IF (R0) .GT. (R1)
   7778					;
   7779					; ERROR CODES RETURNED:
   7780					;
   7781					;	NONE.
   7782					;-
   7783
   7784	011424				.TPCMP::			; COMPARE TWO 48 BIT NUMBERS
   7785	011424	026061 	000004 	000004 		CMP	4(R0),4(R1)	; COMPARE THE HIGH WORDS
   7786	011432	001056 				BNE	70$		; NOT EQUAL -- EXIT
   7787	011434	026061 	000002 	000002 		CMP	2(R0),2(R1)	; COMPARE THE MIDDLE WORDS
   7788	011442	001001 				BNE	30$		; NOT EQUAL -- EXIT
   7789	011444	021011 				CMP	(R0),(R1)	; COMPARE THE LOW WORDS
   7790	011446				30$:
   7791	011446	000250 				CLN			; CLEAR CC-N
   7792	011450	000242 				CLV			; CLEAR CC-V
   7793	011452	103046 				BCC	70$		; BRANCH IF NON-NEGATIVE
   7794	011454	000270 				SEN			; NEGATIVE -- SET CC-N
   7795	011456	000444 				BR	70$		; EXIT
   7796						;
TPSIM -- TRIPLE PRECISION ARITH	MACRO M1113  10-NOV-81 17:44  PAGE 200
.TPTST -- TEST A 48 BIT NUMBER FOR ZERO 7601.19

   7798					.SBTTL	.TPTST -- TEST A 48 BIT NUMBER FOR ZERO 7601.19
   7799
   7800					;+
   7801					; .TPTST -- TEST A 48 BIT NUMBER FOR ZERO.
   7802					;
   7803					; THIS SUBROUTINE WILL TEST THE 48 BIT NUMBER POINTED TO BY R0 TO
   7804					; SEE IF IT ZERO OR NON-ZERO. IF THE NUMBER IS ZERO, CC-Z IS SET
   7805					; ON RETURN, IF NON-ZERO, CC-Z IS CLEAR SET ON RETURN.
   7806					; NO REGISTERS ARE ALTERED BY THIS SUBROUTINE.
   7807					;
   7808					; INPUT ARGUMENTS:
   7809					;
   7810					;	R0 POINTS TO THE NUMBER TO BE TESTED
   7811					;
   7812					; OUTPUT ARGUMENTS:
   7813					;
   7814					;	R0 POINTS TO THE TESTED NUMBER
   7815					;	CC-Z IS SET IF THE NUMBER IS ZERO
   7816					;	CC-Z IS CLEAR IF THE NUMBER IS NON-ZERO
   7817					;
   7818					; ERROR CODES RETURNED:
   7819					;
   7820					;	NONE.
   7821					;-
   7822
   7823	011460				.TPTST::			; TEST A TRIPLE PRECISION NUMBER FOR ZERO
   7824	011460	005760 	000004 			TST	4(R0)		; TEST THE HIGH WORD
   7825	011464	001041 				BNE	70$		; NON ZERO?
   7826	011466	005760 	000002 			TST	2(R0)		; TEST THE MIDDLE WORD
   7827	011472	001001 				BNE	40$		; NON ZERO?
   7828	011474	005710 				TST	(R0)		; TEST THE LOW WORD
   7829	011476				40$:
   7830	011476	000250 				CLN			; CLEAR CC-N
   7831	011500	000433 				BR	70$		; EXIT
   7832						;
TPSIM -- TRIPLE PRECISION ARITH	MACRO M1113  10-NOV-81 17:44  PAGE 201
.TPADD -- SUBROUTINE TO ADD TWO 48 BIT NUMBERS 7601.15

   7834					.SBTTL	.TPADD -- SUBROUTINE TO ADD TWO 48 BIT NUMBERS 7601.15
   7835
   7836					;+
   7837					; .TPADD -- SUBROUTINE TO ADD TWO 48 BIT NUMBERS.
   7838					;
   7839					; THIS SUBROUTINE ADDS TWO 48 BIT ADDENDS WHICH ARE POINTED TO BY
   7840					; R0 AND R1 IN THE CALL, AND RETURNS A POINTER TO THE SUM IN R0.
   7841					; THE ADDEND POINTED TO BY R1 IS ADDED TO THAT POINTED TO BY R0.
   7842					;
   7843					; INPUT ARGUMENTS:
   7844					;
   7845					;	R0 POINTS TO THE FIRST ADDEND
   7846					;	R1 POINTS TO THE SECOND ADDEND
   7847					;
   7848					; OUTPUT ARGUMENTS:
   7849					;
   7850					;	R0 POINTS TO THE SUM
   7851					;	R1 POINTS TO THE SECOND ADDEND
   7852					;
   7853					; ERROR CODES RETURNED:
   7854					;
   7855					;	NONE.
   7856					;-
   7857
   7858	011502				.TPADD::
   7859	011502	062120 				ADD	(R1)+,(R0)+	; ADD LOW ORDER PARTS
   7860	011504	005510 				ADC	(R0)		; CARRY ANY OVERFLOW
   7861	011506	005560 	000002 			ADC	2(R0)		; AND ANY OVER FLOW FROM THAT
   7862	011512	062120 				ADD	(R1)+,(R0)+	; ADD MIDDLE WORD
   7863	011514	005510 				ADC	(R0)		; FIX CARRIES
   7864	011516	061110 				ADD	(R1),(R0)	; ADD HIGH ORDER PARTS
   7865	011520	000421 				BR	50$		; RESET REGISTERS ANS EXIT
   7866						;
TPSIM -- TRIPLE PRECISION ARITH	MACRO M1113  10-NOV-81 17:44  PAGE 202
.TPINC -- SUBROUTINE TO INCREMENT A 48 BIT NUMBER 7601.19

   7868					.SBTTL	.TPINC -- SUBROUTINE TO INCREMENT A 48 BIT NUMBER 7601.19
   7869
   7870					;+
   7871					; .TPINC -- SUBROUTINE TO INCREMENT A 48 BIT NUMBER.
   7872					; .TPDEC -- SUBROUTINE TO DECREMENT A 48 BIT NUMBER.
   7873					;
   7874					; THESE SUBROUTINES WILL INCREMENT OR DECREMENT A 48 BIT NUMBER
   7875					; POINTED TO BY R0 IN THE CALL. ON RETURN, THE POINTER IN R0 IS
   7876					; UNCHANGED. NO OTHER REGISTERS ARE ALTERED BY THESE SUBROUTINES.
   7877					;
   7878					; INPUT ARGUMENTS:
   7879					;
   7880					;	R0 POINTS TO THE OPERAND
   7881					;
   7882					; OUTPUT ARGUMENTS:
   7883					;
   7884					;	R0 POINTS TO THE OPERAND
   7885					;
   7886					; ERROR CODES RETURNED:
   7887					;
   7888					;	NONE.
   7889					;-
   7890
   7891	011522				.TPINC::			; INCREMENT A 48 BIT NUMBER
   7892	011522	062720 	000001 			ADD	#1,(R0)+	; DO THE INCREMENT
   7893	011526	005520 				ADC	(R0)+		; AND CARRY THE CARRIES
   7894	011530	005510 				ADC	(R0)
   7895	011532	000415 				BR	60$		; AND EXIT
   7896						;
   7897
   7898	011534				.TPDEC::			; DECREMENT A 48 BIT NUMBER
   7899	011534	162720 	000001 			SUB	#1,(R0)+	; DO THE DECREMENT
   7900	011540	005620 				SBC	(R0)+		; AND STRAIGHTEN OUT THE CARRIES
   7901	011542	005610 				SBC	(R0)
   7902	011544	000410 				BR	60$		; ADJUST R0 AND RETURN
   7903						;
TPSIM -- TRIPLE PRECISION ARITH	MACRO M1113  10-NOV-81 17:44  PAGE 203
.TPSUB -- SUBROUTINE TO SUBTRACT TWO 48 BIT NUMBERS 7601.15

   7905					.SBTTL	.TPSUB -- SUBROUTINE TO SUBTRACT TWO 48 BIT NUMBERS 7601.15
   7906
   7907					;+
   7908					; .TPSUB -- SUBROUTINE TO SUBTRACT TWO 48 BIT NUMBERS.
   7909					;
   7910					; THIS SUBROUTINE WILL SUBTRACT TWO 48 BIT NUMBERS POINTED TO BY R0,
   7911					; (MINUEND), AND R1 (SUBTRAHEND) IN THE CALL, AND WILL RETURN A
   7912					; POINTER TO THE DIFFERENCE IN R0.
   7913					;
   7914					; INPUT ARGUMENTS:
   7915					;
   7916					;	R0 POINTS TO THE MINUEND
   7917					;	R1 POINTS TO THE SUBTRAHEND
   7918					;
   7919					; OUTPUT ARGUMENTS:
   7920					;
   7921					;	R0 POINTS TO THE DIFFERENCE
   7922					;	R1 POINTS TO THE SUBTRAHEND
   7923					;
   7924					; ERROR CODES RETURNED:
   7925					;
   7926					;	NONE.
   7927					;-
   7928
   7929	011546				.TPSUB::
   7930	011546	162120 				SUB	(R1)+,(R0)+	; SUBTRACT LOW ORDER PARTS
   7931	011550	005610 				SBC	(R0)		; CARRY ANY OVERFLOW
   7932	011552	005660 	000002 			SBC	2(R0)		; AND ANY OVERFLOWS FROM THAT
   7933	011556	162120 				SUB	(R1)+,(R0)+
   7934	011560	005610 				SBC	(R0)		; FIX CARRIES
   7935	011562	161110 				SUB	(R1),(R0)	; SUBTRACT HIGH ORDER PARTS
   7936	011564				50$:
   7937	011564	024141 				CMP	-(R1),-(R1)	; RESET R1
   7938	011566				60$:
   7939	011566	024040 				CMP	-(R0),-(R0)	; RESET R0
   7940	011570				70$:
   7941	011570					RETURN			; AND EXIT
	011570	000207 				 RTS	PC
   7942
   7943						.DSABL	LSB
TPSIM -- TRIPLE PRECISION ARITH	MACRO M1113  10-NOV-81 17:44  PAGE 204
.TPMUL -- 48 BIT INTEGER MULTPLY SUBROUTINE 7601.19

   7945					.SBTTL	.TPMUL -- 48 BIT INTEGER MULTPLY SUBROUTINE 7601.19
   7946
   7947					;+
   7948					; .TPMUL -- 48 BIT INTEGER MULTPLY SUBROUTINE.
   7949					;
   7950					; THIS SUBROUTINE WILL MULTIPLY THE 48 BIT MULTIPLICAND POINTED
   7951					; TO BY R0 BY THE 48 BIT MULTIPLIER POINTER IN R1, AND RETURN A
   7952					; POINTER TO THE 48 BIT PRODUCT IN R0. THE MULTIPLIER IS UNCHANGED,
   7953					; AND NO OTHER REGISTERS ARE ALTERED BY THIS SUBROUTINE.
   7954					;
   7955					; INPUT ARGUMENTS:
   7956					;
   7957					;	R0 POINTS TO THE MULTIPLICAND
   7958					;	R1 POINTS TO THE MULTIPLIER
   7959					;
   7960					; OUTPUT ARGUMENTS:
   7961					;
   7962					;	R0 POINTS TO THE PRODUCT
   7963					;	R1 POINTS TO THE MULTIPLIER
   7964					;
   7965					; ERROR CODES RETURNED:
   7966					;
   7967					;	NONE.
   7968					;-
TPSIM -- TRIPLE PRECISION ARITH	MACRO M1113  10-NOV-81 17:44  PAGE 205
.TPMUL -- 48 BIT INTEGER MULTPLY SUBROUTINE 7601.19

   7970	011572				.TPMUL::
   7971	011572					PUSH	<R2,R1,R0>	; SAVE CALLER'S REGISTERS
	011572	010246 				 MOV	R2,-(SP)
	011574	010146 				 MOV	R1,-(SP)
	011576	010046 				 MOV	R0,-(SP)
   7972	011600					CALL	.TPTST		; ...SEE IF MULTIPLICAND .EQ. 0
	011600	004737 	011460'			 JSR	PC,.TPTST
   7973	011604	001460 				BEQ	50$		; ...YES -- QUIT NOW
   7974	011606	010100 				MOV	R1,R0		; ...NO -- POINT TO MULTIPLIER
   7975	011610					CALL	.TPTST		; ...SEE IF IT IS .EQ. 0
	011610	004737 	011460'			 JSR	PC,.TPTST
   7976	011614	001004 				BNE	10$		; ...NO -- ALL OK
   7977	011616	011600 				MOV	(SP),R0		; ...YES -- GET MULTIPLICAND POINTER
   7978	011620					CALL	.TPCLR		; ...AND MAKE IT .EQ. 0
	011620	004737 	011356'			 JSR	PC,.TPCLR
   7979	011624	000450 				BR	50$		; ...RETURN TO CALLER
   7980						;
   7981	011626				10$:
   7982	011626	011600 				MOV	(SP),R0		; ...R0 POINTS TO MULTIPLCAND
   7983	011630					PUSH	<(R1)+,(R1)+,(R1),R1>
	011630	012146 				 MOV	(R1)+,-(SP)
	011632	012146 				 MOV	(R1)+,-(SP)
	011634	011146 				 MOV	(R1),-(SP)
	011636	010146 				 MOV	R1,-(SP)
   7984	011640	024141 				CMP	-(R1),-(R1)	; .......CALLER'S MULTIPLIER SAVED
   7985	011642	010102 				MOV	R1,R2		; .......R2 POINTS TO THE MULTIPLIER
   7986	011644	010001 				MOV	R0,R1		; .......R1 POINTS TO THE MULTIPLICAND
   7987	011646	005046 				CLR	-(SP)		; .......CLEAR A BUFFER ON THE STACK
   7988	011650	005046 				CLR	-(SP)		; ........
   7989	011652	005046 				CLR	-(SP)		; .........
   7990	011654	010600 				MOV	SP,R0		; ..........R0 POINTS TO TEMPORARY RESULT
   7991	011656				20$:
   7992	011656	006062 	000004 			ROR	4(R2)		; ..........SHIFT THE MULTIPLIER RIGHT
   7993	011662	006062 	000002 			ROR	2(R2)		; ..........
   7994	011666	006012 				ROR	(R2)		; ..........
   7995	011670	103002 				BCC	30$		; ..........DID WE GET A CARRY?
   7996	011672					CALL	.TPADD		; ..........YES -- ADD THE MULTIPLICAND
	011672	004737 	011502'			 JSR	PC,.TPADD
   7997	011676				30$:
   7998	011676	006311 				ASL	(R1)		; ..........DOUBLE MULTIPLICAND IN ANY CASE
   7999	011700	006161 	000002 			ROL	2(R1)		; ..........
   8000	011704	006161 	000004 			ROL	4(R1)		; ..........
   8001	011710					PUSH	R0		; ..........SAVE RESULT POINTER
	011710	010046 				 MOV	R0,-(SP)
   8002	011712	010200 				MOV	R2,R0		; ...........POINT TO MULTIPLIER
   8003	011714					CALL	.TPTST		; ...........IS IT .EQ. 0?
	011714	004737 	011460'			 JSR	PC,.TPTST
   8004	011720	001402 				BEQ	40$		; ...........YES -- SET UP FOR RETURN
   8005	011722					POP	R0		; ...........NO -- RESTORE R0
	011722	012600 				 MOV	(SP)+,R0
   8006	011724	000754 				BR	20$		; ..........AND CONTINUE
   8007						;
   8008
   8009					;	[CONTINUED ON THE FOLLOWING PAGE]
TPSIM -- TRIPLE PRECISION ARITH	MACRO M1113  10-NOV-81 17:44  PAGE 206
.TPMUL -- 48 BIT INTEGER MULTPLY SUBROUTINE 7601.19

   8011					;	[CONTINUED FROM THE PREVIOUS PAGE]
   8012
   8013					; HERE TO RETURN PRODUCT AND EXIT
   8014
   8015	011726				40$:
   8016	011726					POP	R0		; ...........GET RID OF MULTIPLIER POINTER
	011726	012600 				 MOV	(SP)+,R0
   8017	011730					POP	<(R1)+,(R1)+,(R1)>
	011730	012621 				 MOV	(SP)+,(R1)+
	011732	012621 				 MOV	(SP)+,(R1)+
	011734	012611 				 MOV	(SP)+,(R1)
   8018	011736					POP	<R1,(R1),-(R1),-(R1)>
	011736	012601 				 MOV	(SP)+,R1
	011740	012611 				 MOV	(SP)+,(R1)
	011742	012641 				 MOV	(SP)+,-(R1)
	011744	012641 				 MOV	(SP)+,-(R1)
   8019	011746				50$:
   8020	011746					POP	<R0,R1,R2>	; ...RESTORE REGISTERS
	011746	012600 				 MOV	(SP)+,R0
	011750	012601 				 MOV	(SP)+,R1
	011752	012602 				 MOV	(SP)+,R2
   8021	011754					RETURN			; TO CALLER
	011754	000207 				 RTS	PC
TPSIM -- TRIPLE PRECISION ARITH	MACRO M1113  10-NOV-81 17:44  PAGE 207
.TPSHI -- SHIFT A 48 BIT NUMBER BY A 16 BIT NUMBER 7601.19

   8023					.SBTTL	.TPSHI -- SHIFT A 48 BIT NUMBER BY A 16 BIT NUMBER 7601.19
   8024
   8025					;+
   8026					; .TPSHI -- SUBROUTINE TO SHIFT A 48 BIT NUMBER BY A 16 BIT NUMBER.
   8027					;
   8028					; THIS SUBROUTINE SHIFTS THE 48 BIT NUMBER POINTED TO BY R0 BY THE
   8029					; 16 BIT NUMBER IN R1 IN THE CALL. ON RETURN R0 POINTS TO THE SHIFTED
   8030					; 48 BIT NUMBER. THE DIRECTION OF THE SHIFT IS DETERMINED BY THE SIGN
   8031					; OF THE 16 BIT NUMBER IN R1. NO REGISTERS ARE ALTERED BY THIS ROUTINE.
   8032					;
   8033					; INPUT ARGUMENTS:
   8034					;
   8035					;	R0 POINTS TO THE NUMBER TO BE SHIFTED
   8036					;	R1 HOLDS THE 16 BIT SHIFT COUNT
   8037					;
   8038					; OUTPUT ARGUMENTS:
   8039					;
   8040					;	R0 POINTS TO THE SHIFTED NUMBER
   8041					;	R0 HOLDS THE 16 BIT SHIFT COUNT
   8042					;
   8043					; ERROR CODES RETURNED:
   8044					;
   8045					;	NONE.
   8046					;-
   8047
   8048	011756				.TPSHI::
   8049	011756					PUSH	R1		; SAVE R1 FROM DESTRUCTION
	011756	010146 				 MOV	R1,-(SP)
   8050	011760	001416 				BEQ	30$		; .ON ZERO DO NOTHING
   8051	011762	003002 				BGT	10$		; .REALLY MEANS LEFT
   8052	011764	005401 				NEG	R1		; .MEANS RIGHT, SO NEGATE
   8053	011766	000406 				BR	20$		; .AND GO RIGHT
   8054						;
   8055	011770				10$:
   8056	011770	006320 				ASL	(R0)+		; .CLEAR CC-C AND SHIFT
   8057	011772	006120 				ROL	(R0)+		; .USE CC-C AND SHIFT
   8058	011774	006110 				ROL	(R0)		; .
   8059	011776	024040 				CMP	-(R0),-(R0)	; .POINT BACK TO BEGINNING
   8060	012000	077105 				SOB	R1,10$		; .AND LOOP 'TILL DONE
   8061	012002	000405 				BR	30$		; .DONE -- EXIT
   8062						;
   8063	012004				20$:				; .HERE TO SHIFT RIGHT
   8064	012004	022020 				CMP	(R0)+,(R0)+	; .FIX POINTER TO POINT TO HIGH PART
   8065	012006	006210 				ASR	(R0)		; .SHIFT HIGH PART
   8066	012010	006040 				ROR	-(R0)		; .THEN MIDDLE PART
   8067	012012	006040 				ROR	-(R0)		; .THEN LOW PART
   8068	012014	077105 				SOB	R1,20$		; .UNTIL DONE
   8069	012016				30$:
   8070	012016					POP	R1		; .RESTORE R1
	012016	012601 				 MOV	(SP)+,R1
   8071	012020					RETURN			; AND RETURN TO CALLER
	012020	000207 				 RTS	PC
TPSIM -- TRIPLE PRECISION ARITH	MACRO M1113  10-NOV-81 17:44  PAGE 208
.TPSHL -- SHIFT A 48 BIT NUMBER BY A 48 BIT NUMBER 7601.19

   8073					.SBTTL	.TPSHL -- SHIFT A 48 BIT NUMBER BY A 48 BIT NUMBER 7601.19
   8074
   8075					;+
   8076					; .TPSHL -- SUBROUTINE TO SHIFT A 48 BIT NUMBER BY A 48 BIT NUMBER.
   8077					;
   8078					; THIS SUBROUTINE WILL SHIFT THE 48 BIT NUMBER POINTED TO BY R0 BY
   8079					; THE 48 BIT NUMBER POINTED TO BY R1 IN THE CALL. BOTH POINTERS ARE
   8080					; RETURNED UNALTERED, AND NO OTHER REGISTERS ARE ALTERED BY THE
   8081					; SUBROUTINE. THE DIRECTION OF THE SHIFT IS DETERMINED BY THE SIGN
   8082					; OF THE 48 BIT NUMBER POINTED TO BY R1.
   8083					;
   8084					; INPUT ARGUMENTS:
   8085					;
   8086					;	R0 POINTS TO THE NUMBER TO BE SHIFTED
   8087					;	R1 POINTS TO THE SHIFT COUNT
   8088					;
   8089					; OUTPUT ARGUMENTS:
   8090					;
   8091					;	R0 POINTS TO THE SHIFTED NUMBER
   8092					;	R1 POINTS TO THE SHIFT COUNT
   8093					;
   8094					; ERROR CODES RETURNED:
   8095					;
   8096					;	NONE.
   8097					;-
   8098
   8099	012022				.TPSHL::
   8100	012022					PUSH	<(R1)+,(R1)+,(R1),R1>
	012022	012146 				 MOV	(R1)+,-(SP)
	012024	012146 				 MOV	(R1)+,-(SP)
	012026	011146 				 MOV	(R1),-(SP)
	012030	010146 				 MOV	R1,-(SP)
   8101	012032	024141 				CMP	-(R1),-(R1)	; ....BACK THE POINTER UP
   8102	012034					PUSH	<R2,R0>		; ....SAVE R2 AND R0
	012034	010246 				 MOV	R2,-(SP)
	012036	010046 				 MOV	R0,-(SP)
   8103	012040	010100 				MOV	R1,R0		; ......POINT TO THE SHIFT COUNT
   8104	012042					CALL	.TPXTN		; ......DO THE SIGN EXTENSION
	012042	004737 	011404'			 JSR	PC,.TPXTN
   8105	012046					CALL	.TPTST		; ......SEE WHAT IT IS
	012046	004737 	011460'			 JSR	PC,.TPTST
   8106	012052	001432 				BEQ	30$		; ......EXIT IF .EQ. ZERO
   8107	012054	002415 				BLT	20$		; ......SHIFT RIGHT IF .LT. ZERO
   8108
   8109					;	[CONTINUED ON THE FOLLOWING PAGE]
TPSIM -- TRIPLE PRECISION ARITH	MACRO M1113  10-NOV-81 17:44  PAGE 209
.TPSHL -- SHIFT A 48 BIT NUMBER BY A 48 BIT NUMBER 7601.19

   8111					;	[CONTINUED FROM THE PREVIOUS PAGE]
   8112
   8113	012056				10$:				; ......HERE TO SHIFT LEFT
   8114	012056	010002 				MOV	R0,R2		; ......SHIFT COUNT POINTER TO R2
   8115	012060	011600 				MOV	(SP),R0		; ......POINT TO THE NUMBER
   8116	012062	012701 	000001 			MOV	#^D1,R1		; ......SUBSTITUTE SHIFT COUNT
   8117	012066					CALL	.TPSHI		; ......SHIFT IT ONCE
	012066	004737 	011756'			 JSR	PC,.TPSHI
   8118	012072	010200 				MOV	R2,R0		; ......REAL SHIFT COUNT POINTER TO R0
   8119	012074					CALL	.TPDEC		; ......DECREMENT IT
	012074	004737 	011534'			 JSR	PC,.TPDEC
   8120	012100					CALL	.TPTST		; ......ARE WE DONE?
	012100	004737 	011460'			 JSR	PC,.TPTST
   8121	012104	001364 				BNE	10$		; ......NO -- KEEP GOING
   8122	012106	000414 				BR	30$		; ......YES -- EXIT
   8123						;
   8124	012110				20$:				; ......HERE TO SHIFT RIGHT
   8125	012110	010002 				MOV	R0,R2		; ......SHIFT COUNT TO R2
   8126	012112	011600 				MOV	(SP),R0		; ......POINT TO THE NUMBER
   8127	012114	012701 	177777 			MOV	#-^D1,R1	; ......SUBSTITUTE SHIFT COUNT
   8128	012120					CALL	.TPSHI		; ......SHIFT IT
	012120	004737 	011756'			 JSR	PC,.TPSHI
   8129	012124	010200 				MOV	R2,R0		; ......REAL SHIFT COUNT POINTER TO R0
   8130	012126					CALL	.TPINC		; ......INCREMENT IT
	012126	004737 	011522'			 JSR	PC,.TPINC
   8131	012132					CALL	.TPTST		; ......ARE WE DONE?
	012132	004737 	011460'			 JSR	PC,.TPTST
   8132	012136	001364 				BNE	20$		; ......NO -- KEEP GOING
   8133	012140				30$:
   8134	012140					POP	<R0,R2>		; ......RESTORE R0 AND R2
	012140	012600 				 MOV	(SP)+,R0
	012142	012602 				 MOV	(SP)+,R2
   8135	012144					POP	<R1,(R1),-(R1),-(R1)>
	012144	012601 				 MOV	(SP)+,R1
	012146	012611 				 MOV	(SP)+,(R1)
	012150	012641 				 MOV	(SP)+,-(R1)
	012152	012641 				 MOV	(SP)+,-(R1)
   8136	012154					RETURN			; RETURN TO CALLER
	012154	000207 				 RTS	PC
TRACK -- DIAGNOSTIC FUNCTION TR	MACRO M1113  10-NOV-81 17:44  PAGE 210
.TPSHL -- SHIFT A 48 BIT NUMBER BY A 48 BIT NUMBER 7601.19

   8138					.TITLE	TRACK -- DIAGNOSTIC FUNCTION TRACK MODULE 7603.30
   8139
   8140						.IDENT	"005000"
   8141
   8142					;
   8143					;                             COPYRIGHT (C) 1975, 1979 BY
   8144					;                     DIGITAL EQUIPMENT CORPORATION, MAYNARD MASS.
   8145					;
   8146					;       THIS SOFTWARE IS FURNISHED UNDER A LICENSE AND MAY BE  USED  AND  COPIED
   8147					;       ONLY IN ACCORDANCE WITH THE TERMS OF SUCH LICENSE AND WITH THE INCLUSION
   8148					;       OF THE ABOVE COPYRIGHT NOTICE.  THIS SOFTWARE OR ANY OTHER COPIES THERE-
   8149					;       OF  MAY NOT BE PROVIDED OR OTHERWISE MADE AVAILABLE TO ANY OTHER PERSON.
   8150					;       NO TITLE TO OR OWNERSHIP OF THE SOFTWARE IS HEREBY TRANSFERRED.
   8151					;
   8152					;       THE INFORMATION CONTAINED IN THIS SOFTWARE IS SUBJECT TO CHANGE  WITHOUT
   8153					;       NOTICE  AND SHOULD NOT BE CONSTRUED AS A COMMITMENT BY DIGITAL EQUIPMENT
   8154					;       CORPORATION.
   8155					;
   8156					;       DIGITAL ASSUMES NO RESPONSIBILITY FOR THE  USE  OR  RELIABILITY  OF  ITS
   8157					;       SOFTWARE ON EQUIPMENT WHICH IS NOT SUPPILED BY DIGITAL.
   8158					;
   8159					;		MODULE: DAIGNOSTIC FUNCTION TRACK
   8160					;
   8161					;		VERSION: 05-00
   8162					;
   8163					;		AUTHOR: R. BELANGER
   8164					;
   8165					;		DATE: 7603.30
   8166					;
   8167					;	THIS MODULE CONTAINS:
   8168					;
   8169					;	1) DIAGNOSTIC FUNCTION TRACK CODE
TRACK -- DIAGNOSTIC FUNCTION TR	MACRO M1113  10-NOV-81 17:44  PAGE 211
.TRACK -- DIAGNOSTIC FUNCTION TRACK SUBROUTINE 7512.09

   8171					.SBTTL	.TRACK -- DIAGNOSTIC FUNCTION TRACK SUBROUTINE 7512.09
   8172
   8173					;+
   8174					; .FRTRK -- SUBROUTINE TO TRACK A FUNCTION READ.
   8175					; .FWTRK -- SUBROUTINE TO TRACK A FUNCTION WRITE.
   8176					; .FXTRK -- SUBROUTINE TO TRACK A FUNCTION EXECUTE.
   8177					;
   8178					; THESE SUBROUTINES TRACK A FUNCTION READ, WRITE, OR EXECUTE
   8179					; BY DISPLAYING THE FUNCTION CODE AND THE CONTENT OF THE BUFFER
   8180					; ON THE FRONT END OUTPUT DEVICE.
   8181					;
   8182					; THESE SUBROUTINES ARE CALLED INTERNALLY AND ARE DEPENDENT UPON THE
   8183					; STATE OF THE SWITCHES IN ".TRKWD". THE ".TRKWD" SWITCHES ARE TURNED
   8184					; ON OR OFF BY THE "SET" AND "CLEAR TRACK" COMMANDS, RESPECTIVELY.
   8185					;
   8186					; ERROR CODES RETURNED:
   8187					;
   8188					;	NONE.
   8189					;-
   8190
   8192
   8193						.ENABL	LSB
   8194
   8195	012156				.FRTRK::
   8196	012156					PUSH	R0		; SAVE R0 ON THE STACK
	012156	010046 				 MOV	R0,-(SP)
   8197	012160					PUSH	.KLDFR+2	; .SAVE THE FR CODE TOO
	012160	013746 	000340'			 MOV	.KLDFR+2,-(SP)
   8198	012164					PUSH	#.DFRB		; ..AND THE BUFFER ADDRESS
	012164	012746 	000312'			 MOV	#.DFRB,-(SP)
   8199	012170	012700 	001765'			MOV	#TFRMSG,R0	; ...MESSAGE POINTER TO R0
   8200	012174	000416 				BR	10$		; ...DO THE TRACKING
   8201						;
   8202	012176				.FWTRK::
   8203	012176					PUSH	R0		; SAVE R0 ON THE STACK
	012176	010046 				 MOV	R0,-(SP)
   8204	012200					PUSH	.KLDFW+2	; .SAVE THE FW CODE
	012200	013746 	000352'			 MOV	.KLDFW+2,-(SP)
   8205	012204					PUSH	#.DFWB		; ..AND THE BUFFER ADDRESS
	012204	012746 	000304'			 MOV	#.DFWB,-(SP)
   8206	012210	012700 	002002'			MOV	#TFWMSG,R0	; ...MESSAGE POINTER TO R0
   8207	012214	000406 				BR	10$		; ...GO TRACK IT
   8208						;
   8209	012216				.FXTRK::
   8210	012216					PUSH	R0		; SAVE R0 ON THE STACK
	012216	010046 				 MOV	R0,-(SP)
   8211	012220					PUSH	.KLDFX+2	; .SAVE THE FX CODE
	012220	013746 	000364'			 MOV	.KLDFX+2,-(SP)
   8212	012224	005046 				CLR	-(SP)		; ..NO BUFFER ADDRESS
   8213	012226	012700 	002017'			MOV	#TFXMSG,R0	; ...MESSAGE POINTER TO R0
   8214					;	BR	10$		; ...AND FALL INTO COMMON CODE
   8215						;
   8216
   8217					;	[CONTINUED ON THE FOLLOWING PAGE]
TRACK -- DIAGNOSTIC FUNCTION TR	MACRO M1113  10-NOV-81 17:44  PAGE 212
.TRACK -- DIAGNOSTIC FUNCTION TRACK SUBROUTINE 7512.09

   8219					;	[CONTINUED FROM THE PREVIOUS PAGE]
   8220
   8221	012232				10$:
   8222	012232	012737 	177777 	000166'		MOV	#-^D1,.LDZFL	; ...PRINT LEADING ZEROES
   8223	012240					CALL	.TYMSG		; ...PRINT THE MESSAGE
	012240	004737 	015446'			 JSR	PC,.TYMSG
   8224	012244	016600 	000002 			MOV	2(SP),R0	; ...GET THE FUNCTION CODE
   8225	012250	000300 				SWAB	R0		; ...SWAP THE BYTES
   8226	012252	042700 	177400 			BIC	#177400,R0	; ...FLUSH JUNK FROM HIGH BYTE
   8227	012256	006200 				ASR	R0		; ...DIVIDE IT BY 2
   8228	012260					CALL	.TYP3D		; ...TYPE THAT
	012260	004737 	015016'			 JSR	PC,.TYP3D
   8229	012264	011600 				MOV	(SP),R0		; ...BUFFER ADDRESS?
   8230	012266	001406 				BEQ	20$		; ...NO -- JUST EXIT
   8231	012270					CALL	.TYSLS		; ...YES --  TYPE A SLASH AND
	012270	004737 	014556'			 JSR	PC,.TYSLS
   8232	012274					CALL	.TYSPC		; ...TYPE A <SPACE> AND
	012274	004737 	014566'			 JSR	PC,.TYSPC
   8233	012300					CALL	.TYKLN		; ...TYPE ITS CONTENT
	012300	004737 	015142'			 JSR	PC,.TYKLN
   8234	012304				20$:
   8235	012304					CALL	.TCRLF		; ...NOW A <CRLF>
	012304	004737 	015536'			 JSR	PC,.TCRLF
   8236	012310	022626 				CMP	(SP)+,(SP)+	; ...GET RID OF BUFFER POINTER AND CODE
   8237	012312					POP	R0		; .RESTORE R0
	012312	012600 				 MOV	(SP)+,R0
   8238	012314					RETURN			; AND GO AWAY
	012314	000207 				 RTS	PC
   8239
   8240						.DSABL	LSB
   8241
   8242	001765				.PSECT	MESSAG
   8243
   8244	001765				TFRMSG:
   8245	001765	   011 	   124 	   122 		.ASCIZ	%	TRACK > FR %
	001770	   101 	   103 	   113
	001773	   040 	   076 	   040
	001776	   106 	   122 	   040
	002001	   000
   8246	002002				TFWMSG:
   8247	002002	   011 	   124 	   122 		.ASCIZ	%	TRACK > FW %
	002005	   101 	   103 	   113
	002010	   040 	   076 	   040
	002013	   106 	   127 	   040
	002016	   000
   8248	002017				TFXMSG:
   8249	002017	   011 	   124 	   122 		.ASCIZ	%	TRACK > FX %
	002022	   101 	   103 	   113
	002025	   040 	   076 	   040
	002030	   106 	   130 	   040
	002033	   000
   8250	012316				.PSECT
   8251
TRACK -- DIAGNOSTIC FUNCTION TR	MACRO M1113  10-NOV-81 17:44  PAGE 213
.DTTRK -- SUBROUTINE TO TRACK DTE-20 OPERATIONS 7512.11

   8254					.SBTTL	.DTTRK -- SUBROUTINE TO TRACK DTE-20 OPERATIONS 7512.11
   8255
   8256					;+
   8257					; .DTTRK -- SUBROUTINE TO TRACK DTE-20 OPERATIONS
   8258					;
   8259					; THIS SUBROUTINE WILL TRACK DTE-20 OPERATIONS AND PRINT ALL DTE-20
   8260					; REFERENCES BY THE COMMAND PARSER ON THE CONSOLE OUTPUT DEVICE.
   8261					; THIS SUBROUTINE IS CALLED INTERNALLY, DEPENDENT UPON THE STATE OF
   8262					; THE DTE-20 TRACK FLAG ("TR.DTE") IN THE TRACK CONTROL WORD, ".TRKWD."
   8263					;
   8264					; CALLING SEQUENCE IS:
   8265					;
   8266					;	CALL	.DTTRK		; TRACK THE DTE-20
   8267					;				; ONLY RETURN
   8268					;
   8269					; THE DTE-20 REGISTER OPERATED UPON IS IDENTIFIED BY ONE OF THE FOLLOWING:
   8270					;
   8271					;	(A) DIAG 1 - DIAG WORD 1,
   8272					;	(B) DIAG 2 - DIAG WORD 2,
   8273					;	(C) STATUS - STATUS WORD,
   8274					;	(D) DIAG 3 - DIAG WORD 3.
   8275					;
   8276					; A READ OPERATION IS IDENTIFIED BY "RD", AND A WRITE OPERATION BY "WR".
   8277					;
   8278					; NO REGISTERS ARE ALTERED BY THIS SUBROUTINE.
   8279					;
   8280					; ERROR CODES RETURNED:
   8281					;
   8282					;	NONE.
   8283					;-
   8284
TRACK -- DIAGNOSTIC FUNCTION TR	MACRO M1113  10-NOV-81 17:44  PAGE 214
.DTTRK -- SUBROUTINE TO TRACK DTE-20 OPERATIONS 7512.11

   8287	012316				.DTTRK::
   8288	012316	012737 	177777 	000166'		MOV	#-^D1,.LDZFL	; PRINT LEADING ZEROES
   8289	012324					PUSH	R0		; SAVE R0
	012324	010046 				 MOV	R0,-(SP)
   8290	012326	012700 	002034'			MOV	#DTRMSG,R0	; .MESSAGE POINTER TO R0
   8291	012332					CALL	.TYMSG		; .PRINT IT
	012332	004737 	015446'			 JSR	PC,.TYMSG
   8292	012336	113700 	000303'			MOVB	.REGRW+3,R0	; .GET THE REGISTER OFFSET
   8293	012342	016000 	007130'			MOV	REGTAB(R0),R0	; .REGISTER MESSAGE POINTER TO R0
   8294	012346					CALL	.TYMSG		; .TYPE IT
	012346	004737 	015446'			 JSR	PC,.TYMSG
   8295	012352					CALL	.TYSPC		; .NOW A <SPACE>
	012352	004737 	014566'			 JSR	PC,.TYSPC
   8296	012356	005737 	000304'			TST	.REGRW+4	; .IS THIS A WRITE?
   8297	012362	001002 				BNE	10$		; .YES -- GO ON
   8298	012364	011600 				MOV	(SP),R0		; .NO -- DATA TO R0
   8299	012366	000402 				BR	20$		; .GO PRINT IT
   8300						;
   8301	012370				10$:
   8302	012370	017700 	000304'			MOV	@.REGRW+4,R0	; .GET WRITTEN DATA
   8303	012374				20$:
   8304	012374					CALL	.TYELN		; .PRINT THE DATA
	012374	004737 	014752'			 JSR	PC,.TYELN
   8305	012400	012700 	002115'			MOV	#DRDMSG,R0	; .READ MESSAGE POINTER TO R0
   8306	012404	005737 	000304'			TST	.REGRW+4	; .WAS IT A WRITE?
   8307	012410	001402 				BEQ	30$		; .YES -- GO ON
   8308	012412	012700 	002121'			MOV	#DWRMSG,R0	; .NO -- WRITE MESSAGE POINTER TO R0
   8309	012416				30$:
   8310	012416					CALL	.TYLIN		; .PRINT IT AND A <CRLF>
	012416	004737 	015432'			 JSR	PC,.TYLIN
   8311	012422					POP	R0		; .RESTORE R0
	012422	012600 				 MOV	(SP)+,R0
   8312	012424					RETURN			; TO CALLER
	012424	000207 				 RTS	PC
TRACK -- DIAGNOSTIC FUNCTION TR	MACRO M1113  10-NOV-81 17:44  PAGE 215
.DTTRK -- SUBROUTINE TO TRACK DTE-20 OPERATIONS 7512.11

   8314	007130				.PSECT	DATA
   8315
   8316	007130				REGTAB:
   8317	007130	002055'				.WORD	DW1MSG		; MESSAGE POINTERS
   8318	007132	002065'				.WORD	DW2MSG
   8319	007134	002075'				.WORD	STAMSG
   8320	007136	002105'				.WORD	DW3MSG
   8321
   8322	002034				.PSECT	MESSAG
   8323	002034				DTRMSG:
   8324	002034	   011 	   124 	   122 		.ASCIZ	%	TRACK > DTE-20 %
	002037	   101 	   103 	   113
	002042	   040 	   076 	   040
	002045	   104 	   124 	   105
	002050	   055 	   062 	   060
	002053	   040 	   000
   8325
   8326	002055				DW1MSG:
   8327	002055	   104 	   111 	   101 		.ASCIZ	%DIAG 1/%
	002060	   107 	   040 	   061
	002063	   057 	   000
   8328	002065				DW2MSG:
   8329	002065	   104 	   111 	   101 		.ASCIZ	%DIAG 2/%
	002070	   107 	   040 	   062
	002073	   057 	   000
   8330	002075				STAMSG:
   8331	002075	   123 	   124 	   101 		.ASCIZ	%STATUS/%
	002100	   124 	   125 	   123
	002103	   057 	   000
   8332	002105				DW3MSG:
   8333	002105	   104 	   111 	   101 		.ASCIZ	%DIAG 3/%
	002110	   107 	   040 	   063
	002113	   057 	   000
   8334
   8335	002115				DRDMSG:
   8336	002115	   040 	   122 	   104 		.ASCIZ	% RD%
	002120	   000
   8337	002121				DWRMSG:
   8338	002121	   040 	   127 	   122 		.ASCIZ	% WR%
	002124	   000
   8339	012426				.PSECT
   8340
TRACK -- DIAGNOSTIC FUNCTION TR	MACRO M1113  10-NOV-81 17:44  PAGE 216
.EDTRK -- EXAMINE / DEPOSIT TRACK SUBROUTINE 7512.09

   8343					.SBTTL	.EDTRK -- EXAMINE / DEPOSIT TRACK SUBROUTINE 7512.09
   8344
   8345					;+
   8346					; .EXTRK -- SUBROUTINE TO TRACK A KL EXAMINE.
   8347					; .DPTRK -- SUBROUTINE TO TRACK A KL DEPOSIT.
   8348					;
   8349					; THESE SUBROUTINES WILL TRACK A KL EXAMINE OR DEPOSIT BY
   8350					; DISPLAYING THE ADDRESS, DATA, AND REFERENCE TYPE OF THE EXAMINE
   8351					; OR DEPOSIT ON THE CONSOLE DEVICE AS IT IS EXECUTED.
   8352					;
   8353					; THESE SUBROUTINES ARE CALLED INTERNALLY DEPENDENT ON THE STATE OF
   8354					; THE TRACK CONTROL WORD ".TRKWD".
   8355					;
   8356					; THE SWITCHES IN ".TRKWD" ARE TURNED ON OR OFF BY THE "SET" AND
   8357					; "CLEAR TRACK" COMMANDS, RESPECTIVELY.
   8358					;
   8359					; NO REGISTERS ARE ALTERED BY THESE SUBROUTINES.
   8360					;
   8361					; ERROR CODES RETURNED:
   8362					;
   8363					;	NONE.
   8364					;-
   8365
   8367
   8368						.ENABL	LSB
   8369
   8370	012426				.EXTRK::
   8371	012426					CALL	R5,.REGSV	; SAVE R5 - R1 ON THE STACK
	012426	004537 	010302'			 JSR	R5,.REGSV
   8372	012432	012705 	002151'			MOV	#ETRMSG,R5	; PREAMBLE TO TYPE
   8373	012436	000404 				BR	10$		; DO COMMON CODE
   8374						;
   8375	012440				.DPTRK::
   8376	012440					CALL	R5,.REGSV	; SAVE R5 - R1 ON THE STACK
	012440	004537 	010302'			 JSR	R5,.REGSV
   8377	012444	012705 	002166'			MOV	#DTKMSG,R5	; PREAMBLE TO TYPE
   8378									; AND FALL INTO COMMON CODE
   8379
   8380					;	[CONTINUED ON THE FOLLOWING PAGE]
TRACK -- DIAGNOSTIC FUNCTION TR	MACRO M1113  10-NOV-81 17:44  PAGE 217
.EDTRK -- EXAMINE / DEPOSIT TRACK SUBROUTINE 7512.09

   8382					;	[CONTINUED FROM THE PREVIOUS PAGE]
   8383
   8384	012450				10$:
   8385	012450					PUSH	R0		; SAVE R0 ON THE STACK
	012450	010046 				 MOV	R0,-(SP)
   8386	012452	011100 				MOV	(R1),R0		; .GET ADDRESS POINTER
   8387	012454	012702 	007140'			MOV	#TRADDR,R2	; .POINT TO OUR BLOCK
   8388	012460	012022 				MOV	(R0)+,(R2)+	; .AND LOAD IT
   8389	012462	012022 				MOV	(R0)+,(R2)+	; .
   8390	012464	005012 				CLR	(R2)		; .ZERO THE LAST WORD
   8391	012466	016100 	000002 			MOV	2(R1),R0	; .GET DATA POINTER
   8392	012472	012702 	007146'			MOV	#TRDATA,R2	; .POINT TO OUR BLOCK
   8393	012476	012022 				MOV	(R0)+,(R2)+	; .AND LOAD IT
   8394	012500	012022 				MOV	(R0)+,(R2)+	; .
   8395	012502	011012 				MOV	(R0),(R2)	; .
   8396	012504	010500 				MOV	R5,R0		; .PREAMBLE POINTER TO R0
   8397	012506					CALL	.TYMSG		; .PRINT IT
	012506	004737 	015446'			 JSR	PC,.TYMSG
   8398	012512	012700 	007140'			MOV	#TRADDR,R0	; .POINT TO ADDRESS
   8399	012516					CALL	.TYKLA		; .PRINT IT
	012516	004737 	015072'			 JSR	PC,.TYKLA
   8400	012522					CALL	.TYSLS		; .TYPE A SLASH
	012522	004737 	014556'			 JSR	PC,.TYSLS
   8401	012526					CALL	.TYSPC		; .AND A <SPACE>
	012526	004737 	014566'			 JSR	PC,.TYSPC
   8402	012532	012700 	007146'			MOV	#TRDATA,R0	; .POINT TO DATA
   8403	012536					CALL	.TYKLN		; .PRINT IT
	012536	004737 	015142'			 JSR	PC,.TYKLN
   8404	012542					CALL	.TYSPC		; .AND A <SPACE>
	012542	004737 	014566'			 JSR	PC,.TYSPC
   8405	012546	011600 				MOV	(SP),R0		; .GET TYPE
   8406	012550	006200 				ASR	R0		; .DIVIDE BY 16
   8407	012552	006200 				ASR	R0		; .
   8408	012554	006200 				ASR	R0		; .
   8409	012556	006200 				ASR	R0		; .
   8410	012560	016000 	007154'			MOV	EDTYTB(R0),R0	; .GET TYPE POINTER
   8411	012564					CALL	.TYLIN		; .PRINT IT AND A <CRLF>
	012564	004737 	015432'			 JSR	PC,.TYLIN
   8412	012570					POP	R0		; .AND R0
	012570	012600 				 MOV	(SP)+,R0
   8413	012572					RETURN			; TO CALLER
	012572	000207 				 RTS	PC
   8414
   8415						.DSABL	LSB
TRACK -- DIAGNOSTIC FUNCTION TR	MACRO M1113  10-NOV-81 17:44  PAGE 218
.EDTRK -- EXAMINE / DEPOSIT TRACK SUBROUTINE 7512.09

   8417	007140				.PSECT	DATA
   8418
   8419	007140				TRADDR:
   8420	007140	000000 	000000 	000000 		.WORD	0,0,0		; SPACE FOR ADDRESS
   8421	007146				TRDATA:
   8422	007146	000000 	000000 	000000 		.WORD	0,0,0		; SPACE FOR DATA
   8423	007154				EDTYTB:				; POINTERS FOR TYPE MESSAGES
   8424	007154	002125'				.WORD	EDEPT		; EPT SPACE
   8425	007156	002131'				.WORD	EDEXV		; EXEC VIRTUAL SPACE
   8426	007160	002135'				.WORD	EDUPT		; UPT SPACE
   8427	007162	002141'				.WORD	EDUSV		; USER VIRTUAL
   8428	007164	002145'				.WORD	EDPHY		; PHYSICAL SPACE
   8429
   8430	002125				.PSECT	MESSAG
   8431	002125				EDEPT:
   8432	002125	   105 	   120 	   124 		.ASCIZ	%EPT%
	002130	   000
   8433	002131				EDEXV:
   8434	002131	   105 	   126 	   123 		.ASCIZ	%EVS%
	002134	   000
   8435	002135				EDUPT:
   8436	002135	   125 	   120 	   124 		.ASCIZ	%UPT%
	002140	   000
   8437	002141				EDUSV:
   8438	002141	   125 	   126 	   123 		.ASCIZ	%UVS%
	002144	   000
   8439	002145				EDPHY:
   8440	002145	   120 	   110 	   131 		.ASCIZ	%PHY%
	002150	   000
   8441	002151				ETRMSG:
   8442	002151	   011 	   124 	   122 		.ASCIZ	%	TRACK > EX %
	002154	   101 	   103 	   113
	002157	   040 	   076 	   040
	002162	   105 	   130 	   040
	002165	   000
   8443	002166				DTKMSG:
   8444	002166	   011 	   124 	   122 		.ASCIZ	%	TRACK > DP %
	002171	   101 	   103 	   113
	002174	   040 	   076 	   040
	002177	   104 	   120 	   040
	002202	   000
   8445	012574				.PSECT
   8446
TYINP -- COMMAND PARSER COMMAND	MACRO M1113  10-NOV-81 17:44  PAGE 219
.EDTRK -- EXAMINE / DEPOSIT TRACK SUBROUTINE 7512.09

   8449					.TITLE	TYINP -- COMMAND PARSER COMMAND INPUT MODULE 7603.30
   8450
   8451						.IDENT	"006110"
   8452
   8453					;
   8454					;                             COPYRIGHT (C) 1975, 1979 BY
   8455					;                     DIGITAL EQUIPMENT CORPORATION, MAYNARD MASS.
   8456					;
   8457					;       THIS SOFTWARE IS FURNISHED UNDER A LICENSE AND MAY BE  USED  AND  COPIED
   8458					;       ONLY IN ACCORDANCE WITH THE TERMS OF SUCH LICENSE AND WITH THE INCLUSION
   8459					;       OF THE ABOVE COPYRIGHT NOTICE.  THIS SOFTWARE OR ANY OTHER COPIES THERE-
   8460					;       OF  MAY NOT BE PROVIDED OR OTHERWISE MADE AVAILABLE TO ANY OTHER PERSON.
   8461					;       NO TITLE TO OR OWNERSHIP OF THE SOFTWARE IS HEREBY TRANSFERRED.
   8462					;
   8463					;       THE INFORMATION CONTAINED IN THIS SOFTWARE IS SUBJECT TO CHANGE  WITHOUT
   8464					;       NOTICE  AND SHOULD NOT BE CONSTRUED AS A COMMITMENT BY DIGITAL EQUIPMENT
   8465					;       CORPORATION.
   8466					;
   8467					;       DIGITAL ASSUMES NO RESPONSIBILITY FOR THE  USE  OR  RELIABILITY  OF  ITS
   8468					;       SOFTWARE ON EQUIPMENT WHICH IS NOT SUPPILED BY DIGITAL.
   8469					;
   8470					;		MODULE: COMMAND PARSER COMMAND INPUT
   8471					;
   8472					;		VERSION: 06-11
   8473					;
   8474					;		AUTHOR: R. BELANGER
   8475					;
   8476					;		DATE: 7603.30
   8477					;
   8478					;	THIS MODULE CONTAINS:
   8479					;
   8480					;	1) COMMAND LINE INPUT CODE
TYINP -- COMMAND PARSER COMMAND	MACRO M1113  10-NOV-81 17:44  PAGE 220
.GTCMD -- SUBROUTINE TO GET A COMMAND LINE 7601.22

   8482					.SBTTL	.GTCMD -- SUBROUTINE TO GET A COMMAND LINE 7601.22
   8483
   8484					;+
   8485					; .GTCMD -- SUBROUTINE TO GET A COMMAND LINE FROM THE CONSOLE INPUT
   8486					;	    BUFFER.
   8487					;
   8488					; THIS SUBROUTINE WILL GET A COMMAND LINE FROM THE CONSOLE INPUT DEVICE
   8489					; BUFFER AND PLACE IT INTO THE COMMAND BUFFER.
   8490					;
   8491					; INPUT ARGUMENTS:
   8492					;
   8493					;	R5 POINTS TO THE DESTINATION BUFFER.
   8494					;
   8495					; OUTPUT ARGUMENTS:
   8496					;
   8497					;	R5 POINTS TO THE BEGINNING OF THE COMMAND BUFFER
   8498					;	".INCHC" HAS THE COUNT OF THE CHARACTERS IN THE COMMAND BUFFER
   8499					;	THE LAST CHARACTER IN THE COMMAND BUFFER IS A "<NULL>".
   8500					;
   8501					; ERROR CODES RETURNED:
   8502					;
   8503					;	IF THE CONSOLE INPUT FAILS, THE PARSER WILL EXIT.
   8504					;
   8505					;	CBO -- COMMAND BUFFER OVERFLOW.
   8506					;	ILC -- ILLEGAL CHARACTER.
   8507					;-
   8508
   8509	012574				.GTCMD::
   8510	012574	010501 				MOV	R5,R1		; COMMAND BUFFER POINTER TO R1
   8511	012576				10$:
   8512	012576					PUSH	R1		; SAVE R1 ON THE STACK
	012576	010146 				 MOV	R1,-(SP)
   8513	012600					CALL	.GTLIN		; .GO GET THE COMMAND LINE
	012600	004737 	012630'			 JSR	PC,.GTLIN
   8514	012604	022601 				CMP	(SP)+,R1	; .DID THE POINTER CHANGE?
   8515	012606	001407 				BEQ	20$		; NO -- JUST EXIT
   8516	012610	122741 	000055 			CMPB	#'-,-(R1)	; YES -- WAS LAST CHARACTER LINE CONTINUATION?
   8517	012614	001004 				BNE	20$		; NO -- EXIT
   8518	012616	111100 				MOVB	(R1),R0		; YES -- PROMPT FOR CONTINUATION
   8519	012620					CALL	.TFCHR		; FORCE PRINT THE PROMPT
	012620	004737 	015470'			 JSR	PC,.TFCHR
   8520	012624	000764 				BR	10$		; AND GO GET THE REST OF THE LINE
   8521						;
   8522	012626				20$:
   8523	012626					RETURN			; TO CALLER
	012626	000207 				 RTS	PC
TYINP -- COMMAND PARSER COMMAND	MACRO M1113  10-NOV-81 17:44  PAGE 221
.GTLIN -- SUBROUTINE TO INPUT A LINE FROM THE CONSOLE 7601.22

   8525					.SBTTL	.GTLIN -- SUBROUTINE TO INPUT A LINE FROM THE CONSOLE 7601.22
   8526
   8527					;+
   8528					; .GTLIN -- SUBROUTINE TO GET AN INPUT LINE FROM THE CONSOLE
   8529					;
   8530					; THIS SUBROUTINE WILL GET A LINE OF INPUT FROM THE CONSOLE DEVICE
   8531					; AND PERFORM THE FOLLOWING CHARACTER CONVERSIONS:
   8532					;
   8533					;	(A) LOWER CASE CHARACTERS ARE CONVERTED TO UPPER CASE
   8534					;	(B) "<TAB>" IS CONVERTED TO "<SPACE>"
   8535					;
   8536					; INPUT ARGUMENTS:
   8537					;
   8538					;	R1 POINTS TO THE BEGINNING OF THE DESTINATION BUFFER
   8539					;
   8540					; OUTPUT ARGUMENTS:
   8541					;
   8542					;	R1 POINTS TO THE END OF THE DESTINATION BUFFER
   8543					;
   8544					; ERROR CODES RETURNED:
   8545					;
   8546					;	IF THE CONSOLE INPUT FAILS, THE PARSER WILL EXIT.
   8547					;
   8548					;	CBO -- COMMAND BUFFER OVERFLOW.
   8549					;	FRD -- FILE READ FAILURE
   8550					;	ILC -- ILLEGAL CHARACTER.
   8551					;-
   8552
   8553						.MCALL	DIR$, QIOW$
   8554
   8555	012630				.GTLIN::
   8556	012630					PUSH	<R0,R2,R3,R4>	; SAVE SOME REGISTERS
	012630	010046 				 MOV	R0,-(SP)
	012632	010246 				 MOV	R2,-(SP)
	012634	010346 				 MOV	R3,-(SP)
	012636	010446 				 MOV	R4,-(SP)
   8557	012640	012700 	000330'			MOV	#.CIBFR,R0	; ...INPUT BUFFER POINTER TO R0
   8558	012644	005037 	000132'			CLR	.INCHC		; ...CLEAR THE CHARACTER COUNTER
   8559	012650	005737 	001626'			TST	.INDFG		; [5.1000]IS INPUT REDIRECTED TO FILE?
   8561	012654	001011 				BNE	10$		; [5.1000]YES -- GET INPUT FROM FILE
   8562	012656	005737 	000144'			TST	.KLEDF		; [5.1006]NO -- GET DEFAULT COMMANDS?
   8563	012662	001427 				BEQ	12$		; [5.1006]NO -- GET INPUT FROM CTY
   8564	012664					CALL	.KLE		; [5.1006]YES -- GET COMMANDS
	012664	004737 	000000G			 JSR	PC,.KLE
   8565	012670	005737 	000006'			TST	.CISTS+2	; [5.1006]ANY COMMAND?
   8566	012674	001442 				BEQ	15$		; [5.1006]NO -- DONE
   8567	012676	000407 				BR	11$		; [5.1006]YES -- ECHO COMMANDS
   8571	012700	012702 	000330'		10$:	MOV	#.CIBFR,R2	; [5.1000]YES -- SET UP INPUT BUFFER
   8572	012704	012703 	000004'			MOV	#.CISTS,R3	; [5.1000]STATUS PTR
   8573	012710					CALL	.READR		; [5.1000]GET THE COMMAND
	012710	004737 	002224'			 JSR	PC,.READR
   8574	012714	103432 				BCS	15$		; [5.1000]EOF ENCOUNTERED
   8575	012716	012737 	000330'	000430'	11$:	MOV	#.CIBFR,.CDOBP	; [5.1000]SET ECHO BUFFER
   8576	012724	013737 	000006'	000432'		MOV	.CISTS+2,.CDOBC	; [5.1000]SET BYTE COUNT
   8577	012732	001423 				BEQ	15$		; [5.1000]NULL COMMAND?
   8578	012734					CALL	.TYOUT		; [5.1000]NO -- ECHO IT
	012734	004737 	015564'			 JSR	PC,.TYOUT
TYINP -- COMMAND PARSER COMMAND	MACRO M1113  10-NOV-81 17:44  PAGE 221-1
.GTLIN -- SUBROUTINE TO INPUT A LINE FROM THE CONSOLE 7601.22

   8579	012740	000420 				BR	15$		; [5.1000]PROCESS COMMAND
   8580	012742				12$:	DIR$	#.CDINP		; ...READ THE LINE INTO INPUT BUFFER
	012742	012746 	000374'			MOV	#.CDINP,-(SP)
	012746	104375 				EMT	375
   8581	012750	103457 				BCS	70$		; ...GIVE CONSOLE INPUT FAILED ERROR
   8582	012752	105737 	000004'			TSTB	.CISTS		; ...TEST THE STATUS BYTE
   8583	012756	002454 				BLT	70$		; ...GIVE CONSOLE INPUT FAILED ERROR
   8584	012760	012737 	000330'	000452'		MOV	#.CIBFR,.LDOBP	; [5.1000]NO -- SET LOG,LPT OUTPUT BUFFER
   8585	012766	013737 	000006'	000454'		MOV	.CISTS+2,.LDOBC	; [5.1000]SET BYTE COUNT
   8586	012774	001402 				BEQ	15$		; [5.1000]NULL COMMAND?
   8587	012776					CALL	.TYOU1		; [5.1000]NO -- ECHO COMMAND TO LPT,LOG
	012776	004737 	015644'			 JSR	PC,.TYOU1
   8588	013002				15$:	CALL	.TCRLF		; ...ACKNOWLEDGE THE LINE
	013002	004737 	015536'			 JSR	PC,.TCRLF
   8589	013006	013703 	000006'			MOV	.CISTS+2,R3	; ...INPUT BYTE COUNT TO R3
   8590	013012	001415 				BEQ	40$		; ...NULL LINE IF .EQ. 0
   8591	013014				20$:
   8592	013014	112004 				MOVB	(R0)+,R4	; ...GET THE CHARACTER INTO R4
   8593	013016	001441 				BEQ	GTLILC		; ...ILLEGAL IF <NULL>
   8594	013020	105764 	001450'			TSTB	.CHTAB(R4)	; ...SEE IF IT IS A LEGAL CHARACTER
   8595	013024	002420 				BLT	50$		; ...NO -- SEE IF IT IS REALLY ILLEGAL
   8596
   8597					;	[CONTINUED ON THE FOLLOWING PAGE]
TYINP -- COMMAND PARSER COMMAND	MACRO M1113  10-NOV-81 17:44  PAGE 222
.GTLIN -- SUBROUTINE TO INPUT A LINE FROM THE CONSOLE 7601.22

   8599					;	[CONTINUED FROM THE PREVIOUS PAGE]
   8600
   8601	013026				30$:
   8602	013026	110421 				MOVB	R4,(R1)+	; ...PUT IT INTO THE OUTPUT BUFFER
   8603	013030	005237 	000132'			INC	.INCHC		; ...INCREMENT THE CHARACTER COUNT
   8604	013034	023727 	000132'	000430 		CMP	.INCHC,#.CMNDL	; ...HAVE WE OVERFLOWED?
   8605	013042	003024 				BGT	GTLCBO		; ...YES -- GIVE ERROR
   8606	013044	077315 				SOB	R3,20$		; ...NO -- LOOP TILL DONE THIS LINE
   8607	013046				40$:
   8608	013046	105011 				CLRB	(R1)		; ...MARK THE END OF LINE
   8609	013050					POP	<R4,R3,R2,R0>	; ...RESTORE THE REGISTERS
	013050	012604 				 MOV	(SP)+,R4
	013052	012603 				 MOV	(SP)+,R3
	013054	012602 				 MOV	(SP)+,R2
	013056	012600 				 MOV	(SP)+,R0
   8610	013060	005737 	000132'			TST	.INCHC		; TEST THE INPUT BYTE COUNT
   8611	013064					RETURN			; TO CALLER
	013064	000207 				 RTS	PC
   8612	013066				50$:				; ...HERE TO CHECK ILLEGAL CHARACTERS
   8613	013066	122704 	000041 			CMPB	#'!,R4		; ...WAS IT A COMMENT?
   8614	013072	001765 				BEQ	40$		; ...YES -- JUST EXIT
   8615	013074	122704 	000011 			CMPB	#11,R4		; ...NO -- WAS IT A <TAB>?
   8619	013100	001010 				BNE	GTLILC		; ...NO -- GIVE "ILC" ERROR
   8621	013102	112704 	000040 			MOVB	#.SPACE,R4	; ...YES -- MAKE IT A <SPACE>
   8622	013106	000747 				BR	30$		; ...AND PUT IT IN THE BUFFER
   8623						;
   8634	013110				70$:
   8635	013110					CALLR	.EXITP		; EXIT GRACEFULLY
	013110	000137 	010074'			 JMP	.EXITP
   8636						;
   8637	013114				GTLCBO:
   8638	013114					ERROR$	CBO		; ERROR -- COMMAND BUFFER OVERFLOW
	013114	012746 	011437 			 MOV	#^RCBO,-(SP)
	013120	104400 				 TRAP	TC.ERR
   8639						;
   8640	013122				GTLILC:
   8641	013122					ERROR$	ILC		; ERROR -- ILLEGAL CHARACTER
	013122	012746 	035043 			 MOV	#^RILC,-(SP)
	013126	104400 				 TRAP	TC.ERR
   8642						;
   8643					; THIS IS THE CONSOLE INPUT DPB
   8644
   8645	000374				.PSECT	DPBS
   8646
   8647	000374				.CDINP::
   8648	000374					QIOW$	IO.RLB,CIDLUN,E.FCID,0,.CISTS,0,<.CIBFR,.CIBFL>
	000374	   003 	   010 			.BYTE	3,$$$ARG
	000376	000000G				.WORD	IO.RLB
	000400	000001 				.WORD	CIDLUN
	000402	   002 	   000 			.BYTE	E.FCID,0
	000404	000004'				.WORD	.CISTS
	000406	000000 				.WORD	0
	000410	000330'				.WORD	.CIBFR
	000412	000214 				.WORD	.CIBFL
   8649
   8650		000410'			.CDIBP=.CDINP+Q.IOPL		; CONSOLE INPUT BYTE POINTER
   8651		000412'			.CDIBC=.CDINP+Q.BYCT		; CONSOLE INPUT BYTE COUNT
TYINP -- COMMAND PARSER COMMAND	MACRO M1113  10-NOV-81 17:44  PAGE 222-1
.GTLIN -- SUBROUTINE TO INPUT A LINE FROM THE CONSOLE 7601.22

   8652
   8653	013130				.PSECT
TYINP -- COMMAND PARSER COMMAND	MACRO M1113  10-NOV-81 17:44  PAGE 223
.ELNCK -- TEST FOR A LEGAL PDP-11 NUMBER 7611.01

   8655					.SBTTL	.ELNCK -- TEST FOR A LEGAL PDP-11 NUMBER 7611.01
   8656
   8657					;+
   8658					; .ELNCK -- SUBROUTINE TO TEST FOR A LEGAL PDP-11 NUMBER
   8659					;
   8660					; THIS SUBROUTINE WILL TEST A NUMBER TO SEE IF IT IS A LEGAL PDP-11
   8661					; NUMBER. THIS IS REQUIRED BECAUSE THE NUMERIC INPUT ROUTINES HANDLE
   8662					; ONLY 36 BIT NUMBERS.
   8663					;
   8664					; INPUT ARGUMENTS:
   8665					;
   8666					;	R0 POINTS TO THE PDP-11 NUMBER TO BE TESTED
   8667					;
   8668					; OUTPUT ARGUMENTS:
   8669					;
   8670					;	R0 POINTS TO THE PDP-11 NUMBER
   8671					;
   8672					; ERROR CODES RETURNED:
   8673					;
   8674					;	NOR -- INPUT NUMBER OUT OF RANGE.
   8675					;-
   8676
   8677	013130				.ELNCK::
   8678	013130	032760 	000010 	000004 		BIT	#10,4(R0)	; IS THIS A NEGATIVE NUMBER?
   8679	013136	001411 				BEQ	10$		; NO -- POSITIVE
   8680	013140	022760 	177777 	000004 		CMP	#-^D1,4(R0)	; YES -- ARE ALL THE BITS ON?
   8681	013146	001014 				BNE	ELNNOR		; NO -- GIVE "NOR" ERROR
   8682	013150	022760 	177777 	000002 		CMP	#-^D1,2(R0)	; YES -- HOW ABOUT THE SECOND WORD?
   8683	013156	001010 				BNE	ELNNOR		; NO -- GIVE "NOR" ERROR
   8684	013160	000406 				BR	20$		; YES -- ALL OK, EXIT
   8685						;
   8686	013162				10$:
   8687	013162	005760 	000004 			TST	4(R0)		; SEE IF HIGH WORD IS .EQ. ZERO
   8688	013166	001004 				BNE	ELNNOR		; NO -- GIVE "NOR" ERROR
   8689	013170	005760 	000002 			TST	2(R0)		; IS SECOND WORD .EQ. ZERO?
   8690	013174	001001 				BNE	ELNNOR		; NO -- GIVE "NOR" ERROR
   8691	013176				20$:
   8692	013176					RETURN			; TO CALLER
	013176	000207 				 RTS	PC
   8693	013200				ELNNOR:
   8694	013200	000137 	014520'			JMP	GTNNOR		; GIVE "NOR" ERROR
   8695						;
TYINP -- COMMAND PARSER COMMAND	MACRO M1113  10-NOV-81 17:44  PAGE 224
.GTELN -- SUBROUTINE TO GET A PDP-11 NUMBER 7602.05

   8697					.SBTTL	.GTELN -- SUBROUTINE TO GET A PDP-11 NUMBER 7602.05
   8698
   8699					;+
   8700					; .GTELN -- SUBROUTINE TO GET A PDP-11 NUMBER
   8701					;
   8702					; THIS SUBROUTINE WILL RETURN A PDP-11 NUMBER IN R0.
   8703					;
   8704					; INPUT ARGUMENTS:
   8705					;
   8706					;	NONE.
   8707					;
   8708					; OUTPUT ARGUMENTS:
   8709					;
   8710					;	R0 HOLDS THE PDP-11 NUMBER.
   8711					;
   8712					; ERROR CODES RETURNED:
   8713					;
   8714					;	NOR -- INPUT NUMBER OUT OF RANGE.
   8715					;-
   8716
   8717	013204				.GTELN::
   8718	013204	005046 				CLR	-(SP)		; CLEAR A BUFFER ON THE STACK
   8719	013206	005046 				CLR	-(SP)		; .
   8720	013210	005046 				CLR	-(SP)		; ..
   8721	013212	010600 				MOV	SP,R0		; ...
   8722	013214					CALL	.GTNUM		; ...GET A NUMBER
	013214	004737 	013266'			 JSR	PC,.GTNUM
   8723	013220					CALL	.ELNCK		; ...SEE IF IS REALLY A PDP-11 NUMBER
	013220	004737 	013130'			 JSR	PC,.ELNCK
   8724	013224	011000 				MOV	(R0),R0		; ...PUT THE NUMBER IN R0
   8725	013226	062706 	000006 			ADD	#^D6,SP		; ...RESET THE STACK
   8726	013232					RETURN			; TO CALLER
	013232	000207 				 RTS	PC
TYINP -- COMMAND PARSER COMMAND	MACRO M1113  10-NOV-81 17:44  PAGE 225
.GTKLA -- SUBROUTINE TO GET A 22 BIT KL ADDRESS 7602.05

   8728					.SBTTL	.GTKLA -- SUBROUTINE TO GET A 22 BIT KL ADDRESS 7602.05
   8729
   8730					;+
   8731					; .GTKLA -- SUBROUTINE TO GET A 22 BIT KL ADDRESS.
   8732					;
   8733					; THIS SUBROUTINE WILL READ AND RETURN A 36 BIT NUMBER AS A 22 BIT
   8734					; ADDRESS IN THE BUFFER POINTED TO BY R0 IN THE CALL.
   8735					;
   8736					; INPUT ARGUMENTS:
   8737					;
   8738					;	R0 POINTS TO A THREE WORD BUFFER
   8739					;
   8740					; OUTPUT ARGUMENTS:
   8741					;
   8742					;	R0 POINTS TO THE 22 BIT KL ADDRESS
   8743					;
   8744					; ERROR CODES RETURNED:
   8745					;
   8746					;	KLA -- KL ADDRESS ERROR.
   8747					;	NOR -- NUMBER OUT OF RANGE
   8748					;-
   8749
   8750	013234				.GTKLA::
   8751	013234					CALL	.GTNUM		; GET A NUMBER
	013234	004737 	013266'			 JSR	PC,.GTNUM
   8752	013240	005760 	000004 			TST	4(R0)		; CHECK FOR A LEGAL ADDRESS
   8753	013244	001005 				BNE	GTKKLA		; BAD NEWS -- OUT OF RANGE
   8754	013246	032760 	177600 	000002 		BIT	#^C177,2(R0)	; LOOK AT SECOND WORD
   8755	013254	001001 				BNE	GTKKLA		; SAME HERE -- OUT OF RANGE
   8756	013256					RETURN			; TO CALLER
	013256	000207 				 RTS	PC
   8757	013260				GTKKLA:
   8758	013260					ERROR$	KLA		; ERROR -- KL ADDRESS ERROR
	013260	012746 	043241 			 MOV	#^RKLA,-(SP)
	013264	104400 				 TRAP	TC.ERR
   8759						;
TYINP -- COMMAND PARSER COMMAND	MACRO M1113  10-NOV-81 17:44  PAGE 226
.GTNUM -- SUBROUTINE TO EVALUATE A NUMERIC EXPRESSION 7608.09

   8761					.SBTTL	.GTNUM -- SUBROUTINE TO EVALUATE A NUMERIC EXPRESSION 7608.09
   8762
   8763					;+
   8764					; .GTNUM -- SUBROUTINE TO EVALUATE A NUMERIC EXPRESSION
   8765					; .GTKLN -- ".GTNUM" BY ANOTHER NAME
   8766					;
   8767					; THIS SUBROUTINE WILL READ AND CONVERT A NUMERIC EXPRESSION FROM
   8768					; THE INPUT STREAM AND RETURN A POINTER TO THE NUMBER IN R0
   8769					;
   8770					; INPUT ARGUMENTS:
   8771					;
   8772					;	R0 POINTS TO THE DESTINATION OF THE NUMBER
   8773					;	R5 POINTS TO THE INPUT STREAM
   8774					;
   8775					; OUTPUT ARGUMENTS:
   8776					;
   8777					;	R0 POINTS TO THE NUMBER
   8778					;	R5 POINTS TO THE FIRST CHARACTER AFTER THE NUMBER
   8779					;
   8780					; ERROR CODES RETURNED:
   8781					;
   8782					;	ILC -- ILLEGAL CHARACTER.
   8783					;	NOR -- NUMBER OUT OF RANGE.
   8784					;-
   8785
   8786	013266				.GTNUM::
   8787	013266				.GTKLN::
   8788	013266					PUSH	R1		; SAVE R1
	013266	010146 				 MOV	R1,-(SP)
   8789	013270					CALL	.CKSYM		; .GET OVER LEADING BLANKS
	013270	004737 	000374'			 JSR	PC,.CKSYM
   8790	013274	122715 	000077 			CMPB	#'?,(R5)	; .IS THIS AN INQUIRY?
   8791	013300	001474 				BEQ	GTNNER		; .YES -- SAY SO
   8792	013302					CALL	.TPCLR		; .NO -- CLEAR CALLER'S NUMBER
	013302	004737 	011356'			 JSR	PC,.TPCLR
   8793	013306					CALL	.CKARG		; [5.1018]IS ARGUMENT NUMERIC?
	013306	004737 	000070'			 JSR	PC,.CKARG
   8794	013312	100403 				BMI	5$		; [5.1018]YES -- GET IT
   8795	013314					CALL	.GTOPC		; <*>NO -- DECODE OPCODE
	013314	004737 	013500'			 JSR	PC,.GTOPC
   8796	013320	000405 				BR	7$		; [5.1018]GET RIGHT HALF
   8797	013322				5$:	CALL	.GTEXP		; .READ THIS EXPRESSION
	013322	004737 	013672'			 JSR	PC,.GTEXP
   8798	013326	122715 	000040 			CMPB	#.SPACE,(R5)	; .IS THE TERMINATOR A <SPACE>?
   8799	013332	001053 				BNE	30$		; .NO -- JUST EXIT
   8800	013334				7$:	CALL	.CKARG		; .YES -- SEE IF NUMERIC ARGUMENT FOLLOWS
	013334	004737 	000070'			 JSR	PC,.CKARG
   8801	013340	001454 				BEQ	GTNNER		; .NOT NUMERIC -- GIVE "NER" ERROR
   8802	013342					CALL	.TPTST		; .NUMERIC -- SEE IF PREVIOUS IS NEGATIVE
	013342	004737 	011460'			 JSR	PC,.TPTST
   8803	013346	002407 				BLT	10$		; .NEGATIVE -- DON'T DO RANGE CHECK
   8804	013350	032760 	177774 	000002 		BIT	#^C3,2(R0)	; .IS THE NUMBER IN RANGE?
   8805	013356	001043 				BNE	GTNORE		; .NO -- GIVE "NOR" ERROR
   8806	013360	005760 	000004 			TST	4(R0)		; .IS IT REALLY IN RANGE?
   8807	013364	001040 				BNE	GTNORE		; .NO -- GIVE "NOR" ERROR
   8808
   8809					;	[CONTINUED ON THE FOLLOWING PAGE]
TYINP -- COMMAND PARSER COMMAND	MACRO M1113  10-NOV-81 17:44  PAGE 227
.GTNUM -- SUBROUTINE TO EVALUATE A NUMERIC EXPRESSION 7608.09

   8811					;	[CONTINUED FROM THE PREVIOUS PAGE]
   8812
   8813	013366				10$:
   8814	013366	012701 	000022 			MOV	#^D18,R1	; .SHIFT COUNT TO R1
   8815	013372					CALL	.TPSHI		; .SHIFT IT
	013372	004737 	011756'			 JSR	PC,.TPSHI
   8816	013376	010001 				MOV	R0,R1		; .SAVE THE POINTER TO THE CURRENT NUMBER
   8817	013400	005046 				CLR	-(SP)		; .CLEAR A NEW BUFFER
   8818	013402	005046 				CLR	-(SP)		; ..
   8819	013404	005046 				CLR	-(SP)		; ...
   8820	013406	010600 				MOV	SP,R0		; ....POINT TO THE BUFFER
   8821	013410					PUSH	R1		; ....SAVE THE OLD POINTER
	013410	010146 				 MOV	R1,-(SP)
   8822	013412					CALL	.GTEXP		; .....READ THE NEW EXPRESSION
	013412	004737 	013672'			 JSR	PC,.GTEXP
   8823	013416					CALL	.CKEOS		; .....MUST HAVE E-O-S AT THIS POINT
	013416	004737 	000256'			 JSR	PC,.CKEOS
   8824	013422					CALL	.TPTST		; .....SEE IF THIS NUMBER IS NEGATIVE
	013422	004737 	011460'			 JSR	PC,.TPTST
   8825	013426	003005 				BGT	20$		; .....YES -- GO ON
   8826	013430	005060 	000004 			CLR	4(R0)		; .....YES -- FIX IT UP
   8827	013434	042760 	177774 	000002 		BIC	#^C3,2(R0)	; .....SO
   8828	013442				20$:
   8829	013442					POP	R1		; .....GET THE POINTER TO THE FIRST PART
	013442	012601 				 MOV	(SP)+,R1
   8830	013444	052021 				BIS	(R0)+,(R1)+	; ....ASSEMBLE THE NEW NUMBER
   8831	013446	052021 				BIS	(R0)+,(R1)+	; ....FROM BOTH HALVES
   8832	013450	051011 				BIS	(R0),(R1)	; ....SO
   8833	013452	062706 	000006 			ADD	#^D6,SP		; ....RESET THE STACK
   8834	013456	024141 				CMP	-(R1),-(R1)	; .BACK THE POINTER UP
   8835	013460	010100 				MOV	R1,R0		; .PUT IT IN R0
   8836	013462				30$:
   8837	013462					POP	R1		; .RESTORE R1
	013462	012601 				 MOV	(SP)+,R1
   8838	013464					RETURN			; TO CALLER
	013464	000207 				 RTS	PC
   8839	013466				GTNORE:
   8840	013466	000137 	014520'			JMP	GTNNOR		; GIVE "NOR" ERROR
   8841						;
   8842	013472				GTNNER:
   8843	013472					ERROR$	NER		; ERROR -- NUMERIC EXPRESSION REQUIRED
	013472	012746 	054132 			 MOV	#^RNER,-(SP)
	013476	104400 				 TRAP	TC.ERR
   8844						;
TYINP -- COMMAND PARSER COMMAND	MACRO M1113  10-NOV-81 17:44  PAGE 228
.GTOPC -- KL I/O OPCODE DECODER FOR ".GTNUM"

   8846					.SBTTL	.GTOPC -- KL I/O OPCODE DECODER FOR ".GTNUM"
   8847
   8848					;+
   8849					; .GTOPC -- KL I/O OPCODE DECODER ROUTINE
   8850					;
   8851					; THIS ROUTINE WILL DECODE AN ARGUMENT OF THE FORM "FUNC DEV" WHERE
   8852					; FUNC IS ONE OF THE FOLLOWING "CONO,CONI,DATAO,DATAI,BLKO,BLKI,CONSO,
   8853					; CONSZ" AND DEV IS A DEVICE CODE. THE ROUTINE WILL RETURN IN THE THREE
   8854					; WORD BLOCK POINTED TO BY R0 THE LEFT HALF OF THE 36 BIT KL INSTRUCTION
   8855					; IN THE FIRST 18 BITS.
   8856
   8857					;	THIS ROUTINE ADDED FOR TCO 5.1018
   8858					;
   8859					; INPUT ARGUMENTS:
   8860					;
   8861					;	R0 POINTS TO THE 3 WORD DESTINATION BLOCK
   8862					;	R5 POINTS TO INPUT STREAM
   8863					;
   8864					; OUTPUT ARGUMENTS:
   8865					;
   8866					;	R0 POINTS TO NUMBER WITH LEFT HALF FILLED IN
   8867					;	R5 POINTS TO FIRST CHARACTER AFTER "FUNC DEV"
   8868					;
   8869					; ERROR CODES RETURNED:
   8870					;
   8871					;	ILI -- ILLEGAL INSTRUCTION
   8872					;	NER -- NUMERIC EXPRESSION REQUIRED
   8873					;	NOR -- NUMBER OUT OF RANGE
   8874					;-
   8875
   8876	013500				.GTOPC::
   8877	013500					PUSH	<R0,R1,R5>	; SAVE REGISTERS
	013500	010046 				 MOV	R0,-(SP)
	013502	010146 				 MOV	R1,-(SP)
	013504	010546 				 MOV	R5,-(SP)
   8878	013506	005010 				CLR	(R0)		; CLEAR BITS 20-35
   8879	013510	052710 	100000 			BIS	#100000,(R0)	; SET BIT 20 FOR I/O OPCODE
   8880	013514	052760 	000003 	000002 		BIS	#3,2(R0)	; SET BITS 18-19 FOR I/O OPCODE
   8881	013522	012701 	007166'			MOV	#IOTAB,R1	; TABLE PTR TO R1
   8882	013526	012100 			10$:	MOV	(R1)+,R0	; TEXT PTR TO R0
   8883	013530	001455 				BEQ	GTNILI		; TABLE DONE?
   8884	013532	011605 				MOV	(SP),R5		; RESTORE R5 (CHANGED ON PARTIAL MATCH)
   8885	013534					CALL	.SSCAN		; NO -- CHECK FOR MATCH
	013534	004737 	010760'			 JSR	PC,.SSCAN
   8886	013540	103772 				BCS	10$		; NO MATCH
   8887	013542	001371 				BNE	10$		; NOT EXACT MATCH
   8888	013544	005726 				TST	(SP)+		; R5 NO LONGER NEEDED
   8889	013546	162701 	007170'			SUB	#IOTAB+2,R1	; GET TABLE OFFSET
   8890	013552	006301 				ASL	R1		; PUT INSTR CODE IN POSITION
   8891	013554	006301 				ASL	R1
   8892	013556	006301 				ASL	R1
   8893	013560	006301 				ASL	R1
   8894	013562	016600 	000002 			MOV	2(SP),R0	; RESTORE R0
   8895	013566	050110 				BIS	R1,(R0)		; SET INSTR CODE
   8896	013570	122715 	000040 			CMPB	#' ,(R5)	; NEXT CHAR A SPACE?
   8897	013574	001033 				BNE	GTNILI		; NO -- ERROR
   8898	013576					CALL	.CKARG		; YES -- NEXT ARGUMENT NUMERIC?
TYINP -- COMMAND PARSER COMMAND	MACRO M1113  10-NOV-81 17:44  PAGE 228-1
.GTOPC -- KL I/O OPCODE DECODER FOR ".GTNUM"

	013576	004737 	000070'			 JSR	PC,.CKARG
   8899	013602	100333 				BPL	GTNNER		; NO -- ERROR
   8900	013604					CALL	.GTELN		; YES -- GET DEVICE CODE
	013604	004737 	013204'			 JSR	PC,.GTELN
   8901	013610	020027 	000774 			CMP	R0,#774		; IN RANGE?
   8902	013614	101324 				BHI	GTNORE		; NO -- TOO LARGE ERROR
   8903	013616	032700 	000003 			BIT	#3,R0		; YES -- ILLEGAL BITS ON?
   8904	013622	001321 				BNE	GTNORE		; YES -- ERROR
   8905	013624	006300 				ASL	R0		; NO -- PUT DEVICE CODE IN POSITION
   8906	013626	006300 				ASL	R0
   8907	013630	006300 				ASL	R0
   8908	013632	006300 				ASL	R0
   8909	013634	006300 				ASL	R0
   8910	013636	006300 				ASL	R0
   8911	013640	010001 				MOV	R0,R1		; STORE VALUE IN R1
   8912	013642	016600 	000002 			MOV	2(SP),R0	; RESTORE R0
   8913	013646	050110 				BIS	R1,(R0)		; SET DEVICE CODE
   8914	013650	122725 	000054 			CMPB	#',,(R5)+	; NEXT CHAR A COMMA?
   8915	013654	001003 				BNE	GTNILI		; NO -- ERROR
   8916	013656					POP	<R1,R0>		; YES -- RESTORE REGISTERS
	013656	012601 				 MOV	(SP)+,R1
	013660	012600 				 MOV	(SP)+,R0
   8917	013662					RETURN
	013662	000207 				 RTS	PC
   8918						;
   8919	013664				GTNILI:
   8920	013664					ERROR$	ILI		; ERROR -- ILLEGAL INSTRUCTION
	013664	012746 	035051 			 MOV	#^RILI,-(SP)
	013670	104400 				 TRAP	TC.ERR
   8921						;
   8922
   8923	007166				.PSECT	DATA
   8924
   8925	007166				IOTAB:
   8926	007166	002203'				.WORD	BLKIS
   8927	007170	002210'				.WORD	DATAIS
   8928	007172	002216'				.WORD	BLKOS
   8929	007174	002223'				.WORD	DATAOS
   8930	007176	002231'				.WORD	CONOS
   8931	007200	002236'				.WORD	CONIS
   8932	007202	002243'				.WORD	CONSZS
   8933	007204	002251'				.WORD	CONSOS
   8934	007206	000000 				.WORD	0
   8935
   8936	002203				.PSECT	MESSAG
   8937
   8938	002203	   102 	   114 	   113 	BLKIS:	.ASCIZ	/BLKI/
	002206	   111 	   000
   8939	002210	   104 	   101 	   124 	DATAIS:	.ASCIZ	/DATAI/
	002213	   101 	   111 	   000
   8940	002216	   102 	   114 	   113 	BLKOS:	.ASCIZ	/BLKO/
	002221	   117 	   000
   8941	002223	   104 	   101 	   124 	DATAOS:	.ASCIZ	/DATAO/
	002226	   101 	   117 	   000
   8942	002231	   103 	   117 	   116 	CONOS:	.ASCIZ	/CONO/
	002234	   117 	   000
   8943	002236	   103 	   117 	   116 	CONIS:	.ASCIZ	/CONI/
TYINP -- COMMAND PARSER COMMAND	MACRO M1113  10-NOV-81 17:44  PAGE 228-2
.GTOPC -- KL I/O OPCODE DECODER FOR ".GTNUM"

	002241	   111 	   000
   8944	002243	   103 	   117 	   116 	CONSZS:	.ASCIZ	/CONSZ/
	002246	   123 	   132 	   000
   8945	002251	   103 	   117 	   116 	CONSOS:	.ASCIZ	/CONSO/
	002254	   123 	   117 	   000
   8946
   8947	013672				.PSECT
TYINP -- COMMAND PARSER COMMAND	MACRO M1113  10-NOV-81 17:44  PAGE 229
.GTEXP -- EXPRESSION EVALUATOR FOR ".GTNUM" 7603.03

   8949					.SBTTL	.GTEXP -- EXPRESSION EVALUATOR FOR ".GTNUM" 7603.03
   8950
   8951					;+
   8952					; .GTEXP -- EXPRESSION EVALUATOR FOR ".GTNUM"
   8953					;
   8954					; THIS ROUTINE EVALUATES NUMERIC EXPRESSIONS FOR ".GTNUM".
   8955					;
   8956					; DEFINITION OF AN EXPRESSION:
   8957					;
   8958					; EXP=TERM+TERM!TERM-TERM!TERM+TERM+....!TERM-TERM-....!TERM
   8959					;
   8960					; INPUT ARGUMENTS:
   8961					;
   8962					;	R0 POINTS TO A THREE WORD BUFFER
   8963					;
   8964					; OUTPUT ARGUMENTS:
   8965					;
   8966					;	R0 POINTS TO THE EVALUATED EXPRESSION
   8967					;
   8968					; ERROR CODES RETURNED:
   8969					;
   8970					;	NONE.
   8971					;-
   8972
   8973	013672				.GTEXP::
   8974	013672					CALL	.GTTRM		; GET THE NEXT TERM
	013672	004737 	013766'			 JSR	PC,.GTTRM
   8975	013676				10$:
   8976	013676	122715 	000053 			CMPB	#'+,(R5)	; DID HE SAY ADD?
   8977	013702	001404 				BEQ	20$		; YES -- GO DO THE ADDITION
   8978	013704	122715 	000055 			CMPB	#'-,(R5)	; NO -- DID HE SAY SUBTRACT?
   8979	013710	001404 				BEQ	30$		; YES -- GO DO THE SUBTRACTION
   8980	013712					RETURN			; NO -- JUST RETURN
	013712	000207 				 RTS	PC
   8981
   8982					;	[CONTINUED ON THE FOLLOWING PAGE]
TYINP -- COMMAND PARSER COMMAND	MACRO M1113  10-NOV-81 17:44  PAGE 230
.GTEXP -- EXPRESSION EVALUATOR FOR ".GTNUM" 7603.03

   8984					;	[CONTINUED FROM THE PREVIOUS PAGE]
   8985
   8986	013714				20$:
   8987	013714	012702 	011502'			MOV	#.TPADD,R2	; DISPATCH ADDRESS TO R2
   8988	013720	000402 				BR	40$		; TO COMMON ROUTINE
   8989						;
   8990	013722				30$:
   8991	013722	012702 	011546'			MOV	#.TPSUB,R2	; DISPATCH ADDRESS TO R2
   8992	013726				40$:
   8993	013726	112504 				MOVB	(R5)+,R4	; GET OVER THE OPERATOR CHARACTER
   8994	013730	005046 				CLR	-(SP)		; CLEAR A BUFFER ON THE STACK
   8995	013732	005046 				CLR	-(SP)		; .
   8996	013734	005046 				CLR	-(SP)		; ..
   8997	013736	010601 				MOV	SP,R1		; ...SCRATCH POINTER TO R1
   8998	013740					PUSH	R2		; ...SAVE THE DISPATCH ADDRESS
	013740	010246 				 MOV	R2,-(SP)
   8999	013742					PUSH	R0		; ....AND PREVIOUS POINTER
	013742	010046 				 MOV	R0,-(SP)
   9000	013744	010100 				MOV	R1,R0		; .....CURRENT POINTER TO R0
   9001	013746					CALL	.GTTRM		; .....GET THE NEXT TERM
	013746	004737 	013766'			 JSR	PC,.GTTRM
   9002	013752	010001 				MOV	R0,R1		; .....CURRENT POINTER TO R1
   9003	013754					POP	R0		; .....RESTORE PREVIOUS POINTER
	013754	012600 				 MOV	(SP)+,R0
   9004	013756					CALL	@(SP)+		; ....DO THE ADDITION OR SUBTRACTION
	013756	004736 				 JSR	PC,@(SP)+
   9005	013760	062706 	000006 			ADD	#^D6,SP		; ...RESET THE STACK
   9006	013764	000744 				BR	10$		; AND SEE IF THERE IS MORE
   9007						;
TYINP -- COMMAND PARSER COMMAND	MACRO M1113  10-NOV-81 17:44  PAGE 231
.GTTRM -- TERM EVALUATOR FOR ".GTNUM" 7603.03

   9009					.SBTTL	.GTTRM -- TERM EVALUATOR FOR ".GTNUM" 7603.03
   9010
   9011					;+
   9012					; .GTTRM -- TERM EVALUATOR FOR ".GTNUM"
   9013					;
   9014					; THIS ROUTINE EVALUATES NUMERIC TERMS FOR ".GTNUM".
   9015					;
   9016					; DEFINITION OF A TERM:
   9017					;
   9018					; TERM=FACTOR*FACTOR!FACTOR/FACTOR!FACTOR*FACTOR*....!FACTOR/FACTOR/....!FACTOR
   9019					;
   9020					; INPUT ARGUMENTS:
   9021					;
   9022					;	R0 POINTS TO A THREE WORD BUFFER
   9023					;
   9024					; OUTPUT ARGUMENTS:
   9025					;
   9026					;	R0 POINTS TO THE EVALUATED TERM
   9027					;
   9028					; ERROR CODES RETURNED:
   9029					;
   9030					;	NONE.
   9031					;-
   9032
   9033	013766				.GTTRM::
   9034	013766					CALL	.GTFCT		; GET THE NEXT FACTOR
	013766	004737 	014100'			 JSR	PC,.GTFCT
   9035	013772	001411 				BEQ	20$		; EXIT IF NULL ARGUMENT
   9036	013774				10$:
   9037	013774	122715 	000137 			CMPB	#'_,(R5)	; DID HE SAY SHIFT?
   9038	014000	001407 				BEQ	30$		; YES -- GO DO THE SHIFT
   9039	014002	122715 	000052 			CMPB	#'*,(R5)	; NO -- DID HE SAY MULTIPLY?
   9040	014006	001412 				BEQ	50$		; YES -- GO DO THE MULTIPLICATION
   9041	014010	122715 	000057 			CMPB	#'/,(R5)	; NO -- DID HE SAY DIVIDE?
   9042	014014	001404 				BEQ	40$		; YES -- GO DO THE DIVISION
   9043	014016				20$:
   9044	014016					RETURN			; NO -- JUST RETURN
	014016	000207 				 RTS	PC
   9045
   9046					;	[CONTINUED ON THE FOLLOWING PAGE]
TYINP -- COMMAND PARSER COMMAND	MACRO M1113  10-NOV-81 17:44  PAGE 232
.GTTRM -- TERM EVALUATOR FOR ".GTNUM" 7603.03

   9048					;	[CONTINUED FROM THE PREVIOUS PAGE]
   9049
   9050	014020				30$:
   9051	014020	012702 	012022'			MOV	#.TPSHL,R2	; DISPATCH TO R2
   9052	014024	000405 				BR	60$		; TO COMMON CODE
   9053						;
   9054	014026				40$:
   9055	014026	012702 	011144'			MOV	#.TPDIV,R2	; DISPATCH TO R2
   9056	014032	000402 				BR	60$		; TO COMMON ROUTINE
   9057						;
   9058	014034				50$:
   9059	014034	012702 	011572'			MOV	#.TPMUL,R2	; DISPATCH TO R2
   9060	014040				60$:
   9061	014040	112504 				MOVB	(R5)+,R4	; GET OVER THE OPERATOR CHARACTER
   9062	014042	005046 				CLR	-(SP)		; CREATE A SCRATCH BUFFER ON THE STACK
   9063	014044	005046 				CLR	-(SP)		; .
   9064	014046	005046 				CLR	-(SP)		; ..
   9065	014050	010601 				MOV	SP,R1		; ...SCRATCH POINTER TO R1
   9066	014052					PUSH	R2		; ...SAVE THE DISPATCH POINTER
	014052	010246 				 MOV	R2,-(SP)
   9067	014054					PUSH	R0		; ....SAVE PREVIOUS NUMBER POINTER
	014054	010046 				 MOV	R0,-(SP)
   9068	014056	010100 				MOV	R1,R0		; .....CURRENT POINTER TO R0
   9069	014060					CALL	.GTFCT		; .....GET THE NEXT FACTOR
	014060	004737 	014100'			 JSR	PC,.GTFCT
   9070	014064	010001 				MOV	R0,R1		; .....POINTER TO R1
   9071	014066					POP	R0		; .....PREVIOUS POINTER TO R0
	014066	012600 				 MOV	(SP)+,R0
   9072	014070					CALL	@(SP)+		; ....DO DIVISION OR MULTIPLICATION
	014070	004736 				 JSR	PC,@(SP)+
   9073	014072	062706 	000006 			ADD	#^D6,SP		; ...CLEAR THE STACK
   9074	014076	000736 				BR	10$		; AND SEE IF THERE IS MORE
   9075						;
TYINP -- COMMAND PARSER COMMAND	MACRO M1113  10-NOV-81 17:44  PAGE 233
.GTFCT -- FACTOR EVALUATOR FOR ".GTNUM" 7603.03

   9077					.SBTTL	.GTFCT -- FACTOR EVALUATOR FOR ".GTNUM" 7603.03
   9078
   9079					;+
   9080					; .GTFCT -- FACTOR EVALUATOR FOR ".GTNUM"
   9081					;
   9082					; THIS ROUTINE EVALUATES NUMERIC FACTORS FOR ".GTNUM".
   9083					;
   9084					; DEFINITION OF AN FACTOR:
   9085					;
   9086					; FACTOR=(EXP)!+FACTOR!-FACTOR!NUMBER
   9087					;
   9088					; INPUT ARGUMENTS:
   9089					;
   9090					;	R0 POINTS TO A THREE WORD BUFFER
   9091					;
   9092					; OUTPUT ARGUMENTS:
   9093					;
   9094					;	R0 POINTS TO THE EVALUATED FACTOR
   9095					;
   9096					; ERROR CODES RETURNED:
   9097					;
   9098					;	NONE.
   9099					;-
   9100
   9101						.ENABL	LSB
   9102
   9103	014100				.GTFCT::
   9104	014100	122715 	000136 			CMPB	#'^,(R5)	; SPECIAL RADIX?
   9105	014104	001435 				BEQ	30$		; YES -- GO HANDLE IT
   9106	014106	122715 	000050 			CMPB	#'(,(R5)	; NO -- DOES THE FIRST CHARACTER OPEN EXPRESSION?
   9107	014112	001517 				BEQ	65$		; YES -- GO HANDLE IT
   9108	014114	122715 	000053 			CMPB	#'+,(R5)	; NO -- IS IT A <PLUS>?
   9109	014120	001503 				BEQ	60$		; YES -- GO HANDLE <PLUS>
   9110	014122	122715 	000055 			CMPB	#'-,(R5)	; NO -- IS IT A <MINUS>?
   9111	014126	001500 				BEQ	60$		; YES -- GO HANDLE <MINUS>
   9112	014130					CALL	.GTNBR		; NO -- GO GET A NUMBER
	014130	004737 	014374'			 JSR	PC,.GTNBR
   9113	014134				10$:
   9114	014134	122715 	000047 			CMPB	#'',(R5)	; RELOCATE?
   9115	014140	001404 				BEQ	20$		; YES -- DO IT
   9116	014142	122715 	000042 			CMPB	#'",(R5)	; NO -- UNRELOCATE?
   9117	014146	001401 				BEQ	20$		; YES -- DO IT
   9118	014150				15$:
   9119	014150					RETURN			; TO CALLER
	014150	000207 				 RTS	PC
   9120
   9121					;	[CONTINUED ON THE FOLLOWING PAGE]
TYINP -- COMMAND PARSER COMMAND	MACRO M1113  10-NOV-81 17:44  PAGE 234
.GTFCT -- FACTOR EVALUATOR FOR ".GTNUM" 7603.03

   9123					;	[CONTINUED FROM THE PREVIOUS PAGE]
   9124
   9125	014152				20$:
   9126	014152					PUSH	R1		; SAVE R1
	014152	010146 				 MOV	R1,-(SP)
   9127	014154	013701 	000210'			MOV	.RELWD,R1	; .RELOCATION TO R1
   9128	014160	122715 	000042 			CMPB	#'",(R5)	; .UNRELOCATE?
   9129	014164	001001 				BNE	25$		; .NO -- GO ON
   9130	014166	005401 				NEG	R1		; .YES -- NEGATE IT
   9131	014170				25$:
   9132	014170	060110 				ADD	R1,(R0)		; .COMPUTE THE FACTOR
   9133	014172	105725 				TSTB	(R5)+		; .GET OVER THE SYMBOL
   9134	014174					POP	R1		; .RESTORE R1
	014174	012601 				 MOV	(SP)+,R1
   9135	014176	000764 				BR	15$		; AND EXIT
   9136						;
   9137	014200				30$:
   9138	014200	105725 				TSTB	(R5)+		; GET OVER THE UP-ARROW
   9139	014202	112546 				MOVB	(R5)+,-(SP)	; SAVE THE NEXT CHARACTER
   9140	014204					CALL	.CKARG		; .LOOK FOR A TRAILING ARGUMENT
	014204	004737 	000070'			 JSR	PC,.CKARG
   9141	014210	001417 				BEQ	GTFILC		; .ERROR IF CC-Z IS SET
   9142	014212					POP	R4		; .RESTORE THE CHARACTER
	014212	012604 				 MOV	(SP)+,R4
   9143	014214	122704 	000103 			CMPB	#'C,R4		; .COMPLEMENT?
   9144	014220	001436 				BEQ	55$		; .YES -- PROCESS COMPLEMENT
   9145	014222					PUSH	.IRADX		; .NO -- SAVE THE CURRENT RADIX
	014222	013746 	000134'			 MOV	.IRADX,-(SP)
   9146	014226	122704 	000104 			CMPB	#'D,R4		; .DECIMAL?
   9147	014232	001415 				BEQ	40$		; .YES -- PROCESS DECIMAL
   9148	014234	122704 	000102 			CMPB	#'B,R4		; .NO -- BINARY?
   9149	014240	001406 				BEQ	35$		; .YES -- PROCESS BINARY
   9150	014242	122704 	000117 			CMPB	#'O,R4		; .NO -- OCTAL?
   9151	014246	001413 				BEQ	45$		; .YES -- PROCESS OCTAL
   9152	014250				GTFILC:
   9153	014250					ERROR$	ILC		; .NO -- GIVE "ILC" ERROR
	014250	012746 	035043 			 MOV	#^RILC,-(SP)
	014254	104400 				 TRAP	TC.ERR
   9154						;
   9155
   9156					;	[CONTINUED ON THE FOLLOWING PAGE]
TYINP -- COMMAND PARSER COMMAND	MACRO M1113  10-NOV-81 17:44  PAGE 235
.GTFCT -- FACTOR EVALUATOR FOR ".GTNUM" 7603.03

   9158					;	[CONTINUED FROM THE PREVIOUS PAGE]
   9159
   9160	014256				35$:
   9161	014256	012737 	000002 	000134'		MOV	#^D2,.IRADX	; .SET THE RADIX TO BINARY
   9162	014264	000407 				BR	50$		; .TO COMMON CODE
   9163						;
   9164	014266				40$:
   9165	014266	012737 	000012 	000134'		MOV	#^D10,.IRADX	; .SET THE RADIX TO DECIMAL
   9166	014274	000403 				BR	50$		; .TO COMMON CODE
   9167						;
   9168	014276				45$:
   9169	014276	012737 	000010 	000134'		MOV	#^D8,.IRADX	; .SET THE RADIX TO OCTAL
   9170	014304				50$:
   9171	014304					CALL	.GTFCT		; .GET THE FACTOR
	014304	004737 	014100'			 JSR	PC,.GTFCT
   9172	014310					POP	.IRADX		; .RESTORE THE ORIGINAL RADIX
	014310	012637 	000134'			 MOV	(SP)+,.IRADX
   9173	014314	000707 				BR	10$		; AND EXIT
   9174						;
   9175	014316				55$:
   9176	014316					CALL	.GTFCT		; GET THE FACTOR
	014316	004737 	014100'			 JSR	PC,.GTFCT
   9177	014322					CALL	.TPCOM		; AND INVERT IT
	014322	004737 	011366'			 JSR	PC,.TPCOM
   9178	014326	000702 				BR	10$		; EXIT
   9179						;
   9180	014330				60$:
   9181	014330	112546 				MOVB	(R5)+,-(SP)	; SAVE THE NEXT CHARACTER
   9182	014332					CALL	.GTFCT		; .GO LOOK FOR MORE
	014332	004737 	014100'			 JSR	PC,.GTFCT
   9183	014336	122726 	000055 			CMPB	#'-,(SP)+	; .WAS THE PREFIX A <MINUS>?
   9184	014342	001274 				BNE	10$		; NO -- JUST EXIT
   9185	014344					CALL	.TPNEG		; YES -- NEGATE IT
	014344	004737 	011376'			 JSR	PC,.TPNEG
   9186	014350	000671 				BR	10$		; AND EXIT
   9187						;
   9188	014352				65$:
   9189	014352	112504 				MOVB	(R5)+,R4	; GET OVER THE PAREN
   9190	014354					CALL	.GTEXP		; READ THIS EXPRESSION
	014354	004737 	013672'			 JSR	PC,.GTEXP
   9191	014360	122725 	000051 			CMPB	#'),(R5)+	; DID WE END IT PROPERLY?
   9192	014364	001663 				BEQ	10$		; YES -- JUST EXIT
   9193	014366					ERROR$	RPM		; NO -- ERROR -- RIGHT PARENTHESES MISSING
	014366	012746 	071415 			 MOV	#^RRPM,-(SP)
	014372	104400 				 TRAP	TC.ERR
   9194						;
   9195
   9196						.DSABL	LSB
TYINP -- COMMAND PARSER COMMAND	MACRO M1113  10-NOV-81 17:44  PAGE 236
.GTNBR -- NUMBER EVALUATOR FOR ".GTNUM" 7603.03

   9198					.SBTTL	.GTNBR -- NUMBER EVALUATOR FOR ".GTNUM" 7603.03
   9199
   9200					;+
   9201					; .GTNBR -- NUMBER EVALUATOR FOR ".GTNUM"
   9202					;
   9203					; THIS ROUTINE EVALUATES NUMBERS FOR ".GTNUM".
   9204					;
   9205					; INPUT ARGUMENTS:
   9206					;
   9207					;	R0 POINTS TO A THREE WORD BUFFER
   9208					;
   9209					; OUTPUT ARGUMENTS:
   9210					;
   9211					;	R0 POINTS TO THE EVALUATED NUMBER
   9212					;
   9213					; ERROR CODES RETURNED:
   9214					;
   9215					;	NONE.
   9216					;-
   9217
   9218	014374				.GTNBR::
   9219	014374	005037 	000132'			CLR	.INCHC		; CLEAR THE CHARACTER COUNT
   9220	014400					PUSH	R1		; SAVE R1
	014400	010146 				 MOV	R1,-(SP)
   9221	014402	005046 				CLR	-(SP)		; .SET UP THE INPUT RADIX
   9222	014404	005046 				CLR	-(SP)		; ..
   9223	014406					PUSH	.IRADX		; ...SO
	014406	013746 	000134'			 MOV	.IRADX,-(SP)
   9224	014412	010601 				MOV	SP,R1		; ....POINT TO THE INPUT RADIX
   9225	014414				10$:
   9226	014414	112504 				MOVB	(R5)+,R4	; ....GET THE CHARACTER INTO R4
   9227	014416	132764 	000002 	001450'		BITB	#CH.NUM,.CHTAB(R4)
   9228	014424	001422 				BEQ	20$		; ....EXIT IF NON-NUMERIC
   9229	014426	005237 	000132'			INC	.INCHC		; ....INCREMENT THE CHARACTER COUNT
   9230	014432	142704 	177760 			BICB	#^C17,R4	; ....FLUSH ASCII
   9231	014436	120411 				CMPB	R4,(R1)		; ....DID WE EXCEED THE INPUT RADIX?
   9232	014440	002027 				BGE	GTNNOR		; ....YES -- GIVE "NOR" ERROR
   9233	014442					CALL	.TPMUL		; ....NO -- MAKE ROOM FOR THIS DIGIT
	014442	004737 	011572'			 JSR	PC,.TPMUL
   9234	014446					PUSH	(R1)		; ....SAVE THE RADIX
	014446	011146 				 MOV	(R1),-(SP)
   9235	014450	010411 				MOV	R4,(R1)		; .....SET UP TO ADD THIS DIGIT
   9236	014452					CALL	.TPADD		; .....TO THE CUMULATIVE RESULT
	014452	004737 	011502'			 JSR	PC,.TPADD
   9237	014456	032760 	177760 	000004 		BIT	#^C17,4(R0)	; .....HAVE WE OVERFLOWED THE NUMBER?
   9238	014464	001015 				BNE	GTNNOR		; .....YES -- GIVE "NOR" ERROR
   9239	014466					POP	(R1)		; .....NO -- RESTORE THE RADIX
	014466	012611 				 MOV	(SP)+,(R1)
   9240	014470	000751 				BR	10$		; ....AND CONTINUE
   9241						;
   9242
   9243					;	[CONTINUED ON THE FOLLOWING PAGE]
TYINP -- COMMAND PARSER COMMAND	MACRO M1113  10-NOV-81 17:44  PAGE 237
.GTNBR -- NUMBER EVALUATOR FOR ".GTNUM" 7603.03

   9245					;	[CONTINUED FROM THE PREVIOUS PAGE]
   9246
   9247	014472				20$:
   9248	014472	062706 	000006 			ADD	#^D6,SP		; ....FLUSH THE STACK
   9249	014476					POP	R1		; .RESTORE R1
	014476	012601 				 MOV	(SP)+,R1
   9250	014500	105745 				TSTB	-(R5)		; BACK THE INPUT POINTER UP
   9251	014502	005737 	000132'			TST	.INCHC		; LOOK AT THE CHARACTER COUNT
   9252	014506	001401 				BEQ	GTNMRA		; GIVE "MRA" ERROR IF NONE THERE
   9253	014510					RETURN			; TO CALLER
	014510	000207 				 RTS	PC
   9254	014512				GTNMRA:
   9255	014512					ERROR$	MRA		; ERROR -- MISSING REQUIRED ARGUMENT
	014512	012746 	052021 			 MOV	#^RMRA,-(SP)
	014516	104400 				 TRAP	TC.ERR
   9256						;
   9257	014520				GTNNOR:
   9258	014520					ERROR$	NOR		; ERROR -- NUMBER OUT OF RANGE
	014520	012746 	054752 			 MOV	#^RNOR,-(SP)
	014524	104400 				 TRAP	TC.ERR
   9259						;
TYOUT -- GENERAL TERMINAL OUTPU	MACRO M1113  10-NOV-81 17:44  PAGE 239
.GTNBR -- NUMBER EVALUATOR FOR ".GTNUM" 7603.03

   9262					.TITLE	TYOUT -- GENERAL TERMINAL OUTPUT MODULE 7603.30
   9263
   9264						.IDENT	"006110"
   9265
   9266					;
   9267					;                             COPYRIGHT (C) 1975, 1979 BY
   9268					;                     DIGITAL EQUIPMENT CORPORATION, MAYNARD MASS.
   9269					;
   9270					;       THIS SOFTWARE IS FURNISHED UNDER A LICENSE AND MAY BE  USED  AND  COPIED
   9271					;       ONLY IN ACCORDANCE WITH THE TERMS OF SUCH LICENSE AND WITH THE INCLUSION
   9272					;       OF THE ABOVE COPYRIGHT NOTICE.  THIS SOFTWARE OR ANY OTHER COPIES THERE-
   9273					;       OF  MAY NOT BE PROVIDED OR OTHERWISE MADE AVAILABLE TO ANY OTHER PERSON.
   9274					;       NO TITLE TO OR OWNERSHIP OF THE SOFTWARE IS HEREBY TRANSFERRED.
   9275					;
   9276					;       THE INFORMATION CONTAINED IN THIS SOFTWARE IS SUBJECT TO CHANGE  WITHOUT
   9277					;       NOTICE  AND SHOULD NOT BE CONSTRUED AS A COMMITMENT BY DIGITAL EQUIPMENT
   9278					;       CORPORATION.
   9279					;
   9280					;       DIGITAL ASSUMES NO RESPONSIBILITY FOR THE  USE  OR  RELIABILITY  OF  ITS
   9281					;       SOFTWARE ON EQUIPMENT WHICH IS NOT SUPPILED BY DIGITAL.
   9282					;
   9283					;		MODULE: GENERAL TERMINAL OUTPUT
   9284					;
   9285					;		VERSION: 06-11
   9286					;
   9287					;		AUTHOR: R. BELANGER
   9288					;
   9289					;		DATE: 7603.30
   9290					;
   9291					;	THIS MODULE CONTAINS:
   9292					;
   9293					;	1) GENERAL TERMINAL OUTPUT CODE
   9294					;
   9295					;  MODIFICATIONS:
   9296					;
   9297					;	NO.	DATE		PROGRAMMER	REASON
   9298					;	---	----		----------	------
   9299					;    [5.1000]	24-AUG-79	K. LEFEBVRE	ADD LINE PRINTER SUPPORT
TYOUT -- GENERAL TERMINAL OUTPU	MACRO M1113  10-NOV-81 17:44  PAGE 240
.TYAST -- SPECIAL CHARACTER OUTPUT SUBROUTINES 7601.23

   9301					.SBTTL	.TYAST -- SPECIAL CHARACTER OUTPUT SUBROUTINES 7601.23
   9302
   9303					;+
   9304					; .TYAST -- SUBROUTINE TO TYPE AN <ASTERISK> ON THE CONSOLE OUTPUT DEVICE.
   9305					; .TYCOL -- SUBROUTINE TO TYPE A <COLON> ON THE CONSOLE OUTPUT DEVICE.
   9306					; .TYCOM -- SUBROUTINE TO TYPE A <COMMA> ON THE CONSOLE OUTPUT DEVICE.
   9307					; .TYMIN -- SUBROUTINE TO TYPE A <MINUS> ON THE CONSOLE OUTPUT DEVICE.
   9308					; .TYSLS -- SUBROUTINE TO TYPE A <SLASH> ON THE CONSOLE OUTPUT DEVICE.
   9309					; .TYSPC -- SUBROUTINE TO TYPE A <SPACE> ON THE CONSOLE OUTPUT DEVICE.
   9310					; .TYUPA -- SUBROUTINE TO TYPE AN <UP-ARROW> ON THE CONSOLE OUTPUT DEVICE.
   9311					;
   9312					; THESE SUBROUTINES TYPE THE INDICATED CHARACTER(S) ON THE CONSOLE
   9313					; OUTPUT DEVICE.
   9314					;
   9315					; INPUT ARGUMENTS:
   9316					;
   9317					;	NONE.
   9318					;
   9319					; OUTPUT ARGUMENTS:
   9320					;
   9321					;	NONE.
   9322					;
   9323					; ERROR CODES RETURNED:
   9324					;
   9325					;	IF THE CONSOLE OUTPUT FAILS, THE PARSER EXITS.
   9326					;-
TYOUT -- GENERAL TERMINAL OUTPU	MACRO M1113  10-NOV-81 17:44  PAGE 241
.TYAST -- SPECIAL CHARACTER OUTPUT SUBROUTINES 7601.23

   9328						.ENABL	LSB
   9329
   9330	014526				.TYCOL::
   9331	014526					PUSH	R0		; SAVE R0
	014526	010046 				 MOV	R0,-(SP)
   9332	014530	012700 	000072 			MOV	#':,R0		; .<COLON> TO R0
   9333	014534	000423 				BR	10$		; .DO OUTPUT
   9334						;
   9335	014536				.TYCOM::
   9336	014536					PUSH	R0		; SAVE R0
	014536	010046 				 MOV	R0,-(SP)
   9337	014540	012700 	000054 			MOV	#',,R0		; .<COMMA> TO R0
   9338	014544	000417 				BR	10$		; .OUTPUT IT
   9339						;
   9340	014546				.TYMIN::
   9341	014546					PUSH	R0		; SAVE R0
	014546	010046 				 MOV	R0,-(SP)
   9342	014550	012700 	000055 			MOV	#'-,R0		; <HYPHEN> TO R0
   9343	014554	000413 				BR	10$		; .DO OUTPUT
   9344						;
   9345	014556				.TYSLS::
   9346	014556					PUSH	R0		; SAVE R0
	014556	010046 				 MOV	R0,-(SP)
   9347	014560	012700 	000057 			MOV	#'/,R0		; .<SLASH> TO R0
   9348	014564	000407 				BR	10$		; .OUTPUT IT
   9349						;
   9350	014566				.TYSPC::
   9351	014566					PUSH	R0		; SAVE R0
	014566	010046 				 MOV	R0,-(SP)
   9352	014570	012700 	000040 			MOV	#.SPACE,R0	; .<SPACE> TO R0
   9353	014574	000403 				BR	10$		; .OUTPUT IT
   9354						;
   9355	014576				.TYUPA::
   9356	014576					PUSH	R0		; SAVE R0
	014576	010046 				 MOV	R0,-(SP)
   9357	014600	012700 	000136 			MOV	#'^,R0		; .<UP-ARROW> TO R0
   9358	014604				10$:
   9359	014604					CALL	.TYCHR		; .OUTPUT IT
	014604	004737 	015504'			 JSR	PC,.TYCHR
   9360	014610					POP	R0		; .RESTORE R0
	014610	012600 				 MOV	(SP)+,R0
   9361	014612					RETURN			; TO CALLER
	014612	000207 				 RTS	PC
   9362
   9363						.DSABL	LSB
TYOUT -- GENERAL TERMINAL OUTPU	MACRO M1113  10-NOV-81 17:44  PAGE 242
.TYACE -- TYPE AC ADDR AND CONTENTS

   9365					.SBTTL	.TYACE -- TYPE AC ADDR AND CONTENTS
   9366
   9367					;+
   9368					; .TYACE -- SUBROUTINE TO TYPE AC ADDR AND CONTENTS
   9369					;
   9370					; THIS ROUTINE WILL TYPE:
   9371					;	N:AAAAAA/ DDDDDD DDDDDD
   9372					;	   N-AC BLOCK NUMBER
   9373					;	   A-AC ADDR
   9374					;	   D-AC DATA
   9375					;
   9376					; INPUT ARGUMENTS:
   9377					;
   9378					;		+---------------+
   9379					;	R0=>	! BLOCK ! ADDR  !
   9380					;		+---------------+
   9381					;		! KL BITS 20-35 !
   9382					;		+---------------+
   9383					;		! KL BITS 4-19  !
   9384					;		+---------------+
   9385					;		! KL BITS 0-3   !
   9386					;		+---------------+
   9387					;
   9388					; OUTPUT ARGUMENTS:
   9389					;
   9390					;	NONE
   9391					;
   9392					; ERROR CODES RETURNED:
   9393					;
   9394					;	NONE
   9395					;-
   9396
   9397	014614				.TYACE::
   9398	014614					PUSH	R0		; SAVE R0
	014614	010046 				 MOV	R0,-(SP)
   9399	014616	113700 	000152'			MOVB	.PASS,R0	; PASS NO.
   9400	014622	005200 				INC	R0		; MAKE 1 OR 2
   9401	014624	062700 	000060 			ADD	#'0,R0		; MAKE ASCII
   9402	014630	110037 	002274'			MOVB	R0,PRMFM+13.	; PUT IN MESSAGE
   9403	014634	012700 	002257'			MOV	#PRMFM,R0	; FM SWEEP PROMPT
   9404	014640					CALL	.TYMSG		; TYPE IT
	014640	004737 	015446'			 JSR	PC,.TYMSG
   9405	014644					POP	R0		; RESTORE R0
	014644	012600 				 MOV	(SP)+,R0
   9406	014646				.TYAC1::PUSH	R2		; ALT. ENTRY PT., SAVE R2
	014646	010246 				 MOV	R2,-(SP)
   9407	014650	010002 				MOV	R0,R2		; SAVE R0
   9408	014652	011000 				MOV	(R0),R0		; GET FIRST WORD OF DATA
   9409	014654	000300 				SWAB	R0		; GET BLOCK NO. IN LOW BYTE
   9410	014656	042700 	177600 			BIC	#177600,R0	; CLEAR ADDR
   9411	014662	062700 	000060 			ADD	#'0,R0		; CONVERT TO ASCII
   9412	014666					CALL	.TYCHR		; TYPE IT
	014666	004737 	015504'			 JSR	PC,.TYCHR
   9413	014672					CALL	.TYCOL		; TYPE COLON
	014672	004737 	014526'			 JSR	PC,.TYCOL
   9414	014676	012237 	007210'			MOV	(R2)+,ADRTMP	; GET FIRST DATA VALUE
   9415	014702	042737 	177600 	007210'		BIC	#177600,ADRTMP	; CLEAR BLOCK NO.
TYOUT -- GENERAL TERMINAL OUTPU	MACRO M1113  10-NOV-81 17:44  PAGE 242-1
.TYACE -- TYPE AC ADDR AND CONTENTS

   9416	014710	012700 	007210'			MOV	#ADRTMP,R0	; PTR TO AC ADDR
   9417	014714					CALL	.TYKLA		; TYPE KL ADDR
	014714	004737 	015072'			 JSR	PC,.TYKLA
   9418	014720					CALL	.TYSLS		; TYPE SLASH
	014720	004737 	014556'			 JSR	PC,.TYSLS
   9419	014724					CALL	.TYSPC		; TYPE SPACE
	014724	004737 	014566'			 JSR	PC,.TYSPC
   9420	014730	010200 				MOV	R2,R0		; PTR TO AC DATA
   9421	014732					CALL	.TYKLN		; TYPE KL DATA
	014732	004737 	015142'			 JSR	PC,.TYKLN
   9422	014736					CALL	.TCRLF		; TYPE CR-LF
	014736	004737 	015536'			 JSR	PC,.TCRLF
   9423	014742					POP	R2		; RESTORE R2
	014742	012602 				 MOV	(SP)+,R2
   9424	014744					RETURN
	014744	000207 				 RTS	PC
   9425
   9426	007210				.PSECT	DATA
   9427
   9428	007210	000000 			ADRTMP:	.WORD	0		; TEMPORARY ADDR LOCATION
   9429	007212	000000 				.WORD	0
   9430	007214	000000 				.WORD	0
   9431
   9432	002257				.PSECT	MESSAG
   9433
   9434	002257	   040 	   040 	   040 	PRMFM:	.ASCIZ	/    FM SWEEP X> /
	002262	   040 	   106 	   115
	002265	   040 	   123 	   127
	002270	   105 	   105 	   120
	002273	   040 	   130 	   076
	002276	   040 	   000
   9435
   9436	014746				.PSECT
TYOUT -- GENERAL TERMINAL OUTPU	MACRO M1113  10-NOV-81 17:44  PAGE 243
.TYELA -- SUBROUTINE TO TYPE A PDP-11 ADDRESS 7601.23

   9438					.SBTTL	.TYELA -- SUBROUTINE TO TYPE A PDP-11 ADDRESS 7601.23
   9439
   9440					;+
   9441					; .TYELA -- SUBROUTINE TO TYPE A PDP-11 ADDRESS
   9442					; .TYELN -- SUBROUTINE TO TYPE A PDP-11 NUMBER
   9443					;
   9444					; THIS SUBROUTINE WILL TYPE AND FORMAT A PDP-11 NUMBER ACCORDING TO THE
   9445					; CURRENT OUTPUT RADIX IN ".ORADX". STANDARD FORMATS ARE:
   9446					;
   9447					;	(A) BINARY:	3 DIGITS AND A SPACE -- XXX<SP>XXX<SP>.....
   9448					;	(B) OCTAL:	6 DIGITS -- XXXXXX
   9449					;	(C) DECIMAL:	NO FORMATTING
   9450					;
   9451					; INPUT ARGUMENTS:
   9452					;
   9453					;	R0 HOLDS THE NUMBER TO BE PRINTED
   9454					;
   9455					; OUTPUT ARGUMENTS (TO ".TYNCM"):
   9456					;
   9457					;	R0 POINTS TO THE NUMBER TO BE PRINTED (ON THE STACK)
   9458					;	R3 POINTS TO A FORMAT TABLE
   9459					;
   9460					; ERROR CODES RETURNED:
   9461					;
   9462					;	IF THE CONSOLE OUTPUT FAILS, THE PARSER EXITS.
   9463					;-
   9464						.ENABL	LSB
   9465
   9466
   9467	014746				.TYELA::
   9468	014746	005037 	000166'			CLR	.LDZFL		; NO LEADING ZEROES
   9469	014752				.TYELN::
   9470	014752					PUSH	<R3,R2,R1,R0>	; SAVE CALLER'S REGISTERS
	014752	010346 				 MOV	R3,-(SP)
	014754	010246 				 MOV	R2,-(SP)
	014756	010146 				 MOV	R1,-(SP)
	014760	010046 				 MOV	R0,-(SP)
   9471	014762	005003 				CLR	R3		; ....ASSUME UNFORMATTED RADIX
   9472	014764	022737 	000002 	000174'		CMP	#^D2,.ORADX	; ....BINARY?
   9473	014772	001002 				BNE	10$		; ....NO
   9474	014774	012703 	007232'			MOV	#ELNBIN,R3	; ....BINARY FORMAT TABLE TO R3
   9475	015000				10$:
   9476	015000	022737 	000012 	000174'		CMP	#^D10,.ORADX	; ....DECIMAL?
   9477	015006	001424 				BEQ	30$		; ....YES
   9478	015010	012703 	007250'			MOV	#ELNOCT,R3	; ....OCTAL FORMAT TABLE TO R3
   9479	015014	000421 				BR	30$		; ....SET UP POINTERS AND EXIT
   9480						;
TYOUT -- GENERAL TERMINAL OUTPU	MACRO M1113  10-NOV-81 17:44  PAGE 244
.TYP3D -- SUBROUTINE TO TYPE A THREE DIGIT NUMBER 7601.23

   9482					.SBTTL	.TYP3D -- SUBROUTINE TO TYPE A THREE DIGIT NUMBER 7601.23
   9483
   9484					;+
   9485					; .TYP3D -- SUBROUTINE TO TYPE A THREE DIGIT NUMBER
   9486					;
   9487					; THIS SUBROUTINE WILL TYPE AND FORMAT A PDP-11 NUMBER ACCORDING TO THE
   9488					; CURRENT OUTPUT RADIX IN ".ORADX". STANDARD FORMATS ARE:
   9489					;
   9490					;	(A) BINARY:	3 DIGITS AND A SPACE -- XXX<SP>XXX<SP>.....
   9491					;	(B) OCTAL:	3 DIGITS -- XXX
   9492					;	(C) DECIMAL:	NO FORMATTING
   9493					;
   9494					; INPUT ARGUMENTS:
   9495					;
   9496					;	R0 HOLDS THE NUMBER TO BE PRINTED
   9497					;
   9498					; OUTPUT ARGUMENTS (TO ".TYNCM"):
   9499					;
   9500					;	R0 POINTS TO THE BYTE TO BE PRINTED (ON THE STACK)
   9501					;	R3 POINTS TO A FORMAT TABLE
   9502					;
   9503					; ERROR CODES RETURNED:
   9504					;
   9505					;	IF THE CONSOLE OUTPUT FAILS, THE PARSER EXITS.
   9506					;-
   9507
   9508	015016				.TYP3D::
   9509	015016					PUSH	<R3,R2,R1,R0>	; SAVE CALLER'S REGISTERS
	015016	010346 				 MOV	R3,-(SP)
	015020	010246 				 MOV	R2,-(SP)
	015022	010146 				 MOV	R1,-(SP)
	015024	010046 				 MOV	R0,-(SP)
   9510	015026	005003 				CLR	R3		; ....ASSUME UNFORMATTED RADIX
   9511	015030	022737 	000002 	000174'		CMP	#^D2,.ORADX	; ....BINARY?
   9512	015036	001002 				BNE	20$		; ....NO
   9513	015040	012703 	007240'			MOV	#ELBBIN,R3	; ....BINARY FORMAT TABLE TO R3
   9514	015044				20$:
   9515	015044	022737 	000012 	000174'		CMP	#^D10,.ORADX	; ....DECIMAL?
   9516	015052	001402 				BEQ	30$		; ....YES
   9517	015054	012703 	007244'			MOV	#ELBOCT,R3	; ....OCTAL FORMAT TABLE TO R3
   9518	015060				30$:
   9519	015060	005046 				CLR	-(SP)		; ....SET UP BUFFERS ON THE STACK
   9520	015062	005046 				CLR	-(SP)		; .....
   9521	015064					PUSH	R0		; ......NUMBER TO BE TYPED
	015064	010046 				 MOV	R0,-(SP)
   9522	015066	010600 				MOV	SP,R0		; .......POINT TO IT
   9523	015070	000455 				BR	.TYNCM		; .......AND GO TO COMMON ROUTINE
   9524						;
   9525
   9526						.DSABL	LSB
TYOUT -- GENERAL TERMINAL OUTPU	MACRO M1113  10-NOV-81 17:44  PAGE 245
.TYKLA -- SUBROUTINE TO TYPE A KL ADDRESS 7608.02

   9528					.SBTTL	.TYKLA -- SUBROUTINE TO TYPE A KL ADDRESS 7608.02
   9529
   9530					;+
   9531					; .TYKLA -- SUBROUTINE TO TYPE A KL ADDRESS
   9532					;
   9533					; THIS SUBROUTINE WILL TYPE AND FORMAT A KL ADDRESS ACCORDING TO THE
   9534					; CURRENT OUTPUT RADIX IN ".ORADX". STANDARD FORMATS ARE:
   9535					;
   9536					;	(A) BINARY:	3 DIGITS AND A SPACE -- XXX<SP>XXX<SP>.....
   9537					;	(B) OCTAL:	HALFWORD FORMAT -- XX<SP>XXXXXX
   9538					;	(C) DECIMAL:	NO FORMATTING
   9539					;
   9540					; INPUT ARGUMENTS:
   9541					;
   9542					;	R0 POINTS TO THE KL ADDRESS TO BE PRINTED
   9543					;
   9544					; OUTPUT ARGUMENTS (TO ".TYNCM"):
   9545					;
   9546					;	R0 POINTS TO THE ADDRESS TO BE PRINTED (ON THE STACK)
   9547					;	R3 POINTS TO A FORMAT TABLE
   9548					;
   9549					; ERROR CODES RETURNED:
   9550					;
   9551					;	IF THE CONSOLE OUTPUT FAILS, THE PARSER EXITS.
   9552					;-
   9553
   9554						.ENABL	LSB
   9555
   9556	015072				.TYKLA::
   9557	015072	005037 	000166'			CLR	.LDZFL		; NO LEADING ZEROES
   9558	015076					PUSH	<R3,R2,R1,R0>	; SAVE CALLER'S REGISTERS
	015076	010346 				 MOV	R3,-(SP)
	015100	010246 				 MOV	R2,-(SP)
	015102	010146 				 MOV	R1,-(SP)
	015104	010046 				 MOV	R0,-(SP)
   9559	015106	005003 				CLR	R3		; ....ASSUME UNFORMATTED RADIX
   9560	015110	022737 	000002 	000174'		CMP	#^D2,.ORADX	; ....BINARY?
   9561	015116	001002 				BNE	10$		; ....NO
   9562	015120	012703 	007226'			MOV	#KLABIN,R3	; ....BINARY FORMAT TABLE TO R3
   9563	015124				10$:
   9564	015124	022737 	000012 	000174'		CMP	#^D10,.ORADX	; ....DECIMAL?
   9565	015132	001424 				BEQ	30$		; ....YES
   9566	015134	012703 	007252'			MOV	#KLAOCT,R3	; ....OCTAL FORMAT TABLE TO R3
   9567	015140	000421 				BR	30$		; ....GO DO COMMON CODE
   9568						;
TYOUT -- GENERAL TERMINAL OUTPU	MACRO M1113  10-NOV-81 17:44  PAGE 246
.TYKLN -- SUBROUTINE TO TYPE A KL NUMBER 7608.02

   9570					.SBTTL	.TYKLN -- SUBROUTINE TO TYPE A KL NUMBER 7608.02
   9571
   9572					;+
   9573					; .TYKLN -- SUBROUTINE TO TYPE A KL NUMBER
   9574					;
   9575					; THIS SUBROUTINE WILL TYPE AND FORMAT A KL NUMBER ACCORDING TO THE
   9576					; CURRENT OUTPUT RADIX IN ".ORADX". STANDARD FORMATS ARE:
   9577					;
   9578					;	(A) BINARY:	3 DIGITS AND A SPACE -- XXX<SP>XXX<SP>.....
   9579					;	(B) OCTAL:	6 DIGITS AND A SPACE -- XXXXXX<SP>XXXXXX
   9580					;	(C) DECIMAL:	NO FORMATTING
   9581					;
   9582					; INPUT ARGUMENTS:
   9583					;
   9584					;	R0 POINTS TO THE NUMBER TO BE PRINTED
   9585					;
   9586					; OUTPUT ARGUMENTS (TO ".TYNCM"):
   9587					;
   9588					;	R0 POINTS TO THE NUMBER TO BE PRINTED (ON THE STACK)
   9589					;	R3 POINTS TO A FORMAT TABLE
   9590					;
   9591					; ERROR CODES RETURNED:
   9592					;
   9593					;	IF THE CONSOLE OUTPUT FAILS, THE PARSER EXITS.
   9594					;-
   9595
   9596	015142				.TYKLN::
   9597	015142					PUSH	<R3,R2,R1,R0>	; SAVE CALLER'S REGISTERS
	015142	010346 				 MOV	R3,-(SP)
	015144	010246 				 MOV	R2,-(SP)
	015146	010146 				 MOV	R1,-(SP)
	015150	010046 				 MOV	R0,-(SP)
   9598	015152	005003 				CLR	R3		; ....ASSUME UNFORMATTED RADIX
   9599	015154	022737 	000002 	000174'		CMP	#^D2,.ORADX	; ....BINARY?
   9600	015162	001002 				BNE	20$		; ....NO
   9601	015164	012703 	007216'			MOV	#KLNBIN,R3	; ....BINARY FORMAT TABLE TO R3
   9602	015170				20$:
   9603	015170	022737 	000012 	000174'		CMP	#^D10,.ORADX	; ....DECIMAL?
   9604	015176	001402 				BEQ	30$		; ....YES
   9605	015200	012703 	007246'			MOV	#KLNOCT,R3	; ....OCTAL FORMAT TABLE TO R3
   9606	015204				30$:
   9607	015204	062700 	000006 			ADD	#^D6,R0		; ....POINT TO THE END OF THE NUMBER
   9608	015210					PUSH	-(R0)		; ....SET IT ON THE STACK
	015210	014046 				 MOV	-(R0),-(SP)
   9609	015212	042710 	177760 			BIC	#^C17,(R0)	; .....TRUNCATE TO 36 BITS
   9610	015216					PUSH	<-(R0),-(R0)>	; .....PUT THE REST ON THE STACK
	015216	014046 				 MOV	-(R0),-(SP)
	015220	014046 				 MOV	-(R0),-(SP)
   9611	015222	010600 				MOV	SP,R0		; .......POINT TO THE STACKED NUMBER
   9612					;	BR	.TYNCM		; .......AND GO TO COMMON ROUTINE
   9613						;
   9614
   9615						.DSABL	LSB
TYOUT -- GENERAL TERMINAL OUTPU	MACRO M1113  10-NOV-81 17:44  PAGE 247
.TYNCM -- COMMON ENTRY POINT FOR ".TYNUM" 7601.23

   9617					.SBTTL	.TYNCM -- COMMON ENTRY POINT FOR ".TYNUM" 7601.23
   9618
   9619					;+
   9620					; .TYNCM -- COMMON ENTRY POINT FOR ".TYNUM".
   9621					;
   9622					; THIS SUBROUTINE SETS UP THE REMAINDER OF THE ARGUMENTS REQUIRED
   9623					; BY ".TYNUM" FROM ".TYELN" AND ".TYKLN".
   9624					;
   9625					; INPUT ARGUMENTS:
   9626					;
   9627					;	R1, R2, AND R3 ARE ON THE STACK
   9628					;	R0 POINTS TO THE NUMBER TO BE PRINTED (ON THE STACK)
   9629					;	R3 POINTS TO A FORMAT TABLE
   9630					;
   9631					; OUTPUT ARGUMENTS:
   9632					;
   9633					;	R0 POINTS TO THE ORIGINAL NUMBER
   9634					;
   9635					; ERROR CODES RETURNED:
   9636					;
   9637					;	IF THE CONSOLE OUTPUT FAILS, THE PARSER EXITS.
   9638					;-
   9639
   9640	015224				.TYNCM::
   9641	015224	005046 				CLR	-(SP)		; .......SPACE FOR DIVISOR
   9642	015226	005046 				CLR	-(SP)		; ........
   9643	015230	005046 				CLR	-(SP)		; .........
   9644	015232	010601 				MOV	SP,R1		; ..........POINT TO IT
   9645	015234	005002 				CLR	R2		; ..........CLEAR R2
   9646	015236	005737 	000166'			TST	.LDZFL		; ..........ARE WE PRINTING LEADING ZEROS/
   9647	015242	001006 				BNE	10$		; ..........YES -- GO ON
   9648	015244					CALL	.TPTST		; ..........NO -- IS THIS NUMBER .EQ. 0?
	015244	004737 	011460'			 JSR	PC,.TPTST
   9649	015250	001003 				BNE	10$		; ..........NO -- JUST PRINT IT
   9650	015252	005003 				CLR	R3		; ..........YES -- CALL IT UNFORMATTED
   9651	015254	005337 	000166'			DEC	.LDZFL		; ..........AND SAY WE PRINT ZEROES
   9652	015260				10$:
   9653	015260					CALL	.TYNUM		; ..........FORMAT AND PRINT THE NUMBER
	015260	004737 	015302'			 JSR	PC,.TYNUM
   9654	015264	062706 	000014 			ADD	#^D12,SP	; ..........FLUSH THE STACK
   9655	015270					POP	<R0,R1,R2,R3>	; ....RESTORE THE REGISTERS
	015270	012600 				 MOV	(SP)+,R0
	015272	012601 				 MOV	(SP)+,R1
	015274	012602 				 MOV	(SP)+,R2
	015276	012603 				 MOV	(SP)+,R3
   9656	015300					RETURN			; TO CALLER
	015300	000207 				 RTS	PC
TYOUT -- GENERAL TERMINAL OUTPU	MACRO M1113  10-NOV-81 17:44  PAGE 248
.TYNCM -- COMMON ENTRY POINT FOR ".TYNUM" 7601.23

   9658					; THESE ARE THE FORMAT TABLES
   9659
   9660	007216				.PSECT	DATA
   9661
   9662	007216				KLNBIN::		 	; KL BINARY TABLE
   9663	007216	   003 	   040 			.BYTE	3,.SPACE	; 3 DIGITS AND A SPACE
   9664	007220	   003 	   040 			.BYTE	3,.SPACE
   9665	007222	   003 	   040 			.BYTE	3,.SPACE
   9666	007224	   003 	   040 			.BYTE	3,.SPACE
   9667	007226				KLABIN::			; KL ADDRESS BINARY
   9668	007226	   003 	   040 			.BYTE	3,.SPACE
   9669	007230	   003 	   040 			.BYTE	3,.SPACE
   9670	007232				ELNBIN::			; ELEVEN BINARY TABLE
   9671	007232	   003 	   040 			.BYTE	3,.SPACE
   9672	007234	   003 	   040 			.BYTE	3,.SPACE
   9673	007236	   003 	   040 			.BYTE	3,.SPACE
   9674	007240				ELBBIN::			; PDP-11 BYTE BINARY TABLE
   9675	007240	   003 	   040 			.BYTE	3,.SPACE
   9676	007242	   003 	   040 			.BYTE	3,.SPACE
   9677	007244				ELBOCT::			; PDP-11 BYTE OCTAL TABLE
   9678	007244	   003 	   000 			.BYTE	3,0		; END OF TABLE
   9679
   9680	007246				KLNOCT::			; KL OCTAL TABLE
   9681	007246	   006 	   040 			.BYTE	6,.SPACE	; 6 DIGITS AND A SPACE
   9682	007250				ELNOCT::			; PDP-11 OCTAL TABLE
   9683	007250	   006 	   000 			.BYTE	6,0		; END OF TABLE
   9684	007252				KLAOCT::			; KL ADDRESS OCTAL
   9685	007252	   006 	   040 			.BYTE	6,.SPACE
   9686	007254	   002 	   000 			.BYTE	2,0
   9687					.EVEN
   9688	015302				.PSECT
TYOUT -- GENERAL TERMINAL OUTPU	MACRO M1113  10-NOV-81 17:44  PAGE 249
.TYNUM -- GENERAL SUBROUTINE TO TYPE A FORMATTED NUMBER 7601.2

   9690					.SBTTL	.TYNUM -- GENERAL SUBROUTINE TO TYPE A FORMATTED NUMBER 7601.23
   9691
   9692					;+
   9693					; .TYNUM -- GENERAL SUBROUTINE TO TYPE A FORMATTED NUMBER ON THE
   9694					;	    CONSOLE OUTPUT DEVICE.
   9695					;
   9696					; THIS SUBROUTINE WILL TYPE A FORMATTED NUMBER IN THE RADIX SPECIFIED
   9697					; IN ".ORADX" ON THE CONSOLE OUTPUT DEVICE.
   9698					;
   9699					; INPUT ARGUMENTS:
   9700					;
   9701					;	R0 POINTS TO THE 36 BIT NUMBER TO BE TYPED
   9702					;	R1 POINTS TO A TRIPLET TO BE USED AS A DIVISOR / REMAINDER BUFFER
   9703					;	R2 IS CLEAR
   9704					;	R3 POINTS TO A FORMAT CONTROL TABLE
   9705					;
   9706					; OUTPUT ARGUMENTS:
   9707					;
   9708					;	R0, R1, R2, AND R3 ARE CLOBBERED
   9709					;	THE NUMBER POINTED TO BY R0 IS CLOBBERED
   9710					;	THE FORMATTED NUMBER IS PLACED IN THE OUTPUT BUFFER
   9711					;
   9712					; ERROR CODES RETURNED:
   9713					;
   9714					;	IF THE CONSOLE OUTPUT FAILS, THE PARSER EXITS.
   9715					;-
   9716
   9717	015302				.TYNUM::
   9718	015302	005703 				TST	R3		; CHECK THE FORMAT POINTER
   9719	015304	001422 				BEQ	50$		; UNFORMATTED IF .EQ. 0
   9720	015306	112302 				MOVB	(R3)+,R2	; ITERATION COUNT TO R2
   9721	015310	001410 				BEQ	40$		; JUST A FORMAT CHARACTER IF .EQ. 0
   9722	015312				10$:
   9723	015312	000417 				BR	50$		; CONVERT ONE DIGIT
   9724						;
   9725	015314				20$:
   9726	015314	005702 				TST	R2		; TEST ITERATION COUNT
   9727	015316	001004 				BNE	30$		; FORMATTED NUMBER -- DO ITERATION COUNT
   9728	015320					CALL	.TPTST		; HAS THE QUOTIENT GONE TO ZERO?
	015320	004737 	011460'			 JSR	PC,.TPTST
   9729	015324	001441 				BEQ	80$		; YES -- PRINT THE NUMBER
   9730	015326	000411 				BR	50$		; NO -- KEEP GOING UNTIL IT DOES
   9731						;
   9732	015330				30$:
   9733	015330	077210 				SOB	R2,10$		; LOOP THRU THIS SET OF ITERATIONS
   9734
   9735					;	[CONTINUED ON THE FOLLOWING PAGE]
TYOUT -- GENERAL TERMINAL OUTPU	MACRO M1113  10-NOV-81 17:44  PAGE 250
.TYNUM -- GENERAL SUBROUTINE TO TYPE A FORMATTED NUMBER 7601.2

   9737					;	[CONTINUED FROM THE PREVIOUS PAGE]
   9738
   9739	015332				40$:
   9740	015332	112302 				MOVB	(R3)+,R2	; FORMAT CONTROL CHARACTER TO R2
   9741	015334	001435 				BEQ	80$		; DONE IF .EQ. 0
   9742	015336	162702 	000060 			SUB	#60,R2		; SINCE OUTPUT ROUTINE WILL ADD 60
   9743	015342					PUSH	R2		; <PUSH>PUT THE FORMAT CHARACTER IN THE STACK
	015342	010246 				 MOV	R2,-(SP)
   9744	015344					PUSH	#60$		; <PUSH>FAKE THE PRINT ROUTINE OUT
	015344	012746 	015402'			 MOV	#60$,-(SP)
   9745	015350	000754 				BR	.TYNUM		; AND DO THE NEXT PART
   9746						;
   9747	015352				50$:				; HERE TO CONVERT ONE DIGIT
   9748	015352					PUSH	R0		; SAVE R0
	015352	010046 				 MOV	R0,-(SP)
   9749	015354	010100 				MOV	R1,R0		; MOVE R1 TO R0
   9750	015356					CALL	.TPCLR		; .CLEAR REMAINDER OUT
	015356	004737 	011356'			 JSR	PC,.TPCLR
   9751	015362					POP	R0		; .RESTORE R0
	015362	012600 				 MOV	(SP)+,R0
   9752	015364	013711 	000174'			MOV	.ORADX,(R1)	; OUTPUT RADIX AS DIVISOR
   9753	015370					CALL	.TPDIV		; DO THE DIVISION
	015370	004737 	011144'			 JSR	PC,.TPDIV
   9754	015374					PUSH	(R1)		; <PUSH> SAVE THE DIGIT
	015374	011146 				 MOV	(R1),-(SP)
   9755	015376					CALL	20$		; AND GO GET MORE
	015376	004737 	015314'			 JSR	PC,20$
   9756						;
   9757	015402				60$:				; HERE TO UNSTACK THE NUMBER
   9758	015402					POP	R0		; <POP>GET THE NUMBER OFF THE STACK
	015402	012600 				 MOV	(SP)+,R0
   9759	015404	005737 	000166'			TST	.LDZFL		; PRINT LEADING ZEROES?
   9760	015410	001004 				BNE	70$		; YES -- DO IT
   9761	015412	005700 				TST	R0		; NO -- SEE IF .EQ. 0 OR FORMAT
   9762	015414	003405 				BLE	80$		; YES -- DON'T PRINT IT
   9763	015416	005337 	000166'			DEC	.LDZFL		; NO -- SET THE FLAG AND PRINT
   9764	015422				70$:
   9765	015422	062700 	000060 			ADD	#60,R0		; ASCIIZE IT
   9766	015426	000426 				BR	.TYCHR		; PRINT IT
   9767						;
   9768	015430				80$:
   9769	015430					RETURN			; FOR NEXT NUMBER OR TO CALLER
	015430	000207 				 RTS	PC
TYOUT -- GENERAL TERMINAL OUTPU	MACRO M1113  10-NOV-81 17:44  PAGE 251
.TYLIN -- SUBROUTINE TO OUTPUT AN .ASCIZ MESSAGE AND A <CRLF>

   9771					.SBTTL	.TYLIN -- SUBROUTINE TO OUTPUT AN .ASCIZ MESSAGE AND A <CRLF> 7601.23
   9772
   9773					;+
   9774					; .TYLIN -- SUBROUTINE TO OUTPUT AN ".ASCIZ" MESSAGE APPENDED BY A <CRLF>
   9775					; .TYMSG -- SUBROUTINE TO OUTPUT AN ".ASCIZ" MESSAGE TO THE CONSOLE
   9776					;	    OUTPUT DEVICE.
   9777					;
   9778					; THESE SUBROUTINES WILL OUTPUT AN ".ASCIZ" MESSAGE TO THE CONSOLE
   9779					; OUTPUT DEVICE. ".TYLIN" WILL APPEND A <CRLF> SEQUENCE TO THE
   9780					; MESSAGE (FORCING THE BUFFER TO BE OUTPUT).
   9781					;
   9782					; INPUT ARGUMENTS:
   9783					;
   9784					;	R0 POINTS TO THE .ASCIZ MESSAGE
   9785					;
   9786					; OUTPUT ARGUMENTS:
   9787					;
   9788					;	NONE.
   9789					;
   9790					; ERROR CODES RETURNED:
   9791					;
   9792					;	IF THE CONSOLE OUTPUT FAILS, THE PARSER EXITS.
   9793					;-
   9794
   9795						.ENABL	LSB
   9796
   9797	015432				.TYLIN::
   9798	015432					CALL	.TYMSG		; OUTPUT THE MESSAGE
	015432	004737 	015446'			 JSR	PC,.TYMSG
   9799	015436	000437 				BR	.TCRLF		; OUTPUT A <CRLF> AND EXIT
   9800						;
   9801	015440				.TYMSF::
   9802	015440					CALL	.TYMSG		; PRINT THE MESSAGE
	015440	004737 	015446'			 JSR	PC,.TYMSG
   9803	015444	000413 				BR	30$		; FORCE IT AND EXIT
   9804						;
   9805	015446				.TYMSG::
   9806	015446					PUSH	R1		; SAVE R1
	015446	010146 				 MOV	R1,-(SP)
   9807	015450	010001 				MOV	R0,R1		; .MESSAGE POINTER TO R1
   9808	015452				10$:
   9809	015452	112100 				MOVB	(R1)+,R0	; .GET THE CHARACTER INTO R0
   9810	015454	001403 				BEQ	20$		; .EXIT IF <NULL>
   9811	015456					CALL	.TYCHR		; .OUTPUT THE CHARACTER
	015456	004737 	015504'			 JSR	PC,.TYCHR
   9812	015462	000773 				BR	10$		; .AND GO GET THE NEXT CHARACTER
   9813						;
   9814	015464				20$:
   9815	015464					POP	R1		; .RESTORE R1
	015464	012601 				 MOV	(SP)+,R1
   9816	015466					RETURN			; TO CALLER
	015466	000207 				 RTS	PC
TYOUT -- GENERAL TERMINAL OUTPU	MACRO M1113  10-NOV-81 17:44  PAGE 252
.TFCHR -- SUBROUTINE TO FORCE A CHARACTER TO THE CONSOLE DEVIC

   9818					.SBTTL	.TFCHR -- SUBROUTINE TO FORCE A CHARACTER TO THE CONSOLE DEVICE 7601.23
   9819
   9820					;+
   9821					; .TFCHR -- FORCED CHARACTER OUTPUT SUBROUTINE
   9822					;
   9823					; THIS SUBROUTINE WILL FORCE PRINT ONE CHARACTER TO THE CONSOLE
   9824					; OUTPUT DEVICE.
   9825					;
   9826					; INPUT ARGUMENTS:
   9827					;
   9828					;	R0 CONTAINS THE CHARACTER TO BE FORCED TO THE OUTPUT DEVICE
   9829					;
   9830					; OUTPUT ARGUMENTS:
   9831					;
   9832					;	THE OUTPUT BYTE COUNTERS AND BYTE POINTER ARE UPDATED.
   9833					;
   9834					; ERROR CODES RETURNED:
   9835					;
   9836					;	IF THE CONSOLE OUTPUT FAILS, THE PARSER EXITS.
   9837					;-
   9838
   9839	015470				.TFCHR::
   9840	015470					CALL	.TYCHR		; LOAD THE CHARACTER INTO THE BUFFER
	015470	004737 	015504'			 JSR	PC,.TYCHR
   9841	015474				30$:
   9842	015474	005737 	000432'			TST	.CDOBC		; WAS THE BUFFER DUMPED?
   9843	015500	001430 				BEQ	40$		; YES -- JUST EXIT
   9844	015502	000430 				BR	.TYOUT		; NO -- FORCE THE BUFFER OUT
   9845						;
TYOUT -- GENERAL TERMINAL OUTPU	MACRO M1113  10-NOV-81 17:44  PAGE 253
.TYCHR -- CONSOLE DEVICE OUTPUT SUBROUTINE 7601.23

   9847					.SBTTL	.TYCHR -- CONSOLE DEVICE OUTPUT SUBROUTINE 7601.23
   9848
   9849					;+
   9850					; .TYCHR -- CONSOLE DEVICE OUTPUT SUBROUTINE
   9851					; .TCRLF -- OUTPUT A <CRLF>
   9852					;
   9853					; THIS SUBROUTINE WILL LOAD ON ASCII CHARACTER INTO THE CONSOLE
   9854					; DEVICE OUTPUT BUFFER AND WILL DUMP THE BUFFER TO THE CONSOLE
   9855					; OUTPUT DEVICE ON:
   9856					;
   9857					;	(A) APPEARANCE OF A <NEW-LINE> CHARACTER IN THE INPUT STREAM
   9858					;
   9859					;	(B) OUTPUT BUFFER OVERFLOW
   9860					;
   9861					; INPUT ARGUMENTS:
   9862					;
   9863					;	R0 CONTAINS THE CHARACTER TO BE OUTPUT.
   9864					;
   9865					; OUTPUT ARGUMENTS:
   9866					;
   9867					;	THE OUTPUT BYTE POINTER AND BYTE COUNTERS ARE UPDATED
   9868					;	OR REINITIALIZED IF THE BUFFER WAS DUMPED.
   9869					;
   9870					; ERROR CODES RETURNED:
   9871					;
   9872					;	IF THE CONSOLE OUTPUT FAILS, THE PARSER EXITS.
   9873					;-
   9874
   9875	015504				.TYCHR::
   9876	015504	110077 	000254'			MOVB	R0,@.TYOBP	; PUT THE CHARACTER IN THE BUFFER
   9877	015510	005237 	000254'			INC	.TYOBP		; POINT TO THE NEXT BYTE
   9878	015514	005237 	000432'			INC	.CDOBC		; INCREMENT THE OUTPUT BYTE COUNT
   9879	015520	005337 	000252'			DEC	.TYOBC		; DECREMENT THE LINE CONTROL COUNTER
   9880	015524	001404 				BEQ	.TCRLF		; END-OF-LINE -- FORCE OUTPUT
   9881	015526	122700 	000012 			CMPB	#12,R0		; WAS IT A "<NEW-LINE>"?
   9882	015532	001013 				BNE	40$		; NO -- JUST EXIT
   9883	015534	000413 				BR	.TYOUT		; YES -- OUTPUT THE LINE AND RETURN
   9884						;
   9885
   9886					;	[CONTINUED ON THE FOLLOWING PAGE]
TYOUT -- GENERAL TERMINAL OUTPU	MACRO M1113  10-NOV-81 17:44  PAGE 254
.TYCHR -- CONSOLE DEVICE OUTPUT SUBROUTINE 7601.23

   9888					;	[CONTINUED FROM THE PREVIOUS PAGE]
   9889
   9890	015536				.TCRLF::			; HERE ON OUTPUT BUFFER END
   9891	015536					PUSH	R0		; SAVE R0
	015536	010046 				 MOV	R0,-(SP)
   9892	015540	012700 	000015 			MOV	#15,R0		; .<CARRIAGE-RETURN>
   9893	015544					CALL	.TYCHR		; .TO BUFFER
	015544	004737 	015504'			 JSR	PC,.TYCHR
   9894	015550	012700 	000012 			MOV	#12,R0		; .<NEW-LINE>
   9895	015554					CALL	.TYCHR		; .TO BUFFER
	015554	004737 	015504'			 JSR	PC,.TYCHR
   9896	015560					POP	R0		; .RESTORE R0
	015560	012600 				 MOV	(SP)+,R0
   9897	015562				40$:
   9898	015562					RETURN			; AND EXIT
	015562	000207 				 RTS	PC
   9899
   9900						.DSABL	LSB
TYOUT -- GENERAL TERMINAL OUTPU	MACRO M1113  10-NOV-81 17:44  PAGE 255
.TYOUT -- CONSOLE OUTPUT SUBROUTINE 7601.23

   9902					.SBTTL	.TYOUT -- CONSOLE OUTPUT SUBROUTINE 7601.23
   9903
   9904					;+
   9905					; .TYINI -- CONSOLE DEVICE INITIALIZATION
   9906					; .TYOUT -- CONSOLE OUTPUT SUBROUTINE
   9907					;
   9908					; THESE SUBROUTINES WILL OUTPUT THE BUFFER TO THE CONSOLE OUTPUT DEVICE.
   9909					;
   9910					; INPUT ARGUMENTS:
   9911					;
   9912					;	NONE.
   9913					;
   9914					; OUTPUT ARGUMENTS:
   9915					;
   9916					;	THE OUTPUT BUFFER POINTER AND BYTE COUNTS ARE RESET
   9917					;
   9918					; ERROR CODES RETURNED:
   9919					;
   9920					;	IF THE OUTPUT FAILS THE PARSER EXITS.
   9921					;-
   9922
   9923
   9924						.MCALL	DIR$, QIOW$
   9925
   9926						.ENABL	LSB
   9927
   9928	015564				.TYOUT::
   9929	015564	105737 	000156'			TSTB	.OUTTY		; [5.1000]TYPE OUTPUT?
   9930	015570	001417 				BEQ	10$		; [5.1000]NO -- NEXT DEVICE
   9931	015572					DIR$	#.ATCID		; YES -- ATTACH THE CONSOLE DEVICE
	015572	012746 	000460'			MOV	#.ATCID,-(SP)
	015576	104375 				EMT	375
   9932	015600	103464 				BCS	TYODIE		; ERROR IF CC-C IS SET
   9933	015602					DIR$	#.CDOUT		; OUTPUT THE BUFFER TO CONSOLE
	015602	012746 	000414'			MOV	#.CDOUT,-(SP)
	015606	104375 				EMT	375
   9934	015610	103460 				BCS	TYODIE		; ERROR IF CC-C IS SET
   9935	015612	105737 	000012'			TSTB	.COSTS		; DID WE REALLY SUCCEED?
   9936	015616	002455 				BLT	TYODIE		; NO -- COMPLAIN BITTERLY
   9937	015620					DIR$	#.DTCID		; DETACH CONSOLE
	015620	012746 	000474'			MOV	#.DTCID,-(SP)
	015624	104375 				EMT	375
   9938	015626	103451 				BCS	TYODIE		; ERROR IF CC-C IS SET
   9939	015630	013737 	000430'	000452'	10$:	MOV	.CDOBP,.LDOBP	; [5.1000]SET BUFFER POINTER
   9940	015636	013737 	000432'	000454'		MOV	.CDOBC,.LDOBC	; [5.1000]SET BYTE COUNT
   9941	015644				.TYOU1::			; [5.1000]ALT ENTRY POINT FOR CMD ECHO
   9942	015644	105737 	000155'			TSTB	.OUTLP		; [5.1000]PRINT OUTPUT?
   9943	015650	001407 				BEQ	20$		; [5.1000]NO -- NEXT DEVICE
   9944	015652					DIR$	#.LDOUT		; [5.1000]YES -- OUTPUT BUFFER
	015652	012746 	000436'			MOV	#.LDOUT,-(SP)
	015656	104375 				EMT	375
   9945	015660	103434 				BCS	TYODIE		; [5.1000]ERROR IF CC-C IS SET
   9946	015662	105737 	000160'			TSTB	.LDSTS		; [5.1000]DID WE REALLY SUCCEED
   9947	015666	002431 				BLT	TYODIE		; [5.1000]NO -- COMPLAIN BITTERLY
   9948	015670	105737 	000154'		20$:	TSTB	.OUTLG		; [5.1000]LOG OUTPUT?
   9949	015674	001412 				BEQ	30$		; [5.1000]NO -- DONE OUTPUTTING
   9950	015676					PUSH	<R1,R2>		; [5.1000]YES -- SAVE REGISTERS
TYOUT -- GENERAL TERMINAL OUTPU	MACRO M1113  10-NOV-81 17:44  PAGE 255-1
.TYOUT -- CONSOLE OUTPUT SUBROUTINE 7601.23

	015676	010146 				 MOV	R1,-(SP)
	015700	010246 				 MOV	R2,-(SP)
   9951	015702	013702 	000452'			MOV	.LDOBP,R2	; [5.1000]SET BUFFER POINTER
   9952	015706	013701 	000454'			MOV	.LDOBC,R1	; [5.1000]SET BYTE COUNTER
   9953	015712					CALL	.WRITR		; [5.1000]LOG IT
	015712	004737 	002616'			 JSR	PC,.WRITR
   9954	015716					POP	<R2,R1>		; [5.1000]RESTORE REGISTERS
	015716	012602 				 MOV	(SP)+,R2
	015720	012601 				 MOV	(SP)+,R1
   9955	015722				30$:
   9956
   9957					;	[CONTINUED ON THE FOLLOWING PAGE]
TYOUT -- GENERAL TERMINAL OUTPU	MACRO M1113  10-NOV-81 17:44  PAGE 256
.TYOUT -- CONSOLE OUTPUT SUBROUTINE 7601.23

   9959					;	[CONTINUED FROM THE PREVIOUS PAGE]
   9960
   9961	015722				.TYINI::			; HERE TO INIT OUTPUT POINTERS
   9962	015722	005037 	000432'			CLR	.CDOBC		; RESET BUFFER BYTE COUNT
   9963	015726	012737 	000544'	000430'		MOV	#.COBFR,.CDOBP	; [5.1000]RESET BUFFER PTR
   9964	015734	012737 	000204 	000252'		MOV	#.COBFL,.TYOBC	; RESET OUTPUT LINE CONTROL
   9965	015742	012737 	000544'	000254'		MOV	#.COBFR,.TYOBP	; RESET OUTPUT BYTE POINTER
   9966	015750					RETURN			; AND EXIT
	015750	000207 				 RTS	PC
   9967	015752				TYODIE:
   9968	015752					CALLR	.EXITP		; EXIT GRACEFULLY
	015752	000137 	010074'			 JMP	.EXITP
   9969						;
   9970						.DSABL	LSB
TYOUT -- GENERAL TERMINAL OUTPU	MACRO M1113  10-NOV-81 17:44  PAGE 257
.TYR50 -- TYPE A .RAD50 SYMBOL 7602.18

   9972					.SBTTL	.TYR50 -- TYPE A .RAD50 SYMBOL 7602.18
   9973
   9974					;+
   9975					; .TYR50 -- TYPE A .RAD50 SYMBOL
   9976					;
   9977					; THIS ROUTINE WILL CONVERT THE .RAD50 SYMBOL IN R0 TO ASCII
   9978					; AND PRINT IT ON THE CONSOLE DEVICE.
   9979					;
   9980					; INPUT ARGUMENTS:
   9981					;
   9982					;	R0 HOLDS THE .RAD50 SYMBOL TO BE PRINTED.
   9983					;
   9984					; OUTPUT ARGUMENTS:
   9985					;
   9986					;	NONE.
   9987					;
   9988					; ERROR CODES RETURNED:
   9989					;
   9990					;	NONE.
   9991					;-
   9992
   9993	015756				.TYR50::
   9994	015756					PUSH	<R1,R2>		; SAVE REGISTERS
	015756	010146 				 MOV	R1,-(SP)
	015760	010246 				 MOV	R2,-(SP)
   9995	015762	012702 	001440'			MOV	#.T50TB,R2	; ..TABLE OF DIVISORS TO R2
   9996	015766				10$:
   9997	015766	012201 				MOV	(R2)+,R1	; ..CURRENT DIVISOR TO R1
   9998	015770	001414 				BEQ	30$		; ..DONE IF .EQ. 0
   9999	015772					CALL	$DIV		; ..DO THE DIVISION
	015772	004737 	000000G			 JSR	PC,$DIV
  10000	015776					PUSH	R1		; ..SAVE THE REMAINDER
	015776	010146 				 MOV	R1,-(SP)
  10001	016000	012701 	001410'			MOV	#.R50TB,R1	; ...CONVERSION TABLE POINTER TO R1
  10002	016004				20$:
  10003	016004	062100 				ADD	(R1)+,R0	; ...CONVERT THIS CHARACTER
  10004	016006	020021 				CMP	R0,(R1)+	; ...FOUND IT YET?
  10005	016010	103775 				BLO	20$		; ...NO -- KEEP TRYING
  10006	016012					CALL	.TYCHR		; ...YES -- PUT IT IN THE BUFFER
	016012	004737 	015504'			 JSR	PC,.TYCHR
  10007	016016					POP	R0		; ...LAST REMAINDER IS NEW DIVIDEND
	016016	012600 				 MOV	(SP)+,R0
  10008	016020	000762 				BR	10$		; ..DO THE NEXT CHARACTER
  10009						;
  10010	016022				30$:
  10011	016022					POP	<R2,R1>		; ..RESTORE REGISTERS
	016022	012602 				 MOV	(SP)+,R2
	016024	012601 				 MOV	(SP)+,R1
  10012	016026					RETURN			; TO CALLER
	016026	000207 				 RTS	PC
TYOUT -- GENERAL TERMINAL OUTPU	MACRO M1113  10-NOV-81 17:44  PAGE 258
.TYR50 -- TYPE A .RAD50 SYMBOL 7602.18

  10014					; THIS IS A PICTURE OF THE "QIOW$" DPB, NOT ALL OF THE ARGUMENTS
  10015					; IN THE DPB ARE USED BY SOME FORMS OF THE "QIOW$" DIRECTIVE.
  10016					;
  10017					;	!===============================================!
  10018					; 00	!	DPB SIZE	!	    DIC		!
  10019					;	!-----------------------------------------------!
  10020					; 02	!	  INPUT / OUTPUT FUNCTION CODE		!
  10021					;	!-----------------------------------------------!
  10022					; 04	!	       LOGICAL UNIT NUMBER		!
  10023					;	!-----------------------------------------------!
  10024					; 06	!	PRIORITY	!   EVENT FLAG NUMBER	!
  10025					;	!-----------------------------------------------!
  10026					; 10	!	     I/O STATUS BLOCK ADDRESS		!
  10027					;	!-----------------------------------------------!
  10028					; 12	!	  AST ROUTINE ADDRESS (NOT USED)	!
  10029					;	!-----------------------------------------------!
  10030					; 14	!	      DATA BUFFER ADDRESS		!
  10031					;	!-----------------------------------------------!
  10032					; 16	!		  BYTE COUNT			!
  10033					;	!-----------------------------------------------!
  10034					; 20	!	OUTPUT FORMAT CONTROL CHARACTER		!
  10035					;	!===============================================!
  10036
  10037					; THIS IS THE CONSOLE OUTPUT DPB
  10038
  10039	000414				.PSECT	DPBS
  10040
  10041	000414				.CDOUT::
  10042	000414					QIOW$	IO.WLB,CODLUN,E.FCOD,0,.COSTS,0,<.COBFR,0,VF.INT>
	000414	   003 	   011 			.BYTE	3,$$$ARG
	000416	000000G				.WORD	IO.WLB
	000420	000002 				.WORD	CODLUN
	000422	   003 	   000 			.BYTE	E.FCOD,0
	000424	000012'				.WORD	.COSTS
	000426	000000 				.WORD	0
	000430	000544'				.WORD	.COBFR
	000432	000000 				.WORD	0
	000434	000000 				.WORD	VF.INT
  10043
  10044		000430'			.CDOBP==.CDOUT+Q.IOPL		; CONSOLE OUTPUT BYTE POINTER
  10045		000432'			.CDOBC==.CDOUT+Q.BYCT		; CONSOLE OUTPUT BYTE COUNT
  10046		000434'			.CDOFC==.CDOUT+Q.OVFC		; CONSOLE OUTPUT FORMAT CHARACTER
  10047
  10048					; THIS IS THE LIST DEVICE OUTPUT DPB
  10049
  10050	000436				.LDOUT::
  10051	000436					QIOW$	IO.WLB,LSTLUN,E.FLOD,0,.LDSTS,0,<.COBFR,0,VF.INT>
	000436	   003 	   011 			.BYTE	3,$$$ARG
	000440	000000G				.WORD	IO.WLB
	000442	000003 				.WORD	LSTLUN
	000444	   005 	   000 			.BYTE	E.FLOD,0
	000446	000160'				.WORD	.LDSTS
	000450	000000 				.WORD	0
	000452	000544'				.WORD	.COBFR
	000454	000000 				.WORD	0
	000456	000000 				.WORD	VF.INT
  10052
TYOUT -- GENERAL TERMINAL OUTPU	MACRO M1113  10-NOV-81 17:44  PAGE 258-1
.TYR50 -- TYPE A .RAD50 SYMBOL 7602.18

  10053		000452'			.LDOBP==.LDOUT+Q.IOPL		; LIST DEVICE BYTE POINTER
  10054		000454'			.LDOBC==.LDOUT+Q.BYCT		; LIST DEVICE BYTE COUNT
  10055		000456'			.LDOFC=.LDOUT+Q.OVFC		; LIST DEVICE FORMAT CHARACTER
  10056
  10057					; ATTACH CONSOLE INPUT DEVICE EXCLUSIVELY TO PARSER TASK
  10058
  10059	000460				.ATCID::
  10060	000460					QIOW$	IO.ATT,CIDLUN,E.FCID,0,0,0
	000460	   003 	   006 			.BYTE	3,$$$ARG
	000462	000000G				.WORD	IO.ATT
	000464	000001 				.WORD	CIDLUN
	000466	   002 	   000 			.BYTE	E.FCID,0
	000470	000000 				.WORD	0
	000472	000000 				.WORD	0
  10061
  10062					; DETACH THE CONSOLE INPUT DEVICE FROM THE PARSER TASK
  10063
  10064	000474				.DTCID::
  10065	000474					QIOW$	IO.DET,CIDLUN,E.FCOD,0,0,0
	000474	   003 	   006 			.BYTE	3,$$$ARG
	000476	000000G				.WORD	IO.DET
	000500	000001 				.WORD	CIDLUN
	000502	   003 	   000 			.BYTE	E.FCOD,0
	000504	000000 				.WORD	0
	000506	000000 				.WORD	0
  10066
  10067	016030				.PSECT
TYOUT -- GENERAL TERMINAL OUTPU	MACRO M1113  10-NOV-81 17:44  PAGE 260
.TYR50 -- TYPE A .RAD50 SYMBOL 7602.18

  10070		000001 			FTLCMN==1
  10071
  10072		000260'			.END	DATABX
TYOUT -- GENERAL TERMINAL OUTPU	MACRO M1113  10-NOV-81 17:44  PAGE 260-1
SYMBOL TABLE

ABMSG   001031RG    003	AP.PWF= 000001   	CALERM  000112R     005	CLRMSG  000373RG    003	DEXDON= 000004
ABOMSG  000365RG    003	AP.SAP= 000002   	CALL  = 000040   	CNRERM  000412R     005	DEXWD1= 174406
ACBMSG  001545RG    003	AP.SBE= 000100   	CALLI = 000047   	CNTMSG  000401RG    003	DEXWD2= 174404
ADD   = 000270   	ARMSG   000753RG    003	CAM   = 000310   	CNUPE = 000002   	DEXWD3= 174402
ADDB  = 000273   	ARXMSG  001000RG    003	CAMA  = 000314   	CODLUN= 000002   	DFAD  = 000110
ADDI  = 000271   	ASH   = 000240   	CAME  = 000312   	CONI  = 000005   	DFBEND= 000330RG    002
ADDM  = 000272   	ASHC  = 000244   	CAMG  = 000317   	CONIS   002236R     003	DFDV  = 000113
ADMSG   000771RG    003	AUGMSG  001267RG    003	CAMGE = 000315   	CONMSG  001576RG    003	DFMP  = 000112
ADRTMP  007210R     002	AUTMSG  001556RG    003	CAML  = 000311   	CONO  = 000004   	DFN   = 000131
ADXMSG  000774RG    003	A.LULU= 000002   	CAMLE = 000313   	CONOS   002231R     003	DFSB  = 000111
ALLMSG  001342RG    003	A.LUNA= 000004   	CAMN  = 000316   	CONSO = 000007   	DFUNC = 000200
AMBERM  003714R     005	A.LUNU= 000006   	CAPERM  000141R     005	CONSOS  002251R     003	DF.DMG= 000004
AND   = 000404   	BAEERM  000023R     005	CBOERM  000200R     005	CONSZ = 000006   	DF.DMN= 000007
ANDB  = 000407   	BCCTER  003362R  	CCA   = 000014   	CONSZS  002243R     003	DF.DOR= 000001
ANDCA = 000410   	BIT0  = 000001   	CC.ALL= 003417   	CPEERM  000452R     005	DF.EHG= 000010
ANDCAB= 000413   	BIT00 = 000001   	CC.NRM= 000000   	CPUMSG  001346RG    003	DF.EHM= 000011
ANDCAI= 000411   	BIT01 = 000002   	CDD   = 000020   	CPVMSG  000000RG    003	DF.EMG= 000005
ANDCAM= 000412   	BIT02 = 000004   	CDIERM  000236R     005	CRAMSG  001034RG    003	DF.EMN= 000006
ANDCB = 000440   	BIT03 = 000010   	CD.ALL= 003400   	CRHERM  000501R     005	DF.KLR= 000012
ANDCBB= 000443   	BIT04 = 000020   	CD.CLC= 000400   	CRLMSG  001043RG    003	DF.KLW= 000013
ANDCBI= 000441   	BIT05 = 000040   	CD.CRC= 002000   	CRMMSG  001376RG    003	DF.KLX= 000014
ANDCBM= 000442   	BIT06 = 000100   	CD.DPC= 001000   	CR.ALL= 000003   	DF.OFF= 000002
ANDCM = 000420   	BIT07 = 000200   	CD.NRM= 000000   	CR.CR1= 000001   	DF.ON = 000003
ANDCMB= 000423   	BIT08 = 000400   	CESCES  000016R  	CR.CR2= 000002   	DF.PDP= 000016
ANDCMI= 000421   	BIT09 = 001000   	CESERM  003746R     005	CR.FUL= 000000   	DF.PEX= 000015
ANDCMM= 000422   	BIT1  = 000002   	CFHERM  000317R     005	CR.HLF= 000001   	DIAG1 = 174430
ANDI  = 000405   	BIT10 = 002000   	CHNPNT= 000001   	CR.NRM= 000000   	DIAG2 = 174432
ANDM  = 000406   	BIT11 = 004000   	CH.ALP= 000001   	CR.QTR= 000002   	DIAG3 = 174436
AOBJN = 000253   	BIT12 = 010000   	CH.ANM= 000003   	CR.SLO= 000003   	DIKL10= 000010
AOBJP = 000252   	BIT13 = 020000   	CH.AOP= 000100   	CS.ALL= 000014   	DISMSG  000422RG    003
AOJ   = 000340   	BIT14 = 040000   	CH.END= 000034   	CS.CS1= 000004   	DIV   = 000234
AOJA  = 000344   	BIT15 = 100000   	CH.EOC= 000010   	CS.CS2= 000010   	DIVB  = 000237
AOJE  = 000342   	BIT2  = 000004   	CH.EOL= 000004   	CS.EXP= 177670   	DIVI  = 000235
AOJG  = 000347   	BIT3  = 000010   	CH.EOS= 000020   	CS.EXT= 000010   	DIVM  = 000236
AOJGE = 000345   	BIT4  = 000020   	CH.ILL= 000200   	CS.FST= 000004   	DLYCNT= 174400
AOJL  = 000341   	BIT5  = 000040   	CH.NUL= 000000   	CS.MGN= 000004   	DMFERM  000647R     005
AOJLE = 000343   	BIT6  = 000100   	CH.NUM= 000002   	CS.NRM= 000000   	DMOVE = 000120
AOJN  = 000346   	BIT7  = 000200   	CH.PFX= 000040   	CS.UDF= 000014   	DMOVEM= 000124
AOS   = 000350   	BIT8  = 000400   	CIDLUN= 000001   	CTLMSG  001415RG    003	DMOVN = 000121
AOSA  = 000354   	BIT9  = 001000   	CKCILS  000152R  	CTYPTR= ****** GX	DMOVNM= 000125
AOSE  = 000352   	BLKI  = 000000   	CKCMRA  000160R  	CYCLS = 000002   	DNFERM  000736R     005
AOSG  = 000357   	BLKIS   002203R     003	CKEEOC  000250R  	DATABX  000260RG    002	DNPERM  000775R     005
AOSGE = 000355   	BLKO  = 000002   	CKRKLR  000366R  	DATAI = 000001   	DOCCNR  010066R
AOSL  = 000351   	BLKOS   002216R     003	CLEAR = 000400   	DATAIS  002210R     003	DON10C= 040000
AOSLE = 000353   	BLT   = 000251   	CLEARB= 000403   	DATAO = 000003   	DON10S= 100000
AOSN  = 000356   	BPARER= 000020   	CLEARI= 000401   	DATAOS  002223R     003	DON11C= 000100
APEERM  000000R     005	BRMSG   001004RG    003	CLEARM= 000402   	DATE  = 000004   	DON11S= 000200
APR   = 000000   	BRXMSG  001007RG    003	CLEERM  000355R     005	DATMSG  001606RG    003	DORERM  000706R     005
APRMSG  001243RG    003	CAEERM  000056R     005	CLKMSG  001570RG    003	DAVERM  000543R     005	DPB   = 000137
AP.ALL= 000177   	CAI   = 000300   	CLOATR= 000256R     004	DBTERM  000574R     005	DPDTEN= 000322RG    004
AP.ARP= 001000   	CAIA  = 000304   	CLOATT= 000262R     004	DCKERM  000624R     005	DPS4  = 040000
AP.CDP= 000004   	CAIE  = 000302   	CLODAC  000240R     004	DCOMST= 000001   	DPTMSG  001403RG    003
AP.EIP= 000400   	CAIG  = 000307   	CLOFCF  002160R  	DCRMSG  000704RG    003	DRAMSG  001051RG    003
AP.IPF= 000020   	CAIGE = 000305   	CLOIOF= 000242R     004	DECMSG  001331RG    003	DRDMSG  002115R     003
AP.MPE= 000010   	CAIL  = 000301   	CLOLUN= 000244R     004	DEP   = 010000   	DRESET= 000100
AP.NRM= 001400   	CAILE = 000303   	CLOSE = 000070   	DEPMSG  000412RG    003	DRMMSG  001521RG    003
AP.NXM= 000040   	CAIN  = 000306   	CLOWAT  000260R     004	DEX   = 000400   	DR.DTE= 000011
TYOUT -- GENERAL TERMINAL OUTPU	MACRO M1113  10-NOV-81 17:44  PAGE 260-2
SYMBOL TABLE

DSEND = 000004   	D3.CDD= 000020   	ERSMSG  000107R     003	FMPR  = 000164   	FR.102= 000204
DSFERM  001034R     005	D3.MBZ= 177704   	ESDERM  001317R     005	FMPRB = 000167   	FR.103= 000206
DS04  = 004000   	D3.NPE= 000002   	ESEERM  001354R     005	FMPRI = 000165   	FR.104= 000210
DS05  = 002000   	D3.PAR= 040000   	ETRMSG  002151R     003	FMPRM = 000166   	FR.105= 000212
DS06  = 001000   	D3.RST= 000001   	EXAMSG  000435RG    003	FNDALN  000000R     004	FR.106= 000214
DTCERM  001067R     005	D3.SCD= 000040   	EXCH  = 000250   	FNDALU= 000002R     004	FR.107= 000216
DTECMD= 000451   	D3.SSL= 100000   	EXDDMF  004134R  	FNDCAL  001550R  	FR.110= 000220
DTEDSF  003626R  	D3.TXB= 000001   	EXDEMF  004142R  	FNDDNF  001556R  	FR.111= 000222
DTEFLG= 000444   	D3.UPE= 000020   	EXDESD  004104R  	FNDFNA  000010R     004	FR.112= 000224
DTEF11= 000450   	D3.URE= 000004   	EXDESE  004120R  	FNDFNB= 000036R     004	FR.113= 000226
DTEMSG  001060RG    003	D3.WEP= 000010   	EXDTEN= 000334RG    004	FNDLUN= 000014R     004	FR.114= 000230
DTEMTD= 000455   	EBCECT  003722R  	EXECTO  004354R  	FOFERM  001557R     005	FR.115= 000232
DTEMTI= 000456   	EBPEPE  000424R  	EXRTBL= 000012 G 	FORPRO= 000020   	FR.116= 000234
DTKMSG  002166R     003	EBSEL = 000100   	EXTEND= 000123   	FRDERM  001607R     005	FR.117= 000236
DTRMSG  002034R     003	EBSMSG  001013RG    003	EXTEXT  000214R     004	FRDFRF  004436R  	FR.120= 000240
DUPE  = 000020   	EBUSPC= 000020   	EXTFEF  002036R  	FRDMSG  000445RG    003	FR.121= 000242
DURE  = 000004   	EBUSPS= 000004   	EXTMSG  001425RG    003	FRDTEN= 000346RG    004	FR.122= 000244
DWRMSG  002121R     003	ECTERM  001141R     005	E.FCID= 000002   	FRFERM  004000R     005	FR.123= 000246
DW1MSG  002055R     003	EDEPT   002125R     003	E.FCOD= 000003   	FR.ADX= 000254   	FR.124= 000250
DW2MSG  002065R     003	EDEXV   002131R     003	E.FCTC= ****** GX	FR.APR= 000220   	FR.125= 000252
DW3MSG  002105R     003	EDONES= 040000   	E.FFIL= 000006   	FR.ARX= 000252   	FR.126= 000254
DXWRD1= 002000   	EDPHY   002145R     003	E.FHTO= 000001   	FR.BRX= 000250   	FR.127= 000256
D.CDLS= ****** GX	EDTYTB  007154R     002	E.FKLN= 000004   	FR.CA1= 000312   	FR.130= 000260
D1.CES= 004000   	EDUPT   002135R     003	E.FLOD= 000005   	FR.CA2= 000310   	FR.131= 000262
D1.DCS= 000001   	EDUSV   002141R     003	FAD   = 000140   	FR.CL1= 000316   	FR.132= 000264
D1.DDT= 000040   	ED.EPT= 000000   	FADB  = 000143   	FR.CL2= 000314   	FR.133= 000266
D1.DEX= 000400   	ED.EXV= 000040   	FADL  = 000141   	FR.CRD= 000302   	FR.134= 000270
D1.DFM= 000010   	ED.PHY= 000200   	FADM  = 000142   	FR.CR1= 000316   	FR.135= 000272
D1.DS0= 100000   	ED.UPT= 000100   	FADR  = 000144   	FR.CR2= 000314   	FR.136= 000274
D1.DS1= 040000   	ED.USV= 000140   	FADRB = 000147   	FR.CR3= 000312   	FR.137= 000276
D1.DS2= 020000   	EF.CRI= ****** GX	FADRI = 000145   	FR.CR4= 000310   	FR.140= 000300
D1.DS3= 010000   	ELBBIN  007240RG    002	FADRM = 000146   	FR.DA1= 000260   	FR.141= 000302
D1.DS4= 004000   	ELBOCT  007244RG    002	FCFERM  001411R     005	FR.DA2= 000262   	FR.142= 000304
D1.DS5= 002000   	ELEMSG  000756RG    003	FDV   = 000170   	FR.EBS= 000356   	FR.143= 000306
D1.DS6= 001000   	ELNBIN  007232RG    002	FDVB  = 000173   	FR.FE1= 000266   	FR.144= 000310
D1.HLP= 001000   	ELNNOR  013200R  	FDVL  = 000171   	FR.FE2= 000264   	FR.145= 000312
D1.LBK= 000200   	ELNOCT  007250RG    002	FDVM  = 000172   	FR.PI0= 000200   	FR.146= 000314
D1.MBZ= 000442   	EMFERM  001172R     005	FDVR  = 000174   	FR.PI1= 000202   	FR.147= 000316
D1.PLS= 000020   	ENBMSG  001526RG    003	FDVRB = 000177   	FR.RAD= 000256   	FR.150= 000320
D1.RUN= 002000   	ENTCRE  000070R     004	FDVRI = 000175   	FR.RAR= 000240   	FR.151= 000322
D1.T10= 000200   	ENTDEL  000144R     004	FDVRM = 000176   	FR.RBR= 000242   	FR.152= 000324
D1.T11= 000100   	ENTENA  000114R     004	FEBMSG  001224RG    003	FR.RFM= 000246   	FR.153= 000326
D1.V04= 000020   	ENTER = 000077   	FEFERM  001442R     005	FR.RMQ= 000244   	FR.154= 000330
D1.XFR= 000004   	ENTFEN  001730R  	FENERM  001474R     005	FR.SC1= 000262   	FR.155= 000332
D1011 = 000040   	EOCERM  001231R     005	FERMSG  001067RG    003	FR.SC2= 000260   	FR.156= 000334
D2RST   004304R     002	EOFMSG  000335R     003	FIX   = 000122   	FR.SR1= 000306   	FR.157= 000336
D2.EBD= 040000   	EPEERM  001267R     005	FIXR  = 000126   	FR.SR2= 000304   	FR.160= 000340
D2.MBZ= 177641   	EPTR  = 000000   	FLDMSG  000050R     003	FR.VM0= 000320   	FR.161= 000342
D2.MS1= 000002   	EQV   = 000444   	FLFERM  001525R     005	FR.VM1= 000322   	FR.162= 000344
D2.MS2= 000004   	EQVB  = 000447   	FLGMSG  001072RG    003	FR.VM2= 000324   	FR.163= 000346
D2.MS4= 000010   	EQVI  = 000445   	FLTMSG  001613RG    003	FR.VM3= 000326   	FR.164= 000350
D2.MS8= 000020   	EQVM  = 000446   	FLTR  = 000127   	FR.VM4= 000330   	FR.165= 000352
D2.RA0= 100000   	ERRMSG  001352RG    003	FMMSG   001020RG    003	FR.VM5= 000332   	FR.166= 000354
D2.RA1= 040000   	ERR10C= 010000   	FMP   = 000160   	FR.VM6= 000334   	FR.167= 000356
D2.RA2= 020000   	ERR10S= 020000   	FMPB  = 000163   	FR.VM7= 000336   	FR.170= 000360
D2.RST= 000100   	ERR11C= 000001   	FMPL  = 000161   	FR.100= 000200   	FR.171= 000362
D3RST   004306R     002	ERR11S= 000002   	FMPM  = 000162   	FR.101= 000202   	FR.172= 000364
TYOUT -- GENERAL TERMINAL OUTPU	MACRO M1113  10-NOV-81 17:44  PAGE 260-3
SYMBOL TABLE

FR.173= 000366   	FW.DR2= 000142   	FX.SRF= 000022   	HLLOI = 000521   	IDIV  = 000230
FR.174= 000370   	FW.DR3= 000144   	FX.SYC= 000010   	HLLOM = 000522   	IDIVB = 000233
FR.175= 000372   	FW.EBL= 000174   	FX.UDR= 000032   	HLLOS = 000523   	IDIVI = 000231
FR.176= 000374   	FW.IAC= 000154   	FX.UIR= 000030   	HLLS  = 000503   	IDIVM = 000232
FR.177= 000376   	FW.IOJ= 000152   	FX.000= 000000   	HLLZ  = 000510   	IDPB  = 000136
FSB   = 000150   	FW.IPE= 000114   	FX.001= 000002   	HLLZI = 000511   	IE.EBX= ****** GX
FSBB  = 000153   	FW.KLO= 000156   	FX.002= 000004   	HLLZM = 000512   	IE.EOF= ****** GX
FSBL  = 000151   	FW.LAR= 000176   	FX.003= 000006   	HLLZS = 000513   	IE.NSF= ****** GX
FSBM  = 000152   	FW.LBL= 000106   	FX.004= 000010   	HLR   = 000544   	IFCERM  001747R     005
FSBR  = 000154   	FW.LBR= 000104   	FX.005= 000012   	HLRE  = 000574   	IFLOP = 100000
FSBRB = 000157   	FW.MBX= 000162   	FX.006= 000014   	HLREI = 000575   	ILCERM  004103R     005
FSBRI = 000155   	FW.SBR= 000174   	FX.007= 000016   	HLREM = 000576   	ILDB  = 000134
FSBRM = 000156   	FW.040= 000100   	FX.010= 000020   	HLRES = 000577   	ILIERM  002003R     005
FSC   = 000132   	FW.041= 000102   	FX.011= 000022   	HLRO  = 000564   	ILSERM  004135R     005
FSSMSG  001535RG    003	FW.042= 000104   	FX.012= 000024   	HLROI = 000565   	IMUL  = 000220
FSWERM  001637R     005	FW.043= 000106   	FX.013= 000026   	HLROM = 000566   	IMULB = 000223
FTBYTE= 000000   	FW.044= 000110   	FX.014= 000030   	HLROS = 000567   	IMULI = 000221
FTCRAM= 000000   	FW.045= 000112   	FX.015= 000032   	HLRS  = 000547   	IMULM = 000222
FTDEBU= 000001   	FW.046= 000114   	FX.016= 000034   	HLRZ  = 000554   	IN    = 000056
FTDISP= 000000   	FW.047= 000116   	FX.017= 000036   	HLRZI = 000555   	INBUF = 000064
FTDRAM= 000000   	FW.050= 000120   	FX.020= 000040   	HLRZM = 000556   	INCMSG  000716RG    003
FTHELP= 000000   	FW.051= 000122   	FX.021= 000042   	HLRZS = 000557   	INDLUN= 000005
FTKLE = 000001   	FW.052= 000124   	FX.022= 000044   	HLTMSG  000467RG    003	INIMSG  000474RG    003
FTKLER= 000000   	FW.053= 000126   	FX.023= 000046   	HRL   = 000504   	INIT  = 000041
FTLCMN= 000001 G 	FW.054= 000130   	FX.024= 000050   	HRLE  = 000534   	INPUT = 000066
FTLCVT= 000000   	FW.055= 000132   	FX.025= 000052   	HRLEI = 000535   	INTMSG  001436RG    003
FTLIST= 000001   	FW.056= 000134   	FX.026= 000054   	HRLEM = 000536   	INTROF= 000010
FTTRAK= 000001   	FW.057= 000136   	FX.027= 000056   	HRLES = 000537   	INTRON= 000040
FTTRP4= 000001   	FW.060= 000140   	FX.030= 000060   	HRLI  = 000505   	INTSON= 000001
FTUCVR= 000130   	FW.061= 000142   	FX.031= 000062   	HRLM  = 000506   	INT10S= 000400
FT1105= 000001   	FW.062= 000144   	FX.032= 000064   	HRLO  = 000564   	INT11C= 002000
FT1110= 000001   	FW.063= 000146   	FX.033= 000066   	HRLOI = 000565   	INT11S= 004000
FT1115= 000001   	FW.064= 000150   	FX.034= 000070   	HRLOM = 000566   	IOCERM  002035R     005
FT1120= 000001   	FW.065= 000152   	FX.035= 000072   	HRLOS = 000567   	IOMSG   001360RG    003
FT1135= 000001   	FW.066= 000154   	FX.036= 000074   	HRLS  = 000507   	IOR   = 000434
FT1140= 000001   	FW.067= 000156   	FX.037= 000076   	HRLZ  = 000514   	IORB  = 000437
FT1145= 000000   	FW.070= 000160   	GETSTS= 000062   	HRLZI = 000515   	IORI  = 000435
FULMSG  001456RG    003	FW.071= 000162   	GTFILC  014250R  	HRLZM = 000516   	IORM  = 000436
FWDTEN= 000360RG    004	FW.072= 000164   	GTKKLA  013260R  	HRLZS = 000517   	IOTAB   007166R     002
FWFERM  004025R     005	FW.073= 000166   	GTLCBO  013114R  	HRR   = 000540   	IO.ATT= ****** GX
FWRFWF  004560R  	FW.074= 000170   	GTLILC  013122R  	HRRE  = 000570   	IO.CRE= ****** GX
FWRMSG  000453RG    003	FW.075= 000172   	GTNILI  013664R  	HRREI = 000571   	IO.DAC= ****** GX
FWTERM  001664R     005	FW.076= 000174   	GTNMRA  014512R  	HRREM = 000572   	IO.DEL= ****** GX
FW.APE= 000116   	FW.077= 000176   	GTNNER  013472R  	HRRES = 000573   	IO.DET= ****** GX
FW.CA1= 000122   	FXCFXF  004730R  	GTNNOR  014520R  	HRRI  = 000541   	IO.ENA= ****** GX
FW.CA2= 000124   	FXCMSG  000462RG    003	GTNORE  013466R  	HRRM  = 000542   	IO.EXT= ****** GX
FW.CDR= 000112   	FXDTEN= 000372RG    004	HARMSG  001744RG    003	HRRO  = 000560   	IO.FNA= ****** GX
FW.CHN= 000160   	FXFERM  004053R     005	HIBYTE= 177400   	HRROI = 000561   	IO.RLB= ****** GX
FW.CRD= 000126   	FX.BMC= 000012   	HLFMSG  001463RG    003	HRROM = 000562   	IO.RNA= ****** GX
FW.CR1= 000136   	FX.CMR= 000014   	HLL   = 000500   	HRROS = 000563   	IO.RVB= ****** GX
FW.CR2= 000134   	FX.CON= 000024   	HLLE  = 000530   	HRRS  = 000543   	IO.WLB= ****** GX
FW.CR3= 000132   	FX.CRF= 000020   	HLLEI = 000531   	HRRZ  = 000550   	IO.WVB= ****** GX
FW.CR4= 000130   	FX.CSP= 000000   	HLLEM = 000532   	HRRZI = 000551   	IPCERM  004201R     005
FW.CSR= 000110   	FX.CST= 000002   	HLLES = 000533   	HRRZM = 000552   	IP.ALL= 000017
FW.DJE= 000146   	FX.EBC= 000006   	HLLI  = 000501   	HRRZS = 000553   	IP.CRP= 000004
FW.DJO= 000150   	FX.MBC= 000004   	HLLM  = 000502   	IBP   = 000133   	IP.DRP= 000002
FW.DR1= 000140   	FX.SMR= 000016   	HLLO  = 000520   	IDFERM  001715R     005	IP.FMP= 000010
TYOUT -- GENERAL TERMINAL OUTPU	MACRO M1113  10-NOV-81 17:44  PAGE 260-4
SYMBOL TABLE

IP.FSS= 000001   	LG.MAR= 000020   	M.KTAE= 000010   	PAGMSG  001363RG    003	PSWW13= 000017
IP.NRM= 000016   	LG.MNT= 000004   	M.KTEF= 000002   	PARERC  000662R  	PSWW2 = 000006
IRCERM  002065R     005	LG.MOD= 000040   	M.KTMG= 000004   	PARERX  000506R  	PSWW3 = 000007
IREERM  002120R     005	LG.NUL= 000000   	M.KTUN= 000006   	PARMSG  000011RG    003	PSWW4 = 000010
IS.SET= ****** GX	LG.OPR= 000001   	M.PARQ= ****** GX	PARNAM  000021RG    003	PSWW5 = 000011
ITFERM  002150R     005	LG.PRG= 000002   	NDIERM  002543R     005	PARUEC  000734R  	PSWW6 = 000012
ITNERM  002202R     005	LG.PRM= 000003   	NEBMSG  000122R     003	PAR$$E= 000027   	PSWW7 = 000013
JANMSG  001214RG    003	LG.RNG= 000100   	NERERM  002573R     005	PAR$$K= 000126   	PS.NRM= 001416
JFCL  = 000255   	LG.RPT= 000400   	NORERM  002635R     005	PAR$$V= 000006   	PTLERM  003111R     005
JFFO  = 000243   	LG.STR= 000200   	NOTMSG  001650RG    003	PCMSG   001026RG    003	PTOATM  000270R     003
JMPMSG  000507RG    003	LOAD11= 000004   	NOVMSG  001320RG    003	PC.AFI= 000020   	PTRTEM  000151R     003
JRA   = 000267   	LOGLUN= 000004   	NPIERM  002675R     005	PC.AT0= 000004   	PTRTHM  000221R     003
JRST  = 000254   	LOGMSG  001505RG    003	NRMMSG  001367RG    003	PC.AT1= 000010   	PULSE = 000020
JSA   = 000266   	LOKFLF  001656R  	NSFERM  002731R     005	PC.BIS= 000400   	PUSH  = 000261
JSP   = 000265   	LOKFNA  000040R     004	NSKERM  004244R     005	PC.CY0= 004000   	PUSHJ = 000260
JSR   = 000264   	LOKFNB= 000066R     004	NSTERM  002754R     005	PC.CY1= 002000   	QSIZE = 000023
JSYS  = 000104   	LOKIOF= 000042R     004	NTIERM  002777R     005	PC.FOV= 001000   	QTRMSG  001470RG    003
JULMSG  001262RG    003	LOKLUN= 000044R     004	NULMSG  000364RG    003	PC.FUF= 000002   	QUTMSG  000661RG    003
JUMP  = 000320   	LOOKUP= 000076   	NULSTP= 000040   	PC.LIP= 000040   	Q.BYCT= 000016
JUMPA = 000324   	LPTMSG  001511RG    003	NUPE  = 000002   	PC.NDV= 000001   	Q.IBUF= 000014
JUMPE = 000322   	LSH   = 000242   	NXTMSG  000730RG    003	PC.OVF= 010000   	Q.IOAE= 000012
JUMPG = 000327   	LSHC  = 000246   	OAIERM  003027R     005	PC.UIO= 000100   	Q.IOEF= 000006
JUMPGE= 000325   	LSTLUN= 000003   	OCTMSG  001310RG    003	PC.USR= 000200   	Q.IOFN= 000002
JUMPL = 000321   	MAP   = 000257   	OFCERM  003061R     005	PERCLR= 001000   	Q.IOLU= 000004
JUMPLE= 000323   	MARMSG  001235RG    003	OFFMSG  000044RG    003	PE.ALL= 000037   	Q.IOPL= 000014
JUMPN = 000326   	MAYMSG  001251RG    003	OFSMSG  001654RG    003	PE.CES= 000001   	Q.IOPR= 000007
JUNMSG  001255RG    003	MBZTAB  004160R     002	ONMSG   000041RG    003	PE.CRM= 000004   	Q.IOSB= 000010
KCNERM  002232R     005	MCRMSG  000535RG    003	OPEACC  000160R     004	PE.DRM= 000002   	Q.OBUF= 000014
KF.BRM= 001000   	MEMMSG  001641RG    003	OPEATT= 000210R     004	PE.FMP= 000010   	Q.OVFC= 000020
KF.CES= 000100   	MGNMSG  001447RG    003	OPEFID= 000174R     004	PE.FSS= 000020   	RAMIS0= 010000
KF.CLK= 100000   	MMSG    000514RG    003	OPEFOF  001776R  	PHYS  = 100000   	RDCPT1  004230R     002
KF.CON= 000200   	MNTMSG  001140RG    003	OPEFUN= 000162R     004	PI    = 000004   	RDCPT2  004210R     002
KF.DEF= 000200   	MOVE  = 000200   	OPELUN= 000164R     004	PIDENT= 000000   	RDCPT3  004220R     002
KF.KLO= 000400   	MOVEI = 000201   	OPEN  = 000050   	PIMSG   001103RG    003	RDCRME  006470R
KF.MRS= 020000   	MOVEM = 000202   	OPERAT  000206R     004	POP   = 000262   	REAFRD  002570R
KF.RUN= 040000   	MOVES = 000203   	OPRMSG  001154RG    003	POPJ  = 000263   	REGMSG  001106RG    003
KF.SIM= 010000   	MOVM  = 000214   	OR    = 000434   	PRGMSG  001165RG    003	REGTAB  007130R     002
KF.SMC= 004000   	MOVMI = 000215   	ORB   = 000437   	PRI7  = 000340   	RELEAS= 000071
KF.SPM= 002000   	MOVMM = 000216   	ORCA  = 000454   	PRMFM   002257R     003	REMMSG  001200RG    003
KLABIN  007226RG    002	MOVMS = 000217   	ORCAB = 000457   	PROMPT  000030RG    003	RENAME= 000055
KLAERM  002260R     005	MOVN  = 000210   	ORCAI = 000455   	PROPNT= 000021   	REPIRC  011106R
KLAOCT  007252RG    002	MOVNI = 000211   	ORCAM = 000456   	PRTOFF= 004000   	RESETT  004274R     002
KLEPRM  000034RG    003	MOVNM = 000212   	ORCB  = 000470   	PRVMSG  000735RG    003	RFMAD0= 100000
KLHCFH  005156R  	MOVNS = 000213   	ORCBB = 000473   	PR0   = 000000   	RFMAD1= 040000
KLIMSG  001632RG    003	MOVS  = 000204   	ORCBI = 000471   	PR1   = 000040   	RFMAD2= 020000
KLIOT = 000700   	MOVSI = 000205   	ORCBM = 000472   	PR2   = 000100   	RFMAD3= 010000
KLMSG   001100RG    003	MOVSM = 000206   	ORCM  = 000464   	PR3   = 000140   	RGDTEN= 000310RG    004
KLNBIN  007216RG    002	MOVSS = 000207   	ORCMB = 000467   	PR4   = 000200   	RLDMSG  001706RG    003
KLNOCT  007246RG    002	MPE11 = 001000   	ORCMI = 000465   	PR5   = 000240   	RM    = 000010
KLPWRF= 000010   	MQMSG   001023RG    003	ORCMM = 000466   	PR6   = 000300   	RMSG    000541RG    003
KLRERM  002307R     005	MRAERM  002437R     005	ORI   = 000435   	PR7   = 000340   	ROT   = 000241
KLSCFH  005266R  	MRHERM  002477R     005	ORM   = 000436   	PS    = 177776   	ROTC  = 000245
KNCERM  002351R     005	MRKMSG  000516RG    003	OUT   = 000057   	PSTMSG  001672RG    003	RPMERM  003141R     005
KWEERM  002405R     005	MUL   = 000224   	OUTBUF= 000065   	PSWW1 = 000005   	RPTMSG  000543RG    003
LDB   = 000135   	MULB  = 000227   	OUTMSG  001663RG    003	PSWW10= 000014   	RSTEND= 004302R     002
LG.ALL= 000007   	MULI  = 000225   	OUTPUT= 000067   	PSWW11= 000015   	RSTMSG  000552RG    003
LG.ARG= 000010   	MULM  = 000226   	PAG   = 000010   	PSWW12= 000016   	RTYMSG  001715RG    003
TYOUT -- GENERAL TERMINAL OUTPU	MACRO M1113  10-NOV-81 17:44  PAGE 260-5
SYMBOL TABLE

RUNMSG  000560RG    003	SOSGE = 000375   	TDC   = 000650   	TO11DB= 004000   	UCDMSG  001732RG    003
SBRMSG  001131RG    003	SOSL  = 000371   	TDCA  = 000654   	TO11DN= 000200   	UECMSG  000060R     003
SCD   = 000040   	SOSLE = 000373   	TDCE  = 000652   	TO11DT= 174426   	UECMSP  001612R     002
SCFERM  003201R     005	SOSN  = 000376   	TDCN  = 000656   	TO11ER= 000002   	UGETF = 000073
SCRMSG  001135RG    003	SPCEST  001614R     002	TDMSG0  000345R     003	TPDDCK  011350R  	UJEN  = 000100
SEPMSG  001276RG    003	SPFERM  003305R     005	TDN   = 000610   	TPDDVD  007122R     002	UNASG1= 000032
SETA  = 000424   	SSTLEN= 000010 G 	TDNA  = 000614   	TPDDVS  007114R     002	UNASG2= 000033
SETAB = 000427   	SSTTBE= 000302RG    002	TDNE  = 000612   	TPDRMN  007106R     002	UNASG3= 000034
SETAI = 000425   	STAMSG  002075R     003	TDNN  = 000616   	TRADDR  007140R     002	UNASG4= 000035
SETAM = 000426   	STAT  = 174434   	TDO   = 000670   	TRC   = 000640   	UNASG5= 000036
SETCA = 000450   	STATO = 000061   	TDOA  = 000674   	TRCA  = 000644   	UNASG6= 000037
SETCAB= 000453   	STATUS= 000022   	TDOE  = 000672   	TRCE  = 000642   	UNLERM  003456R     005
SETCAI= 000451   	STATZ = 000063   	TDON  = 000676   	TRCN  = 000646   	UNMMSG  000640RG    003
SETCAM= 000452   	STRMSG  000617RG    003	TDZ   = 000630   	TRDATA  007146R     002	USETI = 000074
SETCM = 000460   	STSW1 = ****** GX	TDZA  = 000634   	TRKMSG  001723RG    003	USETO = 000075
SETCMB= 000463   	STUCAE  007440R  	TDZE  = 000632   	TRN   = 000600   	USRMSG  001207RG    003
SETCMI= 000461   	STUUNL  007446R  	TDZN  = 000636   	TRNA  = 000604   	VERMSG  001755RG    003
SETCMM= 000462   	ST.CED= 000100   	TENAD1= 174410   	TRNE  = 000602   	VFYERM  003514R     005
SETM  = 000414   	ST.CLE= 000001   	TENAD2= 174412   	TRNN  = 000606   	VF.DSP= 000060
SETMB = 000417   	ST.CTD= 040000   	TENMSG  000765RG    003	TRO   = 000660   	VF.FFD= 000061
SETMI = 000415   	ST.CTE= 010000   	TFRMSG  001765R     003	TROA  = 000664   	VF.INT= 000000
SETMM = 000416   	ST.DW1= 002000   	TFWMSG  002002R     003	TROE  = 000662   	VF.OVR= 000053
SETMSG  000564RG    003	ST.DXD= 000004   	TFXMSG  002017R     003	TRON  = 000666   	VF.PRM= 000044
SETO  = 000474   	ST.EBS= 000100   	THSMSG  000746RG    003	TRZ   = 000620   	VF.SSP= 000040
SETOB = 000477   	ST.EDB= 004000   	TLC   = 000641   	TRZA  = 000624   	VMAMSG  001120RG    003
SETOI = 000475   	ST.EPE= 000020   	TLCA  = 000645   	TRZE  = 000622   	VMHMSG  001124RG    003
SETOM = 000476   	ST.IDS= 000010   	TLCE  = 000643   	TRZN  = 000626   	WEP   = 000010
SETSTS= 000060   	ST.IEN= 000040   	TLCN  = 000647   	TR.ALL= 000077   	WHAMSG  000666RG    003
SETZ  = 000400   	ST.ION= 000001   	TLN   = 000601   	TR.DEP= 000020   	WRCRME  007674R
SETZB = 000403   	ST.MBZ= 000000   	TLNA  = 000605   	TR.DTE= 000040   	WRIFWT  003326R
SETZI = 000401   	ST.MOD= 000010   	TLNE  = 000603   	TR.EXM= 000010   	WRMERM  003550R     005
SETZM = 000402   	ST.MPE= 001000   	TLNN  = 000607   	TR.FRD= 000002   	XCT   = 000256
SHOMSG  000570RG    003	ST.NST= 000040   	TLO   = 000661   	TR.FWR= 000004   	XCTMSG  000673RG    003
SHUMSG  000575RG    003	ST.RIZ= 010000   	TLOA  = 000665   	TR.FXC= 000001   	XOR   = 000430
SKIERM  003230R     005	ST.RST= 011121   	TLOE  = 000663   	TSC   = 000651   	XORB  = 000433
SKIP  = 000330   	ST.SEP= 000004   	TLON  = 000667   	TSCA  = 000655   	XORI  = 000431
SKIPA = 000334   	ST.STE= 000002   	TLZ   = 000621   	TSCAMB  010732R  	XORM  = 000432
SKIPE = 000332   	ST.TED= 000200   	TLZA  = 000625   	TSCE  = 000653   	XTOERM  003661R     005
SKIPG = 000337   	ST.TER= 000002   	TLZE  = 000623   	TSCN  = 000657   	YORERM  003631R     005
SKIPGE= 000335   	ST.TXD= 100000   	TLZN  = 000627   	TSCNSK  010744R  	ZERMSG  000677RG    003
SKIPL = 000331   	ST.TXE= 020000   	TOBM  = 000004   	TSCWRM  010752R  	ZSTOP = 040000
SKIPLE= 000333   	ST.XDB= 000400   	TOD   = 000003   	TSN   = 000611   	$DIV  = ****** GX
SKIPN = 000336   	SUB   = 000274   	TOIP  = 000002   	TSNA  = 000615   	$DSW  = ****** GX
SLOMSG  001500RG    003	SUBB  = 000277   	TOIT  = 000001   	TSNE  = 000613   	$$    = 000037
SNPMSG  000606RG    003	SUBI  = 000275   	TORERM  003426R     005	TSNN  = 000617   	$$PASS= 000000
SOJ   = 000360   	SUBM  = 000276   	TO10  = 000200   	TSO   = 000671   	$$$AB = 000001
SOJA  = 000364   	SWPMSG  000625RG    003	TO10AD= 174420   	TSOA  = 000675   	$$$ABO= 000001
SOJE  = 000362   	SWR   = 177570   	TO10BC= 174414   	TSOE  = 000673   	$$$ACB= 000002
SOJG  = 000367   	SWSLLT= 100000   	TO10BM= 000001   	TSON  = 000677   	$$$AD = 000001
SOJGE = 000365   	SXCT  = 000106   	TO10DB= 000400   	TSZ   = 000631   	$$$ADX= 000001
SOJL  = 000361   	SZIERM  003335R     005	TO10DN= 100000   	TSZA  = 000635   	$$$ALL= 000002
SOJLE = 000363   	TAAERM  003371R     005	TO10DT= 174424   	TSZE  = 000633   	$$$APR= 000001
SOJN  = 000366   	TAKMSG  000633RG    003	TO10ER= 020000   	TSZN  = 000637   	$$$AR = 000003
SOS   = 000370   	TC.CON= 000377   	TO11  = 000100   	TTCALL= 000051   	$$$ARG= 000006
SOSA  = 000374   	TC.CTC= 000002   	TO11AD= 174422   	TTYMSG  001515RG    003	$$$ARX= 000001
SOSE  = 000372   	TC.ERR= 000000   	TO11BC= 174416   	TT.OUT= ****** GX	$$$AUG= 000001
SOSG  = 000377   	TC.RST= 000001   	TO11BM= 020000   	TYODIE  015752R  	$$$AUT= 000002
TYOUT -- GENERAL TERMINAL OUTPU	MACRO M1113  10-NOV-81 17:44  PAGE 260-6
SYMBOL TABLE

$$$BR = 000001   	$$$MNT= 000002   	.ATLMD= 000033   	.DFWB   000304RG    002	.EXAMD= ****** GX
$$$BRX= 000001   	$$$MQ = 000001   	.BRCLK= 005000   	.DFWRT= ****** GX	.EXAMF= ****** GX
$$$CLK= 000002   	$$$MRK= 000001   	.BRMBC  003334RG 	.DFXCT= ****** GX	.EXAMI= ****** GX
$$$CLR= 000001   	$$$NOT= 000001   	.BUFSZ= 001000 G 	.DIAG1= 000000   	.EXAMK= ****** GX
$$$CNT= 000001   	$$$NOV= 000001   	.BURST  003340RG 	.DIAG2= 000002   	.EXAMN= ****** GX
$$$CON= 000002   	$$$NRM= 000001   	.CCMDN  000002RG    002	.DIAG3= 000006   	.EXAMP= ****** GX
$$$CPU= 000001   	$$$NUL= 000001   	.CDIBC= 000412R     004	.DISCC= ****** GX	.EXAMZ= ****** GX
$$$CRA= 000001   	$$$NXT= 000004   	.CDIBP= 000410R     004	.DOCMD  007714RG 	.EXARR= ****** GX
$$$CRL= 000001   	$$$OCT= 000001   	.CDINP  000374RG    004	.DPBFR  000066RG    002	.EXARX= ****** GX
$$$CRM= 000002   	$$$OFS= 000002   	.CDOBC= 000432RG    004	.DPBFX  000074RG    002	.EXBFR  000124RG    002
$$$CTL= 000001   	$$$OPR= 000002   	.CDOBP= 000430RG    004	.DPDPB  000312RG    004	.EXBRR= ****** GX
$$$DAT= 000002   	$$$OST= 000014   	.CDOFC= 000434RG    004	.DPETB  004612RG    002	.EXBRX= ****** GX
$$$DCR= 000004   	$$$OUT= 000002   	.CDOUT  000414RG    004	.DPKLM  003762RG 	.EXCRA= ****** GX
$$$DEC= 000001   	$$$PAG= 000001   	.CECLK= 004000   	.DPOEL= ****** GX	.EXCRL= ****** GX
$$$DEP= 000001   	$$$PC = 000001   	.CESCK  000000RG 	.DPOKL= ****** GX	.EXCTC= ****** GX
$$$DIS= 000001   	$$$PI = 000002   	.CHTAB  001450RG    002	.DPOSC= ****** GX	.EXCTF  004150RG
$$$DPT= 000001   	$$$PRG= 000002   	.CIBFL= 000214 G 	.DPOSD= ****** GX	.EXDPB  000324RG    004
$$$DRA= 000001   	$$$PRV= 000004   	.CIBFR  000330RG    002	.DPOSI= ****** GX	.EXDPM  004020RG
$$$DRM= 000001   	$$$PST= 000002   	.CISTS  000004RG    002	.DPOSN= ****** GX	.EXDRA= ****** GX
$$$DTE= 000002   	$$$QTR= 000001   	.CKARG  000070RG 	.DPOSP= ****** GX	.EXDTE= ****** GX
$$$EBS= 000001   	$$$QUT= 000001   	.CKCOL  000130RG 	.DPOSZ= ****** GX	.EXEBS= ****** GX
$$$ELE= 000003   	$$$R  = 000001   	.CKCTC  000166RG 	.DPOTB  004652RG    002	.EXECT  004226RG
$$$ENB= 000001   	$$$REG= 000001   	.CKEOC  000214RG 	.DPTRK  012440RG 	.EXETB  004734RG    002
$$$ERR= 000001   	$$$REM= 000001   	.CKEOS  000256RG 	.DREG   000320RG    002	.EXFER= ****** GX
$$$EXA= 000001   	$$$RLD= 000002   	.CKOBJ  000300RG 	.DRLTC= 015000   	.EXFMR= ****** GX
$$$EXT= 000001   	$$$RPT= 000003   	.CKRNP  000316RG 	.DSACF= 066000   	.EXITP  010074RG
$$$FEB= 000001   	$$$RST= 000001   	.CKRUN  000326RG 	.DSIOJ= 065000   	.EXKLM  003730RG
$$$FER= 000001   	$$$RTY= 000002   	.CKSYM  000374RG 	.DTAB   004200R     002	.EXMEL= ****** GX
$$$FLG= 000001   	$$$RUN= 000001   	.CLDFB  003370RG 	.DTCID  000474RG    004	.EXMKL= ****** GX
$$$FLT= 000002   	$$$SBR= 000001   	.CLDFR  003374RG 	.DTDI1  000320RG    002	.EXMPI= ****** GX
$$$FM = 000002   	$$$SCR= 000001   	.CLDFW  003404RG 	.DTDI2  000322RG    002	.EXMQR= ****** GX
$$$FRD= 000001   	$$$SEP= 000001   	.CLKWD  000010RG    002	.DTDI3  000326RG    002	.EXMTB  004774RG    002
$$$FSS= 000002   	$$$SET= 000001   	.CLOSE  002114RG 	.DTDW1  003530RG 	.EXREG= ****** GX
$$$FUL= 000001   	$$$SHO= 000001   	.CLRCM= ****** GX	.DTDW2  003536RG 	.EXSBR= ****** GX
$$$FWR= 000001   	$$$SHU= 000001   	.CLRFF  003420RG 	.DTDW3  003556RG 	.EXSCR= ****** GX
$$$FXC= 000001   	$$$SLO= 000001   	.CLRMR= 006000   	.DTSTA  003546RG 	.EXTND  002004RG
$$$HAR= 000001   	$$$SNP= 000001   	.CLRUN= 010000   	.DTSTS  000324RG    002	.EXTRK  012426RG
$$$HLF= 000001   	$$$STR= 000001   	.CMDTB  004310RG    002	.DTSTW= 000004   	.EXVAB= ****** GX
$$$HLT= 000001   	$$$SWP= 000001   	.CMNDL= 000430 G 	.DTTRK  012316RG 	.EXVMA= ****** GX
$$$INC= 000006   	$$$TAK= 000001   	.COBFL= 000204 G 	.DWDW1  003454RG 	.EXVMH= ****** GX
$$$INI= 000002   	$$$TEN= 000004   	.COBFR  000544RG    002	.DWDW2  003462RG 	.EXVPC= ****** GX
$$$INT= 000001   	$$$THS= 000004   	.COMEF= ****** GX	.DWDW3  003502RG 	.FEMOD= ****** GX
$$$IO = 000001   	$$$TRK= 000002   	.COMMA= 000054   	.DWSTA  003472RG 	.FISTS  001630RG    002
$$$JAN= 000001   	$$$TTY= 000001   	.COMND  000760RG    002	.EBCLK  003634RG 	.FNDIR  001452RG
$$$JMP= 000001   	$$$T1 = 000006   	.CONBT= 012000   	.EBPCK  000410RG 	.FREAD  004362RG
$$$JUL= 000001   	$$$UCD= 000001   	.CONTC= ****** GX	.EDELA  000102RG    002	.FRTRK  012156RG
$$$JUN= 000001   	$$$UNM= 000001   	.COSTS  000012RG    002	.EDKLA  000104RG    002	.FWRIT  004444RG
$$$KL = 000001   	$$$USR= 000002   	.CRAMA  000016RG    002	.EDKLX  000112RG    002	.FWTRK  012176RG
$$$KLI= 000002   	$$$VER= 000001   	.CRAMR  000020RG    002	.EIOJA= 067000   	.FXCT   004566RG
$$$LOG= 000001   	$$$VMA= 000001   	.CRAMW  000042RG    002	.ELDDW  000120RG    002	.FXTRK  012216RG
$$$LPT= 000001   	$$$VMH= 000001   	.CSHRG= 164000   	.ELEDW  000122RG    002	.GFNR = 102000
$$$M  = 000001   	$$$WHA= 000001   	.DBGSW  000064RG    002	.ELNCK  013130RG 	.GTCMD  012574RG
$$$MAR= 000001   	$$$XCT= 000001   	.DELET  002100RG 	.ENTER  001664RG 	.GTELN  013204RG
$$$MAY= 000001   	$$$ZER= 000001   	.DEPAR= ****** GX	.ETAB   004170R     002	.GTEXP  013672RG
$$$MCR= 000001   	.ABRTC= ****** GX	.DFBLK  000304RG    002	.EXAD = ****** GX	.GTFCT  014100RG
$$$MEM= 000002   	.APRWD  000000RG    002	.DFRB   000312RG    002	.EXADX= ****** GX	.GTKLA  013234RG
$$$MGN= 000001   	.ATCID  000460RG    004	.DFRED= ****** GX	.EXAMC= ****** GX	.GTKLN  013266RG
TYOUT -- GENERAL TERMINAL OUTPU	MACRO M1113  10-NOV-81 17:44  PAGE 260-7
SYMBOL TABLE

.GTLIN  012630RG 	.LDDIS= 045000   	.RCSPF= 141000   	.SCCOU= ****** GX	.SPACE= 000040
.GTNBR  014374RG 	.LDOBC= 000454RG    004	.RDCPP  006134RG 	.SCCRF= ****** GX	.SPETB  006622RG    002
.GTNUM  013266RG 	.LDOBP= 000452RG    004	.RDCRA= ****** GX	.SCCRH= ****** GX	.SSCAN  010760RG
.GTOPC  013500RG 	.LDOFC= 000456R     004	.RDCRD  006270RG 	.SCCRQ= ****** GX	.SSCLK= 002000
.GTTRM  013766RG 	.LDOUT  000436RG    004	.RDCRM  006326RG 	.SCCRS= ****** GX	.SSTTB  000264RG    002
.HALTC= ****** GX	.LDPAR  005572RG 	.RDCRO  006476R  	.SCCSE= ****** GX	.START  010340RG
.INATT  002716RG    002	.LDRJD= 064000   	.RDCRR  006360RG 	.SCCSI= ****** GX	.STCLF  007240RG
.INBBC  001660RG    002	.LDRJV= 063000   	.RDFMA  006516RG 	.SCCSM= ****** GX	.STCLK  007232RG
.INBUF  001664RG    002	.LDRM1= 060000   	.RDFMO  006600RG 	.SCCTB  006170RG    002	.STPCL= 000000
.INCHC  000132RG    002	.LDRM2= 061000   	.RDFMP  006634RG 	.SCDAT= ****** GX	.STPKL  007256RG
.INDFG  001626RG    002	.LDRM3= 062000   	.RDIPE  006670RG 	.SCFSS= ****** GX	.STPXC  007302RG
.INFN   001634RG    002	.LDSEL= 044000   	.RDJ14= 134000   	.SCINC= ****** GX	.STRCL= 001000
.INFNB  002664RG    002	.LDSTS  000160RG    002	.RDJ71= 135000   	.SCKLN= ****** GX	.STRTB  006712RG    002
.INICL= 070000   	.LDZFL  000166RG    002	.RDMAB= 133000   	.SCMEL= ****** GX	.STRTC= ****** GX
.INICP= ****** GX	.LGLWD  000164RG    002	.RDXSV  000206RG    002	.SCMEM= ****** GX	.STRTT= ****** GX
.INITC= ****** GX	.LOKUP  001574RG 	.READ   002440RG 	.SCMKL= ****** GX	.STRTU= ****** GX
.INPOS  001662RG    002	.MARKC= ****** GX	.READB  002406RG 	.SCMTB  006274RG    002	.STRTV  000222RG    002
.INVBN  001654RG    002	.MEMFL  000170RG    002	.READR  002224RG 	.SCNOT= ****** GX	.STRUN  007332RG
.IRADX  000134RG    002	.MEMRS= 076000   	.READW  002330RG 	.SCOFS= ****** GX	.STUCD  007352RG
.IRLTC= 014000   	.MISC = ****** GX	.RECNT  004034RG    002	.SCOTL= ****** GX	.SVESP  000224RG    002
.JUMPC= ****** GX	.MONTB  005332RG    002	.RECPT  004036RG    002	.SCOTP= ****** GX	.SVKLF  000226RG    002
.KLCON  004736RG 	.MRCLR  005766RG 	.RECRD  004040RG    002	.SCOTT  006344RG    002	.SWPC = ****** GX
.KLDFR  000336RG    004	.MTDPB  000266RG    004	.REGRW  000300RG    004	.SCOTY= ****** GX	.SWPIP  000230RG    002
.KLDFW  000350RG    004	.NOERR= ****** GX	.REGSV  010302RG 	.SCOUT= ****** GX	.SYNXC  007454RG
.KLDFX  000362RG    004	.NOHLT= ****** GX	.RELWD  000210RG    002	.SCPAL= ****** GX	.TAKEC= ****** GX
.KLE  = ****** GX	.NOTSW  000172RG    002	.REMOV  001564RG 	.SCPAR= ****** GX	.TCRLF  015536RG
.KLEDF  000144RG    002	.NSETB  005444RG    002	.REPTC  011022RG 	.SCPCR= ****** GX	.TFCHR  015470RG
.KLEPT  000146RG    002	.NULLC  007702RG 	.RESET  006752RG 	.SCPDR= ****** GX	.TPADD  011502RG
.KLERQ= ****** GX	.OPEN   001736RG 	.RESTB  006106RG    002	.SCPEN= ****** GX	.TPCLR  011356RG
.KLEVL  000150RG    002	.ORADX  000174RG    002	.RESTC= ****** GX	.SCPFM= ****** GX	.TPCMP  011424RG
.KLFLG= ****** GX	.OTATT  004016RG    002	.RESTD  007066RG 	.SCPFS= ****** GX	.TPCOM  011366RG
.KLGO   004744RG 	.OTBBC  002760RG    002	.RESTI  007106RG 	.SCPST= ****** GX	.TPDEC  011534RG
.KLHLT  005034RG 	.OTBUF  002764RG    002	.RESTP  007132RG 	.SCPTB  006370RG    002	.TPDIV  011144RG
.KLINC  000136RG    002	.OTFN   002734RG    002	.RPTCT  000212RG    002	.SCRLD= ****** GX	.TPINC  011522RG
.KLMTB  005270RG    002	.OTFNB  003764RG    002	.RPTPT  000220RG    002	.SCRPT= ****** GX	.TPMUL  011572RG
.KLMT1  005314RG    002	.OTPOS  002762RG    002	.RSALL= ****** GX	.SCRTY= ****** GX	.TPNEG  011376RG
.KLRST  005274RG 	.OTVBN  002754RG    002	.RSAPR= ****** GX	.SCTAK= ****** GX	.TPSHI  011756RG
.KLSNP  000151RG    002	.OUTLG  000154RG    002	.RSDTE= ****** GX	.SCTRK= ****** GX	.TPSHL  012022RG
.KLST   005164RG 	.OUTLP  000155RG    002	.RSERR= ****** GX	.SEAMB  000520RG 	.TPSUB  011546RG
.KLSTP  005212RG 	.OUTTY  000156RG    002	.RSPAG= ****** GX	.SECES  000756RG 	.TPTST  011460RG
.KLXCT  005426RG 	.PARER  000432RG 	.RSTIN= ****** GX	.SECLK= 003000   	.TPXTN  011404RG
.LCRDL= 052000   	.PASS   000152RG    002	.RSTIO= ****** GX	.SEFRF  000606RG 	.TRKWD  000232RG    002
.LCRDR= 051000   	.PCAB1= 150000   	.RSTKL  007204RG 	.SEFWF  000614RG 	.TRPEC  000236RG    002
.LCRM1= 057000   	.PCAB2= 151000   	.RSTPI= ****** GX	.SEFXF  000622RG 	.TRPIP  000240RG    002
.LCRM2= 056000   	.PCAB3= 152000   	.RUNCM= ****** GX	.SEILC  000544RG 	.TRPPC  000242RG    002
.LCRM3= 055000   	.PCAB4= 153000   	.R50TB  001410RG    002	.SEILS  000544RG 	.TRPPS  000244RG    002
.LCRM4= 054000   	.PEWRD  000176RG    002	.SCACB= ****** GX	.SEIPC  000544RG 	.TRPSB  000246RG    002
.LCRM5= 053000   	.PITAB  000200RG    002	.SCCEC= ****** GX	.SENSK  000520RG 	.TRPTV  000250RG    002
.LDAR = 077000   	.PSCWD  000204RG    002	.SCCED= ****** GX	.SETCM= ****** GX	.TRP4V  000234RG    002
.LDBRC  005452RG 	.PTDIE  001046RG 	.SCCEE= ****** GX	.SETFN  002166RG 	.TSCAN  010510RG
.LDBRG  005456RG 	.PTOAT  001352RG 	.SCCLK= ****** GX	.SETMR= 007000   	.TYACE  014614RG
.LDBRL= 043000   	.PTTRP  001124RG 	.SCCLN= ****** GX	.SETRN= 011000   	.TYAC1  014646RG
.LDBRR= 042000   	.QUITC= ****** GX	.SCCOM= ****** GX	.SETTB  006444RG    002	.TYCHR  015504RG
.LDCK1= 046000   	.RCRM1= 147000   	.SCCON= ****** GX	.SFREC= ****** GX	.TYCOL  014526RG
.LDCK2= 047000   	.RCRM2= 146000   	.SCCOO= ****** GX	.SHIFT  011114RG 	.TYCOM  014536RG
.LDCLK  005554RG 	.RCRM3= 145000   	.SCCOP= ****** GX	.SHUTC= ****** GX	.TYELA  014746RG
.LDCRA  005652RG 	.RCRM4= 144000   	.SCCOT  006312RG    002	.SNAP = ****** GX	.TYELN  014752RG
TYOUT -- GENERAL TERMINAL OUTPU	MACRO M1113  10-NOV-81 17:44  PAGE 260-8
SYMBOL TABLE

.TYINI  015722RG 	.TYOUT  015564RG 	.WHATB  006730RG    002	.WHREC= ****** GX	.WRITB  003030RG
.TYKLA  015072RG 	.TYOU1  015644RG 	.WHATC= ****** GX	.WHRLD= ****** GX	.WRITE  003160RG
.TYKLN  015142RG 	.TYP3D  015016RG 	.WHATV= ****** GX	.WHRPT= ****** GX	.WRITR  002616RG
.TYLIN  015432RG 	.TYR50  015756RG 	.WHCON= ****** GX	.WHRTY= ****** GX	.WRITW  002754RG
.TYMIN  014546RG 	.TYSLS  014556RG 	.WHDAT= ****** GX	.WHTAK= ****** GX	.WRITZ  003060RG
.TYMSF  015440RG 	.TYSPC  014566RG 	.WHINC= ****** GX	.WHTCL= ****** GX	.WRMBX= 071000
.TYMSG  015446RG 	.TYUPA  014576RG 	.WHKLN= ****** GX	.WHTPS= ****** GX	.WRTAR  007472RG
.TYNCM  015224RG 	.T50TB  001440RG    002	.WHMEM= ****** GX	.WHTRK= ****** GX	.ZEROC= ****** GX
.TYNUM  015302RG 	.UMRKC= ****** GX	.WHOFS= ****** GX	.WRAR1  007476RG 	..DTSP= ****** GX
.TYOBC  000252RG    002	.VFYFL  000256RG    002	.WHOUT= ****** GX	.WRCRM  007520RG 	..SACK= ****** GX
.TYOBP  000254RG    002	.WHACB= ****** GX	.WHRDW= ****** GX

. ABS.	000000	   000
      	016030	   001
DATA  	007256	   002
MESSAG	002300	   003
DPBS  	000510	   004
ERRMSG	004274	   005
ERRORS DETECTED:  0

VIRTUAL MEMORY USED:  17032 WORDS  ( 67 PAGES)
DYNAMIC MEMORY:  18662 WORDS  ( 71 PAGES)
ELAPSED TIME:  00:04:06
,[51,20]PAROOT/CR/-SP=[51,30]PAROOT.TMP
