PAROOT     CREATED BY  MACRO  ON 10-NOV-81 AT 17:46	PAGE 1

SYMBOL CROSS REFERENCE                                  CREF

SYMBOL	VALUE		REFERENCES

ABMSG 	  001031 RG	 178-7125  #178-7125   178-7125
ABOMSG	  000365 RG	 174-6980  #174-6980   174-6980
ACBMSG	  001545 RG	 188-7421  #188-7421   188-7421   191-7492   191-7492
ADD   	= 000270	#23-877
ADDB  	= 000273	#23-878
ADDI  	= 000271	#23-879
ADDM  	= 000272	#23-880
ADMSG 	  000771 RG	 178-7104  #178-7104   178-7104
ADRTMP	  007210 R	*242-9414  *242-9415   242-9416  #242-9428
ADXMSG	  000774 RG	 178-7106  #178-7106   178-7106
ALLMSG	  001342 RG	 182-7321  #182-7321   182-7321   187-7402   187-7402
AMBERM	  003714 R	#189-7464   189-7464
AND   	= 000404	#23-882
ANDB  	= 000407	#23-883
ANDCA 	= 000410	#23-884
ANDCAB	= 000413	#23-885
ANDCAI	= 000411	#23-886
ANDCAM	= 000412	#23-887
ANDCB 	= 000440	#23-888
ANDCBB	= 000443	#23-889
ANDCBI	= 000441	#23-890
ANDCBM	= 000442	#23-891
ANDCM 	= 000420	#23-892
ANDCMB	= 000423	#23-893
ANDCMI	= 000421	#23-894
ANDCMM	= 000422	#23-895
ANDI  	= 000405	#23-896
ANDM  	= 000406	#23-897
AOBJN 	= 000253	#23-899
AOBJP 	= 000252	#23-900
AOJ   	= 000340	#23-902
AOJA  	= 000344	#23-903
AOJE  	= 000342	#23-904
AOJG  	= 000347	#23-905
AOJGE 	= 000345	#23-906
AOJL  	= 000341	#23-907
AOJLE 	= 000343	#23-908
AOJN  	= 000346	#23-909
AOS   	= 000350	#23-911
AOSA  	= 000354	#23-912
AOSE  	= 000352	#23-913
AOSG  	= 000357	#23-914
AOSGE 	= 000355	#23-915
AOSL  	= 000351	#23-916
AOSLE 	= 000353	#23-917
AOSN  	= 000356	#23-918
APEERM	  000000 R	#181-7221   181-7221
APR   	= 000000	#7-244
APRMSG	  001243 RG	 180-7197  #180-7197   180-7197
AP.ALL	= 000177	#9-348
AP.ARP	= 001000	#16-633     16-637     131-5433
AP.CDP	= 000004	#9-343      9-348
PAROOT     CREATED BY  MACRO  ON 10-NOV-81 AT 17:46	PAGE 2

SYMBOL CROSS REFERENCE                                  CREF

SYMBOL	VALUE		REFERENCES

AP.EIP	= 000400	#16-635     16-637     131-5441
AP.IPF	= 000020	#9-345      9-348
AP.MPE	= 000010	#9-344      9-348
AP.NRM	= 001400	#16-637     16-639
AP.NXM	= 000040	#9-346      9-348
AP.PWF	= 000001	#9-341      9-348
AP.SAP	= 000002	#9-342      9-348
AP.SBE	= 000100	#9-347      9-348
ARMSG 	  000753 RG	 176-7068  #176-7068   176-7068   178-7108   178-7108   187-7404   187-7404
ARXMSG	  001000 RG	 178-7110  #178-7110   178-7110
ASH   	= 000240	#23-920
ASHC  	= 000244	#23-921
AUGMSG	  001267 RG	 180-7205  #180-7205   180-7205
AUTMSG	  001556 RG	 188-7423  #188-7423   188-7423   191-7494   191-7494
A.LULU	= 000002	#70-3071    70-3073
A.LUNA	= 000004	#70-3071
A.LUNU	= 000006	#70-3071
BAEERM	  000023 R	#181-7223   181-7223
BCCTER	  003362 R	 88-3854   #88-3859
BIT0  	= 000001	#87-3821
BIT00 	= 000001	#9-305      10-383     11-409     11-429     12-466     12-467     13-490     13-513     22-842
                         22-856     62-2632    130-5394   139-5751
BIT01 	= 000002	#9-306      10-386     11-405     11-427     12-464     12-465     13-491     13-512     22-843
                         22-857     130-5393
BIT02 	= 000004	#9-307      10-378     11-404     11-426     11-431     12-462     12-463     13-492     13-511
                         22-844     22-858     97-4147    130-5392
BIT03 	= 000010	#9-308      10-377     11-403     11-423     12-459     12-461     13-493     13-510     22-845
                         22-859     128-5299   130-5391
BIT04 	= 000020	#9-309      10-375     10-376     11-402     11-421     11-422     12-457     13-494     13-509
                         22-846     22-860
BIT05 	= 000040	#9-310      10-373     11-409     11-420     12-455     12-456     13-495     13-508     22-847
                         22-861     139-5748
BIT06 	= 000100	#9-311      10-372     11-398     11-431     12-453     12-454     13-484     13-507     22-848
                         22-862
BIT07 	= 000200	#9-312      10-370     10-371     11-409     11-431     12-451     13-483     13-506     22-849
                         22-863
BIT08 	= 000400	#9-313      10-369     11-409     11-431     12-449     13-482     13-505     22-864
BIT09 	= 001000	#9-314      10-365     10-368     11-409     11-431     12-447     13-481     13-504
BIT1  	= 000002	#87-3821
BIT10 	= 002000	#9-315      10-364     10-367     11-409     11-431     12-446     13-480     13-503    #87-3821
BIT11 	= 004000	#9-316      10-363     10-366     11-409     11-431     12-444     13-479     13-502    #87-3821
BIT12 	= 010000	#9-317      10-362     11-409     11-431     12-442     12-443     13-478     13-501    #87-3821
BIT13 	= 020000	#9-318      10-361     11-394     11-409     11-431     12-440     13-477    #87-3821
BIT14 	= 040000	#9-319      10-360     11-391     11-392     11-409     11-414     11-431     12-439     13-476
                        #87-3821
BIT15 	= 100000	#9-320      10-359     11-390     11-409     11-413     11-431     12-437     13-475     35-1480
                         35-1561    72-3187    73-3237    74-3297   #87-3821
BIT2  	= 000004	#87-3821
BIT3  	= 000010	#87-3821
BIT4  	= 000020	#87-3821
BIT5  	= 000040	#87-3821
BIT6  	= 000100	#87-3821
PAROOT     CREATED BY  MACRO  ON 10-NOV-81 AT 17:46	PAGE 3

SYMBOL CROSS REFERENCE                                  CREF

SYMBOL	VALUE		REFERENCES

BIT7  	= 000200	#87-3821
BIT8  	= 000400	#87-3821
BIT9  	= 001000	#87-3821
BLKI  	= 000000	#7-233
BLKIS 	  002203 R	 228-8926  #228-8938
BLKO  	= 000002	#7-235
BLKOS 	  002216 R	 228-8928  #228-8940
BLT   	= 000251	#23-923
BPARER	= 000020	#87-3821
BRMSG 	  001004 RG	 178-7112  #178-7112   178-7112
BRXMSG	  001007 RG	 178-7114  #178-7114   178-7114
CAEERM	  000056 R	#181-7225   181-7225
CAI   	= 000300	#24-925
CAIA  	= 000304	#24-926
CAIE  	= 000302	#24-927
CAIG  	= 000307	#24-928
CAIGE 	= 000305	#24-929
CAIL  	= 000301	#24-930
CAILE 	= 000303	#24-931
CAIN  	= 000306	#24-932
CALERM	  000112 R	#181-7226   181-7226
CALL  	= 000040	#24-934
CALLI 	= 000047	#24-935
CAM   	= 000310	#24-937
CAMA  	= 000314	#24-938
CAME  	= 000312	#24-939
CAMG  	= 000317	#24-940
CAMGE 	= 000315	#24-941
CAML  	= 000311	#24-942
CAMLE 	= 000313	#24-943
CAMN  	= 000316	#24-944
CAPERM	  000141 R	#181-7227   181-7227
CBOERM	  000200 R	#181-7228   181-7228
CCA   	= 000014	#7-247
CC.ALL	= 003417	#15-611
CC.NRM	= 000000	#15-610     143-5924
CDD   	= 000020	#87-3821
CDIERM	  000236 R	#181-7229   181-7229
CD.ALL	= 003400	#15-608     15-611
CD.CLC	= 000400	#15-606     131-5437
CD.CRC	= 002000	#15-604     131-5422
CD.DPC	= 001000	#15-605     131-5429
CD.NRM	= 000000	#15-607
CESCES	  000016 R	 47-2090   #47-2093
CESERM	  003746 R	#189-7466   189-7466
CFHERM	  000317 R	#181-7230   181-7230
CHNPNT	= 000001	#87-3821
CH.ALP	= 000001	#22-842     22-851     41-1828    42-1831    42-1832    42-1833    42-1834    42-1835    42-1836
                         42-1837    42-1838    42-1839    42-1840    42-1841    42-1842    42-1843    42-1844    42-1845
                         42-1846    42-1847    42-1848    42-1849    42-1850    42-1851    42-1852    42-1853    42-1854
                         42-1855    42-1856    48-2132
CH.ANM	= 000003	#22-851
PAROOT     CREATED BY  MACRO  ON 10-NOV-81 AT 17:46	PAGE 4

SYMBOL CROSS REFERENCE                                  CREF

SYMBOL	VALUE		REFERENCES

CH.AOP	= 000100	#22-848     41-1803    41-1804    41-1805    41-1806    41-1808    41-1810    42-1832    42-1833
                         42-1834    42-1845    42-1861    42-1862
CH.END	= 000034	#22-850     59-2537    169-6838
CH.EOC	= 000010	#22-845     22-850     40-1762    41-1807    41-1823    41-1824    49-2169    51-2234    53-2300
CH.EOL	= 000004	#22-844     22-850     40-1762
CH.EOS	= 000020	#22-846     22-850     40-1762    41-1795    41-1797    41-1802    41-1805    41-1806    41-1807
                         41-1808    41-1810    41-1823    41-1824    41-1826    41-1827    42-1862    52-2271
CH.ILL	= 000200	#22-849     40-1763    40-1764    40-1765    40-1766    40-1767    40-1768    40-1769    40-1770
                         40-1771    40-1772    40-1773    40-1774    40-1775    40-1776    40-1777    40-1778    40-1779
                         40-1780    40-1781    40-1782    40-1783    40-1784    40-1785    41-1787    41-1788    41-1789
                         41-1790    41-1791    41-1792    41-1793    41-1794    41-1796    41-1798    41-1799    41-1800
                         41-1801    41-1809    41-1825    41-1829    42-1858    42-1859    42-1860    42-1863
CH.NUL	= 000000	#22-841
CH.NUM	= 000002	#22-843     22-851     41-1812    41-1813    41-1814    41-1815    41-1816    41-1817    41-1818
                         41-1819    41-1820    41-1821    48-2139    236-9227
CH.PFX	= 000040	#22-847     41-1803    41-1806    41-1808    41-1828    42-1861    48-2139
CIDLUN	= 000001	#21-818     160-6565   222-8648   258-10060  258-10065
CKCILS	  000152 R	 49-2172   #49-2174    51-2243    52-2272    52-2274
CKCMRA	  000160 R	 48-2140    49-2170   #49-2177    53-2301
CKEEOC	  000250 R	 51-2241   #51-2245
CKRKLR	  000366 R	 54-2343   #54-2351
CLEAR 	= 000400	#24-946
CLEARB	= 000403	#24-947
CLEARI	= 000401	#24-948
CLEARM	= 000402	#24-949
CLEERM	  000355 R	#181-7231   181-7231
CLKMSG	  001570 RG	 188-7425  #188-7425   188-7425   191-7496   191-7496
CLOATR	= 000256 R	*75-3327   *75-3331   #75-3354
CLOATT	= 000262 R	*75-3333   #75-3361
CLODAC	  000240 R	 75-3334   #75-3349    75-3352    75-3353    75-3354
CLOFCF	  002160 R	 75-3335    75-3337   #75-3343
CLOIOF	= 000242 R	*75-3326   *75-3330   #75-3352
CLOLUN	= 000244 R	*75-3332   #75-3353
CLOSE 	= 000070	#24-951
CLOWAT	  000260 R	 75-3331   #75-3356    75-3361
CLRMSG	  000373 RG	 174-6982  #174-6982   174-6982
CNRERM	  000412 R	#181-7232   181-7232
CNTMSG	  000401 RG	 174-6984  #174-6984   174-6984
CNUPE 	= 000002	#87-3821
CODLUN	= 000002	#21-819     258-10042
CONI  	= 000005	#7-238
CONIS 	  002236 R	 228-8931  #228-8943
CONMSG	  001576 RG	 188-7427  #188-7427   188-7427   191-7498   191-7498
CONO  	= 000004	#7-237
CONOS 	  002231 R	 228-8930  #228-8942
CONSO 	= 000007	#7-240
CONSOS	  002251 R	 228-8933  #228-8945
CONSZ 	= 000006	#7-239
CONSZS	  002243 R	 228-8932  #228-8944
CPEERM	  000452 R	#181-7233   181-7233
CPUMSG	  001346 RG	 182-7323  #182-7323   182-7323
CPVMSG	  000000 RG	#39-1715
PAROOT     CREATED BY  MACRO  ON 10-NOV-81 AT 17:46	PAGE 5

SYMBOL CROSS REFERENCE                                  CREF

SYMBOL	VALUE		REFERENCES

CRAMSG	  001034 RG	 178-7127  #178-7127   178-7127
CRHERM	  000501 R	#181-7234   181-7234
CRLMSG	  001043 RG	 178-7129  #178-7129   178-7129
CRMMSG	  001376 RG	 62-2657    183-7344  #183-7344   183-7344   187-7406   187-7406
CR.ALL	= 000003	#15-596     15-611
CR.CR1	= 000001	#15-590     15-596     131-5435
CR.CR2	= 000002	#15-591     15-596     131-5427
CR.FUL	= 000000	#15-592
CR.HLF	= 000001	#15-593
CR.NRM	= 000000	#15-589
CR.QTR	= 000002	#15-594
CR.SLO	= 000003	#15-595
CS.ALL	= 000014	#15-587     15-611
CS.CS1	= 000004	#15-581     15-587     131-5420
CS.CS2	= 000010	#15-582     15-587     131-5414
CS.EXP	= 177670	#87-3821
CS.EXT	= 000010	#15-585
CS.FST	= 000004	#15-583     15-584
CS.MGN	= 000004	#15-584
CS.NRM	= 000000	#15-580
CS.UDF	= 000014	#15-586
CTLMSG	  001415 RG	 183-7348  #183-7348   183-7348
CTYPTR	= ******  GX	 160-6569
CYCLS 	= 000002	#87-3821
DATABX	  000260 RG	#35-1602    260-10072
DATAI 	= 000001	#7-234
DATAIS	  002210 R	 228-8927  #228-8939
DATAO 	= 000003	#7-236
DATAOS	  002223 R	 228-8929  #228-8941
DATE  	= 000004	#87-3821
DATMSG	  001606 RG	 188-7429  #188-7429   188-7429   191-7500   191-7500
DAVERM	  000543 R	#181-7239   181-7239
DBTERM	  000574 R	#181-7240   181-7240
DCKERM	  000624 R	#181-7241   181-7241
DCOMST	= 000001	#87-3821
DCRMSG	  000704 RG	 175-7053  #175-7053   175-7053   176-7074   176-7074   177-7089   177-7089   178-7157   178-7157
DEB880	= ******	 44-1907    47-2085    56-2409    90-3925    94-4039    97-4148    99-4217    99-4233    100-4259
                         104-4404   104-4412   106-4470   108-4566   110-4642   114-4821   115-4834   115-4863   117-4952
                         128-5300   139-5764   149-6097   152-6193
DECMSG	  001331 RG	 180-7213  #180-7213   180-7213
DEP   	= 010000	#87-3821
DEPMSG	  000412 RG	 174-6986  #174-6986   174-6986
DEX   	= 000400	#87-3821
DEXDON	= 000004	#87-3821
DEXWD1	= 174406	#87-3821
DEXWD2	= 174404	#87-3821
DEXWD3	= 174402	#87-3821
DFAD  	= 000110	#24-953
DFBEND	= 000330 RG	#37-1673
DFDV  	= 000113	#24-954
DFMP  	= 000112	#24-955
DFN   	= 000131	#24-956
PAROOT     CREATED BY  MACRO  ON 10-NOV-81 AT 17:46	PAGE 6

SYMBOL CROSS REFERENCE                                  CREF

SYMBOL	VALUE		REFERENCES

DFSB  	= 000111	#24-957
DFUNC 	= 000200	#87-3821
DF.DMG	= 000004	#87-3821
DF.DMN	= 000007	#87-3821
DF.DOR	= 000001	#87-3821
DF.EHG	= 000010	#87-3821
DF.EHM	= 000011	#87-3821
DF.EMG	= 000005	#87-3821
DF.EMN	= 000006	#87-3821
DF.KLR	= 000012	#87-3821    106-4513
DF.KLW	= 000013	#87-3821    108-4610
DF.KLX	= 000014	#87-3821    111-4712
DF.OFF	= 000002	#87-3821
DF.ON 	= 000003	#87-3821
DF.PDP	= 000016	#87-3821    102-4328
DF.PEX	= 000015	#87-3821    102-4346
DIAG1 	= 174430	#87-3821
DIAG2 	= 174432	#87-3821
DIAG3 	= 174436	#87-3821
DIKL10	= 000010	#87-3821
DISMSG	  000422 RG	 174-6988  #174-6988   174-6988
DIV   	= 000234	#24-959
DIVB  	= 000237	#24-960
DIVI  	= 000235	#24-961
DIVM  	= 000236	#24-962
DLYCNT	= 174400	#87-3821
DMFERM	  000647 R	#181-7242   181-7242
DMOVE 	= 000120	#24-964
DMOVEM	= 000124	#24-965
DMOVN 	= 000121	#24-966
DMOVNM	= 000125	#24-967
DNFERM	  000736 R	#181-7244   181-7244
DNPERM	  000775 R	#181-7245   181-7245
DOCCNR	  010066 R	 159-6498  #159-6521
DON10C	= 040000	#87-3821
DON10S	= 100000	#87-3821
DON11C	= 000100	#87-3821
DON11S	= 000200	#87-3821
DORERM	  000706 R	#181-7243   181-7243
DPB   	= 000137	#24-969
DPDTEN	= 000322 RG	#102-4329
DPS4  	= 040000	#87-3821
DPTMSG	  001403 RG	 183-7346  #183-7346   183-7346
DRAMSG	  001051 RG	 178-7131  #178-7131   178-7131
DRDMSG	  002115 R	 214-8305  #215-8335
DRESET	= 000100	#87-3821
DRMMSG	  001521 RG	 62-2656    187-7408  #187-7408   187-7408
DR.DTE	= 000011	#87-3821    102-4328   102-4346   106-4513   108-4610   111-4712
DSEND 	= 000004	#87-3821
DSFERM	  001034 R	#181-7246   181-7246
DS04  	= 004000	#87-3821
DS05  	= 002000	#87-3821
PAROOT     CREATED BY  MACRO  ON 10-NOV-81 AT 17:46	PAGE 7

SYMBOL CROSS REFERENCE                                  CREF

SYMBOL	VALUE		REFERENCES

DS06  	= 001000	#87-3821
DTCERM	  001067 R	#181-7247   181-7247
DTECMD	= 000451	#87-3821
DTEDSF	  003626 R	 94-4044   #94-4057
DTEFLG	= 000444	#87-3821
DTEF11	= 000450	#87-3821
DTEMSG	  001060 RG	 178-7133  #178-7133   178-7133   182-7325   182-7325
DTEMTD	= 000455	#87-3821
DTEMTI	= 000456	#87-3821
DTKMSG	  002166 R	 216-8377  #218-8443
DTRMSG	  002034 R	 214-8290  #215-8323
DUPE  	= 000020	#87-3821
DURE  	= 000004	#87-3821
DWRMSG	  002121 R	 214-8308  #215-8337
DW1MSG	  002055 R	 215-8317  #215-8326
DW2MSG	  002065 R	 215-8318  #215-8328
DW3MSG	  002105 R	 215-8320  #215-8332
DXWRD1	= 002000	#87-3821
D.CDLS	= ******  GX	 160-6571
D1.CES	= 004000	#10-366     47-2089    114-4820
D1.DCS	= 000001	#10-383
D1.DDT	= 000040	#10-373     10-386
D1.DEX	= 000400	#10-369     10-386
D1.DFM	= 000010	#10-377
D1.DS0	= 100000	#10-359
D1.DS1	= 040000	#10-360
D1.DS2	= 020000	#10-361
D1.DS3	= 010000	#10-362
D1.DS4	= 004000	#10-363
D1.DS5	= 002000	#10-364
D1.DS6	= 001000	#10-365
D1.HLP	= 001000	#10-368     104-4403   104-4411   115-4833   115-4862   117-4951   152-6192
D1.LBK	= 000200	#10-371
D1.MBZ	= 000442	#10-386     94-4066
D1.PLS	= 000020	#10-376
D1.RUN	= 002000	#10-367
D1.T10	= 000200	#10-370
D1.T11	= 000100	#10-372
D1.V04	= 000020	#10-375
D1.XFR	= 000004	#10-378
D1011 	= 000040	#87-3821
D2RST 	  004304 R	 142-5871  #142-5879
D2.EBD	= 040000	#11-392
D2.MBZ	= 177641	#11-409     94-4067
D2.MS1	= 000002	#11-405
D2.MS2	= 000004	#11-404
D2.MS4	= 000010	#11-403
D2.MS8	= 000020	#11-402
D2.RA0	= 100000	#11-390
D2.RA1	= 040000	#11-391
D2.RA2	= 020000	#11-394
D2.RST	= 000100	#11-398     142-5880
PAROOT     CREATED BY  MACRO  ON 10-NOV-81 AT 17:46	PAGE 8

SYMBOL CROSS REFERENCE                                  CREF

SYMBOL	VALUE		REFERENCES

D3RST 	  004306 R	 142-5873  #142-5881
D3.CDD	= 000020	#11-422
D3.MBZ	= 177704	#11-431     94-4069
D3.NPE	= 000002	#11-427
D3.PAR	= 040000	#11-414
D3.RST	= 000001	#11-433     142-5882
D3.SCD	= 000040	#11-420
D3.SSL	= 100000	#11-413
D3.TXB	= 000001	#11-429     11-433
D3.UPE	= 000020	#11-421
D3.URE	= 000004	#11-426
D3.WEP	= 000010	#11-423
EBCECT	  003722 R	 97-4155   #97-4159
EBPEPE	  000424 R	 56-2410   #56-2413
EBSEL 	= 000100	#87-3821
EBSMSG	  001013 RG	 178-7116  #178-7116   178-7116
EBUSPC	= 000020	#87-3821
EBUSPS	= 000004	#87-3821
ECTERM	  001141 R	#181-7249   181-7249
EDEPT 	  002125 R	 218-8424  #218-8431
EDEXV 	  002131 R	 218-8425  #218-8433
EDONES	= 040000	#87-3821
EDPHY 	  002145 R	 218-8428  #218-8439
EDTYTB	  007154 R	 217-8410  #218-8423
EDUPT 	  002135 R	 218-8426  #218-8435
EDUSV 	  002141 R	 218-8427  #218-8437
ED.EPT	= 000000	#9-324
ED.EXV	= 000040	#9-325
ED.PHY	= 000200	#9-328      102-4328   102-4346
ED.UPT	= 000100	#9-326
ED.USV	= 000140	#9-327
EF.CRI	= ******  GX	 141-5823
ELBBIN	  007240 RG	 244-9513  #248-9674
ELBOCT	  007244 RG	 244-9517  #248-9677
ELEMSG	  000756 RG	 176-7070  #176-7070   176-7070   178-7135   178-7135   184-7369   184-7369
ELNBIN	  007232 RG	 243-9474  #248-9670
ELNNOR	  013200 R	 223-8681   223-8683   223-8688   223-8690  #223-8693
ELNOCT	  007250 RG	 243-9478  #248-9682
EMFERM	  001172 R	#181-7250   181-7250
ENBMSG	  001526 RG	 187-7410  #187-7410   187-7410
ENTCRE	  000070 R	 72-3169   #72-3186
ENTDEL	  000144 R	 72-3178   #72-3192
ENTENA	  000114 R	 72-3173   #72-3189
ENTER 	= 000077	#25-971
ENTFEN	  001730 R	 72-3170    72-3172   #72-3180
EOCERM	  001231 R	#181-7251   181-7251
EOFMSG	  000335 R	 77-3446   #77-3455
EPEERM	  001267 R	#181-7252   181-7252
EPTR  	= 000000	#87-3821
EQV   	= 000444	#25-973
EQVB  	= 000447	#25-974
EQVI  	= 000445	#25-975
PAROOT     CREATED BY  MACRO  ON 10-NOV-81 AT 17:46	PAGE 9

SYMBOL CROSS REFERENCE                                  CREF

SYMBOL	VALUE		REFERENCES

EQVM  	= 000446	#25-976
ERRMSG	  001352 RG	 182-7327  #182-7327   182-7327
ERR10C	= 010000	#87-3821
ERR10S	= 020000	#87-3821
ERR11C	= 000001	#87-3821
ERR11S	= 000002	#87-3821
ERSMSG	  000107 R	 62-2655   #63-2665
ESDERM	  001317 R	#181-7253   181-7253
ESEERM	  001354 R	#181-7254   181-7254
ETRMSG	  002151 R	 216-8372  #218-8441
EXAMSG	  000435 RG	 174-6990  #174-6990   174-6990
EXCH  	= 000250	#25-978
EXDDMF	  004134 R	 101-4292  #101-4304
EXDEMF	  004142 R	 101-4286  #101-4307
EXDESD	  004104 R	 101-4291  #101-4296
EXDESE	  004120 R	 101-4285  #101-4300
EXDTEN	= 000334 RG	#102-4347
EXECTO	  004354 R	 104-4417  #104-4437
EXRTBL	= 000012  G	#178-7124
EXTEND	= 000123	#25-979
EXTEXT	  000214 R	 74-3274   #74-3296
EXTFEF	  002036 R	 74-3275    74-3277   #74-3282
EXTMSG	  001425 RG	 183-7350  #183-7350   183-7350
E.FCID	= 000002	#21-802     160-6565   222-8648   258-10060
E.FCOD	= 000003	#21-803     258-10042  258-10065
E.FCTC	= ******  GX	 50-2203
E.FFIL	= 000006	#21-806     70-3076    71-3139    72-3187    72-3190    72-3193    73-3237    74-3297    75-3350
                         80-3558    85-3767
E.FHTO	= 000001	#21-801     91-3955    149-6098
E.FKLN	= 000004	#21-804
E.FLOD	= 000005	#21-805     258-10051
FAD   	= 000140	#25-981
FADB  	= 000143	#25-982
FADL  	= 000141	#25-983
FADM  	= 000142	#25-984
FADR  	= 000144	#25-986
FADRB 	= 000147	#25-987
FADRI 	= 000145	#25-988
FADRM 	= 000146	#25-989
FCFERM	  001411 R	#181-7256   181-7256
FDV   	= 000170	#25-991
FDVB  	= 000173	#25-992
FDVL  	= 000171	#25-993
FDVM  	= 000172	#25-994
FDVR  	= 000174	#25-996
FDVRB 	= 000177	#25-997
FDVRI 	= 000175	#25-998
FDVRM 	= 000176	#25-999
FEBMSG	  001224 RG	 180-7193  #180-7193   180-7193
FEFERM	  001442 R	#181-7257   181-7257
FENERM	  001474 R	#181-7258   181-7258
FERMSG	  001067 RG	 178-7137  #178-7137   178-7137
PAROOT     CREATED BY  MACRO  ON 10-NOV-81 AT 17:46	PAGE 10

SYMBOL CROSS REFERENCE                                  CREF

SYMBOL	VALUE		REFERENCES

FIX   	= 000122	#25-1001
FIXR  	= 000126	#25-1002
FLDMSG	  000050 R	 60-2576   #60-2583
FLFERM	  001525 R	#181-7259   181-7259
FLGMSG	  001072 RG	 178-7139  #178-7139   178-7139
FLTMSG	  001613 RG	 188-7431  #188-7431   188-7431   191-7502   191-7502
FLTR  	= 000127	#25-1004
FMMSG 	  001020 RG	 62-2658    178-7118  #178-7118   178-7118   187-7412   187-7412
FMP   	= 000160	#25-1006
FMPB  	= 000163	#25-1007
FMPL  	= 000161	#25-1008
FMPM  	= 000162	#25-1009
FMPR  	= 000164	#25-1011
FMPRB 	= 000167	#25-1012
FMPRI 	= 000165	#25-1013
FMPRM 	= 000166	#25-1014
FNDALN	  000000 R	 70-3049   #70-3070    70-3073
FNDALU	= 000002 R	*70-3048   #70-3073
FNDCAL	  001550 R	 70-3050   #70-3062
FNDDNF	  001556 R	 70-3054    70-3056   #70-3064
FNDFNA	  000010 R	 70-3053   #70-3075    70-3078    70-3079
FNDFNB	= 000036 R	*70-3052   #70-3079
FNDLUN	= 000014 R	*70-3051   #70-3078
FOFERM	  001557 R	#181-7260   181-7260
FORPRO	= 000020	#87-3821
FRDERM	  001607 R	#181-7261   181-7261
FRDFRF	  004436 R	 106-4475  #106-4492
FRDMSG	  000445 RG	 174-6992  #174-6992   174-6992
FRDTEN	= 000346 RG	#106-4514
FRFERM	  004000 R	#189-7468   189-7468
FR.ADX	= 000254	#18-724
FR.APR	= 000220	#18-702
FR.ARX	= 000252	#18-722
FR.BRX	= 000250	#18-720
FR.CA1	= 000312	#19-754     19-755
FR.CA2	= 000310	#19-751     19-752
FR.CL1	= 000316	#19-761
FR.CL2	= 000314	#19-758
FR.CRD	= 000302	#19-745     132-5470
FR.CR1	= 000316	#19-760     19-761
FR.CR2	= 000314	#19-757     19-758
FR.CR3	= 000312	#19-755
FR.CR4	= 000310	#19-752     134-5547
FR.DA1	= 000260	#18-730
FR.DA2	= 000262	#18-733
FR.EBS	= 000356	#20-788
FR.FE1	= 000266	#18-737
FR.FE2	= 000264	#18-735
FR.PI0	= 000200	#18-691
FR.PI1	= 000202	#18-693
FR.RAD	= 000256	#18-726
FR.RAR	= 000240	#18-712
PAROOT     CREATED BY  MACRO  ON 10-NOV-81 AT 17:46	PAGE 11

SYMBOL CROSS REFERENCE                                  CREF

SYMBOL	VALUE		REFERENCES

FR.RBR	= 000242	#18-714
FR.RFM	= 000246	#18-718     137-5681
FR.RMQ	= 000244	#18-716
FR.SC1	= 000262	#18-732
FR.SC2	= 000260	#18-729
FR.SR1	= 000306	#19-749
FR.SR2	= 000304	#19-747
FR.VM0	= 000320	#19-764
FR.VM1	= 000322	#19-766
FR.VM2	= 000324	#19-768
FR.VM3	= 000326	#19-770
FR.VM4	= 000330	#19-772
FR.VM5	= 000332	#19-774
FR.VM6	= 000334	#19-776
FR.VM7	= 000336	#19-778
FR.100	= 000200	#18-690     18-691
FR.101	= 000202	#18-692     18-693
FR.102	= 000204	#18-694     139-5747
FR.103	= 000206	#18-695
FR.104	= 000210	#18-696     97-4145    131-5410
FR.105	= 000212	#18-697     131-5411
FR.106	= 000214	#18-698     131-5412
FR.107	= 000216	#18-699     131-5413
FR.110	= 000220	#18-701     18-702
FR.111	= 000222	#18-703
FR.112	= 000224	#18-704
FR.113	= 000226	#18-705
FR.114	= 000230	#18-706     136-5637   138-5710
FR.115	= 000232	#18-707
FR.116	= 000234	#18-708
FR.117	= 000236	#18-709
FR.120	= 000240	#18-711     18-712
FR.121	= 000242	#18-713     18-714
FR.122	= 000244	#18-715     18-716
FR.123	= 000246	#18-717     18-718
FR.124	= 000250	#18-719     18-720
FR.125	= 000252	#18-721     18-722
FR.126	= 000254	#18-723     18-724
FR.127	= 000256	#18-725     18-726
FR.130	= 000260	#18-728     18-729     18-730
FR.131	= 000262	#18-731     18-732     18-733
FR.132	= 000264	#18-734     18-735
FR.133	= 000266	#18-736     18-737
FR.134	= 000270	#18-738
FR.135	= 000272	#18-739
FR.136	= 000274	#18-740
FR.137	= 000276	#18-741
FR.140	= 000300	#19-743
FR.141	= 000302	#19-744     19-745
FR.142	= 000304	#19-746     19-747
FR.143	= 000306	#19-748     19-749
FR.144	= 000310	#19-750     19-751
PAROOT     CREATED BY  MACRO  ON 10-NOV-81 AT 17:46	PAGE 12

SYMBOL CROSS REFERENCE                                  CREF

SYMBOL	VALUE		REFERENCES

FR.145	= 000312	#19-753     19-754
FR.146	= 000314	#19-756     19-757
FR.147	= 000316	#19-759     19-760
FR.150	= 000320	#19-763     19-764
FR.151	= 000322	#19-765     19-766
FR.152	= 000324	#19-767     19-768
FR.153	= 000326	#19-769     19-770
FR.154	= 000330	#19-771     19-772
FR.155	= 000332	#19-773     19-774
FR.156	= 000334	#19-775     19-776
FR.157	= 000336	#19-777     19-778
FR.160	= 000340	#20-780
FR.161	= 000342	#20-781
FR.162	= 000344	#20-782     128-5297
FR.163	= 000346	#20-783
FR.164	= 000350	#20-784
FR.165	= 000352	#20-785
FR.166	= 000354	#20-786
FR.167	= 000356	#20-787     20-788
FR.170	= 000360	#20-790
FR.171	= 000362	#20-791
FR.172	= 000364	#20-792
FR.173	= 000366	#20-793
FR.174	= 000370	#20-794
FR.175	= 000372	#20-795
FR.176	= 000374	#20-796
FR.177	= 000376	#20-797
FSB   	= 000150	#25-1016
FSBB  	= 000153	#25-1017
FSBL  	= 000151	#25-1018
FSBM  	= 000152	#25-1019
FSBR  	= 000154	#26-1021
FSBRB 	= 000157	#26-1022
FSBRI 	= 000155	#26-1023
FSBRM 	= 000156	#26-1024
FSC   	= 000132	#26-1026
FSSMSG	  001535 RG	 62-2659    187-7414  #187-7414   187-7414   188-7433   188-7433
FSWERM	  001637 R	#181-7262   181-7262
FTBYTE	= 000000	#2-65
FTCRAM	= 000000	#2-66
FTDEBU	= 000001	#2-67       35-1493    68-2865    160-6546
FTDISP	= 000000	#2-68
FTDRAM	= 000000	#2-69       35-1501    181-7236
FTHELP	= 000000	#2-70       174-7000
FTKLE 	= 000001	#2-77       159-6513   163-6642   174-7028   221-8560
FTKLER	= 000000	#2-71
FTKLI 	= ******	 69-2926    69-2937    74-3287    77-3402
FTLCMN	= 000001  G	 1-1        33-1408   #260-10070
FTLCVT	= 000000	#2-72       42-1864    222-8616
FTLIST	= 000001	#2-73
FTTRAK	= 000001	#2-74       13-489     35-1578    94-4046    99-4222    106-4485   108-4580   111-4682   188-7455
                         191-7524   211-8191   213-8285   216-8366
PAROOT     CREATED BY  MACRO  ON 10-NOV-81 AT 17:46	PAGE 13

SYMBOL CROSS REFERENCE                                  CREF

SYMBOL	VALUE		REFERENCES

FTTRP4	= 000001	#2-75
FTUCVR	= 000130	#2-76
FT1105	= 000001	#2-64      #2-101
FT1110	= 000001	#2-63      #2-97       2-100
FT1115	= 000001	#2-62      #2-93       2-96
FT1120	= 000001	#2-61      #2-89       2-92
FT1135	= 000001	#2-60      #2-85       2-88
FT1140	= 000001	#2-59       2-84       3-110
FT1145	= 000000	#2-58       2-80
FULMSG	  001456 RG	 183-7356  #183-7356   183-7356
FWDTEN	= 000360 RG	#108-4611
FWFERM	  004025 R	#189-7469   189-7469
FWRFWF	  004560 R	 108-4571  #108-4589
FWRMSG	  000453 RG	 174-6994  #174-6994   174-6994
FWTERM	  001664 R	#181-7263   181-7263
FW.APE	= 000116	#16-627
FW.CA1	= 000122	#16-643     126-5239   134-5561   141-5834   155-6367
FW.CA2	= 000124	#16-645     126-5232   134-5563   141-5833   155-6369
FW.CDR	= 000112	#15-599
FW.CHN	= 000160	#17-675     128-5292
FW.CRD	= 000126	#16-647     155-6364
FW.CR1	= 000136	#16-655
FW.CR2	= 000134	#16-653
FW.CR3	= 000132	#16-651
FW.CR4	= 000130	#16-649     155-6347
FW.CSR	= 000110	#15-575     124-5165
FW.DJE	= 000146	#17-664
FW.DJO	= 000150	#17-666
FW.DR1	= 000140	#17-658
FW.DR2	= 000142	#17-660
FW.DR3	= 000144	#17-662
FW.EBL	= 000174	#17-683     141-5836
FW.IAC	= 000154	#17-670
FW.IOJ	= 000152	#17-668
FW.IPE	= 000114	#16-614     124-5171
FW.KLO	= 000156	#17-672     141-5835
FW.LAR	= 000176	#17-686     116-4911   120-5058   154-6279
FW.LBL	= 000106	#15-573     122-5105   141-5832
FW.LBR	= 000104	#15-571     122-5096   141-5831
FW.MBX	= 000162	#17-677     141-5839
FW.SBR	= 000174	#17-684
FW.040	= 000100	#15-568
FW.041	= 000102	#15-569
FW.042	= 000104	#15-570     15-571
FW.043	= 000106	#15-572     15-573
FW.044	= 000110	#15-574     15-575     108-4574
FW.045	= 000112	#15-598     15-599
FW.046	= 000114	#16-613     16-614
FW.047	= 000116	#16-626     16-627     108-4576
FW.050	= 000120	#16-641
FW.051	= 000122	#16-642     16-643
FW.052	= 000124	#16-644     16-645
PAROOT     CREATED BY  MACRO  ON 10-NOV-81 AT 17:46	PAGE 14

SYMBOL CROSS REFERENCE                                  CREF

SYMBOL	VALUE		REFERENCES

FW.053	= 000126	#16-646     16-647
FW.054	= 000130	#16-648     16-649
FW.055	= 000132	#16-650     16-651
FW.056	= 000134	#16-652     16-653
FW.057	= 000136	#16-654     16-655
FW.060	= 000140	#17-657     17-658
FW.061	= 000142	#17-659     17-660
FW.062	= 000144	#17-661     17-662
FW.063	= 000146	#17-663     17-664
FW.064	= 000150	#17-665     17-666
FW.065	= 000152	#17-667     17-668
FW.066	= 000154	#17-669     17-670
FW.067	= 000156	#17-671     17-672
FW.070	= 000160	#17-674     17-675
FW.071	= 000162	#17-676     17-677
FW.072	= 000164	#17-678
FW.073	= 000166	#17-679
FW.074	= 000170	#17-680
FW.075	= 000172	#17-681
FW.076	= 000174	#17-682     17-683     17-684
FW.077	= 000176	#17-685     17-686
FXCFXF	  004730 R	 110-4647  #111-4690
FXCMSG	  000462 RG	 174-6996  #174-6996   174-6996
FXDTEN	= 000372 RG	#111-4713
FXFERM	  004053 R	#189-7470   189-7470
FX.BMC	= 000012	#14-528     88-3856
FX.CMR	= 000014	#14-530     128-5309
FX.CON	= 000024	#14-539     113-4766   119-5000   120-5060
FX.CRF	= 000020	#14-535     90-3930    110-4673
FX.CSP	= 000000	#14-518
FX.CST	= 000002	#14-520     110-4650   147-6038
FX.EBC	= 000006	#14-524     134-5543
FX.MBC	= 000004	#14-522     97-4143    128-5304
FX.SMR	= 000016	#14-532     110-4652   127-5278
FX.SRF	= 000022	#14-537     110-4667   150-6131
FX.SYC	= 000010	#14-526     153-6236
FX.UDR	= 000032	#14-544
FX.UIR	= 000030	#14-542
FX.000	= 000000	#14-517     14-518
FX.001	= 000002	#14-519     14-520
FX.002	= 000004	#14-521     14-522
FX.003	= 000006	#14-523     14-524
FX.004	= 000010	#14-525     14-526
FX.005	= 000012	#14-527     14-528
FX.006	= 000014	#14-529     14-530
FX.007	= 000016	#14-531     14-532
FX.010	= 000020	#14-534     14-535
FX.011	= 000022	#14-536     14-537
FX.012	= 000024	#14-538     14-539
FX.013	= 000026	#14-540
FX.014	= 000030	#14-541     14-542
FX.015	= 000032	#14-543     14-544
PAROOT     CREATED BY  MACRO  ON 10-NOV-81 AT 17:46	PAGE 15

SYMBOL CROSS REFERENCE                                  CREF

SYMBOL	VALUE		REFERENCES

FX.016	= 000034	#14-545
FX.017	= 000036	#14-546
FX.020	= 000040	#14-548
FX.021	= 000042	#14-549
FX.022	= 000044	#14-550
FX.023	= 000046	#14-551
FX.024	= 000050	#14-552
FX.025	= 000052	#14-553
FX.026	= 000054	#14-554
FX.027	= 000056	#14-555
FX.030	= 000060	#14-557
FX.031	= 000062	#14-558
FX.032	= 000064	#14-559
FX.033	= 000066	#14-560
FX.034	= 000070	#14-561
FX.035	= 000072	#14-562
FX.036	= 000074	#14-563
FX.037	= 000076	#14-564
GETSTS	= 000062	#26-1028
GTFILC	  014250 R	 234-9141  #234-9152
GTKKLA	  013260 R	 225-8753   225-8755  #225-8757
GTLCBO	  013114 R	 222-8605  #222-8637
GTLILC	  013122 R	 221-8593   222-8619  #222-8640
GTNILI	  013664 R	 228-8883   228-8897   228-8915  #228-8919
GTNMRA	  014512 R	 237-9252  #237-9254
GTNNER	  013472 R	 226-8791   226-8801  #227-8842   228-8899
GTNNOR	  014520 R	 223-8694   227-8840   236-9232   236-9238  #237-9257
GTNORE	  013466 R	 226-8805   226-8807  #227-8839   228-8902   228-8904
HARMSG	  001744 RG	 191-7504  #191-7504   191-7504
HIBYTE	= 177400	#87-3821
HLFMSG	  001463 RG	 183-7358  #183-7358   183-7358
HLL   	= 000500	#26-1030
HLLE  	= 000530	#26-1031
HLLEI 	= 000531	#26-1032
HLLEM 	= 000532	#26-1033
HLLES 	= 000533	#26-1034
HLLI  	= 000501	#26-1036
HLLM  	= 000502	#26-1037
HLLO  	= 000520	#26-1039
HLLOI 	= 000521	#26-1040
HLLOM 	= 000522	#26-1041
HLLOS 	= 000523	#26-1042
HLLS  	= 000503	#26-1044
HLLZ  	= 000510	#26-1046
HLLZI 	= 000511	#26-1047
HLLZM 	= 000512	#26-1048
HLLZS 	= 000513	#26-1049
HLR   	= 000544	#26-1051
HLRE  	= 000574	#26-1053
HLREI 	= 000575	#26-1054
HLREM 	= 000576	#26-1055
HLRES 	= 000577	#26-1056
PAROOT     CREATED BY  MACRO  ON 10-NOV-81 AT 17:46	PAGE 16

SYMBOL CROSS REFERENCE                                  CREF

SYMBOL	VALUE		REFERENCES

HLRO  	= 000564	#26-1058
HLROI 	= 000565	#26-1059
HLROM 	= 000566	#26-1060
HLROS 	= 000567	#26-1061
HLRS  	= 000547	#26-1063
HLRZ  	= 000554	#26-1065
HLRZI 	= 000555	#26-1066
HLRZM 	= 000556	#26-1067
HLRZS 	= 000557	#26-1068
HLTMSG	  000467 RG	 174-6998  #174-6998   174-6998
HRL   	= 000504	#27-1070
HRLE  	= 000534	#27-1072
HRLEI 	= 000535	#27-1073
HRLEM 	= 000536	#27-1074
HRLES 	= 000537	#27-1075
HRLI  	= 000505	#27-1077
HRLM  	= 000506	#27-1078
HRLO  	= 000564	#27-1080
HRLOI 	= 000565	#27-1081
HRLOM 	= 000566	#27-1082
HRLOS 	= 000567	#27-1083
HRLS  	= 000507	#27-1085
HRLZ  	= 000514	#27-1087
HRLZI 	= 000515	#27-1088
HRLZM 	= 000516	#27-1089
HRLZS 	= 000517	#27-1090
HRR   	= 000540	#27-1092
HRRE  	= 000570	#27-1094
HRREI 	= 000571	#27-1095
HRREM 	= 000572	#27-1096
HRRES 	= 000573	#27-1097
HRRI  	= 000541	#27-1099
HRRM  	= 000542	#27-1100
HRRO  	= 000560	#27-1102
HRROI 	= 000561	#27-1103
HRROM 	= 000562	#27-1104
HRROS 	= 000563	#27-1105
HRRS  	= 000543	#27-1107
HRRZ  	= 000550	#27-1109
HRRZI 	= 000551	#27-1110
HRRZM 	= 000552	#27-1111
HRRZS 	= 000553	#27-1112
IBP   	= 000133	#28-1114
IDFERM	  001715 R	#181-7265   181-7265
IDIV  	= 000230	#28-1116
IDIVB 	= 000233	#28-1117
IDIVI 	= 000231	#28-1118
IDIVM 	= 000232	#28-1119
IDPB  	= 000136	#28-1121
IE.EBX	= ******  GX	 100-4267
IE.EOF	= ******  GX	 85-3776
IE.NSF	= ******  GX	 71-3125
PAROOT     CREATED BY  MACRO  ON 10-NOV-81 AT 17:46	PAGE 17

SYMBOL CROSS REFERENCE                                  CREF

SYMBOL	VALUE		REFERENCES

IFCERM	  001747 R	#181-7266   181-7266
IFLOP 	= 100000	#87-3821
ILCERM	  004103 R	#189-7472   189-7472
ILDB  	= 000134	#28-1123
ILIERM	  002003 R	#181-7267   181-7267
ILSERM	  004135 R	#189-7473   189-7473
IMUL  	= 000220	#28-1125
IMULB 	= 000223	#28-1126
IMULI 	= 000221	#28-1127
IMULM 	= 000222	#28-1128
IN    	= 000056	#28-1130
INBUF 	= 000064	#28-1131
INCMSG	  000716 RG	 175-7055  #175-7055   175-7055   176-7076   176-7076   177-7091   177-7091   178-7159   178-7159
                         188-7435   188-7435   191-7506   191-7506
INDLUN	= 000005	#21-822     77-3444    80-3558    80-3570    160-6555
INIMSG	  000474 RG	 174-7004  #174-7004   174-7004   182-7329   182-7329
INIT  	= 000041	#28-1132
INPUT 	= 000066	#28-1133
INTMSG	  001436 RG	 183-7352  #183-7352   183-7352
INTROF	= 000010	#87-3821
INTRON	= 000040	#87-3821
INTSON	= 000001	#87-3821
INT10S	= 000400	#87-3821
INT11C	= 002000	#87-3821
INT11S	= 004000	#87-3821
IOCERM	  002035 R	#181-7268   181-7268
IOMSG 	  001360 RG	 182-7331  #182-7331   182-7331
IOR   	= 000434	#28-1135    29-1203
IORB  	= 000437	#28-1136    29-1204
IORI  	= 000435	#28-1137    30-1221
IORM  	= 000436	#28-1138    30-1222
IOTAB 	  007166 R	 228-8881   228-8889  #228-8925
IO.ATT	= ******  GX	 258-10060
IO.CRE	= ******  GX	 72-3187
IO.DAC	= ******  GX	 75-3330
IO.DEL	= ******  GX	 72-3193    75-3326
IO.DET	= ******  GX	 160-6565   258-10065
IO.ENA	= ******  GX	 72-3190
IO.EXT	= ******  GX	 74-3297
IO.FNA	= ******  GX	 70-3076    71-3115
IO.RLB	= ******  GX	 222-8648
IO.RNA	= ******  GX	 71-3112
IO.RVB	= ******  GX	 80-3558
IO.WLB	= ******  GX	 258-10042  258-10051
IO.WVB	= ******  GX	 85-3767
IPCERM	  004201 R	#189-7474   189-7474
IP.ALL	= 000017	#16-624
IP.CRP	= 000004	#16-620     16-623     131-5424
IP.DRP	= 000002	#16-621     16-623     131-5431
IP.FMP	= 000010	#16-619     16-623     131-5417
IP.FSS	= 000001	#16-622     16-624     131-5439
IP.NRM	= 000016	#16-623     16-624     16-639
PAROOT     CREATED BY  MACRO  ON 10-NOV-81 AT 17:46	PAGE 18

SYMBOL CROSS REFERENCE                                  CREF

SYMBOL	VALUE		REFERENCES

IRCERM	  002065 R	#181-7269   181-7269
IREERM	  002120 R	#181-7270   181-7270
IS.SET	= ******  GX	 50-2204
ITFERM	  002150 R	#181-7271   181-7271
ITNERM	  002202 R	#181-7272   181-7272
JANMSG	  001214 RG	 180-7191  #180-7191   180-7191
JFCL  	= 000255	#28-1140
JFFO  	= 000243	#28-1142
JMPMSG	  000507 RG	 174-7006  #174-7006   174-7006
JRA   	= 000267	#28-1144
JRST  	= 000254	#28-1146
JSA   	= 000266	#28-1148
JSP   	= 000265	#28-1150
JSR   	= 000264	#28-1152
JSYS  	= 000104	#28-1154
JULMSG	  001262 RG	 180-7203  #180-7203   180-7203
JUMP  	= 000320	#28-1156
JUMPA 	= 000324	#28-1157
JUMPE 	= 000322	#28-1158
JUMPG 	= 000327	#28-1159
JUMPGE	= 000325	#28-1160
JUMPL 	= 000321	#28-1161
JUMPLE	= 000323	#28-1162
JUMPN 	= 000326	#28-1163
JUNMSG	  001255 RG	 180-7201  #180-7201   180-7201
KCNERM	  002232 R	#181-7274   181-7274
KF.BRM	= 001000	#13-481     119-4994
KF.CES	= 000100	#13-484     47-2099    128-5311
KF.CLK	= 100000	#13-475     47-2097    54-2340    101-4297   101-4301   103-4376   104-4421   104-4427   108-4578
                         110-4649   113-4768   113-4774   117-4941   119-4997   119-5012   119-5014   163-6654
KF.CON	= 000200	#13-483     13-485     47-2097    113-4776   128-5311
KF.DEF	= 000200	#13-485
KF.KLO	= 000400	#13-482
KF.MRS	= 020000	#13-477     127-5280   128-5311
KF.RUN	= 040000	#13-476     47-2097    54-2340    103-4376   104-4421   104-4431   110-4666   113-4774   119-4997
                         119-5008   119-5017   146-6004   148-6066   163-6656
KF.SIM	= 010000	#13-478     113-4762   119-4994
KF.SMC	= 004000	#13-479
KF.SPM	= 002000	#13-480     113-4760   119-4994
KLABIN	  007226 RG	 245-9562  #248-9667
KLAERM	  002260 R	#181-7275   181-7275
KLAOCT	  007252 RG	 245-9566  #248-9684
KLEPRM	  000034 RG	#39-1723    163-6643
KLHCFH	  005156 R	#115-4868
KLIMSG	  001632 RG	 188-7437  #188-7437   188-7437   191-7508   191-7508
KLIOT 	= 000700	#28-1165
KLMSG 	  001100 RG	 178-7141  #178-7141   178-7141
KLNBIN	  007216 RG	 246-9601  #248-9662
KLNOCT	  007246 RG	 246-9605  #248-9680
KLPWRF	= 000010	#87-3821
KLRERM	  002307 R	#181-7276   181-7276
KLSCFH	  005266 R	 117-4959  #117-4962
PAROOT     CREATED BY  MACRO  ON 10-NOV-81 AT 17:46	PAGE 19

SYMBOL CROSS REFERENCE                                  CREF

SYMBOL	VALUE		REFERENCES

KNCERM	  002351 R	#181-7277   181-7277
KWEERM	  002405 R	#181-7278   181-7278
LDB   	= 000135	#29-1167
LG.ALL	= 000007	#22-866     174-6988   178-7122   178-7141   179-7172   179-7172   179-7174   179-7176   179-7181
                         179-7183   180-7191   180-7193   180-7195   180-7197   180-7199   180-7201   180-7203   180-7205
                         180-7207   180-7209   180-7211   180-7213   188-7437   191-7500   191-7502   191-7508
LG.ARG	= 000010	#22-859
LG.MAR	= 000020	#22-860
LG.MNT	= 000004	#22-858     22-866     54-2337    174-6992   174-6994   174-6996   174-7010   174-7029   174-7034
                         174-7038   183-7342   183-7344   183-7346   183-7348   183-7350   183-7352   183-7354   183-7356
                         183-7358   183-7360   183-7362   187-7402   187-7404   187-7406   187-7408   187-7410   187-7412
                         187-7414   188-7421   188-7425   188-7433   188-7447   188-7453   191-7492   191-7522
LG.MOD	= 000040	#22-861
LG.NUL	= 000000	#22-855
LG.OPR	= 000001	#22-856     22-865     174-6978   174-6980   174-6982   174-6990   174-7006   174-7008   174-7012
                         174-7014   174-7016   174-7020   174-7022   174-7024   174-7026   174-7036   174-7040   174-7042
                         175-7053   175-7055   175-7057   175-7059   175-7061   176-7074   176-7076   176-7078   176-7080
                         176-7082   177-7089   177-7091   177-7093   177-7095   177-7097   178-7135   178-7147   178-7157
                         178-7159   178-7161   178-7163   178-7165   179-7174   184-7369   184-7371   185-7378   185-7380
                         185-7382   185-7384   186-7391   186-7393   186-7395   188-7423   188-7427   188-7435   188-7439
                         188-7441   188-7445   188-7451   191-7494   191-7498   191-7504   191-7506   191-7510   191-7514
                         191-7520   191-7528
LG.PRG	= 000002	#22-857     22-865     54-2330    174-6984   174-6986   174-6998   174-7004   174-7018   174-7032
                         174-7044   174-7046   176-7068   176-7070   176-7072   178-7104   178-7106   178-7108   178-7110
                         178-7112   178-7114   178-7116   178-7118   178-7120   178-7125   178-7127   178-7129   178-7131
                         178-7133   178-7137   178-7139   178-7143   178-7145   178-7149   178-7151   178-7153   178-7155
                         182-7321   182-7323   182-7325   182-7327   182-7329   182-7331   182-7333   182-7335   188-7429
                         188-7431   188-7443   188-7449   188-7453   188-7456   190-7483   190-7485   191-7496   191-7512
                         191-7516   191-7518   191-7522   191-7525
LG.PRM	= 000003	#22-865     22-866     179-7176
LG.RNG	= 000100	#22-862
LG.RPT	= 000400	#22-864     159-6497   174-6978   174-6982   174-6984   174-6986   174-6990   174-6992   174-6994
                         174-6996   174-6998   174-7004   174-7016   174-7018   174-7022   174-7032   174-7034   174-7044
                         175-7053   175-7055   175-7057   175-7059   175-7061   176-7068   176-7070   176-7072   176-7074
                         176-7076   176-7078   176-7080   176-7082   177-7089   177-7091   177-7093   177-7095   177-7097
                         178-7104   178-7106   178-7108   178-7110   178-7112   178-7114   178-7116   178-7118   178-7120
                         178-7122   178-7125   178-7127   178-7129   178-7131   178-7133   178-7135   178-7137   178-7139
                         178-7141   178-7143   178-7145   178-7147   178-7149   178-7151   178-7153   178-7155   178-7157
                         178-7159   178-7161   178-7163   178-7165   182-7321   182-7323   182-7325   182-7327   182-7329
                         182-7331   182-7333   182-7335   183-7342   183-7344   183-7346   183-7348   183-7350   183-7352
                         183-7354   183-7356   183-7358   183-7360   183-7362   188-7425   188-7433   188-7441   188-7447
                         190-7483   190-7485   191-7496   191-7500   191-7516
LG.STR	= 000200	#22-863
LOAD11	= 000004	#87-3821
LOGLUN	= 000004	#21-821     72-3187    72-3190    72-3193    74-3286    74-3297    85-3767    160-6563
LOGMSG	  001505 RG	 186-7391  #186-7391   186-7391
LOKFLF	  001656 R	 71-3121    71-3126   #71-3132
LOKFNA	  000040 R	 71-3120   #71-3138    71-3141    71-3142    71-3143
LOKFNB	= 000066 R	*71-3119   #71-3143
LOKIOF	= 000042 R	*71-3112   *71-3115   #71-3141
LOKLUN	= 000044 R	*71-3118   #71-3142
LOOKUP	= 000076	#29-1169
PAROOT     CREATED BY  MACRO  ON 10-NOV-81 AT 17:46	PAGE 20

SYMBOL CROSS REFERENCE                                  CREF

SYMBOL	VALUE		REFERENCES

LPTMSG	  001511 RG	 186-7393  #186-7393   186-7393
LSH   	= 000242	#29-1171
LSHC  	= 000246	#29-1172
LSTLUN	= 000003	#21-820     258-10051
MAP   	= 000257	#29-1174
MARMSG	  001235 RG	 180-7195  #180-7195   180-7195
MAYMSG	  001251 RG	 180-7199  #180-7199   180-7199
MBZTAB	  004160 R	 93-4012   #94-4065
MCRMSG	  000535 RG	 174-7012  #174-7012   174-7012
MEMMSG	  001641 RG	 188-7439  #188-7439   188-7439   191-7510   191-7510
MGNMSG	  001447 RG	 183-7354  #183-7354   183-7354
MMSG  	  000514 RG	 174-7008  #174-7008   174-7008
MNTMSG	  001140 RG	 179-7172  #179-7172   179-7172   185-7378   185-7378
MOVE  	= 000200	#29-1176
MOVEI 	= 000201	#29-1177
MOVEM 	= 000202	#29-1178
MOVES 	= 000203	#29-1179
MOVM  	= 000214	#29-1181
MOVMI 	= 000215	#29-1182
MOVMM 	= 000216	#29-1183
MOVMS 	= 000217	#29-1184
MOVN  	= 000210	#29-1186
MOVNI 	= 000211	#29-1187
MOVNM 	= 000212	#29-1188
MOVNS 	= 000213	#29-1189
MOVS  	= 000204	#29-1191
MOVSI 	= 000205	#29-1192
MOVSM 	= 000206	#29-1193
MOVSS 	= 000207	#29-1194
MPE11 	= 001000	#87-3821
MQMSG 	  001023 RG	 178-7120  #178-7120   178-7120
MRAERM	  002437 R	#181-7280   181-7280
MRHERM	  002477 R	#181-7281   181-7281
MRKMSG	  000516 RG	 174-7010  #174-7010   174-7010
MUL   	= 000224	#29-1196
MULB  	= 000227	#29-1197
MULI  	= 000225	#29-1198
MULM  	= 000226	#29-1199
M.KTAE	= 000010	#91-3955
M.KTEF	= 000002	#91-3955
M.KTMG	= 000004	#91-3955
M.KTUN	= 000006	#91-3955
M.PARQ	= ******  GX	 160-6567
NDIERM	  002543 R	#181-7283   181-7283
NEBMSG	  000122 R	 62-2645   #63-2667
NERERM	  002573 R	#181-7284   181-7284
NORERM	  002635 R	#181-7285   181-7285
NOTMSG	  001650 RG	 188-7441  #188-7441   188-7441
NOVMSG	  001320 RG	 180-7211  #180-7211   180-7211
NPIERM	  002675 R	#181-7286   181-7286
NRMMSG	  001367 RG	 183-7342  #183-7342   183-7342
NSFERM	  002731 R	#181-7287   181-7287
PAROOT     CREATED BY  MACRO  ON 10-NOV-81 AT 17:46	PAGE 21

SYMBOL CROSS REFERENCE                                  CREF

SYMBOL	VALUE		REFERENCES

NSKERM	  004244 R	#189-7476   189-7476
NSTERM	  002754 R	#181-7288   181-7288
NTIERM	  002777 R	#181-7289   181-7289
NULMSG	  000364 RG	 174-6978  #174-6978   174-6978
NULSTP	= 000040	#87-3821
NUPE  	= 000002	#87-3821
NXTMSG	  000730 RG	 175-7057  #175-7057   175-7057   176-7078   176-7078   177-7093   177-7093   178-7161   178-7161
OAIERM	  003027 R	#181-7291   181-7291
OCTMSG	  001310 RG	 180-7209  #180-7209   180-7209
OFCERM	  003061 R	#181-7292   181-7292
OFFMSG	  000044 RG	#39-1727
OFSMSG	  001654 RG	 188-7443  #188-7443   188-7443   191-7512   191-7512
ONMSG 	  000041 RG	#39-1725
OPEACC	  000160 R	 73-3226   #73-3236    73-3239    73-3240    73-3241
OPEATT	= 000210 R	*73-3224   *73-3225   #73-3248
OPEFID	= 000174 R	*73-3223   #73-3241
OPEFOF	  001776 R	 73-3227   #73-3230
OPEFUN	= 000162 R	*73-3221   #73-3239
OPELUN	= 000164 R	*73-3222   #73-3240
OPEN  	= 000050	#29-1201
OPERAT	  000206 R	 73-3237   #73-3243    73-3248
OPRMSG	  001154 RG	 179-7174  #179-7174   179-7174   185-7380   185-7380
OR    	= 000434	#29-1203
ORB   	= 000437	#29-1204
ORCA  	= 000454	#29-1206
ORCAB 	= 000457	#29-1207
ORCAI 	= 000455	#29-1208
ORCAM 	= 000456	#29-1209
ORCB  	= 000470	#30-1211
ORCBB 	= 000473	#30-1212
ORCBI 	= 000471	#30-1213
ORCBM 	= 000472	#30-1214
ORCM  	= 000464	#30-1216
ORCMB 	= 000467	#30-1217
ORCMI 	= 000465	#30-1218
ORCMM 	= 000466	#30-1219
ORI   	= 000435	#30-1221
ORM   	= 000436	#30-1222
OUT   	= 000057	#30-1224
OUTBUF	= 000065	#30-1225
OUTMSG	  001663 RG	 188-7445  #188-7445   188-7445   191-7514   191-7514
OUTPUT	= 000067	#30-1226
PAG   	= 000010	#7-246
PAGMSG	  001363 RG	 182-7333  #182-7333   182-7333
PARERC	  000662 R	 58-2522    58-2522    59-2534    59-2534    59-2545    59-2545    60-2570    60-2570   #61-2589
                         61-2605    61-2605    62-2626    62-2626
PARERX	  000506 R	#58-2523    59-2556    60-2578    62-2649
PARMSG	  000011 RG	#39-1717    61-2590
PARNAM	  000021 RG	 35-1476   #39-1719    156-6412   158-6483   163-6639
PARUEC	  000734 R	 58-2515   #61-2602
PAR$$E	= 000027	#1-50       39-1716
PAR$$K	= 000126	#1-54       39-1716
PAROOT     CREATED BY  MACRO  ON 10-NOV-81 AT 17:46	PAGE 22

SYMBOL CROSS REFERENCE                                  CREF

SYMBOL	VALUE		REFERENCES

PAR$$V	= 000006	#1-49       39-1716
PCMSG 	  001026 RG	 178-7122  #178-7122   178-7122
PC.AFI	= 000020	#13-509
PC.AT0	= 000004	#13-511
PC.AT1	= 000010	#13-510
PC.BIS	= 000400	#13-505
PC.CY0	= 004000	#13-502
PC.CY1	= 002000	#13-503
PC.FOV	= 001000	#13-504
PC.FUF	= 000002	#13-512
PC.LIP	= 000040	#13-508
PC.NDV	= 000001	#13-513
PC.OVF	= 010000	#13-501
PC.UIO	= 000100	#13-507
PC.USR	= 000200	#13-506
PERCLR	= 001000	#87-3821
PE.ALL	= 000037	#9-337
PE.CES	= 000001	#9-332      9-337
PE.CRM	= 000004	#9-334      9-337
PE.DRM	= 000002	#9-333      9-337
PE.FMP	= 000010	#9-335      9-337
PE.FSS	= 000020	#9-336      9-337
PHYS  	= 100000	#87-3821
PI    	= 000004	#7-245
PIDENT	= 000000	#87-3821
PIMSG 	  001103 RG	 178-7143  #178-7143   178-7143   182-7335   182-7335
POP   	= 000262	#30-1228
POPJ  	= 000263	#30-1229
PRGMSG	  001165 RG	 179-7176  #179-7176   179-7176   185-7382   185-7382
PRI7  	= 000340	#87-3821
PRMFM 	  002257 R	*242-9402   242-9403  #242-9434
PROMPT	  000030 RG	#39-1721    163-6651
PROPNT	= 000021	#87-3821
PRTOFF	= 004000	#87-3821
PRVMSG	  000735 RG	 175-7059  #175-7059   175-7059   176-7080   176-7080   177-7095   177-7095   178-7163   178-7163
PR0   	= 000000	#87-3821
PR1   	= 000040	#87-3821
PR2   	= 000100	#87-3821
PR3   	= 000140	#87-3821
PR4   	= 000200	#87-3821
PR5   	= 000240	#87-3821
PR6   	= 000300	#87-3821
PR7   	= 000340	#87-3821
PS    	= 177776	#87-3821    160-6568  *160-6568  *160-6573
PSTMSG	  001672 RG	 188-7447  #188-7447   188-7447   191-7516   191-7516
PSWW1 	= 000005	#87-3821
PSWW10	= 000014	#87-3821
PSWW11	= 000015	#87-3821
PSWW12	= 000016	#87-3821
PSWW13	= 000017	#87-3821
PSWW2 	= 000006	#87-3821
PSWW3 	= 000007	#87-3821
PAROOT     CREATED BY  MACRO  ON 10-NOV-81 AT 17:46	PAGE 23

SYMBOL CROSS REFERENCE                                  CREF

SYMBOL	VALUE		REFERENCES

PSWW4 	= 000010	#87-3821
PSWW5 	= 000011	#87-3821
PSWW6 	= 000012	#87-3821
PSWW7 	= 000013	#87-3821
PS.NRM	= 001416	#16-639     143-5928
PTLERM	  003111 R	#181-7294   181-7294
PTOATM	  000270 R	 68-2860   #68-2879
PTRTEM	  000151 R	 64-2700   #67-2822
PTRTHM	  000221 R	 67-2807   #67-2824
PULSE 	= 000020	#87-3821
PUSH  	= 000261	#30-1231
PUSHJ 	= 000260	#30-1232
QSIZE 	= 000023	#87-3821
QTRMSG	  001470 RG	 183-7360  #183-7360   183-7360
QUTMSG	  000661 RG	 174-7040  #174-7040   174-7040
Q.BYCT	= 000016	#21-813     222-8651   258-10045  258-10054
Q.IBUF	= 000014	#21-811
Q.IOAE	= 000012	#70-3076   #71-3139   #72-3187   #72-3190   #72-3193   #73-3237   #74-3297   #75-3350   #222-8648
                        #258-10042 #258-10051 #258-10060 #258-10065
Q.IOEF	= 000006	#70-3076   #71-3139   #72-3187   #72-3190   #72-3193   #73-3237   #74-3297   #75-3350   #222-8648
                        #258-10042 #258-10051 #258-10060 #258-10065
Q.IOFN	= 000002	#70-3076   #71-3139    71-3141   #72-3187   #72-3190   #72-3193   #73-3237    73-3239   #74-3297
                        #75-3350    75-3352   #222-8648  #258-10042 #258-10051 #258-10060 #258-10065
Q.IOLU	= 000004	#70-3076    70-3078   #71-3139    71-3142   #72-3187   #72-3190   #72-3193   #73-3237    73-3240
                        #74-3297   #75-3350    75-3353   #222-8648  #258-10042 #258-10051 #258-10060 #258-10065
Q.IOPL	= 000014	#21-810     21-811     21-812     21-813     21-814    #70-3076    70-3079   #71-3139    71-3143
                        #72-3187   #72-3190   #72-3193   #73-3237    73-3241   #74-3297   #75-3350    75-3354   #222-8648
                         222-8650  #258-10042  258-10044 #258-10051  258-10053 #258-10060 #258-10065
Q.IOPR	= 000007	#70-3076   #71-3139   #72-3187   #72-3190   #72-3193   #73-3237   #74-3297   #75-3350   #222-8648
                        #258-10042 #258-10051 #258-10060 #258-10065
Q.IOSB	= 000010	#70-3076   #71-3139   #72-3187   #72-3190   #72-3193   #73-3237   #74-3297   #75-3350   #222-8648
                        #258-10042 #258-10051 #258-10060 #258-10065
Q.OBUF	= 000014	#21-812
Q.OVFC	= 000020	#21-814     258-10046  258-10055
RAMIS0	= 010000	#87-3821
RDCPT1	  004230 R	 129-5344  #131-5409
RDCPT2	  004210 R	 130-5363  #130-5390
RDCPT3	  004220 R	 129-5345   130-5360  #130-5398
RDCRME	  006470 R	 134-5541  #134-5568
REAFRD	  002570 R	 80-3559    80-3561   #80-3568
REGMSG	  001106 RG	 178-7145  #178-7145   178-7145
REGTAB	  007130 R	 214-8293  #215-8316
RELEAS	= 000071	#30-1234
REMMSG	  001200 RG	 179-7181  #179-7181   179-7181
RENAME	= 000055	#30-1235
REPIRC	  011106 R	 172-6914  #172-6920
RESETT	  004274 R	 141-5804  #141-5830
RFMAD0	= 100000	#87-3821
RFMAD1	= 040000	#87-3821
RFMAD2	= 020000	#87-3821
RFMAD3	= 010000	#87-3821
RGDTEN	= 000310 RG	#95-4095
PAROOT     CREATED BY  MACRO  ON 10-NOV-81 AT 17:46	PAGE 24

SYMBOL CROSS REFERENCE                                  CREF

SYMBOL	VALUE		REFERENCES

RLDMSG	  001706 RG	 188-7449  #188-7449   188-7449   191-7518   191-7518
RM    	= 000010	#87-3821
RMSG  	  000541 RG	 174-7014  #174-7014   174-7014
ROT   	= 000241	#30-1237
ROTC  	= 000245	#30-1238
RPMERM	  003141 R	#181-7296   181-7296
RPTMSG	  000543 RG	 174-7016  #174-7016   174-7016   188-7451   188-7451   191-7520   191-7520
RSTEND	= 004302 R	 141-5816  #141-5837
RSTMSG	  000552 RG	 174-7018  #174-7018   174-7018
RTYMSG	  001715 RG	 188-7453  #188-7453   188-7453   191-7522   191-7522
RUNMSG	  000560 RG	 174-7020  #174-7020   174-7020
SBRMSG	  001131 RG	 178-7153  #178-7153   178-7153
SCD   	= 000040	#87-3821
SCFERM	  003201 R	#181-7298   181-7298
SCRMSG	  001135 RG	 178-7155  #178-7155   178-7155
SEPMSG	  001276 RG	 180-7207  #180-7207   180-7207
SETA  	= 000424	#30-1240
SETAB 	= 000427	#30-1241
SETAI 	= 000425	#30-1242
SETAM 	= 000426	#30-1243
SETCA 	= 000450	#30-1245
SETCAB	= 000453	#30-1246
SETCAI	= 000451	#30-1247
SETCAM	= 000452	#30-1248
SETCM 	= 000460	#30-1250
SETCMB	= 000463	#30-1251
SETCMI	= 000461	#30-1252
SETCMM	= 000462	#30-1253
SETM  	= 000414	#31-1255
SETMB 	= 000417	#31-1256
SETMI 	= 000415	#31-1257
SETMM 	= 000416	#31-1258
SETMSG	  000564 RG	 174-7022  #174-7022   174-7022
SETO  	= 000474	#31-1260
SETOB 	= 000477	#31-1261
SETOI 	= 000475	#31-1262
SETOM 	= 000476	#31-1263
SETSTS	= 000060	#31-1265
SETZ  	= 000400	#31-1267
SETZB 	= 000403	#31-1268
SETZI 	= 000401	#31-1269
SETZM 	= 000402	#31-1270
SHOMSG	  000570 RG	 174-7024  #174-7024   174-7024
SHUMSG	  000575 RG	 174-7026  #174-7026   174-7026
SKIERM	  003230 R	#181-7299   181-7299
SKIP  	= 000330	#31-1272
SKIPA 	= 000334	#31-1273
SKIPE 	= 000332	#31-1274
SKIPG 	= 000337	#31-1275
SKIPGE	= 000335	#31-1276
SKIPL 	= 000331	#31-1277
SKIPLE	= 000333	#31-1278
PAROOT     CREATED BY  MACRO  ON 10-NOV-81 AT 17:46	PAGE 25

SYMBOL CROSS REFERENCE                                  CREF

SYMBOL	VALUE		REFERENCES

SKIPN 	= 000336	#31-1279
SLOMSG	  001500 RG	 183-7362  #183-7362   183-7362
SNPMSG	  000606 RG	 174-7029  #174-7029   174-7029
SOJ   	= 000360	#31-1281
SOJA  	= 000364	#31-1282
SOJE  	= 000362	#31-1283
SOJG  	= 000367	#31-1284
SOJGE 	= 000365	#31-1285
SOJL  	= 000361	#31-1286
SOJLE 	= 000363	#31-1287
SOJN  	= 000366	#31-1288
SOS   	= 000370	#31-1290
SOSA  	= 000374	#31-1291
SOSE  	= 000372	#31-1292
SOSG  	= 000377	#31-1293
SOSGE 	= 000375	#31-1294
SOSL  	= 000371	#31-1295
SOSLE 	= 000373	#31-1296
SOSN  	= 000376	#31-1297
SPCEST	  001614 R	 62-2630   #62-2654
SPFERM	  003305 R	#181-7300   181-7300
SSTLEN	= 000010  G	#36-1653
SSTTBE	= 000302 RG	#36-1654    64-2697
STAMSG	  002075 R	 215-8319  #215-8330
STAT  	= 174434	#87-3821
STATO 	= 000061	#31-1299
STATUS	= 000022	#31-1300   #87-3821
STATZ 	= 000063	#31-1301
STRMSG	  000617 RG	 174-7032  #174-7032   174-7032
STSW1 	= ******  GX	*160-6570
STUCAE	  007440 R	 152-6182  #152-6203
STUUNL	  007446 R	 152-6200  #152-6206
ST.CED	= 000100	#12-454     12-469
ST.CLE	= 000001	#12-467     12-469
ST.CTD	= 040000	#12-439
ST.CTE	= 010000	#12-443     12-469
ST.DW1	= 002000	#12-446
ST.DXD	= 000004	#12-462
ST.EBS	= 000100	#12-453
ST.EDB	= 004000	#12-444
ST.EPE	= 000020	#12-457     12-469     56-2408
ST.IDS	= 000010	#12-461
ST.IEN	= 000040	#12-456
ST.ION	= 000001	#12-466
ST.MBZ	= 000000	#12-471     94-4068
ST.MOD	= 000010	#12-459
ST.MPE	= 001000	#12-447     12-469
ST.NST	= 000040	#12-455
ST.RIZ	= 010000	#12-442
ST.RST	= 011121	#12-469
ST.SEP	= 000004	#12-463
ST.STE	= 000002	#12-465
PAROOT     CREATED BY  MACRO  ON 10-NOV-81 AT 17:46	PAGE 26

SYMBOL CROSS REFERENCE                                  CREF

SYMBOL	VALUE		REFERENCES

ST.TED	= 000200	#12-451
ST.TER	= 000002	#12-464
ST.TXD	= 100000	#12-437
ST.TXE	= 020000	#12-440
ST.XDB	= 000400	#12-449
SUB   	= 000274	#32-1303
SUBB  	= 000277	#32-1304
SUBI  	= 000275	#32-1305
SUBM  	= 000276	#32-1306
SWPMSG	  000625 RG	 174-7034  #174-7034   174-7034
SWR   	= 177570	#87-3821
SWSLLT	= 100000	#87-3821
SXCT  	= 000106	#32-1308
SZIERM	  003335 R	#181-7301   181-7301
TAAERM	  003371 R	#181-7303   181-7303
TAKMSG	  000633 RG	 174-7036  #174-7036   174-7036
TC.CON	= 000377	#22-873
TC.CTC	= 000002	#22-870     50-2208    66-2780
TC.ERR	= 000000	#22-872     47-2104    49-2175    49-2178    51-2246    54-2352    56-2414    70-3063    70-3065
                         71-3133    72-3181    73-3231    74-3291    75-3344    80-3573    85-3782    88-3860    94-4058
                         97-4160    101-4298   101-4302   101-4305   101-4308   104-4438   106-4493   108-4590   111-4691
                         115-4869   117-4963   134-5569   152-6204   152-6207   155-6374   159-6522   167-6775   167-6778
                         167-6781   172-6921   197-7703   222-8638   222-8641   225-8758   227-8843   228-8920   234-9153
                         235-9193   237-9255   237-9258
TC.RST	= 000001	#22-871
TDC   	= 000650	#32-1310
TDCA  	= 000654	#32-1311
TDCE  	= 000652	#32-1312
TDCN  	= 000656	#32-1313
TDMSG0	  000345 R	 166-6753  #167-6786
TDN   	= 000610	#32-1315
TDNA  	= 000614	#32-1316
TDNE  	= 000612	#32-1317
TDNN  	= 000616	#32-1318
TDO   	= 000670	#32-1320
TDOA  	= 000674	#32-1321
TDOE  	= 000672	#32-1322
TDON  	= 000676	#32-1323
TDZ   	= 000630	#32-1325
TDZA  	= 000634	#32-1326
TDZE  	= 000632	#32-1327
TDZN  	= 000636	#32-1328
TENAD1	= 174410	#87-3821
TENAD2	= 174412	#87-3821
TENMSG	  000765 RG	 176-7072  #176-7072   176-7072   178-7147   178-7147   184-7371   184-7371   190-7483   190-7483
TFRMSG	  001765 R	 211-8199  #212-8244
TFWMSG	  002002 R	 211-8206  #212-8246
TFXMSG	  002017 R	 211-8213  #212-8248
THSMSG	  000746 RG	 175-7061  #175-7061   175-7061   176-7082   176-7082   177-7097   177-7097   178-7165   178-7165
TLC   	= 000641	#32-1330
TLCA  	= 000645	#32-1331
TLCE  	= 000643	#32-1332
PAROOT     CREATED BY  MACRO  ON 10-NOV-81 AT 17:46	PAGE 27

SYMBOL CROSS REFERENCE                                  CREF

SYMBOL	VALUE		REFERENCES

TLCN  	= 000647	#32-1333
TLN   	= 000601	#32-1335
TLNA  	= 000605	#32-1336
TLNE  	= 000603	#32-1337
TLNN  	= 000607	#32-1338
TLO   	= 000661	#32-1340
TLOA  	= 000665	#32-1341
TLOE  	= 000663	#32-1342
TLON  	= 000667	#32-1343
TLZ   	= 000621	#32-1345
TLZA  	= 000625	#32-1346
TLZE  	= 000623	#32-1347
TLZN  	= 000627	#32-1348
TOBM  	= 000004	#87-3821
TOD   	= 000003	#87-3821
TOIP  	= 000002	#87-3821
TOIT  	= 000001	#87-3821
TORERM	  003426 R	#181-7304   181-7304
TO10  	= 000200	#87-3821
TO10AD	= 174420	#87-3821
TO10BC	= 174414	#87-3821
TO10BM	= 000001	#87-3821
TO10DB	= 000400	#87-3821
TO10DN	= 100000	#87-3821
TO10DT	= 174424	#87-3821
TO10ER	= 020000	#87-3821
TO11  	= 000100	#87-3821
TO11AD	= 174422	#87-3821
TO11BC	= 174416	#87-3821
TO11BM	= 020000	#87-3821
TO11DB	= 004000	#87-3821
TO11DN	= 000200	#87-3821
TO11DT	= 174426	#87-3821
TO11ER	= 000002	#87-3821
TPDDCK	  011350 R	 196-7654  #197-7702
TPDDVD	  007122 R	#195-7641   196-7669
TPDDVS	  007114 R	#195-7639   196-7668
TPDRMN	  007106 R	#195-7637   196-7657   196-7667   197-7695
TRADDR	  007140 R	 217-8387   217-8398  #218-8419
TRC   	= 000640	#32-1350
TRCA  	= 000644	#32-1351
TRCE  	= 000642	#32-1352
TRCN  	= 000646	#32-1353
TRDATA	  007146 R	 217-8392   217-8402  #218-8421
TRKMSG	  001723 RG	 188-7456  #188-7456   188-7456   191-7525   191-7525
TRN   	= 000600	#33-1355
TRNA  	= 000604	#33-1356
TRNE  	= 000602	#33-1357
TRNN  	= 000606	#33-1358
TRO   	= 000660	#33-1360
TROA  	= 000664	#33-1361
TROE  	= 000662	#33-1362
PAROOT     CREATED BY  MACRO  ON 10-NOV-81 AT 17:46	PAGE 28

SYMBOL CROSS REFERENCE                                  CREF

SYMBOL	VALUE		REFERENCES

TRON  	= 000666	#33-1363
TRZ   	= 000620	#33-1365
TRZA  	= 000624	#33-1366
TRZE  	= 000622	#33-1367
TRZN  	= 000626	#33-1368
TR.ALL	= 000077	#13-496
TR.DEP	= 000020	#13-494     13-496     99-4239
TR.DTE	= 000040	#13-495     13-496     94-4047
TR.EXM	= 000010	#13-493     13-496     99-4223
TR.FRD	= 000002	#13-491     13-496     106-4486
TR.FWR	= 000004	#13-492     13-496     108-4581
TR.FXC	= 000001	#13-490     13-496     111-4683
TSC   	= 000651	#33-1370
TSCA  	= 000655	#33-1371
TSCAMB	  010732 R	 165-6727  #167-6773
TSCE  	= 000653	#33-1372
TSCN  	= 000657	#33-1373
TSCNSK	  010744 R	 165-6736  #167-6777
TSCWRM	  010752 R	 165-6739  #167-6780
TSN   	= 000611	#33-1375
TSNA  	= 000615	#33-1376
TSNE  	= 000613	#33-1377
TSNN  	= 000617	#33-1378
TSO   	= 000671	#33-1380
TSOA  	= 000675	#33-1381
TSOE  	= 000673	#33-1382
TSON  	= 000677	#33-1383
TSZ   	= 000631	#33-1385
TSZA  	= 000635	#33-1386
TSZE  	= 000633	#33-1387
TSZN  	= 000637	#33-1388
TTCALL	= 000051	#33-1390
TTYMSG	  001515 RG	 186-7395  #186-7395   186-7395
TT.OUT	= ******  GX	 160-6570
TYODIE	  015752 R	 255-9932   255-9934   255-9936   255-9938   255-9945   255-9947  #256-9967
UCDMSG	  001732 RG	 190-7485  #190-7485   190-7485
UECMSG	  000060 R	 61-2616   #61-2620
UECMSP	  001612 R	 61-2604   #61-2615
UGETF 	= 000073	#33-1392
UJEN  	= 000100	#33-1394
UNASG1	= 000032	#87-3821
UNASG2	= 000033	#87-3821
UNASG3	= 000034	#87-3821
UNASG4	= 000035	#87-3821
UNASG5	= 000036	#87-3821
UNASG6	= 000037	#87-3821
UNLERM	  003456 R	#181-7306   181-7306
UNMMSG	  000640 RG	 174-7038  #174-7038   174-7038
USETI 	= 000074	#33-1396
USETO 	= 000075	#33-1397
USRMSG	  001207 RG	 179-7183  #179-7183   179-7183   185-7384   185-7384
VERMSG	  001755 RG	 191-7528  #191-7528   191-7528
PAROOT     CREATED BY  MACRO  ON 10-NOV-81 AT 17:46	PAGE 29

SYMBOL CROSS REFERENCE                                  CREF

SYMBOL	VALUE		REFERENCES

VFYERM	  003514 R	#181-7308   181-7308
VF.DSP	= 000060	#21-828
VF.FFD	= 000061	#21-829
VF.INT	= 000000	#21-826     258-10042  258-10051
VF.OVR	= 000053	#21-830
VF.PRM	= 000044	#21-831
VF.SSP	= 000040	#21-827
VMAMSG	  001120 RG	 178-7149  #178-7149   178-7149
VMHMSG	  001124 RG	 178-7151  #178-7151   178-7151
WEP   	= 000010	#87-3821
WHAMSG	  000666 RG	 174-7042  #174-7042   174-7042
WRCRME	  007674 R	 155-6344  #155-6373
WRIFWT	  003326 R	 85-3768    85-3777   #85-3781
WRMERM	  003550 R	#181-7310   181-7310
XCT   	= 000256	#33-1399
XCTMSG	  000673 RG	 174-7044  #174-7044   174-7044
XOR   	= 000430	#33-1401
XORB  	= 000433	#33-1402
XORI  	= 000431	#33-1403
XORM  	= 000432	#33-1404
XTOERM	  003661 R	#181-7314   181-7314
YORERM	  003631 R	#181-7312   181-7312
ZERMSG	  000677 RG	 174-7046  #174-7046   174-7046
ZSTOP 	= 040000	#87-3821
$DIV  	= ******  GX	 257-9999   257-9999
$DSW  	= ******  GX	 50-2204    100-4267
$$    	= 000037	#47-2088    47-2088   #47-2094    47-2094   #48-2131    48-2131   #51-2239    51-2239   #53-2299
                         53-2299   #56-2407    56-2407   #58-2522    58-2522   #59-2534    59-2534   #59-2539    59-2539
                        #59-2545    59-2545   #59-2549    59-2549   #59-2552    59-2552   #59-2555    59-2555   #60-2570
                         60-2570   #60-2575    60-2575   #60-2577    60-2577   #61-2591    61-2591   #61-2593    61-2593
                        #61-2595    61-2595   #61-2597    61-2597   #61-2598    61-2598   #61-2605    61-2605   #61-2607
                         61-2607   #62-2626    62-2626   #62-2627    62-2627   #62-2635    62-2635   #62-2636    62-2636
                        #62-2637    62-2637   #62-2646    62-2646   #64-2699    64-2699   #64-2701    64-2701   #64-2703
                         64-2703   #64-2704    64-2704   #66-2770    66-2770   #66-2776    66-2776   #66-2790    66-2790
                        #66-2792    66-2792   #67-2808    67-2808   #67-2809    67-2809   #67-2815    67-2815   #68-2856
                         68-2856   #68-2859    68-2859   #68-2861    68-2861   #68-2863    68-2863   #68-2864    68-2864
                        #68-2869    68-2869   #71-3116    71-3116   #71-3117    71-3117   #74-3290    74-3290   #77-3430
                         77-3430   #77-3436    77-3436   #77-3445    77-3445   #77-3447    77-3447   #78-3490    78-3490
                        #79-3523    79-3523   #80-3572    80-3572   #81-3620    81-3620   #81-3624    81-3624   #82-3664
                         82-3664   #83-3695    83-3695   #84-3733    84-3733   #84-3737    84-3737   #84-3739    84-3739
                        #85-3778    85-3778   #88-3851    88-3851   #88-3855    88-3855   #89-3888    89-3888   #89-3898
                         89-3898   #90-3931    90-3931   #97-4139    97-4139   #97-4144    97-4144   #97-4146    97-4146
                        #99-4216    99-4216   #99-4225    99-4225   #99-4232    99-4232   #99-4241    99-4241   #100-4271
                         100-4271  #100-4274   100-4274  #103-4380   103-4380  #103-4382   103-4382  #104-4399   104-4399
                        #104-4401   104-4401  #104-4402   104-4402  #104-4407   104-4407  #104-4410   104-4410  #104-4423
                         104-4423  #104-4429   104-4429  #104-4433   104-4433  #106-4488   106-4488  #108-4583   108-4583
                        #111-4685   111-4685  #113-4764   113-4764  #113-4767   113-4767  #113-4770   113-4770  #114-4819
                         114-4819  #114-4824   114-4824  #115-4832   115-4832  #115-4843   115-4843  #115-4856   115-4856
                        #115-4860   115-4860  #115-4861   115-4861  #116-4909   116-4909  #116-4912   116-4912  #117-4948
                         117-4948  #117-4950   117-4950  #119-4999   119-4999  #119-5001   119-5001  #119-5010   119-5010
                        #119-5016   119-5016  #120-5057   120-5057  #120-5059   120-5059  #122-5089   122-5089  #122-5092
                         122-5092  #122-5098   122-5098  #122-5101   122-5101  #122-5106   122-5106  #124-5163   124-5163
PAROOT     CREATED BY  MACRO  ON 10-NOV-81 AT 17:46	PAGE 30

SYMBOL CROSS REFERENCE                                  CREF

SYMBOL	VALUE		REFERENCES

                        #124-5169   124-5169  #124-5175   124-5175  #124-5179   124-5179  #124-5184   124-5184  #126-5222
                         126-5222  #126-5224   126-5224  #126-5230   126-5230  #126-5233   126-5233  #126-5237   126-5237
                        #126-5240   126-5240  #127-5279   127-5279  #127-5281   127-5281  #128-5290   128-5290  #128-5291
                         128-5291  #128-5293   128-5293  #128-5298   128-5298  #128-5305   128-5305  #128-5308   128-5308
                        #128-5310   128-5310  #129-5341   129-5341  #129-5349   129-5349  #132-5471   132-5471  #132-5473
                         132-5473  #134-5542   134-5542  #134-5544   134-5544  #134-5552   134-5552  #134-5557   134-5557
                        #134-5559   134-5559  #134-5562   134-5562  #134-5564   134-5564  #135-5599   135-5599  #135-5601
                         135-5601  #136-5638   136-5638  #136-5640   136-5640  #136-5645   136-5645  #137-5678   137-5678
                        #137-5682   137-5682  #138-5711   138-5711  #138-5714   138-5714  #139-5746   139-5746  #139-5755
                         139-5755  #141-5803   141-5803  #141-5805   141-5805  #141-5808   141-5808  #141-5809   141-5809
                        #141-5810   141-5810  #141-5811   141-5811  #141-5815   141-5815  #141-5820   141-5820  #142-5872
                         142-5872  #143-5922   143-5922  #143-5927   143-5927  #145-5965   145-5965  #145-5966   145-5966
                        #145-5969   145-5969  #145-5971   145-5971  #145-5975   145-5975  #146-6006   146-6006  #147-6035
                         147-6035  #147-6039   147-6039  #148-6069   148-6069  #150-6133   150-6133  #152-6184   152-6184
                        #152-6185   152-6185  #152-6187   152-6187  #152-6188   152-6188  #152-6191   152-6191  #153-6237
                         153-6237  #154-6275   154-6275  #154-6277   154-6277  #154-6280   154-6280  #155-6349   155-6349
                        #155-6357   155-6357  #155-6362   155-6362  #155-6365   155-6365  #155-6366   155-6366  #155-6368
                         155-6368  #155-6370   155-6370  #158-6484   158-6484  #159-6493   159-6493  #159-6495   159-6495
                        #159-6503   159-6503  #159-6504   159-6504  #159-6518   159-6518  #160-6557   160-6557  #160-6561
                         160-6561  #160-6564   160-6564  #160-6572   160-6572  #162-6628   162-6628  #163-6640   163-6640
                        #163-6648   163-6648  #163-6652   163-6652  #163-6664   163-6664  #163-6666   163-6666  #163-6669
                         163-6669  #165-6707   165-6707  #165-6708   165-6708  #165-6718   165-6718  #166-6748   166-6748
                        #166-6750   166-6750  #166-6752   166-6752  #166-6754   166-6754  #166-6762   166-6762  #166-6763
                         166-6763  #172-6911   172-6911  #172-6913   172-6913  #172-6915   172-6915  #172-6917   172-6917
                        #196-7650   196-7650  #196-7652   196-7652  #196-7653   196-7653  #197-7682   197-7682  #197-7684
                         197-7684  #197-7687   197-7687  #198-7747   198-7747  #205-7972   205-7972  #205-7975   205-7975
                        #205-7978   205-7978  #205-7996   205-7996  #205-8003   205-8003  #208-8104   208-8104  #208-8105
                         208-8105  #209-8117   209-8117  #209-8119   209-8119  #209-8120   209-8120  #209-8128   209-8128
                        #209-8130   209-8130  #209-8131   209-8131  #212-8223   212-8223  #212-8228   212-8228  #212-8231
                         212-8231  #212-8232   212-8232  #212-8233   212-8233  #212-8235   212-8235  #214-8291   214-8291
                        #214-8294   214-8294  #214-8295   214-8295  #214-8304   214-8304  #214-8310   214-8310  #216-8371
                         216-8371  #216-8376   216-8376  #217-8397   217-8397  #217-8399   217-8399  #217-8400   217-8400
                        #217-8401   217-8401  #217-8403   217-8403  #217-8404   217-8404  #217-8411   217-8411  #220-8513
                         220-8513  #220-8519   220-8519  #221-8564   221-8564  #221-8573   221-8573  #221-8578   221-8578
                        #221-8587   221-8587  #221-8588   221-8588  #224-8722   224-8722  #224-8723   224-8723  #225-8751
                         225-8751  #226-8789   226-8789  #226-8792   226-8792  #226-8793   226-8793  #226-8795   226-8795
                        #226-8797   226-8797  #226-8800   226-8800  #226-8802   226-8802  #227-8815   227-8815  #227-8822
                         227-8822  #227-8823   227-8823  #227-8824   227-8824  #228-8885   228-8885  #228-8898   228-8898
                        #228-8900   228-8900  #229-8974   229-8974  #230-9001   230-9001  #230-9004   230-9004  #231-9034
                         231-9034  #232-9069   232-9069  #232-9072   232-9072  #233-9112   233-9112  #234-9140   234-9140
                        #235-9171   235-9171  #235-9176   235-9176  #235-9177   235-9177  #235-9182   235-9182  #235-9185
                         235-9185  #235-9190   235-9190  #236-9233   236-9233  #236-9236   236-9236  #241-9359   241-9359
                        #242-9404   242-9404  #242-9412   242-9412  #242-9413   242-9413  #242-9417   242-9417  #242-9418
                         242-9418  #242-9419   242-9419  #242-9421   242-9421  #242-9422   242-9422  #247-9648   247-9648
                        #247-9653   247-9653  #249-9728   249-9728  #250-9750   250-9750  #250-9753   250-9753  #250-9755
                         250-9755  #251-9798   251-9798  #251-9802   251-9802  #251-9811   251-9811  #252-9840   252-9840
                        #254-9893   254-9893  #254-9895   254-9895  #255-9953   255-9953  #257-9999   257-9999  #257-10006
                         257-10006
$$PASS	= 000000	 174-6978   174-6980   174-6982   174-6984   174-6986   174-6988   174-6990   174-6992   174-6994
                         174-6996   174-6998   174-7004   174-7006   174-7008   174-7010   174-7012   174-7014   174-7016
                         174-7018   174-7020   174-7022   174-7024   174-7026   174-7029   174-7032   174-7034   174-7036
                         174-7038   174-7040   174-7042   174-7044   174-7046   175-7053   175-7055   175-7057   175-7059
PAROOT     CREATED BY  MACRO  ON 10-NOV-81 AT 17:46	PAGE 31

SYMBOL CROSS REFERENCE                                  CREF

SYMBOL	VALUE		REFERENCES

                         175-7061   176-7068   176-7070   176-7072   176-7074   176-7076   176-7078   176-7080   176-7082
                         177-7089   177-7091   177-7093   177-7095   177-7097   178-7104   178-7106   178-7108   178-7110
                         178-7112   178-7114   178-7116   178-7118   178-7120   178-7122   178-7125   178-7127   178-7129
                         178-7131   178-7133   178-7135   178-7137   178-7139   178-7141   178-7143   178-7145   178-7147
                         178-7149   178-7151   178-7153   178-7155   178-7157   178-7159   178-7161   178-7163   178-7165
                         179-7172   179-7174   179-7176   179-7181   179-7183   180-7191   180-7193   180-7195   180-7197
                         180-7199   180-7201   180-7203   180-7205   180-7207   180-7209   180-7211   180-7213   182-7321
                         182-7323   182-7325   182-7327   182-7329   182-7331   182-7333   182-7335   183-7342   183-7344
                         183-7346   183-7348   183-7350   183-7352   183-7354   183-7356   183-7358   183-7360   183-7362
                         184-7369   184-7371   185-7378   185-7380   185-7382   185-7384   186-7391   186-7393   186-7395
                         187-7402   187-7404   187-7406   187-7408   187-7410   187-7412   187-7414   188-7421   188-7423
                         188-7425   188-7427   188-7429   188-7431   188-7433   188-7435   188-7437   188-7439   188-7441
                         188-7443   188-7445   188-7447   188-7449   188-7451   188-7453   188-7456   190-7483   190-7485
                         191-7492   191-7494   191-7496   191-7498   191-7500   191-7502   191-7504   191-7506   191-7508
                         191-7510   191-7512   191-7514   191-7516   191-7518   191-7520   191-7522   191-7525   191-7528
                        #191-7533
$$$AB 	= 000001	 178-7125  #178-7125   178-7125
$$$ABO	= 000001	 174-6980  #174-6980   174-6980
$$$ACB	= 000002	 188-7421  #188-7421   188-7421   191-7492  #191-7492   191-7492
$$$AD 	= 000001	 178-7104  #178-7104   178-7104
$$$ADX	= 000001	 178-7106  #178-7106   178-7106
$$$ALL	= 000002	 182-7321  #182-7321   182-7321   187-7402  #187-7402   187-7402
$$$APR	= 000001	 180-7197  #180-7197   180-7197
$$$AR 	= 000003	 176-7068  #176-7068   176-7068   178-7108  #178-7108   178-7108   187-7404  #187-7404   187-7404
$$$ARG	= 000006	#70-3071    70-3071   #70-3071    70-3071   #70-3071    70-3071   #70-3076    70-3076   #70-3076
                         70-3076   #70-3076    70-3076   #70-3076    70-3076   #70-3076    70-3076   #70-3076    70-3076
                        #70-3076    70-3076   #71-3139    71-3139   #71-3139    71-3139   #71-3139    71-3139   #71-3139
                         71-3139   #71-3139    71-3139   #71-3139    71-3139   #71-3139    71-3139   #72-3187    72-3187
                        #72-3187    72-3187   #72-3187    72-3187   #72-3187    72-3187   #72-3187    72-3187   #72-3190
                         72-3190   #72-3190    72-3190   #72-3190    72-3190   #72-3190    72-3190   #72-3190    72-3190
                        #72-3190    72-3190   #72-3190    72-3190   #72-3193    72-3193   #73-3237    73-3237   #73-3237
                         73-3237   #73-3237    73-3237   #73-3237    73-3237   #73-3237    73-3237   #73-3237    73-3237
                        #74-3297    74-3297   #74-3297    74-3297   #74-3297    74-3297   #74-3297    74-3297   #74-3297
                         74-3297   #75-3350    75-3350   #75-3350    75-3350   #75-3350    75-3350   #80-3558    80-3558
                         80-3558    80-3558    80-3558    80-3558    80-3558    80-3558    80-3558    80-3558    80-3558
                         80-3558   #85-3767    85-3767    85-3767    85-3767    85-3767    85-3767    85-3767    85-3767
                         85-3767    85-3767    85-3767    85-3767   #160-6565   160-6565   160-6565   160-6565   160-6565
                         160-6565   160-6565   160-6565   160-6565   160-6565   160-6565   160-6565  #222-8648   222-8648
                        #222-8648   222-8648  #222-8648   222-8648  #258-10042  258-10042 #258-10042  258-10042 #258-10042
                         258-10042 #258-10042  258-10042 #258-10051  258-10051 #258-10051  258-10051 #258-10051  258-10051
                        #258-10051  258-10051 #258-10060  258-10060 #258-10065  258-10065
$$$ARX	= 000001	 178-7110  #178-7110   178-7110
$$$AUG	= 000001	 180-7205  #180-7205   180-7205
$$$AUT	= 000002	 188-7423  #188-7423   188-7423   191-7494  #191-7494   191-7494
$$$BR 	= 000001	 178-7112  #178-7112   178-7112
$$$BRX	= 000001	 178-7114  #178-7114   178-7114
$$$CLK	= 000002	 188-7425  #188-7425   188-7425   191-7496  #191-7496   191-7496
$$$CLR	= 000001	 174-6982  #174-6982   174-6982
$$$CNT	= 000001	 174-6984  #174-6984   174-6984
$$$CON	= 000002	 188-7427  #188-7427   188-7427   191-7498  #191-7498   191-7498
$$$CPU	= 000001	 182-7323  #182-7323   182-7323
$$$CRA	= 000001	 178-7127  #178-7127   178-7127
PAROOT     CREATED BY  MACRO  ON 10-NOV-81 AT 17:46	PAGE 32

SYMBOL CROSS REFERENCE                                  CREF

SYMBOL	VALUE		REFERENCES

$$$CRL	= 000001	 178-7129  #178-7129   178-7129
$$$CRM	= 000002	 183-7344  #183-7344   183-7344   187-7406  #187-7406   187-7406
$$$CTL	= 000001	 183-7348  #183-7348   183-7348
$$$DAT	= 000002	 188-7429  #188-7429   188-7429   191-7500  #191-7500   191-7500
$$$DCR	= 000004	 175-7053  #175-7053   175-7053   176-7074  #176-7074   176-7074   177-7089  #177-7089   177-7089
                         178-7157  #178-7157   178-7157
$$$DEC	= 000001	 180-7213  #180-7213   180-7213
$$$DEP	= 000001	 174-6986  #174-6986   174-6986
$$$DIS	= 000001	 174-6988  #174-6988   174-6988
$$$DPT	= 000001	 183-7346  #183-7346   183-7346
$$$DRA	= 000001	 178-7131  #178-7131   178-7131
$$$DRM	= 000001	 187-7408  #187-7408   187-7408
$$$DTE	= 000002	 178-7133  #178-7133   178-7133   182-7325  #182-7325   182-7325
$$$EBS	= 000001	 178-7116  #178-7116   178-7116
$$$ELE	= 000003	 176-7070  #176-7070   176-7070   178-7135  #178-7135   178-7135   184-7369  #184-7369   184-7369
$$$ENB	= 000001	 187-7410  #187-7410   187-7410
$$$ERR	= 000001	 182-7327  #182-7327   182-7327
$$$EXA	= 000001	 174-6990  #174-6990   174-6990
$$$EXT	= 000001	 183-7350  #183-7350   183-7350
$$$FEB	= 000001	 180-7193  #180-7193   180-7193
$$$FER	= 000001	 178-7137  #178-7137   178-7137
$$$FLG	= 000001	 178-7139  #178-7139   178-7139
$$$FLT	= 000002	 188-7431  #188-7431   188-7431   191-7502  #191-7502   191-7502
$$$FM 	= 000002	 178-7118  #178-7118   178-7118   187-7412  #187-7412   187-7412
$$$FRD	= 000001	 174-6992  #174-6992   174-6992
$$$FSS	= 000002	 187-7414  #187-7414   187-7414   188-7433  #188-7433   188-7433
$$$FUL	= 000001	 183-7356  #183-7356   183-7356
$$$FWR	= 000001	 174-6994  #174-6994   174-6994
$$$FXC	= 000001	 174-6996  #174-6996   174-6996
$$$GLB	= ******	 70-3071    70-3071    70-3071    70-3071    70-3076    70-3076    70-3076    70-3076    70-3076
                         70-3076    70-3076    70-3076    71-3139    71-3139    71-3139    71-3139    71-3139    71-3139
                         71-3139    71-3139    72-3187    72-3187    72-3187    72-3187    72-3187    72-3187    72-3187
                         72-3187    72-3190    72-3190    72-3190    72-3190    72-3190    72-3190    72-3190    72-3190
                         72-3193    72-3193    72-3193    72-3193    72-3193    72-3193    72-3193    72-3193    73-3237
                         73-3237    73-3237    73-3237    73-3237    73-3237    73-3237    73-3237    74-3297    74-3297
                         74-3297    74-3297    74-3297    74-3297    74-3297    74-3297    75-3350    75-3350    75-3350
                         75-3350    75-3350    75-3350    75-3350    75-3350    91-3955    91-3955    91-3955    91-3955
                         91-3955    222-8648   222-8648   222-8648   222-8648   222-8648   222-8648   222-8648   222-8648
                         258-10042  258-10042  258-10042  258-10042  258-10042  258-10042  258-10042  258-10042  258-10051
                         258-10051  258-10051  258-10051  258-10051  258-10051  258-10051  258-10051  258-10060  258-10060
                         258-10060  258-10060  258-10060  258-10060  258-10060  258-10060  258-10065  258-10065  258-10065
                         258-10065  258-10065  258-10065  258-10065  258-10065
$$$HAR	= 000001	 191-7504  #191-7504   191-7504
$$$HLF	= 000001	 183-7358  #183-7358   183-7358
$$$HLT	= 000001	 174-6998  #174-6998   174-6998
$$$INC	= 000006	 175-7055  #175-7055   175-7055   176-7076  #176-7076   176-7076   177-7091  #177-7091   177-7091
                         178-7159  #178-7159   178-7159   188-7435  #188-7435   188-7435   191-7506  #191-7506   191-7506
$$$INI	= 000002	 174-7004  #174-7004   174-7004   182-7329  #182-7329   182-7329
$$$INT	= 000001	 183-7352  #183-7352   183-7352
$$$IO 	= 000001	 182-7331  #182-7331   182-7331
$$$JAN	= 000001	 180-7191  #180-7191   180-7191
$$$JMP	= 000001	 174-7006  #174-7006   174-7006
PAROOT     CREATED BY  MACRO  ON 10-NOV-81 AT 17:46	PAGE 33

SYMBOL CROSS REFERENCE                                  CREF

SYMBOL	VALUE		REFERENCES

$$$JUL	= 000001	 180-7203  #180-7203   180-7203
$$$JUN	= 000001	 180-7201  #180-7201   180-7201
$$$KL 	= 000001	 178-7141  #178-7141   178-7141
$$$KLI	= 000002	 188-7437  #188-7437   188-7437   191-7508  #191-7508   191-7508
$$$LOG	= 000001	 186-7391  #186-7391   186-7391
$$$LPT	= 000001	 186-7393  #186-7393   186-7393
$$$M  	= 000001	 174-7008  #174-7008   174-7008
$$$MAR	= 000001	 180-7195  #180-7195   180-7195
$$$MAY	= 000001	 180-7199  #180-7199   180-7199
$$$MCR	= 000001	 174-7012  #174-7012   174-7012
$$$MEM	= 000002	 188-7439  #188-7439   188-7439   191-7510  #191-7510   191-7510
$$$MGN	= 000001	 183-7354  #183-7354   183-7354
$$$MNT	= 000002	 179-7172  #179-7172   179-7172   185-7378  #185-7378   185-7378
$$$MQ 	= 000001	 178-7120  #178-7120   178-7120
$$$MRK	= 000001	 174-7010  #174-7010   174-7010
$$$NOT	= 000001	 188-7441  #188-7441   188-7441
$$$NOV	= 000001	 180-7211  #180-7211   180-7211
$$$NRM	= 000001	 183-7342  #183-7342   183-7342
$$$NUL	= 000001	 174-6978  #174-6978   174-6978
$$$NXT	= 000004	 175-7057  #175-7057   175-7057   176-7078  #176-7078   176-7078   177-7093  #177-7093   177-7093
                         178-7161  #178-7161   178-7161
$$$OCT	= 000001	 180-7209  #180-7209   180-7209
$$$OFS	= 000002	 188-7443  #188-7443   188-7443   191-7512  #191-7512   191-7512
$$$OPR	= 000002	 179-7174  #179-7174   179-7174   185-7380  #185-7380   185-7380
$$$OST	= 000014	#70-3071    70-3071    70-3071   #70-3071    70-3071    70-3071   #70-3071    70-3071    70-3071
                        #70-3071   #70-3076    70-3076    70-3076   #70-3076    70-3076    70-3076   #70-3076    70-3076
                         70-3076   #70-3076    70-3076    70-3076   #70-3076    70-3076    70-3076   #70-3076    70-3076
                         70-3076   #70-3076    70-3076   #71-3139    71-3139    71-3139   #71-3139    71-3139    71-3139
                        #71-3139    71-3139    71-3139   #71-3139    71-3139    71-3139   #71-3139    71-3139    71-3139
                        #71-3139    71-3139    71-3139   #71-3139    71-3139   #72-3187    72-3187    72-3187   #72-3187
                         72-3187    72-3187   #72-3187    72-3187    72-3187   #72-3187    72-3187    72-3187   #72-3187
                         72-3187    72-3187   #72-3187    72-3187    72-3187   #72-3187    72-3187   #72-3190    72-3190
                         72-3190   #72-3190    72-3190    72-3190   #72-3190    72-3190    72-3190   #72-3190    72-3190
                         72-3190   #72-3190    72-3190    72-3190   #72-3190    72-3190    72-3190   #72-3190    72-3190
                        #72-3193    72-3193    72-3193   #72-3193    72-3193    72-3193   #72-3193    72-3193    72-3193
                        #72-3193    72-3193    72-3193   #72-3193    72-3193    72-3193   #72-3193    72-3193    72-3193
                        #72-3193    72-3193   #73-3237    73-3237    73-3237   #73-3237    73-3237    73-3237   #73-3237
                         73-3237    73-3237   #73-3237    73-3237    73-3237   #73-3237    73-3237    73-3237   #73-3237
                         73-3237    73-3237   #73-3237    73-3237   #74-3297    74-3297    74-3297   #74-3297    74-3297
                         74-3297   #74-3297    74-3297    74-3297   #74-3297    74-3297    74-3297   #74-3297    74-3297
                         74-3297   #74-3297    74-3297    74-3297   #74-3297    74-3297   #75-3350    75-3350    75-3350
                        #75-3350    75-3350    75-3350   #75-3350    75-3350    75-3350   #75-3350    75-3350    75-3350
                        #75-3350    75-3350    75-3350   #75-3350    75-3350    75-3350   #75-3350    75-3350   #91-3955
                         91-3955    91-3955   #91-3955    91-3955    91-3955   #91-3955    91-3955    91-3955   #91-3955
                         91-3955    91-3955   #91-3955   #222-8648   222-8648   222-8648  #222-8648   222-8648   222-8648
                        #222-8648   222-8648   222-8648  #222-8648   222-8648   222-8648  #222-8648   222-8648   222-8648
                        #222-8648   222-8648   222-8648  #222-8648   222-8648  #258-10042  258-10042  258-10042 #258-10042
                         258-10042  258-10042 #258-10042  258-10042  258-10042 #258-10042  258-10042  258-10042 #258-10042
                         258-10042  258-10042 #258-10042  258-10042  258-10042 #258-10042  258-10042 #258-10051  258-10051
                         258-10051 #258-10051  258-10051  258-10051 #258-10051  258-10051  258-10051 #258-10051  258-10051
                         258-10051 #258-10051  258-10051  258-10051 #258-10051  258-10051  258-10051 #258-10051  258-10051
                        #258-10060  258-10060  258-10060 #258-10060  258-10060  258-10060 #258-10060  258-10060  258-10060
PAROOT     CREATED BY  MACRO  ON 10-NOV-81 AT 17:46	PAGE 34

SYMBOL CROSS REFERENCE                                  CREF

SYMBOL	VALUE		REFERENCES

                        #258-10060  258-10060  258-10060 #258-10060  258-10060  258-10060 #258-10060  258-10060  258-10060
                        #258-10060  258-10060 #258-10065  258-10065  258-10065 #258-10065  258-10065  258-10065 #258-10065
                         258-10065  258-10065 #258-10065  258-10065  258-10065 #258-10065  258-10065  258-10065 #258-10065
                         258-10065  258-10065 #258-10065  258-10065
$$$OUT	= 000002	 188-7445  #188-7445   188-7445   191-7514  #191-7514   191-7514
$$$PAG	= 000001	 182-7333  #182-7333   182-7333
$$$PC 	= 000001	 178-7122  #178-7122   178-7122
$$$PI 	= 000002	 178-7143  #178-7143   178-7143   182-7335  #182-7335   182-7335
$$$PRG	= 000002	 179-7176  #179-7176   179-7176   185-7382  #185-7382   185-7382
$$$PRV	= 000004	 175-7059  #175-7059   175-7059   176-7080  #176-7080   176-7080   177-7095  #177-7095   177-7095
                         178-7163  #178-7163   178-7163
$$$PST	= 000002	 188-7447  #188-7447   188-7447   191-7516  #191-7516   191-7516
$$$QTR	= 000001	 183-7360  #183-7360   183-7360
$$$QUT	= 000001	 174-7040  #174-7040   174-7040
$$$R  	= 000001	 174-7014  #174-7014   174-7014
$$$REG	= 000001	 178-7145  #178-7145   178-7145
$$$REM	= 000001	 179-7181  #179-7181   179-7181
$$$RLD	= 000002	 188-7449  #188-7449   188-7449   191-7518  #191-7518   191-7518
$$$RPT	= 000003	 174-7016  #174-7016   174-7016   188-7451  #188-7451   188-7451   191-7520  #191-7520   191-7520
$$$RST	= 000001	 174-7018  #174-7018   174-7018
$$$RTY	= 000002	 188-7453  #188-7453   188-7453   191-7522  #191-7522   191-7522
$$$RUN	= 000001	 174-7020  #174-7020   174-7020
$$$SBR	= 000001	 178-7153  #178-7153   178-7153
$$$SCR	= 000001	 178-7155  #178-7155   178-7155
$$$SEP	= 000001	 180-7207  #180-7207   180-7207
$$$SET	= 000001	 174-7022  #174-7022   174-7022
$$$SHO	= 000001	 174-7024  #174-7024   174-7024
$$$SHU	= 000001	 174-7026  #174-7026   174-7026
$$$SLO	= 000001	 183-7362  #183-7362   183-7362
$$$SNP	= 000001	 174-7029  #174-7029   174-7029
$$$STR	= 000001	 174-7032  #174-7032   174-7032
$$$SWP	= 000001	 174-7034  #174-7034   174-7034
$$$TAK	= 000001	 174-7036  #174-7036   174-7036
$$$TEN	= 000004	 176-7072  #176-7072   176-7072   178-7147  #178-7147   178-7147   184-7371  #184-7371   184-7371
                         190-7483  #190-7483   190-7483
$$$THS	= 000004	 175-7061  #175-7061   175-7061   176-7082  #176-7082   176-7082   177-7097  #177-7097   177-7097
                         178-7165  #178-7165   178-7165
$$$TRK	= 000002	 188-7456  #188-7456   188-7456   191-7525  #191-7525   191-7525
$$$TTY	= 000001	 186-7395  #186-7395   186-7395
$$$T1 	= 000006	#70-3071    70-3071    70-3071   #70-3071    70-3071    70-3071   #70-3071    70-3071    70-3071
                        #80-3558    80-3558   #85-3767    85-3767   #160-6565   160-6565
$$$UCD	= 000001	 190-7485  #190-7485   190-7485
$$$UNM	= 000001	 174-7038  #174-7038   174-7038
$$$USR	= 000002	 179-7183  #179-7183   179-7183   185-7384  #185-7384   185-7384
$$$VER	= 000001	 191-7528  #191-7528   191-7528
$$$VMA	= 000001	 178-7149  #178-7149   178-7149
$$$VMH	= 000001	 178-7151  #178-7151   178-7151
$$$WHA	= 000001	 174-7042  #174-7042   174-7042
$$$XCT	= 000001	 174-7044  #174-7044   174-7044
$$$ZER	= 000001	 174-7046  #174-7046   174-7046
.ABRTC	= ******  GX	 174-6980
.APRWD	  000000 RG	#35-1473    35-1565
PAROOT     CREATED BY  MACRO  ON 10-NOV-81 AT 17:46	PAGE 35

SYMBOL CROSS REFERENCE                                  CREF

SYMBOL	VALUE		REFERENCES

.ATCID	  000460 RG	 255-9931  #258-10059
.ATLMD	= 000033	#21-837
.BRCLK	= 005000	#87-3821
.BRMBC	  003334 RG	#88-3850
.BUFSZ	= 001000  G	#69-2935    69-2954    69-2991    80-3558    85-3767    85-3774
.BURST	  003340 RG	#88-3852    115-4860   115-4860
.CCMDN	  000002 RG	#35-1475    61-2594   *156-6412  *158-6483  *158-6486  *163-6639   166-6751
.CDIBC	= 000412 R	#222-8651
.CDIBP	= 000410 R	#222-8650
.CDINP	  000374 RG	 221-8580  #222-8647   222-8650   222-8651
.CDOBC	= 000432 RG	*221-8576   252-9842  *253-9878   255-9940  *256-9962  #258-10045
.CDOBP	= 000430 RG	*221-8575   255-9939  *256-9963  #258-10044
.CDOFC	= 000434 RG	#258-10046
.CDOUT	  000414 RG	 255-9933  #258-10041  258-10044  258-10045  258-10046
.CECLK	= 004000	#87-3821
.CESCK	  000000 RG	#47-2084    97-4139    97-4139    100-4271   100-4271   147-6035   147-6035   159-6518   159-6518
.CHTAB	  001450 RG	#40-1761    48-2132    48-2139    49-2169    51-2234    52-2271    53-2300    59-2537    169-6838
                         221-8594   236-9227
.CIBFL	= 000214  G	#38-1681    222-8648
.CIBFR	  000330 RG	#38-1679    38-1681    221-8557   221-8571   221-8575   221-8584   222-8648
.CISTS	  000004 RG	#35-1477    221-8565   221-8572   221-8576   221-8582   221-8585   221-8589   222-8648
.CKARG	  000070 RG	#48-2130    226-8793   226-8793   226-8800   226-8800   228-8898   228-8898   234-9140   234-9140
.CKCOL	  000130 RG	#49-2167
.CKCTC	  000166 RG	#50-2202    165-6707   165-6707
.CKEOC	  000214 RG	#51-2232    156-6413   166-6748   166-6748   172-6915   172-6915
.CKEOS	  000256 RG	#52-2269    227-8823   227-8823
.CKOBJ	  000300 RG	#53-2298
.CKRNP	  000316 RG	#54-2328
.CKRUN	  000326 RG	#54-2333
.CKSYM	  000374 RG	 48-2131    48-2131    51-2239    51-2239    53-2299    53-2299   #55-2377    55-2380    165-6708
                         165-6708   226-8789   226-8789
.CLDFB	  003370 RG	#89-3887    122-5092   122-5092   128-5291   128-5291   141-5811   141-5811
.CLDFR	  003374 RG	#89-3889
.CLDFW	  003404 RG	 89-3888    89-3888   #89-3894    124-5175   124-5175   126-5224   126-5224   134-5559   134-5559
                         155-6366   155-6366
.CLKWD	  000010 RG	#35-1479    124-5164  *129-5352   130-5365   145-5968
.CLOSE	  002114 RG	 74-3290    74-3290   #75-3329    77-3445    77-3445    80-3572    80-3572    160-6557   160-6557
                         160-6564   160-6564
.CLRCM	= ******  GX	 174-6982
.CLRFF	  003420 RG	#90-3923    114-4824   114-4824   117-4948   117-4948   152-6184   152-6184
.CLRMR	= 006000	#87-3821
.CLRUN	= 010000	#87-3821
.CMDTB	  004310 RG	 158-6482  #174-6977
.CMNDL	= 000430  G	#38-1689    222-8604
.COBFL	= 000204  G	#38-1685    256-9964
.COBFR	  000544 RG	 35-1599   #38-1683    256-9963   256-9965   258-10042  258-10051
.COMEF	= ******  GX	*141-5823
.COMMA	= 000054	#21-835
.COMND	  000760 RG	#38-1687    38-1689    163-6665
.CONBT	= 012000	#87-3821
.CONTC	= ******  GX	 174-6984
.COSTS	  000012 RG	#35-1481    255-9935   258-10042
PAROOT     CREATED BY  MACRO  ON 10-NOV-81 AT 17:46	PAGE 36

SYMBOL CROSS REFERENCE                                  CREF

SYMBOL	VALUE		REFERENCES

.CRAMA	  000016 RG	#35-1483   *135-5600
.CRAMR	  000020 RG	#35-1485    134-5546   134-5565
.CRAMW	  000042 RG	#35-1489
.CSHRG	= 164000	#87-3821
.DBGSW	  000064 RG	#35-1494    68-2866    160-6547
.DELET	  002100 RG	#75-3325
.DEPAR	= ******  GX	 176-7068
.DFBLK	  000304 RG	#37-1658    106-4513   108-4610   111-4712
.DFRB 	  000312 RG	#37-1661    89-3891    106-4476   211-8198
.DFRED	= ******  GX	 174-6992
.DFWB 	  000304 RG	#37-1659    89-3896    107-4550  *122-5095  *122-5103  *124-5177   126-5225   155-6351   211-8205
.DFWRT	= ******  GX	 174-6994
.DFXCT	= ******  GX	 174-6996
.DIAG1	= 000000	#10-352
.DIAG2	= 000002	#10-353     93-4000    93-4021
.DIAG3	= 000006	#10-355     93-4008    93-4029
.DISCC	= ******  GX	 174-6988
.DOCMD	  007714 RG	#158-6474   163-6669   163-6669   172-6917   172-6917
.DPBFR	  000066 RG	#35-1497    102-4328
.DPBFX	  000074 RG	#35-1499
.DPDPB	  000312 RG	 101-4289   101-4290  #102-4327
.DPETB	  004612 RG	#175-7052
.DPKLM	  003762 RG	#99-4229
.DPOEL	= ******  GX	 176-7070
.DPOKL	= ******  GX	 176-7072
.DPOSC	= ******  GX	 174-6986
.DPOSD	= ******  GX	 175-7053   176-7074
.DPOSI	= ******  GX	 175-7055   176-7076
.DPOSN	= ******  GX	 175-7057   176-7078
.DPOSP	= ******  GX	 175-7059   176-7080
.DPOSZ	= ******  GX	 175-7061   176-7082
.DPOTB	  004652 RG	#176-7067
.DPTRK	  012440 RG	 99-4241    99-4241   #216-8375
.DREG 	  000320 RG	#37-1664   *94-4038    94-4045    95-4093    106-4513   108-4610   111-4712
.DRLTC	= 015000	#87-3821
.DSACF	= 066000	#87-3821
.DSIOJ	= 065000	#87-3821
.DTAB 	  004200 R	 99-4231   #101-4288
.DTCID	  000474 RG	 255-9937  #258-10064
.DTDI1	  000320 RG	#37-1665
.DTDI2	  000322 RG	#37-1667
.DTDI3	  000326 RG	#37-1671
.DTDW1	  003530 RG	 47-2088    47-2088   #93-4016    104-4402   104-4402   104-4410   104-4410   114-4819   114-4819
                         115-4832   115-4832   115-4861   115-4861   117-4950   117-4950   152-6191   152-6191
.DTDW2	  003536 RG	#93-4020
.DTDW3	  003556 RG	#93-4028
.DTSTA	  003546 RG	 56-2407    56-2407   #93-4024
.DTSTS	  000324 RG	#37-1669
.DTSTW	= 000004	#10-354     93-4004    93-4025
.DTTRK	  012316 RG	 94-4049   #214-8287
.DWDW1	  003454 RG	#93-3995
.DWDW2	  003462 RG	#93-3999    142-5872   142-5872
PAROOT     CREATED BY  MACRO  ON 10-NOV-81 AT 17:46	PAGE 37

SYMBOL CROSS REFERENCE                                  CREF

SYMBOL	VALUE		REFERENCES

.DWDW3	  003502 RG	#93-4007    142-5874
.DWSTA	  003472 RG	#93-4003
.EBCLK	  003634 RG	#97-4137    104-4401   104-4401
.EBPCK	  000410 RG	#56-2406    159-6519
.EDELA	  000102 RG	#35-1509    68-2862
.EDKLA	  000104 RG	#35-1511    102-4328   102-4346
.EDKLX	  000112 RG	#35-1513
.EIOJA	= 067000	#87-3821
.ELDDW	  000120 RG	#35-1515
.ELEDW	  000122 RG	#35-1517
.ELNCK	  013130 RG	#223-8677   224-8723   224-8723
.ENTER	  001664 RG	#72-3168
.ETAB 	  004170 R	 99-4215   #101-4282
.EXAD 	= ******  GX	 178-7104
.EXADX	= ******  GX	 178-7106
.EXAMC	= ******  GX	 174-6990
.EXAMD	= ******  GX	 177-7089   178-7157
.EXAMF	= ******  GX	 178-7139
.EXAMI	= ******  GX	 177-7091   178-7159
.EXAMK	= ******  GX	 178-7141
.EXAMN	= ******  GX	 177-7093   178-7161
.EXAMP	= ******  GX	 177-7095   178-7163
.EXAMZ	= ******  GX	 177-7097   178-7165
.EXARR	= ******  GX	 178-7108
.EXARX	= ******  GX	 178-7110
.EXBFR	  000124 RG	#35-1519    102-4346
.EXBRR	= ******  GX	 178-7112
.EXBRX	= ******  GX	 178-7114
.EXCRA	= ******  GX	 178-7127
.EXCRL	= ******  GX	 178-7129
.EXCTC	= ******  GX	 174-7044
.EXCTF	  004150 RG	#103-4373
.EXDPB	  000324 RG	 101-4283   101-4284  #102-4345
.EXDPM	  004020 RG	 99-4216    99-4216    99-4232    99-4232   #100-4251
.EXDRA	= ******  GX	 178-7131
.EXDTE	= ******  GX	 178-7133
.EXEBS	= ******  GX	 178-7116
.EXECT	  004226 RG	#104-4396
.EXETB	  004734 RG	#177-7088
.EXFER	= ******  GX	 178-7137
.EXFMR	= ******  GX	 178-7118
.EXITP	  010074 RG	#160-6545   222-8635   256-9968
.EXKLM	  003730 RG	#99-4213
.EXMEL	= ******  GX	 178-7135
.EXMKL	= ******  GX	 178-7147
.EXMPI	= ******  GX	 178-7143
.EXMQR	= ******  GX	 178-7120
.EXMTB	  004774 RG	#178-7103   178-7124
.EXREG	= ******  GX	 178-7145
.EXSBR	= ******  GX	 178-7153
.EXSCR	= ******  GX	 178-7155
.EXTND	  002004 RG	#74-3273    85-3778    85-3778
PAROOT     CREATED BY  MACRO  ON 10-NOV-81 AT 17:46	PAGE 38

SYMBOL CROSS REFERENCE                                  CREF

SYMBOL	VALUE		REFERENCES

.EXTRK	  012426 RG	 99-4225    99-4225   #216-8370
.EXVAB	= ******  GX	 178-7125
.EXVMA	= ******  GX	 178-7149
.EXVMH	= ******  GX	 178-7151
.EXVPC	= ******  GX	 178-7122
.FEMOD	= ******  GX	 54-2342    165-6738   166-6758
.FISTS	  001630 RG	#69-2932    70-3055    70-3076    71-3122    71-3125    71-3139    72-3171    72-3175    72-3187
                         72-3190    73-3237    74-3276    74-3297    75-3336    75-3350    80-3558    80-3560    80-3563
                         85-3767    85-3769    85-3776
.FNDIR	  001452 RG	#70-3045    71-3116    71-3116
.FREAD	  004362 RG	 97-4146    97-4146   #106-4468   128-5298   128-5298   129-5349   129-5349   132-5471   132-5471
                         134-5552   134-5552   136-5638   136-5638   137-5682   137-5682   138-5711   138-5711   139-5755
                         139-5755
.FRTRK	  012156 RG	 106-4488   106-4488  #211-8195
.FWRIT	  004444 RG	#107-4548   116-4912   116-4912   120-5059   120-5059   122-5098   122-5098   122-5106   122-5106
                         124-5179   124-5179   124-5184   124-5184   126-5233   126-5233   126-5240   126-5240   128-5293
                         128-5293   134-5562   134-5562   134-5564   134-5564   141-5815   141-5815   141-5820   141-5820
                         154-6280   154-6280   155-6357   155-6357   155-6365   155-6365   155-6368   155-6368   155-6370
                         155-6370
.FWTRK	  012176 RG	 108-4583   108-4583  #211-8202
.FXCT 	  004566 RG	 88-3857    90-3931    90-3931    97-4144    97-4144   #110-4640   113-4767   113-4767   119-5001
                         119-5001   120-5061   127-5279   127-5279   128-5305   128-5305   128-5310   128-5310   134-5544
                         134-5544   147-6039   147-6039   150-6133   150-6133   153-6237   153-6237
.FXTRK	  012216 RG	 111-4685   111-4685  #211-8209
.GFNR 	= 102000	#87-3821
.GTCMD	  012574 RG	 163-6666   163-6666  #220-8509
.GTELN	  013204 RG	#224-8717   228-8900   228-8900
.GTEXP	  013672 RG	 226-8797   226-8797   227-8822   227-8822  #229-8973   235-9190   235-9190
.GTFCT	  014100 RG	 231-9034   231-9034   232-9069   232-9069  #233-9103   235-9171   235-9171   235-9176   235-9176
                         235-9182   235-9182
.GTKLA	  013234 RG	#225-8750
.GTKLN	  013266 RG	 172-6911   172-6911  #226-8787
.GTLIN	  012630 RG	 220-8513   220-8513  #221-8555
.GTNBR	  014374 RG	 233-9112   233-9112  #236-9218
.GTNUM	  013266 RG	 224-8722   224-8722   225-8751   225-8751  #226-8786
.GTOPC	  013500 RG	 226-8795   226-8795  #228-8876
.GTTRM	  013766 RG	 229-8974   229-8974   230-9001   230-9001  #231-9033
.HALTC	= ******  GX	 174-6998
.INATT	  002716 RG	#69-2966    80-3556    80-3569    160-6554
.INBBC	  001660 RG	#69-2949   *78-3487    78-3488   *78-3494    79-3521   *79-3527   *80-3563
.INBUF	  001664 RG	#69-2953    80-3558    80-3562
.INCHC	  000132 RG	#35-1521   *221-8558  *222-8603   222-8604   222-8610  *236-9219  *236-9229   237-9251
.INDFG	  001626 RG	#69-2928   *77-3442   *80-3571    160-6552  *160-6556   221-8559
.INFN 	  001634 RG	#69-2939
.INFNB	  002664 RG	#69-2956    77-3443
.INICL	= 070000	#87-3821
.INICP	= ******  GX	 35-1603
.INITC	= ******  GX	 174-7004
.INPOS	  001662 RG	#69-2951    78-3484   *78-3486    78-3492   *78-3493    79-3525   *79-3526   *80-3562
.INVBN	  001654 RG	#69-2947   *80-3554   *80-3555    80-3556    80-3558    80-3558
.IRADX	  000134 RG	#35-1523   *66-2778    172-6905  *172-6906  *172-6912   234-9145  *235-9161  *235-9165  *235-9169
                        *235-9172   236-9223
PAROOT     CREATED BY  MACRO  ON 10-NOV-81 AT 17:46	PAGE 39

SYMBOL CROSS REFERENCE                                  CREF

SYMBOL	VALUE		REFERENCES

.IRLTC	= 014000	#87-3821
.JUMPC	= ******  GX	 174-7006
.KLCON	  004736 RG	 104-4423   104-4423  #113-4756
.KLDFR	  000336 RG	 60-2560   *106-4469   106-4473  #106-4512   211-8197
.KLDFW	  000350 RG	 60-2564   *107-4549   108-4569   108-4573  #108-4609   211-8204
.KLDFX	  000362 RG	 60-2568   *110-4641   110-4645   110-4648  #111-4711   211-8211
.KLE  	= ******  GX	 221-8564   221-8564
.KLEDF	  000144 RG	#35-1527   *163-6646   221-8562
.KLEPT	  000146 RG	#35-1529
.KLERQ	= ******  GX	 159-6514  *160-6566   163-6644
.KLEVL	  000150 RG	#35-1531
.KLFLG	= ******  GX	*47-2097   *47-2099    54-2338   *101-4297  *101-4301   103-4374   104-4398  *108-4578   110-4654
                        *110-4656   110-4660  *110-4662  *110-4669  *110-4675   113-4758   116-4913   117-4941   119-5014
                        *127-5280  *128-5311   148-6066   148-6068   163-6641
.KLGO 	  004744 RG	#113-4759   116-4914
.KLHLT	  005034 RG	#114-4817   116-4909   116-4909   117-4943   120-5057   120-5057
.KLINC	  000136 RG	#35-1525
.KLMTB	  005270 RG	#179-7171
.KLMT1	  005314 RG	#179-7180
.KLRST	  005274 RG	#119-4991   146-6006   146-6006
.KLSNP	  000151 RG	#35-1533
.KLST 	  005164 RG	#116-4907
.KLSTP	  005212 RG	#117-4940   148-6069   148-6069
.KLXCT	  005426 RG	 103-4382   103-4382   104-4399   104-4399  #120-5056
.LCRDL	= 052000	#87-3821
.LCRDR	= 051000	#87-3821
.LCRM1	= 057000	#87-3821
.LCRM2	= 056000	#87-3821
.LCRM3	= 055000	#87-3821
.LCRM4	= 054000	#87-3821
.LCRM5	= 053000	#87-3821
.LDAR 	= 077000	#87-3821
.LDBRC	  005452 RG	#122-5088
.LDBRG	  005456 RG	 88-3855    88-3855   #122-5090
.LDBRL	= 043000	#87-3821
.LDBRR	= 042000	#87-3821
.LDCK1	= 046000	#87-3821
.LDCK2	= 047000	#87-3821
.LDCLK	  005554 RG	#124-5162   141-5808   141-5808   143-5927   143-5927   145-5971   145-5971
.LDCRA	  005652 RG	#126-5219   134-5542   134-5542   152-6187   152-6187   155-6349   155-6349
.LDDIS	= 045000	#87-3821
.LDOBC	= 000454 RG	*221-8585  *255-9940   255-9952  #258-10054
.LDOBP	= 000452 RG	*221-8584  *255-9939   255-9951  #258-10053
.LDOFC	= 000456 R	#258-10055
.LDOUT	  000436 RG	 255-9944  #258-10050  258-10053  258-10054  258-10055
.LDPAR	  005572 RG	#124-5168   141-5809   141-5809   145-5975   145-5975
.LDRJD	= 064000	#87-3821
.LDRJV	= 063000	#87-3821
.LDRM1	= 060000	#87-3821
.LDRM2	= 061000	#87-3821
.LDRM3	= 062000	#87-3821
.LDSEL	= 044000	#87-3821
PAROOT     CREATED BY  MACRO  ON 10-NOV-81 AT 17:46	PAGE 40

SYMBOL CROSS REFERENCE                                  CREF

SYMBOL	VALUE		REFERENCES

.LDSTS	  000160 RG	#35-1544    255-9946   258-10051
.LDZFL	  000166 RG	#35-1548   *212-8222  *214-8288  *243-9468  *245-9557   247-9646  *247-9651   250-9759  *250-9763
.LGLWD	  000164 RG	#35-1546   *158-6485   159-6497  *159-6508  *163-6667
.LOKUP	  001574 RG	#71-3114
.MARKC	= ******  GX	 174-7010
.MEMFL	  000170 RG	#35-1550
.MEMRS	= 076000	#87-3821
.MISC 	= ******  GX	*160-6567
.MONTB	  005332 RG	#180-7190
.MRCLR	  005766 RG	#127-5276   141-5810   141-5810
.MTDPB	  000266 RG	 90-3926   #91-3954
.NOERR	= ******  GX	*47-2095   *149-6101
.NOHLT	= ******  GX	*90-3929   *113-4777  *119-5019  *146-6007
.NOTSW	  000172 RG	#35-1552
.NSETB	  005444 RG	 58-2512   #181-7220
.NULLC	  007702 RG	#156-6411   174-6978
.OPEN 	  001736 RG	#73-3220
.ORADX	  000174 RG	#35-1554   *66-2779    243-9472   243-9476   244-9511   244-9515   245-9560   245-9564   246-9599
                         246-9603   250-9752
.OTATT	  004016 RG	#69-3003   *74-3278   *74-3279   *74-3283   *74-3284    74-3285    81-3616   *81-3618   *84-3724
                        *84-3725   *85-3771   *85-3772    160-6562
.OTBBC	  002760 RG	#69-2986   *82-3661    82-3662   *82-3667    83-3693   *83-3698    84-3726    84-3728    84-3734
                        *85-3774
.OTBUF	  002764 RG	#69-2990    74-3284    84-3725    85-3767    85-3773
.OTFN 	  002734 RG	#69-2976
.OTFNB	  003764 RG	#69-2993    72-3187    72-3190
.OTPOS	  002762 RG	#69-2988    74-3283    82-3658   *82-3660    82-3665   *82-3666    83-3696   *83-3697    84-3724
                         84-3729   *85-3773
.OTVBN	  002754 RG	#69-2984   *85-3765   *85-3766    85-3767    85-3767    85-3771    85-3772
.OUTLG	  000154 RG	#35-1537   *74-3288    160-6558  *160-6560   255-9948
.OUTLP	  000155 RG	#35-1539    255-9942
.OUTTY	  000156 RG	#35-1541    255-9929
.PARER	  000432 RG	#58-2497    66-2792    66-2792
.PASS 	  000152 RG	#35-1535    242-9399
.PCAB1	= 150000	#87-3821
.PCAB2	= 151000	#87-3821
.PCAB3	= 152000	#87-3821
.PCAB4	= 153000	#87-3821
.PEWRD	  000176 RG	#35-1556    139-5749
.PITAB	  000200 RG	#35-1558
.PSCWD	  000204 RG	#35-1560    124-5170  *129-5353   130-5371   145-5967
.PTDIE	  001046 RG	#64-2690    68-2858
.PTOAT	  001352 RG	 35-1583   #68-2853
.PTTRP	  001124 RG	 36-1651   #66-2762
.QUITC	= ******  GX	 174-7040
.RCRM1	= 147000	#87-3821
.RCRM2	= 146000	#87-3821
.RCRM3	= 145000	#87-3821
.RCRM4	= 144000	#87-3821
.RCSPF	= 141000	#87-3821
.RDCPP	  006134 RG	#129-5340   145-5966   145-5966
.RDCRA	= ******  GX	 135-5599   135-5599
PAROOT     CREATED BY  MACRO  ON 10-NOV-81 AT 17:46	PAGE 41

SYMBOL CROSS REFERENCE                                  CREF

SYMBOL	VALUE		REFERENCES

.RDCRD	  006270 RG	#132-5467   134-5557   134-5557
.RDCRM	  006326 RG	#134-5538
.RDCRO	  006476 R	#135-5598
.RDCRR	  006360 RG	#134-5545   135-5601   135-5601
.RDFMA	  006516 RG	#136-5634   137-5678   137-5678
.RDFMO	  006600 RG	#137-5675
.RDFMP	  006634 RG	#138-5708
.RDIPE	  006670 RG	 62-2627    62-2627   #139-5745
.RDJ14	= 134000	#87-3821
.RDJ71	= 135000	#87-3821
.RDMAB	= 133000	#87-3821
.RDXSV	  000206 RG	#35-1562    66-2778    66-2779   *172-6905   172-6912
.READ 	  002440 RG	 78-3490    78-3490    79-3523    79-3523   #80-3553
.READB	  002406 RG	 77-3436    77-3436   #79-3520
.READR	  002224 RG	#77-3428    221-8573   221-8573
.READW	  002330 RG	 77-3430    77-3430   #78-3483
.RECNT	  004034 RG	#69-3011   *81-3609    81-3615   *81-3628
.RECPT	  004036 RG	#69-3013    81-3607   *81-3608   *81-3627
.RECRD	  004040 RG	 69-3014   #69-3015    81-3614    81-3627
.REGRW	  000300 RG	*93-3996   *93-4000   *93-4004   *93-4008   *93-4010    93-4011    93-4012   *93-4017   *93-4021
                        *93-4025   *93-4029   *94-4036    94-4042   #95-4089    214-8292   214-8296   214-8302   214-8306
.REGSV	  010302 RG	 66-2770    68-2856    124-5163   124-5169   129-5341   139-5746  #162-6624   216-8371   216-8376
.RELWD	  000210 RG	#35-1564    234-9127
.REMOV	  001564 RG	#71-3111
.REPTC	  011022 RG	#172-6904   174-7016
.RESET	  006752 RG	#141-5801   143-5922   143-5922   145-5969   145-5969
.RESTB	  006106 RG	#182-7320
.RESTC	= ******  GX	 174-7018
.RESTD	  007066 RG	 100-4274   100-4274   141-5803   141-5803  #142-5870
.RESTI	  007106 RG	#143-5919
.RESTP	  007132 RG	 126-5222   126-5222  #145-5963
.RPTCT	  000212 RG	#35-1566    163-6668
.RPTPT	  000220 RG	#35-1568   *158-6480
.RSALL	= ******  GX	 182-7321
.RSAPR	= ******  GX	 182-7323
.RSDTE	= ******  GX	 182-7325
.RSERR	= ******  GX	 182-7327
.RSPAG	= ******  GX	 182-7333
.RSTIN	= ******  GX	 182-7329
.RSTIO	= ******  GX	 182-7331
.RSTKL	  007204 RG	 66-2776    66-2776    103-4384  #146-6003
.RSTPI	= ******  GX	 182-7335
.RUNCM	= ******  GX	 174-7008   174-7012   174-7014   174-7020
.R50TB	  001410 RG	#39-1693    257-10001
.SCACB	= ******  GX	 188-7421
.SCCEC	= ******  GX	 183-7344
.SCCED	= ******  GX	 183-7346
.SCCEE	= ******  GX	 183-7348
.SCCLK	= ******  GX	 188-7425
.SCCLN	= ******  GX	 183-7342
.SCCOM	= ******  GX	 185-7378
.SCCON	= ******  GX	 188-7427
PAROOT     CREATED BY  MACRO  ON 10-NOV-81 AT 17:46	PAGE 42

SYMBOL CROSS REFERENCE                                  CREF

SYMBOL	VALUE		REFERENCES

.SCCOO	= ******  GX	 185-7380
.SCCOP	= ******  GX	 185-7382
.SCCOT	  006312 RG	#185-7377
.SCCOU	= ******  GX	 185-7384
.SCCRF	= ******  GX	 183-7356
.SCCRH	= ******  GX	 183-7358
.SCCRQ	= ******  GX	 183-7360
.SCCRS	= ******  GX	 183-7362
.SCCSE	= ******  GX	 183-7350
.SCCSI	= ******  GX	 183-7352
.SCCSM	= ******  GX	 183-7354
.SCCTB	  006170 RG	#183-7341
.SCDAT	= ******  GX	 188-7429
.SCFSS	= ******  GX	 188-7433
.SCINC	= ******  GX	 188-7435
.SCKLN	= ******  GX	 188-7437
.SCMEL	= ******  GX	 184-7369
.SCMEM	= ******  GX	 188-7439
.SCMKL	= ******  GX	 184-7371
.SCMTB	  006274 RG	#184-7368
.SCNOT	= ******  GX	 188-7441
.SCOFS	= ******  GX	 188-7443
.SCOTL	= ******  GX	 186-7391
.SCOTP	= ******  GX	 186-7393
.SCOTT	  006344 RG	#186-7390
.SCOTY	= ******  GX	 186-7395
.SCOUT	= ******  GX	 188-7445
.SCPAL	= ******  GX	 187-7402
.SCPAR	= ******  GX	 187-7404
.SCPCR	= ******  GX	 187-7406
.SCPDR	= ******  GX	 187-7408
.SCPEN	= ******  GX	 187-7410
.SCPFM	= ******  GX	 187-7412
.SCPFS	= ******  GX	 187-7414
.SCPST	= ******  GX	 188-7447
.SCPTB	  006370 RG	#187-7401
.SCRLD	= ******  GX	 188-7449
.SCRPT	= ******  GX	 188-7451
.SCRTY	= ******  GX	 188-7453
.SCTAK	= ******  GX	 188-7423
.SCTRK	= ******  GX	 188-7456
.SEAMB	  000520 RG	#59-2532    189-7464
.SECES	  000756 RG	#62-2625    189-7466
.SECLK	= 003000	#87-3821
.SEFRF	  000606 RG	#60-2559    189-7468
.SEFWF	  000614 RG	#60-2563    189-7469
.SEFXF	  000622 RG	#60-2567    189-7470
.SEILC	  000544 RG	#59-2542    189-7472
.SEILS	  000544 RG	#59-2543    189-7473
.SEIPC	  000544 RG	#59-2544    189-7474
.SENSK	  000520 RG	#59-2533    189-7476
.SETCM	= ******  GX	 174-7022
PAROOT     CREATED BY  MACRO  ON 10-NOV-81 AT 17:46	PAGE 43

SYMBOL CROSS REFERENCE                                  CREF

SYMBOL	VALUE		REFERENCES

.SETFN	  002166 RG	 71-3117    71-3117   #76-3387
.SETMR	= 007000	#87-3821
.SETRN	= 011000	#87-3821
.SETTB	  006444 RG	#188-7420
.SFREC	= ******  GX	 188-7431
.SHIFT	  011114 RG	 122-5101   122-5101  #194-7592
.SHUTC	= ******  GX	 174-7026
.SNAP 	= ******  GX	 174-7029
.SPACE	= 000040	#21-836     39-1705    52-2273    55-2379    59-2547    222-8621   226-8798   241-9352   248-9663
                         248-9664   248-9665   248-9666   248-9668   248-9669   248-9671   248-9672   248-9673   248-9675
                         248-9676   248-9681   248-9685
.SPETB	  006622 RG	 58-2499   #189-7463
.SSCAN	  010760 RG	 165-6718   165-6718  #169-6824   169-6830   228-8885   228-8885
.SSCLK	= 002000	#87-3821
.SSTTB	  000264 RG	#36-1644    36-1653    64-2694   *68-2858   *68-2873
.START	  010340 RG	 35-1571   #163-6635
.STCLF	  007240 RG	 127-5281   127-5281  #147-6036
.STCLK	  007232 RG	 104-4407   104-4407   113-4770   113-4770   119-5016   119-5016  #147-6033   152-6188   152-6188
.STPCL	= 000000	#87-3821
.STPKL	  007256 RG	 103-4380   103-4380  #148-6065
.STPXC	  007302 RG	 88-3851    88-3851    104-4429   104-4429   115-4843   115-4843   115-4856   115-4856   122-5089
                         122-5089   128-5290   128-5290   141-5805   141-5805   145-5965   145-5965  #149-6095   152-6185
                         152-6185   154-6275   154-6275
.STRCL	= 001000	#87-3821
.STRTB	  006712 RG	#190-7482
.STRTC	= ******  GX	 174-7032
.STRTT	= ******  GX	 190-7483
.STRTU	= ******  GX	 190-7485
.STRTV	  000222 RG	#35-1570    66-2799    68-2874    166-6770
.STRUN	  007332 RG	 104-4433   104-4433   113-4764   113-4764   119-4999   119-4999   119-5010   119-5010  #150-6128
.STUCD	  007352 RG	#152-6180
.SVESP	  000224 RG	#35-1572    163-6636   166-6769
.SVKLF	  000226 RG	#35-1574   *47-2096    66-2774   *103-4383   119-4993   119-5002  *119-5022   146-6004  *146-6009
                        *148-6068  *163-6638
.SWPC 	= ******  GX	 174-7034
.SWPIP	  000230 RG	#35-1576    47-2100   *66-2763
.SYNXC	  007454 RG	 97-4157    115-4846   128-5308   128-5308  #153-6233   154-6277   154-6277
.TAKEC	= ******  GX	 174-7036
.TCRLF	  015536 RG	 58-2525    64-2699    64-2699    64-2704    64-2704    66-2790    66-2790    67-2809    67-2809
                         68-2859    68-2859    68-2864    68-2864    166-6750   166-6750   212-8235   212-8235   221-8588
                         221-8588   242-9422   242-9422   251-9799   253-9880  #254-9890
.TFCHR	  015470 RG	 163-6664   163-6664   220-8519   220-8519  #252-9839
.TPADD	  011502 RG	#201-7858   205-7996   205-7996   230-8987   236-9236   236-9236
.TPCLR	  011356 RG	 89-3898    89-3898   #198-7732   205-7978   205-7978   226-8792   226-8792   250-9750   250-9750
.TPCMP	  011424 RG	 197-7682   197-7682  #199-7784
.TPCOM	  011366 RG	#198-7739   198-7747   198-7747   235-9177   235-9177
.TPDEC	  011534 RG	 159-6503   159-6503  #202-7898   209-8119   209-8119
.TPDIV	  011144 RG	#196-7648   232-9055   250-9753   250-9753
.TPINC	  011522 RG	 197-7687   197-7687   198-7748  #202-7891   209-8130   209-8130
.TPMUL	  011572 RG	#205-7970   232-9059   236-9233   236-9233
.TPNEG	  011376 RG	#198-7746   235-9185   235-9185
.TPSHI	  011756 RG	 126-5230   126-5230   126-5237   126-5237   132-5473   132-5473   136-5640   136-5640   136-5645
PAROOT     CREATED BY  MACRO  ON 10-NOV-81 AT 17:46	PAGE 44

SYMBOL CROSS REFERENCE                                  CREF

SYMBOL	VALUE		REFERENCES

                         136-5645   138-5714   138-5714   155-6362   155-6362  #207-8048   209-8117   209-8117   209-8128
                         209-8128   227-8815   227-8815
.TPSHL	  012022 RG	#208-8099   232-9051
.TPSUB	  011546 RG	 197-7684   197-7684  #203-7929   230-8991
.TPTST	  011460 RG	 159-6495   159-6495   159-6504   159-6504   172-6913   172-6913   196-7653   196-7653  #200-7823
                         205-7972   205-7972   205-7975   205-7975   205-8003   205-8003   208-8105   208-8105   209-8120
                         209-8120   209-8131   209-8131   226-8802   226-8802   227-8824   227-8824   247-9648   247-9648
                         249-9728   249-9728
.TPXTN	  011404 RG	 196-7650   196-7650   196-7652   196-7652  #198-7751   208-8104   208-8104
.TRKWD	  000232 RG	#35-1579    94-4047    99-4223    99-4239    106-4486   108-4581   111-4683
.TRPEC	  000236 RG	#35-1584   *66-2769    66-2791
.TRPIP	  000240 RG	#35-1586   *64-2691   *66-2764   *66-2785    66-2793   *66-2798   *67-2813
.TRPPC	  000242 RG	#35-1588   *66-2767   *68-2854
.TRPPS	  000244 RG	#35-1590   *66-2768   *68-2855
.TRPSB	  000246 RG	#35-1592   *66-2766    66-2772    66-2780    66-2795
.TRPTV	  000250 RG	#35-1594    66-2782   *66-2786
.TRP4V	  000234 RG	#35-1582
.TSCAN	  010510 RG	 158-6484   158-6484  #165-6706
.TYACE	  014614 RG	#242-9397
.TYAC1	  014646 RG	#242-9406
.TYCHR	  015504 RG	 59-2539    59-2539    59-2552    59-2552    59-2555    59-2555    61-2593    61-2593    61-2597
                         61-2597    241-9359   241-9359   242-9412   242-9412   250-9766   251-9811   251-9811   252-9840
                         252-9840  #253-9875   254-9893   254-9893   254-9895   254-9895   257-10006  257-10006
.TYCOL	  014526 RG	#241-9330   242-9413   242-9413
.TYCOM	  014536 RG	 62-2636    62-2636   #241-9335
.TYELA	  014746 RG	#243-9467
.TYELN	  014752 RG	 64-2703    64-2703    68-2863    68-2863    214-8304   214-8304  #243-9469
.TYINI	  015722 RG	 163-6640   163-6640  #256-9961
.TYKLA	  015072 RG	 217-8399   217-8399   242-9417   242-9417  #245-9556
.TYKLN	  015142 RG	 212-8233   212-8233   217-8403   217-8403   242-9421   242-9421  #246-9596
.TYLIN	  015432 RG	 64-2701    64-2701    67-2808    67-2808    166-6754   166-6754   166-6763   166-6763   214-8310
                         214-8310   217-8411   217-8411  #251-9797
.TYMIN	  014546 RG	#241-9340
.TYMSF	  015440 RG	 163-6648   163-6648  #251-9801
.TYMSG	  015446 RG	 60-2577    60-2577    61-2591    61-2591    61-2595    61-2595    61-2600    62-2635    62-2635
                         62-2646    62-2646    68-2861    68-2861    77-3447    77-3447    163-6652   163-6652   166-6752
                         166-6752   212-8223   212-8223   214-8291   214-8291   214-8294   214-8294   217-8397   217-8397
                         242-9404   242-9404   251-9798   251-9798   251-9802   251-9802  #251-9805
.TYNCM	  015224 RG	 244-9523  #247-9640
.TYNUM	  015302 RG	 247-9653   247-9653  #249-9717   250-9745
.TYOBC	  000252 RG	#35-1596   *253-9879  *256-9964
.TYOBP	  000254 RG	#35-1598    253-9876  *253-9877  *256-9965
.TYOUT	  015564 RG	 221-8578   221-8578   252-9844   253-9883  #255-9928
.TYOU1	  015644 RG	 221-8587   221-8587  #255-9941
.TYP3D	  015016 RG	 60-2575    60-2575    212-8228   212-8228  #244-9508
.TYR50	  015756 RG	 61-2607    61-2607   #257-9993
.TYSLS	  014556 RG	 212-8231   212-8231   217-8400   217-8400  #241-9345   242-9418   242-9418
.TYSPC	  014566 RG	 61-2598    61-2598    62-2637    62-2637    166-6762   166-6762   212-8232   212-8232   214-8295
                         214-8295   217-8401   217-8401   217-8404   217-8404  #241-9350   242-9419   242-9419
.TYUPA	  014576 RG	 59-2549    59-2549   #241-9355
.T50TB	  001440 RG	#39-1707    257-9995
.UMRKC	= ******  GX	 174-7038
PAROOT     CREATED BY  MACRO  ON 10-NOV-81 AT 17:46	PAGE 45

SYMBOL CROSS REFERENCE                                  CREF

SYMBOL	VALUE		REFERENCES

.VFYFL	  000256 RG	#35-1600
.WHACB	= ******  GX	 191-7492
.WHATB	  006730 RG	#191-7491
.WHATC	= ******  GX	 174-7024   174-7042
.WHATV	= ******  GX	 191-7528
.WHCON	= ******  GX	 191-7498
.WHDAT	= ******  GX	 191-7500
.WHINC	= ******  GX	 191-7506
.WHKLN	= ******  GX	 191-7508
.WHMEM	= ******  GX	 191-7510
.WHOFS	= ******  GX	 191-7512
.WHOUT	= ******  GX	 191-7514
.WHRDW	= ******  GX	 191-7504
.WHREC	= ******  GX	 191-7502
.WHRLD	= ******  GX	 191-7518
.WHRPT	= ******  GX	 191-7520
.WHRTY	= ******  GX	 191-7522
.WHTAK	= ******  GX	 191-7494
.WHTCL	= ******  GX	 191-7496
.WHTPS	= ******  GX	 191-7516
.WHTRK	= ******  GX	 191-7525
.WRAR1	  007476 RG	#154-6276
.WRCRM	  007520 RG	#155-6342
.WRITB	  003030 RG	 81-3624    81-3624   #83-3692    84-3737    84-3737
.WRITE	  003160 RG	 82-3664    82-3664    83-3695    83-3695    84-3739    84-3739   #85-3764
.WRITR	  002616 RG	#81-3601    255-9953   255-9953
.WRITW	  002754 RG	 81-3620    81-3620   #82-3657    84-3733    84-3733
.WRITZ	  003060 RG	#84-3723    160-6561   160-6561
.WRMBX	= 071000	#87-3821
.WRTAR	  007472 RG	#154-6274
.ZEROC	= ******  GX	 174-7046
..DTSP	= ******  GX	 47-2094    47-2094
..SACK	= ******  GX	 160-6572   160-6572
PAROOT     CREATED BY  MACRO  ON 10-NOV-81 AT 17:46	PAGE 46

MACRO CROSS REFERENCE                                   CREF

MACRO NAME	REFERENCES

ALUN$ 		#68-2920   #70-3071
CALL  		#4-118     #47-2088   #47-2094   #48-2131   #51-2239   #53-2299   #56-2407   #58-2522   #59-2534   #59-2539
                #59-2545   #59-2549   #59-2552   #59-2555   #60-2570   #60-2575   #60-2577   #61-2591   #61-2593   #61-2595
                #61-2597   #61-2598   #61-2605   #61-2607   #62-2626   #62-2627   #62-2635   #62-2636   #62-2637   #62-2646
                #64-2699   #64-2701   #64-2703   #64-2704   #66-2770   #66-2776   #66-2790   #66-2792   #67-2808   #67-2809
                #67-2815   #68-2856   #68-2859   #68-2861   #68-2863   #68-2864   #68-2869   #71-3116   #71-3117   #74-3290
                #77-3430   #77-3436   #77-3445   #77-3447   #78-3490   #79-3523   #80-3572   #81-3620   #81-3624   #82-3664
                #83-3695   #84-3733   #84-3737   #84-3739   #85-3778   #88-3851   #88-3855   #89-3888   #89-3898   #90-3931
                #97-4139   #97-4144   #97-4146   #99-4216   #99-4225   #99-4232   #99-4241   #100-4271  #100-4274  #103-4380
                #103-4382  #104-4399  #104-4401  #104-4402  #104-4407  #104-4410  #104-4423  #104-4429  #104-4433  #106-4488
                #108-4583  #111-4685  #113-4764  #113-4767  #113-4770  #114-4819  #114-4824  #115-4832  #115-4843  #115-4856
                #115-4860  #115-4861  #116-4909  #116-4912  #117-4948  #117-4950  #119-4999  #119-5001  #119-5010  #119-5016
                #120-5057  #120-5059  #122-5089  #122-5092  #122-5098  #122-5101  #122-5106  #124-5163  #124-5169  #124-5175
                #124-5179  #124-5184  #126-5222  #126-5224  #126-5230  #126-5233  #126-5237  #126-5240  #127-5279  #127-5281
                #128-5290  #128-5291  #128-5293  #128-5298  #128-5305  #128-5308  #128-5310  #129-5341  #129-5349  #132-5471
                #132-5473  #134-5542  #134-5544  #134-5552  #134-5557  #134-5559  #134-5562  #134-5564  #135-5599  #135-5601
                #136-5638  #136-5640  #136-5645  #137-5678  #137-5682  #138-5711  #138-5714  #139-5746  #139-5755  #141-5803
                #141-5805  #141-5808  #141-5809  #141-5810  #141-5811  #141-5815  #141-5820  #142-5872  #143-5922  #143-5927
                #145-5965  #145-5966  #145-5969  #145-5971  #145-5975  #146-6006  #147-6035  #147-6039  #148-6069  #150-6133
                #152-6184  #152-6185  #152-6187  #152-6188  #152-6191  #153-6237  #154-6275  #154-6277  #154-6280  #155-6349
                #155-6357  #155-6362  #155-6365  #155-6366  #155-6368  #155-6370  #158-6484  #159-6493  #159-6495  #159-6503
                #159-6504  #159-6518  #160-6557  #160-6561  #160-6564  #160-6572  #162-6628  #163-6640  #163-6648  #163-6652
                #163-6664  #163-6666  #163-6669  #165-6707  #165-6708  #165-6718  #166-6748  #166-6750  #166-6752  #166-6754
                #166-6762  #166-6763  #172-6911  #172-6913  #172-6915  #172-6917  #196-7650  #196-7652  #196-7653  #197-7682
                #197-7684  #197-7687  #198-7747  #205-7972  #205-7975  #205-7978  #205-7996  #205-8003  #208-8104  #208-8105
                #209-8117  #209-8119  #209-8120  #209-8128  #209-8130  #209-8131  #212-8223  #212-8228  #212-8231  #212-8232
                #212-8233  #212-8235  #214-8291  #214-8294  #214-8295  #214-8304  #214-8310  #216-8371  #216-8376  #217-8397
                #217-8399  #217-8400  #217-8401  #217-8403  #217-8404  #217-8411  #220-8513  #220-8519  #221-8564  #221-8573
                #221-8578  #221-8587  #221-8588  #224-8722  #224-8723  #225-8751  #226-8789  #226-8792  #226-8793  #226-8795
                #226-8797  #226-8800  #226-8802  #227-8815  #227-8822  #227-8823  #227-8824  #228-8885  #228-8898  #228-8900
                #229-8974  #230-9001  #230-9004  #231-9034  #232-9069  #232-9072  #233-9112  #234-9140  #235-9171  #235-9176
                #235-9177  #235-9182  #235-9185  #235-9190  #236-9233  #236-9236  #241-9359  #242-9404  #242-9412  #242-9413
                #242-9417  #242-9418  #242-9419  #242-9421  #242-9422  #247-9648  #247-9653  #249-9728  #250-9750  #250-9753
                #250-9755  #251-9798  #251-9802  #251-9811  #252-9840  #254-9893  #254-9895  #255-9953  #257-9999  #257-10006
CALLR 		#4-127     #58-2525   #61-2600   #66-2787   #88-3857   #94-4049   #97-4157   #103-4384  #115-4846  #120-5061
                #142-5874  #156-6413  #159-6519  #222-8635  #256-9968
CLEF$S		#46-2049   #50-2203
COMND$		#5-181     #174-6978  #174-6980  #174-6982  #174-6984  #174-6986  #174-6988  #174-6990  #174-6992  #174-6994
                #174-6996  #174-6998  #174-7004  #174-7006  #174-7008  #174-7010  #174-7012  #174-7014  #174-7016  #174-7018
                #174-7020  #174-7022  #174-7024  #174-7026  #174-7029  #174-7032  #174-7034  #174-7036  #174-7038  #174-7040
                #174-7042  #174-7044  #174-7046  #175-7053  #175-7055  #175-7057  #175-7059  #175-7061  #176-7068  #176-7070
                #176-7072  #176-7074  #176-7076  #176-7078  #176-7080  #176-7082  #177-7089  #177-7091  #177-7093  #177-7095
                #177-7097  #178-7104  #178-7106  #178-7108  #178-7110  #178-7112  #178-7114  #178-7116  #178-7118  #178-7120
                #178-7122  #178-7125  #178-7127  #178-7129  #178-7131  #178-7133  #178-7135  #178-7137  #178-7139  #178-7141
                #178-7143  #178-7145  #178-7147  #178-7149  #178-7151  #178-7153  #178-7155  #178-7157  #178-7159  #178-7161
                #178-7163  #178-7165  #179-7172  #179-7174  #179-7176  #179-7181  #179-7183  #180-7191  #180-7193  #180-7195
                #180-7197  #180-7199  #180-7201  #180-7203  #180-7205  #180-7207  #180-7209  #180-7211  #180-7213  #182-7321
                #182-7323  #182-7325  #182-7327  #182-7329  #182-7331  #182-7333  #182-7335  #183-7342  #183-7344  #183-7346
                #183-7348  #183-7350  #183-7352  #183-7354  #183-7356  #183-7358  #183-7360  #183-7362  #184-7369  #184-7371
                #185-7378  #185-7380  #185-7382  #185-7384  #186-7391  #186-7393  #186-7395  #187-7402  #187-7404  #187-7406
                #187-7408  #187-7410  #187-7412  #187-7414  #188-7421  #188-7423  #188-7425  #188-7427  #188-7429  #188-7431
                #188-7433  #188-7435  #188-7437  #188-7439  #188-7441  #188-7443  #188-7445  #188-7447  #188-7449  #188-7451
PAROOT     CREATED BY  MACRO  ON 10-NOV-81 AT 17:46	PAGE 47

MACRO CROSS REFERENCE                                   CREF

MACRO NAME	REFERENCES

                #188-7453  #188-7456  #190-7483  #190-7485  #191-7492  #191-7494  #191-7496  #191-7498  #191-7500  #191-7502
                #191-7504  #191-7506  #191-7508  #191-7510  #191-7512  #191-7514  #191-7516  #191-7518  #191-7520  #191-7522
                #191-7525  #191-7528
DIR$  		#50-2203    50-2203   #68-2920    70-3049    70-3053    71-3120    72-3169    72-3173    72-3178    73-3226
                 74-3274    75-3334   #80-3558    80-3558   #85-3767    85-3767   #87-3819    90-3926    94-4042    100-4262
                 106-4473   108-4569   110-4645  #149-6098   149-6098  #157-6449  #160-6565   160-6565  #160-6574   160-6574
                #221-8553   221-8580  #255-9924   255-9931   255-9933   255-9937   255-9944
ERCON$		#5-172
ERROR$		#5-157      47-2104    49-2175    49-2178    51-2246    54-2352    56-2414    70-3063    70-3065    71-3133
                 72-3181    73-3231    74-3291    75-3344    80-3573    85-3782    88-3860    94-4058    97-4160    101-4298
                 101-4302   101-4305   101-4308   104-4438   106-4493   108-4590   111-4691   115-4869   117-4963   134-5569
                 152-6204   152-6207   155-6374   159-6522   167-6775   167-6778   167-6781   172-6921   197-7703   222-8638
                 222-8641   225-8758   227-8843   228-8920   234-9153   235-9193   237-9255   237-9258
ERR$  		#50-2203   #70-3049   #70-3053   #71-3120   #72-3169   #72-3173   #72-3178   #73-3226   #74-3274   #75-3334
                #80-3558   #85-3767   #90-3926   #94-4042   #100-4262  #106-4473  #108-4569  #110-4645  #149-6098  #160-6565
                #160-6574  #221-8580  #255-9931  #255-9933  #255-9937  #255-9944
EXCH$ 		#6-223
EXIT$S		#157-6449  #160-6574
FATAL$		#5-164
IKL$  		#8-251
IOKL$ 		#8-279
KLDR$ 		#87-3819    106-4513
KLDW$ 		#87-3819   #108-4610
KLDX$ 		#87-3819    111-4712
MOV$  		#50-2203    50-2203   #80-3558   #80-3558    80-3558    80-3558    80-3558    80-3558    80-3558    80-3558
                 80-3558    80-3558    80-3558   #85-3767   #85-3767    85-3767    85-3767    85-3767    85-3767    85-3767
                 85-3767    85-3767    85-3767    85-3767   #149-6098   149-6098  #160-6565  #160-6565   160-6565   160-6565
                 160-6565   160-6565
MRKT$ 		#87-3819    91-3955
MVB$  		#80-3558   #80-3558   #85-3767   #85-3767   #160-6565  #160-6565
NBL$  		#70-3071    70-3071
NSERR$		#6-201      181-7221   181-7223   181-7225   181-7226   181-7227   181-7228   181-7229   181-7230   181-7231
                 181-7232   181-7233   181-7234   181-7239   181-7240   181-7241   181-7242   181-7243   181-7244   181-7245
                 181-7246   181-7247   181-7249   181-7250   181-7251   181-7252   181-7253   181-7254   181-7256   181-7257
                 181-7258   181-7259   181-7260   181-7261   181-7262   181-7263   181-7265   181-7266   181-7267   181-7268
                 181-7269   181-7270   181-7271   181-7272   181-7274   181-7275   181-7276   181-7277   181-7278   181-7280
                 181-7281   181-7283   181-7284   181-7285   181-7286   181-7287   181-7288   181-7289   181-7291   181-7292
                 181-7294   181-7296   181-7298   181-7299   181-7300   181-7301   181-7303   181-7304   181-7306   181-7308
                 181-7310   181-7312   181-7314
OFF$  		#70-3071    70-3071    70-3071    70-3071    70-3071   #70-3076    70-3076    70-3076    70-3076    70-3076
                 70-3076    70-3076    70-3076    70-3076   #71-3139    71-3139    71-3139    71-3139    71-3139    71-3139
                 71-3139    71-3139    71-3139   #72-3187    72-3187    72-3187    72-3187    72-3187    72-3187    72-3187
                 72-3187    72-3187   #72-3190    72-3190    72-3190    72-3190    72-3190    72-3190    72-3190    72-3190
                 72-3190   #72-3193    72-3193    72-3193    72-3193    72-3193    72-3193    72-3193    72-3193    72-3193
                #73-3237    73-3237    73-3237    73-3237    73-3237    73-3237    73-3237    73-3237    73-3237   #74-3297
                 74-3297    74-3297    74-3297    74-3297    74-3297    74-3297    74-3297    74-3297   #75-3350    75-3350
                 75-3350    75-3350    75-3350    75-3350    75-3350    75-3350    75-3350   #91-3955    91-3955    91-3955
                 91-3955    91-3955    91-3955   #222-8648   222-8648   222-8648   222-8648   222-8648   222-8648   222-8648
                 222-8648   222-8648  #258-10042  258-10042  258-10042  258-10042  258-10042  258-10042  258-10042  258-10042
                 258-10042 #258-10051  258-10051  258-10051  258-10051  258-10051  258-10051  258-10051  258-10051  258-10051
                #258-10060  258-10060  258-10060  258-10060  258-10060  258-10060  258-10060  258-10060  258-10060 #258-10065
                 258-10065  258-10065  258-10065  258-10065  258-10065  258-10065  258-10065  258-10065
PAROOT     CREATED BY  MACRO  ON 10-NOV-81 AT 17:46	PAGE 48

MACRO CROSS REFERENCE                                   CREF

MACRO NAME	REFERENCES

PARVR$		#34-1442    39-1716    39-1716
POP   		#4-133     #51-2242   #54-2346   #58-2524   #60-2571   #61-2606   #67-2814   #68-2854   #68-2855   #68-2868
                #76-3399   #77-3440   #81-3611   #81-3626   #90-3933   #97-4156   #99-4244   #103-4381  #103-4383  #108-4586
                #111-4688  #113-4779  #115-4845  #117-4960  #119-5021  #122-5107  #126-5242  #128-5313  #130-5383  #132-5476
                #134-5566  #136-5648  #137-5683  #141-5822  #145-5977  #147-6040  #150-6134  #152-6201  #154-6282  #155-6371
                #162-6632  #165-6741  #165-6743  #194-7606  #197-7688  #197-7691  #197-7699  #205-8005  #206-8016  #206-8017
                #206-8018  #206-8020  #207-8070  #209-8134  #209-8135  #212-8237  #214-8311  #217-8412  #222-8609  #227-8829
                #227-8837  #228-8916  #230-9003  #232-9071  #234-9134  #234-9142  #235-9172  #236-9239  #237-9249  #241-9360
                #242-9405  #242-9423  #247-9655  #250-9751  #250-9758  #251-9815  #254-9896  #255-9954  #257-10007 #257-10011
PRDP$ 		#87-3819   #102-4328
PREX$ 		#87-3819   #102-4346
PUSH  		#4-139      47-2104    49-2175    49-2178    51-2238    51-2246    54-2329    54-2334    54-2338    54-2352
                 56-2414    58-2498    60-2560    60-2564    60-2568    61-2603    62-2628    64-2693    66-2771    68-2857
                 70-3063    70-3065    71-3133    72-3181    73-3231    74-3291    75-3344    76-3388    77-3429    80-3573
                 81-3602    81-3613    85-3782    88-3860    89-3890    89-3895    90-3928    94-4058    97-4138    97-4160
                 99-4214    99-4230    101-4298   101-4302   101-4305   101-4308   103-4374   103-4379   103-4389   104-4398
                 104-4438   106-4493   108-4572   108-4590   111-4691   113-4757   114-4818   115-4869   116-4908   117-4946
                 117-4963   119-4992   122-5091   126-5221   127-5277   129-5342   132-5468   134-5539   134-5569   136-5635
                 136-5641   137-5676   141-5802   143-5920   145-5964   145-5967   145-5968   147-6037   149-6100   150-6130
                 152-6183   152-6204   152-6207   153-6235   154-6278   155-6345   155-6374   158-6476   158-6478   158-6479
                 159-6522   162-6625   165-6711   165-6712   165-6714   167-6775   167-6778   167-6781   172-6921   194-7593
                 196-7649   197-7685   197-7703   205-7971   205-7983   205-8001   207-8049   208-8100   208-8102   211-8196
                 211-8197   211-8198   211-8203   211-8204   211-8205   211-8210   211-8211   214-8289   217-8385   220-8512
                 221-8556   222-8638   222-8641   225-8758   226-8788   227-8821   227-8843   228-8877   228-8920   230-8998
                 230-8999   232-9066   232-9067   234-9126   234-9145   234-9153   235-9193   236-9220   236-9223   236-9234
                 237-9255   237-9258   241-9331   241-9336   241-9341   241-9346   241-9351   241-9356   242-9398   242-9406
                 243-9470   244-9509   244-9521   245-9558   246-9597   246-9608   246-9610   250-9743   250-9744   250-9748
                 250-9754   251-9806   254-9891   255-9950   257-9994   257-10000
QDPB$ 		#70-3076   #70-3076   #71-3139   #71-3139   #72-3187   #72-3187   #72-3190   #72-3190   #72-3193   #72-3193
                #73-3237   #73-3237   #74-3297   #74-3297   #75-3350   #75-3350   #222-8648  #222-8648  #258-10042 #258-10042
                #258-10051 #258-10051 #258-10060 #258-10060 #258-10065 #258-10065
QDPB$S		#80-3558   #80-3558   #85-3767   #85-3767   #160-6565  #160-6565
QIOW$ 		#68-2920    70-3076    71-3139    72-3187    72-3190    72-3193    73-3237    74-3297    75-3350   #221-8553
                 222-8648  #255-9924   258-10042  258-10051  258-10060  258-10065
QIOW$S		#68-2920    80-3558    85-3767   #157-6449   160-6565
RETURN		#4-147      47-2092    47-2103    48-2144    49-2173    50-2206    51-2236    52-2275    53-2302    54-2347
                 55-2382    56-2412    70-3060    71-3124    71-3128    72-3177    73-3228    74-3280    75-3338    76-3400
                 77-3441    78-3495    79-3528    80-3564    80-3566    81-3612    82-3668    83-3699    84-3740    85-3775
                 90-3934    94-4053    99-4245    100-4265   100-4273   104-4436   106-4491   108-4587   111-4689   113-4780
                 117-4961   119-5023   122-5108   124-5187   126-5243   128-5314   130-5384   132-5477   134-5567   135-5603
                 136-5651   137-5684   138-5717   139-5768   141-5824   145-5978   146-6010   147-6041   148-6071   150-6135
                 152-6202   154-6283   155-6372   159-6516   162-6633   165-6744   169-6847   172-6919   194-7608   203-7941
                 206-8021   207-8071   209-8136   212-8238   214-8312   217-8413   220-8523   222-8611   223-8692   224-8726
                 225-8756   227-8838   228-8917   229-8980   231-9044   233-9119   237-9253   241-9361   242-9424   247-9656
                 250-9769   251-9816   254-9898   256-9966   257-10012
RVP$  		#80-3558    80-3558   #85-3767    85-3767   #160-6565   160-6565
SPERR$		#6-211     #189-7464  #189-7466  #189-7468  #189-7469  #189-7470  #189-7472  #189-7473  #189-7474  #189-7476
WTSE$S		#87-3819    149-6098
$DEF  		#87-3819    87-3821
.ENB6 		#157-6449  #160-6573
.INH6 		#157-6449  #160-6568
ABRTC -- ABORT COMMAND MODULE 7	MACRO M1113  10-NOV-81 17:48
TABLE OF CONTENTS

    34- 1441	.ABRTC -- THE "ABORT" COMMAND 7602.23
    35- 1465	.ABORT -- ABORT CURRENT OPERATION SUBROUTINE 7707.12
    38- 1558	.CONTC -- THE "CONTINUE" COMMAND 7611.17
    40- 1643	.DPOSC -- THE "DEPOSIT" COMMAND DISPATCH 7602.23
    41- 1681	.DPOSD -- THE "DEPOSIT <NUMERICAL OBJECT>" COMMAND DISPATCH 7602.29
    42- 1744	.EXAMC -- THE "EXAMINE" COMMAND DISPATCH 7602.16
    43- 1784	.EXAMD -- THE "EXAMINE <NUMERICAL OBJECT>" COMMAND DISPATCH 7602.29
    44- 1847	.DPOBJ -- THE "DEPOSIT <OBJECT>" COMMAND DISPATCH 7602.29
    45- 1885	.EXOBJ -- THE "EXAMINE <OBJECT>" COMMAND DISPATCH 7602.16
    46- 1923	.EDEWD -- THE EXAMINE / DEPOSIT "<ELEVEN> <NUMERICAL OBJECT>" COMMAND 7602.29
    47- 1936	.EDKLD -- THE EXAMINE / DEPOSIT "<TEN> <NUMERICAL OBJECT>" COMMAND 7609.10
    49- 2015	.DFCOM -- COMMON DIAGNOSTIC FUNCTION ROUTINE 7603.30
    50- 2066	.DFRED -- DIAGNOSTIC FUNCTION READ 7602.15
    51- 2151	.DFWRT -- DIAGNOSTIC FUNCTION WRITE 7608.20
    52- 2191	.DFXCT -- DIAGNOSTIC FUNCTION EXECUTE 7602.15
    53- 2224	.XFXCK -- SUBROUTINES TO RANGE CHECK DIAG FUNCTIONS 7509.26
    56- 2315	.DISCC -- THE "DISCONNECT" COMMAND 7702.28
    57- 2386	.DPOSE -- THE "DEPOSIT <ELEVEN>" COMMAND 7602.29
    59- 2456	.DPEWD -- THE "DEPOSIT <ELEVEN> <NUMERICAL OBJECT>" COMMAND 7602.29
    60- 2495	.EXAME -- THE "EXAMINE <ELEVEN>" COMMAND 7602.29
    62- 2588	.EXEWD -- THE "EXAMINE <ELEVEN> <NUMERICAL OBJECT>" COMMAND 7602.29
    65- 2649	.DEPAR -- THE "DEPOSIT AR" COMMAND 7603.21
    66- 2690	.DPOST -- THE "DEPOSIT <TEN>" COMMAND 7602.15
    69- 2804	.DPKLD -- THE "DEPOSIT <TEN> <NUMERICAL OBJECT>" COMMAND 7602.29
    70- 2842	.EXAMT -- THE "EXAMINE <TEN>" COMMAND 7602.05
    72- 2962	.EXKLD -- THE "DEPOSIT <TEN> <NUMERICAL OBJECT>" COMMAND 7609.10
    73- 2989	.RDAPR -- SUBROUTINE TO READ THE STATE OF THE KL APR 7509.24
    76- 3068	.EXCTC -- THE "XCT" (EXECUTE) COMMAND 7602.17
    78- 3143	.EXDTE -- THE "EXAMINE DTE-20" COMMAND 7603.20
    79- 3171	TYPDTE -- TYPE OUT DTE REGISTERS SYMBOLICALLY
    80- 3280	STATYP -- SYMBOLIC STATUS REGISTER TYPE OUT
    81- 3338	TYPDX1 -- SYMBOLIC DEXWD1-DEXWD3 TYPE OUT
    82- 3363	TYPAD2 -- SYMBOLIC TENAD1-TENAD2 TYPE OUT
    83- 3441	TYPDG1 -- SYMBOLIC DIAG1 TYPE OUT
    84- 3485	TYPDG3 -- SYMBOLIC DIAG3 TYPE OUT
    87- 3536	.EXAD  -- KL DATA PATH BOARD EXAMINES 7602.16
    88- 3577	.EXVAB -- KL PC BOARD AND SMALL REGISTER EXAMINES 7602.16
    90- 3622	.EXAMF -- THE "EXAMINE FLAGS" COMMAND 7602.23
    92- 3683	.EXAMK -- THE "EXAMINE KL" COMMAND 7602.23
    93- 3723	.EXCRA -- SMALL REGISTER EXAMINES 7609.10
    96- 3775	.EXMPI -- THE "EXAMINE PI" COMMAND 7602.23
    98- 3846	.EXREG -- THE "EXAMINE REGISTERS" COMMAND 7602.16
    99- 3863	.RDDPB -- SUBROUTINES TO READ THE KL DATA PATH BOARDS 7509.23
   101- 3935	.RDFLG -- SUBROUTINE TO READ THE KL PC FLAGS 7511.24
   103- 4002	.RDPI  -- SUBROUTINE TO READ THE PI BOARDS 7510.16
   105- 4066	.RDSMR -- SUBROUTINE TO READ SMALL KL REGISTERS 7511.05
   108- 4199	.RDVXX -- KL VMA BOARD READ SUBROUTINES 7510.21
   110- 4336	.GTDAT -- SUBROUTINE TO INPUT THE CURRENT DATE 7702.15
   112- 4491	.GTTIM -- SUBROUTINE TO INPUT A TIME VALUE 7702.15
   113- 4602	.TYDAT -- SUBROUTINE TO TYPE A DATE 7702.16
   114- 4665	.TYTIM -- TIME OUTPUT SUBROUTINE 7702.16
   116- 4750	.HALTC -- THE "HALT" COMMAND 7710.11
   118- 4813	.INITC -- THE "INITIALIZE" COMMAND 7602.16
   119- 4839	.INIT  -- INITIALIZATION SUBROUTINE 7509.26
   120- 4881	.INKLF -- SUBROUTINE TO SET UP KL STATE WORD 7601.09
   123- 4994	.INICP -- INITIALIZE THE COMMAND PARSER 7601.21
   128- 5127	.KLE -- ROUTINE TO RETURN DEFAULT KLERR COMMANDS
KLEDEF -- KLERR SNAPSHOT DEFAUL	MACRO M1113  10-NOV-81 17:48
TABLE OF CONTENTS

   129- 5231	.SNAP -- ROUTINE TO MANUALLY PERFORM A SNAPSHOT
   132- 5301	.MARKC -- THE "MARK/UNMARK-MICROCODE" COMMAND 7910.19
   135- 5401	.RESTC -- THE "RESET" COMMAND DISPATCH 7710.11
   136- 5441	.RSALL -- THE "RESET ALL" COMMAND 7602.18
   137- 5467	.RSTPI -- THE "RESET PI" COMMAND 7607.21
   138- 5504	.RSPAG -- THE "RESET PAG" COMMAND 7607.21
   141- 5589	.RUNCM -- THE "RUN" AND "MCR" COMMANDS 7607.14
   144- 5670	.TAKEC -- THE "TAKE" COMMAND
   145- 5733	.GTR50 -- GET A .RAD50 WORD 7602.18
   147- 5788	.QUITC -- THE "QUIT" COMMAND 7602.16
   150- 5851	.SCACB -- SET AC-BLOCK COMMAND
   151- 5890	.SACBK -- SET AC BLOCK ROUTINE
   152- 5961	.WHACB -- WHAT AC BLOCK COMMAND
   153- 5991	.SWPC -- SWEEP AC BLOCK COMMAND
   154- 6081	.SWPAC -- SWEEP ALL AC BLOCKS FOR FM PARITY ERROR
   155- 6170	.RSSWP -- RESET PARITY STOPS FOR FM SWEEP
   158- 6252	.SCOUT -- SET/CLEAR OUTPUT COMMAND
   159- 6303	.SCOTL -- SET/CLEAR OUTPUT LOG COMMAND
   160- 6416	.SCOTP -- SET/CLEAR OUTPUT LPT COMMAND
   161- 6457	.SCOTY -- SET/CLEAR OUTPUT TTY COMMAND
   162- 6487	.SCOTC -- SET/CLEAR OUTPUT CHECK ROUTINE
   163- 6517	.WHOUT -- WHAT OUTPUT COMMAND
   167- 6628	.SETCM -- THE "SET" AND "CLEAR" COMMAND DISPATCHES 7602.19
   168- 6675	.WHATC -- THE "WHAT" COMMAND DISPATCH 7607.14
   169- 6704	.SCNOT -- THE "SET / CLEAR NOT" COMMAND 7602.19
   171- 6744	.SHUTC -- THE "SHUTDOWN" COMMAND 7707.12
   173- 6818	.STRTC -- THE "START" COMMAND 7602.26
   174- 6847	.STRTT -- THE "START <TEN>" COMMAND 7710.11
   176- 6910	.STRTU -- THE "START MICROCODE" COMMAND 7602.26
   178- 6988	.SCCON -- THE " SET / CLEAR CONSOLE" COMMAND 7702.16
   179- 7033	.WHCON -- THE "WHAT CONSOLE" COMMAND 7607.14
   180- 7057	.SCINC -- THE "SET / CLEAR INCREMENT" COMMAND 7606.20
   181- 7082	.WHINC -- THE "WHAT INCREMENT" COMMAND 7703.25
   182- 7115	.SCMEM -- THE "SET / CLEAR MEMORY" COMMAND 7607.08
   183- 7142	.WHMEM -- THE "WHAT MEMORY" COMMAND 7603.21
   184- 7162	.SCOFS -- THE "SET / CLEAR OFFSET" COMMAND 7602.19
   185- 7175	.WHOFS -- THE "WHAT OFFSET" COMMAND 7603.20
   186- 7191	.SCRLD -- THE "SET / CLEAR RELOAD" COMMAND 7602.19
   187- 7199	.SCRTY -- THE "SET / CLEAR RETRY" COMMAND 7-DEC-78
   188- 7211	.WHRLD -- THE "WHAT RELOAD" COMMAND 7603.21
   189- 7224	.WHRTY -- THE "WHAT RETRY" COMMAND 7-DEC-78
   190- 7248	.SCRPT -- THE "SET / CLEAR REPEAT" COMMAND 7703.25
   191- 7270	.SCTRK -- THE "SET / CLEAR TRACK" COMMAND 7602.19
   192- 7283	.WHTRK -- THE "WHAT TRACKS" COMMAND 7603.20
   193- 7298	.WHATV -- THE "WHAT VERSION" COMMAND 7607.21
   194- 7325	.WHRDW -- DISPLAY KL10 HARDWARE ENVIRONMENT 7910.18
   195- 7423	.SFREC -- SET/CLEAR FAULT COMMAND
   196- 7433	WHAT FAULT CONTINUATION COMMAND
   197- 7455	.SCTAK -- THE "SET/CLEAR AUTO-TAKE" COMMAND
   198- 7469	.WHTAK -- THE "WHAT AUTO-TAKE" COMMAND
   199- 7525	.SCCLK -- THE "SET / CLEAR CLOCK" COMMAND DISPATCH 7608.19
   202- 7647	.SCCRF -- SET / CLEAR "CLOCK <OBJECT>" 7603.09
   204- 7736	.SCPAR -- SET / CLEAR PARITY-STOP "<OBJECT>" 7603.08
   205- 7778	.WHTCL -- THE "WHAT CLOCK" COMMAND 7608.17
   208- 7868	.WHTPS -- THE "WHAT PARITY-STOP" COMMAND 7608.19
   211- 7942	.YESNO -- SUBROUTINE TO ASK "YES OR NO" 7603.22
   214- 8041	.SCDAT -- "SET DATE" COMMAND 7703.04
SWDAT -- SET/CLEAR/WHAT "DATE" 	MACRO M1113  10-NOV-81 17:48
TABLE OF CONTENTS

   216- 8177	.WHDAT -- THE "WHAT" DATE COMMAND 7703.03
   220- 8312	.SCKLN -- THE "SET / CLEAR KLINIK" COMMAND 7709.20
   223- 8599	.WHKLN -- THE "WHAT KLINIK" COMMAND 7702.16
   227- 8752	.ZEROC -- THE "ZERO" COMMAND 7609.15
ABRTC -- ABORT COMMAND MODULE 7	MACRO M1113  10-NOV-81 17:48  PAGE 33
COPYRIGHT PAGE

   1409					.TITLE	ABRTC -- ABORT COMMAND MODULE 7602.23
   1410
   1411						.IDENT	"005000"
   1412					;
   1413					;                             COPYRIGHT (C) 1975, 1979 BY
   1414					;                     DIGITAL EQUIPMENT CORPORATION, MAYNARD MASS.
   1415					;
   1416					;       THIS SOFTWARE IS FURNISHED UNDER A LICENSE AND MAY BE  USED  AND  COPIED
   1417					;       ONLY IN ACCORDANCE WITH THE TERMS OF SUCH LICENSE AND WITH THE INCLUSION
   1418					;       OF THE ABOVE COPYRIGHT NOTICE.  THIS SOFTWARE OR ANY OTHER COPIES THERE-
   1419					;       OF  MAY NOT BE PROVIDED OR OTHERWISE MADE AVAILABLE TO ANY OTHER PERSON.
   1420					;       NO TITLE TO OR OWNERSHIP OF THE SOFTWARE IS HEREBY TRANSFERRED.
   1421					;
   1422					;       THE INFORMATION CONTAINED IN THIS SOFTWARE IS SUBJECT TO CHANGE  WITHOUT
   1423					;       NOTICE  AND SHOULD NOT BE CONSTRUED AS A COMMITMENT BY DIGITAL EQUIPMENT
   1424					;       CORPORATION.
   1425					;
   1426					;       DIGITAL ASSUMES NO RESPONSIBILITY FOR THE  USE  OR  RELIABILITY  OF  ITS
   1427					;       SOFTWARE ON EQUIPMENT WHICH IS NOT SUPPILED BY DIGITAL.
   1428					;
   1429					;		MODULE: ABORT COMMAND
   1430					;
   1431					;		VERSION: 05-00
   1432					;
   1433					;		AUTHOR: R. BELANGER
   1434					;
   1435					;		DATE: 7602.23
   1436					;
   1437					;	THIS MODULE CONTAINS:
   1438					;
   1439					;	1) ABORT COMMAND CODE
ABRTC -- ABORT COMMAND MODULE 7	MACRO M1113  10-NOV-81 17:48  PAGE 34
.ABRTC -- THE "ABORT" COMMAND 7602.23

   1441					.SBTTL	.ABRTC -- THE "ABORT" COMMAND 7602.23
   1442
   1443					;+
   1444					; .ABRTC -- THE "ABORT" COMMAND
   1445					;
   1446					; THIS ROUTINE CALLS THE ABORT SUBROUTINE ".ABORT", Q.V.
   1447					;
   1448					; INPUT ARGUMENTS:
   1449					;
   1450					;	NONE.
   1451					;
   1452					; OUTPUT ARGUMENTS:
   1453					;
   1454					;	NONE.
   1455					;
   1456					; ERROR CODES RETURNED:
   1457					;
   1458					;	NONE.
   1459					;-
   1460
   1461	000000				.ABRTC::
   1462	000000					CALL	.CKEOC		; MUST HAVE E-O-C
	000000	004737 	000000G			 JSR	PC,.CKEOC
   1463					;	CALLR	.ABORT		; ABORT CURRENT KL OPERATION AND EXIT
ABRTC -- ABORT COMMAND MODULE 7	MACRO M1113  10-NOV-81 17:48  PAGE 35
.ABORT -- ABORT CURRENT OPERATION SUBROUTINE 7707.12

   1465					.SBTTL	.ABORT -- ABORT CURRENT OPERATION SUBROUTINE 7707.12
   1466
   1467					;+
   1468					; .ABORT -- SUBROUTINE TO ABORT THE CURRENT KL PROCESS
   1469					;
   1470					; THIS SUBROUTINE ABORTS THE CURRENT KL PROCESS AND RETURNS WITH
   1471					; THE KL CLOCK RUNNING IN THE HALT LOOP. IF THE "HALT" FAILS, THE
   1472					; KL MICROCODE IS RESTARTED. THE CONTINUEABILITY OF THE KL IS
   1473					; INDICATED BY THE STATE OF THE "KF.CON" FLAG BIT (Q.V.) IN ".KLFLG".
   1474					;
   1475					; SEQUENCE OF OPERATION:
   1476					;
   1477					;	(A) THE KL IS HALTED,
   1478					;	(B) IF THE HALT WINS GO TO (E), OTHERWISE GO TO (C),
   1479					;	(C) THE MICRO CODE IS RESTARTED AT CRAM ADDRESS 0000,
   1480					;	(D) SECONDARY PROTOCOL IS STARTED
   1481					;	(E) EXIT.
   1482					;
   1483					; INPUT ARGUMENTS:
   1484					;
   1485					;	NONE.
   1486					;
   1487					; OUTPUT ARGUMENTS:
   1488					;
   1489					;	NONE.
   1490					;
   1491					; ERROR CODES RETURNED:
   1492					;
   1493					;	CFH -- CAN'T FIND KL HALT LOOP.
   1494					;	FRF -- FUNCTION READ FAILED.
   1495					;	FWF -- FUNCTION WRITE FAILED.
   1496					;	FXF -- FUNCTION EXECUTE FAILED.
   1497					;	UNL -- UCODE NOT LOADED.
   1498					;
   1499					; NOTE:
   1500					;
   1501					;	THE CONTINUEABILITY OF THE KL IS NOT GUARANTEED BY THIS
   1502					;	SUBROUTINE.
   1503					;-
ABRTC -- ABORT COMMAND MODULE 7	MACRO M1113  10-NOV-81 17:48  PAGE 36
.ABORT -- ABORT CURRENT OPERATION SUBROUTINE 7707.12

   1505						.ENABL	LSB
   1506
   1507	000004				.ABORT::
   1508	000004					PUSH	R0		; SAVE R0 ON THE STACK
	000004	010046 				 MOV	R0,-(SP)
   1509	000006					PUSH	#.ABRT0		; .IN CASE ".KLSTP" TRAPS
	000006	012746 	000032'			 MOV	#.ABRT0,-(SP)
   1510	000012	010637 	000000G			MOV	SP,.TRPTV	; ..STACK POINTER FOR RETURN
   1511	000016					CALL	.KLSTP		; ..HALT THE KL
	000016	004737 	000000G			 JSR	PC,.KLSTP
   1512	000022	005726 				TST	(SP)+		; ..CLEAR RETURN
   1513	000024	005037 	000000G			CLR	.TRPTV		; .AND TRAP VECTOR
   1514	000030	000410 				BR	10$		; .AND EXIT
   1515						;
   1516	000032				.ABRT0::			; .GET HERE IF ".KLSTP" TRAPPED
   1517	000032	005000 				CLR	R0		; .CLEAR R0 (STACK POPPED BY ".PTTRP")
   1518	000034					CALL	.STUCD		; .(RE)START THE UCODE
	000034	004737 	000000G			 JSR	PC,.STUCD
   1519	000040	052737 	000000G	000002G		BIS	#EF.CRI,.COMEF+2 ; .DECLARE THE COMM REGION INVALID
   1520	000046					CALL	..DTP2		; .START SECONDARY PROTOCOL
	000046	004737 	000000G			 JSR	PC,..DTP2
   1521	000052				10$:
   1522	000052					POP	R0		; .RESTORE R0
	000052	012600 				 MOV	(SP)+,R0
   1523	000054					RETURN			; TO CALLER
	000054	000207 				 RTS	PC
   1524
   1525						.DSABL	LSB
CONTC -- CONTINUE COMMAND MODUL	MACRO M1113  10-NOV-81 17:48  PAGE 37
.ABORT -- ABORT CURRENT OPERATION SUBROUTINE 7707.12

   1527					.TITLE	CONTC -- CONTINUE COMMAND MODULE 7611.17
   1528
   1529						.IDENT	"005000"
   1530
   1531					;
   1532					;                             COPYRIGHT (C) 1975, 1979 BY
   1533					;                     DIGITAL EQUIPMENT CORPORATION, MAYNARD MASS.
   1534					;
   1535					;       THIS SOFTWARE IS FURNISHED UNDER A LICENSE AND MAY BE  USED  AND  COPIED
   1536					;       ONLY IN ACCORDANCE WITH THE TERMS OF SUCH LICENSE AND WITH THE INCLUSION
   1537					;       OF THE ABOVE COPYRIGHT NOTICE.  THIS SOFTWARE OR ANY OTHER COPIES THERE-
   1538					;       OF  MAY NOT BE PROVIDED OR OTHERWISE MADE AVAILABLE TO ANY OTHER PERSON.
   1539					;       NO TITLE TO OR OWNERSHIP OF THE SOFTWARE IS HEREBY TRANSFERRED.
   1540					;
   1541					;       THE INFORMATION CONTAINED IN THIS SOFTWARE IS SUBJECT TO CHANGE  WITHOUT
   1542					;       NOTICE  AND SHOULD NOT BE CONSTRUED AS A COMMITMENT BY DIGITAL EQUIPMENT
   1543					;       CORPORATION.
   1544					;
   1545					;       DIGITAL ASSUMES NO RESPONSIBILITY FOR THE  USE  OR  RELIABILITY  OF  ITS
   1546					;       SOFTWARE ON EQUIPMENT WHICH IS NOT SUPPILED BY DIGITAL.
   1547					;
   1548					;		VERSION: 05-00
   1549					;
   1550					;		AUTHOR: R. BELANGER
   1551					;
   1552					;		DATE: 7611.17
   1553					;
   1554					;	THIS MODULE CONTAINS:
   1555					;
   1556					;	1) CONTINUE COMMAND CODE
CONTC -- CONTINUE COMMAND MODUL	MACRO M1113  10-NOV-81 17:48  PAGE 38
.CONTC -- THE "CONTINUE" COMMAND 7611.17

   1558					.SBTTL	.CONTC -- THE "CONTINUE" COMMAND 7611.17
   1559
   1560					;+
   1561					; .CONTC -- THE "CONTINUE" COMMAND
   1562					;
   1563					; THIS ROUTINE EXECUTES THE "CONTINUE" CONSOLE FUNCTION
   1564					;
   1565					; INPUT ARGUMENTS:
   1566					;
   1567					;	NONE.
   1568					;
   1569					; OUTPUT ARGUMENTS:
   1570					;
   1571					;	NONE.
   1572					;
   1573					; ERROR CORES RETURNED:
   1574					;
   1575					;	KNC -- KL IS NOT CONTINUABLE
   1576					;-
   1577
   1578	000056				.CONTC::
   1579	000056					CALL	.CKEOC		; CHECK E-O-C
	000056	004737 	000000G			 JSR	PC,.CKEOC
   1580	000062					PUSH	.KLFLG		; SAVE ".KLFLG" ON THE STACK
	000062	013746 	000000G			 MOV	.KLFLG,-(SP)
   1581	000066	032716 	000200 			BIT	#KF.CON,(SP)	; .CAN WE CONTINUE THE KL?
   1582	000072	001427 				BEQ	CONKNC		; .NO -- GIVE "KNC" ERROR
   1583	000074	032716 	010000 			BIT	#KF.SIM,(SP)	; .YES -- ARE WE IN SINGLE INSTRUCTION MODE?
   1584	000100	001412 				BEQ	20$		; .NO -- JUST CONTINUE THE KL
   1585	000102	032716 	100000 			BIT	#KF.CLK,(SP)	; .YES -- IS THE CLOCK RUNNING?
   1586	000106	001002 				BNE	10$		; .YES -- DON'T START IT AGAIN
   1587	000110					CALL	.STCLK		; .NO -- START IT
	000110	004737 	000000G			 JSR	PC,.STCLK
   1588	000114				10$:
   1589	000114	012700 	000024 			MOV	#FX.CON,R0	; .SET THE "CONTINUE" BUTTON
   1590	000120					CALL	.FXCT		; .VIA FUNCTION EXECUTE
	000120	004737 	000000G			 JSR	PC,.FXCT
   1591	000124	000407 				BR	30$		; .AND EXIT
   1592						;
   1593	000126				20$:
   1594	000126					CALL	.KLCON		; .DO THE CONTINUE
	000126	004737 	000000G			 JSR	PC,.KLCON
   1595	000132	032716 	040000 			BIT	#KF.RUN,(SP)	; .WAS THE KL RUNNING BEFORE?
   1596	000136	001002 				BNE	30$		; .YES -- JUST EXIT
   1597	000140	005037 	000000G			CLR	.NOERR		; RE-ENABLE ERROR DETECTION
   1598	000144				30$:
   1599	000144	005726 				TST	(SP)+		; .CLEAR THE STACK
   1600	000146					CALLR	.EXITP
	000146	000137 	000000G			 JMP	.EXITP
   1601						;
   1602
   1603	000152				CONKNC:
   1604	000152					ERROR$	KNC		; ERROR -- KL NOT CONTINUEABLE
	000152	012746 	043363 			 MOV	#^RKNC,-(SP)
	000156	104400 				 TRAP	TC.ERR
   1605						;
DECMD -- DEPOSIT / EXAMINE COMM	MACRO M1113  10-NOV-81 17:48  PAGE 39
.CONTC -- THE "CONTINUE" COMMAND 7611.17

   1607					.TITLE	DECMD -- DEPOSIT / EXAMINE COMMAND DISPATCH MODULE 7603.30
   1608
   1609						.IDENT	"005000"
   1610
   1611					;
   1612					;                             COPYRIGHT (C) 1975, 1979 BY
   1613					;                     DIGITAL EQUIPMENT CORPORATION, MAYNARD MASS.
   1614					;
   1615					;       THIS SOFTWARE IS FURNISHED UNDER A LICENSE AND MAY BE  USED  AND  COPIED
   1616					;       ONLY IN ACCORDANCE WITH THE TERMS OF SUCH LICENSE AND WITH THE INCLUSION
   1617					;       OF THE ABOVE COPYRIGHT NOTICE.  THIS SOFTWARE OR ANY OTHER COPIES THERE-
   1618					;       OF  MAY NOT BE PROVIDED OR OTHERWISE MADE AVAILABLE TO ANY OTHER PERSON.
   1619					;       NO TITLE TO OR OWNERSHIP OF THE SOFTWARE IS HEREBY TRANSFERRED.
   1620					;
   1621					;       THE INFORMATION CONTAINED IN THIS SOFTWARE IS SUBJECT TO CHANGE  WITHOUT
   1622					;       NOTICE  AND SHOULD NOT BE CONSTRUED AS A COMMITMENT BY DIGITAL EQUIPMENT
   1623					;       CORPORATION.
   1624					;
   1625					;       DIGITAL ASSUMES NO RESPONSIBILITY FOR THE  USE  OR  RELIABILITY  OF  ITS
   1626					;       SOFTWARE ON EQUIPMENT WHICH IS NOT SUPPILED BY DIGITAL.
   1627					;
   1628					;		MODULE: DEPOSIT / EXAMINE COMMAND DISPATCH
   1629					;
   1630					;		VERSION: 05-00
   1631					;
   1632					;		AUTHOR: R. BELANGER
   1633					;
   1634					;		DATE: 7603.30
   1635					;
   1636					;	THIS MODULE CONTAINS:
   1637					;
   1638					;	1) DEPOSIT COMMAND DISPATCH CODE
   1639					;	2) DEPOSIT COMMAND DISPATCH TABLES
   1640					;	3) EXAMINE COMMAND DISPATCH CODE
   1641					;	4) EXAMINE COMMAND DISPATCH TABLES
DECMD -- DEPOSIT / EXAMINE COMM	MACRO M1113  10-NOV-81 17:48  PAGE 40
.DPOSC -- THE "DEPOSIT" COMMAND DISPATCH 7602.23

   1643					.SBTTL	.DPOSC -- THE "DEPOSIT" COMMAND DISPATCH 7602.23
   1644
   1645					;+
   1646					; .DPOSC -- THE "DEPOSIT" COMMAND.
   1647					;
   1648					; THIS IS THE TOP LEVEL DEPOSIT ROUTINE WHICH DISPATCHES TO THE
   1649					; PROPER ROUTINE FOR THE OBJECT TO BE DEPOSITED.
   1650					;
   1651					; INPUT ARGUMENTS:
   1652					;
   1653					;	NONE.
   1654					;
   1655					; OUTPUT ARGUMENTS:
   1656					;
   1657					;	NONE.
   1658					;
   1659					; ERROR CODES RETURNED:
   1660					;
   1661					;	NSK -- NO SUCH KEYWORD
   1662					;-
   1663
   1664	000160				.DPOSC::
   1665	000160	013703 	000000G			MOV	.MEMFL,R3	; OFFSET FLAG TO R3
   1666	000164					CALL	.CKARG		; LOOK FOR THE ARGUMENT
	000164	004737 	000000G			 JSR	PC,.CKARG
   1667	000170	001435 				BEQ	.DPOBJ		; DISPATCH FOR OBJECT
   1668	000172				.DPOSA::			; HERE TO DISPATCH FOR MEMORY
   1669	000172					CALLR	@DPOATB(R3)	; DISPATCH
	000172	000173 	000000'			 JMP	@DPOATB(R3)
   1670						;
   1671
   1672	000000					.PSECT	DATA
   1673
   1674	000000				DPOATB:
   1675	000000	002206'				.WORD	.DPOST		; DEPOSIT TEN
   1676	000002	001334'				.WORD	.DPOSE		; DEPOSIT ELEVEN WORD
   1677
   1678	000176					.PSECT
   1679
DECMD -- DEPOSIT / EXAMINE COMM	MACRO M1113  10-NOV-81 17:48  PAGE 41
.DPOSD -- THE "DEPOSIT <NUMERICAL OBJECT>" COMMAND DISPATCH 76

   1681					.SBTTL	.DPOSD -- THE "DEPOSIT <NUMERICAL OBJECT>" COMMAND DISPATCH 7602.29
   1682
   1683	000176				.DPOSD::			; DEPOSIT DECREMENT
   1684	000176					CALLR	@DPODTB(R3)	; DISPATCH ON MEMORY TYPE FLAG
	000176	000173 	000004'			 JMP	@DPODTB(R3)
   1685						;
   1686
   1687	000004					.PSECT	DATA
   1688
   1689	000004				DPODTB:
   1690	000004	002534'				.WORD	.DPKLD		; KL WORD
   1691	000006	001524'				.WORD	.DPEWD		; PDP-11 WORD
   1692
   1693	000202					.PSECT
   1694
   1695	000202				.DPOSI::			; DEPOSIT INCREMENT
   1696	000202					CALLR	@DPOITB(R3)	; DISPATCH ON MEMORY TYPE FLAG
	000202	000173 	000010'			 JMP	@DPOITB(R3)
   1697						;
   1698
   1699	000010					.PSECT	DATA
   1700
   1701	000010				DPOITB:
   1702	000010	002542'				.WORD	.DPKLI		; KL WORD
   1703	000012	001532'				.WORD	.DPEWI		; PDP-11 WORD
   1704
   1705	000206					.PSECT
   1706
   1707	000206				.DPOSN::			; DEPOSIT NEXT
   1708	000206					CALLR	@DPONTB(R3)	; DISPATCH ON MEMORY TYPE FLAG
	000206	000173 	000014'			 JMP	@DPONTB(R3)
   1709						;
   1710
   1711	000014					.PSECT	DATA
   1712
   1713	000014				DPONTB:
   1714	000014	002550'				.WORD	.DPKLN		; KL WORD
   1715	000016	001540'				.WORD	.DPEWN		; PDP-11 WORD
   1716
   1717	000212					.PSECT
   1718
   1719	000212				.DPOSP::			; DEPOSIT PREVIOUS
   1720	000212					CALLR	@DPOPTB(R3)	; DISPATCH ON MEMORY TYPE FLAG
	000212	000173 	000020'			 JMP	@DPOPTB(R3)
   1721						;
   1722
   1723	000020					.PSECT	DATA
   1724
   1725	000020				DPOPTB:
   1726	000020	002556'				.WORD	.DPKLP		; KL WORD
   1727	000022	001546'				.WORD	.DPEWP		; PDP-11 WORD
   1728
   1729	000216					.PSECT
   1730
   1731	000216				.DPOSZ::			; DEPOSIT THIS
   1732	000216					CALLR	@DPOZTB(R3)	; DISPATCH ON MEMORY TYPE FLAG
	000216	000173 	000024'			 JMP	@DPOZTB(R3)
DECMD -- DEPOSIT / EXAMINE COMM	MACRO M1113  10-NOV-81 17:48  PAGE 41-1
.DPOSD -- THE "DEPOSIT <NUMERICAL OBJECT>" COMMAND DISPATCH 76

   1733						;
   1734
   1735	000024					.PSECT	DATA
   1736
   1737	000024				DPOZTB:
   1738	000024	002526'				.WORD	.DPKLT		; KL WORD
   1739	000026	001516'				.WORD	.DPEWT		; PDP-11 WORD
   1740
   1741	000222					.PSECT
   1742
DECMD -- DEPOSIT / EXAMINE COMM	MACRO M1113  10-NOV-81 17:48  PAGE 42
.EXAMC -- THE "EXAMINE" COMMAND DISPATCH 7602.16

   1744					.SBTTL	.EXAMC -- THE "EXAMINE" COMMAND DISPATCH 7602.16
   1745
   1746					;+
   1747					; .EXAMC -- THE "EXAMINE" COMMAND DISPATCH.
   1748					;
   1749					; THIS IS THE TOP LEVEL EXAMINE ROUTINE WHICH DETERMINES WHICH
   1750					; OBJECT IS TO BE EXAMINED.
   1751					;
   1752					; INPUT ARGUMENTS:
   1753					;
   1754					;	NONE.
   1755					;
   1756					; OUTPUT ARGUMENTS:
   1757					;
   1758					;	NONE, THIS ROUTINE DISPATCHES TO THE PROPER ROUTINE
   1759					;	FOR THE OBJECT SPECIFIED.
   1760					;
   1761					; ERROR CODES RETURNED:
   1762					;
   1763					;	NONE.
   1764					;-
   1765
   1766	000222				.EXAMC::
   1767	000222	013703 	000000G			MOV	.MEMFL,R3	; MEMORY FLAG TO R3
   1768	000226					CALL	.CKARG		; CHECK THE ARGUMENT
	000226	004737 	000000G			 JSR	PC,.CKARG
   1769	000232	001434 				BEQ	.EXOBJ		; EXAMINE THE OBJECT
   1770						;
   1771	000234				.EXAMA::			; HERE TO DISPATCH FOR MEMORY
   1772	000234					CALLR	@EXMDTB(R3)	; DISPATCH
	000234	000173 	000030'			 JMP	@EXMDTB(R3)
   1773						;
   1774
   1775	000030					.PSECT	DATA
   1776
   1777	000030				EXMDTB:
   1778	000030	002614'				.WORD	.EXAMT		; EXAMINE TEN
   1779	000032	001604'				.WORD	.EXAME		; EXAMINE ELEVEN WORD
   1780
   1781	000240					.PSECT
   1782
DECMD -- DEPOSIT / EXAMINE COMM	MACRO M1113  10-NOV-81 17:48  PAGE 43
.EXAMD -- THE "EXAMINE <NUMERICAL OBJECT>" COMMAND DISPATCH 76

   1784					.SBTTL	.EXAMD -- THE "EXAMINE <NUMERICAL OBJECT>" COMMAND DISPATCH 7602.29
   1785
   1786	000240				.EXAMD::			; EXAMINE DECREMENT
   1787	000240					CALLR	@EXADTB(R3)	; DISPATCH ON MEMORY TYPE FLAG
	000240	000173 	000034'			 JMP	@EXADTB(R3)
   1788						;
   1789
   1790	000034					.PSECT	DATA
   1791
   1792	000034				EXADTB:
   1793	000034	003206'				.WORD	.EXKLD		; KL WORD
   1794	000036	002066'				.WORD	.EXEWD		; PDP-11 WORD
   1795
   1796	000244					.PSECT
   1797
   1798	000244				.EXAMI::			; EXAMINE INCREMENT
   1799	000244					CALLR	@EXAITB(R3)	; DISPATCH ON MEMORY TYPE FLAG
	000244	000173 	000040'			 JMP	@EXAITB(R3)
   1800						;
   1801
   1802	000040					.PSECT	DATA
   1803
   1804	000040				EXAITB:
   1805	000040	003214'				.WORD	.EXKLI		; KL WORD
   1806	000042	002074'				.WORD	.EXEWI		; PDP-11 WORD
   1807
   1808	000250					.PSECT
   1809
   1810	000250				.EXAMN::			; EXAMINE NEXT
   1811	000250					CALLR	@EXANTB(R3)	; DISPATCH ON MEMORY TYPE FLAG
	000250	000173 	000044'			 JMP	@EXANTB(R3)
   1812						;
   1813
   1814	000044					.PSECT	DATA
   1815
   1816	000044				EXANTB:
   1817	000044	003222'				.WORD	.EXKLN		; KL WORD
   1818	000046	002102'				.WORD	.EXEWN		; PDP-11 WORD
   1819
   1820	000254					.PSECT
   1821
   1822	000254				.EXAMP::			; EXAMINE PREVIOUS
   1823	000254					CALLR	@EXAPTB(R3)	; DISPATCH ON MEMORY TYPE FLAG
	000254	000173 	000050'			 JMP	@EXAPTB(R3)
   1824						;
   1825
   1826	000050					.PSECT	DATA
   1827
   1828	000050				EXAPTB:
   1829	000050	003230'				.WORD	.EXKLP		; KL WORD
   1830	000052	002110'				.WORD	.EXEWP		; PDP-11 WORD
   1831
   1832	000260					.PSECT
   1833
   1834	000260				.EXAMZ::			; EXAMINE THIS
   1835	000260					CALLR	@EXAZTB(R3)	; DISPATCH ON MEMORY TYPE FLAG
	000260	000173 	000054'			 JMP	@EXAZTB(R3)
DECMD -- DEPOSIT / EXAMINE COMM	MACRO M1113  10-NOV-81 17:48  PAGE 43-1
.EXAMD -- THE "EXAMINE <NUMERICAL OBJECT>" COMMAND DISPATCH 76

   1836						;
   1837
   1838	000054					.PSECT	DATA
   1839
   1840	000054				EXAZTB:
   1841	000054	003200'				.WORD	.EXKLT		; KL WORD
   1842	000056	002060'				.WORD	.EXEWT		; PDP-11 WORD
   1843
   1844	000264					.PSECT
   1845
DECMD -- DEPOSIT / EXAMINE COMM	MACRO M1113  10-NOV-81 17:48  PAGE 44
.DPOBJ -- THE "DEPOSIT <OBJECT>" COMMAND DISPATCH 7602.29

   1847					.SBTTL	.DPOBJ -- THE "DEPOSIT <OBJECT>" COMMAND DISPATCH 7602.29
   1848
   1849					;+
   1850					; .DPOBJ -- DEPOSIT "OBJECT" COMMAND DISPATCH
   1851					;
   1852					; THIS SUBROUTINE PERFORMS THE DISPATCH FOR THE SPECIFIED DEPOSIT OBJECT
   1853					;
   1854					; INPUT ARGUMENTS:
   1855					;
   1856					;	R3 CONTAINS THE OLD MEMORY TYPE OFFSET
   1857					;
   1858					; OUTPUT ARGUMENTS:
   1859					;
   1860					;	R3 CONTAINS THE CURRENT MEMORY TYPE OFFSET
   1861					;
   1862					; ERROR CODES RETURNED:
   1863					;
   1864					;	NONE.
   1865					;-
   1866
   1867
   1868	000264				.DPOBJ::
   1869	000264	012700 	000000G			MOV	#.DPOTB,R0	; TABLE POINTER TO R0
   1870	000270					CALL	.TSCAN		; SCAN THE TABLE FOR OBJECT
	000270	004737 	000000G			 JSR	PC,.TSCAN
   1871	000274	012001 				MOV	(R0)+,R1	; LEGAL BITS TO R1
   1872	000276	005101 				COM	R1		; INVERT THEM
   1873	000300	040137 	000000G			BIC	R1,.LGLWD	; SET UP NEW LEGAL WORD
   1874	000304					CALLR	@(R0)+		; DISPATCH FOR OBJECT
	000304	000130 				 JMP	@(R0)+
   1875						;
   1876	000306				.DPOKL::
   1877	000306	005003 				CLR	R3		; TEN MEMORY OFFSET TO R3
   1878	000310					CALLR	.DPOST		; GO DO IT
	000310	000137 	002206'			 JMP	.DPOST
   1879						;
   1880	000314				.DPOEL::
   1881	000314	012703 	000002 			MOV	#^D2,R3		; PDP-11 WORD OFFSET TO R3
   1882	000320					CALLR	.DPOSE		; GO DO IT
	000320	000137 	001334'			 JMP	.DPOSE
   1883						;
DECMD -- DEPOSIT / EXAMINE COMM	MACRO M1113  10-NOV-81 17:48  PAGE 45
.EXOBJ -- THE "EXAMINE <OBJECT>" COMMAND DISPATCH 7602.16

   1885					.SBTTL	.EXOBJ -- THE "EXAMINE <OBJECT>" COMMAND DISPATCH 7602.16
   1886
   1887					;+
   1888					; .EXOBJ -- THE "EXAMINE <OBJECT>" COMMAND DISPATCH.
   1889					;
   1890					; THIS ROUTINE IS THE DISPATCH FOR ALL OF THE "EXAMINE <OBJECT>" COMMANDS.
   1891					;
   1892					; INPUT ARGUMENTS:
   1893					;
   1894					;	NONE.
   1895					;
   1896					; OUTPUT ARGUMENTS:
   1897					;
   1898					;	NONE.
   1899					;
   1900					; ERROR CODES RETURNED:
   1901					;
   1902					;	NSC -- NO SUCH COMMAND.
   1903					;-
   1904
   1905	000324				.EXOBJ::
   1906	000324	012700 	000000G			MOV	#.EXMTB,R0	; EXAMINE TABLE POINTER TO R0
   1907	000330					CALL	.TSCAN		; SCAN THE TABLE
	000330	004737 	000000G			 JSR	PC,.TSCAN
   1908	000334	011001 				MOV	(R0),R1		; LEGAL BITS TO R1
   1909	000336	005101 				COM	R1		; INVERT THEM
   1910	000340	040137 	000000G			BIC	R1,.LGLWD	; SET UP NEW LEGAL WORD
   1911	000344	014002 				MOV	-(R0),R2	; NAME POINTER TO R2
   1912	000346					CALLR	@4(R0)		; READ AND PRINT THE REGISTER
	000346	000170 	000004 			 JMP	@4(R0)
   1913						;
   1914	000352				.EXMEL::
   1915	000352	012703 	000002 			MOV	#^D2,R3		; PDP-11 OFFSET TO R3
   1916	000356					CALLR	.EXAME		; DO THE EXAMINE
	000356	000137 	001604'			 JMP	.EXAME
   1917						;
   1918	000362				.EXMKL::
   1919	000362	005003 				CLR	R3		; KL MEMORY OFFSET TO R3
   1920	000364					CALLR	.EXAMT		; DO THE EXAMINE
	000364	000137 	002614'			 JMP	.EXAMT
   1921						;
DECMD -- DEPOSIT / EXAMINE COMM	MACRO M1113  10-NOV-81 17:48  PAGE 46
.EDEWD -- THE EXAMINE / DEPOSIT "<ELEVEN> <NUMERICAL OBJECT>"

   1923					.SBTTL	.EDEWD -- THE EXAMINE / DEPOSIT "<ELEVEN> <NUMERICAL OBJECT>" COMMAND 7602.29
   1924
   1925	000370				.EDEWD::
   1926	000370				.EDEWP::
   1927	000370	013700 	000000G			MOV	.EDELA,R0	; ADDRESS TO R0
   1928	000374	162700 	000002 			SUB	#^D2,R0		; PREVIOUS WORD ADDRESS
   1929	000400					RETURN			; TO CALLER
	000400	000207 				 RTS	PC
   1930	000402				.EDEWI::
   1931	000402				.EDEWN::
   1932	000402	013700 	000000G			MOV	.EDELA,R0	; ADDRESS TO R0
   1933	000406	062700 	000002 			ADD	#^D2,R0		; NEXT WORD ADDRESS
   1934	000412					RETURN			; TO CALLER
	000412	000207 				 RTS	PC
DECMD -- DEPOSIT / EXAMINE COMM	MACRO M1113  10-NOV-81 17:48  PAGE 47
.EDKLD -- THE EXAMINE / DEPOSIT "<TEN> <NUMERICAL OBJECT>" COM

   1936					.SBTTL	.EDKLD -- THE EXAMINE / DEPOSIT "<TEN> <NUMERICAL OBJECT>" COMMAND 7609.10
   1937
   1938						.ENABL	LSB
   1939
   1940	000414				.EDKLP::
   1941	000414					CALL	.EDKLC		; DO COMMON CODE
	000414	004737 	000512'			 JSR	PC,.EDKLC
   1942	000420					CALL	.TPDEC		; DECREMENT ONCE
	000420	004737 	000000G			 JSR	PC,.TPDEC
   1943	000424	000422 				BR	10$		; EXIT THRU COMMON CODE
   1944						;
   1945	000426				.EDKLN::
   1946	000426					CALL	.EDKLC		; DO COMMON CODE
	000426	004737 	000512'			 JSR	PC,.EDKLC
   1947	000432					CALL	.TPINC		; INCREMENT ONCE
	000432	004737 	000000G			 JSR	PC,.TPINC
   1948	000436	000415 				BR	10$		; EXIT THRU COMMON CODE
   1949						;
   1950	000440				.EDKLD::
   1951	000440					CALL	.EDKLC		; DO COMMON CODE
	000440	004737 	000512'			 JSR	PC,.EDKLC
   1952	000444	012701 	000000G			MOV	#.KLINC,R1	; POINT TO THE INCREMENT
   1953	000450					CALL	.TPSUB		; DO THE SUBTRACTION
	000450	004737 	000000G			 JSR	PC,.TPSUB
   1954	000454	000406 				BR	10$		; EXIT THRU COMMON CODE
   1955						;
   1956	000456				.EDKLI::
   1957	000456					CALL	.EDKLC		; DO COMMON CODE
	000456	004737 	000512'			 JSR	PC,.EDKLC
   1958	000462	012701 	000000G			MOV	#.KLINC,R1	; POINT TO THE INCREMENT
   1959	000466					CALL	.TPADD		; DO THE ADDITION
	000466	004737 	000000G			 JSR	PC,.TPADD
   1960	000472				10$:
   1961	000472	032760 	177600 	000002 		BIT	#^C177,2(R0)	; CHECK THE RESULT
   1962	000500	001015 				BNE	EDNKLA		; ERROR IF TOO LARGE
   1963	000502	005760 	000004 			TST	4(R0)		; HOW ABOUT HIGH BITS?
   1964	000506	001012 				BNE	EDNKLA		; TOO LARGE
   1965	000510	000410 				BR	20$		; ALL OK -- RETURN
   1966						;
   1967	000512				.EDKLC::
   1968	000512	012700 	000000G			MOV	#.EDKLX,R0	; AUX ADDRESS POINTER TO R0
   1969	000516	012701 	000000G			MOV	#.EDKLA,R1	; EXAM / DEPOS ADDRESS TO R1
   1970	000522	012120 				MOV	(R1)+,(R0)+	; LOAD CURRENT ADDRESS
   1971	000524	012120 				MOV	(R1)+,(R0)+	; INTO AUXILLIARY ADDRESS BUFFER
   1972	000526	011110 				MOV	(R1),(R0)	; SO
   1973	000530	024040 				CMP	-(R0),-(R0)	; BACK THE POINTER UP
   1974	000532				20$:
   1975	000532					RETURN			; AND GO ON
	000532	000207 				 RTS	PC
   1976
   1977						.DSABL	LSB
   1978
   1979	000534				EDNKLA:
   1980	000534					ERROR$	KLA		; ERROR -- KL ADDRESS ERROR
	000534	012746 	043241 			 MOV	#^RKLA,-(SP)
	000540	104400 				 TRAP	TC.ERR
   1981						;
DFUNC -- KL10 DIAGNOSTIC FUNCTI	MACRO M1113  10-NOV-81 17:48  PAGE 48
.EDKLD -- THE EXAMINE / DEPOSIT "<TEN> <NUMERICAL OBJECT>" COM

   1983					.TITLE	DFUNC -- KL10 DIAGNOSTIC FUNCTION MODULE 7603.30
   1984
   1985						.IDENT	"006130"
   1986					;
   1987					;                             COPYRIGHT (C) 1975, 1979 BY
   1988					;                     DIGITAL EQUIPMENT CORPORATION, MAYNARD MASS.
   1989					;
   1990					;       THIS SOFTWARE IS FURNISHED UNDER A LICENSE AND MAY BE  USED  AND  COPIED
   1991					;       ONLY IN ACCORDANCE WITH THE TERMS OF SUCH LICENSE AND WITH THE INCLUSION
   1992					;       OF THE ABOVE COPYRIGHT NOTICE.  THIS SOFTWARE OR ANY OTHER COPIES THERE-
   1993					;       OF  MAY NOT BE PROVIDED OR OTHERWISE MADE AVAILABLE TO ANY OTHER PERSON.
   1994					;       NO TITLE TO OR OWNERSHIP OF THE SOFTWARE IS HEREBY TRANSFERRED.
   1995					;
   1996					;       THE INFORMATION CONTAINED IN THIS SOFTWARE IS SUBJECT TO CHANGE  WITHOUT
   1997					;       NOTICE  AND SHOULD NOT BE CONSTRUED AS A COMMITMENT BY DIGITAL EQUIPMENT
   1998					;       CORPORATION.
   1999					;
   2000					;       DIGITAL ASSUMES NO RESPONSIBILITY FOR THE  USE  OR  RELIABILITY  OF  ITS
   2001					;       SOFTWARE ON EQUIPMENT WHICH IS NOT SUPPILED BY DIGITAL.
   2002					;
   2003					;		MODULE: KL10 DIAGNOSTIC FUNCTION
   2004					;
   2005					;		VERSION: 06-13
   2006					;
   2007					;		AUTHOR: R. BELANGER
   2008					;
   2009					;		DATE: 7603.30
   2010					;
   2011					;	THIS MODULE CONTAINS:
   2012					;
   2013					;	1) KL10 DIAGNOSTIC FUNCTION CODE
DFUNC -- KL10 DIAGNOSTIC FUNCTI	MACRO M1113  10-NOV-81 17:48  PAGE 49
.DFCOM -- COMMON DIAGNOSTIC FUNCTION ROUTINE 7603.30

   2015					.SBTTL	.DFCOM -- COMMON DIAGNOSTIC FUNCTION ROUTINE 7603.30
   2016
   2017					;+
   2018					; .DFCOM -- COMMON DIAGNOSTIC FUNCTION ROUTINE
   2019					;
   2020					; THIS ROUTINE WILL INPUT A DIAGNOSTIC FUNCTION READ, WRITE, OR
   2021					; EXECUTE CODE AND RETURN IT IN R0, AFTER CHECKING THAT THE KL
   2022					; IS NOT RUNNING, AND SEEING THAT THE FUNCTION CODE IS IN RANGE.
   2023					;
   2024					; INPUT ARGUMENTS:
   2025					;
   2026					;	NONE.
   2027					;
   2028					; OUTPUT ARGUMENTS:
   2029					;
   2030					;	R0 HOLDS THE FUNCTION CODE.
   2031					;
   2032					; ERROR CODES RETURNED:
   2033					;
   2034					;	IFC -- ILLEGAL FUNCTION CODE
   2035					;	MRA -- MISSING REQUIRED ARGUMENT.
   2036					;-
   2037
   2038	000542				.DFCOM::
   2039	000542					CALL	.CKRUN		; SEE IF THE KL IS RUNNING
	000542	004737 	000000G			 JSR	PC,.CKRUN
   2040	000546	005046 				CLR	-(SP)		; CLEAR A BUFFER ON THE STACK
   2041	000550	005046 				CLR	-(SP)		; .
   2042	000552	005046 				CLR	-(SP)		; ..
   2043	000554	010600 				MOV	SP,R0		; ...POINT TO IT
   2044	000556					CALL	.GTKLN		; ...READ THE FUNCTION CODE
	000556	004737 	000000G			 JSR	PC,.GTKLN
   2045	000562	005760 	000004 			TST	4(R0)		; ...SEE IF WE HAVE A LEGAL CODE
   2046	000566	001026 				BNE	DFCIFC		; ...NO -- COMPLAIN
   2047	000570	005760 	000002 			TST	2(R0)		; ...
   2048	000574	001023 				BNE	DFCIFC		; ...
   2049	000576	105760 	000001 			TSTB	1(R0)		; ...
   2050	000602	001020 				BNE	DFCIFC		; ...
   2051	000604	132710 	177740 			BITB	#^C37,(R0)	; ...IS THIS AN EXECUTE?
   2052	000610	001411 				BEQ	10$		; ...NO -- CONTINUE
   2053	000612	032737 	040000 	000000G		BIT	#KF.RUN,.KLFLG	; ...IS THE KL RUNNING?
   2054	000620	001405 				BEQ	10$		; ...NO -- JUST KEEP GOING
   2055	000622	013737 	000000G	000000G		MOV	.KLFLG,.SVKLF	; ...SAVE THE CURRENT FLAGS
   2056	000630					CALL	.KLHLT		; ...HALT THE KL
	000630	004737 	000000G			 JSR	PC,.KLHLT
   2057	000634				10$:
   2058	000634					POP	R0		; ...GET THE CODE INTO R0
	000634	012600 				 MOV	(SP)+,R0
   2059	000636	006300 				ASL	R0		; ..TIMES 2
   2060	000640	022626 				CMP	(SP)+,(SP)+	; ..CLEAR THE STACK
   2061	000642					RETURN			; TO CALLER
	000642	000207 				 RTS	PC
   2062	000644				DFCIFC:
   2063	000644					ERROR$	IFC		; ERROR -- ILLEGAL FUNCTION CODE
	000644	012746 	034463 			 MOV	#^RIFC,-(SP)
	000650	104400 				 TRAP	TC.ERR
   2064						;
DFUNC -- KL10 DIAGNOSTIC FUNCTI	MACRO M1113  10-NOV-81 17:48  PAGE 50
.DFRED -- DIAGNOSTIC FUNCTION READ 7602.15

   2066					.SBTTL	.DFRED -- DIAGNOSTIC FUNCTION READ 7602.15
   2067
   2068					;+
   2069					; .DFRED -- DIAGNOSTIC FUNCTION READ
   2070					;
   2071					; THIS ROUTINE WILL EXECUTE A DIAGNOSTIC FUNCTION READ AND DISPLAY
   2072					; THE RESULT ON THE CONSOLE DEVICE.
   2073					;
   2074					; INPUT ARGUMENTS:
   2075					;
   2076					;	NONE.
   2077					;
   2078					; OUTPUT ARGUMENTS:
   2079					;
   2080					;	NONE.
   2081					;
   2082					; ERROR CODES RETURNED:
   2083					;
   2084					;	IFC -- ILLEGAL FUNCTION CODE.
   2085					;	FRF -- FUNCTION READ FAILED.
   2086					;-
   2087
   2088	000652				.DFRED::
   2089	000652					CALL	.DFCOM		; DO COMMON CODE
	000652	004737 	000542'			 JSR	PC,.DFCOM
   2090	000656	010037 	000060'			MOV	R0,STOPFR	; [5.1014]SAVE START FUNCTION CODE
   2091	000662					CALL	.CKEOS		; CHECK END OF SYMBOL
	000662	004737 	000000G			 JSR	PC,.CKEOS
   2092	000666				1$:	CALL	.XFRCK		; SEE THAT WE HAVE A LEGAL READ CODE
	000666	004737 	001222'			 JSR	PC,.XFRCK
   2093	000672	005046 				CLR	-(SP)		; CLEAR A BUFFER ON THE STACK
   2094	000674	005046 				CLR	-(SP)		; .
   2095	000676	005046 				CLR	-(SP)		; ..
   2096	000700	010601 				MOV	SP,R1		; ...POINT TO THE BUFFER
   2097	000702					PUSH	R0		; ...SAVE THE READ CODE
	000702	010046 				 MOV	R0,-(SP)
   2098	000704					CALL	.FREAD		; ....DO THE READ
	000704	004737 	000000G			 JSR	PC,.FREAD
   2099	000710	012700 	000000'			MOV	#DFRMSG,R0	; ....MESSAGE POINTER TO R0
   2100	000714					CALL	.TYMSG		; ....TYPE IT
	000714	004737 	000000G			 JSR	PC,.TYMSG
   2101	000720	011600 				MOV	(SP),R0		; ....READ CODE TO R0
   2102	000722	006200 				ASR	R0		; ....DIVIDED BY 2
   2103	000724					CALL	.TYP3D		; ....PRINT IT
	000724	004737 	000000G			 JSR	PC,.TYP3D
   2104	000730					CALL	.TYSLS		; ....AND A SLASH
	000730	004737 	000000G			 JSR	PC,.TYSLS
   2105	000734					CALL	.TYSPC		; ....AND A SPACE
	000734	004737 	000000G			 JSR	PC,.TYSPC
   2106	000740	010100 				MOV	R1,R0		; ....POINT TO THE DATA
   2107	000742					CALL	.TYKLN		; ....PRINT IT
	000742	004737 	000000G			 JSR	PC,.TYKLN
   2108	000746					CALL	.TCRLF		; ....END THE LINE
	000746	004737 	000000G			 JSR	PC,.TCRLF
   2109	000752					CALL	.RSTKL		; ....RESTART THE KL
	000752	004737 	000000G			 JSR	PC,.RSTKL
   2110	000756					POP	R0		; ....READ CODE INTO R0
DFUNC -- KL10 DIAGNOSTIC FUNCTI	MACRO M1113  10-NOV-81 17:48  PAGE 50-1
.DFRED -- DIAGNOSTIC FUNCTION READ 7602.15

	000756	012600 				 MOV	(SP)+,R0
   2111	000760	062706 	000006 			ADD	#^D6,SP		; ...CLEAR THE STACK
   2112	000764	005737 	000062'		5$:	TST	RNGFR		; [5.1014]IS THIS A RANGE IN PROGRESS?
   2113	000770	001406 				BEQ	7$		; [5.1014]NO -- GO ON
   2114	000772	020037 	000060'			CMP	R0,STOPFR	; [5.1014]YES -- ARE WE DONE?
   2115	000776	001403 				BEQ	7$		; [5.1014]YES -- GO NO
   2116	001000	063700 	000064'			ADD	INCFR,R0	; [5.1014]NO -- NEXT READ
   2117	001004	000730 				BR	1$		; [5.1014]DO NEXT READ
   2118	001006	005037 	000062'		7$:	CLR	RNGFR		; [5.1014]RANGE DONE
   2119	001012	122715 	000054 			CMPB	#',,(R5)	; [5.1014]IS THIS A LIST?
   2120	001016	001002 				BNE	10$		; [5.1014]NO -- GO ON
   2121	001020	105725 				TSTB	(R5)+		; [5.1014]YES -- REMOVE COMMA
   2122	001022	000713 				BR	.DFRED		; [5.1014]DO NEXT
   2123	001024	122715 	000072 		10$:	CMPB	#':,(R5)	; [5.1014]IS THIS A LIST?
   2124	001030	001025 				BNE	30$		; [5.1014]NO -- GO ON
   2125	001032	105725 				TSTB	(R5)+		; [5.1014]YES -- REMOVE COMMA
   2126	001034					CALL	.DFCOM		; [5.1014]DO COMMON CODE
	001034	004737 	000542'			 JSR	PC,.DFCOM
   2127	001040					CALL	.CKEOS		; [5.1014]CHECK END OF SYMBOL
	001040	004737 	000000G			 JSR	PC,.CKEOS
   2128	001044	005237 	000062'			INC	RNGFR		; [5.1014]SET RANGE ON PROGRESS FLAG
   2129	001050	012737 	000002 	000064'		MOV	#2,INCFR	; [5.1014]SET FORWARD RANGE DEFAULT
   2130	001056	020037 	000060'			CMP	R0,STOPFR	; [5.1014]FORWARD RANGE
   2131	001062	003002 				BGT	20$		; [5.1014]YES -- GO ON
   2132	001064	005437 	000064'			NEG	INCFR		; [5.1014]NO -- NEGATE INCREMENT
   2133	001070				20$:	PUSH	STOPFR		; [5.1014]SAVE INITIAL FUNCTION READ
	001070	013746 	000060'			 MOV	STOPFR,-(SP)
   2134	001074	010037 	000060'			MOV	R0,STOPFR	; [5.1014]SET STOPFR CODE
   2135	001100					POP	R0		; [5.1014]SET R0 TO INITIAL READ
	001100	012600 				 MOV	(SP)+,R0
   2136	001102	000730 				BR	5$		; [5.1014]DO RANGE INCREMENT
   2137	001104				30$:	RETURN			; [5.1014]EXIT
	001104	000207 				 RTS	PC
   2138						;
   2139
   2140	000000				.PSECT	MESSAG
   2141	000000				DFRMSG:
   2142	000000	   106 	   122 	   040 		.ASCIZ	%FR %
	000003	   000
   2143	000060				.PSECT	DATA
   2144
   2145	000060	000000 			STOPFR:	.WORD	0		; [5.1014]FINAL/FIRST FUNCTION READ CODE
   2146	000062	000000 			RNGFR:	.WORD	0		; [5.1014]RANGE IN PROGRESS FLAG
   2147	000064	000000 			INCFR:	.WORD	0		; [5.1014]INCREMENT VALUE
   2148
   2149	001106				.PSECT
DFUNC -- KL10 DIAGNOSTIC FUNCTI	MACRO M1113  10-NOV-81 17:48  PAGE 51
.DFWRT -- DIAGNOSTIC FUNCTION WRITE 7608.20

   2151					.SBTTL	.DFWRT -- DIAGNOSTIC FUNCTION WRITE 7608.20
   2152
   2153					;+
   2154					; .DFWRT -- DIAGNOSTIC FUNCTION WRITE
   2155					;
   2156					; THIS ROUTINE WILL EXECUTE A DIAGNOSTIC FUNCTION WRITE
   2157					;
   2158					; INPUT ARGUMENTS:
   2159					;
   2160					;	NONE.
   2161					;
   2162					; OUTPUT ARGUMENTS:
   2163					;
   2164					;	NONE.
   2165					;
   2166					; ERROR CODES RETURNED:
   2167					;
   2168					;	IFC -- ILLEGAL FUNCTION CODE.
   2169					;	FWF -- FUNCTION WRITE FAILED.
   2170					;-
   2171
   2172	001106				.DFWRT::
   2173	001106					CALL	.DFCOM		; DO COMMON CODE
	001106	004737 	000542'			 JSR	PC,.DFCOM
   2174	001112					CALL	.CKCOL		; CHECK END-OF-SYMBOL
	001112	004737 	000000G			 JSR	PC,.CKCOL
   2175	001116					CALL	.XFWCK		; SEE IF WE HAVE A GOOD WRITE CODE
	001116	004737 	001240'			 JSR	PC,.XFWCK
   2176	001122	005046 				CLR	-(SP)		; CLEAR A BUFFER ON THE STACK
   2177	001124	005046 				CLR	-(SP)		; .
   2178	001126	005046 				CLR	-(SP)		; ..
   2179	001130	010601 				MOV	SP,R1		; ...SAVE THE BUFFER POINTER
   2180	001132					PUSH 	R0		; ...SAVE THE WRITE CODE
	001132	010046 				 MOV	R0,-(SP)
   2181	001134	010100 				MOV	R1,R0		; ....POINT TO THE BUFFER
   2182	001136					CALL	.GTKLN		; ....READ THE DATA
	001136	004737 	000000G			 JSR	PC,.GTKLN
   2183	001142					CALL	.CKEOS		; ....CHECK SYMBOL END
	001142	004737 	000000G			 JSR	PC,.CKEOS
   2184	001146	010001 				MOV	R0,R1		; ....DATA POINTER TO R1
   2185	001150					POP	R0		; ....GET THE WRITE CODE
	001150	012600 				 MOV	(SP)+,R0
   2186	001152					CALL	.FWRIT		; ...DO THE WRITE
	001152	004737 	000000G			 JSR	PC,.FWRIT
   2187	001156	062706 	000006 			ADD	#^D6,SP		; ...RESET THE STACK
   2188	001162					CALLR	.RSTKL		; RESTORE THE KL AND EXIT
	001162	000137 	000000G			 JMP	.RSTKL
   2189						;
DFUNC -- KL10 DIAGNOSTIC FUNCTI	MACRO M1113  10-NOV-81 17:48  PAGE 52
.DFXCT -- DIAGNOSTIC FUNCTION EXECUTE 7602.15

   2191					.SBTTL	.DFXCT -- DIAGNOSTIC FUNCTION EXECUTE 7602.15
   2192
   2193					;+
   2194					; .DFXCT -- DIAGNOSTIC FUNCTION EXECUTE
   2195					;
   2196					; THIS SUBROUTINE WILL EXECUTE A DIAGNOSTIC FUNCTION EXECUTE.
   2197					;
   2198					; INPUT ARGUMENTS:
   2199					;
   2200					;	NONE.
   2201					;
   2202					; OUTPUT ARGUMENTS:
   2203					;
   2204					;	NONE.
   2205					;
   2206					; ERROR CODES RETURNED:
   2207					;
   2208					;	IFC -- ILLEGAL FUNCTION CODE.
   2209					;	FXF -- FUNCTION EXECUTE FAILED.
   2210					;-
   2211
   2212	001166				.DFXCT::
   2213	001166					CALL	.DFCOM		; DO COMMON CODE
	001166	004737 	000542'			 JSR	PC,.DFCOM
   2214	001172					CALL	.CKEOS		; CHECK SYMBOL END
	001172	004737 	000000G			 JSR	PC,.CKEOS
   2215	001176					CALL	.XFXCK		; CHECK THE FXCT CODE OUT
	001176	004737 	001256'			 JSR	PC,.XFXCK
   2216	001202					CALL	.FXCT		; DO THE FUNCTION EXECUTE
	001202	004737 	000000G			 JSR	PC,.FXCT
   2217	001206	122715 	000054 			CMPB	#',,(R5)	; [5.1014]IS THIS A LIST
   2218	001212	001002 				BNE	10$		; [5.1014]NO -- GO ON
   2219	001214	105725 				TSTB	(R5)+		; [5.1014]YES -- REMOVE COMMA
   2220	001216	000763 				BR	.DFXCT		; [5.1014]DO NEXT
   2221	001220				10$:	RETURN			; [5.1014]EXIT
	001220	000207 				 RTS	PC
   2222						;
DFUNC -- KL10 DIAGNOSTIC FUNCTI	MACRO M1113  10-NOV-81 17:48  PAGE 53
.XFXCK -- SUBROUTINES TO RANGE CHECK DIAG FUNCTIONS 7509.26

   2224					.SBTTL	.XFXCK -- SUBROUTINES TO RANGE CHECK DIAG FUNCTIONS 7509.26
   2225
   2226					;+
   2227					; .XFRCK -- SUBROUTINE TO RANGE CHECK FUNCTION READ CODES.
   2228					; .XFWCK -- SUBROUTINE TO RANGE CHECK FUNCTION WRITE CODES.
   2229					; .XFXCK -- SUBROUTINE TO RANGE CHECK FUNCTION EXECUTE CODES.
   2230					;
   2231					; THESE SUBROUTINES RANGE CHECK THE ARGUMENT CODES FOR THE FUNCTION
   2232					; READ, WRITE AND EXECUTE SUBROUTINES.
   2233					;
   2234					; INPUT ARGUMENTS:
   2235					;
   2236					;	R0 HOLDS THE FUNCTION CODE TO BE CHECKED
   2237					;
   2238					; OUTPUT ARGUMENTS:
   2239					;
   2240					;	NONE.
   2241					;
   2242					; ERROR CODES RETURNED:
   2243					;
   2244					;	IFC -- ILLEGAL FUNCTION CODE.
   2245					;	OFC -- ODD FUNCTION CODE.
   2246					;-
   2247
   2248						.ENABL	LSB
   2249
   2250	001222				.XFRCK::			; HERE TO CHECK FUNCTION READ CODE
   2251	001222	020027 	000200 			CMP	R0,#FR.100	; IS IT .LT. FR.100?
   2252	001226	103422 				BLO	FNCIFC		; NO -- ERROR
   2253	001230	020027 	000376 			CMP	R0,#FR.177	; YES -- IS IT .GT. FR.177?
   2254	001234	101017 				BHI	FNCIFC		; YES -- ERROR
   2255	001236	000412 				BR	10$		; NO -- SEE IF IT'S ODD
   2256						;
   2257	001240				.XFWCK::			; HERE TO CHECK FUNCTION WRITE CODE
   2258	001240	020027 	000100 			CMP	R0,#FW.040	; IS IT .LT. FW.040?
   2259	001244	103413 				BLO	FNCIFC		; NO -- ERROR
   2260	001246	020027 	000176 			CMP	R0,#FW.LAR	; YES -- IS IT .GT. FW.077?
   2261	001252	101010 				BHI	FNCIFC		; YES -- ERROR
   2262	001254	000403 				BR	10$		; NO -- SEE IF IT'S ODD
   2263						;
   2264	001256				.XFXCK::			; HERE TO CHECK FUNCTION EXECUTE CODE
   2265	001256	020027 	000076 			CMP	R0,#FX.037	; IS IT .GT. FX.037?
   2266	001262	101004 				BHI	FNCIFC		; YES -- ERROR
   2267	001264				10$:
   2268	001264	032700 	000001 			BIT	#BIT00,R0	; NO -- IS IT ODD?
   2269	001270	001004 				BNE	FNCOFC		; YES -- ERROR
   2270	001272					RETURN			; NO -- ALL OK, RETURN TO CALLER
	001272	000207 				 RTS	PC
   2271	001274				FNCIFC:
   2272	001274					ERROR$	IFC		; ERROR -- ILLEGAL FUNCTION CODE
	001274	012746 	034463 			 MOV	#^RIFC,-(SP)
	001300	104400 				 TRAP	TC.ERR
   2273						;
   2274	001302				FNCOFC:
   2275	001302					ERROR$	OFC		; ERROR -- ODD FUNCTION CODE
	001302	012746 	057263 			 MOV	#^ROFC,-(SP)
	001306	104400 				 TRAP	TC.ERR
DFUNC -- KL10 DIAGNOSTIC FUNCTI	MACRO M1113  10-NOV-81 17:48  PAGE 53-1
.XFXCK -- SUBROUTINES TO RANGE CHECK DIAG FUNCTIONS 7509.26

   2276						;
   2277
   2278						.DSABL	LSB
DISCC -- DISCONNECT COMMAND MOD	MACRO M1113  10-NOV-81 17:48  PAGE 55
.XFXCK -- SUBROUTINES TO RANGE CHECK DIAG FUNCTIONS 7509.26

   2281					.TITLE	DISCC -- DISCONNECT COMMAND MODULE 7702.28
   2282
   2283						.IDENT	"005000"
   2284					;
   2285					;                             COPYRIGHT (C) 1975, 1979 BY
   2286					;                     DIGITAL EQUIPMENT CORPORATION, MAYNARD MASS.
   2287					;
   2288					;       THIS SOFTWARE IS FURNISHED UNDER A LICENSE AND MAY BE  USED  AND  COPIED
   2289					;       ONLY IN ACCORDANCE WITH THE TERMS OF SUCH LICENSE AND WITH THE INCLUSION
   2290					;       OF THE ABOVE COPYRIGHT NOTICE.  THIS SOFTWARE OR ANY OTHER COPIES THERE-
   2291					;       OF  MAY NOT BE PROVIDED OR OTHERWISE MADE AVAILABLE TO ANY OTHER PERSON.
   2292					;       NO TITLE TO OR OWNERSHIP OF THE SOFTWARE IS HEREBY TRANSFERRED.
   2293					;
   2294					;       THE INFORMATION CONTAINED IN THIS SOFTWARE IS SUBJECT TO CHANGE  WITHOUT
   2295					;       NOTICE  AND SHOULD NOT BE CONSTRUED AS A COMMITMENT BY DIGITAL EQUIPMENT
   2296					;       CORPORATION.
   2297					;
   2298					;       DIGITAL ASSUMES NO RESPONSIBILITY FOR THE  USE  OR  RELIABILITY  OF  ITS
   2299					;       SOFTWARE ON EQUIPMENT WHICH IS NOT SUPPILED BY DIGITAL.
   2300					;
   2301					;		MODULE: DISCONNECT COMMAND
   2302					;
   2303					;		VERSION: 05-00
   2304					;
   2305					;		AUTHOR: R. BELANGER
   2306					;
   2307					;		DATE: 7702.28
   2308					;
   2309					;	THIS MODULE CONTAINS:
   2310					;
   2311					;	1) DISCONNECT COMMAND CODE
   2312
   2313						.MCALL	DIR$,RQST$
DISCC -- DISCONNECT COMMAND MOD	MACRO M1113  10-NOV-81 17:48  PAGE 56
.DISCC -- THE "DISCONNECT" COMMAND 7702.28

   2315					.SBTTL	.DISCC -- THE "DISCONNECT" COMMAND 7702.28
   2316
   2317					;+
   2318					;  .DISCC --  THE "DISCONNECT" COMMAND
   2319					;
   2320					; THIS SUBROUTINE CHECKS THE SYNTAX OF THE "DISCONNECT" COMMAND
   2321					; AND REQUESTS THE KLINIK DISCONNECT TASK, "KLDISC". THE KLINIK DISCONNECT
   2322					; TASK WILL THEN DISCONNECT THE KLINIK LINE, LOG THE DISCONNECT AND
   2323					; RETURN THE THE RSX20F COMMAND PARSER.
   2324					;
   2325					; INPUT ARGUMENTS:
   2326					;
   2327					;	NONE.
   2328					;
   2329					; OUTPUT ARGUMENTS:
   2330					;
   2331					;	NONE.
   2332					;
   2333					; ERROR CODES RETURNED:
   2334					;
   2335					;	NONE.
   2336					;-
   2337
   2338	001310				.DISCC::
   2339	001310					CALL	.CKEOC		; MUST HAVE E-O-C
	001310	004737 	000000G			 JSR	PC,.CKEOC
   2340	001314	112737 	000003 	000001G		MOVB	#3,.KLNSW+1	; FLAG DISCONNECT
   2342	001322					DIR$	#RQSKLD		; REQUEST DISCONNECT TASK
	001322	012746 	000000'			MOV	#RQSKLD,-(SP)
	001326	104375 				EMT	375
   2344	001330					CALLR	.EXITP		; GO AWAY FOR NOW
	001330	000137 	000000G			 JMP	.EXITP
   2345						;
   2346
   2347	000000					.PSECT	DPBS
   2348
   2349	000000				RQSKLD:
   2350	000000					RQST$	KLDISC,,10
	000000	   013 	   007 			.BYTE	11.,7
	000002	043244 	035473 			.RAD50	/KLDISC/
	000006	000000 	000000 			.WORD	0,0
	000012	000010 				.WORD	10
	000014	   000 	   000 			.BYTE	,
   2351
   2352	001334					.PSECT
   2353					.TITLE	EDELE -- DEPOSIT / EXAMINE ELEVEN COMMAND MODULE 7603.30
   2354
   2355						.IDENT	"006130"
   2356
   2357					;
   2358					;                             COPYRIGHT (C) 1975, 1979 BY
   2359					;                     DIGITAL EQUIPMENT CORPORATION, MAYNARD MASS.
   2360					;
   2361					;       THIS SOFTWARE IS FURNISHED UNDER A LICENSE AND MAY BE  USED  AND  COPIED
   2362					;       ONLY IN ACCORDANCE WITH THE TERMS OF SUCH LICENSE AND WITH THE INCLUSION
   2363					;       OF THE ABOVE COPYRIGHT NOTICE.  THIS SOFTWARE OR ANY OTHER COPIES THERE-
   2364					;       OF  MAY NOT BE PROVIDED OR OTHERWISE MADE AVAILABLE TO ANY OTHER PERSON.
EDELE -- DEPOSIT / EXAMINE ELEV	MACRO M1113  10-NOV-81 17:48  PAGE 56-1
.DISCC -- THE "DISCONNECT" COMMAND 7702.28

   2365					;       NO TITLE TO OR OWNERSHIP OF THE SOFTWARE IS HEREBY TRANSFERRED.
   2366					;
   2367					;       THE INFORMATION CONTAINED IN THIS SOFTWARE IS SUBJECT TO CHANGE  WITHOUT
   2368					;       NOTICE  AND SHOULD NOT BE CONSTRUED AS A COMMITMENT BY DIGITAL EQUIPMENT
   2369					;       CORPORATION.
   2370					;
   2371					;       DIGITAL ASSUMES NO RESPONSIBILITY FOR THE  USE  OR  RELIABILITY  OF  ITS
   2372					;       SOFTWARE ON EQUIPMENT WHICH IS NOT SUPPILED BY DIGITAL.
   2373					;
   2374					;		MODULE: DEPOSIT / EXAMINE ELEVEN COMMAND
   2375					;
   2376					;		VERSION: 06-13
   2377					;
   2378					;		AUTHOR: R. BELANGER
   2379					;
   2380					;		DATE: 7603.30
   2381					;
   2382					;	THIS MODULE CONTAINS:
   2383					;
   2384					;	1) DEPOSIT / EXAMINE ELEVEN COMMAND CODE
EDELE -- DEPOSIT / EXAMINE ELEV	MACRO M1113  10-NOV-81 17:48  PAGE 57
.DPOSE -- THE "DEPOSIT <ELEVEN>" COMMAND 7602.29

   2386					.SBTTL	.DPOSE -- THE "DEPOSIT <ELEVEN>" COMMAND 7602.29
   2387
   2388					;+
   2389					; .DPOSE -- THE "DEPOSIT <ELEVEN>" COMMAND.
   2390					;
   2391					; THIS SUBROUTINE WILL DEPOSIT THE DATA SPECIFIED INTO THE PDP-11
   2392					; ADDRESS SPECIFIED.
   2393					;
   2394					; INPUT ARGUMENTS:
   2395					;
   2396					;	NONE.
   2397					;
   2398					; OUTPUT ARGUMENTS:
   2399					;
   2400					;	THE PDP-11 ADDRESS DEPOSITED IS IN ".EDELA"
   2401					;	THE DATA DEPOSITED IS IN ".ELDDW".
   2402					;
   2403					; ERROR CODES RETURNED:
   2404					;
   2405					;	NONE.
   2406					;-
   2407
   2408	001334				.DPOSE::
   2409	001334					CALL	.CKARG		; SEE IF WE HAVE AN ARGUMENT
	001334	004737 	000000G			 JSR	PC,.CKARG
   2410	001340	002406 				BLT	10$		; NUMERIC -- GO AROUND TABLE SCAN
   2411	001342	012700 	000000G			MOV	#.DPETB,R0	; DEPOSIT EXTENSION TABLE POINTER TO R0
   2412	001346					CALL	.TSCAN		; SCAN IT
	001346	004737 	000000G			 JSR	PC,.TSCAN
   2413	001352					CALLR	@2(R0)		; DISPATCH FOR IT
	001352	000170 	000002 			 JMP	@2(R0)
   2414						;
   2415	001356				10$:
   2416	001356					CALL	.GTELN		; READ THE ADDRESS
	001356	004737 	000000G			 JSR	PC,.GTELN
   2417
   2418	001362	032700 	000001 			BIT	#BIT00,R0	; IS IT ODD?
   2419	001366	001050 				BNE	DPOOAI		; YES -- GIVE "OAI" ERROR
   2420	001370					PUSH	R0		; NO -- SAVE IT
	001370	010046 				 MOV	R0,-(SP)
   2421	001372					CALL	.CKCOL		; .CHECK SEPARATOR
	001372	004737 	000000G			 JSR	PC,.CKCOL
   2422	001376					CALL	.GTELN		; .READ THE DATA
	001376	004737 	000000G			 JSR	PC,.GTELN
   2423	001402	010001 				MOV	R0,R1		; .DATA TO R1
   2424	001404					POP	R0		; .ADDRESS TO R0
	001404	012600 				 MOV	(SP)+,R0
   2425
   2426					;	[CONTINUED ON THE FOLLOWING PAGE]
EDELE -- DEPOSIT / EXAMINE ELEV	MACRO M1113  10-NOV-81 17:48  PAGE 58
.DPOSE -- THE "DEPOSIT <ELEVEN>" COMMAND 7602.29

   2428					;	[CONTINUED FROM THE PREVIOUS PAGE]
   2429
   2430	001406				.DPSEE::			; EXTENDED DEPOSIT ENTRY POINT
   2431	001406					CALL	.CKEOC		; CHECK FOR E-O-C
	001406	004737 	000000G			 JSR	PC,.CKEOC
   2432	001412	032700 	000001 			BIT	#BIT00,R0	; IS THE ADDRESS ODD?
   2433	001416	001034 				BNE	DPOOAI		; YES -- GIVE "OAI" ERROR
   2434	001420					PUSH	R0		; NO -- SAVE THE ADDRESS
	001420	010046 				 MOV	R0,-(SP)
   2435	001422					PUSH	R1		; .AND THE DEPOSIT DATA
	001422	010146 				 MOV	R1,-(SP)
   2436	001424	010037 	000000G			MOV	R0,.EDELA	; ..LEAVE TRACKS
   2437	001430	010137 	000000G			MOV	R1,.ELDDW	; ..MORE TRACKS
   2438	001434	013737 	000000G	000000G		MOV	.TRP4V,.SSTTB	; ..SET UP TRAP AT 4 TRAP
   2439	001442	011001 				MOV	(R0),R1		; ..READ ORIGINAL CONTENTS
   2440	001444					CALL	.TYELA		; ..PRINT THE ADDRESS
	001444	004737 	000000G			 JSR	PC,.TYELA
   2441	001450	112700 	000134 			MOVB	#'\,R0		; ..BACK SLASH
   2442	001454					CALL	.TYCHR		; ..PRINT IT
	001454	004737 	000000G			 JSR	PC,.TYCHR
   2443	001460					CALL	.TYSPC		; ..AND A SPACE
	001460	004737 	000000G			 JSR	PC,.TYSPC
   2444	001464	010100 				MOV	R1,R0		; ..DATA TO R0
   2445	001466					CALL	.TYELN		; ..PRINT THAT
	001466	004737 	000000G			 JSR	PC,.TYELN
   2446	001472					POP	R1		; ..RESTORE DATA
	001472	012601 				 MOV	(SP)+,R1
   2447	001474					POP	R0		; .AND ADDRESS
	001474	012600 				 MOV	(SP)+,R0
   2448	001476	010110 				MOV	R1,(R0)		; DO THE DEPOSIT
   2449	001500	005037 	000000G			CLR	.SSTTB		; RESET TRAP AT 4 TRAP
   2450	001504					CALLR	.TCRLF		; TO CALLER
	001504	000137 	000000G			 JMP	.TCRLF
   2451						;
   2452	001510				DPOOAI:
   2453	001510					ERROR$	OAI		; ERROR -- ODD ADDRESS ILLEGAL
	001510	012746 	056761 			 MOV	#^ROAI,-(SP)
	001514	104400 				 TRAP	TC.ERR
   2454						;
EDELE -- DEPOSIT / EXAMINE ELEV	MACRO M1113  10-NOV-81 17:48  PAGE 59
.DPEWD -- THE "DEPOSIT <ELEVEN> <NUMERICAL OBJECT>" COMMAND 76

   2456					.SBTTL	.DPEWD -- THE "DEPOSIT <ELEVEN> <NUMERICAL OBJECT>" COMMAND 7602.29
   2457
   2458						.ENABL	LSB
   2459
   2460	001516				.DPEWT::			; DEPOSIT <ELEVEN> THIS
   2461	001516	013700 	000000G			MOV	.EDELA,R0	; ADDRESS TO R0
   2462	001522	000413 				BR	10$		; CHECK FOR ARGUMENTS
   2463						;
   2464	001524				.DPEWD::			; DEPOSIT <ELEVEN> DECREMENT
   2465	001524					CALL	.EDEWD		; DECREMENT THE ADDRESS
	001524	004737 	000370'			 JSR	PC,.EDEWD
   2466	001530	000410 				BR	10$		; EXIT THRU COMMON CODE
   2467						;
   2468	001532				.DPEWI::			; DEPOSIT <ELEVEN> INCREMENT
   2469	001532					CALL	.EDEWI		; INCREMENT THE ADDRESS
	001532	004737 	000402'			 JSR	PC,.EDEWI
   2470	001536	000405 				BR	10$		; EXIT THRU COMMON CODE
   2471						;
   2472	001540				.DPEWN::			; DEPOSIT <ELEVEN> NEXT
   2473	001540					CALL	.EDEWN		; GET THE NEXT ADDRESS
	001540	004737 	000402'			 JSR	PC,.EDEWN
   2474	001544	000402 				BR	10$		; EXIT THRU COMMON CODE
   2475						;
   2476	001546				.DPEWP::			; DEPOSIT <ELEVEN> PREVIOUS
   2477	001546					CALL	.EDEWP		; GET THE PREVIOUS ADDRESS
	001546	004737 	000370'			 JSR	PC,.EDEWP
   2478	001552				10$:
   2479	001552	122715 	000075 			CMPB	#'=,(R5)	; DOES AN ARGUMENT FOLLOW?
   2480	001556	001403 				BEQ	20$		; YES -- GO GET IT
   2481	001560	013701 	000000G			MOV	.ELDDW,R1	; NO -- USE OLD DATA
   2482	001564	000710 				BR	.DPSEE		; AND DO THE DEPOSIT
   2483						;
   2484	001566				20$:
   2485	001566	105725 				TSTB	(R5)+		; GET OVER THE COLON
   2486	001570					PUSH	R0		; SAVE THE ADDRESS
	001570	010046 				 MOV	R0,-(SP)
   2487	001572					CALL	.GTELN		; .READ THE DATA
	001572	004737 	000000G			 JSR	PC,.GTELN
   2488	001576	010001 				MOV	R0,R1		; .DATA TO R1
   2489	001600					POP	R0		; .ADDRESS TO R0
	001600	012600 				 MOV	(SP)+,R0
   2490	001602	000701 				BR	.DPSEE		; DO THE DEPOSIT
   2491						;
   2492
   2493						.DSABL	LSB
EDELE -- DEPOSIT / EXAMINE ELEV	MACRO M1113  10-NOV-81 17:48  PAGE 60
.EXAME -- THE "EXAMINE <ELEVEN>" COMMAND 7602.29

   2495					.SBTTL	.EXAME -- THE "EXAMINE <ELEVEN>" COMMAND 7602.29
   2496
   2497					;+
   2498					; .EXAME -- THE "EXAMINE <ELEVEN> COMMAND.
   2499					;
   2500					; THIS ROUTINE WILL EXAMINE AND DISPLAY THE CONTEN OF ONE PDP-11
   2501					; ELEVEN MEMORY LOCATION ON THE CONSOLE DEVICE.
   2502					;
   2503					; INPUT ARGUMENTS:
   2504					;
   2505					;	NONE.
   2506					;
   2507					; OUTPUT ARGUMENTS:
   2508					;
   2509					;	THE ADDRESS EXAMINED IS IN ".EDELA"
   2510					;	THE EXAMINED DATA IS IN ".ELEDW"
   2511					;
   2512					; ERROR CODES RETURNED:
   2513					;
   2514					;	NONE.
   2515					;-
   2516
   2517	001604				.EXAME::
   2518	001604					CALL	.CKARG		; SEE IF WE HAVE AN ARGUMENT
	001604	004737 	000000G			 JSR	PC,.CKARG
   2519	001610	002406 				BLT	10$		; NUMERIC -- GO AROUND TABLE SCAN
   2520	001612	012700 	000000G			MOV	#.EXETB,R0	; EXTENSION TABLE POINTER TO R0
   2521	001616					CALL	.TSCAN		; SCAN IT
	001616	004737 	000000G			 JSR	PC,.TSCAN
   2522	001622					CALLR	@2(R0)		; DO WHAT IS SAYS TO
	001622	000170 	000002 			 JMP	@2(R0)
   2523						;
   2524	001626				10$:
   2525	001626					CALL	.GTELN		; READ THE ADDRESS
	001626	004737 	000000G			 JSR	PC,.GTELN
   2526
   2527					;	[CONTINUED ON THE FOLLOWING PAGE]
EDELE -- DEPOSIT / EXAMINE ELEV	MACRO M1113  10-NOV-81 17:48  PAGE 61
.EXAME -- THE "EXAMINE <ELEVEN>" COMMAND 7602.29

   2529					;	[CONTINUED FROM THE PREVIOUS PAGE]
   2530
   2531	001632				.EXMEE::			; EXTENDED EXAMINE ENTRY POINT
   2532	001632	010037 	000066'			MOV	R0,STOPEX	; [5.1014]SAVE INITIAL ADDRESS
   2533	001636					CALL	.CKEOC		; CHECK FOR E-O-C
	001636	004737 	000000G			 JSR	PC,.CKEOC
   2534	001642	032700 	000001 		1$:	BIT	#BIT00,R0	; IS IT ODD?
   2535	001646	001101 				BNE	EXAOAI		; YES -- GIVE "OAI" ERROR
   2536	001650	013737 	000000G	000000G		MOV	.TRP4V,.SSTTB	; SET UP TRAP AT 4 TRAP
   2537	001656	010037 	000000G			MOV	R0,.EDELA	; .LEAVE SOME TRACKS
   2538	001662	011001 				MOV	(R0),R1		; DO THE EXAMINE
   2539	001664					PUSH	R0		; [5.1014]SAVE CURRENT ADDRESS
	001664	010046 				 MOV	R0,-(SP)
   2540	001666	005037 	000000G			CLR	.SSTTB		; RESET TRAP AT 4 TRAP
   2541	001672	010137 	000000G			MOV	R1,.ELEDW	; MORE TRACKS
   2542	001676					CALL	.TYELA		; TYPE THE ADDRESS
	001676	004737 	000000G			 JSR	PC,.TYELA
   2543	001702	112700 	000134 			MOVB	#'\,R0		; BACKSLASH
   2544	001706					CALL	.TYCHR		; TYPE IT
	001706	004737 	000000G			 JSR	PC,.TYCHR
   2545	001712					CALL	.TYSPC		; AND A SPACE
	001712	004737 	000000G			 JSR	PC,.TYSPC
   2546	001716	010100 				MOV	R1,R0		; DATA TO R0
   2547	001720					CALL	.TYELN		; TYPE THAT
	001720	004737 	000000G			 JSR	PC,.TYELN
   2548	001724					CALL	.TCRLF		; END THE LINE
	001724	004737 	000000G			 JSR	PC,.TCRLF
   2549	001730				5$:	POP	R0		; [5.1014]RESTORE ADDRESS
	001730	012600 				 MOV	(SP)+,R0
   2550	001732	005737 	000070'			TST	RNGEX		; [5.1014]RANGE IN PROGRESS?
   2551	001736	001406 				BEQ	7$		; [5.1014]NO -- GO ON
   2552	001740	020037 	000066'			CMP	R0,STOPEX	; [5.1014]YES -- DONE?
   2553	001744	001403 				BEQ	7$		; [5.1014]YES -- GO ON
   2554	001746	063700 	000072'			ADD	INCEX,R0	; [5.1014]NO -- NEXT ADDRESS
   2555	001752	000733 				BR	1$		; [5.1014]DO EXAMINE
   2556	001754	005037 	000070'		7$:	CLR	RNGEX		; [5.1014]CLEAR RANGE IN PROGRESS
   2557	001760	122715 	000054 			CMPB	#',,(R5)	; [5.1014]IS THIS A LIST?
   2558	001764	001002 				BNE	20$		; [5.1014]NO -- GO NO
   2559	001766	105725 				TSTB	(R5)+		; [5.1014]YES -- REMOVE COMMA
   2560	001770	000705 				BR	.EXAME		; [5.1014]DO NEXT
   2561	001772	122715 	000072 		20$:	CMPB	#':,(R5)	; [5.1014]IS THIS A RANGE?
   2562	001776	001024 				BNE	40$		; [5.1014]NO -- EXIT
   2563	002000	105725 				TSTB	(R5)+		; [5.1014]YES -- REMOVE COLON
   2564	002002					CALL	.GTELN		; [5.1014]GET FINAL ADDRESS
	002002	004737 	000000G			 JSR	PC,.GTELN
   2565	002006					CALL	.CKEOC		; [5.1014]CHECK END OF COMMAND
	002006	004737 	000000G			 JSR	PC,.CKEOC
   2566	002012	005237 	000070'			INC	RNGEX		; [5.1014]SET RANGE IN PROGRESS
   2567	002016	012737 	000002 	000072'		MOV	#2,INCEX	; [5.1014]SET FORWARD INCREMENT
   2568	002024	020037 	000066'			CMP	R0,STOPEX	; [5.1014]FORWARD INCREMENT?
   2569	002030	003002 				BGT	30$		; [5.1014]YES -- GO ON
   2570	002032	005437 	000072'			NEG	INCEX		; [5.1014]NO -- NEGATE INCREMENT
   2571	002036				30$:	PUSH	STOPEX		; [5.1014]SAVE INITIAL ADDRESS
	002036	013746 	000066'			 MOV	STOPEX,-(SP)
   2572	002042	010037 	000066'			MOV	R0,STOPEX	; [5.1014]SET FINAL VALUE
   2573	002046	000730 				BR	5$		; [5.1014]DO RANGE INCREMENT
   2574	002050				40$:	RETURN			; [5.1014]DONE
EDELE -- DEPOSIT / EXAMINE ELEV	MACRO M1113  10-NOV-81 17:48  PAGE 61-1
.EXAME -- THE "EXAMINE <ELEVEN>" COMMAND 7602.29

	002050	000207 				 RTS	PC
   2575						;
   2576	002052				EXAOAI:
   2577	002052					ERROR$	OAI		; ERROR -- ODD ADDRESS ILLEGAL
	002052	012746 	056761 			 MOV	#^ROAI,-(SP)
	002056	104400 				 TRAP	TC.ERR
   2578						;
   2579
   2580	000066				.PSECT	DATA
   2581
   2582	000066	000000 			STOPEX:	.WORD	0		; [5.1014]FINAL/FIRST EXAMINE ADDRESS
   2583	000070	000000 			RNGEX:	.WORD	0		; [5.1014]RANGE IN PROGRESS FLAG
   2584	000072	000000 			INCEX:	.WORD	0		; [5.1014]INCREMENT VALUE
   2585
   2586	002060				.PSECT
EDELE -- DEPOSIT / EXAMINE ELEV	MACRO M1113  10-NOV-81 17:48  PAGE 62
.EXEWD -- THE "EXAMINE <ELEVEN> <NUMERICAL OBJECT>" COMMAND 76

   2588					.SBTTL	.EXEWD -- THE "EXAMINE <ELEVEN> <NUMERICAL OBJECT>" COMMAND 7602.29
   2589
   2590						.ENABL	LSB
   2591
   2592	002060				.EXEWT::			; EXAMINE <ELEVEN> THIS
   2593	002060	013700 	000000G			MOV	.EDELA,R0	; ADDRESS TO R0
   2594	002064	000662 				BR	.EXMEE		; DO THE EXAMINE
   2595						;
   2596	002066				.EXEWD::			; EXAMINE <ELEVEN> DECREMENT
   2597	002066					CALL	.EDEWD		; DECREMENT IT
	002066	004737 	000370'			 JSR	PC,.EDEWD
   2598	002072	000657 				BR	.EXMEE		; DO THE EXAMINE
   2599						;
   2600	002074				.EXEWI::			; EXAMINE <ELEVEN> INCREMENT
   2601	002074					CALL	.EDEWI		; INCREMENT IT
	002074	004737 	000402'			 JSR	PC,.EDEWI
   2602	002100	000654 				BR	.EXMEE		; DO THE EXAMINE
   2603						;
   2604	002102				.EXEWN::			; EXAMINE <ELEVEN> NEXT
   2605	002102					CALL	.EDEWN		; GET THE NEXT ADDRESS
	002102	004737 	000402'			 JSR	PC,.EDEWN
   2606	002106	000651 				BR	.EXMEE		; DO THE EXAMINE
   2607						;
   2608	002110				.EXEWP::			; EXAMINE <ELEVEN> PREVIOUS
   2609	002110					CALL	.EDEWP		; GET THE PREVIOUS ADDRESS
	002110	004737 	000370'			 JSR	PC,.EDEWP
   2610	002114	000646 				BR	.EXMEE		; DO THE EXAMINE
   2611						;
   2612
   2613						.DSABL	LSB
EDTEN -- DEPOSIT / EXAMINE TEN 	MACRO M1113  10-NOV-81 17:48  PAGE 64
.EXEWD -- THE "EXAMINE <ELEVEN> <NUMERICAL OBJECT>" COMMAND 76

   2616					.TITLE	EDTEN -- DEPOSIT / EXAMINE TEN COMMAND MODULE 7603.21
   2617
   2618						.IDENT	"006130"
   2619
   2620					;
   2621					;                             COPYRIGHT (C) 1975, 1979 BY
   2622					;                     DIGITAL EQUIPMENT CORPORATION, MAYNARD MASS.
   2623					;
   2624					;       THIS SOFTWARE IS FURNISHED UNDER A LICENSE AND MAY BE  USED  AND  COPIED
   2625					;       ONLY IN ACCORDANCE WITH THE TERMS OF SUCH LICENSE AND WITH THE INCLUSION
   2626					;       OF THE ABOVE COPYRIGHT NOTICE.  THIS SOFTWARE OR ANY OTHER COPIES THERE-
   2627					;       OF  MAY NOT BE PROVIDED OR OTHERWISE MADE AVAILABLE TO ANY OTHER PERSON.
   2628					;       NO TITLE TO OR OWNERSHIP OF THE SOFTWARE IS HEREBY TRANSFERRED.
   2629					;
   2630					;       THE INFORMATION CONTAINED IN THIS SOFTWARE IS SUBJECT TO CHANGE  WITHOUT
   2631					;       NOTICE  AND SHOULD NOT BE CONSTRUED AS A COMMITMENT BY DIGITAL EQUIPMENT
   2632					;       CORPORATION.
   2633					;
   2634					;       DIGITAL ASSUMES NO RESPONSIBILITY FOR THE  USE  OR  RELIABILITY  OF  ITS
   2635					;       SOFTWARE ON EQUIPMENT WHICH IS NOT SUPPILED BY DIGITAL.
   2636					;
   2637					;		MODULE: DEPOSIT / EXAMINE TEN COMMAND
   2638					;
   2639					;		VERSION: 06-13
   2640					;
   2641					;		AUTHOR: R. BELANGER
   2642					;
   2643					;		DATE: 7603.21
   2644					;
   2645					;	THIS MODULE CONTAINS:
   2646					;
   2647					;	1) DEPOSIT / EXAMINE TEN COMMAND CODE
EDTEN -- DEPOSIT / EXAMINE TEN 	MACRO M1113  10-NOV-81 17:48  PAGE 65
.DEPAR -- THE "DEPOSIT AR" COMMAND 7603.21

   2649					.SBTTL	.DEPAR -- THE "DEPOSIT AR" COMMAND 7603.21
   2650
   2651					;+
   2652					; .DEPAR -- THE "DEPOSIT AR" COMMAND.
   2653					;
   2654					; THIS ROUTINE WILL DEPOSIT THE DATA SPECIFIED INTO THE KL AR REGISTER.
   2655					;
   2656					; INPUT ARGUMENTS:
   2657					;
   2658					;	NONE.
   2659					;
   2660					; OUTPUT ARGUMENTS:
   2661					;
   2662					;	NONE.
   2663					;
   2664					; ERROR CODES RETURNED:
   2665					;
   2666					;	NONE.
   2667					;-
   2668
   2669	002116				.DEPAR::
   2670	002116					CALL	.CKRUN		; SEE IF THE KL IS RUNNING
	002116	004737 	000000G			 JSR	PC,.CKRUN
   2671	002122					CALL	.CKCOL		; CHECK FOR A COLON
	002122	004737 	000000G			 JSR	PC,.CKCOL
   2672	002126	005046 				CLR	-(SP)		; CLEAR A BUFFER ON THE STACK
   2673	002130	005046 				CLR	-(SP)		; .
   2674	002132	005046 				CLR	-(SP)		; ..
   2675	002134	010600 				MOV	SP,R0		; ...POINT TO IT
   2676	002136					CALL	.GTNUM		; ...READ A NUMBER
	002136	004737 	000000G			 JSR	PC,.GTNUM
   2677	002142					CALL	.CKEOC		; ...CHECK FOR E-O-C
	002142	004737 	000000G			 JSR	PC,.CKEOC
   2678	002146					PUSH	.KLFLG		; ...SAVE ".KLFLG"
	002146	013746 	000000G			 MOV	.KLFLG,-(SP)
   2679	002152	032716 	100000 			BIT	#KF.CLK,(SP)	; ....IS THE CLOCK RUNNING?
   2680	002156	001402 				BEQ	10$		; ....NO -- GO ON
   2681	002160					CALL	.KLHLT		; ....STOP THE KL - DEAD
	002160	004737 	000000G			 JSR	PC,.KLHLT
   2682	002164				10$:
   2683	002164	010001 				MOV	R0,R1		; ....DATA POINTER TO R1
   2684	002166					CALL	.WRTAR		; ....WRITE THE AR
	002166	004737 	000000G			 JSR	PC,.WRTAR
   2685	002172					POP	.SVKLF		; ....SET UP ".SVKLF"
	002172	012637 	000000G			 MOV	(SP)+,.SVKLF
   2686	002176	062706 	000006 			ADD	#^D6,SP		; ...RESET THE STACK
   2687	002202					CALLR	.KLRST		; RESTART THE KL AND EXIT
	002202	000137 	000000G			 JMP	.KLRST
   2688						;
EDTEN -- DEPOSIT / EXAMINE TEN 	MACRO M1113  10-NOV-81 17:48  PAGE 66
.DPOST -- THE "DEPOSIT <TEN>" COMMAND 7602.15

   2690					.SBTTL	.DPOST -- THE "DEPOSIT <TEN>" COMMAND 7602.15
   2691
   2692					;+
   2693					; .DPOST -- THE "DEPOSIT <TEN>" COMMAND.
   2694					;
   2695					; THIS SUBROUTINE WILL DEPOSIT THE DATA SPECIFIED INTO THE DESIRED
   2696					; KL MEMORY LOCATION.
   2697					;
   2698					; INPUT ARGUMENTS:
   2699					;
   2700					;	NONE.
   2701					;
   2702					; OUTPUT ARGUMENTS:
   2703					;
   2704					;	THE ADDRESS DEPOSITED IS IN ".EDKLA"
   2705					;	THE DATA DEPOSITED IS IN ".DPBFR"
   2706					;
   2707					; ERROR CODES RETURNED:
   2708					;
   2709					;	APE -- KL APR ERROR
   2710					;	DMF -- DEPOSIT KL MEMORY FAILED
   2711					;	ESD -- EBOX STOPPED - DEPOSIT
   2712					;	KLA -- KL ADDRESS ERROR
   2713					;	KCN -- KL CLOCK NOT RUNNING
   2714					;	MRA -- MISSING REQUIRED ARGUMENT
   2715					;	NOR -- NUMBER OUT OF RANGE.
   2716					;	VFY -- VERIFY FAILED
   2717					;-
   2718
   2719	002206				.DPOST::
   2720	002206					CALL	.CKARG		; SEE IF AN ARGUMENT FOLLOWS
	002206	004737 	000000G			 JSR	PC,.CKARG
   2721	002212	002406 				BLT	10$		; NUMERIC -- GO AROUND TABLE SCAN
   2722	002214	012700 	000000G			MOV	#.DPETB,R0	; EXTENSION TABLE POINTER TO R0
   2723	002220					CALL	.TSCAN		; SCAN IT
	002220	004737 	000000G			 JSR	PC,.TSCAN
   2724	002224					CALLR	@2(R0)		; DO WHAT IT SAYS TO
	002224	000170 	000002 			 JMP	@2(R0)
   2725						;
   2726	002230				10$:
   2727	002230	012700 	000000G			MOV	#.EDKLX,R0	; ADDRESS POINTER TO R0
   2728	002234					CALL	.GTKLA		; READ THE ADDRESS
	002234	004737 	000000G			 JSR	PC,.GTKLA
   2729	002240					CALL	.CKCOL		; CHECK FOR A COLON
	002240	004737 	000000G			 JSR	PC,.CKCOL
   2730	002244	010001 				MOV	R0,R1		; GOT IT, SAVE THE POINTER
   2731	002246	012700 	000000G			MOV	#.DPBFX,R0	; DATA POINTER TO R0
   2732	002252					CALL	.GTKLN		; READ THE DATA
	002252	004737 	000000G			 JSR	PC,.GTKLN
   2733
   2734					;	[CONTINUED ON THE FOLLOWING PAGE]
EDTEN -- DEPOSIT / EXAMINE TEN 	MACRO M1113  10-NOV-81 17:48  PAGE 67
.DPOST -- THE "DEPOSIT <TEN>" COMMAND 7602.15

   2736					;	[CONTINUED FROM THE PREVIOUS PAGE]
   2737
   2738	002256				.DPSTE::			; EXTENDED DEPOSIT ENTRY POINT
   2739	002256					CALL	.CKEOC		; CHECK E-O-C CHARACTER
	002256	004737 	000000G			 JSR	PC,.CKEOC
   2740	002262	032737 	100000 	000000G		BIT	#KF.CLK,.KLFLG	; IS THE CLOCK RUNNING?
   2741	002270	001510 				BEQ	DPOKCN		; NO -- GIVE "KCN" ERROR
   2742	002272	012702 	000000G			MOV	#.EDKLA,R2	; ADDRESS BUFFER POINTER TO R2
   2743	002276	012122 				MOV	(R1)+,(R2)+	; LOAD THE NEW ADDRESS
   2744	002300	012122 				MOV	(R1)+,(R2)+	; INTO THE ADDRESS BUFFER
   2745	002302	011112 				MOV	(R1),(R2)	; SO
   2746	002304	024242 				CMP	-(R2),-(R2)	; BACK THE POINTER UP
   2747	002306	010201 				MOV	R2,R1		; PUT IT IN R1
   2748	002310	012702 	000000G			MOV	#.DPBFR,R2	; DEPOSIT DATA POINTER TO R2
   2749	002314	012022 				MOV	(R0)+,(R2)+	; LOAD THE NEW DATA
   2750	002316	012022 				MOV	(R0)+,(R2)+	; INTO THE DEPOSIT DATA BUFFER
   2751	002320	011012 				MOV	(R0),(R2)	; SO
   2752	002322	024242 				CMP	-(R2),-(R2)	; BACK THE POINTER UP
   2753	002324					PUSH	R2		; SAVE THE DATA POINTER
	002324	010246 				 MOV	R2,-(SP)
   2754	002326					PUSH	R1		; .AND THE ADDRESS POINTER
	002326	010146 				 MOV	R1,-(SP)
   2755	002330	010600 				MOV	SP,R0		; ..SAVE THE POINTER TO THE BLOCK
   2756	002332					PUSH	R0		; ..SO
	002332	010046 				 MOV	R0,-(SP)
   2757	002334					PUSH	#.EXBFR		; ...POINT TO EXAMINE BUFFER
	002334	012746 	000000G			 MOV	#.EXBFR,-(SP)
   2758	002340					PUSH	R1		; ....FOR THIS ADDRESS
	002340	010146 				 MOV	R1,-(SP)
   2759	002342	010601 				MOV	SP,R1		; .....POINT TO THE BLOCK
   2760	002344	012700 	000200 			MOV	#ED.PHY,R0	; .....PHYSICAL REFERENCE
   2761	002350					CALL	.EXKLM		; .....EXAMINE IT FIRST
	002350	004737 	000000G			 JSR	PC,.EXKLM
   2762	002354					POP	R0		; .....GET THE ADDRESS POINTER
	002354	012600 				 MOV	(SP)+,R0
   2763	002356					CALL	.TYKLA		; ....PRINT IT
	002356	004737 	000000G			 JSR	PC,.TYKLA
   2764	002362					CALL	.TYSLS		; ....AND A <SLASH>
	002362	004737 	000000G			 JSR	PC,.TYSLS
   2765	002366					CALL	.TYSPC		; ....NOW A <SPACE>
	002366	004737 	000000G			 JSR	PC,.TYSPC
   2766	002372					POP	R0		; ....GET THE DATA POINTER
	002372	012600 				 MOV	(SP)+,R0
   2767	002374					CALL	.TYKLN		; ...TYPE THE DATA
	002374	004737 	000000G			 JSR	PC,.TYKLN
   2768	002400					CALL	.TCRLF		; ...AND A <CRLF>
	002400	004737 	000000G			 JSR	PC,.TCRLF
   2769
   2770					;	[CONTINUED ON THE FOLLOWING PAGE]
EDTEN -- DEPOSIT / EXAMINE TEN 	MACRO M1113  10-NOV-81 17:48  PAGE 68
.DPOST -- THE "DEPOSIT <TEN>" COMMAND 7602.15

   2772					;	[CONTINUED FROM THE PREVIOUS PAGE]
   2773
   2774	002404					POP	R1		; ...POINT TO THE DEPOSIT BLOCK
	002404	012601 				 MOV	(SP)+,R1
   2775	002406	012700 	000200 			MOV	#ED.PHY,R0	; ..PHYSICAL REFERENCE
   2776	002412					CALL	.DPKLM		; ..DO THE DEPOSIT
	002412	004737 	000000G			 JSR	PC,.DPKLM
   2777	002416	005737 	000000G			TST	.VFYFL		; ..VERIFY THE DEPOSIT?
   2778	002422	001426 				BEQ	20$		; ..NO -- JUST EXIT
   2779	002424	012766 	000000G	000002 		MOV	#.EXBFR,2(SP)	; ..YES -- CHANGE THE BUFFER POINTER
   2780	002432	012700 	000200 			MOV	#ED.PHY,R0	; ..PHYSICAL REFERENCE
   2781	002436					CALL	.EXKLM		; ..EXAMINE IT
	002436	004737 	000000G			 JSR	PC,.EXKLM
   2782	002442	012700 	000000G			MOV	#.DPBFR,R0	; ..DEPOSITED DATA
   2783	002446	012701 	000000G			MOV	#.EXBFR,R1	; ..EXAMINED DATA
   2784	002452					CALL	.TPCMP		; ..SEE IF THEY COMPARE
	002452	004737 	000000G			 JSR	PC,.TPCMP
   2785	002456	001020 				BNE	DPOVFE		; ..NO -- COMPLAIN
   2786	002460					CALL	.STPKL		; ..STOP THE KL
	002460	004737 	000000G			 JSR	PC,.STPKL
   2787	002464					CALL	.RDAPR		; ..SEE IF THERE ARE ANY APR ERRORS
	002464	004737 	003236'			 JSR	PC,.RDAPR
   2788	002470					CALL	.RSTKL		; ..RESTART THE KL
	002470	004737 	000000G			 JSR	PC,.RSTKL
   2789	002474	005700 				TST	R0		; ..ARE THERE ANY ERRORS?
   2790	002476	001002 				BNE	DPOAPE		; ..YES -- COMPLAIN
   2791	002500				20$:
   2792	002500	022626 				CMP	(SP)+,(SP)+	; ..CLEAR THE STACK
   2793	002502					RETURN			; TO CALLER
	002502	000207 				 RTS	PC
   2794	002504				DPOAPE:
   2795	002504					ERROR$	APE		; ERROR -- KL APR ERROR
	002504	012746 	004305 			 MOV	#^RAPE,-(SP)
	002510	104400 				 TRAP	TC.ERR
   2796						;
   2797	002512				DPOKCN:
   2798	002512					ERROR$	KCN		; ERROR -- KL CLOCK NOT RUNNING
	002512	012746 	042506 			 MOV	#^RKCN,-(SP)
	002516	104400 				 TRAP	TC.ERR
   2799						;
   2800	002520				DPOVFE:
   2801	002520					ERROR$	VFY		; ERROR -- VERIFY FAILED
	002520	012746 	105211 			 MOV	#^RVFY,-(SP)
	002524	104400 				 TRAP	TC.ERR
   2802						;
EDTEN -- DEPOSIT / EXAMINE TEN 	MACRO M1113  10-NOV-81 17:48  PAGE 69
.DPKLD -- THE "DEPOSIT <TEN> <NUMERICAL OBJECT>" COMMAND 7602.

   2804					.SBTTL	.DPKLD -- THE "DEPOSIT <TEN> <NUMERICAL OBJECT>" COMMAND 7602.29
   2805
   2806						.ENABL	LSB
   2807
   2808	002526				.DPKLT::			; DEPOSIT <TEN> THIS
   2809	002526	012700 	000000G			MOV	#.EDKLX,R0	; ADDRESS POINTER TO R0
   2810	002532	000413 				BR	10$		; CHECK FOR ARGUMENTS
   2811						;
   2812	002534				.DPKLD::			; DEPOSIT <TEN> DECREMENT
   2813	002534					CALL	.EDKLD		; DO THE DECREMENT
	002534	004737 	000440'			 JSR	PC,.EDKLD
   2814	002540	000410 				BR	10$		; EXIT THRU COMMON CODE
   2815						;
   2816	002542				.DPKLI::			; DEPOSIT <TEN> INCREMENT
   2817	002542					CALL	.EDKLI		; DO THE INCREMENT
	002542	004737 	000456'			 JSR	PC,.EDKLI
   2818	002546	000405 				BR	10$		; EXIT THRU COMMON CODE
   2819						;
   2820	002550				.DPKLN::			; DEPOSIT <TEN> NEXT
   2821	002550					CALL	.EDKLN		; GO GET NEXT ADDRESS
	002550	004737 	000426'			 JSR	PC,.EDKLN
   2822	002554	000402 				BR	10$		; EXIT THRU COMMON CODE
   2823						;
   2824	002556				.DPKLP::			; DEPOSIT <TEN> PREVIOUS
   2825	002556					CALL	.EDKLP		; GO GET PREVIOUS ADDRESS
	002556	004737 	000414'			 JSR	PC,.EDKLP
   2826	002562				10$:
   2827	002562	010001 				MOV	R0,R1		; ADDRESS POINTER TO R1
   2828	002564	122715 	000075 			CMPB	#'=,(R5)	; IS THERE AN ARGUMENT FOLLOWING?
   2829	002570	001403 				BEQ	20$		; YES -- GO GET IT
   2830	002572	012700 	000000G			MOV	#.DPBFX,R0	; NO -- USE OLD DATA
   2831	002576	000627 				BR	.DPSTE		; AND DO THE DEPOSIT
   2832						;
   2833	002600				20$:
   2834	002600	105725 				TSTB	(R5)+		; GET OVER THE COLON
   2835	002602	012700 	000000G			MOV	#.DPBFX,R0	; POINT TO THE DATA BUFFER
   2836	002606					CALL	.GTKLN		; GET A NUMBER
	002606	004737 	000000G			 JSR	PC,.GTKLN
   2837	002612	000621 				BR	.DPSTE		; DO THE DEPOSIT
   2838						;
   2839
   2840						.DSABL	LSB
EDTEN -- DEPOSIT / EXAMINE TEN 	MACRO M1113  10-NOV-81 17:48  PAGE 70
.EXAMT -- THE "EXAMINE <TEN>" COMMAND 7602.05

   2842					.SBTTL	.EXAMT -- THE "EXAMINE <TEN>" COMMAND 7602.05
   2843
   2844					;+
   2845					; .EXAMT -- THE "EXAMINE <TEN>" COMMAND.
   2846					;
   2847					; THIS SUBROUTINE READS A KL ADDRESS, EXAMINES THAT ADDRESS,
   2848					; AND PRINTS THE CONTENT OF THAT ADDRESS.
   2849					;
   2850					; INPUT ARGUMENTS:
   2851					;
   2852					;	NONE.
   2853					;
   2854					; OUTPUT ARGUMENTS:
   2855					;
   2856					;	NONE.
   2857					;
   2858					; ERROR CODES RETURNED:
   2859					;
   2860					;	EMF -- EXAMINE MEMORY FAILED.
   2861					;	ESE -- EBOX STOPPED - EXAMINE
   2862					;	KLA -- KL ADDRESS ERROR
   2863					;	KCN -- KL CLOCK NOT RUNNING
   2864					;	MRA -- MISSING REQUIRED ARGUMENT
   2865					;-
   2866
   2867	002614				.EXAMT::
   2868	002614					CALL	.CKARG		; SEE IF WE HAVE AN ARGUMENT
	002614	004737 	000000G			 JSR	PC,.CKARG
   2869	002620	002406 				BLT	10$		; NUMERIC -- GO AROUND TABLE SCAN
   2870	002622	012700 	000000G			MOV	#.EXETB,R0	; EXTENSION TABLE POINTER TO R0
   2871	002626					CALL	.TSCAN		; SCAN THE TABLE
	002626	004737 	000000G			 JSR	PC,.TSCAN
   2872	002632					CALLR	@2(R0)		; DO WHAT IT SAYS TO
	002632	000170 	000002 			 JMP	@2(R0)
   2873						;
   2874	002636				10$:
   2875	002636	012700 	000000G			MOV	#.EDKLX,R0	; POINT TO ADDRESS BUFFER
   2876	002642					CALL	.GTKLA		; GO GET THE ADDRESS
	002642	004737 	000000G			 JSR	PC,.GTKLA
   2877
   2878					;	[CONTINUED ON THE FOLLOWING PAGE]
EDTEN -- DEPOSIT / EXAMINE TEN 	MACRO M1113  10-NOV-81 17:48  PAGE 71
.EXAMT -- THE "EXAMINE <TEN>" COMMAND 7602.05

   2880					;	[CONTINUED FROM THE PREVIOUS PAGE]
   2881
   2882	002646				.EXMTE::			; EXTENDED EXAMINE ENTRY POINT
   2883	002646					CALL	.CKEOC		; CHECK E-O-C CHARACTER
	002646	004737 	000000G			 JSR	PC,.CKEOC
   2884	002652	012037 	000074'			MOV	(R0)+,STOPTX	; [5.1014]SAVE INITIAL ADDRESS
   2885	002656	012037 	000076'			MOV	(R0)+,STOPTX+2	; [5.1014]SAVE INITIAL ADDRESS
   2886	002662	011037 	000100'			MOV	(R0),STOPTX+4	; [5.1014]SAVE INITIAL ADDRESS
   2887	002666	024040 				CMP	-(R0),-(R0)	; [5.1014]RESTORE POINTER
   2888	002670	032737 	100000 	000000G	1$:	BIT	#KF.CLK,.KLFLG	; IS THE KL CLOCK ON?
   2889	002676	001535 				BEQ	EXTKCN		; NO -- GIVE "KCN" ERROR
   2890	002700					PUSH	R0		; [5.1014]YES -- SAVE ADDRESS POINTER
	002700	010046 				 MOV	R0,-(SP)
   2891	002702					PUSH	#.EXBFR		; SAVE THE DATA POINTER
	002702	012746 	000000G			 MOV	#.EXBFR,-(SP)
   2892	002706	012702 	000000G			MOV	#.EDKLA,R2	; .ADDRESS BUFFER POINTER TO R2
   2893	002712	012022 				MOV	(R0)+,(R2)+	; .LOAD THE NEW ADDRESS
   2894	002714	012022 				MOV	(R0)+,(R2)+	; .INTO THE ADDRESS BUFFER
   2895	002716	011012 				MOV	(R0),(R2)	; .SO
   2896	002720	024242 				CMP	-(R2),-(R2)	; .BACK THE POINTER UP
   2897	002722					PUSH	R2		; .ADDRESS POINTER
	002722	010246 				 MOV	R2,-(SP)
   2898	002724	010601 				MOV	SP,R1		; ..POINT TO THE DATA BLOCK
   2899	002726	012700 	000200 			MOV	#ED.PHY,R0	; ..PHYSICAL REFERENCE
   2900	002732					CALL	.EXKLM		; ..DO THE EXAMINE
	002732	004737 	000000G			 JSR	PC,.EXKLM
   2901	002736					POP	R0		; ..POINT TO THE ADDRESS
	002736	012600 				 MOV	(SP)+,R0
   2902	002740					CALL	.TYKLA		; .PRINT THE ADDRESS
	002740	004737 	000000G			 JSR	PC,.TYKLA
   2903	002744					CALL	.TYSLS		; .TYPE A SLASH
	002744	004737 	000000G			 JSR	PC,.TYSLS
   2904	002750					CALL	.TYSPC		; .AND A SPACE
	002750	004737 	000000G			 JSR	PC,.TYSPC
   2905	002754					POP	R0		; .POINT TO THE DATA
	002754	012600 				 MOV	(SP)+,R0
   2906	002756					CALL	.TYKLN		; PRINT THE DATA
	002756	004737 	000000G			 JSR	PC,.TYKLN
   2907	002762					CALL	.TCRLF		; AND END THE LINE
	002762	004737 	000000G			 JSR	PC,.TCRLF
   2908	002766					POP	R0		; [5.1014]RESTORE ADDRESS POINTER
	002766	012600 				 MOV	(SP)+,R0
   2909	002770	005737 	000110'		5$:	TST	RNGTX		; [5.1014]RANGE IN PROGRESS?
   2910	002774	001412 				BEQ	7$		; [5.1014]NO -- GO ON
   2911	002776	012701 	000074'			MOV	#STOPTX,R1	; [5.1014]YES -- FINAL ADDRESS
   2912	003002					CALL	.TPCMP		; [5.1014]DONE?
	003002	004737 	000000G			 JSR	PC,.TPCMP
   2913	003006	001405 				BEQ	7$		; [5.1014]YES -- GO ON
   2914	003010	012701 	000102'			MOV	#INCTX,R1	; [5.1014]NO -- POINT TO INCREMENT
   2915	003014					CALL	.TPADD		; [5.1014]INCREMENT ADDRESS
	003014	004737 	000000G			 JSR	PC,.TPADD
   2916	003020	000723 				BR	1$		; [5.1014]EXAMINE NEXT ADDRESS
   2917	003022	005037 	000110'		7$:	CLR	RNGTX		; [5.1014]CLEAR RANGE IN PROGRESS FLAG
   2918	003026	122715 	000054 			CMPB	#',,(R5)	; [5.1014]IS THIS A LIST?
   2919	003032	001002 				BNE	20$		; [5.1014]NO -- GO NO
   2920	003034	105725 				TSTB	(R5)+		; [5.1014]YES -- REMOVE COMMA
   2921	003036	000666 				BR	.EXAMT		; [5.1014]DO NEXT
EDTEN -- DEPOSIT / EXAMINE TEN 	MACRO M1113  10-NOV-81 17:48  PAGE 71-1
.EXAMT -- THE "EXAMINE <TEN>" COMMAND 7602.05

   2922	003040	122715 	000072 		20$:	CMPB	#':,(R5)	; [5.1014]IS THIS A RANGE?
   2923	003044	001051 				BNE	40$		; [5.1014]NO -- GO ON
   2924	003046	105725 				TSTB	(R5)+		; [5.1014]YES -- REMOVE COLON
   2925	003050					CALL	.GTKLA		; [5.1014]GET FINAL ADDRESS
	003050	004737 	000000G			 JSR	PC,.GTKLA
   2926	003054					CALL	.CKEOC		; [5.1014]CHECK FOR END OF COMMAND
	003054	004737 	000000G			 JSR	PC,.CKEOC
   2927	003060	005237 	000110'			INC	RNGTX		; [5.1014]SET RANGE IN PROGRESS
   2928	003064	012737 	000001 	000102'		MOV	#1,INCTX	; [5.1014]SET FORWARD RANGE
   2929	003072	005037 	000104'			CLR	INCTX+2		; [5.1014]CLEAR INCREMENT
   2930	003076	005037 	000106'			CLR	INCTX+4		; [5.1014]CLEAR INCREMENT
   2931	003102	012701 	000074'			MOV	#STOPTX,R1	; [5.1014]INITIAL ADDRESS POINTER
   2932	003106					CALL	.TPCMP		; [5.1014]FORWARD RANGE?
	003106	004737 	000000G			 JSR	PC,.TPCMP
   2933	003112	003006 				BGT	30$		; [5.1014]YES -- GO ON
   2934	003114					PUSH	R0		; [5.1014]NO -- SAVE FINAL ADDRESS
	003114	010046 				 MOV	R0,-(SP)
   2935	003116	012700 	000102'			MOV	#INCTX,R0	; [5.1014]RANGE INCREMENT
   2936	003122					CALL	.TPNEG		; [5.1014]NEGATE IT
	003122	004737 	000000G			 JSR	PC,.TPNEG
   2937	003126					POP	R0		; [5.1014]RESTORE ADDRESS
	003126	012600 				 MOV	(SP)+,R0
   2938	003130				30$:	PUSH	STOPTX		; [5.1014]SAVE INITIAL ADDRESS
	003130	013746 	000074'			 MOV	STOPTX,-(SP)
   2939	003134					PUSH	STOPTX+2	; [5.1014]SAVE INITIAL ADDRESS
	003134	013746 	000076'			 MOV	STOPTX+2,-(SP)
   2940	003140					PUSH	STOPTX+4	; [5.1014]SAVE INITIAL ADDRESS
	003140	013746 	000100'			 MOV	STOPTX+4,-(SP)
   2941	003144	012037 	000074'			MOV	(R0)+,STOPTX	; [5.1014]SET FINAL ADDRESS
   2942	003150	012037 	000076'			MOV	(R0)+,STOPTX+2	; [5.1014]SET FINAL ADDRESS
   2943	003154	012037 	000100'			MOV	(R0)+,STOPTX+4	; [5.1014]SET FINAL ADDRESS
   2944	003160					POP	-(R0)		; [5.1014]SET INITIAL ADDRESS
	003160	012640 				 MOV	(SP)+,-(R0)
   2945	003162					POP	-(R0)		; [5.1014]SET INITIAL ADDRESS
	003162	012640 				 MOV	(SP)+,-(R0)
   2946	003164					POP	-(R0)		; [5.1014]SET INITIAL ADDRESS
	003164	012640 				 MOV	(SP)+,-(R0)
   2947	003166	000700 				BR	5$		; [5.1014]DO INCREMENT
   2948	003170				40$:	RETURN			; [5.1014]EXIT
	003170	000207 				 RTS	PC
   2949						;
   2950	003172				EXTKCN:
   2951	003172					ERROR$	KCN		; ERROR -- KL CLOCK NOT RUNNING
	003172	012746 	042506 			 MOV	#^RKCN,-(SP)
	003176	104400 				 TRAP	TC.ERR
   2952						;
   2953
   2954	000074				.PSECT	DATA
   2955
   2956	000074	000000 	000000 	000000 	STOPTX:	.WORD	0,0,0		; [5.1014]FINAL/FIRST ADDRESS
   2957	000102	000000 	000000 	000000 	INCTX:	.WORD	0,0,0		; [5.1014]RANGE INCREMENT
   2958	000110	000000 			RNGTX:	.WORD	0		; [5.1014]RANGE IN PROGRESS FLAG
   2959
   2960	003200				.PSECT
EDTEN -- DEPOSIT / EXAMINE TEN 	MACRO M1113  10-NOV-81 17:48  PAGE 72
.EXKLD -- THE "DEPOSIT <TEN> <NUMERICAL OBJECT>" COMMAND 7609.

   2962					.SBTTL	.EXKLD -- THE "DEPOSIT <TEN> <NUMERICAL OBJECT>" COMMAND 7609.10
   2963
   2964						.ENABL	LSB
   2965
   2966	003200				.EXKLT::			; EXAMINE <TEN> THIS
   2967	003200	012700 	000000G			MOV	#.EDKLA,R0	; ADDRESS POINTER TO R0
   2968	003204	000620 				BR	.EXMTE		; DO THE EXAMINE
   2969						;
   2970	003206				.EXKLD::			; EXAMINE <TEN> DECREMENT
   2971	003206					CALL	.EDKLD		; DECREMENT IT
	003206	004737 	000440'			 JSR	PC,.EDKLD
   2972	003212	000615 				BR	.EXMTE		; DO THE EXAMINE
   2973						;
   2974	003214				.EXKLI::			; EXAMINE <TEN> INCREMENT
   2975	003214					CALL	.EDKLI		; INCREMENT IT
	003214	004737 	000456'			 JSR	PC,.EDKLI
   2976	003220	000612 				BR	.EXMTE		; DO THE EXAMINE
   2977						;
   2978	003222				.EXKLN::			; EXAMINE <TEN> NEXT
   2979	003222					CALL	.EDKLN		; GET NEXT ADDRESS
	003222	004737 	000426'			 JSR	PC,.EDKLN
   2980	003226	000607 				BR	.EXMTE		; DO THE EXAMINE
   2981						;
   2982	003230				.EXKLP::			; EXAMINE <TEN> PREVIOUS
   2983	003230					CALL	.EDKLP		; GET THE PREVIOUS ADDDRESS
	003230	004737 	000414'			 JSR	PC,.EDKLP
   2984	003234	000604 				BR	.EXMTE		; DO THE EXAMINE
   2985						;
   2986
   2987						.DSABL	LSB
EDTEN -- DEPOSIT / EXAMINE TEN 	MACRO M1113  10-NOV-81 17:48  PAGE 73
.RDAPR -- SUBROUTINE TO READ THE STATE OF THE KL APR 7509.24

   2989					.SBTTL	.RDAPR -- SUBROUTINE TO READ THE STATE OF THE KL APR 7509.24
   2990
   2991					;+
   2992					; .RDAPR -- SUBROUTINE TO READ THE STATE OF THE KL APR.
   2993					;
   2994					; THIS SUBROUTINE READS THE ERROR STATE OF THE KL APR AND RETURNS
   2995					; THAT ERROR STATE IN R0 AND ".APRWD".
   2996					;
   2997					; THE FORMAT OF THE DATA RETURNED IS:
   2998					;
   2999					;	AP.PWF -- BIT00 -- [APR PWR FAIL IN H] -- POWER FAIL
   3000					;	AP.SAP -- BIT01 -- [APR S ADR P ERR IN H] -- SBUS ADR PARITY ERROR
   3001					;	AP.CDP -- BIT02 -- [APR C DIR P ERR IN H] -- CACHE DIR PARITY ERROR
   3002					;	AP.MPE -- BIT03 -- [APR MB PAR ERR IN H] -- MB PARITY ERROR
   3003					;	AP.IPF -- BIT04 -- [APR I/O PF ERR IN H] -- I/O PAGE FAIL ERROR
   3004					;	AP.NXM -- BIT05 -- [APR NXM ERR IN H] -- NON-EX-MEMORY ERROR
   3005					;	AP.SBE -- BIT06 -- [APR SBUS ERR IN H] -- SBUS ERROR
   3006					;
   3007					; INPUT ARGUMENTS:
   3008					;
   3009					;	NONE.
   3010					;
   3011					; OUTPUT ARGUMENTS:
   3012					;
   3013					;	R0 CONTAINS A COPY OF THE KL APR ERROR FLAGS
   3014					;	".APRWD" CONTAINS A COPY OF THE KL APR ERROR FLAGS
   3015					;
   3016					; ERROR CODES RETURNED:
   3017					;
   3018					;	FRF -- FUNCTION READ FAILED.
   3019					;-
   3020
   3021	003236				.RDAPR::
   3022	003236					PUSH	R1		; SAVE R1 ON THE STACK
	003236	010146 				 MOV	R1,-(SP)
   3023	003240	005001 				CLR	R1		; .CLEAR R1
   3024	003242	012700 	000220 			MOV	#FR.APR,R0	; .FR TO READ APR ERRORS
   3025	003246					CALL	.FREAD		; .READ APR ERRORS
	003246	004737 	000000G			 JSR	PC,.FREAD
   3026	003252	012701 	177751 			MOV	#-^D23,R1	; .SHIFT COUNT TO R1
   3027	003256					CALL	.TPSHI		; .SHIFT ERROR BITS INTO POSITION
	003256	004737 	000000G			 JSR	PC,.TPSHI
   3028	003262	042710 	177600 			BIC	#177600,(R0)	; .FLUSH UNWANTED BITS
   3029	003266	011037 	000000G			MOV	(R0),.APRWD	; .SAVE THE WORD
   3030	003272	011000 				MOV	(R0),R0		; .PUT A COPY IN R0
   3031	003274					POP	R1		; .RESTORE R1
	003274	012601 				 MOV	(SP)+,R1
   3032	003276					RETURN			; AND GO AWAY
	003276	000207 				 RTS	PC
   3033						;
EXCTC -- EXECUTE (XCT) COMMAND 	MACRO M1113  10-NOV-81 17:48  PAGE 75
.RDAPR -- SUBROUTINE TO READ THE STATE OF THE KL APR 7509.24

   3036					.TITLE	EXCTC -- EXECUTE (XCT) COMMAND MODULE 7603.30
   3037
   3038						.IDENT	"005000"
   3039					;
   3040					;                             COPYRIGHT (C) 1975, 1979 BY
   3041					;                     DIGITAL EQUIPMENT CORPORATION, MAYNARD MASS.
   3042					;
   3043					;       THIS SOFTWARE IS FURNISHED UNDER A LICENSE AND MAY BE  USED  AND  COPIED
   3044					;       ONLY IN ACCORDANCE WITH THE TERMS OF SUCH LICENSE AND WITH THE INCLUSION
   3045					;       OF THE ABOVE COPYRIGHT NOTICE.  THIS SOFTWARE OR ANY OTHER COPIES THERE-
   3046					;       OF  MAY NOT BE PROVIDED OR OTHERWISE MADE AVAILABLE TO ANY OTHER PERSON.
   3047					;       NO TITLE TO OR OWNERSHIP OF THE SOFTWARE IS HEREBY TRANSFERRED.
   3048					;
   3049					;       THE INFORMATION CONTAINED IN THIS SOFTWARE IS SUBJECT TO CHANGE  WITHOUT
   3050					;       NOTICE  AND SHOULD NOT BE CONSTRUED AS A COMMITMENT BY DIGITAL EQUIPMENT
   3051					;       CORPORATION.
   3052					;
   3053					;       DIGITAL ASSUMES NO RESPONSIBILITY FOR THE  USE  OR  RELIABILITY  OF  ITS
   3054					;       SOFTWARE ON EQUIPMENT WHICH IS NOT SUPPILED BY DIGITAL.
   3055					;
   3056					;		MODULE: EXECUTE COMMAND
   3057					;
   3058					;		VERSION: 05-00
   3059					;
   3060					;		AUTHOR: R. BELANGER
   3061					;
   3062					;		DATE: 7603.30
   3063					;
   3064					;	THIS MODULE CONTAINS:
   3065					;
   3066					;	1) EXECUTE COMMAND CODE
EXCTC -- EXECUTE (XCT) COMMAND 	MACRO M1113  10-NOV-81 17:48  PAGE 76
.EXCTC -- THE "XCT" (EXECUTE) COMMAND 7602.17

   3068					.SBTTL	.EXCTC -- THE "XCT" (EXECUTE) COMMAND 7602.17
   3069
   3070					;+
   3071					; .EXCTC -- THE "XCT" (EXECUTE) COMMAND
   3072					;
   3073					; THIS ROUTINE SIMULATES THE "XCT" SWITCH OF THE KL CONSOLE.
   3074					;
   3075					; INPUT ARGUMENTS:
   3076					;
   3077					; 	R0 POINTS TO THE KL INSTRUCTION TO BE EXECUTED.
   3078					;
   3079					; OUTPUT ARGUMENTS:
   3080					;
   3081					;	NONE.
   3082					;
   3083					; ERROR CODES RETURNED:
   3084					;
   3085					;	IOC -- ILLEGAL KL OPCODE.
   3086					;	MRA -- MISSING REQUIRED ARGUMENT.
   3087					;	XTO -- KL EXECUTE TIMED OUT.
   3088					;-
   3089
   3090	003300				.EXCTC::			; HERE FROM PARSER
   3091	003300	005046 				CLR	-(SP)		; CLEAR A BUFFER ON THE STACK
   3092	003302	005046 				CLR	-(SP)		; .
   3093	003304	005046 				CLR	-(SP)		; ..
   3094	003306	010600 				MOV	SP,R0		; ...POINT TO IT
   3095	003310					CALL	.GTKLN		; ...READ THE INSTRUCTION
	003310	004737 	000000G			 JSR	PC,.GTKLN
   3096	003314					CALL	.CKEOC		; ...CHECK E-O-C CHARACTER
	003314	004737 	000000G			 JSR	PC,.CKEOC
   3097	003320	032760 	000017 	000004 		BIT	#17,4(R0)	; ...CHECK HIGH PART OF OPCODE
   3098	003326	001005 				BNE	10$		; ...OK -- GO ON
   3099	003330	032760 	174000 	000002 		BIT	#^C3777,2(R0)	; ...CHECK LOW PART OF OPCODE
   3100	003336	001403 				BEQ	EXCIOC		; ...NONE THERE -- GIVE "IOC" ERROR
   3101	003340	010600 				MOV	SP,R0		; ...POINT TO THE INSTRUCTION
   3102	003342				10$:
   3103	003342					CALLR	.EXECT		; ...ALL OK -- GO DO IT
	003342	000137 	000000G			 JMP	.EXECT
   3104						;
   3105	003346				EXCIOC:
   3106	003346					ERROR$	IOC		; ERROR -- ILLEGAL OPCODE
	003346	012746 	035233 			 MOV	#^RIOC,-(SP)
	003352	104400 				 TRAP	TC.ERR
   3107						;
EXDTE -- EXAMINE DTE-20 REGISTE	MACRO M1113  10-NOV-81 17:48  PAGE 77
.EXCTC -- THE "XCT" (EXECUTE) COMMAND 7602.17

   3109					.TITLE	EXDTE -- EXAMINE DTE-20 REGISTERS COMMAND
   3110
   3111						.IDENT	"006110"
   3112					;
   3113					;                             COPYRIGHT (C) 1979 BY
   3114					;                     DIGITAL EQUIPMENT CORPORATION, MAYNARD MASS.
   3115					;
   3116					;       THIS SOFTWARE IS FURNISHED UNDER A LICENSE AND MAY BE  USED  AND  COPIED
   3117					;       ONLY IN ACCORDANCE WITH THE TERMS OF SUCH LICENSE AND WITH THE INCLUSION
   3118					;       OF THE ABOVE COPYRIGHT NOTICE.  THIS SOFTWARE OR ANY OTHER COPIES THERE-
   3119					;       OF  MAY NOT BE PROVIDED OR OTHERWISE MADE AVAILABLE TO ANY OTHER PERSON.
   3120					;       NO TITLE TO OR OWNERSHIP OF THE SOFTWARE IS HEREBY TRANSFERRED.
   3121					;
   3122					;       THE INFORMATION CONTAINED IN THIS SOFTWARE IS SUBJECT TO CHANGE  WITHOUT
   3123					;       NOTICE  AND SHOULD NOT BE CONSTRUED AS A COMMITMENT BY DIGITAL EQUIPMENT
   3124					;       CORPORATION.
   3125					;
   3126					;       DIGITAL ASSUMES NO RESPONSIBILITY FOR THE  USE  OR  RELIABILITY  OF  ITS
   3127					;       SOFTWARE ON EQUIPMENT WHICH IS NOT SUPPILED BY DIGITAL.
   3128					;
   3129					;		MODULE: EXAMINE DTE-20 COMMAND
   3130					;
   3131					;		VERSION: 06-11
   3132					;
   3133					;		AUTHOR: K. LEFEBVRE
   3134					;
   3135					;		DATE: 24-SEP-79
   3136					;
   3137					;	THIS MODULE CONTAINS:
   3138					;
   3139					;	1) EXAMINE DTE-20 REGISTERS COMMAND
   3140
   3141						.MCALL	.INH6,.ENB6
EXDTE -- EXAMINE DTE-20 REGISTE	MACRO M1113  10-NOV-81 17:48  PAGE 78
.EXDTE -- THE "EXAMINE DTE-20" COMMAND 7603.20

   3143					.SBTTL	.EXDTE -- THE "EXAMINE DTE-20" COMMAND 7603.20
   3144
   3145					;+
   3146					; .EXDTE -- THE "EXAMINE DTE-20" COMMAND.
   3147					;
   3148					; THIS ROUTINE WILL READ AND DISPLAY THE CONTENTS OF ALL THE DTE-20
   3149					; REGISTERS ON THE CONSOLE DEVICE.
   3150					;
   3151					;	THIS ROUTINE TYPES OUT ALL THE REGISTERS IN THE NEW FORMAT
   3152					;	AS WAS REQUIRED FOR TCO 5.1001
   3153					;
   3154					; INPUT ARGUMENTS:
   3155					;
   3156					;	NONE.
   3157					;
   3158					; OUTPUT ARGUMENTS:
   3159					;
   3160					;	NONE.
   3161					;
   3162					; ERROR CODES RETURNED:
   3163					;
   3164					;	NONE.
   3165					;-
   3166
   3167	003354				.EXDTE::
   3168	003354					CALL	.CKEOC		; CHECK E-O-C
	003354	004737 	000000G			 JSR	PC,.CKEOC
   3169	003360					CALLR	TYPDTE		; TYPE OUT DTE REGISTERS
	003360	000137 	003364'			 JMP	TYPDTE
EXDTE -- EXAMINE DTE-20 REGISTE	MACRO M1113  10-NOV-81 17:48  PAGE 79
TYPDTE -- TYPE OUT DTE REGISTERS SYMBOLICALLY

   3171					.SBTTL	TYPDTE -- TYPE OUT DTE REGISTERS SYMBOLICALLY
   3172
   3173					;+
   3174					; TYPDTE -- TYPE OUT DTE-20 REGISTERS SYMBOLLICALLY
   3175					;
   3176					; THIS ROUTINE WILL TYPE OUT THE CONTENTS OF ALL THE DTE-20 REGISTERS
   3177					; IN OCTAL AND WILL ALSO DECODE SOME OF THEM.
   3178					;
   3179					;	THIS ROUTINE WAS ADDED FOR TCO 5.1001
   3180					;
   3181					; INPUT ARGUMENTS:
   3182					;
   3183					;	NONE
   3184					;
   3185					; OUTPUT ARGUMENTS:
   3186					;
   3187					;	NONE
   3188					;
   3189					; ERROR CODES RETURNED:
   3190					;
   3191					;	NONE
   3192					;-
   3193
   3194	003364				TYPDTE:
   3195	003364	013700 	000000G			MOV	.PRDTE,R0	; DTE BASE REGISTER ADDRESS
   3196	003370	012701 	000112'			MOV	#DTEBUF,R1	; DTE REGISTER SAVE BUFFER
   3197	003374	012702 	000020 			MOV	#16.,R2		; REGISTER COUNT
   3199	003400					.INH6			; INHIBIT INTERRUPTS
	003400	013746 	177776 			MOV	@#PS,-(SP)
	003404	112737 	000300 	177776 		MOVB	#300,@#PS
   3201	003412	012021 			10$:	MOV	(R0)+,(R1)+	; SAVE DTE REGISTERS
   3202	003414	077202 				SOB	R2,10$		; DONE?
   3204	003416					.ENB6			; ENABLE INTERRUPTS
	003416	012637 	177776 			MOV	(SP)+,@#PS
   3206	003422	005002 				CLR	R2		; REGISTER COUNT
   3207	003424	016200 	000152'		20$:	MOV	DTEREG(R2),R0	; HEADER ADDRESS
   3208	003430					CALL	.TYMSG		; TYPE HEADER
	003430	004737 	000000G			 JSR	PC,.TYMSG
   3209	003434	016200 	000112'			MOV	DTEBUF(R2),R0	; REGISTER CONTENTS
   3210	003440					CALL	.TYELN		; TYPE VALUE
	003440	004737 	000000G			 JSR	PC,.TYELN
   3211	003444					CALL	@SYMTAB(R2)	; TYPE  CONTENTS SYMBOLLICALLY
	003444	004772 	000212'			 JSR	PC,@SYMTAB(R2)
   3212	003450	005722 				TST	(R2)+		; NEXT REGISTER
   3213	003452	020227 	000036 			CMP	R2,#30.		; DONE?
   3214	003456	003762 				BLE	20$		; NO
   3215	003460					RETURN			; YES
	003460	000207 				 RTS	PC
   3216
   3217	000112				.PSECT	DATA
   3218
   3219	000112				DTEBUF:	.BLKW	16.		; REGISTER BUFFER
   3220
   3221	000152				DTEREG:				; HEADER TEXT POINTERS
   3222	000152	000004'				.WORD	HDDLY
   3223	000154	000016'				.WORD	HDDEX3
   3224	000156	000032'				.WORD	HDDEX2
EXDTE -- EXAMINE DTE-20 REGISTE	MACRO M1113  10-NOV-81 17:48  PAGE 79-1
TYPDTE -- TYPE OUT DTE REGISTERS SYMBOLICALLY

   3225	000160	000046'				.WORD	HDDEX1
   3226	000162	000062'				.WORD	HDTAD1
   3227	000164	000076'				.WORD	HDTAD2
   3228	000166	000111'				.WORD	HDT10B
   3229	000170	000125'				.WORD	HDT11B
   3230	000172	000140'				.WORD	HDT10A
   3231	000174	000154'				.WORD	HDT11A
   3232	000176	000167'				.WORD	HDT10D
   3233	000200	000203'				.WORD	HDT11D
   3234	000202	000216'				.WORD	HDDAG1
   3235	000204	000232'				.WORD	HDDAG2
   3236	000206	000246'				.WORD	HDSTAT
   3237	000210	000262'				.WORD	HDDAG3
   3238
   3239	000212				SYMTAB:				; SYMBOLIC TYPE ROUTINES
   3240	000212	000252'				.WORD	NOOP			; DLYCNT
   3241	000214	000252'				.WORD	NOOP			; DEXWD3
   3242	000216	000252'				.WORD	NOOP			; DEXWD2
   3243	000220	003520'				.WORD	TYPDX1			; DEXWD1
   3244	000222	000252'				.WORD	NOOP			; TENAD1
   3245	000224	003570'				.WORD	TYPAD2			; TENAD2
   3246	000226	000252'				.WORD	NOOP			; TO10BC
   3247	000230	000252'				.WORD	NOOP			; TO11BC
   3248	000232	000252'				.WORD	NOOP			; TO10AD
   3249	000234	000252'				.WORD	NOOP			; TO11AD
   3250	000236	000252'				.WORD	NOOP			; TO10DT
   3251	000240	000252'				.WORD	NOOP			; TO11DT
   3252	000242	004012'				.WORD	TYPDG1			; DIAG1
   3253	000244	000252'				.WORD	NOOP			; DIAG2
   3254	000246	003462'				.WORD	STATYP			; STATUS
   3255	000250	004064'				.WORD	TYPDG3			; DIAG3
   3256
   3257	000252				NOOP:	RETURN			; NO SYMBOLIC TYPE OUT
	000252	000207 				 RTS	PC
   3258
   3259	000004				.PSECT	MESSAG
   3260
   3261	000004	   040 	   104 	   114 	HDDLY:	.ASCIZ/ DLYCNT: /
	000007	   131 	   103 	   116
	000012	   124 	   072 	   040
	000015	   000
   3262	000016	   015 	   012 	   040 	HDDEX3:	.ASCIZ<15><12>/ DEXWD3: /
	000021	   104 	   105 	   130
	000024	   127 	   104 	   063
	000027	   072 	   040 	   000
   3263	000032	   015 	   012 	   040 	HDDEX2:	.ASCIZ<15><12>/ DEXWD2: /
	000035	   104 	   105 	   130
	000040	   127 	   104 	   062
	000043	   072 	   040 	   000
   3264	000046	   015 	   012 	   040 	HDDEX1:	.ASCIZ<15><12>/ DEXWD1: /
	000051	   104 	   105 	   130
	000054	   127 	   104 	   061
	000057	   072 	   040 	   000
   3265	000062	   015 	   012 	   040 	HDTAD1:	.ASCIZ<15><12>/ TENAD1: /
	000065	   124 	   105 	   116
	000070	   101 	   104 	   061
	000073	   072 	   040 	   000
EXDTE -- EXAMINE DTE-20 REGISTE	MACRO M1113  10-NOV-81 17:48  PAGE 79-2
TYPDTE -- TYPE OUT DTE REGISTERS SYMBOLICALLY

   3266	000076	   040 	   040 	   124 	HDTAD2:	.ASCIZ/  TENAD2: /
	000101	   105 	   116 	   101
	000104	   104 	   062 	   072
	000107	   040 	   000
   3267	000111	   015 	   012 	   040 	HDT10B:	.ASCIZ<15><12>/ TO10BC: /
	000114	   124 	   117 	   061
	000117	   060 	   102 	   103
	000122	   072 	   040 	   000
   3268	000125	   040 	   040 	   124 	HDT11B:	.ASCIZ/  TO11BC: /
	000130	   117 	   061 	   061
	000133	   102 	   103 	   072
	000136	   040 	   000
   3269	000140	   015 	   012 	   040 	HDT10A:	.ASCIZ<15><12>/ TO10AD: /
	000143	   124 	   117 	   061
	000146	   060 	   101 	   104
	000151	   072 	   040 	   000
   3270	000154	   040 	   040 	   124 	HDT11A:	.ASCIZ/  TO11AD: /
	000157	   117 	   061 	   061
	000162	   101 	   104 	   072
	000165	   040 	   000
   3271	000167	   015 	   012 	   040 	HDT10D:	.ASCIZ<15><12>/ TO10DT: /
	000172	   124 	   117 	   061
	000175	   060 	   104 	   124
	000200	   072 	   040 	   000
   3272	000203	   040 	   040 	   124 	HDT11D:	.ASCIZ/  TO11DT: /
	000206	   117 	   061 	   061
	000211	   104 	   124 	   072
	000214	   040 	   000
   3273	000216	   015 	   012 	   040 	HDDAG1:	.ASCIZ<15><12>/ DIAG1 : /
	000221	   104 	   111 	   101
	000224	   107 	   061 	   040
	000227	   072 	   040 	   000
   3274	000232	   015 	   012 	   040 	HDDAG2:	.ASCIZ<15><12>/ DIAG2 : /
	000235	   104 	   111 	   101
	000240	   107 	   062 	   040
	000243	   072 	   040 	   000
   3275	000246	   015 	   012 	   040 	HDSTAT:	.ASCIZ<15><12>/ STATUS: /
	000251	   123 	   124 	   101
	000254	   124 	   125 	   123
	000257	   072 	   040 	   000
   3276	000262	   015 	   012 	   040 	HDDAG3:	.ASCIZ<15><12>/ DIAG3 : /
	000265	   104 	   111 	   101
	000270	   107 	   063 	   040
	000273	   072 	   040 	   000
   3277
   3278	003462				.PSECT
EXDTE -- EXAMINE DTE-20 REGISTE	MACRO M1113  10-NOV-81 17:48  PAGE 80
STATYP -- SYMBOLIC STATUS REGISTER TYPE OUT

   3280					.SBTTL	STATYP -- SYMBOLIC STATUS REGISTER TYPE OUT
   3281
   3282					;	THIS ROUTINE WAS ADDED FOR TCO 5.1001
   3283
   3284	003462				STATYP:
   3285	003462	016203 	000112'			MOV	DTEBUF(R2),R3	; DTE REGISTER CONTENTS
   3286	003466	012701 	000254'			MOV	#STATAB,R1	; FIRST MESSAGE PTR
   3287	003472	005703 			10$:	TST	R3		; REGISTER=0
   3288	003474	001410 				BEQ	30$		; YES-DONE
   3289	003476	006303 				ASL	R3		; SHIFT HIGH BIT TO CARRY
   3290	003500	103003 				BCC	20$		; BIT CLEAR?
   3291	003502	011100 				MOV	@R1,R0		; POINT TO MESSAGE
   3292	003504					CALL	.TYMSG		; NO-TYPE MESSAGE
	003504	004737 	000000G			 JSR	PC,.TYMSG
   3293	003510	062701 	000002 		20$:	ADD	#2,R1		; ADDRESS NEXT MESSAGE
   3294	003514	000766 				BR	10$		; CHECK NEXT BIT
   3295	003516				30$:	RETURN			; EXIT
	003516	000207 				 RTS	PC
   3296
   3297	000254				.PSECT	DATA
   3298
   3299	000254				STATAB:				; STATUS MESSAGE TABLE
   3300	000254	000276'				.WORD	STA15
   3301	000256	000334'				.WORD	STA14
   3302	000260	000357'				.WORD	STA13
   3303	000262	000414'				.WORD	STA12
   3304	000264	000436'				.WORD	STA11
   3305	000266	000475'				.WORD	STA10
   3306	000270	000515'				.WORD	STA9
   3307	000272	000551'				.WORD	STA8
   3308	000274	000610'				.WORD	STA7
   3309	000276	000641'				.WORD	STA6
   3310	000300	000666'				.WORD	STA5
   3311	000302	000727'				.WORD	STA4
   3312	000304	000757'				.WORD	STA3
   3313	000306	001004'				.WORD	STA2
   3314	000310	001036'				.WORD	STA1
   3315	000312	001100'				.WORD	STA0
   3316
   3317	000276				.PSECT	MESSAG
   3318
   3319	000276	   015 	   012 	   040 	STA15:	.ASCIZ<15><12>/   TO 10 NORMAL TERMINATION/
	000301	   040 	   040 	   124
	000304	   117 	   040 	   061
	000307	   060 	   040 	   116
	000312	   117 	   122 	   115
	000315	   101 	   114 	   040
	000320	   124 	   105 	   122
	000323	   115 	   111 	   116
	000326	   101 	   124 	   111
	000331	   117 	   116 	   000
   3320	000334	   015 	   012 	   040 	STA14:	.ASCIZ<15><12>/   BIT 14 UNUSED/
	000337	   040 	   040 	   102
	000342	   111 	   124 	   040
	000345	   061 	   064 	   040
	000350	   125 	   116 	   125
	000353	   123 	   105 	   104
EXDTE -- EXAMINE DTE-20 REGISTE	MACRO M1113  10-NOV-81 17:48  PAGE 80-1
STATYP -- SYMBOLIC STATUS REGISTER TYPE OUT

	000356	   000
   3321	000357	   015 	   012 	   040 	STA13:	.ASCIZ<15><12>/   TO 10 ERROR TERMINATION/
	000362	   040 	   040 	   124
	000365	   117 	   040 	   061
	000370	   060 	   040 	   105
	000373	   122 	   122 	   117
	000376	   122 	   040 	   124
	000401	   105 	   122 	   115
	000404	   111 	   116 	   101
	000407	   124 	   111 	   117
	000412	   116 	   000
   3322	000414	   015 	   012 	   040 	STA12:	.ASCIZ<15><12>/   RAM IS ZEROS/
	000417	   040 	   040 	   122
	000422	   101 	   115 	   040
	000425	   111 	   123 	   040
	000430	   132 	   105 	   122
	000433	   117 	   123 	   000
   3323	000436	   015 	   012 	   040 	STA11:	.ASCIZ<15><12>/   10 REQUESTED 11 INTERRUPT/
	000441	   040 	   040 	   061
	000444	   060 	   040 	   122
	000447	   105 	   121 	   125
	000452	   105 	   123 	   124
	000455	   105 	   104 	   040
	000460	   061 	   061 	   040
	000463	   111 	   116 	   124
	000466	   105 	   122 	   122
	000471	   125 	   120 	   124
	000474	   000
   3324	000475	   015 	   012 	   040 	STA10:	.ASCIZ<15><12>/   DEX WORD 1/
	000500	   040 	   040 	   104
	000503	   105 	   130 	   040
	000506	   127 	   117 	   122
	000511	   104 	   040 	   061
	000514	   000
   3325	000515	   015 	   012 	   040 	STA9:	.ASCIZ<15><12>/   11 MEMORY PARITY ERROR/
	000520	   040 	   040 	   061
	000523	   061 	   040 	   115
	000526	   105 	   115 	   117
	000531	   122 	   131 	   040
	000534	   120 	   101 	   122
	000537	   111 	   124 	   131
	000542	   040 	   105 	   122
	000545	   122 	   117 	   122
	000550	   000
   3326	000551	   015 	   012 	   040 	STA8:	.ASCIZ<15><12>/   11 REQUESTED 10 INTERRUPT/
	000554	   040 	   040 	   061
	000557	   061 	   040 	   122
	000562	   105 	   121 	   125
	000565	   105 	   123 	   124
	000570	   105 	   104 	   040
	000573	   061 	   060 	   040
	000576	   111 	   116 	   124
	000601	   105 	   122 	   122
	000604	   125 	   120 	   124
	000607	   000
   3327	000610	   015 	   012 	   040 	STA7:	.ASCIZ<15><12>/   TO 11 TRANSFER DONE/
	000613	   040 	   040 	   124
EXDTE -- EXAMINE DTE-20 REGISTE	MACRO M1113  10-NOV-81 17:48  PAGE 80-2
STATYP -- SYMBOLIC STATUS REGISTER TYPE OUT

	000616	   117 	   040 	   061
	000621	   061 	   040 	   124
	000624	   122 	   101 	   116
	000627	   123 	   106 	   105
	000632	   122 	   040 	   104
	000635	   117 	   116 	   105
	000640	   000
   3328	000641	   015 	   012 	   040 	STA6:	.ASCIZ<15><12>/   E BUFFER SELECT/
	000644	   040 	   040 	   105
	000647	   040 	   102 	   125
	000652	   106 	   106 	   105
	000655	   122 	   040 	   123
	000660	   105 	   114 	   105
	000663	   103 	   124 	   000
   3329	000666	   015 	   012 	   040 	STA5:	.ASCIZ<15><12>/   TO 11 TRANSFER STOP BY NULL/
	000671	   040 	   040 	   124
	000674	   117 	   040 	   061
	000677	   061 	   040 	   124
	000702	   122 	   101 	   116
	000705	   123 	   106 	   105
	000710	   122 	   040 	   123
	000713	   124 	   117 	   120
	000716	   040 	   102 	   131
	000721	   040 	   116 	   125
	000724	   114 	   114 	   000
   3330	000727	   015 	   012 	   040 	STA4:	.ASCIZ<15><12>/   E BUS PARITY ERROR/
	000732	   040 	   040 	   105
	000735	   040 	   102 	   125
	000740	   123 	   040 	   120
	000743	   101 	   122 	   111
	000746	   124 	   131 	   040
	000751	   105 	   122 	   122
	000754	   117 	   122 	   000
   3331	000757	   015 	   012 	   040 	STA3:	.ASCIZ<15><12>/   RESTRICTED MODE/
	000762	   040 	   040 	   122
	000765	   105 	   123 	   124
	000770	   122 	   111 	   103
	000773	   124 	   105 	   104
	000776	   040 	   115 	   117
	001001	   104 	   105 	   000
   3332	001004	   015 	   012 	   040 	STA2:	.ASCIZ<15><12>/   DEPOSIT-EXAMINE DONE/
	001007	   040 	   040 	   104
	001012	   105 	   120 	   117
	001015	   123 	   111 	   124
	001020	   055 	   105 	   130
	001023	   101 	   115 	   111
	001026	   116 	   105 	   040
	001031	   104 	   117 	   116
	001034	   105 	   000
   3333	001036	   015 	   012 	   040 	STA1:	.ASCIZ<15><12>/   TO 11 BYTE ERROR TERMINATION/
	001041	   040 	   040 	   124
	001044	   117 	   040 	   061
	001047	   061 	   040 	   102
	001052	   131 	   124 	   105
	001055	   040 	   105 	   122
	001060	   122 	   117 	   122
	001063	   040 	   124 	   105
EXDTE -- EXAMINE DTE-20 REGISTE	MACRO M1113  10-NOV-81 17:48  PAGE 80-3
STATYP -- SYMBOLIC STATUS REGISTER TYPE OUT

	001066	   122 	   115 	   111
	001071	   116 	   101 	   124
	001074	   111 	   117 	   116
	001077	   000
   3334	001100	   015 	   012 	   040 	STA0:	.ASCIZ<15><12>/   INTERRUPTS ON/
	001103	   040 	   040 	   111
	001106	   116 	   124 	   105
	001111	   122 	   122 	   125
	001114	   120 	   124 	   123
	001117	   040 	   117 	   116
	001122	   000
   3335
   3336	003520				.PSECT
EXDTE -- EXAMINE DTE-20 REGISTE	MACRO M1113  10-NOV-81 17:48  PAGE 81
TYPDX1 -- SYMBOLIC DEXWD1-DEXWD3 TYPE OUT

   3338					.SBTTL	TYPDX1 -- SYMBOLIC DEXWD1-DEXWD3 TYPE OUT
   3339
   3340					;	THIS ROUTINE WAS ADDED FOR TCO 5.1001
   3341
   3342	003520				TYPDX1:
   3343	003520	012700 	001123'			MOV	#DX1MS1,R0	; DATA MESSAGE
   3344	003524					CALL	.TYMSG		; TYPE IT
	003524	004737 	000000G			 JSR	PC,.TYMSG
   3345	003530	012700 	000106'			MOV	#DTEBUF-4,R0	; ADDR OF REGISTERS
   3346	003534	060200 				ADD	R2,R0		; POINT TO DEX WORD 1
   3347	003536					CALL	.TYKLN		; TYPE IT
	003536	004737 	000000G			 JSR	PC,.TYKLN
   3348	003542	016203 	000112'			MOV	DTEBUF(R2),R3	; DEXWD1 VALUE
   3349	003546	042703 	000017 			BIC	#17,R3		; DEXWD1 BITS 4-15
   3350	003552	005703 				TST	R3		; BITS 4-15 MBZ
   3351	003554	001404 				BEQ	10$		; ARE THEY ZERO
   3352	003556	012700 	001143'			MOV	#DX1MS2,R0	; NO- MESSAGE
   3353	003562					CALL	.TYMSG		; TYPE IT
	003562	004737 	000000G			 JSR	PC,.TYMSG
   3354	003566				10$:	RETURN			; EXIT
	003566	000207 				 RTS	PC
   3355
   3356	001123				.PSECT	MESSAG
   3357
   3358	001123	   015 	   012 	   040 	DX1MS1:	.ASCIZ<15><12>/   KL10 DATA=/
	001126	   040 	   040 	   113
	001131	   114 	   061 	   060
	001134	   040 	   104 	   101
	001137	   124 	   101 	   075
	001142	   000
   3359	001143	   015 	   012 	   040 	DX1MS2:	.ASCIZ<15><12>/   DEXWD1 BITS 4-15 NON-ZERO/
	001146	   040 	   040 	   104
	001151	   105 	   130 	   127
	001154	   104 	   061 	   040
	001157	   102 	   111 	   124
	001162	   123 	   040 	   064
	001165	   055 	   061 	   065
	001170	   040 	   116 	   117
	001173	   116 	   055 	   132
	001176	   105 	   122 	   117
	001201	   000
   3360
   3361	003570				.PSECT
EXDTE -- EXAMINE DTE-20 REGISTE	MACRO M1113  10-NOV-81 17:48  PAGE 82
TYPAD2 -- SYMBOLIC TENAD1-TENAD2 TYPE OUT

   3363					.SBTTL	TYPAD2 -- SYMBOLIC TENAD1-TENAD2 TYPE OUT
   3364
   3365					;	THIS ROUTINE WAS ADDED FOR TCO 5.1001
   3366
   3367	003570				TYPAD2:
   3368	003570	012700 	001202'			MOV	#TA2MS1,R0	; ADDRESS SPACE MESSAGE
   3369	003574					CALL	.TYMSG		; TYPE IT
	003574	004737 	000000G			 JSR	PC,.TYMSG
   3370	003600	016203 	000110'			MOV	DTEBUF-2(R2),R3	; REGISTER CONTENTS
   3371	003604	000303 				SWAB	R3		; GET SPACE BITS
   3372		000004 				.REPT	4
   3373						ASR	R3
   3374						.ENDR
	003606	006203 				ASR	R3
	003610	006203 				ASR	R3
	003612	006203 				ASR	R3
	003614	006203 				ASR	R3
   3375	003616	042703 	177761 			BIC	#177761,R3	; SPACE BITS
   3376	003622	020327 	000012 			CMP	R3,#12		; RESERVED?
   3377	003626	003402 				BLE	10$		; NO
   3378	003630	012703 	000012 			MOV	#12,R3		; YES
   3379	003634	016300 	000314'		10$:	MOV	SPCTAB(R3),R0	; MESSAGE ADDR
   3380	003640					CALL	.TYMSG		; TYPE SPACE
	003640	004737 	000000G			 JSR	PC,.TYMSG
   3381	003644	012700 	001226'			MOV	#TA2MS2,R0	; OPERATION MESSAGE
   3382	003650					CALL	.TYMSG		; TYPE IT
	003650	004737 	000000G			 JSR	PC,.TYMSG
   3383	003654	016203 	000110'			MOV	DTEBUF-2(R2),R3	; REGISTER CONTENTS
   3384	003660	012700 	001453'			MOV	#DEPOS,R0	; DEPOSIT MESSAGE
   3385	003664	032703 	010000 			BIT	#10000,R3	; IS TI A DEPOSIT?
   3386	003670	001002 				BNE	40$		; YES
   3387	003672	012700 	001463'			MOV	#EXAM,R0	; NO-EXAMINE
   3388	003676				40$:	CALL	.TYMSG		; TYPE IT
	003676	004737 	000000G			 JSR	PC,.TYMSG
   3389	003702	012700 	001246'			MOV	#TA2MS3,R0	; PRO/REL MESSAGE
   3390	003706					CALL	.TYMSG		; TYPE IT
	003706	004737 	000000G			 JSR	PC,.TYMSG
   3391	003712	012700 	001473'			MOV	#PRON,R0	; PRO ON MESSAGE
   3392	003716	032703 	004000 			BIT	#4000,R3	; IS IT ON?
   3393	003722	001402 				BEQ	50$		; YES
   3394	003724	012700 	001477'			MOV	#PROFF,R0	; NO-OFF
   3395	003730				50$:	CALL	.TYMSG		; TYPE IT
	003730	004737 	000000G			 JSR	PC,.TYMSG
   3396	003734	032703 	003600 			BIT	#3600,R3	; CHECK MBZ BITS, ARE THEY?
   3397	003740	001404 				BEQ	60$		; YES
   3398	003742	012700 	001305'			MOV	#TA2MS4,R0	; NO-ERROR MESSAGE
   3399	003746					CALL	.TYMSG		; TYPE IT
	003746	004737 	000000G			 JSR	PC,.TYMSG
   3400	003752	012700 	001344'		60$:	MOV	#TA2MS5,R0	; ADDRESS MESSAGE
   3401	003756					CALL	.TYMSG		; TYPE IT
	003756	004737 	000000G			 JSR	PC,.TYMSG
   3402	003762	005046 				CLR	-(SP)		; ADDR BUFFER
   3403	003764	042703 	177600 			BIC	#177600,R3	; CLEAR EXTRA BITS
   3404	003770	010346 				MOV	R3,-(SP)	; ADDR BUFFER
   3405	003772	016246 	000112'			MOV	DTEBUF(R2),-(SP); ADDR BUFFER
   3406	003776	010600 				MOV	SP,R0		; BUFFER ADDRESS
   3407	004000					CALL	.TYKLA		; TYPE KL ADDR
EXDTE -- EXAMINE DTE-20 REGISTE	MACRO M1113  10-NOV-81 17:48  PAGE 82-1
TYPAD2 -- SYMBOLIC TENAD1-TENAD2 TYPE OUT

	004000	004737 	000000G			 JSR	PC,.TYKLA
   3408	004004	062706 	000006 			ADD	#6,SP		; POP OFF ADDR BUFFER
   3409	004010				80$:	RETURN			; EXIT
	004010	000207 				 RTS	PC
   3410
   3411	000314				.PSECT	DATA
   3412
   3413	000314				SPCTAB:
   3414	000314	001367'				.WORD	SPC1
   3415	000316	001373'				.WORD	SPC2
   3416	000320	001410'				.WORD	SPC3
   3417	000322	001414'				.WORD	SPC4
   3418	000324	001431'				.WORD	SPC5
   3419	000326	001442'				.WORD	SPC6
   3420
   3421	001202				.PSECT	MESSAG
   3422
   3423	001202	   015 	   012 	   040 	TA2MS1:	.ASCIZ<15><12>/   ADDRESS SPACE=/
	001205	   040 	   040 	   101
	001210	   104 	   104 	   122
	001213	   105 	   123 	   123
	001216	   040 	   123 	   120
	001221	   101 	   103 	   105
	001224	   075 	   000
   3424	001226	   015 	   012 	   040 	TA2MS2:	.ASCIZ<15><12>/   OPERATION=/
	001231	   040 	   040 	   117
	001234	   120 	   105 	   122
	001237	   101 	   124 	   111
	001242	   117 	   116 	   075
	001245	   000
   3425	001246	   015 	   012 	   040 	TA2MS3:	.ASCIZ<15><12>/   PROTECTION-RELOCATION IS /
	001251	   040 	   040 	   120
	001254	   122 	   117 	   124
	001257	   105 	   103 	   124
	001262	   111 	   117 	   116
	001265	   055 	   122 	   105
	001270	   114 	   117 	   103
	001273	   101 	   124 	   111
	001276	   117 	   116 	   040
	001301	   111 	   123 	   040
	001304	   000
   3426	001305	   015 	   012 	   040 	TA2MS4:	.ASCIZ<15><12>/   TENAD1 BITS 7-10 NON-ZERO/
	001310	   040 	   040 	   124
	001313	   105 	   116 	   101
	001316	   104 	   061 	   040
	001321	   102 	   111 	   124
	001324	   123 	   040 	   067
	001327	   055 	   061 	   060
	001332	   040 	   116 	   117
	001335	   116 	   055 	   132
	001340	   105 	   122 	   117
	001343	   000
   3427	001344	   015 	   012 	   040 	TA2MS5:	.ASCIZ<15><12>/   KL10 ADDRESS=/
	001347	   040 	   040 	   113
	001352	   114 	   061 	   060
	001355	   040 	   101 	   104
	001360	   104 	   122 	   105
EXDTE -- EXAMINE DTE-20 REGISTE	MACRO M1113  10-NOV-81 17:48  PAGE 82-2
TYPAD2 -- SYMBOLIC TENAD1-TENAD2 TYPE OUT

	001363	   123 	   123 	   075
	001366	   000
   3428	001367	   105 	   120 	   124 	SPC1:	.ASCIZ/EPT/
	001372	   000
   3429	001373	   105 	   130 	   105 	SPC2:	.ASCIZ/EXEC VIRTUAL/
	001376	   103 	   040 	   126
	001401	   111 	   122 	   124
	001404	   125 	   101 	   114
	001407	   000
   3430	001410	   125 	   120 	   124 	SPC3:	.ASCIZ/UPT/
	001413	   000
   3431	001414	   125 	   123 	   105 	SPC4:	.ASCIZ/USER VIRTUAL/
	001417	   122 	   040 	   126
	001422	   111 	   122 	   124
	001425	   125 	   101 	   114
	001430	   000
   3432	001431	   120 	   110 	   131 	SPC5:	.ASCIZ/PHYSICAL/
	001434	   123 	   111 	   103
	001437	   101 	   114 	   000
   3433	001442	   122 	   105 	   123 	SPC6:	.ASCIZ/RESERVED/
	001445	   105 	   122 	   126
	001450	   105 	   104 	   000
   3434	001453	   104 	   105 	   120 	DEPOS:	.ASCIZ/DEPOSIT/
	001456	   117 	   123 	   111
	001461	   124 	   000
   3435	001463	   105 	   130 	   101 	EXAM:	.ASCIZ/EXAMINE/
	001466	   115 	   111 	   116
	001471	   105 	   000
   3436	001473	   117 	   116 	   040 	PRON:	.ASCIZ/ON /
	001476	   000
   3437	001477	   117 	   106 	   106 	PROFF:	.ASCIZ/OFF/
	001502	   000
   3438
   3439	004012				.PSECT
EXDTE -- EXAMINE DTE-20 REGISTE	MACRO M1113  10-NOV-81 17:48  PAGE 83
TYPDG1 -- SYMBOLIC DIAG1 TYPE OUT

   3441					.SBTTL	TYPDG1 -- SYMBOLIC DIAG1 TYPE OUT
   3442
   3443					;	THIS ROUTINE WAS ADDED FOR TCO 5.1001
   3444
   3445	004012				TYPDG1:
   3446	004012	016203 	000112'			MOV	DTEBUF(R2),R3	; DIAG1
   3447	004016	042703 	170037 			BIC	#170037,R3	; GET STATUS BITS
   3448		000004 				.REPT	4		; LEFT JUSTIFY
   3449						ASL	R3
   3450						.ENDR
	004022	006303 				ASL	R3
	004024	006303 				ASL	R3
	004026	006303 				ASL	R3
	004030	006303 				ASL	R3
   3451	004032	012701 	000330'			MOV	#DIATAB,R1	; FIRST MESSAGE PTR
   3452	004036	005703 			10$:	TST	R3		; DONE?
   3453	004040	001410 				BEQ	30$		; YES-EXIT
   3454	004042	006303 				ASL	R3		; BIT SET?
   3455	004044	103003 				BCC	20$		; NO
   3456	004046	011100 				MOV	@R1,R0		; MESSAGE ADDR
   3457	004050					CALL	.TYMSG		; YES-TYPE MESSAGE
	004050	004737 	000000G			 JSR	PC,.TYMSG
   3458	004054	062701 	000002 		20$:	ADD	#2,R1		; NEXT MESSAGE
   3459	004060	000766 				BR	10$		; NEXT
   3460	004062				30$:	RETURN			; EXIT
	004062	000207 				 RTS	PC
   3461
   3462	000330				.PSECT	DATA
   3463
   3464	000330				DIATAB:
   3465	000330	001503'				.WORD	DG1B11
   3466	000332	001534'				.WORD	DG1B10
   3467	000334	001560'				.WORD	DG1B9
   3468	000336	001605'				.WORD	DG1B8
   3469	000340	001651'				.WORD	DG1B7
   3470	000342	001714'				.WORD	DG1B6
   3471	000344	001757'				.WORD	DG1B5
   3472
   3473	001503				.PSECT	MESSAG
   3474
   3475	001503	   015 	   012 	   040 	DG1B11:	.ASCIZ<15><12>/   KL CLOCK ERROR STOP/
	001506	   040 	   040 	   113
	001511	   114 	   040 	   103
	001514	   114 	   117 	   103
	001517	   113 	   040 	   105
	001522	   122 	   122 	   117
	001525	   122 	   040 	   123
	001530	   124 	   117 	   120
	001533	   000
   3476	001534	   015 	   012 	   040 	DG1B10:	.ASCIZ<15><12>/   KL IN RUN MODE/
	001537	   040 	   040 	   113
	001542	   114 	   040 	   111
	001545	   116 	   040 	   122
	001550	   125 	   116 	   040
	001553	   115 	   117 	   104
	001556	   105 	   000
   3477	001560	   015 	   012 	   040 	DG1B9:	.ASCIZ<15><12>/   KL IN HALT LOOP/
EXDTE -- EXAMINE DTE-20 REGISTE	MACRO M1113  10-NOV-81 17:48  PAGE 83-1
TYPDG1 -- SYMBOLIC DIAG1 TYPE OUT

	001563	   040 	   040 	   113
	001566	   114 	   040 	   111
	001571	   116 	   040 	   110
	001574	   101 	   114 	   124
	001577	   040 	   114 	   117
	001602	   117 	   120 	   000
   3478	001605	   015 	   012 	   040 	DG1B8:	.ASCIZ<15><12>/   MAJOR STATE IS DEPOSIT-EXAMINE/
	001610	   040 	   040 	   115
	001613	   101 	   112 	   117
	001616	   122 	   040 	   123
	001621	   124 	   101 	   124
	001624	   105 	   040 	   111
	001627	   123 	   040 	   104
	001632	   105 	   120 	   117
	001635	   123 	   111 	   124
	001640	   055 	   105 	   130
	001643	   101 	   115 	   111
	001646	   116 	   105 	   000
   3479	001651	   015 	   012 	   040 	DG1B7:	.ASCIZ<15><12>/   MAJOR STATE IS TO-10 TRANSFER/
	001654	   040 	   040 	   115
	001657	   101 	   112 	   117
	001662	   122 	   040 	   123
	001665	   124 	   101 	   124
	001670	   105 	   040 	   111
	001673	   123 	   040 	   124
	001676	   117 	   055 	   061
	001701	   060 	   040 	   124
	001704	   122 	   101 	   116
	001707	   123 	   106 	   105
	001712	   122 	   000
   3480	001714	   015 	   012 	   040 	DG1B6:	.ASCIZ<15><12>/   MAJOR STATE IS TO-11 TRANSFER/
	001717	   040 	   040 	   115
	001722	   101 	   112 	   117
	001725	   122 	   040 	   123
	001730	   124 	   101 	   124
	001733	   105 	   040 	   111
	001736	   123 	   040 	   124
	001741	   117 	   055 	   061
	001744	   061 	   040 	   124
	001747	   122 	   101 	   116
	001752	   123 	   106 	   105
	001755	   122 	   000
   3481	001757	   015 	   012 	   040 	DG1B5:	.ASCIZ<15><12>/   DTE IN 10-11 DIAGNOSTIC MODE/
	001762	   040 	   040 	   104
	001765	   124 	   105 	   040
	001770	   111 	   116 	   040
	001773	   061 	   060 	   055
	001776	   061 	   061 	   040
	002001	   104 	   111 	   101
	002004	   107 	   116 	   117
	002007	   123 	   124 	   111
	002012	   103 	   040 	   115
	002015	   117 	   104 	   105
	002020	   000
   3482
   3483	004064				.PSECT
EXDTE -- EXAMINE DTE-20 REGISTE	MACRO M1113  10-NOV-81 17:48  PAGE 84
TYPDG3 -- SYMBOLIC DIAG3 TYPE OUT

   3485					.SBTTL	TYPDG3 -- SYMBOLIC DIAG3 TYPE OUT
   3486
   3487					;	THIS ROUTINE WAS ADDED FOR TCO 5.1001
   3488
   3489	004064				TYPDG3:
   3490	004064	016203 	000112'			MOV	DTEBUF(R2),R3	; DIAG3
   3491	004070	032703 	000002 			BIT	#2,R3		; NPR ERROR?
   3492	004074	001404 				BEQ	10$		; NO-EXIT
   3493	004076	012700 	002021'			MOV	#DG3B1,R0	; YES-MESSAGE
   3494	004102					CALL	.TYMSG		; TYPE IT
	004102	004737 	000000G			 JSR	PC,.TYMSG
   3495	004106				10$:	CALLR	.TCRLF		; EXIT
	004106	000137 	000000G			 JMP	.TCRLF
   3496
   3497	002021				.PSECT	MESSAG
   3498
   3499	002021	   015 	   012 	   040 	DG3B1:	.ASCIZ<15><12>/   NPR UNIBUS PARITY ERROR/
	002024	   040 	   040 	   116
	002027	   120 	   122 	   040
	002032	   125 	   116 	   111
	002035	   102 	   125 	   123
	002040	   040 	   120 	   101
	002043	   122 	   111 	   124
	002046	   131 	   040 	   105
	002051	   122 	   122 	   117
	002054	   122 	   000
   3500
   3501	004112				.PSECT
EXREG -- EXAMINE 22 AND 36 BIT 	MACRO M1113  10-NOV-81 17:48  PAGE 86
TYPDG3 -- SYMBOLIC DIAG3 TYPE OUT

   3504					.TITLE	EXREG -- EXAMINE 22 AND 36 BIT REGISTER COMMAND MODULE 7603.30
   3505
   3506						.IDENT	"006010"
   3507					;
   3508					;                             COPYRIGHT (C) 1979 BY
   3509					;                     DIGITAL EQUIPMENT CORPORATION, MAYNARD MASS.
   3510					;
   3511					;       THIS SOFTWARE IS FURNISHED UNDER A LICENSE AND MAY BE  USED  AND  COPIED
   3512					;       ONLY IN ACCORDANCE WITH THE TERMS OF SUCH LICENSE AND WITH THE INCLUSION
   3513					;       OF THE ABOVE COPYRIGHT NOTICE.  THIS SOFTWARE OR ANY OTHER COPIES THERE-
   3514					;       OF  MAY NOT BE PROVIDED OR OTHERWISE MADE AVAILABLE TO ANY OTHER PERSON.
   3515					;       NO TITLE TO OR OWNERSHIP OF THE SOFTWARE IS HEREBY TRANSFERRED.
   3516					;
   3517					;       THE INFORMATION CONTAINED IN THIS SOFTWARE IS SUBJECT TO CHANGE  WITHOUT
   3518					;       NOTICE  AND SHOULD NOT BE CONSTRUED AS A COMMITMENT BY DIGITAL EQUIPMENT
   3519					;       CORPORATION.
   3520					;
   3521					;       DIGITAL ASSUMES NO RESPONSIBILITY FOR THE  USE  OR  RELIABILITY  OF  ITS
   3522					;       SOFTWARE ON EQUIPMENT WHICH IS NOT SUPPILED BY DIGITAL.
   3523					;
   3524					;		MODULE: EXAMINE 22 AND 36 BIT REGISTER COMMAND
   3525					;
   3526					;		VERSION: 06-01
   3527					;
   3528					;		AUTHOR: R. BELANGER
   3529					;
   3530					;		DATE: 7603.30
   3531					;
   3532					;	THIS MODULE CONTAINS:
   3533					;
   3534					;	1) EXAMINE 22 AND 36 BIT REGISTER COMMAND CODE
EXREG -- EXAMINE 22 AND 36 BIT 	MACRO M1113  10-NOV-81 17:48  PAGE 87
.EXAD  -- KL DATA PATH BOARD EXAMINES 7602.16

   3536					.SBTTL	.EXAD  -- KL DATA PATH BOARD EXAMINES 7602.16
   3537
   3538						.ENABL	LSB
   3539
   3540	004112				.EXAD::				; ADDER REGISTER
   3541	004112	012700 	005026'			MOV	#.RDADR,R0	; DISPATCH POINTER TO R0
   3542	004116	000445 				BR	20$		; DO COMMON CODE
   3543						;
   3544	004120				.EXADX::			; ADDRER EXTENSION
   3545	004120	012700 	005034'			MOV	#.RDADX,R0	; DISPATCH POINTER TO R0
   3546	004124	000442 				BR	20$		; DO COMMON CODE
   3547						;
   3548	004126				.EXARR::			; ARITHMETIC REGISTER
   3549	004126	012700 	005042'			MOV	#.RDARR,R0	; DISPATCH POINTER TO R0
   3550	004132	000437 				BR	20$		; DO COMMON CODE
   3551						;
   3552	004134				.EXARX::			; AR EXTENSION
   3553	004134	012700 	005050'			MOV	#.RDARX,R0	; DISPATCH POINTER TO R0
   3554	004140	000434 				BR	20$		; DO COMMON CODE
   3555						;
   3556	004142				.EXBRR::			; BUFFER REGISTER
   3557	004142	012700 	005056'			MOV	#.RDBRR,R0	; DISPATCH POINTER TO R0
   3558	004146	000431 				BR	20$		; DO COMMON CODE
   3559						;
   3560	004150				.EXBRX::			; BR EXTENSION
   3561	004150	012700 	005064'			MOV	#.RDBRX,R0	; DISPATCH POINTER TO R0
   3562	004154	000426 				BR	20$		; DO COMMON CODE
   3563						;
   3564	004156				.EXEBS::			; EBUS REGISTER
   3565	004156	012700 	005072'			MOV	#.RDEBS,R0	; DISPATCH POINTER TO R0
   3566	004162	000423 				BR	20$		; DO COMMON CODE
   3567						;
   3568	004164				.EXFMR::			; FAST MEMORY REGISTER
   3569	004164	012700 	005100'			MOV	#.RDFMR,R0	; DISPATCH POINTER TO R0
   3570	004170	000420 				BR	20$		; DO COMMON CODE
   3571						;
   3572	004172				.EXMQR::			; MQ REGSITER
   3573	004172	012700 	005106'			MOV	#.RDMQR,R0	; DISPATCH POINTER TO R0
   3574	004176	000415 				BR	20$		; DO COMMON CODE
   3575						;
EXREG -- EXAMINE 22 AND 36 BIT 	MACRO M1113  10-NOV-81 17:48  PAGE 88
.EXVAB -- KL PC BOARD AND SMALL REGISTER EXAMINES 7602.16

   3577					.SBTTL	.EXVAB -- KL PC BOARD AND SMALL REGISTER EXAMINES 7602.16
   3578
   3579	004200				.EXVAB::			; ADDRESS BREAK REGISTER
   3580	004200	012700 	005456'			MOV	#.RDVAB,R0	; DISPATCH POINTER TO R0
   3581	004204	000410 				BR	10$		; DO COMMON CODE
   3582						;
   3583	004206				.EXVMA::			; VMA REGISTER
   3584	004206	012700 	005464'			MOV	#.RDVMA,R0	; DISPATCH POINTER TO R0
   3585	004212	000405 				BR	10$		; DO COMMON CODE
   3586						;
   3587	004214				.EXVMH::			; VMA HELD REGISTER
   3588	004214	012700 	005472'			MOV	#.RDVMH,R0	; DISPATCH POINTER TO R0
   3589	004220	000402 				BR	10$		; DO COMMON CODE
   3590						;
   3591	004222				.EXVPC::			; PROGRAM COUNTER
   3592	004222	012700 	005450'			MOV	#.RDVPC,R0	; DISPATCH POINTER TO R0
   3593					;	BR	10$		; DO COMMON CODE
   3594						;
EXREG -- EXAMINE 22 AND 36 BIT 	MACRO M1113  10-NOV-81 17:48  PAGE 89
.EXVAB -- KL PC BOARD AND SMALL REGISTER EXAMINES 7602.16

   3596					;	[CONTINUED FROM THE PREVIOUS PAGE]
   3597
   3598	004226				10$:				; HERE FOR VMA BOARD EXAMINES
   3599	004226	005037 	000000G			CLR	.LDZFL		; DON'T PRINT LEADING ZEROES
   3600	004232				20$:				; HERE FOR DATA PATH BOARD EXAMINES
   3601	004232					CALL	.CKEOC		; CHECK E-O-C
	004232	004737 	000000G			 JSR	PC,.CKEOC
   3602	004236	005046 				CLR	-(SP)		; CLEAR A BUFFER ON THE STACK
   3603	004240	005046 				CLR	-(SP)		; .
   3604	004242	005046 				CLR	-(SP)		; ..
   3605	004244	010601 				MOV	SP,R1		; ...POINT TO THE BUFFER
   3606	004246					PUSH	R0		; ...SAVE THE DISPATCH ADDRESS
	004246	010046 				 MOV	R0,-(SP)
   3607	004250					CALL	.STPKL		; ....STOP THE KL
	004250	004737 	000000G			 JSR	PC,.STPKL
   3608	004254					CALL	@(SP)+		; ....READ THE REGISTER
	004254	004736 				 JSR	PC,@(SP)+
   3609	004256					CALL	.RSTKL		; ...YES -- RESTART THE KL
	004256	004737 	000000G			 JSR	PC,.RSTKL
   3610	004262	010200 				MOV	R2,R0		; ...MESSAGE POINTER TO R0
   3611	004264					CALL	.TYMSG		; ...PRINT IT
	004264	004737 	000000G			 JSR	PC,.TYMSG
   3612	004270					CALL	.TYSLS		; ...NOW A SLASH
	004270	004737 	000000G			 JSR	PC,.TYSLS
   3613	004274					CALL	.TYSPC		; ...AND A SPACE
	004274	004737 	000000G			 JSR	PC,.TYSPC
   3614	004300	010100 				MOV	R1,R0		; ...POINT TO THE DATA
   3615	004302					CALL	.TYKLN		; ...PRINT THAT
	004302	004737 	000000G			 JSR	PC,.TYKLN
   3616	004306	062706 	000006 			ADD	#^D6,SP		; ...CLEAR THE STACK
   3617	004312					CALLR	.TCRLF		; ...END THE LINE AND EXIT
	004312	000137 	000000G			 JMP	.TCRLF
   3618						;
   3619
   3620						.DSABL	LSB
EXREG -- EXAMINE 22 AND 36 BIT 	MACRO M1113  10-NOV-81 17:48  PAGE 90
.EXAMF -- THE "EXAMINE FLAGS" COMMAND 7602.23

   3622					.SBTTL	.EXAMF -- THE "EXAMINE FLAGS" COMMAND 7602.23
   3623
   3624					;+
   3625					; .EXAMF -- THE "EXAMINE FLAGS" COMMAND.
   3626					;
   3627					; THIS ROUTINE WILL READ AND DISPLAY THE KL PC FLAGS ON THE
   3628					; CONSOLE DEVICE.
   3629					;
   3630					; INPUT ARGUMENTS:
   3631					;
   3632					;	NONE.
   3633					;
   3634					; OUTPUT ARGUMENTS:
   3635					;
   3636					;	NONE.
   3637					;
   3638					; ERROR CODES RETURNED:
   3639					;
   3640					;	NONE.
   3641					;-
   3642
   3643	004316				.EXAMF::
   3644	004316					CALL	.CKEOC		; CHECK E-O-C
	004316	004737 	000000G			 JSR	PC,.CKEOC
   3645	004322					CALL	.STPKL		; STOP THE KL
	004322	004737 	000000G			 JSR	PC,.STPKL
   3646	004326					CALL	.RDFLG		; READ THE FLAGS
	004326	004737 	005116'			 JSR	PC,.RDFLG
   3647	004332					CALL	.RSTKL		; RESTART THE KL
	004332	004737 	000000G			 JSR	PC,.RSTKL
   3648	004336	010001 				MOV	R0,R1		; FLAGS TO R1
   3649	004340	001422 				BEQ	30$		; NONE ON -- SAY SO
   3650	004342	012700 	002121'			MOV	#EXFMSG,R0	; HEADER
   3651	004346					CALL	.TYLIN		; PRINT IT
	004346	004737 	000000G			 JSR	PC,.TYLIN
   3652	004352				10$:
   3653	004352	012700 	002105'			MOV	#FONMSG,R0	; ASSUME IT IS ON
   3654	004356	032701 	010000 			BIT	#BIT12,R1	; IS THE FLAG ON?
   3655	004362	001002 				BNE	20$		; YES -- GO ON
   3656	004364	012700 	002113'			MOV	#FOFMSG,R0	; NO -- SAY SO
   3657	004370				20$:
   3658	004370					CALL	.TYMSG		; PRINT THE STATE OF THE BIT
	004370	004737 	000000G			 JSR	PC,.TYMSG
   3659	004374	042701 	010000 			BIC	#BIT12,R1	; CLEAR THIS BIT OUT
   3660	004400	006301 				ASL	R1		; MOVE NEXT BIT IN
   3661	004402	001363 				BNE	10$		; LOOP TILL R1 .EQ. 0
   3662	004404	000404 				BR	40$		; DONE -- EXIT
   3663	004406				30$:
   3664	004406	012700 	002056'			MOV	#NOFMSG,R0	; "NO FLAGS"
   3665	004412					CALL	.TYMSG		; PRINT IT
	004412	004737 	000000G			 JSR	PC,.TYMSG
   3666	004416				40$:
   3667	004416					CALLR	.TCRLF		; END LINE AND RETURN
	004416	000137 	000000G			 JMP	.TCRLF
   3668						;
EXREG -- EXAMINE 22 AND 36 BIT 	MACRO M1113  10-NOV-81 17:48  PAGE 91
.EXAMF -- THE "EXAMINE FLAGS" COMMAND 7602.23

   3670	002056				.PSECT	MESSAG
   3671
   3672	002056				NOFMSG:
   3673	002056	   116 	   117 	   040 		.ASCIZ	%NO KL PC FLAGS ARE SET%
	002061	   113 	   114 	   040
	002064	   120 	   103 	   040
	002067	   106 	   114 	   101
	002072	   107 	   123 	   040
	002075	   101 	   122 	   105
	002100	   040 	   123 	   105
	002103	   124 	   000
   3674	002105				FONMSG:
   3675	002105	   040 	   040 	   130 		.ASCIZ	%  X  %
	002110	   040 	   040 	   000
   3676	002113				FOFMSG:
   3677	002113	   040 	   040 	   040 		.ASCIZ	%     %
	002116	   040 	   040 	   000
   3678	002121				EXFMSG:
   3679	002121	   040 	   117 	   126 		.ASCIZ	% OVF  CY0  CY1  FOV  BIS  USR  UIO  LIP  AFI  AT1  AT0  FUF  NDV%
	002124	   106 	   040 	   040
	002127	   103 	   131 	   060
	002132	   040 	   040 	   103
	002135	   131 	   061 	   040
	002140	   040 	   106 	   117
	002143	   126 	   040 	   040
	002146	   102 	   111 	   123
	002151	   040 	   040 	   125
	002154	   123 	   122 	   040
	002157	   040 	   125 	   111
	002162	   117 	   040 	   040
	002165	   114 	   111 	   120
	002170	   040 	   040 	   101
	002173	   106 	   111 	   040
	002176	   040 	   101 	   124
	002201	   061 	   040 	   040
	002204	   101 	   124 	   060
	002207	   040 	   040 	   106
	002212	   125 	   106 	   040
	002215	   040 	   116 	   104
	002220	   126 	   000
   3680
   3681	004422				.PSECT
EXREG -- EXAMINE 22 AND 36 BIT 	MACRO M1113  10-NOV-81 17:48  PAGE 92
.EXAMK -- THE "EXAMINE KL" COMMAND 7602.23

   3683					.SBTTL	.EXAMK -- THE "EXAMINE KL" COMMAND 7602.23
   3684
   3685					;+
   3686					; .EXAMK -- THE "EXAMINE KL" COMMAND
   3687					;
   3688					; THIS ROUTINE WILL EXAMINE AND DISPLAY THE FOLLOWING ITEMS ON THE
   3689					; CONSOLE DEVICE:
   3690					;
   3691					;	(A) KL PROGRAM COUNTER
   3692					;	(B) KL VMA REGISTER
   3693					;	(C) KL PI SYSTEM STATE
   3694					;	(D) KL PC FLAGS
   3695					;
   3696					; INPUT ARGUMENTS:
   3697					;
   3698					;	NONE.
   3699					;
   3700					; OUTPUT ARGUMENTS:
   3701					;
   3702					;	NONE.
   3703					;
   3704					; ERROR CODES RETURNED:
   3705					;
   3706					;	NONE.
   3707					;-
   3708
   3709	004422				.EXAMK::
   3710	004422					CALL	.CKEOC		; CHECK E-O-C
	004422	004737 	000000G			 JSR	PC,.CKEOC
   3711	004426					PUSH	.KLFLG		; SAVE ".KLFLG"
	004426	013746 	000000G			 MOV	.KLFLG,-(SP)
   3712	004432					CALL	.STPKL		; .STOP THE KL
	004432	004737 	000000G			 JSR	PC,.STPKL
   3713	004436	012702 	000000G			MOV	#PCMSG,R2	; .MESSAGE POINTER TO R2
   3714	004442					CALL	.EXVPC		; .READ AND PRINT THE KL PC
	004442	004737 	004222'			 JSR	PC,.EXVPC
   3715	004446	012702 	000000G			MOV	#VMAMSG,R2	; .MESSAGE POINTER TO R2
   3716	004452					CALL	.EXVMA		; .READ AND PRINT THE KL VMA
	004452	004737 	004206'			 JSR	PC,.EXVMA
   3717	004456					CALL	.EXMPI		; .DISPLAY THE PI SYSTEM
	004456	004737 	004612'			 JSR	PC,.EXMPI
   3718	004462					CALL	.EXAMF		; .DISPLAY THE KL PC FLAGS
	004462	004737 	004316'			 JSR	PC,.EXAMF
   3719	004466					POP	.SVKLF		; .SET UP ".SVKLF"
	004466	012637 	000000G			 MOV	(SP)+,.SVKLF
   3720	004472					CALLR	.RSTKL		; RESTART THE KL
	004472	000137 	000000G			 JMP	.RSTKL
   3721						;
EXREG -- EXAMINE 22 AND 36 BIT 	MACRO M1113  10-NOV-81 17:48  PAGE 93
.EXCRA -- SMALL REGISTER EXAMINES 7609.10

   3723					.SBTTL	.EXCRA -- SMALL REGISTER EXAMINES 7609.10
   3724
   3725						.ENABL	LSB
   3726
   3727	004476				.EXCRA::			; CRAM ADDRESS REGISTER
   3728	004476	012700 	005322'			MOV	#.RDCRA,R0	; DISPATCH POINTER TO R0
   3729	004502	000416 				BR	10$		; DO COMMON CODE
   3730						;
   3731	004504				.EXCRL::			; CRAM LOC REGISTER
   3732	004504	012700 	005330'			MOV	#.RDCRL,R0	; DISPATCH POINTER TO R0
   3733	004510	000413 				BR	10$		; DO COMMON CODE
   3734						;
   3735	004512				.EXDRA::			; DRAM ADDRESS REGISTER
   3736	004512	012700 	005336'			MOV	#.RDDRA,R0	; DISPATCH POINTER TO R0
   3737	004516	000410 				BR	10$		; DO COMMON CODE
   3738						;
   3739	004520				.EXFER::			; FLOATING EXPONENT REGISTER
   3740	004520	012700 	005344'			MOV	#.RDFER,R0	; DISPATCH POINTER TO R0
   3741	004524	000405 				BR	10$		; DO COMMON CODE
   3742						;
   3743	004526				.EXSBR::			; CRAM SBR RET REGISTER
   3744	004526	012700 	005352'			MOV	#.RDSBR,R0	; DISPATCH POINTER TO R0
   3745	004532	000402 				BR	10$		; DO COMMON CODE
   3746						;
   3747	004534				.EXSCR::
   3748	004534	012700 	005360'			MOV	#.RDSCR,R0	; DISPATCH POINTER TO R0
   3749					;	BR	10$		; DO COMMON CODE
   3750						;
   3751
   3752					;	[CONTINUED ON THE FOLLOWING PAGE]
EXREG -- EXAMINE 22 AND 36 BIT 	MACRO M1113  10-NOV-81 17:48  PAGE 94
.EXCRA -- SMALL REGISTER EXAMINES 7609.10

   3754					;	[CONTINUED FROM THE PREVIOUS PAGE]
   3755
   3756	004540				10$:				; HERE FOR SMALL REGISTER READS
   3757	004540					CALL	.CKEOC		; CHECK E-O-C
	004540	004737 	000000G			 JSR	PC,.CKEOC
   3758	004544					PUSH	R0		; SAVE DISPATCH ADDRESS
	004544	010046 				 MOV	R0,-(SP)
   3759	004546					CALL	.STPKL		; .STOP THE KL
	004546	004737 	000000G			 JSR	PC,.STPKL
   3760	004552					CALL	@(SP)+		; .READ THE REGISTER
	004552	004736 				 JSR	PC,@(SP)+
   3761	004554					PUSH	R0		; SAVE THE REGISTER DATA
	004554	010046 				 MOV	R0,-(SP)
   3762	004556					CALL	.RSTKL		; .YES -- RESTART THE KL
	004556	004737 	000000G			 JSR	PC,.RSTKL
   3763	004562	010200 				MOV	R2,R0		; .MESSAGE POINTER TO R0
   3764	004564					CALL	.TYMSG		; .PRINT IT
	004564	004737 	000000G			 JSR	PC,.TYMSG
   3765	004570					CALL	.TYSLS		; .AND A SLASH
	004570	004737 	000000G			 JSR	PC,.TYSLS
   3766	004574					CALL	.TYSPC		; .AND A SPACE
	004574	004737 	000000G			 JSR	PC,.TYSPC
   3767	004600					POP	R0		; .GET THE DATA
	004600	012600 				 MOV	(SP)+,R0
   3768	004602					CALL	.TYELN		; PRINT IT
	004602	004737 	000000G			 JSR	PC,.TYELN
   3769	004606					CALLR	.TCRLF		; END THE LINE AND EXIT
	004606	000137 	000000G			 JMP	.TCRLF
   3770						;
   3771
   3772						.DSABL	LSB
EXREG -- EXAMINE 22 AND 36 BIT 	MACRO M1113  10-NOV-81 17:48  PAGE 96
.EXMPI -- THE "EXAMINE PI" COMMAND 7602.23

   3775					.SBTTL	.EXMPI -- THE "EXAMINE PI" COMMAND 7602.23
   3776
   3777					;+
   3778					; .EXMPI -- THE "EXAMINE PI" COMMAND
   3779					;
   3780					; THIS ROUTINE READS THE STATE OF THE KL PI SYSTEM AND DISPLAYS IT
   3781					; ON THE CONSOLE DEVICE.
   3782					;
   3783					; INPUT ARGUMENTS:
   3784					;
   3785					;	NONE.
   3786					;
   3787					; OUTPUT ARGUMENTS:
   3788					;
   3789					;	NONE.
   3790					;
   3791					; ERROR CODES RETURNED:
   3792					;
   3793					;	NONE.
   3794					;-
   3795
   3796	004612				.EXMPI::
   3797	004612					CALL	.CKEOC		; CHECK THE E-O-C CHARACTER
	004612	004737 	000000G			 JSR	PC,.CKEOC
   3798	004616	005002 				CLR	R2		; CLEAR R2
   3799	004620					CALL	.STPKL		; STOP THE KL
	004620	004737 	000000G			 JSR	PC,.STPKL
   3800	004624					CALL	.RDPI		; READ THE PI SYSTEM STATE
	004624	004737 	005242'			 JSR	PC,.RDPI
   3801	004630					CALL	.RSTKL		; RESTART THE KL
	004630	004737 	000000G			 JSR	PC,.RSTKL
   3802	004634	010001 				MOV	R0,R1		; DATA POINTER TO R1
   3803	004636	012700 	002222'			MOV	#EPMSG0,R0	; MESSAGE POINTER TO R0
   3804	004642					CALL	.TYMSG		; PRINT IT
	004642	004737 	000000G			 JSR	PC,.TYMSG
   3805	004646	012700 	000000G			MOV	#ONMSG,R0	; "ON"
   3806	004652	052102 				BIS	(R1)+,R2	; PI ACTIVE + PI ON TO R2
   3807	004654	032702 	000200 			BIT	#200,R2		; IS IT ON?
   3808	004660	001002 				BNE	10$		; YES -- GO ON
   3809	004662	012700 	000000G			MOV	#OFFMSG,R0	; NO -- SO SAY "OFF"
   3810
   3811					;	[CONTINUED ON THE FOLLOWING PAGE]
EXREG -- EXAMINE 22 AND 36 BIT 	MACRO M1113  10-NOV-81 17:48  PAGE 97
.EXMPI -- THE "EXAMINE PI" COMMAND 7602.23

   3813					;	[CONTINUED FROM THE PREVIOUS PAGE]
   3814
   3815	004666				10$:
   3816	004666					CALL	.TYMSG		; PRINT IT
	004666	004737 	000000G			 JSR	PC,.TYMSG
   3817	004672	012700 	002236'			MOV	#EPMSG1,R0	; "PI ON"
   3818	004676					CALL	.TYMSG		; PRINT IT
	004676	004737 	000000G			 JSR	PC,.TYMSG
   3819	004702	010200 				MOV	R2,R0		; GET ACTIVE BITS
   3820	004704	042700 	177600 			BIC	#^C177,R0	; FLUSH JUNK
   3821	004710					CALL	.TYP3D		; PRINT THEM
	004710	004737 	000000G			 JSR	PC,.TYP3D
   3822	004714	012700 	002250'			MOV	#EPMSG2,R0	; "PI HOLD"
   3823	004720					CALL	.TYMSG		; PRINT IT
	004720	004737 	000000G			 JSR	PC,.TYMSG
   3824	004724	112100 				MOVB	(R1)+,R0	; GET THE PI HOLD BITS
   3825	004726	042700 	177600 			BIC	#^C177,R0	; FLUSH JUNK
   3826	004732					CALL	.TYP3D		; PRINT THEM
	004732	004737 	000000G			 JSR	PC,.TYP3D
   3827	004736	012700 	002264'			MOV	#EPMSG3,R0	; "PI GEN"
   3828	004742					CALL	.TYMSG		; PRINT IT
	004742	004737 	000000G			 JSR	PC,.TYMSG
   3829	004746	112100 				MOVB	(R1)+,R0	; GET THE GEN BITS
   3830	004750	042700 	177600 			BIC	#^C177,R0	; FLUSH JUNK
   3831	004754					CALL	.TYP3D		; PRINT THEM
	004754	004737 	000000G			 JSR	PC,.TYP3D
   3832	004760					CALLR	.TCRLF		; END THE LINE AND RETURN
	004760	000137 	000000G			 JMP	.TCRLF
   3833						;
   3834	002222				.PSECT	MESSAG
   3835
   3836	002222				EPMSG0:
   3837	002222	   120 	   111 	   040 		.ASCIZ	%PI ACTIVE: %
	002225	   101 	   103 	   124
	002230	   111 	   126 	   105
	002233	   072 	   040 	   000
   3838	002236				EPMSG1:
   3839	002236	   054 	   040 	   120 		.ASCIZ	%, PI ON: %
	002241	   111 	   040 	   117
	002244	   116 	   072 	   040
	002247	   000
   3840	002250				EPMSG2:
   3841	002250	   054 	   040 	   120 		.ASCIZ	%, PI HOLD: %
	002253	   111 	   040 	   110
	002256	   117 	   114 	   104
	002261	   072 	   040 	   000
   3842	002264				EPMSG3:
   3843	002264	   054 	   040 	   120 		.ASCIZ	%, PI GEN: %
	002267	   111 	   040 	   107
	002272	   105 	   116 	   072
	002275	   040 	   000
   3844	004764				.PSECT
EXREG -- EXAMINE 22 AND 36 BIT 	MACRO M1113  10-NOV-81 17:48  PAGE 98
.EXREG -- THE "EXAMINE REGISTERS" COMMAND 7602.16

   3846					.SBTTL	.EXREG -- THE "EXAMINE REGISTERS" COMMAND 7602.16
   3847
   3848	004764				.EXREG::
   3849	004764					CALL	.CKEOC		; CHECK E-O-C
	004764	004737 	000000G			 JSR	PC,.CKEOC
   3850	004770					CALL	.STPKL		; STOP THE KL
	004770	004737 	000000G			 JSR	PC,.STPKL
   3851	004774	012701 	000000G			MOV	#.EXMTB,R1	; TABLE POINTER TO R1
   3852	005000	012703 	000000G			MOV	#EXRTBL,R3	; COUNT TO R3
   3853	005004				10$:
   3854	005004	012102 				MOV	(R1)+,R2	; MESSAGE ADDRESS TO R2
   3855	005006					PUSH	R1		; SAVE R1
	005006	010146 				 MOV	R1,-(SP)
   3856	005010					CALL	@2(R1)		; .READ AND PRINT THE REGISTER
	005010	004771 	000002 			 JSR	PC,@2(R1)
   3857	005014					POP	R1		; .RESTORE R1
	005014	012601 				 MOV	(SP)+,R1
   3858	005016	022121 				CMP	(R1)+,(R1)+	; ADVANCE THE POINTER
   3859	005020	077307 				SOB	R3,10$		; LOOP TILL COUNT EXHAUSTED
   3860	005022					CALLR	.RSTKL		; RESTART THE KL
	005022	000137 	000000G			 JMP	.RSTKL
   3861						;
EXREG -- EXAMINE 22 AND 36 BIT 	MACRO M1113  10-NOV-81 17:48  PAGE 99
.RDDPB -- SUBROUTINES TO READ THE KL DATA PATH BOARDS 7509.23

   3863					.SBTTL	.RDDPB -- SUBROUTINES TO READ THE KL DATA PATH BOARDS 7509.23
   3864
   3865					;+
   3866					; .RDADR -- SUBROUTINE TO READ THE KL ADDER REGISTER.
   3867					; .RDADX -- SUBROUTINE TO READ THE KL ADDER EXTENSION REGISTER.
   3868					; .RDARR -- SUBROUTINE TO READ THE KL ARITHMETIC REGISTER.
   3869					; .RDARX -- SUBROUTINE TO READ THE KL ARITHMETIC REGISTER EXTENSION.
   3870					; .RDBRR -- SUBROUTINE TO READ THE KL BUFFER REGISTER.
   3871					; .RDBRX -- SUBROUTINE TO READ THE KL BUFFER REGISTER EXTENSION.
   3872					; .RDEBS -- SUBROUTINE TO READ THE KL EBUS REGISTER.
   3873					; .RDFMR -- SUBROUTINE TO READ THE KL FAST MEMORY REGISTER.
   3874					; .RDMQR -- SUBROUTINE TO READ THE KL MULTIPLIER QUOTIENT REGISTER.
   3875					;
   3876					; THESE SUBROUTINES READ AND RETURN THE CONTENT OF THE SPECIFIED KL
   3877					; DATA PATH REGISTER IN A TRIPLET POINTED TO BY R1 IN THE CALL.
   3878					;
   3879					; INPUT ARGUMENTS:
   3880					;
   3881					;	R1 CONTAINS A POINTER TO A 3 WORD DATA BUFFER
   3882					;
   3883					; OUTPUT ARGUMENTS:
   3884					;
   3885					;	R0 CONTAINS A POINTER TO THE DATA.
   3886					;
   3887					; ERROR CODES RETURNED:
   3888					;
   3889					;	FRF -- FUNCTION READ FAILED.
   3890					;-
EXREG -- EXAMINE 22 AND 36 BIT 	MACRO M1113  10-NOV-81 17:48  PAGE 100
.RDDPB -- SUBROUTINES TO READ THE KL DATA PATH BOARDS 7509.23

   3892						.ENABL	LSB
   3893
   3894	005026				.RDADR::
   3895	005026	012700 	000256 			MOV	#FR.RAD,R0	; READ THE KL ADDER
   3896	005032	000427 				BR	10$		; COMMON CODE
   3897						;
   3898	005034				.RDADX::
   3899	005034	012700 	000254 			MOV	#FR.ADX,R0	; READ THE KL ADDER EXTENSION
   3900	005040	000424 				BR	10$		; COMMON CODE
   3901						;
   3902	005042				.RDARR::
   3903	005042	012700 	000240 			MOV	#FR.RAR,R0	; READ THE KL ARITHMETIC REGISTER
   3904	005046	000421 				BR	10$		; COMMON CODE
   3905						;
   3906	005050				.RDARX::
   3907	005050	012700 	000252 			MOV	#FR.ARX,R0	; READ THE KL AR EXTENSION REGISTER
   3908	005054	000416 				BR	10$		; COMMON CODE
   3909						;
   3910	005056				.RDBRR::
   3911	005056	012700 	000242 			MOV	#FR.RBR,R0	; READ THE KL BUFFER REGISTER
   3912	005062	000413 				BR	10$		; COMMON CODE
   3913						;
   3914	005064				.RDBRX::
   3915	005064	012700 	000250 			MOV	#FR.BRX,R0	; READ THE KL BR EXTENSION REGISTER
   3916	005070	000410 				BR	10$		; COMMON CODE
   3917						;
   3918	005072				.RDEBS::
   3919	005072	012700 	000356 			MOV	#FR.EBS,R0	; READ THE KL EBUS REGISTER
   3920	005076	000405 				BR	10$		; COMMON CODE
   3921						;
   3922	005100				.RDFMR::
   3923	005100	012700 	000246 			MOV	#FR.RFM,R0	; READ THE KL FAST MEMORY REGISTER
   3924	005104	000402 				BR	10$		; COMMON CODE
   3925						;
   3926	005106				.RDMQR::
   3927	005106	012700 	000244 			MOV	#FR.RMQ,R0	; READ THE KL MULTIPLIER QUOTIENT REGISTER
   3928									; FALL INTO COMMON CODE
   3929	005112				10$:
   3930	005112					CALLR	.FREAD		; READ IT AND EXIT
	005112	000137 	000000G			 JMP	.FREAD
   3931						;
   3932
   3933						.DSABL	LSB
EXREG -- EXAMINE 22 AND 36 BIT 	MACRO M1113  10-NOV-81 17:48  PAGE 101
.RDFLG -- SUBROUTINE TO READ THE KL PC FLAGS 7511.24

   3935					.SBTTL	.RDFLG -- SUBROUTINE TO READ THE KL PC FLAGS 7511.24
   3936
   3937					;+
   3938					; .RDFLG -- SUBROUTINE TO READ THE KL PC FLAGS.
   3939					;
   3940					; THIS SUBROUTINE READS AND RETURNS THE STATE OF THE KL PC FLAGS IN R0.
   3941					;
   3942					; INPUT ARGUMENTS:
   3943					;
   3944					;	NONE.
   3945					;
   3946					; OUTPUT ARGUMENTS:
   3947					;
   3948					;	R0 CONTAINS THE KL PC FLAGS
   3949					;
   3950					; THE FOLLOWING IS A LIST OF THE KL FLAGS RETURNED IN R0:
   3951					;
   3952					;	BIT #	PC FLAG BIT AND MEANING		KL BIT
   3953					;	-----	----------------------------	--------
   3954					;
   3955					;	12	PC.OVF -- KL OVERFLOW FLAG -- 00
   3956					;	11	PC.CY0 -- KL CARRY 0 FLAG -- 01
   3957					;	10	PC.CY1 -- KL CARRY 1 FLAG -- 02
   3958					;	09	PC.FOV -- KL FLOATING OVERFLOW FLAG -- 03
   3959					;	08	PC.BIS -- KL BYTE INCREMENT SUPPRESSION FLAG -- 04
   3960					;	07	PC.USR -- KL USER MODE FLAG -- 05
   3961					;	06	PC.UIO -- KL USER IOT MODE FLAG -- 06
   3962					;	05	PC.LIP -- KL LAST INSTRUCTION PUBLIC FLAG -- 07
   3963					;	04	PC.AFI -- KL ADDRESS FAILURE INHIBIT FLAG -- 08
   3964					;	03	PC.AT1 -- KL APR TRAP 1 FLAG -- 09
   3965					;	02	PC.AT0 -- KL APR TRAP 0 FLAG -- 10
   3966					;	01	PC.FUF -- KL FLOATING UNDERFLOW FLAG -- 11
   3967					;	00	PC.NDV -- KL NO DIVIDE FLAG -- 12
   3968					;
   3969					; ERROR CODES RETURNED:
   3970					;
   3971					;	FRF -- FUNCTION READ FAILED.
   3972					;-
EXREG -- EXAMINE 22 AND 36 BIT 	MACRO M1113  10-NOV-81 17:48  PAGE 102
.RDFLG -- SUBROUTINE TO READ THE KL PC FLAGS 7511.24

   3974	005116				.RDFLG::
   3975	005116					PUSH	<R1,R2>		; SAVE R1 AND R2 ON THE STACK
	005116	010146 				 MOV	R1,-(SP)
	005120	010246 				 MOV	R2,-(SP)
   3976	005122	005001 				CLR	R1		; ..CLEAR R1
   3977	005124	005002 				CLR	R2		; ..AND R2
   3978	005126	012700 	000202 			MOV	#FR.101,R0	; ..FR CODE FOR LOW FLAGS
   3979	005132					CALL	.FREAD		; ..READ THEM
	005132	004737 	000000G			 JSR	PC,.FREAD
   3980	005136	012701 	177764 			MOV	#-^D12,R1	; ..SHIFT COUNT TO R1
   3981	005142					CALL	.TPSHI		; ..SHIFT OUR WORD
	005142	004737 	000000G			 JSR	PC,.TPSHI
   3982	005146	042710 	177700 			BIC	#177700,(R0)	; ..MASK OUT FLAG BITS
   3983	005152	051002 				BIS	(R0),R2		; ..PUT THE LOW FLAGS IN R2
   3984	005154	005001 				CLR	R1		; ..AGAIN
   3985	005156	012700 	000200 			MOV	#FR.100,R0	; ..FR CODE FOR MOST OF THE FLAGS
   3986	005162					CALL	.FREAD		; ..READ THEM
	005162	004737 	000000G			 JSR	PC,.FREAD
   3987	005166	012701 	177772 			MOV	#-^D6,R1	; ..SHIFT COUNT TO R1
   3988	005172					CALL	.TPSHI		; ..SHIFT THE DATA
	005172	004737 	000000G			 JSR	PC,.TPSHI
   3989	005176	042710 	170077 			BIC	#170077,(R0)	; ..JUST THE BITS WE WANT
   3990	005202	051002 				BIS	(R0),R2		; ..SAVE THE HIGH FLAGS IN R2
   3991	005204	005001 				CLR	R1		; ..CLEAR R1 AGAIN
   3992	005206	012700 	000264 			MOV	#FR.132,R0	; ..FR CODE FOR LAST FLAG BIT
   3993	005212					CALL	.FREAD		; ..READ IT
	005212	004737 	000000G			 JSR	PC,.FREAD
   3994	005216	032760 	000001 	000004 		BIT	#BIT00,4(R0)	; ..IS IT ON?
   3995	005224	001402 				BEQ	10$		; ..NO -- JUST EXIT
   3996	005226	052702 	010000 			BIS	#PC.OVF,R2	; ..YES -- SET IT IN OUR WORD
   3997	005232				10$:
   3998	005232	010200 				MOV	R2,R0		; ..PUT A COPY IN R0
   3999	005234					POP	<R2,R1>		; ..RESTORE REGISTERS
	005234	012602 				 MOV	(SP)+,R2
	005236	012601 				 MOV	(SP)+,R1
   4000	005240					RETURN			; TO CALLER
	005240	000207 				 RTS	PC
EXREG -- EXAMINE 22 AND 36 BIT 	MACRO M1113  10-NOV-81 17:48  PAGE 103
.RDPI  -- SUBROUTINE TO READ THE PI BOARDS 7510.16

   4002					.SBTTL	.RDPI  -- SUBROUTINE TO READ THE PI BOARDS 7510.16
   4003
   4004					;+
   4005					; .RDPI -- SUBROUTINE TO READ THE KL PI BOARDS.
   4006					;
   4007					; THIS SUBROUTINE READS THE KL PI BOARDS AND STORES THE STATUS IN
   4008					; A TWO WORD TABLE, ".PITAB", WHICH IS POINTED TO BY R0 ON SUCCESSFUL
   4009					; RETURN.
   4010					;
   4011					; WORD 0 OF ".PITAB" CONTAINS:
   4012					;
   4013					;	(A) PIH 1 THRU PIH 7 (BITS 14 THRU 08),
   4014					;	(B) PI ACTIVE (BIT 07),
   4015					;	(C) PI ON 1 THRU PI ON 7 (BITS 06 THRU 00).
   4016					;
   4017					; WORD 2 OF ".PITAB" CONTAINS:
   4018					;
   4019					;	(A) PI GEN 1 THRU PI GEN 7 (BITS 06 THRU 00).
   4020					;
   4021					; INPUT ARGUMENTS:
   4022					;
   4023					;	NONE.
   4024					;
   4025					; OUTPUT ARGUMENTS:
   4026					;
   4027					;	R0 POINTS TO ".PITAB".
   4028					;
   4029					; ERROR CODES RETURNED:
   4030					;
   4031					;	FRF -- FUNCTION READ FAILED.
   4032					;-
EXREG -- EXAMINE 22 AND 36 BIT 	MACRO M1113  10-NOV-81 17:48  PAGE 104
.RDPI  -- SUBROUTINE TO READ THE PI BOARDS 7510.16

   4034	005242				.RDPI::
   4035	005242					PUSH	<R1,R2,R3>	; SAVE REGISTERS
	005242	010146 				 MOV	R1,-(SP)
	005244	010246 				 MOV	R2,-(SP)
	005246	010346 				 MOV	R3,-(SP)
   4036	005250	012703 	000346'			MOV	#RDPITB,R3	; ...TABLE POINTER TO R3
   4037	005254	012702 	000000G			MOV	#.PITAB,R2	; ...SAVE AREA POINTER TO R2
   4038	005260				10$:
   4039	005260	005001 				CLR	R1		; ...CLEAR R1
   4040	005262	012300 				MOV	(R3)+,R0	; ...FR CODE TO R0
   4041	005264					CALL	.FREAD		; ...READ IT
	005264	004737 	000000G			 JSR	PC,.FREAD
   4042	005270	012301 				MOV	(R3)+,R1	; ...SHIFT COUNT TO R1
   4043	005272					CALL	.TPSHI		; ...SHIFT IT
	005272	004737 	000000G			 JSR	PC,.TPSHI
   4044	005276	042310 				BIC	(R3)+,(R0)	; ...CLEAR UNWANTED BIT(S)
   4045	005300	011022 				MOV	(R0),(R2)+	; ...PUT IT IN SAVE AREA
   4046	005302	022703 	000362'			CMP	#RDPITE,R3	; ...ARE WE AT END OF TABLE?
   4047	005306	001364 				BNE	10$		; ...NO -- KEEP GOING
   4048	005310	011300 				MOV	(R3),R0		; ...YES -- POINT TO SAVE AREA
   4049	005312					POP	<R3,R2,R1>	; ...RESTORE REGISTERS
	005312	012603 				 MOV	(SP)+,R3
	005314	012602 				 MOV	(SP)+,R2
	005316	012601 				 MOV	(SP)+,R1
   4050	005320					RETURN			; TO CALLER
	005320	000207 				 RTS	PC
   4051
   4052	000346				.PSECT	DATA
   4053
   4054	000346				RDPITB:
   4055	000346	000200 				.WORD	FR.PI0		; FIRST READ CODE
   4056	000350	177756 				.WORD	-^D18		; SHIFT COUNT
   4057	000352	100000 				.WORD	BIT15		; MASK
   4058	000354	000202 				.WORD	FR.PI1		; SECOND READ CODE
   4059	000356	177756 				.WORD	-^D18		; SHIFT COUNT
   4060	000360	177600 				.WORD	177600		; MASK
   4061		000362'			RDPITE=.
   4062	000362	000000G				.WORD	.PITAB		; POINTER TO SAVE AREA
   4063
   4064	005322				.PSECT
EXREG -- EXAMINE 22 AND 36 BIT 	MACRO M1113  10-NOV-81 17:48  PAGE 105
.RDSMR -- SUBROUTINE TO READ SMALL KL REGISTERS 7511.05

   4066					.SBTTL	.RDSMR -- SUBROUTINE TO READ SMALL KL REGISTERS 7511.05
   4067
   4068					;+
   4069					; .RDCRA -- SUBROUTINE TO READ THE KL CRAM ADDR REGISTER.
   4070					; .RDCRL -- SUBROUTINE TO READ THE KL CRAM LOC REGISTER.
   4071					; .RDDRA -- SUBROUTINE TO READ THE KL DRAM ADDR REGISTER.
   4072					; .RDFER -- SUBROUTINE TO READ THE KL FLOATING EXPONENT REGISTER.
   4073					; .RDSCR -- SUBROUTINE TO READ THE KL SHIFT COUNT REGISTER.
   4074					; .RDSBR -- SUBROUTINE TO READ THE KL CRAM SUBROUTINE RETURN REGISTER.
   4075					;
   4076					; THESE SUBROUTINES READ THE CONTENT OF THE SPECIFIED REGISTER
   4077					; AND RETURN IT IN R0. NOTE THAT THE CONTENT OF EACH REGISTER IS LESS
   4078					; THAN 16 BITS AND MUST BE READ USING TWO FUNCTION READS.
   4079					;
   4080					; INPUT ARGUMENTS:
   4081					;
   4082					;	NONE.
   4083					;
   4084					; OUTPUT ARGUMENTS:
   4085					;
   4086					;	R0 HOLDS THE CONTENT OF THE SPECIFIED REGISTER
   4087					;
   4088					; ERROR CODES RETURNED:
   4089					;
   4090					;	FRF -- FUNCTION READ FAILED.
   4091					;-
   4092
   4093						.ENABL	LSB
   4094
   4095	005322				.RDCRA::
   4096	005322	012700 	000364'			MOV	#CRATAB,R0	; POINT TO CRAM ADDRESS TABLE
   4097	005326	000416 				BR	10$		; DO COMMON CODE
   4098						;
   4099	005330				.RDCRL::
   4100	005330	012700 	000400'			MOV	#CRLTAB,R0	; POINT TO CR LOC TABLE
   4101	005334	000413 				BR	10$		; DO COMMON CODE
   4102						;
   4103	005336				.RDDRA::
   4104	005336	012700 	000414'			MOV	#DRATAB,R0	; POINT TO DRAM ADDR TABLE
   4105	005342	000410 				BR	10$		; DO COMMON CODE
   4106						;
   4107	005344				.RDFER::
   4108	005344	012700 	000430'			MOV	#FERTAB,R0	; POINT TO FE TABLE
   4109	005350	000405 				BR	10$		; DO COMMON CODE
   4110						;
   4111	005352				.RDSBR::
   4112	005352	012700 	000444'			MOV	#SBRTAB,R0	; POINT TO CRAM SBR RET TABLE
   4113	005356	000402 				BR	10$		; DO COMMON CODE
   4114						;
   4115	005360				.RDSCR::
   4116	005360	012700 	000460'			MOV	#SCRTAB,R0	; POINT TO SHIFT COUNT TABLE
   4117					;	BR	10$		; FALL INTO COMMON CODE
   4118
   4119					;	[CONTINUED ON THE FOLLOWING PAGE]
EXREG -- EXAMINE 22 AND 36 BIT 	MACRO M1113  10-NOV-81 17:48  PAGE 106
.RDSMR -- SUBROUTINE TO READ SMALL KL REGISTERS 7511.05

   4121					;	[CONTINUED FROM THE PREVIOUS PAGE]
   4122
   4123	005364				10$:				; HERE FROM PREVIOUS PAGE
   4124	005364					PUSH	<R1,R2>		; SAVE CALLER'S REGISTERS
	005364	010146 				 MOV	R1,-(SP)
	005366	010246 				 MOV	R2,-(SP)
   4125	005370	010002 				MOV	R0,R2		; ..POINTER TO R2
   4126	005372	005001 				CLR	R1		; ..CLEAR R1
   4127	005374	012200 				MOV	(R2)+,R0	; ..READ THE HIGH ORDER BITS
   4128	005376					CALL	.FREAD		; ..DO IT
	005376	004737 	000000G			 JSR	PC,.FREAD
   4129	005402	012201 				MOV	(R2)+,R1	; ..SHIFT COUNT TO R1
   4130	005404					CALL	.TPSHI		; ..SHIFT IT
	005404	004737 	000000G			 JSR	PC,.TPSHI
   4131	005410	042210 				BIC	(R2)+,(R0)	; ..MASK OUT UNWANTED BITS
   4132	005412					PUSH	(R0)		; ..SAVE THE BITS
	005412	011046 				 MOV	(R0),-(SP)
   4133	005414	012200 				MOV	(R2)+,R0	; ...READ THE LOW ORDER BITS
   4134	005416	005001 				CLR	R1		; ...CLEAR R1
   4135	005420					CALL	.FREAD		; ...DO IT
	005420	004737 	000000G			 JSR	PC,.FREAD
   4136	005424	012201 				MOV	(R2)+,R1	; ...SHIFT COUNT TO R1
   4137	005426					CALL	.TPSHI		; ...SHIFT IT
	005426	004737 	000000G			 JSR	PC,.TPSHI
   4138	005432	042210 				BIC	(R2)+,(R0)	; ...MASK OUT UNWANTED BITS
   4139	005434	051610 				BIS	(SP),(R0)	; ...SET IN THE HIGH ORDER BITS
   4140	005436	011000 				MOV	(R0),R0		; ...PUT IT IN R0
   4141	005440	005726 				TST	(SP)+		; ...CLEAR THE STACK
   4142	005442					POP	<R2,R1>		; ..RESTORE REGISTERS
	005442	012602 				 MOV	(SP)+,R2
	005444	012601 				 MOV	(SP)+,R1
   4143	005446					RETURN			; TO CALLER
	005446	000207 				 RTS	PC
EXREG -- EXAMINE 22 AND 36 BIT 	MACRO M1113  10-NOV-81 17:48  PAGE 107
.RDSMR -- SUBROUTINE TO READ SMALL KL REGISTERS 7511.05

   4145					; TABLES FOR SMALL REGISTER READS
   4146
   4147	000364				.PSECT	DATA
   4148
   4149	000364				CRATAB:
   4150	000364	000312 				.WORD	FR.CA1		; FR FOR CRAM ADDR HIGH BITS
   4151	000366	177750 				.WORD	-^D24		; SHIFT COUNT FOR SAME
   4152	000370	174077 				.WORD	174077		; BIT MASK FOR SAME
   4153	000372	000310 				.WORD	FR.CA2		; FR FOR CRAM ADDR LOW BITS
   4154	000374	177742 				.WORD	-^D30		; SHIFT COUNT FOR SAME
   4155	000376	177700 				.WORD	177700		; BIT MASK FOR SAME
   4156
   4157	000400				CRLTAB:
   4158	000400	000316 				.WORD	FR.CL1		; FR FOR CRAM LOC HIGH BITS
   4159	000402	177750 				.WORD	-^D24		; SHIFT COUNT FOR SAME
   4160	000404	174077 				.WORD	174077		; BIT MASK FOR SAME
   4161	000406	000314 				.WORD	FR.CL2		; FR FOR CRAM LOC LOW BITS
   4162	000410	177742 				.WORD	-^D30		; SHIFT COUNT FOR SAME
   4163	000412	177700 				.WORD	177700		; BIT MASK FOR SAME
   4164
   4165	000414				DRATAB:
   4166	000414	000260 				.WORD	FR.DA1		; FR FOR DRAM ADDR HIGH BITS
   4167	000416	177764 				.WORD	-^D12		; SHIFT COUNT FOR SAME
   4168	000420	177077 				.WORD	177077		; BIT MASK FOR SAME
   4169	000422	000262 				.WORD	FR.DA2		; FR FOR DRAM ADDR LOW BITS
   4170	000424	177756 				.WORD	-^D18		; SHIFT COUNT FOR SAME
   4171	000426	177700 				.WORD	177700		; BIT MASK FOR SAME
   4172
   4173	000430				FERTAB:
   4174	000430	000266 				.WORD	FR.FE1		; FR FOR FE HIGH BITS
   4175	000432	177755 				.WORD	-^D19		; SHIFT COUNT FOR SAME
   4176	000434	176037 				.WORD	176037		; BIT MASK FOR SAME
   4177	000436	000264 				.WORD	FR.FE2		; FR FOR FE LOW BITS
   4178	000440	177750 				.WORD	-^D24		; SHIFT COUNT FOR SAME
   4179	000442	177740 				.WORD	177740		; BIT MASK FOR SAME
   4180
   4181	000444				SBRTAB:
   4182	000444	000306 				.WORD	FR.SR1		; FR FOR SBR RET HIGH BITS
   4183	000446	177750 				.WORD	-^D24		; SHIFT COUNT FOR SAME
   4184	000450	174077 				.WORD	174077		; BIT MASK FOR SAME
   4185	000452	000304 				.WORD	FR.SR2		; FR FOR SBR RET LOW BITS
   4186	000454	177742 				.WORD	-^D30		; SHIFT COUNT FOR SAME
   4187	000456	177700 				.WORD	177700		; BIT MASK FOR SAME
   4188
   4189	000460				SCRTAB:
   4190	000460	000262 				.WORD	FR.SC1		; FR FOR SHIFT COUNT HIGH BITS
   4191	000462	177755 				.WORD	-^D19		; SHIFT COUNT FOR SAME
   4192	000464	177417 				.WORD	177417		; BIT MASK FOR SAME
   4193	000466	000260 				.WORD	FR.SC2		; FR FOR SHIFT COUNT LOW BITS
   4194	000470	177750 				.WORD	-^D24		; SHIFT COUNT FOR SAME
   4195	000472	177760 				.WORD	177760		; BIT MASK FOR SAME
   4196
   4197	005450				.PSECT
EXREG -- EXAMINE 22 AND 36 BIT 	MACRO M1113  10-NOV-81 17:48  PAGE 108
.RDVXX -- KL VMA BOARD READ SUBROUTINES 7510.21

   4199					.SBTTL	.RDVXX -- KL VMA BOARD READ SUBROUTINES 7510.21
   4200
   4201					;+
   4202					; .RDVPC -- SUBROUTINE TO READ THE KL PROGRAM COUNTER REGISTER
   4203					; .RDVAB -- SUBROUTINE TO READ THE KL ADDRESS BREAK REGISTER.
   4204					; .RDVMA -- SUBROUTINE TO READ THE KL VMA REGISTER.
   4205					; .RDVMH -- SUBROUTINE TO READ THE KL VMAH REGISTER.
   4206					;
   4207					; THESE SUBROUTINES READ AND ASSEMBLE THE DESIRED VMA BOARD REGISTER
   4208					; INTO A THREE WORD BLOCK POINTED TO BY R1 IN THE CALL.
   4209					;
   4210					; INPUT ARGUMENTS:
   4211					;
   4212					;	R1 POINTS TO A TWO WORD BUFFER FOR THE SPECIFIED REGISTER
   4213					;
   4214					; OUTPUT ARGUMENTS:
   4215					;
   4216					;	R1 POINTS TO A TWO WORD BUFFER FOR THE SPECIFIED REGISTER
   4217					;
   4218					; ERROR CODES RETURNED:
   4219					;
   4220					;	FRF -- FUNCTION READ FAILED.
   4221					;-
   4222
   4223						.ENABL	LSB
   4224
   4225	005450				.RDVPC::
   4226	005450	012700 	000474'			MOV	#PCTAB,R0	; POINTER TO PC TABLE
   4227	005454	000410 				BR	10$
   4228						;
   4229	005456				.RDVAB::
   4230	005456	012700 	000502'			MOV	#ABTAB,R0	; POINTER TO ADDRESS BREAK TABLE
   4231	005462	000405 				BR	10$
   4232						;
   4233	005464				.RDVMA::
   4234	005464	012700 	000510'			MOV	#VMATB,R0	; POINTER TO VMA TABLE
   4235	005470	000402 				BR	10$
   4236						;
   4237	005472				.RDVMH::
   4238	005472	012700 	000516'			MOV	#VMHTB,R0	; POINTER TO VMAH TABLE
   4239	005476				10$:
   4240	005476					CALL	R5,.REGSV	; SAVE R5 - R1 ON THE STACK
	005476	004537 	000000G			 JSR	R5,.REGSV
   4241	005502	010005 				MOV	R0,R5		; TABLE POINTER TO R5
   4242	005504	012704 	000004 			MOV	#^D4,R4		; ITERATION COUNT TO R4
   4243	005510	010103 				MOV	R1,R3		; USER BUFFER ADDRESS TO R3
   4244	005512	012502 				MOV	(R5)+,R2	; FUNCTION READ BASE TO R2
   4245	005514					PUSH	(R5)+		; MASK WORD TO TOP OF THE STACK
	005514	012546 				 MOV	(R5)+,-(SP)
   4246	005516	011505 				MOV	(R5),R5		; .SHIFT BASE TO R5
   4247	005520	010100 				MOV	R1,R0		; .CLEAR CALLER'S AREA
   4248	005522					CALL	.TPCLR		; .SO
	005522	004737 	000000G			 JSR	PC,.TPCLR
   4249
   4250					;	[CONTINUED ON THE FOLLOWING PAGE]
EXREG -- EXAMINE 22 AND 36 BIT 	MACRO M1113  10-NOV-81 17:48  PAGE 109
.RDVXX -- KL VMA BOARD READ SUBROUTINES 7510.21

   4252					;	[CONTINUED FROM THE PREVIOUS PAGE]
   4253
   4254	005526				20$:				; .GET HERE FROM .RDVXX, ABOVE
   4255	005526	010200 				MOV	R2,R0		; .SET THE FUNCTION READ NUMBER
   4256	005530	006300 				ASL	R0		; .TIMES 2
   4257	005532	005001 				CLR	R1		; .CLEAR R1
   4258	005534					CALL	.FREAD		; .READ IT
	005534	004737 	000000G			 JSR	PC,.FREAD
   4259	005540	041620 				BIC	(SP),(R0)+	; .SP POINTS TO BIT MASK
   4260	005542	041610 				BIC	(SP),(R0)	; .R0 POINTS TO READ BLOCK
   4261	005544	005740 				TST	-(R0)		; .NOW BACK THE POINTER UP
   4262	005546	010501 				MOV	R5,R1		; .GET THE SHIFT COUNT INTO R1
   4263	005550					CALL	.TPSHI		; .AND SHIFT IT
	005550	004737 	000000G			 JSR	PC,.TPSHI
   4264	005554	052023 				BIS	(R0)+,(R3)+	; .SET THE BITS IN THE USER BUFFER
   4265	005556	051013 				BIS	(R0),(R3)	; .SO
   4266	005560	005743 				TST	-(R3)		; .BACK CALLER'S POINTER UP
   4271	005562	122225 				CMPB	(R2)+,(R5)+	; .INCREMENT READ NUMBER AND SHIFT COUNT
   4273	005564	077420 				SOB	R4,20$		; .DO THIS FOUR TIMES
   4274	005566	042763 	177600 	000002 		BIC	#177600,2(R3)	; .GET RID OF BITS HIGHER THAN 13
   4275	005574	005726 				TST	(SP)+		; CLEAR THE STACK
   4276	005576					RETURN			; RETURN TO CALLER
	005576	000207 				 RTS	PC
   4277
   4278						.DSABL	LSB
   4279
   4280					; TABLES FOR VMA BOARD READS
   4281
   4282	000474				.PSECT	DATA
   4283
   4284	000474				PCTAB:
   4285	000474	000150 				.WORD	FR.150/2	; BASE READ FOR PC REGISTER
   4286	000476	135673 				.WORD	135673		; BIT MASK   "  "     "
   4287	000500	177776 				.WORD	-^D2		; SHIFT CNT  "  "     "
   4288	000502				ABTAB:
   4289	000502	000150 				.WORD	FR.150/2	; BASE READ FOR ADDRESS BREAK REGISTER
   4290	000504	167356 				.WORD	167356		; BIT MASK   "	   "	  "	 "
   4291	000506	000000 				.WORD	0		; SHIFT CNT  "	   "	  "	 "
   4292	000510				VMATB:
   4293	000510	000154 				.WORD	FR.154/2	; BASE READ FOR VMA REGISTER
   4294	000512	135673 				.WORD	135673		; BIT MASK   "	 "     "
   4295	000514	177776 				.WORD	-^D2		; SHIFT CNT  "	 "     "
   4296	000516				VMHTB:
   4297	000516	000154 				.WORD	FR.154/2	; BASE READ FOR VMAH REGISTER
   4298	000520	167356 				.WORD	167356		; BIT MASK   "	 "	"
   4299	000522	000000 				.WORD	0		; SHIFT CNT  "	 "	"
   4300
   4301	005600				.PSECT
   4302					.TITLE	GTTIM -- INPUT AND DISPLAY DATE AND TIME MODULE 7703.04
   4303
   4304						.IDENT	"006060"
   4305
   4306					;
   4307					;                             COPYRIGHT (C) 1975, 1979 BY
   4308					;                     DIGITAL EQUIPMENT CORPORATION, MAYNARD MASS.
   4309					;
   4310					;       THIS SOFTWARE IS FURNISHED UNDER A LICENSE AND MAY BE  USED  AND  COPIED
GTTIM -- INPUT AND DISPLAY DATE	MACRO M1113  10-NOV-81 17:48  PAGE 109-1
.RDVXX -- KL VMA BOARD READ SUBROUTINES 7510.21

   4311					;       ONLY IN ACCORDANCE WITH THE TERMS OF SUCH LICENSE AND WITH THE INCLUSION
   4312					;       OF THE ABOVE COPYRIGHT NOTICE.  THIS SOFTWARE OR ANY OTHER COPIES THERE-
   4313					;       OF  MAY NOT BE PROVIDED OR OTHERWISE MADE AVAILABLE TO ANY OTHER PERSON.
   4314					;       NO TITLE TO OR OWNERSHIP OF THE SOFTWARE IS HEREBY TRANSFERRED.
   4315					;
   4316					;       THE INFORMATION CONTAINED IN THIS SOFTWARE IS SUBJECT TO CHANGE  WITHOUT
   4317					;       NOTICE  AND SHOULD NOT BE CONSTRUED AS A COMMITMENT BY DIGITAL EQUIPMENT
   4318					;       CORPORATION.
   4319					;
   4320					;       DIGITAL ASSUMES NO RESPONSIBILITY FOR THE  USE  OR  RELIABILITY  OF  ITS
   4321					;       SOFTWARE ON EQUIPMENT WHICH IS NOT SUPPILED BY DIGITAL.
   4322					;
   4323					;		MODULE: INPUT AND DISPLAY DATE AND TIME
   4324					;
   4325					;		VERSION: 06-06
   4326					;
   4327					;		AUTHOR: R. BELANGER
   4328					;
   4329					;		DATE: 7703.04
   4330					;
   4331					;	THIS MODULE CONTAINS:
   4332					;
   4333					;	1) INPUT DATE AND TIME CODE
   4334					;	2) DISPLAY DATE AND TIME CODE
GTTIM -- INPUT AND DISPLAY DATE	MACRO M1113  10-NOV-81 17:48  PAGE 110
.GTDAT -- SUBROUTINE TO INPUT THE CURRENT DATE 7702.15

   4336					.SBTTL	.GTDAT -- SUBROUTINE TO INPUT THE CURRENT DATE 7702.15
   4337
   4338					;+
   4339					; .GTDAT -- SUBROUTINE TO INPUT THE CURRENT DATE
   4340					;
   4341					; THIS SUBROUTINE WILL EVALUATE A PREVIOUSLY INPUT ASCII STRING OF THE
   4342					; FORM "DD-MMM-YYYY" AND RETURN THE VALUE OF THE YEAR, MONTH AND DAY
   4343					; IN A THREE BYTE BLOCK.
   4344					;
   4345					; INPUT ARGUMENTS:
   4346					;
   4347					;	R0 POINTS TO A THREE BYTE DATA BLOCK
   4348					;	R5 POINTS TO THE INPUT STREAM
   4349					;
   4350					; OUTPUT ARGUMENTS:
   4351					;
   4352					;	R0 POINTS TO THE THREE BYTE DATA BLOCK
   4353					;
   4354					; ERROR CODES RETURNED:
   4355					;
   4356					;	DBT -- DATE BEFORE TODAY
   4357					;	DOR -- DATE OUT OF RANGE
   4358					;	IDF -- ILLEGAL DATE FORMAT
   4359					;	YOR -- YEAR OUT OF RANGE
   4360					;-
   4361
   4362						.MCALL	DIR$, GTIM$S
   4363
   4364	005600				.GTDAT::
   4365	005600	013737 	000000G	000000G		MOV	.IRADX,.RDXSV	; SAVE THE CURRENT RADIX
   4366	005606	012737 	000012 	000000G		MOV	#^D10,.IRADX	; SET THE RADIX TO DECIMAL
   4367	005614					PUSH	<R5,R2,R1,R0>	; SAVE CALLER'S POINTER
	005614	010546 				 MOV	R5,-(SP)
	005616	010246 				 MOV	R2,-(SP)
	005620	010146 				 MOV	R1,-(SP)
	005622	010046 				 MOV	R0,-(SP)
   4368	005624	012701 	000524'			MOV	#.DTBUF,R1	; ....TIME BUFFER POINTER TO R1
   4369	005630					GTIM$S	R1		; ....READ CURRENT DATE AND TIME
	005630	010146 				MOV	R1,-(SP)
	005632	012746 				MOV	(PC)+,-(SP)
	005634	   073 	   002 			.BYTE	59.,2
	005636	104375 				EMT	375
   4370	005640	112120 				MOVB	(R1)+,(R0)+	; ....SET DEFAULT YEAR
   4371	005642	105721 				TSTB	(R1)+		; ....ADVANCE POINTER
   4372	005644	112120 				MOVB	(R1)+,(R0)+	; ....SET DEFAULT MONTH
   4373	005646	105721 				TSTB	(R1)+		; ....ADVANCE POINTER
   4374	005650	111120 				MOVB	(R1),(R0)+	; ....SET DEFAULT DAY
   4375	005652	010002 				MOV	R0,R2		; ....SAVE POINTER TO CALLER'S BUFFER
   4376	005654	012701 	000000G			MOV	#.CIBFR,R1	; ....BUFFER POINTER TO R1
   4377	005660	010105 				MOV	R1,R5		; ....AND R5
   4378	005662	012700 	002277'			MOV	#GTDMS0,R0	; ....PROMPT FOR DATE
   4379	005666					CALL	.TYMSF		; ....FORCE IT OUT
	005666	004737 	000000G			 JSR	PC,.TYMSF
   4380	005672					CALL	.GTLIN		; ....READ THE RESPONSE
	005672	004737 	000000G			 JSR	PC,.GTLIN
   4381	005676	001467 				BEQ	35$		; ....DEFAULT IF NULL
   4382	005700					CALL	.CKARG		; ....SEE WHAT KIND OF ARGUMENT FOLLOWS
GTTIM -- INPUT AND DISPLAY DATE	MACRO M1113  10-NOV-81 17:48  PAGE 110-1
.GTDAT -- SUBROUTINE TO INPUT THE CURRENT DATE 7702.15

	005700	004737 	000000G			 JSR	PC,.CKARG
   4383	005704	001551 				BEQ	GTDIDF		; ....ILLEGAL IF ALPHABETIC
   4384	005706					PUSH	R5		; ....SAVE THE BUFFER POINTER
	005706	010546 				 MOV	R5,-(SP)
   4385	005710				10$:
   4386	005710	111504 				MOVB	(R5),R4		; .....LOOK AT ONE CHARACTER
   4387	005712	001407 				BEQ	20$		; .....DONE IF NULL
   4388	005714	122704 	000055 			CMPB	#'-,R4		; .....IS IT A <HYPHEN>?
   4389	005720	001002 				BNE	15$		; .....NO -- GO ON
   4390	005722	112715 	000040 			MOVB	#.SPACE,(R5)	; .....YES -- MAKE IT A <SPACE>
   4391	005726				15$:
   4392	005726	105725 				TSTB	(R5)+		; .....ADVANCE THE POINTER
   4393	005730	000767 				BR	10$		; .....AND LOOK FOR MORE
   4394						;
   4395	005732				20$:
   4396	005732					POP	R5		; .....RESTORE THE POINTER
	005732	012605 				 MOV	(SP)+,R5
   4397	005734	005046 				CLR	-(SP)		; ....CLEAR A BUFFER ON THE STACK
   4398	005736	005046 				CLR	-(SP)		; .....
   4399	005740	005046 				CLR	-(SP)		; ......
   4400	005742	010600 				MOV	SP,R0		; .......POINT TO THE BUFFER
   4401	005744					CALL	.GTNBR		; .......READ THE DAY
	005744	004737 	000000G			 JSR	PC,.GTNBR
   4402	005750	111042 				MOVB	(R0),-(R2)	; .......AND SET IT
   4403	005752					PUSH	R0		; .......SAVE THE POINTER
	005752	010046 				 MOV	R0,-(SP)
   4404	005754					CALL	.CKARG		; .......SEE IF ALPHABETIC FOLLOWS
	005754	004737 	000000G			 JSR	PC,.CKARG
   4405	005760	002523 				BLT	GTDIDF		; .......NUMERIC -- GIVE "IDF" ERROR
   4406	005762	012700 	000000G			MOV	#.MONTB,R0	; ........MONTH TABLE POINTER TO R0
   4407	005766					CALL	.TSCAN		; ........SCAN FOR THE MONTH
	005766	004737 	000000G			 JSR	PC,.TSCAN
   4408	005772	116042 	000002 			MOVB	2(R0),-(R2)	; ........STASH THE MONTH AWAY
   4409	005776					POP	R0		; ........RESTORE THE BUFFER POINTER
	005776	012600 				 MOV	(SP)+,R0
   4410	006000	112504 				MOVB	(R5)+,R4	; .......GET THE LAST CHARACTER
   4411	006002	132764 	000010 	000000G		BITB	#CH.EOC,.CHTAB(R4)
   4412	006010	001020 				BNE	30$		; .......EXIT IF E-O-C
   4413	006012					CALL	.TPCLR		; .......RESET THE BUFFER
	006012	004737 	000000G			 JSR	PC,.TPCLR
   4414	006016					CALL	.CKARG		; .......SEE IF NUMERIC FOLLOWS
	006016	004737 	000000G			 JSR	PC,.CKARG
   4415	006022	001502 				BEQ	GTDIDF		; .......GIVE "IDF" ERROR IF NOT
   4416	006024					CALL	.GTNBR		; .......READ THE YEAR
	006024	004737 	000000G			 JSR	PC,.GTNBR
   4417	006030	022710 	003554 			CMP	#^D1900,(R0)	; .......DID HE SAY 19XX?
   4418	006034	003003 				BGT	25$		; .......NO -- GO ON
   4419	006036	162710 	003554 			SUB	#^D1900,(R0)	; .......YES -- FIX IT UP
   4420	006042	002475 				BLT	GTDYOR		; .......ERROR -- YOR
   4421	006044				25$:
   4422	006044	111042 				MOVB	(R0),-(R2)	; .......SET THE YEAR - 1900
   4423	006046					CALL	.CKEOC		; .......MUST HAVE E-O-C
	006046	004737 	000000G			 JSR	PC,.CKEOC
   4424	006052				30$:
   4425	006052	062706 	000006 			ADD	#^D6,SP		; .......RESET THE STACK
   4426	006056				35$:
   4427	006056	011600 				MOV	(SP),R0		; ....RESTORE CALLER'S POINTER
GTTIM -- INPUT AND DISPLAY DATE	MACRO M1113  10-NOV-81 17:48  PAGE 110-2
.GTDAT -- SUBROUTINE TO INPUT THE CURRENT DATE 7702.15

   4428	006060	116002 	000001 			MOVB	1(R0),R2	; ....MONTH TO R2
   4429	006064	012701 	172452 			MOV	#^C5325,R1	; ....BIT MASK TO R1
   4430	006070	122702 	000002 			CMPB	#^D2,R2		; ....IS THIS FEBRUARY?
   4431	006074	001411 				BEQ	45$		; ....YES -- DO SPECIAL CKECKS
   4432	006076	126027 	000002 	000037 		CMPB	2(R0),#^D31	; ....NO -- HOW MANY DAYS?
   4433	006104	003046 				BGT	GTDDOR		; ....GIVE "DOR" ERROR IF .GT. ^D31
   4434	006106	002414 				BLT	50$		; ....ALL OK IF .LT. ^D31
   4435	006110				40$:
   4436	006110	006201 				ASR	R1		; ....SHIFT THE BIT MASK
   4437	006112	077202 				SOB	R2,40$		; ....BY THE MONTH
   4438	006114	103011 				BCC	50$		; ....ALL OK IF CC-C IS CLEAR
   4439	006116	000441 				BR	GTDDOR		; ....OTHERWISE GIVE "DOR" ERROR
   4440						;
   4441	006120				45$:
   4442	006120	126027 	000002 	000035 		CMPB	2(R0),#^D29	; ....HATH FEBRUARY 29 DAYS?
   4443	006126	003035 				BGT	GTDDOR		; ....NEVER MORE -- GIVE "DOR" ERROR
   4444	006130	002403 				BLT	50$		; ....ALWAYS LESS -- EXIT
   4445	006132	132710 	000003 			BITB	#3,(R0)		; ....IS THIS A LEAP YEAR?
   4446	006136	001031 				BNE	GTDDOR		; ....NO -- GIVE "DOR" ERROR
   4447	006140				50$:
   4448	006140	012701 	000524'			MOV	#.DTBUF,R1	; ....POINT TO THE DATE BUFFER
   4449	006144	122021 				CMPB	(R0)+,(R1)+	; ....SEE IF YEAR IS OK
   4450	006146	002422 				BLT	GTDDBT		; ....NO -- GIVE "DBT" ERROR
   4451	006150	003007 				BGT	55$		; ....YES -- BEYOND THIS YEAR??
   4452	006152	105721 				TSTB	(R1)+		; ....NO -- ADVANCE THE POINTER
   4453	006154	122021 				CMPB	(R0)+,(R1)+	; ....IS THE MONTH OK?
   4454	006156	002416 				BLT	GTDDBT		; ....NO -- GIVE "DBT" ERROR
   4455	006160	003003 				BGT	55$		; ....YES -- BEYOND THIS YEAR??
   4456	006162	105721 				TSTB	(R1)+		; ....NO -- ADVANCE THE POINTER
   4457	006164	121011 				CMPB	(R0),(R1)	; ....IS THE DAY OK?
   4458	006166	002412 				BLT	GTDDBT		; ....NO -- GIVE "DBT" ERROR
   4459	006170				55$:
   4460	006170					POP	<R0,R1,R2,R5>	; ....YES -- RESTORE REGISTERS
	006170	012600 				 MOV	(SP)+,R0
	006172	012601 				 MOV	(SP)+,R1
	006174	012602 				 MOV	(SP)+,R2
	006176	012605 				 MOV	(SP)+,R5
   4461	006200	013737 	000000G	000000G		MOV	.RDXSV,.IRADX	; RESET THE RADIX
   4462	006206	005737 	000000G			TST	.INCHC		; LOOK AT THE CHARACTER COUNT
   4463	006212					RETURN			; EXIT
	006212	000207 				 RTS	PC
GTTIM -- INPUT AND DISPLAY DATE	MACRO M1113  10-NOV-81 17:48  PAGE 111
.GTDAT -- SUBROUTINE TO INPUT THE CURRENT DATE 7702.15

   4465	006214				GTDDBT:				; +++001
   4466	006214					ERROR$	DBT		; ERROR -- DATE BEFORE TODAY
	006214	012746 	014544 			 MOV	#^RDBT,-(SP)
	006220	104400 				 TRAP	TC.ERR
   4467						;
   4468	006222				GTDDOR:				;  +++001
   4469	006222					ERROR$	DOR		; ERROR -- DATE OUT OF RANGE
	006222	012746 	015552 			 MOV	#^RDOR,-(SP)
	006226	104400 				 TRAP	TC.ERR
   4470						;
   4471	006230				GTDIDF:
   4472	006230					ERROR$	IDF		; ERROR -- ILLEGAL DATE FORMAT
	006230	012746 	034346 			 MOV	#^RIDF,-(SP)
	006234	104400 				 TRAP	TC.ERR
   4473						;
   4474	006236				GTDYOR:				;  +++001
   4475	006236					ERROR$	YOR		; ERROR -- YEAR OUT OF RANGE
	006236	012746 	117252 			 MOV	#^RYOR,-(SP)
	006242	104400 				 TRAP	TC.ERR
   4476						;
   4477
   4478	000524				.PSECT	DATA
   4479
   4480	000524				.DTBUF::
   4481	000524	000000 	000000 	000000 		.WORD	0,0,0,0,0,0,0,0
	000532	000000 	000000 	000000
	000540	000000 	000000
   4482
   4483	002277				.PSECT	MESSAG
   4484
   4485	002277				GTDMS0:
   4486	002277	   104 	   101 	   124 		.ASCIZ	%DATE: %
	002302	   105 	   072 	   040
	002305	   000
   4487
   4488	006244				.PSECT
   4489
GTTIM -- INPUT AND DISPLAY DATE	MACRO M1113  10-NOV-81 17:48  PAGE 112
.GTTIM -- SUBROUTINE TO INPUT A TIME VALUE 7702.15

   4491					.SBTTL	.GTTIM -- SUBROUTINE TO INPUT A TIME VALUE 7702.15
   4492
   4493					;+
   4494					; .GTTIM -- SUBROUTINE TO INPUT A TIME VALUE
   4495					;
   4496					; THIS SUBROUTINE WILL ACCEPT A TIME VALUE FROM THE CONSOLE INPUT
   4497					; DEVICE OF THE FORMAT "HH:MM" OR "HHMM", AND RETURN IT EXPRESSED
   4498					; AS SECONDS-SINCE-MIDNIGHT / 2 (SSM).
   4499					;
   4500					; INPUT ARGUMENTS:
   4501					;
   4502					;	R0 POINTS TO THE DESTINATION FOR THE VALUE
   4503					;
   4504					; OUTPUT ARGUMENTS:
   4505					;
   4506					;	R0 POINTS TO THE TIME VALUE
   4507					;	CC-Z WILL BE SET TO INDICATE NO TIME WAS SPECIFIED (DEFAULT)
   4508					;
   4509					; ERROR CODES RETURNED:
   4510					;
   4511					;	ITF -- ILLEGAL TIME FORMAT
   4512					;	TOR -- TIME OUT OF RANGE
   4513					;-
   4514
   4515	006244				.GTTIM::
   4516	006244	013737 	000000G	000000G		MOV	.IRADX,.RDXSV	; SAVE THE CURRENT RADIX
   4517	006252	012737 	000012 	000000G		MOV	#^D10,.IRADX	; SET THE INPUT RADIX TO DECIMAL
   4518	006260					PUSH	<R5,R2,R1,R0>	; SAVE CALLER'S REGISTERS
	006260	010546 				 MOV	R5,-(SP)
	006262	010246 				 MOV	R2,-(SP)
	006264	010146 				 MOV	R1,-(SP)
	006266	010046 				 MOV	R0,-(SP)
   4519	006270	012702 	177777 			MOV	#-^D1,R2	; ....SET DEFAULT ARGUMENT
   4520	006274	012700 	002306'			MOV	#GTTMS0,R0	; ....PROMPT FOR TIME
   4521	006300					CALL	.TYMSF		; ....FORCE IT OUT
	006300	004737 	000000G			 JSR	PC,.TYMSF
   4522	006304	012701 	000000G			MOV	#.CIBFR,R1	; ....BUFFER POINTER TO R1
   4523	006310	010105 				MOV	R1,R5		; ....SET UP THE BUFFER POINTER
   4524	006312					CALL	.GTLIN		; ....READ THE INPUT
	006312	004737 	000000G			 JSR	PC,.GTLIN
   4525	006316	001514 				BEQ	30$		; ....EXIT IF NULL (DEFAULT)
   4526	006320					CALL	.CKSYM		; ....GET OVER LEADING BLANKS
	006320	004737 	000000G			 JSR	PC,.CKSYM
   4527	006324	132764 	000010 	000000G		BITB	#CH.EOC,.CHTAB(R4)
   4528	006332	001106 				BNE	30$		; ....EXIT IF E-O-C
   4529	006334					CALL	.CKARG		; ....SEE WHAT FOLLOWS
	006334	004737 	000000G			 JSR	PC,.CKARG
   4530	006340	001516 				BEQ	GTTITF		; ....ERROR IF NON-NUMERIC
   4531	006342	005046 				CLR	-(SP)		; ....CLEAR A BUFFER ON THE STACK
   4532	006344	005046 				CLR	-(SP)		; .....
   4533	006346	005046 				CLR	-(SP)		; ......
   4534	006350	010600 				MOV	SP,R0		; .......POINT TO THE BUFFER
   4535	006352					CALL	.GTNBR		; .......READ HOURS
	006352	004737 	000000G			 JSR	PC,.GTNBR
   4536	006356	122704 	000072 			CMPB	#':,R4		; .......IS NEXT CHARACTER A COLON?
   4537	006362	001437 				BEQ	10$		; .......YES -- GO READ MINUTE
   4538	006364					CALL	.CKEOC		; .......NO -- MUST HAVE E-O-C
GTTIM -- INPUT AND DISPLAY DATE	MACRO M1113  10-NOV-81 17:48  PAGE 112-1
.GTTIM -- SUBROUTINE TO INPUT A TIME VALUE 7702.15

	006364	004737 	000000G			 JSR	PC,.CKEOC
   4539	006370	005046 				CLR	-(SP)		; .......SET UP A DIVISOR ON THE STACK
   4540	006372	005046 				CLR	-(SP)		; ........
   4541	006374					PUSH	#^D100		; .........SO
	006374	012746 	000144 			 MOV	#^D100,-(SP)
   4542	006400	010601 				MOV	SP,R1		; ..........POINT TO THE DIVISOR
   4543	006402					CALL	.TPDIV		; ..........DO THE DIVISION
	006402	004737 	000000G			 JSR	PC,.TPDIV
   4544	006406	022711 	000073 			CMP	#^D59,(R1)	; ..........IS THE REMAINDER .LT. ^D59?
   4545	006412	002474 				BLT	GTTTOR		; .......... +++001 NO -- GIVE "TOR" ERROR
   4546	006414					PUSH	(R1)		; ..........YES -- SAVE THE REMAINDER
	006414	011146 				 MOV	(R1),-(SP)
   4547	006416	022710 	000027 			CMP	#^D23,(R0)	; ...........IS THE HOUR OK?
   4548	006422	002470 				BLT	GTTTOR		; ........... +++001 NO -- GIVE "TOR" ERROR
   4549	006424	011000 				MOV	(R0),R0		; ...........YES -- GET IT
   4550	006426	012701 	000074 			MOV	#^D60,R1	; ...........MULTIPLIER TO R1
   4551	006432					CALL	$MUL		; ...........DO THE MULTIPLICATION
	006432	004737 	000000G			 JSR	PC,$MUL
   4552	006436	010100 				MOV	R1,R0		; ...........PRODUCT TO R0
   4553	006440	062600 				ADD	(SP)+,R0	; ...........COMPUTE SECONDS SINCE MIDNIGHT
   4554	006442	012701 	000036 			MOV	#^D30,R1	; ..........MULTIPLIER
   4555	006446					CALL	$MUL		; ..........DO IT
	006446	004737 	000000G			 JSR	PC,$MUL
   4556	006452	010102 				MOV	R1,R2		; ..........SAVE IT IN R2
   4557	006454	062706 	000006 			ADD	#^D6,SP		; ..........RESET THE STACK
   4558	006460	000431 				BR	20$		; .......AND EXIT
   4559						;
   4560	006462				10$:
   4561	006462	105725 				TSTB	(R5)+		; .......GET OVER THE COLON
   4562	006464	011000 				MOV	(R0),R0		; .......GET THE HOUR
   4563	006466	022700 	000027 			CMP	#^D23,R0	; .......IS THE HOUR OK?
   4564	006472	002444 				BLT	GTTTOR		; ....... +++001 NO -- GIVE "TOR" ERROR
   4565	006474	012701 	000074 			MOV	#^D60,R1	; .......CONVERT TO MINUTES
   4566	006500					CALL	$MUL		; .......SO
	006500	004737 	000000G			 JSR	PC,$MUL
   4567	006504	010102 				MOV	R1,R2		; .......STASH IT AWAY
   4568	006506	010600 				MOV	SP,R0		; .......RESET POINTER
   4569	006510					CALL	.TPCLR		; .......FLUSH THE BUFFER
	006510	004737 	000000G			 JSR	PC,.TPCLR
   4570	006514					CALL	.GTNBR		; .......READ THE NEXT NUMBER
	006514	004737 	000000G			 JSR	PC,.GTNBR
   4571	006520	011000 				MOV	(R0),R0		; .......GET THE MINUTES
   4572	006522	022700 	000073 			CMP	#^D59,R0	; .......IS THE MINUTE OK?
   4573	006526	002426 				BLT	GTTTOR		; ....... +++001 NO -- GIVE "TOR" ERROR
   4574	006530	060200 				ADD	R2,R0		; .......ADD THE HOUR
   4575	006532	012701 	000036 			MOV	#^D30,R1	; .......CONVERT TO SECONDS
   4576	006536					CALL	$MUL		; .......SO
	006536	004737 	000000G			 JSR	PC,$MUL
   4577	006542	010102 				MOV	R1,R2		; .......SAVE IT IN R2
   4578	006544				20$:
   4579	006544	062706 	000006 			ADD	#^D6,SP		; .......RESET THE STACK
   4580	006550				30$:
   4581	006550					POP	R0		; ....RESTORE R0
	006550	012600 				 MOV	(SP)+,R0
   4582	006552	010210 				MOV	R2,(R0)		; ...SET THE TIME
   4583	006554					POP	<R1,R2,R5>	; ...RESTORE REGISTERS
	006554	012601 				 MOV	(SP)+,R1
GTTIM -- INPUT AND DISPLAY DATE	MACRO M1113  10-NOV-81 17:48  PAGE 112-2
.GTTIM -- SUBROUTINE TO INPUT A TIME VALUE 7702.15

	006556	012602 				 MOV	(SP)+,R2
	006560	012605 				 MOV	(SP)+,R5
   4584	006562	013737 	000000G	000000G		MOV	.RDXSV,.IRADX	; RESET THE RADIX
   4585	006570	005737 	000000G			TST	.INCHC		; LOOK AT THE CHARACTER COUNT
   4586	006574					RETURN			; AND EXIT
	006574	000207 				 RTS	PC
   4587	006576				GTTITF:
   4588	006576					ERROR$	ITF		; ERROR -- ILLEGAL TIME FORMAT
	006576	012746 	035546 			 MOV	#^RITF,-(SP)
	006602	104400 				 TRAP	TC.ERR
   4589						;
   4590	006604				GTTTOR:				;  +++001
   4591	006604					ERROR$	TOR		; +++001 ERROR -- TIME OUT OF RANGE
	006604	012746 	077552 			 MOV	#^RTOR,-(SP)
	006610	104400 				 TRAP	TC.ERR
   4592						;
   4593
   4594	002306				.PSECT	MESSAG
   4595
   4596	002306				GTTMS0:
   4597	002306	   124 	   111 	   115 		.ASCIZ	%TIME: %
	002311	   105 	   072 	   040
	002314	   000
   4598
   4599	006612				.PSECT
   4600
GTTIM -- INPUT AND DISPLAY DATE	MACRO M1113  10-NOV-81 17:48  PAGE 113
.TYDAT -- SUBROUTINE TO TYPE A DATE 7702.16

   4602					.SBTTL	.TYDAT -- SUBROUTINE TO TYPE A DATE 7702.16
   4603
   4604					;+
   4605					; .TYDAT -- SUBROUTINE TO TYPE A DATE
   4606					;
   4607					; THIS SUBROUTINE WILL OUTPUT A DATE ON THE CONSOLE DEVICE IN THE
   4608					; FOLLOWING FORMAT: "DD-MMM-YY".
   4609					;
   4610					; INPUT ARGUMENTS:
   4611					;
   4612					;	R0 POINTS TO A THREE BYTE BLOCK CONTAINING THE DATE
   4613					;
   4614					; OUTPUT ARGUMENTS:
   4615					;
   4616					;	NONE.
   4617					; ERROR CODES RETURNED:
   4618					;
   4619					;	NONE.
   4620					;-
   4621
   4622
   4623	006612				.TYDAT::
   4624	006612					PUSH	<.ORADX,R0,R2>	; SAVE CALLER'S REGISTERS
	006612	013746 	000000G			 MOV	.ORADX,-(SP)
	006616	010046 				 MOV	R0,-(SP)
	006620	010246 				 MOV	R2,-(SP)
   4625	006622	012737 	000012 	000000G		MOV	#^D10,.ORADX	; ...SET THE RADIX TO DECIMAL
   4626	006630	010002 				MOV	R0,R2		; ...CALLER'S POINTER TO R2
   4627	006632	122222 				CMPB	(R2)+,(R2)+	; ...ADVANCE THE POINTER
   4628	006634	111200 				MOVB	(R2),R0		; ...GET THE DAY
   4629	006636					CALL	.TYELA		; ...PRINT IT
	006636	004737 	000000G			 JSR	PC,.TYELA
   4630	006642					CALL	.TYMIN		; ...AND A <DASH>
	006642	004737 	000000G			 JSR	PC,.TYMIN
   4631	006646	114200 				MOVB	-(R2),R0	; ...GET THE MONTH
   4632	006650	006300 				ASL	R0		; ...MAKE IT AN EVEN INDEX
   4633	006652	016000 	000542'			MOV	TYDMTB-2(R0),R0	; ...POINT TO THE STRING
   4634	006656					CALL	.TYMSG		; ...PRINT IT
	006656	004737 	000000G			 JSR	PC,.TYMSG
   4635	006662					CALL	.TYMIN		; ...AND A <DASH>
	006662	004737 	000000G			 JSR	PC,.TYMIN
   4636	006666	122742 	000011 			CMPB	#^D9,-(R2)	; ...'09 OR EARLIER?
   4637	006672	002404 				BLT	10$		; ...NO -- GO ON
   4638	006674	012700 	000060 			MOV	#'0,R0		; ...YES -- FORCE THE LEADING ZERO
   4639	006700					CALL	.TYCHR		; ...SO
	006700	004737 	000000G			 JSR	PC,.TYCHR
   4640	006704				10$:
   4641	006704	111200 				MOVB	(R2),R0		; ...GET THE YEAR
   4642	006706					CALL	.TYELA		; ...PRINT IT
	006706	004737 	000000G			 JSR	PC,.TYELA
   4643	006712					POP	<R2,R0,.ORADX>	; ...RESTORE THE REGISTERS
	006712	012602 				 MOV	(SP)+,R2
	006714	012600 				 MOV	(SP)+,R0
	006716	012637 	000000G			 MOV	(SP)+,.ORADX
   4644	006722					CALLR	.TYSPC		; PRINT A <SPACE> AND EXIT
	006722	000137 	000000G			 JMP	.TYSPC
   4645						;
GTTIM -- INPUT AND DISPLAY DATE	MACRO M1113  10-NOV-81 17:48  PAGE 113-1
.TYDAT -- SUBROUTINE TO TYPE A DATE 7702.16

   4646
   4647	000544				.PSECT	DATA
   4648
   4649	000544				TYDMTB:
   4650	000544	000000G				.WORD	JANMSG
   4651	000546	000000G				.WORD	FEBMSG
   4652	000550	000000G				.WORD	MARMSG
   4653	000552	000000G				.WORD	APRMSG
   4654	000554	000000G				.WORD	MAYMSG
   4655	000556	000000G				.WORD	JUNMSG
   4656	000560	000000G				.WORD	JULMSG
   4657	000562	000000G				.WORD	AUGMSG
   4658	000564	000000G				.WORD	SEPMSG
   4659	000566	000000G				.WORD	OCTMSG
   4660	000570	000000G				.WORD	NOVMSG
   4661	000572	000000G				.WORD	DECMSG
   4662
   4663	006726				.PSECT
GTTIM -- INPUT AND DISPLAY DATE	MACRO M1113  10-NOV-81 17:48  PAGE 114
.TYTIM -- TIME OUTPUT SUBROUTINE 7702.16

   4665					.SBTTL	.TYTIM -- TIME OUTPUT SUBROUTINE 7702.16
   4666
   4667					;+
   4668					; .TYTIM -- TIME OUTPUT SUBROUTINE
   4669					;
   4670					; THIS SUBROUTINE WILL PRINT THE TIME ON THE CONSOLE OUTPUT DEVICE
   4671					; IN THE FOLLOWING FORMAT: "HH:MM"
   4672					;
   4673					; INPUT ARGUMENTS:
   4674					;
   4675					;	R0 POINTS TO THE TIME VALUE TO BE PRINTED
   4676					;	   IN SECONDS-SINCE-MIDNIGHT FORMAT (SSM).
   4677					;
   4678					; OUTPUT ARGUMENTS:
   4679					;
   4680					;	NONE.
   4681					;
   4682					; ERROR CODES RETURNED:
   4683					;
   4684					;	NONE.
   4685					;-
   4686
   4687
   4688	006726				.TYTIM::
   4689	006726					PUSH	<.ORADX,R0,R1>	; SAVE CALLER'S REGISTERS
	006726	013746 	000000G			 MOV	.ORADX,-(SP)
	006732	010046 				 MOV	R0,-(SP)
	006734	010146 				 MOV	R1,-(SP)
   4690	006736	012737 	000012 	000000G		MOV	#^D10,.ORADX	; ...SET OUTPUT RADIX TO DECIMAL
   4691	006744	011000 				MOV	(R0),R0		; ...GET THE TIME IN SSM/2
   4692	006746	012701 	003410 			MOV	#^D1800,R1	; ...DIVISOR FOR HOURS
   4693	006752					CALL	$DIV		; ...COMPUTE THE HOURS
	006752	004737 	000000G			 JSR	PC,$DIV
   4694	006756					PUSH	R0		; ...SAVE THEM
	006756	010046 				 MOV	R0,-(SP)
   4695	006760	010100 				MOV	R1,R0		; ....REMAINDER TO R0
   4696	006762	012701 	000036 			MOV	#^D30,R1	; ....DIVISOR FOR MINUTES
   4697	006766					CALL	$DIV		; ....COMPUTE THE MINUTES
	006766	004737 	000000G			 JSR	PC,$DIV
   4698	006772	010001 				MOV	R0,R1		; ....SAVE THEM IN R1
   4699	006774	022716 	000011 			CMP	#^D9,(SP)	; ....0900 OR EARLIER?
   4700	007000	002404 				BLT	10$		; ....NO -- GO ON
   4701	007002	012700 	000060 			MOV	#'0,R0		; ....YES -- FORCE THE LEADING ZERO
   4702	007006					CALL	.TYCHR		; ....SO
	007006	004737 	000000G			 JSR	PC,.TYCHR
   4703	007012				10$:
   4704	007012					POP	R0		; ....GET THE HOUR
	007012	012600 				 MOV	(SP)+,R0
   4705	007014					CALL	.TYELA		; ...PRINT IT
	007014	004737 	000000G			 JSR	PC,.TYELA
   4706	007020					CALL	.TYCOL		; ...TYPE A <COLON>
	007020	004737 	000000G			 JSR	PC,.TYCOL
   4707	007024	022701 	000011 			CMP	#^D9,R1		; ...9 MINUTES OR EARLIER?
   4708	007030	002404 				BLT	20$		; ...NO -- GO ON
   4709	007032	012700 	000060 			MOV	#'0,R0		; ...YES -- FORCE THE LEADING ZERO
   4710	007036					CALL	.TYCHR		; ...SO
	007036	004737 	000000G			 JSR	PC,.TYCHR
GTTIM -- INPUT AND DISPLAY DATE	MACRO M1113  10-NOV-81 17:48  PAGE 114-1
.TYTIM -- TIME OUTPUT SUBROUTINE 7702.16

   4711	007042				20$:
   4712	007042	010100 				MOV	R1,R0		; ...GET THE MINUTE
   4713	007044					CALL	.TYELA		; ...PRINT IT
	007044	004737 	000000G			 JSR	PC,.TYELA
   4714	007050					POP	<R1,R0,.ORADX>	; ...RESTORE THE REGISTERS
	007050	012601 				 MOV	(SP)+,R1
	007052	012600 				 MOV	(SP)+,R0
	007054	012637 	000000G			 MOV	(SP)+,.ORADX
   4715	007060					CALLR	.TYSPC		; TYPE A <SPACE> AND EXIT
	007060	000137 	000000G			 JMP	.TYSPC
   4716						;
HALTC -- HALT FUNCTION MODULE 7	MACRO M1113  10-NOV-81 17:48  PAGE 115
.TYTIM -- TIME OUTPUT SUBROUTINE 7702.16

   4718					.TITLE	HALTC -- HALT FUNCTION MODULE 7707.12
   4719
   4720						.IDENT	"005000"
   4721					;
   4722					;                             COPYRIGHT (C) 1975, 1979 BY
   4723					;                     DIGITAL EQUIPMENT CORPORATION, MAYNARD MASS.
   4724					;
   4725					;       THIS SOFTWARE IS FURNISHED UNDER A LICENSE AND MAY BE  USED  AND  COPIED
   4726					;       ONLY IN ACCORDANCE WITH THE TERMS OF SUCH LICENSE AND WITH THE INCLUSION
   4727					;       OF THE ABOVE COPYRIGHT NOTICE.  THIS SOFTWARE OR ANY OTHER COPIES THERE-
   4728					;       OF  MAY NOT BE PROVIDED OR OTHERWISE MADE AVAILABLE TO ANY OTHER PERSON.
   4729					;       NO TITLE TO OR OWNERSHIP OF THE SOFTWARE IS HEREBY TRANSFERRED.
   4730					;
   4731					;       THE INFORMATION CONTAINED IN THIS SOFTWARE IS SUBJECT TO CHANGE  WITHOUT
   4732					;       NOTICE  AND SHOULD NOT BE CONSTRUED AS A COMMITMENT BY DIGITAL EQUIPMENT
   4733					;       CORPORATION.
   4734					;
   4735					;       DIGITAL ASSUMES NO RESPONSIBILITY FOR THE  USE  OR  RELIABILITY  OF  ITS
   4736					;       SOFTWARE ON EQUIPMENT WHICH IS NOT SUPPILED BY DIGITAL.
   4737					;
   4738					;		MODULE: HALT FUNCTION
   4739					;
   4740					;		VERSION: 03-06
   4741					;
   4742					;		AUTHOR: R. BELANGER
   4743					;
   4744					;		DATE: 7707.12
   4745					;
   4746					;	THIS MODULE CONTAINS:
   4747					;
   4748					;	1) HALT FUNCTION CODE
HALTC -- HALT FUNCTION MODULE 7	MACRO M1113  10-NOV-81 17:48  PAGE 116
.HALTC -- THE "HALT" COMMAND 7710.11

   4750					.SBTTL	.HALTC -- THE "HALT" COMMAND 7710.11
   4751
   4752					;+
   4753					; .HALTC -- THE "HALT" COMMAND
   4754					;
   4755					; THIS ROUTINE HALTS THE KL WITH THE CLOCK RUNNING. (EXAMINE
   4756					; AND DEPOSIT ARE STILL SUPPORTED).
   4757					;
   4758					; INPUT ARGUMENTS:
   4759					;
   4760					;	NONE.
   4761					;
   4762					; OUTPUT ARGUMENTS:
   4763					;
   4764					;	NONE.
   4765					;
   4766					; ERROR CODES RETURNED:
   4767					;
   4768					;	ILS -- ILLEGAL SEPARATOR CHARACTER.
   4769					;-
   4770
   4771	007064				.HALTC::
   4772	007064					CALL	.CKEOC		; CHECK E-O-C
	007064	004737 	000000G			 JSR	PC,.CKEOC
   4773	007070					CALLR	.KLSTP		; HALT THE KL AND RETURN
	007070	000137 	000000G			 JMP	.KLSTP
   4774						;
INITC -- INITIALIZE COMMAND MOD	MACRO M1113  10-NOV-81 17:48  PAGE 117
.HALTC -- THE "HALT" COMMAND 7710.11

   4776					.TITLE	INITC -- INITIALIZE COMMAND MODULE 7602.16
   4777
   4778						.IDENT	"006110"
   4779
   4780					;
   4781					;                             COPYRIGHT (C) 1975, 1979 BY
   4782					;                     DIGITAL EQUIPMENT CORPORATION, MAYNARD MASS.
   4783					;
   4784					;       THIS SOFTWARE IS FURNISHED UNDER A LICENSE AND MAY BE  USED  AND  COPIED
   4785					;       ONLY IN ACCORDANCE WITH THE TERMS OF SUCH LICENSE AND WITH THE INCLUSION
   4786					;       OF THE ABOVE COPYRIGHT NOTICE.  THIS SOFTWARE OR ANY OTHER COPIES THERE-
   4787					;       OF  MAY NOT BE PROVIDED OR OTHERWISE MADE AVAILABLE TO ANY OTHER PERSON.
   4788					;       NO TITLE TO OR OWNERSHIP OF THE SOFTWARE IS HEREBY TRANSFERRED.
   4789					;
   4790					;       THE INFORMATION CONTAINED IN THIS SOFTWARE IS SUBJECT TO CHANGE  WITHOUT
   4791					;       NOTICE  AND SHOULD NOT BE CONSTRUED AS A COMMITMENT BY DIGITAL EQUIPMENT
   4792					;       CORPORATION.
   4793					;
   4794					;       DIGITAL ASSUMES NO RESPONSIBILITY FOR THE  USE  OR  RELIABILITY  OF  ITS
   4795					;       SOFTWARE ON EQUIPMENT WHICH IS NOT SUPPILED BY DIGITAL.
   4796					;
   4797					;		MODULE: INITIALIZE COMMAND
   4798					;
   4799					;		VERSION: 06-11
   4800					;
   4801					;		AUTHOR: R. BELANGER
   4802					;
   4803					;		DATE: 7602.16
   4804					;
   4805					;	THIS MODULE CONTAINS:
   4806					;
   4807					;	1) INITIALIZE COMMAND CODE
   4808					;
   4809					;	MODIFIED BY A. PECKHAM 7612.10 TO DELETE REFERENCES TO .SECFL
   4810
   4811						.MCALL	ALUN$,CLEF$S,DIR$,SETF$S,SVTK$S
INITC -- INITIALIZE COMMAND MOD	MACRO M1113  10-NOV-81 17:48  PAGE 118
.INITC -- THE "INITIALIZE" COMMAND 7602.16

   4813					.SBTTL	.INITC -- THE "INITIALIZE" COMMAND 7602.16
   4814
   4815					;+
   4816					; .INITC -- THE "INITIALIZE" COMMAND
   4817					;
   4818					; THIS ROUTINE (RE)INITIALIZES THE COMMAND PARSER
   4819					;
   4820					; INPUT ARGUMENTS:
   4821					;
   4822					;	NONE.
   4823					;
   4824					; OUTPUT ARGUMENTS:
   4825					;
   4826					;	".KLFLG" IS SET UP
   4827					;
   4828					; ERROR CODES RETURNED:
   4829					;
   4830					;	NONE.
   4831					;-
   4832
   4833	007074				.INITC::
   4834	007074					CALL	.CKEOC		; CHECK FOR E-O-C
	007074	004737 	000000G			 JSR	PC,.CKEOC
   4835	007100				.INIC0::
   4836	007100	000414 				BR	.INKLF		; INIT THE PARSER AND RETURN
   4837						;
INITC -- INITIALIZE COMMAND MOD	MACRO M1113  10-NOV-81 17:48  PAGE 119
.INIT  -- INITIALIZATION SUBROUTINE 7509.26

   4839					.SBTTL	.INIT  -- INITIALIZATION SUBROUTINE 7509.26
   4840
   4841					;+
   4842					; .INIT -- SUBROUTINE TO INITIALIZE THE COMMAND PARSER.
   4843					;
   4844					; THIS SUBROUTINE CLEARS INTERNAL BUFFERS AND INITIALIZES
   4845					; THE FOLLOWING REGISTERS:
   4846					;
   4847					;	(A) ".KLFLG" -- THE KL STATUS FLAG WORD,
   4848					;	(B) ".CLKWD" -- THE KL CLOCK STATUS WORD,
   4849					;	(C) ".PSCWD" -- THE KL PARITY CONTROL WORD.
   4850					;
   4851					; INPUT ARGUMENTS:
   4852					;
   4853					;	NONE.
   4854					;
   4855					; OUTPUT ARGUMENTS:
   4856					;
   4857					;	".KLFLG" IS SET UP
   4858					;
   4859					; ERROR CODES RETURNED:
   4860					;
   4861					;	CES -- KL CLOCK ERROR STOP.
   4862					;	CFH -- CAN'T FIND KL HALT LOOP.
   4863					;	DSF -- DTE-20 STATUS FAILURE.
   4864					;	FRF -- FUNCTION READ FAILED.
   4865					;	FWF -- FUNCTION WRITE FAILED.
   4866					;-
   4867
   4868	007102				.INIT::
   4869	007102					PUSH	R0		; SAVE R0
	007102	010046 				 MOV	R0,-(SP)
   4870	007104	000257 				CCC			; .CLEAR N, Z, V, C BITS
   4871	007106	012700 	000000G			MOV	#.DFBLK,R0	; .CLEAR THE DF BUFFERS
   4872	007112				10$:
   4873	007112	005020 				CLR	(R0)+		; .CLEAR A WORD
   4874	007114	020027 	000000G			CMP	R0,#DFBEND	; .ARE WE DONE?
   4875	007120	103774 				BLO	10$		; .NO -- KEEP GOING
   4876	007122	012737 	000200 	000000G		MOV	#KF.DEF,.KLFLG	; .YES -- INIT ".KLFLG"
   4877	007130					POP	R0		; .RESTORE R0
	007130	012600 				 MOV	(SP)+,R0
   4878
   4879					;	[CONTINUED ON THE FOLLOWING PAGE]
INITC -- INITIALIZE COMMAND MOD	MACRO M1113  10-NOV-81 17:48  PAGE 120
.INKLF -- SUBROUTINE TO SET UP KL STATE WORD 7601.09

   4881					.SBTTL	.INKLF -- SUBROUTINE TO SET UP KL STATE WORD 7601.09
   4882
   4883					;+
   4884					; .INKLF -- SUBROUTINE TO SET UP THE KL STATE FLAG WORD, ".KLFLG".
   4885					;
   4886					; THIS SUBROUTINE SETS UP THE STATE OF THE FOLLOWING
   4887					; FLAG BITS IN THE KL STATE FLAG WORD, ".KLFLG":
   4888					;
   4889					;	(A) "KF.CLK" -- KL CLOCK RUNNING FLAG,
   4890					;	(B) "KF.RUN" -- KL RUN FLOP SET FLAG,
   4891					;	(C) "KF.KLO" -- KL OPCODE ENABLED FLAG.
   4892					;
   4893					; .INKLF MAY BE CALLED DIRECTLY AS DESCRIBED IN THE CALLING SEQUENCE,
   4894					; OR BY ".INIT" WHICH FALLS INTO ".INKLF".
   4895					;
   4896					; INPUT ARGUMENTS:
   4897					;
   4898					;	NONE.
   4899					;
   4900					; OUTPUT ARGUMENTS:
   4901					;
   4902					;	".KLFLG" IS SET UP.
   4903					;
   4904					; ERROR CODES RETURNED:
   4905					;
   4906					;	CES -- KL CLOCK ERROR STOP.
   4907					;	CFH -- CAN'T FIND KL HALT LOOP.
   4908					;	DSF -- DTE-20 STATUS FAILURE.
   4909					;	DTC -- DTE-20 CONFUSED.
   4910					;	FRF -- FUNCTION READ FAILED.
   4911					;	FWF -- FUNCTION WRITE FAILED.
   4912					;-
INITC -- INITIALIZE COMMAND MOD	MACRO M1113  10-NOV-81 17:48  PAGE 121
.INKLF -- SUBROUTINE TO SET UP KL STATE WORD 7601.09

   4914	007132				.INKLF::
   4915	007132					SETF$S	#E.FHTO		; SET THE HALT TIMEOUT EVENT FLAG
	007132	012746 	000001 			MOV	#E.FHTO,-(SP)
	007136	012746 				MOV	(PC)+,-(SP)
	007140	   041 	   002 			.BYTE	33.,2
	007142	104375 				EMT	375
   4916	007144	103461 				BCS	60$		; ERROR IF CC-C IS SET
   4918	007146	005737 	000000G			TST	.KLERQ		; [5.1006]KL CRASH?
   4919	007152	001055 				BNE	50$		; [5.1006]YES -- EXIT
   4921	007154					PUSH	<R0,R1,R2,R3>	; NO -- SAVE CALLER'S REGISTERS
	007154	010046 				 MOV	R0,-(SP)
	007156	010146 				 MOV	R1,-(SP)
	007160	010246 				 MOV	R2,-(SP)
	007162	010346 				 MOV	R3,-(SP)
   4922	007164					CALL	.DTSTA		; ....READ THE DTE-20 STATUS REGISTER
	007164	004737 	000000G			 JSR	PC,.DTSTA
   4923	007170	032700 	000010 			BIT	#ST.MOD,R0	; ....IS THE DTE-20 PRIVILEGED?
   4925	007174	001047 				BNE	INIDNP		; ....UGH, BLETCH -- NO
   4927	007176					CALL	.CESCK		; ....YES -- SEE IF CLOCK ERROR STOP IS UP
	007176	004737 	000000G			 JSR	PC,.CESCK
   4928	007202	012702 	000000G			MOV	#.KLFLG,R2	; ....FLAG POINTER TO R2
   4929	007206	042712 	140000 			BIC	#KF.CLK!KF.RUN,(R2)
   4930									; ....CLEAR THE CLOCK AND RUNNING FLAGS
   4931	007212	005037 	000000G			CLR	.EDKLX		; ....RESET THE ADDRESS TO ZERO
   4932	007216	005037 	000002G			CLR	.EDKLX+2	; ....
   4933	007222	012700 	000200 			MOV	#ED.PHY,R0	; ....PHYSICAL REFERENCE
   4934	007226	012701 	000574'			MOV	#.INEXT,R1	; ....POINT TO DATA BLOCK
   4935	007232					CALL	.EXKLM		; ....EXAMINE KL MEMORY
	007232	004737 	000000G			 JSR	PC,.EXKLM
   4936	007236	052712 	100600 			BIS	#KF.CON!KF.KLO!KF.CLK,(R2) ;*
   4937									; ....SET THE CLOCK RUNNING FLAG
   4938	007242	012703 	000144 			MOV	#^D100,R3	; ....LOOP COUNT TO R3
   4939	007246				10$:
   4940	007246					CALL	.DTDW1		; ....READ DIAG WORD 1
	007246	004737 	000000G			 JSR	PC,.DTDW1
   4941	007252	032700 	002000 			BIT	#D1.RUN,R0	; ....IS RUN ON?
   4945	007256	001002 				BNE	20$		; ....YES -- GO ON
   4946	007260	077306 				SOB	R3,10$		; ....NO -- LOOP TILL COUNT EXHAUSTED
   4947	007262	000405 				BR	30$		; ....CAN'T FIND IT, GIVE UP
   4948						;
   4949
   4950					;	[CONTINUED ON THE FOLLOWING PAGE]
INITC -- INITIALIZE COMMAND MOD	MACRO M1113  10-NOV-81 17:48  PAGE 122
.INKLF -- SUBROUTINE TO SET UP KL STATE WORD 7601.09

   4952					;	[CONTINUED FROM THE PREVIOUS PAGE]
   4953
   4954	007264				20$:
   4955	007264	032700 	001000 			BIT	#D1.HLP,R0	; ....IS THE HALT LOOP THERE TOO?
   4957	007270	001014 				BNE	INIDTC		; ....YES -- GIVE "DTC" ERROR
   4959	007272	052712 	040000 			BIS	#KF.RUN,(R2)	; ....NO -- FOUND IT OK, SET THE FLAG
   4960	007276				30$:
   4974	007276					POP	<R3,R2,R1,R0>	; ....RESTORE CALLER'S REGISTERS
	007276	012603 				 MOV	(SP)+,R3
	007300	012602 				 MOV	(SP)+,R2
	007302	012601 				 MOV	(SP)+,R1
	007304	012600 				 MOV	(SP)+,R0
   4975	007306				50$:	RETURN			; TO CALLER
	007306	000207 				 RTS	PC
   4976	007310				60$:
   4977	007310	000137 	000000G			JMP	.EXITP		; ERROR EXIT
   4978						;
   4979	007314				INIDNP:
   4980	007314					ERROR$	DNP		; ERROR -- DTE-20 NOT PRIVILEGED
	007314	012746 	015500 			 MOV	#^RDNP,-(SP)
	007320	104400 				 TRAP	TC.ERR
   4981						;
   4982	007322				INIDTC:
   4983	007322					ERROR$	DTC		; ERROR --DTE-20 CONFUSED
	007322	012746 	016043 			 MOV	#^RDTC,-(SP)
	007326	104400 				 TRAP	TC.ERR
   4984						;
   4985
   4986	000574				.PSECT	DATA
   4987
   4988	000574				.INEXT:
   4989	000574	000000G				.WORD	.EDKLX		; ADDRESS 0
   4990	000576	000000G				.WORD	.EXBFR		; PLACE FOR DATA
   4991
   4992	007330				.PSECT
INITC -- INITIALIZE COMMAND MOD	MACRO M1113  10-NOV-81 17:48  PAGE 123
.INICP -- INITIALIZE THE COMMAND PARSER 7601.21

   4994					.SBTTL	.INICP -- INITIALIZE THE COMMAND PARSER 7601.21
   4995
   4996					;+
   4997					; .INICP -- ROUTINE TO INTIALIZE THE COMMAND PARSER.
   4998					;
   4999					; THIS SUBROUTINE WILL INITIALIZE THE RSX20F INTERFACE TO THE COMMAND
   5000					; PARSER. THE CONSOLE INPUT AND OUTPUT DEVICES ARE ASSIGNED AND ATTACHED,
   5001					; THE SST TRAPS ARE ENABLED, AND THE EVENT FLAGS ARE CLEARED.
   5002					;
   5003					; INPUT ARGUMENTS:
   5004					;
   5005					;	NONE.
   5006					;
   5007					; OUTPUT ARGUMENTS:
   5008					;
   5009					;	NONE.
   5010					;
   5011					; ERROR CODES RETURNED:
   5012					;
   5013					;	IF THE SST VECTORS CANNOT BE INITIALIZED THE PARSER EXITS.
   5014					;	IF THE CONSOLE OUTPUT DEVICE CANNOT BE ASSIGNED, THE PARSER EXITS.
   5015					;	IF THE CONSOLE OUTPUT DEVICE CANNOT BE ASSIGNED, THE PARSER EXITS.
   5016					;	IF THE CONSOLE DEVICE CANNOT BE ATTACHED, THE PARSER EXITS.
   5017					;-
   5018
   5019	007330				.INICP::
   5020	007330	010637 	000000G			MOV	SP,.SVESP	; INIT THE STACK POINTER
   5021	007334	005005 				CLR	R5		; CLEAR THE GPR'S
   5022	007336	005004 				CLR	R4
   5023	007340	005003 				CLR	R3
   5024	007342	005002 				CLR	R2
   5025	007344	005001 				CLR	R1
   5026	007346	005000 				CLR	R0
   5027	007350					SVTK$S	#.SSTTB,#SSTLEN	; INIT SST'S
	007350	012746 	000000G			MOV	#SSTLEN,-(SP)
	007354	012746 	000000G			MOV	#.SSTTB,-(SP)
	007360	012746 				MOV	(PC)+,-(SP)
	007362	   071 	   003 			.BYTE	57.,3
	007364	104375 				EMT	375
   5028	007366	103452 				BCS	10$		; DIE IF WE CAN'T DO THAT MUCH
   5029	007370					DIR$	#.ASCOD		; ASSIGN THE CONSOLE OUTPUT DEVICE
	007370	012746 	000026'			MOV	#.ASCOD,-(SP)
	007374	104375 				EMT	375
   5030	007376	103446 				BCS	10$		; DIE IF WE CAN'T DO THAT, EITHER
   5031	007400					DIR$	#.ASCID		; ASSIGN THE CONSOLE INPUT DEVICE
	007400	012746 	000016'			MOV	#.ASCID,-(SP)
	007404	104375 				EMT	375
   5032	007406	103442 				BCS	10$		; GIVE ERROR TRAP IF CC-C IS SET
   5033	007410					DIR$	#.ASLST		; [5.1000]ASSIGN LP DEVICE
	007410	012746 	000036'			MOV	#.ASLST,-(SP)
	007414	104375 				EMT	375
   5034
   5035					;	[CONTINUED ON THE FOLLOWING PAGE]
INITC -- INITIALIZE COMMAND MOD	MACRO M1113  10-NOV-81 17:48  PAGE 124
.INICP -- INITIALIZE THE COMMAND PARSER 7601.21

   5037					; 	[CONTINUED FROM THE PREVIOUS PAGE]
   5038
   5039	007416					CLEF$S	#E.FCTC		; CLEAR CONTROL-C EVENT FLAG
	007416	012746 	000000G			MOV	#E.FCTC,-(SP)
	007422	012746 				MOV	(PC)+,-(SP)
	007424	   037 	   002 			.BYTE	31.,2
	007426	104375 				EMT	375
   5040	007430					CLEF$S	#E.FHTO		; CLEAR HALT TIMEOUT EVENT FLAG
	007430	012746 	000001 			MOV	#E.FHTO,-(SP)
	007434	012746 				MOV	(PC)+,-(SP)
	007436	   037 	   002 			.BYTE	31.,2
	007440	104375 				EMT	375
   5041	007442					CLEF$S	#E.FCID		; CLEAR CONSOLE INPUT DONE EVENT FLAG
	007442	012746 	000002 			MOV	#E.FCID,-(SP)
	007446	012746 				MOV	(PC)+,-(SP)
	007450	   037 	   002 			.BYTE	31.,2
	007452	104375 				EMT	375
   5042	007454					SETF$S	#E.FCOD		; SET CONSOLE OUTPUT DONE EVENT FLAG
	007454	012746 	000003 			MOV	#E.FCOD,-(SP)
	007460	012746 				MOV	(PC)+,-(SP)
	007462	   041 	   002 			.BYTE	33.,2
	007464	104375 				EMT	375
   5044	007466					SETF$S	#E.FLOD		; SET LIST DEVICE OUTPUT DONE EVENT FLAG
	007466	012746 	000005 			MOV	#E.FLOD,-(SP)
	007472	012746 				MOV	(PC)+,-(SP)
	007474	   041 	   002 			.BYTE	33.,2
	007476	104375 				EMT	375
   5046	007500					CALL	.TCRLF		; INIT CONSOLE
	007500	004737 	000000G			 JSR	PC,.TCRLF
   5047	007504					CALL	.INIC0		; INIT ".KLFLG"
	007504	004737 	007100'			 JSR	PC,.INIC0
   5048	007510	000177 	000000G			JMP	@.STRTV		; START THE PARSER
   5049						;
   5050	007514				10$:
   5051	007514					CALLR	.EXITP		; EXIT GRACEFULLY
	007514	000137 	000000G			 JMP	.EXITP
   5052						;
INITC -- INITIALIZE COMMAND MOD	MACRO M1113  10-NOV-81 17:48  PAGE 125
.INICP -- INITIALIZE THE COMMAND PARSER 7601.21

   5054					; ASSIGN CONSOLE INPUT DEVICE
   5055
   5056	000016				.PSECT	DPBS
   5057
   5058	000016				.ASCID::
   5062	000016					ALUN$	CIDLUN,TT,0
	000016	   007 	   004 			.BYTE	7,4
	000020	000001 				.WORD	CIDLUN
	000022	   124 				.ASCII	/T/
	000023	   124 				.ASCII	/T/
	000024	000000 				.WORD	0
   5064
   5065					; ASSIGN CONSOLE OUTPUT DEVICE
   5066
   5067	000026				.ASCOD::
   5071	000026					ALUN$	CODLUN,TT,0
	000026	   007 	   004 			.BYTE	7,4
	000030	000002 				.WORD	CODLUN
	000032	   124 				.ASCII	/T/
	000033	   124 				.ASCII	/T/
	000034	000000 				.WORD	0
   5073
   5074					; ASSIGN LINEPRINTER DEVICE
   5075
   5076	000036				.ASLST::
   5077	000036					ALUN$	LSTLUN,LP,0
	000036	   007 	   004 			.BYTE	7,4
	000040	000003 				.WORD	LSTLUN
	000042	   114 				.ASCII	/L/
	000043	   120 				.ASCII	/P/
	000044	000000 				.WORD	0
   5078
   5079	007520				.PSECT
KLEDEF -- KLERR SNAPSHOT DEFAUL	MACRO M1113  10-NOV-81 17:48  PAGE 127
.INICP -- INITIALIZE THE COMMAND PARSER 7601.21

   5082					.TITLE	KLEDEF -- KLERR SNAPSHOT DEFAULT COMMANDS
   5083
   5084						.IDENT	"006270"
   5085
   5086					;
   5087					;                             COPYRIGHT (C) 1979 BY
   5088					;                     DIGITAL EQUIPMENT CORPORATION, MAYNARD MASS.
   5089					;
   5090					;       THIS SOFTWARE IS FURNISHED UNDER A LICENSE AND MAY BE  USED  AND  COPIED
   5091					;       ONLY IN ACCORDANCE WITH THE TERMS OF SUCH LICENSE AND WITH THE INCLUSION
   5092					;       OF THE ABOVE COPYRIGHT NOTICE.  THIS SOFTWARE OR ANY OTHER COPIES THERE-
   5093					;       OF  MAY NOT BE PROVIDED OR OTHERWISE MADE AVAILABLE TO ANY OTHER PERSON.
   5094					;       NO TITLE TO OR OWNERSHIP OF THE SOFTWARE IS HEREBY TRANSFERRED.
   5095					;
   5096					;       THE INFORMATION CONTAINED IN THIS SOFTWARE IS SUBJECT TO CHANGE  WITHOUT
   5097					;       NOTICE  AND SHOULD NOT BE CONSTRUED AS A COMMITMENT BY DIGITAL EQUIPMENT
   5098					;       CORPORATION.
   5099					;
   5100					;       DIGITAL ASSUMES NO RESPONSIBILITY FOR THE  USE  OR  RELIABILITY  OF  ITS
   5101					;       SOFTWARE ON EQUIPMENT WHICH IS NOT SUPPILED BY DIGITAL.
   5102					;
   5103					;		MODULE: KLERR DEFAULT COMMANDS
   5104					;
   5105					;		VERSION: 06-27
   5106					;
   5107					;		AUTHOR: K. LEFEBVRE
   5108					;
   5109					;		DATE: 12-DEC-79
   5110					;
   5111					;		EDIT HISTORY
   5112					;
   5113					; SL9160  16-SEP-80	S. LEAPLINE	DON'T DO TAKE IF KL HALTED
   5114					;
   5115					.MACRO	DEFCMD	NUM,COMMAND
   5116
   5117					.PSECT	DATA
   5118						.WORD	CMD'NUM
   5119
   5120					.PSECT	MESSAG
   5121					CMD'NUM:.ASCIZ	%COMMAND%
   5122
   5123					.PSECT	DATA
   5124
   5125					.ENDM	DEFCMD
KLEDEF -- KLERR SNAPSHOT DEFAUL	MACRO M1113  10-NOV-81 17:48  PAGE 128
.KLE -- ROUTINE TO RETURN DEFAULT KLERR COMMANDS

   5127					.SBTTL	.KLE -- ROUTINE TO RETURN DEFAULT KLERR COMMANDS
   5128
   5129					;+
   5130					; .KLE -- ROUTINE TO RETURN DEFAULT KLERR SNAPSHOT COMMANDS
   5131					;
   5132					; THIS ROUTINE CONTAINS BUILT INTO IT THE DEFAULT KLERR SNAPSHOT
   5133					; COMMANDS THAT ARE EXECUTED ANYTIME THE KL CRASHES. THEY ARE
   5134					; ASSEMBLED IN TO MAKE IT DIFFICULT FOR SITES TO MODIFY THEM AND
   5135					; CORRUPT THE SNAPSHOT.
   5136					;
   5137					;		THIS ROUTINE ADDED FOR TCO 4.1.1049
   5138					;
   5139					; INPUT ARGUMENTS:
   5140					;
   5141					;	NONE
   5142					;
   5143					; OUTPUT ARGUMENTS:
   5144					;
   5145					;	NONE
   5146					;
   5147					; ERROR CODES RETURNED:
   5148					;
   5149					;	NONE
   5150					;-
   5151
   5153	007520				.KLE::
   5154	007520					PUSH	<R1,R0>		; SAVE REGISTERS
	007520	010146 				 MOV	R1,-(SP)
	007522	010046 				 MOV	R0,-(SP)
   5155	007524	012701 	000000G			MOV	#.CIBFR,R1	; INPUT BUFFER POINTER
   5156	007530	105737 	000000G			TSTB	.KLEVL		; POINTER VALID FLAG (FOR OVERLAY)
   5157	007534	001005 				BNE	5$		; YES -- GET COMMAND
   5158	007536	012737 	000600'	000000G		MOV	#KLETAB,.KLEPT	; NO -- SET POINTER
   5159	007544	105237 	000000G			INCB	.KLEVL		; SET POINTER VALID
   5160	007550	013700 	000000G		5$:	MOV	.KLEPT,R0	; CURRENT COMMAND POINTER
   5161	007554	062737 	000002 	000000G		ADD	#2,.KLEPT	; UPDATE POINTER
   5162	007562	011000 				MOV	(R0),R0		; GET COMMAND ADDRESS
   5163	007564	001412 				BEQ	30$		; ALL COMMANDS DONE
   5164	007566	112021 			10$:	MOVB	(R0)+,(R1)+	; MOVE COMMAND TO INPUT BUFFER
   5165	007570	001376 				BNE	10$		; DONE?
   5166	007572	005301 				DEC	R1		; YES -- REMOVE LAST NULL
   5167	007574	162701 	000000G			SUB	#.CIBFR,R1	; GET COMMAND LENGTH
   5168	007600	010137 	000002G			MOV	R1,.CISTS+2	; SAVE LENGTH
   5169	007604				20$:	POP	<R0,R1>		; RESTORE REGISTERS
	007604	012600 				 MOV	(SP)+,R0
	007606	012601 				 MOV	(SP)+,R1
   5170	007610					RETURN			; EXIT
	007610	000207 				 RTS	PC
   5171	007612	132737 	000000G	000000G	30$:	BITB	#M.TAKP,.MISC	; HAVE WE ALREADY DONE PARSER.CMD ?
   5172	007620	001014 				BNE	35$		; BRANCH IF YES
   5173	007622	105737 	000000G			TSTB	.ATOTAK		; SHOULD WE DO THE TAKE OF PARSER.CMD ?
   5174	007626	001011 				BNE	35$		; BRANCH IF NOT
   5175	007630	152737 	000000G	000000G		BISB	#M.TAKP,.MISC	; SAY WE HAVE DONE PARSER.CMD ALREADY
   5176	007636	012737 	000656'	000000G		MOV	#TAKTAB,.KLEPT	; [SL9160] ADDRESS OF THE TAKE TABLE
   5177	007644	105237 	000000G			INCB	.KLEVL		; [SL9160] SET COMMAND VALID FLAG
   5178	007650	000737 				BR	5$		; [SL9160] DO THE TAKE
   5179	007652	042737 	000000G	000000G	35$:	BIC	#M.TAKP,.MISC	; [SL9160] CLEAR THE TAKE FLAG
KLEDEF -- KLERR SNAPSHOT DEFAUL	MACRO M1113  10-NOV-81 17:48  PAGE 128-1
.KLE -- ROUTINE TO RETURN DEFAULT KLERR COMMANDS

   5180	007660	005037 	000000G			CLR	.KLEDF		; CLEAR DEFAULT COMMAND FLAG
   5181	007664	012700 	002315'			MOV	#EOSMSG,R0	; END-OF-SNAPSHOT MESSAGE PTR
   5182	007670					CALL	.TYMSG		; TYPE IT
	007670	004737 	000000G			 JSR	PC,.TYMSG
   5183	007674	005037 	000002G			CLR	.CISTS+2	; CLEAR COMMAND LENGTH
   5184	007700	105737 	000000G			TSTB	.KLSNP		; SNAPSHOT COMMAND IN PROGRESS?
   5185	007704	001404 				BEQ	40$		; NO -- GO ON
   5186	007706	005037 	000000G			CLR	.KLERQ		; YES -- CLEAR SNAPSHOT FLAG
   5187	007712	105037 	000000G			CLRB	.KLSNP		; SAY SNAPSHOT COMMAND DONE
   5188	007716	032737 	000000G	000000G	40$:	BIT	#KL.REQ,.KLIWD	; KLI REQUESTED
   5189	007724	001727 				BEQ	20$		; NO -- GET INPUT FROM CTY
   5190	007726					CALL	.TCRLF		; YES -- OUTPUT EOS
	007726	004737 	000000G			 JSR	PC,.TCRLF
   5191	007732					CALLR	.EXITP		; EXIT TO KLI
	007732	000137 	000000G			 JMP	.EXITP
   5192
   5193	002315				.PSECT	MESSAG
   5194
   5195	002315				EOSMSG:
   5196	002315	   040 	   074 	   105 		.ASCIZ	% <END OF SNAPSHOT> %
	002320	   116 	   104 	   040
	002323	   117 	   106 	   040
	002326	   123 	   116 	   101
	002331	   120 	   123 	   110
	002334	   117 	   124 	   076
	002337	   040 	   000
   5197
   5198	000600				.PSECT	DATA
   5199
   5200
   5201	000600				KLETAB::
   5202	000600					DEFCMD	1,<SET OUTPUT LOG>
	000600	002341'				.WORD	CMD1
	002341	   123 	   105 	   124 	CMD1:.ASCIZ	%SET OUTPUT LOG%
	002344	   040 	   117 	   125
	002347	   124 	   120 	   125
	002352	   124 	   040 	   114
	002355	   117 	   107 	   000
   5203	000602					DEFCMD	1A,<EXAMINE KL>
	000602	002360'				.WORD	CMD1A
	002360	   105 	   130 	   101 	CMD1A:.ASCIZ	%EXAMINE KL%
	002363	   115 	   111 	   116
	002366	   105 	   040 	   113
	002371	   114 	   000
   5204	000604					DEFCMD	1B,<CLEAR OUTPUT TTY>
	000604	002373'				.WORD	CMD1B
	002373	   103 	   114 	   105 	CMD1B:.ASCIZ	%CLEAR OUTPUT TTY%
	002376	   101 	   122 	   040
	002401	   117 	   125 	   124
	002404	   120 	   125 	   124
	002407	   040 	   124 	   124
	002412	   131 	   000
   5205	000606					DEFCMD	1C,<SET CONSOLE MAINTENANCE>
	000606	002414'				.WORD	CMD1C
	002414	   123 	   105 	   124 	CMD1C:.ASCIZ	%SET CONSOLE MAINTENANCE%
	002417	   040 	   103 	   117
	002422	   116 	   123 	   117
KLEDEF -- KLERR SNAPSHOT DEFAUL	MACRO M1113  10-NOV-81 17:48  PAGE 128-2
.KLE -- ROUTINE TO RETURN DEFAULT KLERR COMMANDS

	002425	   114 	   105 	   040
	002430	   115 	   101 	   111
	002433	   116 	   124 	   105
	002436	   116 	   101 	   116
	002441	   103 	   105 	   000
   5206	000610					DEFCMD	1D,<SHOW HARDWARE>
	000610	002444'				.WORD	CMD1D
	002444	   123 	   110 	   117 	CMD1D:.ASCIZ	%SHOW HARDWARE%
	002447	   127 	   040 	   110
	002452	   101 	   122 	   104
	002455	   127 	   101 	   122
	002460	   105 	   000
   5207	000612					DEFCMD	2,<EXAMINE DTE>
	000612	002462'				.WORD	CMD2
	002462	   105 	   130 	   101 	CMD2:.ASCIZ	%EXAMINE DTE%
	002465	   115 	   111 	   116
	002470	   105 	   040 	   104
	002473	   124 	   105 	   000
   5208	000614					DEFCMD	3,<FREAD 100:177>
	000614	002476'				.WORD	CMD3
	002476	   106 	   122 	   105 	CMD3:.ASCIZ	%FREAD 100:177%
	002501	   101 	   104 	   040
	002504	   061 	   060 	   060
	002507	   072 	   061 	   067
	002512	   067 	   000
   5209	000616					DEFCMD	3A,<WHAT AC>
	000616	002514'				.WORD	CMD3A
	002514	   127 	   110 	   101 	CMD3A:.ASCIZ	%WHAT AC%
	002517	   124 	   040 	   101
	002522	   103 	   000
   5210	000620					DEFCMD	4,<SWEEP>
	000620	002524'				.WORD	CMD4
	002524	   123 	   127 	   105 	CMD4:.ASCIZ	%SWEEP%
	002527	   105 	   120 	   000
   5211	000622					DEFCMD	4A,<SET AC 0>
	000622	002532'				.WORD	CMD4A
	002532	   123 	   105 	   124 	CMD4A:.ASCIZ	%SET AC 0%
	002535	   040 	   101 	   103
	002540	   040 	   060 	   000
   5212	000624					DEFCMD	5,<XCT CONI 0,15!	CONI APR,15>
	000624	002543'				.WORD	CMD5
	002543	   130 	   103 	   124 	CMD5:.ASCIZ	%XCT CONI 0,15!	CONI APR,15%
	002546	   040 	   103 	   117
	002551	   116 	   111 	   040
	002554	   060 	   054 	   061
	002557	   065 	   041 	   011
	002562	   103 	   117 	   116
	002565	   111 	   040 	   101
	002570	   120 	   122 	   054
	002573	   061 	   065 	   000
   5213	000626					DEFCMD	5A,<EXAMINE TEN 15>
	000626	002576'				.WORD	CMD5A
	002576	   105 	   130 	   101 	CMD5A:.ASCIZ	%EXAMINE TEN 15%
	002601	   115 	   111 	   116
	002604	   105 	   040 	   124
	002607	   105 	   116 	   040
	002612	   061 	   065 	   000
KLEDEF -- KLERR SNAPSHOT DEFAUL	MACRO M1113  10-NOV-81 17:48  PAGE 128-3
.KLE -- ROUTINE TO RETURN DEFAULT KLERR COMMANDS

   5214	000630					DEFCMD	6,<XCT BLKI 4,15!	RDERA>
	000630	002615'				.WORD	CMD6
	002615	   130 	   103 	   124 	CMD6:.ASCIZ	%XCT BLKI 4,15!	RDERA%
	002620	   040 	   102 	   114
	002623	   113 	   111 	   040
	002626	   064 	   054 	   061
	002631	   065 	   041 	   011
	002634	   122 	   104 	   105
	002637	   122 	   101 	   000
   5215	000632					DEFCMD	6A,<EXAMINE TEN 15>
	000632	002642'				.WORD	CMD6A
	002642	   105 	   130 	   101 	CMD6A:.ASCIZ	%EXAMINE TEN 15%
	002645	   115 	   111 	   116
	002650	   105 	   040 	   124
	002653	   105 	   116 	   040
	002656	   061 	   065 	   000
   5216	000634					DEFCMD	7,<XCT CONI 4,15!	CONI PI,15>
	000634	002661'				.WORD	CMD7
	002661	   130 	   103 	   124 	CMD7:.ASCIZ	%XCT CONI 4,15!	CONI PI,15%
	002664	   040 	   103 	   117
	002667	   116 	   111 	   040
	002672	   064 	   054 	   061
	002675	   065 	   041 	   011
	002700	   103 	   117 	   116
	002703	   111 	   040 	   120
	002706	   111 	   054 	   061
	002711	   065 	   000
   5217	000636					DEFCMD	7A,<EXAMINE TEN 15>
	000636	002713'				.WORD	CMD7A
	002713	   105 	   130 	   101 	CMD7A:.ASCIZ	%EXAMINE TEN 15%
	002716	   115 	   111 	   116
	002721	   105 	   040 	   124
	002724	   105 	   116 	   040
	002727	   061 	   065 	   000
   5218	000640					DEFCMD	10,<XCT DATAI 10,15!	DATAI PAG,15>
	000640	002732'				.WORD	CMD10
	002732	   130 	   103 	   124 	CMD10:.ASCIZ	%XCT DATAI 10,15!	DATAI PAG,15%
	002735	   040 	   104 	   101
	002740	   124 	   101 	   111
	002743	   040 	   061 	   060
	002746	   054 	   061 	   065
	002751	   041 	   011 	   104
	002754	   101 	   124 	   101
	002757	   111 	   040 	   120
	002762	   101 	   107 	   054
	002765	   061 	   065 	   000
   5219	000642					DEFCMD	10B,<EXAMINE TEN 15>
	000642	002770'				.WORD	CMD10B
	002770	   105 	   130 	   101 	CMD10B:.ASCIZ	%EXAMINE TEN 15%
	002773	   115 	   111 	   116
	002776	   105 	   040 	   124
	003001	   105 	   116 	   040
	003004	   061 	   065 	   000
   5220	000644					DEFCMD	11,<XCT CONI 10,15!	CONI PAG,15>
	000644	003007'				.WORD	CMD11
	003007	   130 	   103 	   124 	CMD11:.ASCIZ	%XCT CONI 10,15!	CONI PAG,15%
	003012	   040 	   103 	   117
KLEDEF -- KLERR SNAPSHOT DEFAUL	MACRO M1113  10-NOV-81 17:48  PAGE 128-4
.KLE -- ROUTINE TO RETURN DEFAULT KLERR COMMANDS

	003015	   116 	   111 	   040
	003020	   061 	   060 	   054
	003023	   061 	   065 	   041
	003026	   011 	   103 	   117
	003031	   116 	   111 	   040
	003034	   120 	   101 	   107
	003037	   054 	   061 	   065
	003042	   000
   5221	000646					DEFCMD	11A,<EXAMINE TEN 15>
	000646	003043'				.WORD	CMD11A
	003043	   105 	   130 	   101 	CMD11A:.ASCIZ	%EXAMINE TEN 15%
	003046	   115 	   111 	   116
	003051	   105 	   040 	   124
	003054	   105 	   116 	   040
	003057	   061 	   065 	   000
   5222	000650					DEFCMD	12,<SET OUTPUT TTY>
	000650	003062'				.WORD	CMD12
	003062	   123 	   105 	   124 	CMD12:.ASCIZ	%SET OUTPUT TTY%
	003065	   040 	   117 	   125
	003070	   124 	   120 	   125
	003073	   124 	   040 	   124
	003076	   124 	   131 	   000
   5223	000652					DEFCMD	13,<CLEAR OUTPUT LOG>
	000652	003101'				.WORD	CMD13
	003101	   103 	   114 	   105 	CMD13:.ASCIZ	%CLEAR OUTPUT LOG%
	003104	   101 	   122 	   040
	003107	   117 	   125 	   124
	003112	   120 	   125 	   124
	003115	   040 	   114 	   117
	003120	   107 	   000
   5224	000654	000000 				.WORD	0
   5225	000656				TAKTAB::
   5226	000656					DEFCMD	14,<TAKE>
	000656	003122'				.WORD	CMD14
	003122	   124 	   101 	   113 	CMD14:.ASCIZ	%TAKE%
	003125	   105 	   000
   5227	000660	000000 				.WORD	0
   5228	007736				.PSECT
KLEDEF -- KLERR SNAPSHOT DEFAUL	MACRO M1113  10-NOV-81 17:48  PAGE 129
.SNAP -- ROUTINE TO MANUALLY PERFORM A SNAPSHOT

   5231					.SBTTL	.SNAP -- ROUTINE TO MANUALLY PERFORM A SNAPSHOT
   5232
   5233					;+
   5234					; .SNAP -- ROUTINE TO MANUALLY TAKE A KL SNAPSHOT
   5235					;
   5236					; THIS ROUTINE WILL SET UP THE CONTROL FLAGS THAT WILL CAUSE THE PARSER
   5237					; TO AT IN THE KLERR FUNCTION OF TAKING A SNAPSHOT.
   5238					;
   5239					;		THIS ROUTINE ADDED FOR TCO 4.1.1049
   5240					;
   5241					; INPUT ARGUMENTS:
   5242					;
   5243					;	NONE
   5244					;
   5245					; OUTPUT ARGUMENTS:
   5246					;
   5247					;	NONE
   5248					;
   5249					; ERROR CODES RETURNED:
   5250					;
   5251					;	NONE
   5252					;-
   5253
   5255	007736				.SNAP::
   5256	007736					CALL	.CKEOC		; MUST HAVE E-O-C
	007736	004737 	000000G			 JSR	PC,.CKEOC
   5257	007742	005237 	000000G			INC	.KLERQ		; SET FLAG THAT SAYS SNAPSHOT REQUIRED
   5258	007746	005237 	000000G			INC	.KLEDF		; SET FLAG THAT CAUSES DEFAULT COMMANDS
   5259	007752	105037 	000000G			CLRB	.KLEVL		; CLEAR DEFAULT COMMAND VALID FLAG
   5260	007756	105237 	000000G			INCB	.KLSNP		; SAY SNAPSHOT COMMAND IN PROGRESS
   5261	007762					RETURN			; DONE
	007762	000207 				 RTS	PC
   5262
MARKC -- KL MARK/UNMARK-MICROCO	MACRO M1113  10-NOV-81 17:48  PAGE 131
.SNAP -- ROUTINE TO MANUALLY PERFORM A SNAPSHOT

   5266					.TITLE	MARKC -- KL MARK/UNMARK-MICROCODE COMMAND MODULE 7910.19
   5267
   5268						.IDENT	"006130"
   5269
   5270					;
   5271					;                             COPYRIGHT (C) 1975, 1979 BY
   5272					;                     DIGITAL EQUIPMENT CORPORATION, MAYNARD MASS.
   5273					;
   5274					;       THIS SOFTWARE IS FURNISHED UNDER A LICENSE AND MAY BE  USED  AND  COPIED
   5275					;       ONLY IN ACCORDANCE WITH THE TERMS OF SUCH LICENSE AND WITH THE INCLUSION
   5276					;       OF THE ABOVE COPYRIGHT NOTICE.  THIS SOFTWARE OR ANY OTHER COPIES THERE-
   5277					;       OF  MAY NOT BE PROVIDED OR OTHERWISE MADE AVAILABLE TO ANY OTHER PERSON.
   5278					;       NO TITLE TO OR OWNERSHIP OF THE SOFTWARE IS HEREBY TRANSFERRED.
   5279					;
   5280					;       THE INFORMATION CONTAINED IN THIS SOFTWARE IS SUBJECT TO CHANGE  WITHOUT
   5281					;       NOTICE  AND SHOULD NOT BE CONSTRUED AS A COMMITMENT BY DIGITAL EQUIPMENT
   5282					;       CORPORATION.
   5283					;
   5284					;       DIGITAL ASSUMES NO RESPONSIBILITY FOR THE  USE  OR  RELIABILITY  OF  ITS
   5285					;       SOFTWARE ON EQUIPMENT WHICH IS NOT SUPPILED BY DIGITAL.
   5286					;
   5287					;
   5288					;		MODULE: KL CRAM DISPATCH FIELD READ
   5289					;
   5290					;		VERSION: 06-13
   5291					;
   5292					;		AUTHOR: R. BELANGER
   5293					;
   5294					;		DATE: 7910.19
   5295					;
   5296					;	THIS MODULE CONTAINS:
   5297					;
   5298					;	1) MARK MICROCODE COMMAND
   5299					;	2) UNMARK MICROCODE COMMAND
MARKC -- KL MARK/UNMARK-MICROCO	MACRO M1113  10-NOV-81 17:48  PAGE 132
.MARKC -- THE "MARK/UNMARK-MICROCODE" COMMAND 7910.19

   5301					.SBTTL	.MARKC -- THE "MARK/UNMARK-MICROCODE" COMMAND 7910.19
   5302
   5303					;+
   5304					; .MARKC -- THE "MARK-MICROCODE" COMMAND
   5305					; .UMRKC -- THE "UNMARK-MICROCODE" COMMAND
   5306					;
   5307					; THESE SUBROUTINES WILL EITHER MARK OR UNMARK A SINGLE LOCATION IN THE
   5308					; KL CRAM.  NO CHECK IS MADE TO SEE WHETHER OR NOT THE LOCATION IS ALREADY
   5309					; IN THE DESIRED STATE; THE COMMAND IS SIMPLY EXECUTED
   5310					;
   5311					; INPUT ARGUMENTS:
   5312					;
   5313					;	NONE.
   5314					;
   5315					; OUTPUT ARGUMENTS:
   5316					;
   5317					;	NONE.
   5318					;	R0, R1, R2 -- ALTERED.
   5319					;
   5320					; ERROR CODES RETURNED:
   5321					;
   5322					;	NONE.
   5323					;
   5324					; NOTE:
   5325					;
   5326					;	NO ATTEMPT IS MADE TO RESTORE THE STATE OF THE KL CLOCK OR THE
   5327					;	KL RUN FLOP.  THIS ROUTINE ESSENTIALLY CLOBBERS ANY HARDWARE
   5328					;	CONTEXT THAT EXISTS WHEN IT IS CALLED AND EXITS WITH THE KL
   5329					;	CLOCK OFF.
   5330					;-
   5331						.ENABL	LSB
   5332
   5333	007764				.UMRKC::
   5334	007764	005046 				CLR	-(SP)		; SET THE "UNMARK" FLAG
   5335	007766	000402 				BR	10$		; .AND ENTER COMMON CODE
   5336						;
   5337	007770				.MARKC::
   5338	007770	012746 	000001 			MOV	#1,-(SP)	; SET THE "MARK" FLAG
   5339	007774				10$:
   5340	007774					CALL	.CKRUN		; .BETTER NOT BE RUNNING...
	007774	004737 	000000G			 JSR	PC,.CKRUN
   5341	010000					CALL	.GTELN		; .READ THE CRAM ADDRESS
	010000	004737 	000000G			 JSR	PC,.GTELN
   5342	010004	010002 				MOV	R0,R2		; .COPY ADDRESS TO R2
   5343	010006					CALL	.RDCRM		; .READ THE CRAM LOCATION SPECIFIED
	010006	004737 	000000G			 JSR	PC,.RDCRM
   5344	010012	012701 	000400 			MOV	#400,R1		; .MARK BIT TO R1
   5345	010016	005716 				TST	(SP)		; .TEST "MARK" FLAG
   5346	010020	001003 				BNE	20$		; .MARK -- GO DO IT
   5347	010022	040160 	000006 			BIC	R1,6(R0)	; .UNMARK -- DO IT NOW
   5348	010026	000402 				BR	30$		; .AND EXIT IN COMMON CODE
   5349						;
   5350	010030				20$:
   5351	010030	050160 	000006 			BIS	R1,6(R0)	; .MARK THE MICROCODE
   5352	010034				30$:
   5353	010034	010001 				MOV	R0,R1		; .COPY BUFFER POINTER TO R1
   5354	010036	010200 				MOV	R2,R0		; .COPY ADDRESS TO R0
MARKC -- KL MARK/UNMARK-MICROCO	MACRO M1113  10-NOV-81 17:48  PAGE 132-1
.MARKC -- THE "MARK/UNMARK-MICROCODE" COMMAND 7910.19

   5355	010040					CALL	.WRCRM		; .REWRITE THE CRAM
	010040	004737 	000000G			 JSR	PC,.WRCRM
   5356	010044	122715 	000054 			CMPB	#',,(R5)	; [5.1014]IS THIS A LIST?
   5357	010050	001004 				BNE	40$		; [5.1014]NO -- GO ON
   5358	010052	105725 				TSTB	(R5)+		; [5.1014]YES -- REMOVE COMMA
   5359	010054	005726 				TST	(SP)+		; [5.1014]REMOVE AND TEST "MARK" FLAG
   5360	010056	001344 				BNE	.MARKC		; [5.1014]MARK COMMAND
   5361	010060	000741 				BR	.UMRKC		; [5.1014]UNMARK COMMAND
   5362	010062	005726 			40$:	TST	(SP)+		; [5.1014]POP STACK
   5363	010064					RETURN			; [5.1014]EXIT
	010064	000207 				 RTS	PC
   5364						;
   5365
   5366						.DSABLE	LSB
RESTC -- RESET COMMAND DISPATCH	MACRO M1113  10-NOV-81 17:48  PAGE 134
.MARKC -- THE "MARK/UNMARK-MICROCODE" COMMAND 7910.19

   5369					.TITLE	RESTC -- RESET COMMAND DISPATCH 7707.12
   5370
   5371						.IDENT	"005000"
   5372					;
   5373					;                             COPYRIGHT (C) 1975, 1979 BY
   5374					;                     DIGITAL EQUIPMENT CORPORATION, MAYNARD MASS.
   5375					;
   5376					;       THIS SOFTWARE IS FURNISHED UNDER A LICENSE AND MAY BE  USED  AND  COPIED
   5377					;       ONLY IN ACCORDANCE WITH THE TERMS OF SUCH LICENSE AND WITH THE INCLUSION
   5378					;       OF THE ABOVE COPYRIGHT NOTICE.  THIS SOFTWARE OR ANY OTHER COPIES THERE-
   5379					;       OF  MAY NOT BE PROVIDED OR OTHERWISE MADE AVAILABLE TO ANY OTHER PERSON.
   5380					;       NO TITLE TO OR OWNERSHIP OF THE SOFTWARE IS HEREBY TRANSFERRED.
   5381					;
   5382					;       THE INFORMATION CONTAINED IN THIS SOFTWARE IS SUBJECT TO CHANGE  WITHOUT
   5383					;       NOTICE  AND SHOULD NOT BE CONSTRUED AS A COMMITMENT BY DIGITAL EQUIPMENT
   5384					;       CORPORATION.
   5385					;
   5386					;       DIGITAL ASSUMES NO RESPONSIBILITY FOR THE  USE  OR  RELIABILITY  OF  ITS
   5387					;       SOFTWARE ON EQUIPMENT WHICH IS NOT SUPPILED BY DIGITAL.
   5388					;
   5389					;		MODULE: RESET COMMAND DISPATCH
   5390					;
   5391					;		VERSION: 05-00
   5392					;
   5393					;		AUTHOR: R. BELANGER
   5394					;
   5395					;		DATE: 7707.12
   5396					;
   5397					;	THIS MODULE CONTAINS:
   5398					;
   5399					;	1) RESET COMMAND DISPATCH
RESTC -- RESET COMMAND DISPATCH	MACRO M1113  10-NOV-81 17:48  PAGE 135
.RESTC -- THE "RESET" COMMAND DISPATCH 7710.11

   5401					.SBTTL	.RESTC -- THE "RESET" COMMAND DISPATCH 7710.11
   5402
   5403					;+
   5404					; .RESTC -- THE "RESET" COMMAND DISPATCH
   5405					;
   5406					; THIS ROUTINE IS THE TOP LEVEL OF THE RESET COMMAND. ".RESTC" CHECKS
   5407					; ARGUMENTS FOR RESET AND DISPATCHES TO THE PROPER ROUTINE
   5408					;
   5409					; INPUT ARGUMENTS:
   5410					;
   5411					;	NONE.
   5412					;
   5413					; OUTPUT ARGUMENTS:
   5414					;
   5415					;	R0 POINTS TO THE LEGAL BITS FOR THE RESET OBJECT.
   5416					;
   5417					; ERROR CODES RETURNED:
   5418					;
   5419					;	KLR -- ILLEGAL WHILE KL IS RUNNING.
   5420					;-
   5421
   5422	010066				.RESTC::
   5423	010066	111504 				MOVB	(R5),R4		; LOOK AT THIS CHARACTER
   5424	010070	132764 	000010 	000000G		BITB	#CH.EOC,.CHTAB(R4)
   5425	010076	001015 				BNE	10$		; DEFAULT RESET ON E-O-C
   5426	010100					CALL	.CKARG		; GET OVER LEADING BLANKS
	010100	004737 	000000G			 JSR	PC,.CKARG
   5427	010104	012700 	000000G			MOV	#.RESTB,R0	; TABLE POINTER TO R0
   5428	010110					CALL	.TSCAN		; SCAN THE TABLE
	010110	004737 	000000G			 JSR	PC,.TSCAN
   5429	010114	012001 				MOV	(R0)+,R1	; LEGAL BITS TO R1
   5430	010116	005101 				COM	R1		; INVERT THEM
   5431	010120	040137 	000000G			BIC	R1,.LGLWD	; SET UP NEW LEGAL WORD
   5432	010124					CALL	.CKEOC		; CHECK FOR E-O-C
	010124	004737 	000000G			 JSR	PC,.CKEOC
   5433	010130					CALLR	@(R0)+		; DO THE RESET
	010130	000130 				 JMP	@(R0)+
   5434						;
   5435	010132				10$:
   5436	010132					CALL	.CKRNP		; SEE IF THE KL IS RUNNING
	010132	004737 	000000G			 JSR	PC,.CKRNP
   5437	010136					CALL	.STPKL		; STOP THE KL
	010136	004737 	000000G			 JSR	PC,.STPKL
   5438	010142					CALLR	.RESTP		; RESET THE KL AND EXIT
	010142	000137 	000000G			 JMP	.RESTP
   5439						;
RESTC -- RESET COMMAND DISPATCH	MACRO M1113  10-NOV-81 17:48  PAGE 136
.RSALL -- THE "RESET ALL" COMMAND 7602.18

   5441					.SBTTL	.RSALL -- THE "RESET ALL" COMMAND 7602.18
   5442
   5443	010146				.RSALL::
   5444	010146					PUSH	.KLFLG		; SAVE ".KLFLG"
	010146	013746 	000000G			 MOV	.KLFLG,-(SP)
   5445	010152	032716 	100000 			BIT	#KF.CLK,(SP)	; .IS THE CLOCK ON?
   5446	010156	001426 				BEQ	RSAKCN		; .NO -- GIVE "KCN" ERROR
   5447	010160					CALL	.STPKL		; .STOP THE KL
	010160	004737 	000000G			 JSR	PC,.STPKL
   5448	010164					CALL	.RESTD		; .RESET THE DTE-20
	010164	004737 	000000G			 JSR	PC,.RESTD
   5449	010170					CALL	.RSAPR		; .RESET APR
	010170	004737 	010242'			 JSR	PC,.RSAPR
   5450	010174					CALL	.RSPAG		; .RESET PAG
	010174	004737 	010274'			 JSR	PC,.RSPAG
   5451	010200					CALL	.RSTPI		; .RESET PI
	010200	004737 	010264'			 JSR	PC,.RSTPI
   5452	010204					POP	.SVKLF		; .SET UP ".SVKLF"
	010204	012637 	000000G			 MOV	(SP)+,.SVKLF
   5453	010210					CALLR	.RSTKL		; RESTART THE KL
	010210	000137 	000000G			 JMP	.RSTKL
   5454						;
   5455	010214				.RSDTE::
   5456	010214					CALLR	.RESTD		; RESET THE DTE-20
	010214	000137 	000000G			 JMP	.RESTD
   5457						;
   5458	010220				.RSTIN::
   5459	010220					CALL	.CKRUN		; SEE IF THE KL IS RUNNING
	010220	004737 	000000G			 JSR	PC,.CKRUN
   5460	010224					CALL	.STPKL		; STOP THE KL
	010224	004737 	000000G			 JSR	PC,.STPKL
   5461	010230					CALLR	.RESTI		; RESET TO DEFAULTS AND EXIT
	010230	000137 	000000G			 JMP	.RESTI
   5462						;
   5463	010234				RSAKCN:
   5464	010234					ERROR$	KCN		; ERROR -- KL CLOCK NOT RUNNING
	010234	012746 	042506 			 MOV	#^RKCN,-(SP)
	010240	104400 				 TRAP	TC.ERR
   5465						;
RESTC -- RESET COMMAND DISPATCH	MACRO M1113  10-NOV-81 17:48  PAGE 137
.RSTPI -- THE "RESET PI" COMMAND 7607.21

   5467					 .SBTTL	.RSTPI -- THE "RESET PI" COMMAND 7607.21
   5468
   5469						.ENABL	LSB
   5470
   5471	010242				.RSAPR::			; RESET APR
   5472	010242	012700 	000662'			MOV	#RSAPRI,R0	; INSTRUCTION POINTER TO R0
   5473	010246	000410 				BR	10$		; DO COMMON CODE
   5474						;
   5475	010250				.RSERR::			; RESET ERROR
   5476	010250	012700 	000670'			MOV	#RSERRI,R0	; INSTRUCTION POINTER TO R0
   5477	010254	000405 				BR	10$		; DO COMMON CODE
   5478						;
   5479	010256				.RSTIO::			; RESET IO
   5480	010256	012700 	000676'			MOV	#RSTIOI,R0	; INSTRUCTION POINTER TO R0
   5481	010262	000402 				BR	10$		; DO COMMON CODE
   5482						;
   5483	010264				.RSTPI::			; RESET PI
   5484	010264	012700 	000704'			MOV	#RSTPII,R0	; INSTRUCTION POINTER TO R0
   5485	010270				10$:
   5486	010270					CALLR	.EXCTF		; EXECUTE IT
	010270	000137 	000000G			 JMP	.EXCTF
   5487						;
   5488
   5489						.DSABL	LSB
   5490
   5491	000662				.PSECT	DATA
   5492
   5493	000662				RSAPRI:
   5494	000662					IOKL$	CONO	APR,,267760
	000662	   360 	   157 			 .BYTE	$$A,$$B
	000664	   001 	   002 			 .BYTE	$$C,$$D
	000666	   016 	   000 			 .BYTE	$$E,$$F
   5495	000670				RSERRI:
   5496	000670					IOKL$	CONO	APR,,27760
	000670	   360 	   057 			 .BYTE	$$A,$$B
	000672	   000 	   002 			 .BYTE	$$C,$$D
	000674	   016 	   000 			 .BYTE	$$E,$$F
   5497	000676				RSTIOI:
   5498	000676					IOKL$	CONO	APR,,200000
	000676	   000 	   000 			 .BYTE	$$A,$$B
	000700	   001 	   002 			 .BYTE	$$C,$$D
	000702	   016 	   000 			 .BYTE	$$E,$$F
   5499	000704				RSTPII:
   5500	000704					IOKL$	CONO	PI,,10000
	000704	   000 	   020 			 .BYTE	$$A,$$B
	000706	   000 	   006 			 .BYTE	$$C,$$D
	000710	   016 	   000 			 .BYTE	$$E,$$F
   5501
   5502	010274				.PSECT
RESTC -- RESET COMMAND DISPATCH	MACRO M1113  10-NOV-81 17:48  PAGE 138
.RSPAG -- THE "RESET PAG" COMMAND 7607.21

   5504					.SBTTL	.RSPAG -- THE "RESET PAG" COMMAND 7607.21
   5505
   5506	010274				.RSPAG::
   5507	010274					PUSH	.KLFLG		; SAVE ".KLFLG"
	010274	013746 	000000G			 MOV	.KLFLG,-(SP)
   5508	010300	032716 	100000 			BIT	#KF.CLK,(SP)	; .IS THE CLOCK ON?
   5509	010304	001442 				BEQ	RSPKCN		; .NO -- GIVE "KCN" ERROR
   5510	010306					CALL	.STPKL		; .STOP THE KL
	010306	004737 	000000G			 JSR	PC,.STPKL
   5511	010312					PUSH	R1		; .SAVE R1
	010312	010146 				 MOV	R1,-(SP)
   5512	010314					PUSH	#16		; ..BUILD A CLEAR WORD ON THE STACK
	010314	012746 	000016 			 MOV	#16,-(SP)
   5513	010320	005046 				CLR	-(SP)		; ...
   5514	010322	005046 				CLR	-(SP)		; ....
   5515	010324	010601 				MOV	SP,R1		; .....GET THE POINTER
   5516	010326	005046 				CLR	-(SP)		; .....NOW SET UP
   5517	010330					PUSH	#100		; ......SCRATCH ADDRESS
	010330	012746 	000100 			 MOV	#100,-(SP)
   5518	010334	010600 				MOV	SP,R0		; .......GET THE POINTER
   5519	010336					PUSH	R1		; .......DATA POINTER TO STACK
	010336	010146 				 MOV	R1,-(SP)
   5520	010340					PUSH	R0		; ........ADDRESS POINTER TO STACK
	010340	010046 				 MOV	R0,-(SP)
   5521	010342	010601 				MOV	SP,R1		; .........BLOCK POINTER TO R1
   5522	010344	012700 	000040 			MOV	#ED.EXV,R0	; .........EXEC VIRTUAL SPACE
   5523	010350					CALL	.DPKLM		; .........DO THE DEPOSIT
	010350	004737 	000000G			 JSR	PC,.DPKLM
   5524	010354	062706 	000016 			ADD	#^D14,SP	; .........RESET THE STACK
   5525	010360	012700 	000712'			MOV	#RSPGI0,R0	; ..INSTRUCTION POINTER TO R0
   5526	010364					CALL	.EXCTF		; ..EXECUTE IT
	010364	004737 	000000G			 JSR	PC,.EXCTF
   5527	010370	012700 	000720'			MOV	#RSPGI1,R0	; ..NEXT INSTRUCTION
   5528	010374					CALL	.EXCTF		; ..EXECUTE IT
	010374	004737 	000000G			 JSR	PC,.EXCTF
   5529	010400					POP	R1		; ..RESTORE R1
	010400	012601 				 MOV	(SP)+,R1
   5530	010402					POP	.SVKLF		; .SET UP ".SVKLF"
	010402	012637 	000000G			 MOV	(SP)+,.SVKLF
   5531	010406					CALLR	.RSTKL		; RESART THE KL AND EXIT
	010406	000137 	000000G			 JMP	.RSTKL
   5532						;
RESTC -- RESET COMMAND DISPATCH	MACRO M1113  10-NOV-81 17:48  PAGE 139
.RSPAG -- THE "RESET PAG" COMMAND 7607.21

   5534	010412				RSPKCN:
   5535	010412					ERROR$	KCN		; ERROR -- KL CLOCK NOT RUNNING
	010412	012746 	042506 			 MOV	#^RKCN,-(SP)
	010416	104400 				 TRAP	TC.ERR
   5536						;
   5537
   5538	000712				.PSECT	DATA
   5539
   5540	000712				RSPGI0:
   5541	000712					IOKL$	CONO	PAG,,0
	000712	   000 	   000 			 .BYTE	$$A,$$B
	000714	   000 	   012 			 .BYTE	$$C,$$D
	000716	   016 	   000 			 .BYTE	$$E,$$F
   5542	000720				RSPGI1:
   5543	000720					IOKL$	DATAO	PAG,,100
	000720	   100 	   000 			 .BYTE	$$A,$$B
	000722	   200 	   011 			 .BYTE	$$C,$$D
	000724	   016 	   000 			 .BYTE	$$E,$$F
   5544
   5545	010420				.PSECT
RUNCM -- RUN/TAKE COMMAND MODUL	MACRO M1113  10-NOV-81 17:48  PAGE 140
.RSPAG -- THE "RESET PAG" COMMAND 7607.21

   5547					.TITLE	RUNCM -- RUN/TAKE COMMAND MODULE 7607.14
   5548
   5549						.IDENT	"006110"
   5550
   5551					;
   5552					;                             COPYRIGHT (C) 1975, 1979 BY
   5553					;                     DIGITAL EQUIPMENT CORPORATION, MAYNARD MASS.
   5554					;
   5555					;       THIS SOFTWARE IS FURNISHED UNDER A LICENSE AND MAY BE  USED  AND  COPIED
   5556					;       ONLY IN ACCORDANCE WITH THE TERMS OF SUCH LICENSE AND WITH THE INCLUSION
   5557					;       OF THE ABOVE COPYRIGHT NOTICE.  THIS SOFTWARE OR ANY OTHER COPIES THERE-
   5558					;       OF  MAY NOT BE PROVIDED OR OTHERWISE MADE AVAILABLE TO ANY OTHER PERSON.
   5559					;       NO TITLE TO OR OWNERSHIP OF THE SOFTWARE IS HEREBY TRANSFERRED.
   5560					;
   5561					;       THE INFORMATION CONTAINED IN THIS SOFTWARE IS SUBJECT TO CHANGE  WITHOUT
   5562					;       NOTICE  AND SHOULD NOT BE CONSTRUED AS A COMMITMENT BY DIGITAL EQUIPMENT
   5563					;       CORPORATION.
   5564					;
   5565					;       DIGITAL ASSUMES NO RESPONSIBILITY FOR THE  USE  OR  RELIABILITY  OF  ITS
   5566					;       SOFTWARE ON EQUIPMENT WHICH IS NOT SUPPILED BY DIGITAL.
   5567					;
   5568					;		MODULE: RUN COMMAND
   5569					;
   5570					;		VERSION: 06-11
   5571					;
   5572					;		AUTHOR: R. BELANGER
   5573					;
   5574					;		DATE: 7607.14
   5575					;
   5576					;	THIS MODULE CONTAINS:
   5577					;
   5578					;	1) RUN COMMAND CODE
   5579					;	2) REQUEST DIRECTIVE PARAMETER BLOCK
   5580					;
   5581					;  MODIFICATIONS:
   5582					;
   5583					;	NO.	DATE		PROGRAMMER	REASON
   5584					;	---	----		----------	------
   5585					;    [5.1000]	24-AUG-79	K. LEFEBVRE	ADD "TAKE" COMMAND
   5586
   5587						.MCALL	DIR$, RQST$
RUNCM -- RUN/TAKE COMMAND MODUL	MACRO M1113  10-NOV-81 17:48  PAGE 141
.RUNCM -- THE "RUN" AND "MCR" COMMANDS 7607.14

   5589					.SBTTL	.RUNCM -- THE "RUN" AND "MCR" COMMANDS 7607.14
   5590
   5591					;+
   5592					; .RUNCM -- THE "RUN" AND "MCR" COMMANDS
   5593					;
   5594					; THIS ROUTINE REQUESTS THE TASK SPECIFIED IN THE COMMAND TO BE RUN
   5595					; AND EXITS THE COMMAND PARSER
   5596					;
   5597					; INPUT ARGUMENTS:
   5598					;
   5599					;	NONE.
   5600					;
   5601					; OUTPUT ARGUMENTS:
   5602					;
   5603					;	NONE.
   5604					;
   5605					; ERROR CODES RETURNED:
   5606					;
   5607					;	ITN -- ILLEGAL TASK NAME
   5608					;	NST -- NO SUCH TASK
   5609					;	TAA -- TASK IS ALREADY ACTIVE
   5610					;-
   5611
   5612	010420				.RUNCM::
   5613	010420					CALL	.CKSYM		; GET OVER LEADING BLANKS
	010420	004737 	000000G			 JSR	PC,.CKSYM
   5614	010424					CALL	.GTR50		; GET THE .RAD50 TASK NAME
	010424	004737 	010676'			 JSR	PC,.GTR50
   5615	010430	001425 				BEQ	RUNITN		; BAD NEWS IF NONE THERE
   5616	010432					PUSH	R0		; SAVE THE TASK NAME
	010432	010046 				 MOV	R0,-(SP)
   5617	010434					CALL	.GTR50		; .READ THE SECOND HALF
	010434	004737 	010676'			 JSR	PC,.GTR50
   5618	010440					CALL	.CKEOC		; .MUST HAVE E-O-C
	010440	004737 	000000G			 JSR	PC,.CKEOC
   5619	010444					POP	.RNDPB+4	; .SET THE TASK NAME IN THE DPB
	010444	012637 	000052'			 MOV	(SP)+,.RNDPB+4
   5620	010450					DIR$	#.RNDPB		; REQUEST THE TASK
	010450	012746 	000046'			MOV	#.RNDPB,-(SP)
	010454	104375 				EMT	375
   5621	010456	103402 				BCS	10$		; ERROR IF CC-C IS SET
   5622	010460					CALLR	.EXITP		; EXIT
	010460	000137 	000000G			 JMP	.EXITP
   5623						;
   5624
   5625					;	[CONTINUED ON THE FOLLOWING PAGE]
RUNCM -- RUN/TAKE COMMAND MODUL	MACRO M1113  10-NOV-81 17:48  PAGE 142
.RUNCM -- THE "RUN" AND "MCR" COMMANDS 7607.14

   5627					;	[CONTINUED FROM THE PREVIOUS PAGE]
   5628
   5629	010464				10$:
   5630	010464	013700 	000000G			MOV	$DSW,R0		; LOOK AT THE DIRECTIVE STATUS
   5631	010470	022700 	000000G			CMP	#IE.INS,R0	; IS THERE SUCH A TASK?
   5632	010474	001406 				BEQ	RUNNST		; NO -- GIVE "NST" ERROR
   5633	010476	022700 	000000G			CMP	#IE.ACT,R0	; YES -- IS IT ALREADY ACTIVE?
   5634	010502	001406 				BEQ	RUNTAA		; YES -- GIVE "TAA" ERROR
   5635	010504				RUNITN:
   5636	010504					ERROR$	ITN		; ERROR -- ILLEGAL TASK NAME
	010504	012746 	035556 			 MOV	#^RITN,-(SP)
	010510	104400 				 TRAP	TC.ERR
   5637						;
   5638	010512				RUNNST:
   5639	010512					ERROR$	NST		; ERROR -- NO SUCH TASK
	010512	012746 	055214 			 MOV	#^RNST,-(SP)
	010516	104400 				 TRAP	TC.ERR
   5640						;
   5641	010520				RUNTAA:
   5642	010520					ERROR$	TAA		; ERROR -- TASK ALREADY ACTIVE
	010520	012746 	076451 			 MOV	#^RTAA,-(SP)
	010524	104400 				 TRAP	TC.ERR
   5643						;
RUNCM -- RUN/TAKE COMMAND MODUL	MACRO M1113  10-NOV-81 17:48  PAGE 143
.RUNCM -- THE "RUN" AND "MCR" COMMANDS 7607.14

   5645					; DPB FOR REQUEST DIRECTIVE
   5646
   5647					;	!===============================================!
   5648					; 00	!	DPB SIZE	!	  DIC		!
   5649					;	!-----------------------------------------------!
   5650					; 02	!	    TASK NAME IN .RAD50 (HIGH)		!
   5651					;	!-----------------------------------------------!
   5652					; 04	!	    TASK NAME IN .RAD50 (LOW)		!
   5653					;	!-----------------------------------------------!
   5654					; 06	!	     PARTITION NAME (IGNORED)		!
   5655					;	!-----------------------------------------------!
   5656					; 10	!	     PARTITION NAME (IGNORED)		!
   5657					;	!-----------------------------------------------!
   5658					; 12	!		TASK PRIORITY			!
   5659					;	!-----------------------------------------------!
   5660					; 14	!		UIC (IGNORED)			!
   5661					;	!===============================================!
   5662
   5663	000046				.PSECT	DPBS
   5664
   5665	000046				.RNDPB::
   5666	000046					RQST$	...TSK,,,,
	000046	   013 	   007 			.BYTE	11.,7
	000050	131574 	100003 			.RAD50	/...TSK/
	000054	000000 	000000 			.WORD	0,0
	000060	000000 				.WORD
	000062	   000 	   000 			.BYTE	,
   5667
   5668	010526				.PSECT
RUNCM -- RUN/TAKE COMMAND MODUL	MACRO M1113  10-NOV-81 17:48  PAGE 144
.TAKEC -- THE "TAKE" COMMAND

   5670					.SBTTL	.TAKEC -- THE "TAKE" COMMAND
   5671
   5672					;+
   5673					; .TAKEC -- THE "TAKE" COMMAND
   5674					;
   5675					; THIS ROUTINE REQUESTS AN INDIRECT COMMAND FILE, OPENS IT WITH
   5676					; READ ACCESS, AND INDICATES THAT FURTHER COMMAND INPUT SHOULD
   5677					; COME FROM THIS FILE.
   5678					;	THIS COMMAND WAS ADDED FOR TCO 5.1000
   5679					;
   5680					; INPUT ARGUMENTS:
   5681					;
   5682					;	NONE
   5683					;
   5684					; OUTPUT ARGUMENTS:
   5685					;
   5686					;	NONE
   5687					;
   5688					; ERROR CODES RETURNED:
   5689					;
   5690					;	CAL -- CAN'T ASSIGN LUN
   5691					;	DNF -- DIRECTORY FILE NOT FOUND
   5692					;	FLF -- FILE LOOKUP FAILURE
   5693					;	FOF -- FILE OPEN FAILURE
   5694					;	FRD -- FILE READ FAILURE
   5695					;	IFN -- ILLEGAL FILE NAME
   5696					;	IRE -- ILLEGAL RECURSION
   5697					;	NSF -- NO SUCH FILE
   5698					;-
   5699
   5700	010526				.TAKEC::
   5701	010526	012737 	062072 	000000G		MOV	#^RPAR,.INFN	; DEFAULT COMMAND FILE NAME
   5702	010534	012737 	073632 	000002G		MOV	#^RSER,.INFN+2	; PARSER.CMD
   5703	010542					CALL	.CKSYM		; GET OVER LEADING BLANKS
	010542	004737 	000000G			 JSR	PC,.CKSYM
   5704	010546					CALL	.GTR50		; GET THE RAD50 FILE NAME
	010546	004737 	010676'			 JSR	PC,.GTR50
   5705	010552	001406 				BEQ	10$		; DEFAULT NAME IF NONE GIVEN
   5706	010554	010037 	000000G			MOV	R0,.INFN	; SAVE 1ST HALF FILE NAME
   5707	010560					CALL	.GTR50		; GET 2ND HALF FILE NAME
	010560	004737 	010676'			 JSR	PC,.GTR50
   5708	010564	010037 	000002G			MOV	R0,.INFN+2	; SAVE 2ND HALF FILE NAME
   5709	010570				10$:	CALL	.CKEOC		; MUST HAVE E-O-C
	010570	004737 	000000G			 JSR	PC,.CKEOC
   5710	010574	005737 	000000G			TST	.INDFG		; ALREADY DOING INDIRECT FILE?
   5711	010600	001030 				BNE	TAKIRE		; YES -- ERROR
   5712	010602				.TAKE1::			; [5.1006]ALTERNATE ENTRY POINT FOR KLE
   5713	010602	012700 	000000G			MOV	#.INFN,R0	; NO -- INPUT FILE NAME PTR
   5714	010606	012701 	000000G			MOV	#.INFNB,R1	; INPUT FILE NAME BLOCK PTR
   5715	010612	012702 	000005 			MOV	#INDLUN,R2	; INPUT FILE LUN
   5716	010616					CALL	.LOKUP		; LOOK UP INPUT FILE
	010616	004737 	000000G			 JSR	PC,.LOKUP
   5717	010622	103422 				BCS	TAKNSF		; NO SUCH FILE IF CC-C IS SET
   5718	010624	012704 	000000G			MOV	#IO.ACR,R4	; READ ACCESS
   5719	010630					CALL	.OPEN		; OPEN FILE FOR READ
	010630	004737 	000000G			 JSR	PC,.OPEN
   5720	010634	005037 	000000G			CLR	.INBBC		; NOTHING READ IN YET
RUNCM -- RUN/TAKE COMMAND MODUL	MACRO M1113  10-NOV-81 17:48  PAGE 144-1
.TAKEC -- THE "TAKE" COMMAND

   5721	010640	005037 	000000G			CLR	.INPOS		; NO BUFFER YET
   5722	010644	005037 	000000G			CLR	.INVBN		; READ FIRST BLOCK
   5723	010650	005037 	000002G			CLR	.INVBN+2	; READ FIRST BLOCK
   5724	010654	005237 	000000G			INC	.INDFG		; REDIRECT INPUT TO FILE
   5725	010660					RETURN			; RETURN
	010660	000207 				 RTS	PC
   5726						;
   5727	010662				TAKIRE:
   5728	010662					ERROR$	IRE		; ERROR -- ILLEGAL RECURSION
	010662	012746 	035425 			 MOV	#^RIRE,-(SP)
	010666	104400 				 TRAP	TC.ERR
   5729	010670				TAKNSF:
   5730	010670				20$:	ERROR$	NSF		; ERROR -- NO SUCH FILE
	010670	012746 	055176 			 MOV	#^RNSF,-(SP)
	010674	104400 				 TRAP	TC.ERR
   5731						;
RUNCM -- RUN/TAKE COMMAND MODUL	MACRO M1113  10-NOV-81 17:48  PAGE 145
.GTR50 -- GET A .RAD50 WORD 7602.18

   5733					.SBTTL	.GTR50 -- GET A .RAD50 WORD 7602.18
   5734
   5735					;+
   5736					; .GTR50 -- GET A .RAD50 WORD
   5737					;
   5738					; THIS ROUTINE WILL CONVERT THE NEXT THREE ASCII CHARACTERS IN THE
   5739					; INPUT STREAM TO .RAD50 FORMAT.
   5740					;
   5741					; INPUT ARGUMENTS:
   5742					;
   5743					;	R5 POINTS TO THE INPUT STREAM.
   5744					;
   5745					; OUTPUT ARGUMENTS:
   5746					;
   5747					;	R0 HOLDS THE .RAD50 SYMBOL.
   5748					;
   5749					; ERROR CODES RETURNED:
   5750					;
   5751					;	NONE.
   5752					;	IF THE ROUTINE CANNOT CONVERT THE FIRST CHARACTER, CC-Z IS SET.
   5753					;-
RUNCM -- RUN/TAKE COMMAND MODUL	MACRO M1113  10-NOV-81 17:48  PAGE 146
.GTR50 -- GET A .RAD50 WORD 7602.18

   5755	010676				.GTR50::
   5756	010676					PUSH	<R1,R2>		; SAVE REGISTERS
	010676	010146 				 MOV	R1,-(SP)
	010700	010246 				 MOV	R2,-(SP)
   5757	010702	005046 				CLR	-(SP)		; ..SAVE A BUFFER
   5758	010704	012702 	000000G			MOV	#.T50TB,R2	; ...FACTOR TABLE POINTER TO R2
   5759	010710				10$:
   5760	010710	012201 				MOV	(R2)+,R1	; ...GET CURRENT MULTIPLIER
   5761	010712	001427 				BEQ	50$		; ...DONE IF .EQ. 0
   5762	010714	112500 				MOVB	(R5)+,R0	; ...GET THE CHARACTER INTO R0
   5763	010716	120027 	000101 			CMPB	R0,#'A		; ...IS IT ALPHABETIC?
   5764	010722	103403 				BLO	20$		; ...NO -- TRY NUMERIC
   5765	010724	120027 	000132 			CMPB	R0,#'Z		; ...IS IT REALLY ALPHABETIC?
   5766	010730	101410 				BLOS	30$		; ...YES -- ADD IT TO RESULT
   5767	010732				20$:
   5768	010732	120027 	000060 			CMPB	R0,#'0		; ...NO -- IS IT NUMERIC?
   5769	010736	103413 				BLO	40$		; ...NO -- EXIT
   5770	010740	120027 	000071 			CMPB	R0,#'9		; ...YES -- IS IT REALLY NUMERIC?
   5771	010744	101010 				BHI	40$		; ...NO -- EXIT
   5772	010746	162700 	177722 			SUB	#<<'0-36>-<'A-1>>,R0
   5773	010752				30$:
   5774	010752	162700 	000100 			SUB	#<'A-1>,R0	; ...CONVERT ALPHABETIC
   5775	010756					CALL	$MUL		; ...COMPUTE CHARACTER VALUE
	010756	004737 	000000G			 JSR	PC,$MUL
   5776	010762	060116 				ADD	R1,(SP)		; ...ACCUMULATE RESULT
   5777	010764	000751 				BR	10$		; ...AND GET NEXT CHARACTER
   5778						;
   5779	010766				40$:
   5780	010766	105745 				TSTB	-(R5)		; ...BACK UP THE BYTE POINTER
   5781	010770	010004 				MOV	R0,R4		; ...PUT THE CHARACTER IN R4
   5782	010772				50$:
   5783	010772					POP	R0		; ...RETURN THE RESULT
	010772	012600 				 MOV	(SP)+,R0
   5784	010774					POP	<R2,R1>		; ..RESTORE REGISTERS
	010774	012602 				 MOV	(SP)+,R2
	010776	012601 				 MOV	(SP)+,R1
   5785	011000	005700 				TST	R0		; LOOK AT R0
   5786	011002					RETURN			; TO CALLER
	011002	000207 				 RTS	PC
RUNCM -- RUN/TAKE COMMAND MODUL	MACRO M1113  10-NOV-81 17:48  PAGE 147
.QUITC -- THE "QUIT" COMMAND 7602.16

   5788					.SBTTL	.QUITC -- THE "QUIT" COMMAND 7602.16
   5789
   5790					;+
   5791					; .QUITC -- THE "QUIT" COMMAND.
   5792					;
   5793					; THIS ROUTINE EXECUTES THE "QUIT" (EXIT) FUNCTION.
   5794					;
   5795					; INPUT ARGUMENTS:
   5796					;
   5797					;	NONE.
   5798					;
   5799					; OUTPUT ARGUMENTS:
   5800					;
   5801					;	NONE.
   5802					;
   5803					; ERROR CODES RETURNED:
   5804					;
   5805					;	NONE.
   5806					;-
   5807
   5808	011004				.QUITC::
   5809	011004					CALL	.CKEOC		; MUST HAVE E-O-C
	011004	004737 	000000G			 JSR	PC,.CKEOC
   5810	011010					CALLR	.EXITP		; EXIT THE PARSER
	011010	000137 	000000G			 JMP	.EXITP
   5811						;
SCACB -- SET AC-BLOCK COMMAND M	MACRO M1113  10-NOV-81 17:48  PAGE 149
.QUITC -- THE "QUIT" COMMAND 7602.16

   5814					.TITLE	SCACB -- SET AC-BLOCK COMMAND MODULE
   5815
   5816						.IDENT	"006110"
   5817
   5818					;                             COPYRIGHT (C) 1979 BY
   5819					;                     DIGITAL EQUIPMENT CORPORATION, MAYNARD MASS.
   5820					;
   5821					;       THIS SOFTWARE IS FURNISHED UNDER A LICENSE AND MAY BE  USED  AND  COPIED
   5822					;       ONLY IN ACCORDANCE WITH THE TERMS OF SUCH LICENSE AND WITH THE INCLUSION
   5823					;       OF THE ABOVE COPYRIGHT NOTICE.  THIS SOFTWARE OR ANY OTHER COPIES THERE-
   5824					;       OF  MAY NOT BE PROVIDED OR OTHERWISE MADE AVAILABLE TO ANY OTHER PERSON.
   5825					;       NO TITLE TO OR OWNERSHIP OF THE SOFTWARE IS HEREBY TRANSFERRED.
   5826					;
   5827					;       THE INFORMATION CONTAINED IN THIS SOFTWARE IS SUBJECT TO CHANGE  WITHOUT
   5828					;       NOTICE  AND SHOULD NOT BE CONSTRUED AS A COMMITMENT BY DIGITAL EQUIPMENT
   5829					;       CORPORATION.
   5830					;
   5831					;       DIGITAL ASSUMES NO RESPONSIBILITY FOR THE  USE  OR  RELIABILITY  OF  ITS
   5832					;       SOFTWARE ON EQUIPMENT WHICH IS NOT SUPPILED BY DIGITAL.
   5833					;
   5834					;		MODULE: SET AC-BLOCK
   5835					;
   5836					;		VERSION: 06-11
   5837					;
   5838					;		AUTHOR: K.LEFEBVRE
   5839					;
   5840					;		DATE: 12-SEP-79
   5841					;
   5842					;	THIS MODULE CONTAINS:
   5843					;
   5844					;		1) SET AC-BLOCK N COMMAND
   5845					;		2) SWEEP N COMMAND
   5846					;
   5847					;	THESE COMMANDS WERE ADDED FOR TCO 5.1002
   5848
   5849						.MCALL	SETF$S
SCACB -- SET AC-BLOCK COMMAND M	MACRO M1113  10-NOV-81 17:48  PAGE 150
.SCACB -- SET AC-BLOCK COMMAND

   5851					.SBTTL	.SCACB -- SET AC-BLOCK COMMAND
   5852
   5853					;+
   5854					; .SCACB -- SET AC-BLOCK COMMAND
   5855					;
   5856					; THIS ROUTINE WILL CAUSE THE SPECIFIED BLOCK TO BE THE CURRENT
   5857					; AC BLOCK REFERENCED BY THE KL.
   5858					;
   5859					; INPUT ARGUMENTS:
   5860					;
   5861					;	NONE
   5862					;
   5863					; OUTPUT ARGUMENTS:
   5864					;
   5865					;	NONE
   5866					;
   5867					; ERROR CODES RETURNED:
   5868					;
   5869					;	ILI -- ILLEGAL UNSTRUCTION
   5870					;	MRA -- MISSING REQUIRED ARGUMENT
   5871					;	NOR -- INPUT ARGUMENT NUMBER OUT OF RANGE
   5872					;-
   5873
   5874	011014				.SCACB::
   5875	011014	005737 	000000G			TST	.NOTSW		; IS THIS A CLEAR?
   5876	011020	001014 				BNE	SCAILI		; YES -- NOT ALLOWED
   5877	011022					CALL	.CKARG		; NO -- CHECK FOR AN ARGUMENT
	011022	004737 	000000G			 JSR	PC,.CKARG
   5878	011026					CALL	.GTELN		; GET THE ARGUMENT
	011026	004737 	000000G			 JSR	PC,.GTELN
   5879	011032	020027 	000007 			CMP	R0,#7		; IS THE ARGUMENT IN RANGE?
   5880	011036	101010 				BHI	SCANOR		; NO -- ERROR
   5881	011040					CALL	.CKRUN		; MAKE SURE KL NOT RUNNING
	011040	004737 	000000G			 JSR	PC,.CKRUN
   5882	011044	010002 				MOV	R0,R2		; SET BLOCK NO.
   5883	011046					CALLR	.SACBK		; YES -- SET AC BLOCK
	011046	000137 	011066'			 JMP	.SACBK
   5884
   5885	011052				SCAILI:
   5886	011052					ERROR$	ILI		; ERROR -- ILLEGAL INSTRUCTION
	011052	012746 	035051 			 MOV	#^RILI,-(SP)
	011056	104400 				 TRAP	TC.ERR
   5887	011060				SCANOR:
   5888	011060					ERROR$	NOR		; ERROR -- INPUT NUMBER OUT OF RANGE
	011060	012746 	054752 			 MOV	#^RNOR,-(SP)
	011064	104400 				 TRAP	TC.ERR
SCACB -- SET AC-BLOCK COMMAND M	MACRO M1113  10-NOV-81 17:48  PAGE 151
.SACBK -- SET AC BLOCK ROUTINE

   5890					.SBTTL	.SACBK -- SET AC BLOCK ROUTINE
   5891
   5892					;+
   5893					; .SACBK -- SUBROUTINE TO SET KL AC BLOCK
   5894					;
   5895					; THIS ROUTINE WILL:
   5896					;	1. INSERT INSTR OBJECT INTO KL LOC 100
   5897					;	2. EXECUTE DATAO PAG,,100 TO SET AC BLOCK
   5898					;
   5899					; INPUT ARGUMENTS:
   5900					;
   5901					;	R2=AC BLOCK NO. TO SET
   5902					;
   5903					; OUTPUT ARGUMENTS:
   5904					;
   5905					;	NONE
   5906					;
   5907					; ERROR CODES RETURNED:
   5908					;
   5909					;	CCC -- CAN'T CLEAR KL10 CLOCK
   5910					;	CCR -- CAN'T CLEAR KL10 RUN FLOP
   5911					;	CCS -- KL10 CLOCK CAN'T START
   5912					;	CES -- CLOCK ERROR STOP
   5913					;	CFH -- CAN'T FIND KL10 HALT LOOP
   5914					;	CSC -- CAN'T SYNC KL10 CLOCK
   5915					;	DMF -- DEPOSIT KL10 MEMORY FAILED
   5916					;	DSF -- DTE20 STATUS FAILURE
   5917					;	ECT -- EBOX CLOCK TIME OUT
   5918					;	ESD -- EBOX STOPPED - DEPOSIT
   5919					;	FRF -- FUNCTION READ FAILED
   5920					;	FWF -- FUNCTION WRITE FAILED
   5921					;	FXF -- FUNCTION EXECUTE FAILED
   5922					;	MAE -- MODE ARGUMENT ERROR
   5923					;	XTO -- EXECUTE TIMED OUT
   5924					;-
   5925
   5926	011066				.SACBK::
   5927	011066	005000 				CLR	R0		; CALL .WHACB ON EXIT FLAG
   5928	011070				.SACB1::			; ALTERNATE ENTRY POINT
   5929	011070					PUSH	<R0,R2>		; SAVE NEW AC BLOCK NO.
	011070	010046 				 MOV	R0,-(SP)
	011072	010246 				 MOV	R2,-(SP)
   5930	011074	006302 				ASL	R2		; POSITION AC BLOCK NO.
   5931	011076	006302 				ASL	R2		; POSITION AC BLOCK NO.
   5932	011100	006302 				ASL	R2		; POSITION AC BLOCK NO.
   5933	011102	110237 	000741'			MOVB	R2,ACDAT+3	; PUT BLOCK NO. INTO INSTR
   5934	011106	012701 	000726'			MOV	#DEPBLK,R1	; SET UP DEPOSIT DATA BLOCK
   5935	011112	012700 	000200 			MOV	#ED.PHY,R0	; PUT IN PHYSICAL SPACE
   5936					;	MOV	#ED.EXV,R0	; PUT IN EXEC VIRTUAL SPACE
   5937	011116					CALL	.DPKLM		; DEPOSIT INSTR OBJECT IN MEMORY
	011116	004737 	000000G			 JSR	PC,.DPKLM
   5938	011122	103404 				BCS	10$		; ERROR
   5939	011124	012700 	000744'			MOV	#SETACI,R0	; INSTR PTR
   5940	011130					CALL	.EXCTF		; EXECUTE INSTR
	011130	004737 	000000G			 JSR	PC,.EXCTF
   5941	011134				10$:	POP	<R2,R0>		; RESTORE R2
	011134	012602 				 MOV	(SP)+,R2
SCACB -- SET AC-BLOCK COMMAND M	MACRO M1113  10-NOV-81 17:48  PAGE 151-1
.SACBK -- SET AC BLOCK ROUTINE

	011136	012600 				 MOV	(SP)+,R0
   5942	011140	005700 				TST	R0		; PRINT AC BLOCK?
   5943	011142	001002 				BNE	20$		; NO -- EXIT
   5944	011144					CALL	.WHACB		; YES -- OUTPUT CURRENT AC BLOCK NO.
	011144	004737 	011152'			 JSR	PC,.WHACB
   5945	011150				20$:	RETURN			; EXIT
	011150	000207 				 RTS	PC
   5946
   5947	000726				.PSECT	DATA
   5948
   5949	000726	000732'			DEPBLK:	.WORD	TEMADR		; OBJECT ADDR PTR
   5950	000730	000736'				.WORD	ACDAT		; DEPOSIT DATA PTR
   5951	000732	000100 			TEMADR:	.WORD	100		; ADDR BITS 20-35
   5952	000734	000000 				.WORD	0		; ADDR BITS 14-19
   5953	000736	000000 			ACDAT:	.WORD	0		; DATA BITS 20-35
   5954	000740	000000 				.WORD	0		; DATA BITS 4-19
   5955	000742	000010 				.WORD	10		; DATA BITS 0-3
   5956
   5957	000744				SETACI:	IOKL$	DATAO	PAG,,100	; SET AC INSTR
	000744	   100 	   000 			 .BYTE	$$A,$$B
	000746	   200 	   011 			 .BYTE	$$C,$$D
	000750	   016 	   000 			 .BYTE	$$E,$$F
   5958
   5959	011152				.PSECT
SCACB -- SET AC-BLOCK COMMAND M	MACRO M1113  10-NOV-81 17:48  PAGE 152
.WHACB -- WHAT AC BLOCK COMMAND

   5961					.SBTTL	.WHACB -- WHAT AC BLOCK COMMAND
   5962
   5963	011152				.WHACB::
   5964	011152					PUSH	R1		; SAVE R1
	011152	010146 				 MOV	R1,-(SP)
   5965	011154	012700 	003127'			MOV	#WACMSG,R0	; WHAT AC BLOCK MESSAGE
   5966	011160					CALL	.TYMSG		; PRINT IT
	011160	004737 	000000G			 JSR	PC,.TYMSG
   5967	011164	005001 				CLR	R1		; NO FM ADDR BUFFER
   5968	011166					CALL	.RDFMA		; GET CURRENT AC BUFFER
	011166	004737 	000000G			 JSR	PC,.RDFMA
   5969	011172	000300 				SWAB	R0		; BLOCK NO. IN LOW BYTE NOW
   5970	011174	042700 	177600 			BIC	#177600,R0	; GET RID OF EXCESS BITS
   5974	011200	005046 				CLR	-(SP)		; NO. BUFFER ON STACK
   5975	011202	005046 				CLR	-(SP)		; BUFFER
   5976	011204	010046 				MOV	R0,-(SP)	; BUFFER
   5977	011206	010600 				MOV	SP,R0		; BUFFER PTR
   5978	011210	005037 	000000G			CLR	.LDZFL		; NO LEADING ZEROS
   5979	011214					CALL	.TYKLN		; OUTPUT VALUE
	011214	004737 	000000G			 JSR	PC,.TYKLN
   5980	011220	062706 	000006 			ADD	#6,SP		; POP OFF BUFFER
   5981	011224					CALL	.TCRLF		; TYPE CR-LF
	011224	004737 	000000G			 JSR	PC,.TCRLF
   5982	011230					POP	R1		; RESTORE R1
	011230	012601 				 MOV	(SP)+,R1
   5983	011232					RETURN			; DONE
	011232	000207 				 RTS	PC
   5984
   5985	003127				.PSECT	MESSAG
   5986
   5987	003127	   040 	   101 	   103 	WACMSG:	.ASCIZ	% AC-BLOCK: %
	003132	   055 	   102 	   114
	003135	   117 	   103 	   113
	003140	   072 	   040 	   000
   5988
   5989	011234				.PSECT
SCACB -- SET AC-BLOCK COMMAND M	MACRO M1113  10-NOV-81 17:48  PAGE 153
.SWPC -- SWEEP AC BLOCK COMMAND

   5991					.SBTTL	.SWPC -- SWEEP AC BLOCK COMMAND
   5992
   5993					;+
   5994					; .SWPC -- SWEEP AC BLOCK COMMAND ROUTINE
   5995					;
   5996					; THIS ROUTINE
   5997					;
   5998					; INPUT ARGUMENTS:
   5999					;
   6000					;	NONE
   6001					;
   6002					; OUTPUT ARGUMENTS:
   6003					;
   6004					;	NONE
   6005					;
   6006					; ERROR CODES RETURNED:
   6007					;
   6008					;	XXX
   6009					;-
   6010
   6011	011234				.SWPC::
   6012	011234	005037 	000000G			CLR	.PASS		; [4.1.1049]CLEAR PASS FLAG
   6013	011240	005037 	000752'			CLR	FMERR		; [4.1.1049]CLEAR ERROR COUNT
   6014	011244					PUSH	.NOERR		; SAVE ERROR,HALT STATUS
	011244	013746 	000000G			 MOV	.NOERR,-(SP)
   6015	011250	012737 	000401 	000000G		MOV	#401,.NOERR	; IGNORE KL ERRORS
   6016	011256	012737 	000001 	000000G		MOV	#1,.SWPIP	; SET SWEEP IN PROGRESS
   6017	011264	005001 				CLR	R1		; NO DATA BUFFER
   6018	011266					CALL	.RDFMA		; READ CURRENT BLOCK NO.
	011266	004737 	000000G			 JSR	PC,.RDFMA
   6019	011272	000300 				SWAB	R0		; GET BLOCK IN LOW BYTE
   6020	011274	042700 	177600 			BIC	#177600,R0	; CLEAR EXTRA BITS
   6021	011300	010037 	000764'			MOV	R0,SAVBLK	; SAVE BLOCK NO.
   6022	011304					CALL	.RDIPE		; READ PARITY FLAGS
	011304	004737 	000000G			 JSR	PC,.RDIPE
   6023	011310					PUSH	R0		; [4.1.1049]SAVE PARITY FLAG
	011310	010046 				 MOV	R0,-(SP)
   6024	011312	032700 	000010 			BIT	#10,R0		; FM ERROR?
   6025	011316	001416 				BEQ	10$		; NO -- GO ON
   6026	011320	012700 	003143'			MOV	#FMHED,R0	; YES -- FM ERROR MESSAGE HEADER
   6027	011324					CALL	.TYMSG		; TYPE IT
	011324	004737 	000000G			 JSR	PC,.TYMSG
   6028	011330	012700 	000754'			MOV	#FMBUF,R0	; DATA BUFFER
   6029	011334	013702 	000764'			MOV	SAVBLK,R2	; CURRENT BLOCK NO.
   6030	011340					CALL	.RDFMO		; READ CURRENT FM DATA
	011340	004737 	000000G			 JSR	PC,.RDFMO
   6031	011344					CALL	.TYAC1		; TYPE FM DATA
	011344	004737 	000000G			 JSR	PC,.TYAC1
   6032	011350					CALL	.RSSWP		; RESET KL
	011350	004737 	011672'			 JSR	PC,.RSSWP
   6033	011354				10$:	POP	R0		; [4.1.1049]RESTORE PARITY FLAG
	011354	012600 				 MOV	(SP)+,R0
   6034	011356	132764 	000010 	000000G		BITB	#CH.EOC,.CHTAB(R4)	; IS THERE AN ARGUMENT?
   6035	011364	001011 				BNE	15$		; NO -- SWEEP ALL BLOCKS
   6036	011366					CALL	.GTELN		; YES -- GET IT
	011366	004737 	000000G			 JSR	PC,.GTELN
   6037	011372	020027 	000007 			CMP	R0,#7		; IS ARGUMENT IN RANGE?
SCACB -- SET AC-BLOCK COMMAND M	MACRO M1113  10-NOV-81 17:48  PAGE 153-1
.SWPC -- SWEEP AC BLOCK COMMAND

   6038	011376	101230 				BHI	SCANOR		; NO -- ERROR
   6039	011400	010002 				MOV	R0,R2		; YES -- SET ARGUMENT
   6040	011402					CALL	.SWPAC		; SWEEP BLOCK
	011402	004737 	011534'			 JSR	PC,.SWPAC
   6041	011406	000437 				BR	30$		; DONE
   6042	011410	032700 	000010 		15$:	BIT	#10,R0		; [4.1.1049]FM ERROR?
   6043	011414	001442 				BEQ	40$		; [4.1.1049]NO -- DONE
   6044	011416	012702 	000007 		17$:	MOV	#7,R2		; YES -- START WITH LAST BLOCK
   6045	011422				20$:	CALL	.SWPAC		; SWEEP IT
	011422	004737 	011534'			 JSR	PC,.SWPAC
   6046	011426	005302 				DEC	R2		; NEXT AC BLOCK
   6047	011430	002374 				BGE	20$		; DONE?
   6048	011432	005737 	000752'			TST	FMERR		; [4.1.1049]ANY ERRORS?
   6049	011436	001423 				BEQ	30$		; [4.1.1049]NO -- GO ON
   6050	011440	005737 	000000G			TST	.PASS		; [4.1.1049]YES -- PASS 2?
   6051	011444	001005 				BNE	25$		; [4.1.1049]YES -- ABORT RELOAD
   6052	011446	005237 	000000G			INC	.PASS		; [4.1.1049]NO -- SET SECOND PASS
   6053	011452	005037 	000752'			CLR	FMERR		; [4.1.1049]CLEAR ERROR COUNT
   6054	011456	000757 				BR	17$		; [4.1.1049]RESWEEP
   6055	011460	012700 	003207'		25$:	MOV	#FMABO,R0	; [4.1.1049]ABORT MESSAGE
   6056	011464					CALL	.TYLIN		; [4.1.1049]TYPE IT
	011464	004737 	000000G			 JSR	PC,.TYLIN
   6057	011470	032737 	000000G	000000G		BIT	#KL.REQ,.KLIWD	; [4.1.1049]KLI REQUESTED
   6058	011476	001403 				BEQ	30$		; [4.1.1049]NO -- DONE
   6059	011500	052737 	000000G	000000G		BIS	#KL.ABO,.KLIWD	; [4.1.1049]YES -- ABORT RELOAD
   6060	011506	013702 	000764'		30$:	MOV	SAVBLK,R2	; YES -- RESTORE ORIGINAL AC BLOCK
   6061	011512	012700 	000001 			MOV	#1,R0		; SET NO WHAT AC FLAG
   6062	011516					CALL	.SACB1		; SET AC BLOCK
	011516	004737 	011070'			 JSR	PC,.SACB1
   6063	011522	005037 	000000G		40$:	CLR	.SWPIP		; CLEAR SWEEP IN PROGRESS
   6064	011526					POP	.NOERR		; RESTORE ERROR,HALT STATUS
	011526	012637 	000000G			 MOV	(SP)+,.NOERR
   6065	011532					RETURN			; EXIT
	011532	000207 				 RTS	PC
   6066
   6067	000752				.PSECT	DATA
   6068
   6069	000752	000000 			FMERR:	.WORD	0		; [4.1.1049]ERROR COUNT
   6070	000754	000000 	000000 	000000 	FMBUF:	.WORD	0,0,0,0
	000762	000000
   6071
   6072	000764	000000 			SAVBLK:	.WORD	0		; ORIGINAL AC BLOCK NO.
   6073
   6074	003143				.PSECT	MESSAG
   6075
   6076	003143	   040 	   106 	   115 	FMHED:	.ASCIZ	% FM PARITY ERROR-(BLOCK:ADDR/DATA) %
	003146	   040 	   120 	   101
	003151	   122 	   111 	   124
	003154	   131 	   040 	   105
	003157	   122 	   122 	   117
	003162	   122 	   055 	   050
	003165	   102 	   114 	   117
	003170	   103 	   113 	   072
	003173	   101 	   104 	   104
	003176	   122 	   057 	   104
	003201	   101 	   124 	   101
	003204	   051 	   040 	   000
SCACB -- SET AC-BLOCK COMMAND M	MACRO M1113  10-NOV-81 17:48  PAGE 153-2
.SWPC -- SWEEP AC BLOCK COMMAND

   6077	003207	   040 	   125 	   116 	FMABO:	.ASCIZ	% UNRECOVERABLE FM PARITY ERROR - RELOAD CANCELED%
	003212	   122 	   105 	   103
	003215	   117 	   126 	   105
	003220	   122 	   101 	   102
	003223	   114 	   105 	   040
	003226	   106 	   115 	   040
	003231	   120 	   101 	   122
	003234	   111 	   124 	   131
	003237	   040 	   105 	   122
	003242	   122 	   117 	   122
	003245	   040 	   055 	   040
	003250	   122 	   105 	   114
	003253	   117 	   101 	   104
	003256	   040 	   103 	   101
	003261	   116 	   103 	   105
	003264	   114 	   105 	   104
	003267	   000
   6078
   6079	011534				.PSECT
SCACB -- SET AC-BLOCK COMMAND M	MACRO M1113  10-NOV-81 17:48  PAGE 154
.SWPAC -- SWEEP ALL AC BLOCKS FOR FM PARITY ERROR

   6081					.SBTTL	.SWPAC -- SWEEP ALL AC BLOCKS FOR FM PARITY ERROR
   6082
   6083					;+
   6084					; .SWPAC -- SUBROUTINE TO READ ALL AC'S TO LOCATE FM PARITY ERRORS
   6085					;
   6086					; THIS ROUTINE WILL:
   6087					;	0. TYPE CURRENT LOCKED UP FM ADDR AND DATA
   6088					;	1. DISABLE PARITY ERROR STOPS AND CLEAR CLOCK ERROR STOP
   6089					;	2. PUT KL IN HALT LOOP
   6090					;	3. START KL CLOCK
   6091					;	4. SET AC BLOCK
   6092					;	5. READ AC'S
   6093					;	6. IF FM PARITY ERROR SET TYPE ERROR
   6094					;	7. REPEAT 4-6 FOR EACH BLOCK
   6095					;	8. RESTORE ORIGINAL AC BLOCK
   6096					;
   6097					; INPUT ARGUMENTS:
   6098					;
   6099					;	R2=AC BLOCK TO SWEEP
   6100					;
   6101					; OUTPUT ARGUMENTS:
   6102					;
   6103					;	NONE
   6104					;
   6105					; ERROR CODES RETURNED:
   6106					;
   6107					;	CCC -- CAN'T CLEAR KL10 CLOCK
   6108					;	CCR -- CAN'T CLEAR KL10 RUN FLOP
   6109					;	CCS -- KL10 CLOCK CAN'T START
   6110					;	CES -- CLOCK ERROR STOP
   6111					;	CFH -- CAN'T FIND KL10 HALT LOOP
   6112					;	CSC -- CAN'T SYNC KL10 CLOCK
   6113					;	DMF -- DEPOSIT KL10 MEMORY FAILED
   6114					;	DSF -- DTE20 STATUS FAILURE
   6115					;	ECT -- EBOX CLOCK TIME OUT
   6116					;	ESD -- EBOX STOPPED - DEPOSIT
   6117					;	EMF -- EXAMINE KL10 MEMORY FAILED
   6118					;	ESE -- EBOX STOPPED - EXAMINE
   6119					;	FRF -- FUNCTION READ FAILED
   6120					;	FSW -- FM SWEEP ERROR
   6121					;	FWF -- FUNCTION WRITE FAILED
   6122					;	FXF -- FUNCTION EXECUTE FAILED
   6123					;	XTO -- EXECUTE TIMED OUT
   6124					;-
   6125
   6126	011534				.SWPAC::
   6127	011534	012700 	000001 			MOV	#1,R0		; SET NO WHAT AC FLAG
   6128	011540					CALL	.SACB1		; SET AC BLOCK
	011540	004737 	011070'			 JSR	PC,.SACB1
   6129	011544	012737 	000020 	000776'		MOV	#20,ACADR	; SET UP FOR 16 AC'S
   6130	011552	005337 	000776'		10$:	DEC	ACADR		; DONE ALL AC'S
   6131	011556	002441 				BLT	20$		; YES -- EXIT
   6132	011560	012701 	000772'			MOV	#EXBLK,R1	; NO- SET EXAMINE DATA BLOCK
   6133	011564	012700 	000200 			MOV	#ED.PHY,R0	; EXAMINE PHYSICAL MEMORY
   6134	011570					CALL	.EXKLM		; EXAMINE AC
	011570	004737 	000000G			 JSR	PC,.EXKLM
   6135	011574	103366 				BCC	10$		; NO ERROR, NEXT AC
SCACB -- SET AC-BLOCK COMMAND M	MACRO M1113  10-NOV-81 17:48  PAGE 154-1
.SWPAC -- SWEEP ALL AC BLOCKS FOR FM PARITY ERROR

   6136	011576					CALL	.DTDW1		; GET DTE STATUS WORD 1
	011576	004737 	000000G			 JSR	PC,.DTDW1
   6137	011602	032700 	004000 			BIT	#D1.CES,R0	; CLOCK ERROR STOP?
   6138	011606	001426 				BEQ	SWPFSW		; NO -- OTHER ERROR
   6139	011610					CALL	.RDFMP		; YES -- CHECK	FOR FM PARITY ERROR
	011610	004737 	000000G			 JSR	PC,.RDFMP
   6140	011614	005700 				TST	R0		; PARITY ERROR? 0=ERROR, 1=OK
   6141	011616	001022 				BNE	SWPFSW		; NO -- ERROR
   6142	011620	005237 	000752'			INC	FMERR		; [4.1.1049]YES -- COUNT IT
   6143	011624	012700 	000754'			MOV	#FMBUF,R0	; FM REGISTER BUFFER
   6144	011630					CALL	.RDFMO		; READ FM INFO
	011630	004737 	000000G			 JSR	PC,.RDFMO
   6145	011634					CALL	.TYACE		; TYPE AC INFO
	011634	004737 	000000G			 JSR	PC,.TYACE
   6146	011640					CALL	.RSSWP		; RESET SWEEP PARITY STOPS
	011640	004737 	011672'			 JSR	PC,.RSSWP
   6147	011644	012701 	000766'			MOV	#GOOBLK,R1	; [4.1.1049]GOOD DATA BLOCK
   6148	011650	012700 	000200 			MOV	#ED.PHY,R0	; [4.1.1049]PHYSICAL SPACE
   6149	011654					CALL	.DPKLM		; [4.1.1049]WRITE BACK GOOD DATA
	011654	004737 	000000G			 JSR	PC,.DPKLM
   6150	011660	000734 				BR	10$		; NEXT AC
   6151	011662				20$:	RETURN			; EXIT
	011662	000207 				 RTS	PC
   6152						;
   6153	011664				SWPFSW:
   6154	011664					ERROR$	FSW		; ERROR -- FM SWEEP ERROR
	011664	012746 	024217 			 MOV	#^RFSW,-(SP)
	011670	104400 				 TRAP	TC.ERR
   6155
   6156	000766				.PSECT	DATA
   6157
   6158	000766	000776'			GOOBLK:	.WORD	ACADR
   6159	000770	000756'				.WORD	FMBUF+2
   6160	000772	000776'			EXBLK:	.WORD	ACADR		; AC ADDR PTR
   6161	000774	001002'				.WORD	EXDAT		; EXAMINE DATA BUFFER PTR
   6162	000776	000000 			ACADR::	.WORD	0		; AC ADDR BITS 20-35
   6163	001000	000000 				.WORD	0		; AC ADDR BITS 14-19
   6164	001002	000000 			EXDAT::	.WORD	0		; AC DATA BITS 20-35
   6165	001004	000000 				.WORD	0		; AC DATA BITS 4-19
   6166	001006	000000 				.WORD	0		; AC DATA BITS 0-3
   6167
   6168	011672				.PSECT
SCACB -- SET AC-BLOCK COMMAND M	MACRO M1113  10-NOV-81 17:48  PAGE 155
.RSSWP -- RESET PARITY STOPS FOR FM SWEEP

   6170					.SBTTL	.RSSWP -- RESET PARITY STOPS FOR FM SWEEP
   6171
   6172					;+
   6173					; .RSSWP -- SUBROUTINE TO CLEAR CES, SET FM STOP, AND RESET AC BLOCK
   6174					;
   6175					; THIS ROUTINE WILL:
   6176					;	1. RESET KL
   6177					;	2. START CLOCK
   6178					;	3. RESET AC BLOCK
   6179					;
   6180					; INPUT ARGUMENTS:
   6181					;
   6182					;	R2- AC BLOCK NO. TO SET
   6183					;
   6184					; OUTPUT ARGUMENTS:
   6185					;
   6186					;	NONE
   6187					;
   6188					; ERROR CODES RETURNED:
   6189					;
   6190					;	CCC -- CAN'T CLEAR KL10 CLOCK
   6191					;	CCR -- CAN'T CLEAR KL10 RUN FLOP
   6192					;	CCS -- KL10 CLOCK CAN'T START
   6193					;	CES -- CLOCK ERROR STOP
   6194					;	CFH -- CAN'T FIND KL10 HALT LOOP
   6195					;	CSC -- CAN'T SYNC KL10 CLOCK
   6196					;	DMF -- DEPOSIT KL10 MEMORY FAILED
   6197					;	DSF -- DTE20 STATUS FAILURE
   6198					;	ECT -- EBOX CLOCK TIME OUT
   6199					;	ESD -- EBOX STOPPED - DEPOSIT
   6200					;	FRF -- FUNCTION READ FAILED
   6201					;	FWF -- FUNCTION WRITE FAILED
   6202					;	FXF -- FUNCTION EXECUTE FAILED
   6203					;	MAE -- MODE ARGUMENT ERROR
   6204					;	XTO -- EXECUTE TIMED OUT
   6205					;-
   6206	011672				.RSSWP::
   6207	011672					SETF$S	#E.FHTO		; SET HALT TIME-OUT FLAG
	011672	012746 	000001 			MOV	#E.FHTO,-(SP)
	011676	012746 				MOV	(PC)+,-(SP)
	011700	   041 	   002 			.BYTE	33.,2
	011702	104375 				EMT	375
   6208	011704					CALL	.RESTP		; RESET KL AND PARITY STOPS
	011704	004737 	000000G			 JSR	PC,.RESTP
   6209	011710					CALL	.STCLK		; START CLOCK
	011710	004737 	000000G			 JSR	PC,.STCLK
   6210	011714	012700 	000001 			MOV	#1,R0		; SET NO WHAT AC FLAG
   6211	011720					CALL	.SACB1		; SET AC BLOCK
	011720	004737 	011070'			 JSR	PC,.SACB1
   6212	011724				10$:	RETURN
	011724	000207 				 RTS	PC
   6213						;
SCOUTC -- SET/CLEAR OUTPUT COMM	MACRO M1113  10-NOV-81 17:48  PAGE 157
.RSSWP -- RESET PARITY STOPS FOR FM SWEEP

   6216					.TITLE	SCOUTC -- SET/CLEAR OUTPUT COMMAND MODULE
   6217
   6218						.IDENT	"006120"
   6219
   6220					;                             COPYRIGHT (C) 1979 BY
   6221					;                     DIGITAL EQUIPMENT CORPORATION, MAYNARD MASS.
   6222					;
   6223					;       THIS SOFTWARE IS FURNISHED UNDER A LICENSE AND MAY BE  USED  AND  COPIED
   6224					;       ONLY IN ACCORDANCE WITH THE TERMS OF SUCH LICENSE AND WITH THE INCLUSION
   6225					;       OF THE ABOVE COPYRIGHT NOTICE.  THIS SOFTWARE OR ANY OTHER COPIES THERE-
   6226					;       OF  MAY NOT BE PROVIDED OR OTHERWISE MADE AVAILABLE TO ANY OTHER PERSON.
   6227					;       NO TITLE TO OR OWNERSHIP OF THE SOFTWARE IS HEREBY TRANSFERRED.
   6228					;
   6229					;       THE INFORMATION CONTAINED IN THIS SOFTWARE IS SUBJECT TO CHANGE  WITHOUT
   6230					;       NOTICE  AND SHOULD NOT BE CONSTRUED AS A COMMITMENT BY DIGITAL EQUIPMENT
   6231					;       CORPORATION.
   6232					;
   6233					;       DIGITAL ASSUMES NO RESPONSIBILITY FOR THE  USE  OR  RELIABILITY  OF  ITS
   6234					;       SOFTWARE ON EQUIPMENT WHICH IS NOT SUPPILED BY DIGITAL.
   6235					;
   6236					;		MODULE: SET / CLEAR OUTPUT COMMAND
   6237					;
   6238					;		VERSION: 06-00
   6239					;
   6240					;		AUTHOR: K.LEFEBVRE
   6241					;
   6242					;		DATE: 6-SEP-79
   6243					;
   6244					;	THIS MODULE CONTAINS:
   6245					;
   6246					;	1) SET / CLEAR OUTPUT COMMAND CODE
   6247					;
   6248					;		THESE ROUTINES WERE ADDED FOR TCO 5.1000
   6249
   6250						.MCALL	DIR$,ALUN$,QIOW$,GTIM$S,QIOW$S
SCOUTC -- SET/CLEAR OUTPUT COMM	MACRO M1113  10-NOV-81 17:48  PAGE 158
.SCOUT -- SET/CLEAR OUTPUT COMMAND

   6252					.SBTTL	.SCOUT -- SET/CLEAR OUTPUT COMMAND
   6253
   6254					;+
   6255					; .SCOUT -- SET/CLEAR OUTPUT COMMAND ROUTINE
   6256					;
   6257					; THIS ROUTINE WILL EXECUTE THE SET/CLEAR OUTPUT COMMAND. IF
   6258					; THE COMMAND "SET OUTPUT" IS GIVEN WITHOUT ANY OBJECT THEN THE
   6259					; TTY IS TURNED ON. IF THE COMMAND "CLEAR OUTPUT" IS GIVEN
   6260					; WITHOUT ANY OBJECT THEN THE LPT AND LOG ARE TURNED OFF AND THE
   6261					; TTY IS TURNED ON. WHENEVER A CLEAR OUTPUT IS GIVEN WITH OR
   6262					; WITHOUT AN OBJECT A CHECK IS MADE TO MAKE SURE SOME DEVICE IS
   6263					; OUTPUTTING. IF NO DEVICES ARE THEN THE TTY IS TURNED ON.
   6264					;
   6265					; INPUT ARGUMENTS:
   6266					;
   6267					;	NONE
   6268					;
   6269					; OUTPUT ARGUMENTS:
   6270					;
   6271					;	NONE
   6272					;
   6273					; ERROR CODES RETURNED:
   6274					;
   6275					;	CAL -- CAN'T ASSIGN LUN
   6276					;	DNF -- DIRECTORY FILE NOT FOUND
   6277					;	FCF -- FILE CLOSE FAILURE
   6278					;	FEF -- FILE EXTEND FAILURE
   6279					;	FEN -- FILE ENTER FAILURE
   6280					;	FLF -- FILE LOOKUP FAILURE
   6281					;	FOF -- FILE OPEN FAILURE
   6282					;	FWT -- FILE WRITE FAILURE
   6283					;-
   6284
   6285	011726				.SCOUT::
   6286	011726	132764 	000010 	000000G		BITB	#CH.EOC,.CHTAB(R4)	; IS THERE AN OBJECT?
   6287	011734	001414 				BEQ	20$		; NO -- GET OBJECT
   6288	011736	005737 	000000G			TST	.NOTSW		; YES -- IS THIS A CLEAR?
   6289	011742	001406 				BEQ	10$		; NO -- SET CONSOLE OUTPUT
   6290	011744					CALL	.SCOTL		; YES -- CLEAR LOG OUTPUT
	011744	004737 	012014'			 JSR	PC,.SCOTL
   6291	011750					CALL	.SCOTP		; CLEAR PRINTER OUTPUT
	011750	004737 	012374'			 JSR	PC,.SCOTP
   6292	011754				5$:	CALLR	.WHOUT		; OUTPUT STATUS
	011754	000137 	012530'			 JMP	.WHOUT
   6293	011760				10$:	CALL	.SCOTY		; SET CONSOLE OUTPUT
	011760	004737 	012462'			 JSR	PC,.SCOTY
   6294	011764	000773 				BR	5$		; OUTPUT STATUS
   6295	011766				20$:	CALL	.CKOBJ		; MUST HAVE AN OBJECT
	011766	004737 	000000G			 JSR	PC,.CKOBJ
   6296	011772	012700 	000000G			MOV	#.SCOTT,R0	; TABLE POINTER TO R0
   6297	011776					CALL	.TSCAN		; SCAN THE TABLE
	011776	004737 	000000G			 JSR	PC,.TSCAN
   6298	012002					CALL	.CKEOC		; MUST HAVE E-O-C
	012002	004737 	000000G			 JSR	PC,.CKEOC
   6299	012006					CALL	@2(R0)		; EXECUTE THE COMMAND
	012006	004770 	000002 			 JSR	PC,@2(R0)
   6300	012012	000760 				BR	5$		; OUTPUT STATUS
SCOUTC -- SET/CLEAR OUTPUT COMM	MACRO M1113  10-NOV-81 17:48  PAGE 158-1
.SCOUT -- SET/CLEAR OUTPUT COMMAND

   6301						;
SCOUTC -- SET/CLEAR OUTPUT COMM	MACRO M1113  10-NOV-81 17:48  PAGE 159
.SCOTL -- SET/CLEAR OUTPUT LOG COMMAND

   6303					.SBTTL	.SCOTL -- SET/CLEAR OUTPUT LOG COMMAND
   6304
   6305					;+
   6306					; .SCOTL -- SET/CLEAR OUTPUT LOG COMMAND ROUTINE
   6307					;
   6308					; THIS ROUTINE WILL OPEN OR CLOSE A LOG FILE AND DIRECT OUTPUT
   6309					; TO THIS FILE.
   6310					;
   6311					; INPUT ARGUMENTS:
   6312					;
   6313					;	NONE
   6314					;
   6315					; OUTPUT ARGUMENTS:
   6316					;
   6317					;	NONE
   6318					;
   6319					; ERROR CODES RETURNED:
   6320					;
   6321					;	CAL -- CAN'T ASSIGN LUN
   6322					;	DNF -- DIRECTORY FILE NOT FOUND
   6323					;	FCF -- FILE CLOSE FAILURE
   6324					;	FEF -- FILE EXTEND FAILURE
   6325					;	FEN -- FILE ENTER FAILURE
   6326					;	FLF -- FILE LOOKUP FAILURE
   6327					;	FOF -- FILE OPEN FAILURE
   6328					;	FWT -- FILE WRITE FAILURE
   6329					;-
   6330
   6331	012014				.SCOTL::
   6332	012014	005737 	000000G			TST	.NOTSW		; IS THIS A CLEAR?
   6333	012020	001433 				BEQ	25$		; NO -- TURN LOGGING ON
   6334	012022	105737 	000000G			TSTB	.OUTLG		; LOGGING ALREADY OFF?
   6335	012026	001530 				BEQ	30$		; YES -- EXIT
   6336	012030	012700 	003335'			MOV	#LGFMSG,R0	; NO -- FINISH LOG MESSAGE
   6337	012034					CALL	.TYMSG		; TYPE IT
	012034	004737 	000000G			 JSR	PC,.TYMSG
   6338	012040					CALL	TYLGMS		; LOG TIME AND DATE
	012040	004737 	012312'			 JSR	PC,TYLGMS
   6339	012044					CALL	.TCRLF		; OUTPUT CR-LF
	012044	004737 	000000G			 JSR	PC,.TCRLF
   6340	012050					CALL	.TCRLF		; OUTPUT CR-LF
	012050	004737 	000000G			 JSR	PC,.TCRLF
   6341	012054					CALL	.WRITZ		; OUTPUT FINAL BLOCK
	012054	004737 	000000G			 JSR	PC,.WRITZ
   6342	012060	012700 	000000G			MOV	#.OTFN,R0	; FILE NAME
   6343	012064	012701 	000000G			MOV	#.OTATT,R1	; ATTRIBUTE BLOCK
   6344	012070	012702 	000004 			MOV	#LOGLUN,R2	; LUN
   6345	012074					CALL	.CLOSE		; CLOSE FILE
	012074	004737 	000000G			 JSR	PC,.CLOSE
   6346	012100	105037 	000000G			CLRB	.OUTLG		; YES -- CLEAR LOG FLAG
   6347	012104					CALLR	.SCOTC		; MAKE SURE SOME OUTPUT DEVICE IS ON
	012104	000137 	012506'			 JMP	.SCOTC
   6348						;
   6349	012110	105737 	000000G		25$:	TSTB	.OUTLG		; LOGGING ALREADY ON?
   6350	012114	001075 				BNE	30$		; YES -- EXIT
   6351	012116	012700 	000000G			MOV	#.OTFN,R0	; NO -- FILE NAME
   6352	012122	012701 	000000G			MOV	#.OTFNB,R1	; FILE NAME BLOCK
SCOUTC -- SET/CLEAR OUTPUT COMM	MACRO M1113  10-NOV-81 17:48  PAGE 159-1
.SCOTL -- SET/CLEAR OUTPUT LOG COMMAND

   6353	012126	012702 	000004 			MOV	#LOGLUN,R2	; LUN
   6354	012132	012704 	000000G			MOV	#IO.ACE,R4	; OPEN ACCESS RIGHTS
   6355	012136					CALL	.LOKUP		; LOOK UP FILE
	012136	004737 	000000G			 JSR	PC,.LOKUP
   6356	012142	103013 				BCC	27$		; FILE FOUND IF CC-C IS CLEAR
   6357	012144					CALL	.ENTER		; CREATE AND ENTER THE FILE
	012144	004737 	000000G			 JSR	PC,.ENTER
   6358	012150					CALL	.OPEN		; OPEN THE NEW FILE
	012150	004737 	000000G			 JSR	PC,.OPEN
   6359	012154	012737 	001002 	000000G		MOV	#1002,.OTATT	; SET FILE TYPE/ATTRIBUTES
   6360	012162	012737 	000001 	000006G		MOV	#1,.OTATT+6	; SET HIGHEST ALLOCATED BLOCK
   6361	012170	000402 				BR	29$		; GO ON
   6362	012172				27$:	CALL	.OPEN		; OPEN FILE
	012172	004737 	000000G			 JSR	PC,.OPEN
   6363	012176	012737 	000000G	000000G	29$:	MOV	#.BUFSZ,.OTBBC	; EMPTY BUFFER
   6364	012204	012737 	000000G	000000G		MOV	#.OTBUF,.OTPOS	; BUFFER ADDR
   6365	012212	013737 	000010G	000000G		MOV	.OTATT+10,.OTVBN	; HIGHEST USED BLOCK
   6366	012220	013737 	000012G	000002G		MOV	.OTATT+12,.OTVBN+2	; HIGHEST USED BLOCK
   6367	012226	012737 	000000G	000000G		MOV	#.RECRD,.RECPT	; RESET RECORD POINTER
   6368	012234	005037 	000000G			CLR	.RECNT		; CLEAR RECORD COUNT
   6369	012240	105237 	000000G			INCB	.OUTLG		; SET LOG FLAG
   6370	012244	012700 	003270'			MOV	#LGSMSG,R0	; START UP LOG MESSAGE
   6371	012250					CALL	.TYMSG		; TYPE IT
	012250	004737 	000000G			 JSR	PC,.TYMSG
   6372	012254					CALL	TYLGMS		; LOG TIME AND DATE
	012254	004737 	012312'			 JSR	PC,TYLGMS
   6373	012260	012700 	003323'			MOV	#LGVMSG,R0	; VERSION MESSAGE
   6374	012264					CALL	.TYMSG		; TYPE IT
	012264	004737 	000000G			 JSR	PC,.TYMSG
   6375	012270	012700 	000000G			MOV	#.VERNO,R0	; VERSION
   6376	012274					CALL	.TYMSG		;TYPE IT
	012274	004737 	000000G			 JSR	PC,.TYMSG
   6377	012300					CALL	.TCRLF		; OUTPUT CR-LF
	012300	004737 	000000G			 JSR	PC,.TCRLF
   6378	012304					CALL	.TCRLF		; OUTPUT CR-LF
	012304	004737 	000000G			 JSR	PC,.TCRLF
   6379	012310				30$:	RETURN			; RETURN
	012310	000207 				 RTS	PC
   6380						;
   6381	012312				TYLGMS:	PUSH	R1		; SAVE R1,R0
	012312	010146 				 MOV	R1,-(SP)
   6382	012314	012701 	001010'			MOV	#LOGBUF,R1	; DATE BUFFER
   6383	012320					GTIM$S	R1		; GET DATE
	012320	010146 				MOV	R1,-(SP)
	012322	012746 				MOV	(PC)+,-(SP)
	012324	   073 	   002 			.BYTE	59.,2
	012326	104375 				EMT	375
   6384	012330	005046 				CLR	-(SP)		; CLEAR SPACE ON STACK
   6385	012332	005046 				CLR	-(SP)		; CLEAR SPACE ON STACK
   6386	012334	010600 				MOV	SP,R0		; POINT R0 TO BUFFER
   6387	012336	112120 				MOVB	(R1)+,(R0)+	; SET YEAR
   6388	012340	105721 				TSTB	(R1)+		; SKIP BYTE
   6389	012342	112120 				MOVB	(R1)+,(R0)+	; SET MONTH
   6390	012344	105721 				TSTB	(R1)+		; SKIP BYTE
   6391	012346	112120 				MOVB	(R1)+,(R0)+	; SET DAY
   6392	012350	010600 				MOV	SP,R0		; RESET PTR
   6393	012352					CALL	.TYDAT		; TYPE DATE
SCOUTC -- SET/CLEAR OUTPUT COMM	MACRO M1113  10-NOV-81 17:48  PAGE 159-2
.SCOTL -- SET/CLEAR OUTPUT LOG COMMAND

	012352	004737 	006612'			 JSR	PC,.TYDAT
   6394	012356	012700 	000000G			MOV	#.SSM,R0	; SET SECONDS
   6395	012362					CALL	.TYTIM		; TYPE TIME
	012362	004737 	006726'			 JSR	PC,.TYTIM
   6396	012366	022626 				CMP	(SP)+,(SP)+	; CLEAR STACK
   6397	012370					POP	R1		; RESTORE R1
	012370	012601 				 MOV	(SP)+,R1
   6398	012372					RETURN			; EXIT
	012372	000207 				 RTS	PC
   6399						;
   6400
   6401	001010				.PSECT	DATA
   6402
   6403	001010				LOGBUF:	.BLKW	10
   6404
   6405	003270				.PSECT	MESSAG
   6406
   6407	003270				LGSMSG:
   6408	003270	   012 	   052 	   052 		.ASCIZ	<12>%******* LOGGING STARTED  %
	003273	   052 	   052 	   052
	003276	   052 	   052 	   040
	003301	   114 	   117 	   107
	003304	   107 	   111 	   116
	003307	   107 	   040 	   123
	003312	   124 	   101 	   122
	003315	   124 	   105 	   104
	003320	   040 	   040 	   000
   6409	003323				LGVMSG:
   6410	003323	   054 	   122 	   123 		.ASCIZ	%,RSX-20F %
	003326	   130 	   055 	   062
	003331	   060 	   106 	   040
	003334	   000
   6411	003335				LGFMSG:
   6412	003335	   012 	   052 	   052 		.ASCIZ	<12>%******* LOGGING FINISHED  %
	003340	   052 	   052 	   052
	003343	   052 	   052 	   040
	003346	   114 	   117 	   107
	003351	   107 	   111 	   116
	003354	   107 	   040 	   106
	003357	   111 	   116 	   111
	003362	   123 	   110 	   105
	003365	   104 	   040 	   040
	003370	   000
   6413
   6414	012374				.PSECT
SCOUTC -- SET/CLEAR OUTPUT COMM	MACRO M1113  10-NOV-81 17:48  PAGE 160
.SCOTP -- SET/CLEAR OUTPUT LPT COMMAND

   6416					.SBTTL	.SCOTP -- SET/CLEAR OUTPUT LPT COMMAND
   6417
   6418					;+
   6419					; .SCOTP -- SET/CLEAR OUTPUT LPT COMMAND ROUTINE
   6420					;
   6421					; THIS ROUTINE WILL ATTACH OR DETATCH THE LINE PRINTER AND
   6422					; SET A FLAG TO DIRECT OUTPUT TO IT.
   6423					;
   6424					; INPUT ARGUMENTS:
   6425					;
   6426					;	NONE
   6427					;
   6428					; OUTPUT ARGUMENTS:
   6429					;
   6430					;	NONE
   6431					;
   6432					; ERROR CODES RETURNED:
   6433					;
   6434					;	CAP -- CAN'T ATTACH LINEPRINTER
   6435					;-
   6436
   6437	012374				.SCOTP::
   6438	012374	005737 	000000G			TST	.NOTSW		; IS THIS A CLEAR PRINTER?
   6439	012400	001413 				BEQ	30$		; NO -- TURN ON PRINTER
   6440	012402	105737 	000000G			TSTB	.OUTLP		; YES -- IS LINE PRINTER ON?
   6441	012406	001421 				BEQ	40$		; NO -- DON'T TURN OFF
   6442	012410					DIR$	#.DTLST		; YES -- DETACH THE PRINTER
	012410	012746 	000100'			MOV	#.DTLST,-(SP)
	012414	104375 				EMT	375
   6443	012416	103416 				BCS	SCOCAP		; ERROR IF CC-C IS SET
   6444	012420	105037 	000000G			CLRB	.OUTLP		; CLEAR PRINT FLAG
   6445	012424					CALLR	.SCOTC		; MAKE SURE SOME OUTPUT DEVICE IS ON
	012424	000137 	012506'			 JMP	.SCOTC
   6446						;
   6447	012430	105737 	000000G		30$:	TSTB	.OUTLP		; IS LINE PRINTER ALREADY ON?
   6448	012434	001006 				BNE	40$		; YES -- DON'T TURN ON
   6449	012436					DIR$	#.ATLST		; NO -- ATTACH THE PRINTER
	012436	012746 	000064'			MOV	#.ATLST,-(SP)
	012442	104375 				EMT	375
   6450	012444	103403 				BCS	SCOCAP		; ERROR IF CC-C IS SET
   6451	012446	105237 	000000G			INCB	.OUTLP		; SET THE PRINT FLAG
   6452	012452				40$:	RETURN			; RETURN
	012452	000207 				 RTS	PC
   6453						;
   6454	012454				SCOCAP:
   6455	012454					ERROR$	CAP		; ERROR -- CAN'T ATTACH LINEPRINTER
	012454	012746 	011370 			 MOV	#^RCAP,-(SP)
	012460	104400 				 TRAP	TC.ERR
SCOUTC -- SET/CLEAR OUTPUT COMM	MACRO M1113  10-NOV-81 17:48  PAGE 161
.SCOTY -- SET/CLEAR OUTPUT TTY COMMAND

   6457					.SBTTL	.SCOTY -- SET/CLEAR OUTPUT TTY COMMAND
   6458
   6459					;+
   6460					; .SCOTY -- SET/CLEAR OUTPUT TTY COMMAND ROUTINE
   6461					;
   6462					; THIS ROUTINE WILL SET OR CLEAR A FLAG THAT DIRECTS OUTPUT TO THE
   6463					; TTY.
   6464					;
   6465					; INPUT ARGUMENTS:
   6466					;
   6467					;	NONE
   6468					;
   6469					; OUTPUT ARGUMENTS:
   6470					;
   6471					;	NONE
   6472					;
   6473					; ERROR CODES RETURNED:
   6474					;
   6475					;	NONE
   6476					;-
   6477
   6478	012462				.SCOTY::
   6479	012462	005737 	000000G			TST	.NOTSW		; IS THIS A CLEAR
   6480	012466	001404 				BEQ	50$		; NO -- SET TYPE OUTPUT
   6481	012470	105037 	000000G			CLRB	.OUTTY		; CLEAR TYPE FLAG
   6482	012474					CALLR	.SCOTC		; MAKE SURE SOME OUTPUT DEVICE IS ON
	012474	000137 	012506'			 JMP	.SCOTC
   6483	012500	105237 	000000G		50$:	INCB	.OUTTY		; SET TYPE FLAG
   6484	012504				60$:	RETURN			; EXIT
	012504	000207 				 RTS	PC
   6485						;
SCOUTC -- SET/CLEAR OUTPUT COMM	MACRO M1113  10-NOV-81 17:48  PAGE 162
.SCOTC -- SET/CLEAR OUTPUT CHECK ROUTINE

   6487					.SBTTL	.SCOTC -- SET/CLEAR OUTPUT CHECK ROUTINE
   6488
   6489					;+
   6490					; .SCOTL -- SET/CLEAR OUTPUT CHECK ROUTINE
   6491					;
   6492					; THIS ROUTINE WILL CHECK TO SEE THAT OUTPUT IS DIRECTED TO SOME
   6493					; DEVICE. IF THERE IS NO OUTPUT DEVICE THEN THE TTY IS TURNED ON.
   6494					;
   6495					; INPUT ARGUMENTS:
   6496					;
   6497					;	NONE
   6498					;
   6499					; OUTPUT ARGUMENTS:
   6500					;
   6501					;	NONE
   6502					;
   6503					; ERROR CODES RETURNED:
   6504					;
   6505					;	NONE
   6506					;-
   6507
   6508	012506				.SCOTC::
   6509	012506	105737 	000000G			TSTB	.OUTLG		; LOG ON?
   6510	012512	001005 				BNE	70$		; YES -- EXIT
   6511	012514	105737 	000000G			TSTB	.OUTLP		; NO -- PRINT ON?
   6512	012520	001002 				BNE	70$		; YES -- EXIT
   6513	012522	105237 	000000G			INCB	.OUTTY		; NO -- TURN ON TYPE
   6514	012526				70$:	RETURN			; EXIT
	012526	000207 				 RTS	PC
   6515						;
SCOUTC -- SET/CLEAR OUTPUT COMM	MACRO M1113  10-NOV-81 17:48  PAGE 163
.WHOUT -- WHAT OUTPUT COMMAND

   6517					.SBTTL	.WHOUT -- WHAT OUTPUT COMMAND
   6518
   6519					;+
   6520					; .WHOUT -- WHAT OUTPUT COMMAND ROUTINE
   6521					;
   6522					; THIS ROUTINE WILL OUPUT THE STATUS OF THE CURRENT OUTPUT DEVICES.
   6523					;
   6524					; INPUT ARGUMENTS:
   6525					;
   6526					;	NONE
   6527					;
   6528					; OUTPUT ARGUMENTS:
   6529					;
   6530					;	NONE
   6531					;
   6532					; ERROR CODES RETURNED:
   6533					;
   6534					;	NONE
   6535					;-
   6536
   6537	012530				.WHOUT::
   6538	012530	012700 	003371'			MOV	#WHOTMS,R0	; MESSAGE POINTER TO R0
   6539	012534					CALL	.TYMSG		; PRINT IT
	012534	004737 	000000G			 JSR	PC,.TYMSG
   6540	012540	005046 				CLR	-(SP)		; CLEAR COMMA FLAG
   6541	012542	105737 	000000G			TSTB	.OUTTY		; TTY ACTIVE?
   6542	012546	001405 				BEQ	10$		; NO -- NEXT DEVICE
   6543	012550	012700 	000000G			MOV	#TTYMSG,R0	; YES -- TTY MESSAGE POINTER TO R0
   6544	012554					CALL	.TYMSG		; PRINT IT
	012554	004737 	000000G			 JSR	PC,.TYMSG
   6545	012560	005216 				INC	(SP)		; SET COMMA FLAG
   6546	012562	105737 	000000G		10$:	TSTB	.OUTLP		; LPT ACTIVE?
   6547	012566	001411 				BEQ	20$		; NO -- NEXT DEVICE
   6548	012570	005716 				TST	(SP)		; YES -- TYPE COMMA?
   6549	012572	001402 				BEQ	15$		; NO -- TYPE DEVICE
   6550	012574					CALL	.TYCOM		; YES -- TYPE COMMA
	012574	004737 	000000G			 JSR	PC,.TYCOM
   6551	012600	012700 	000000G		15$:	MOV	#LPTMSG,R0	; LPT MESSAGE POINTER TO R0
   6552	012604					CALL	.TYMSG		; PRINT IT
	012604	004737 	000000G			 JSR	PC,.TYMSG
   6553	012610	005216 				INC	(SP)		; SET COMMA FLAG
   6554	012612	105737 	000000G		20$:	TSTB	.OUTLG		; LOG ACTIVE?
   6555	012616	001410 				BEQ	30$		; NO -- EXIT
   6556	012620	005716 				TST	(SP)		; YES -- TYPE COMMA?
   6557	012622	001402 				BEQ	25$		; NO -- TYPE DEVICE
   6558	012624					CALL	.TYCOM		; YES -- TYPE COMMA
	012624	004737 	000000G			 JSR	PC,.TYCOM
   6559	012630	012700 	000000G		25$:	MOV	#LOGMSG,R0	; LOG MESSAGE POINTER TO R0
   6560	012634					CALL	.TYMSG		; PRINT IT
	012634	004737 	000000G			 JSR	PC,.TYMSG
   6561	012640	005726 			30$:	TST	(SP)+		; REMOVE COMMA FLAG
   6562	012642					CALLR	.TCRLF		; TYPE MESSAGE AND EXIT
	012642	000137 	000000G			 JMP	.TCRLF
   6563						;
   6564
   6565	003371				.PSECT	MESSAG
   6566
SCOUTC -- SET/CLEAR OUTPUT COMM	MACRO M1113  10-NOV-81 17:48  PAGE 163-1
.WHOUT -- WHAT OUTPUT COMMAND

   6567	003371				WHOTMS:
   6568	003371	   040 	   117 	   125 		.ASCIZ	% OUTPUT DEVICES: %
	003374	   124 	   120 	   125
	003377	   124 	   040 	   104
	003402	   105 	   126 	   111
	003405	   103 	   105 	   123
	003410	   072 	   040 	   000
   6569
   6570	012646				.PSECT
SCOUTC -- SET/CLEAR OUTPUT COMM	MACRO M1113  10-NOV-81 17:48  PAGE 164
.WHOUT -- WHAT OUTPUT COMMAND

   6572					; THESE DPBS ARE USED TO ASSIGN THE LINE PRINTER TO THE PARSER TASK BY
   6573					; LOGICAL UNIT NUMBER (LUN), AND ARE OF THE FORM:
   6574					;
   6575					;	!===============================================!
   6576					; 00	!	DPB SIZE	!	    DIC		!
   6577					;	!-----------------------------------------------!
   6578					; 02	!	      LOGICAL UNIT NUMBER		!
   6579					;	!-----------------------------------------------!
   6580					; 04	!	       ASCII DEVICE NAME		!
   6581					;	!-----------------------------------------------!
   6582					; 06	!	      DEVICE UNIT NUMBER		!
   6583					;	!===============================================!
   6584
   6585	000064				.PSECT	DPBS
   6586
   6587	000064				.ATLST:				; ATTACH LPT DIRECTIVE
   6588	000064					QIOW$	IO.ATT,LSTLUN,E.FLOD,0,0,0
	000064	   003 	   006 			.BYTE	3,$$$ARG
	000066	000000G				.WORD	IO.ATT
	000070	000003 				.WORD	LSTLUN
	000072	   005 	   000 			.BYTE	E.FLOD,0
	000074	000000 				.WORD	0
	000076	000000 				.WORD	0
   6589
   6590	000100				.DTLST:			; DETATCH LPT DIRECTIVE
   6591	000100					QIOW$	IO.DET,LSTLUN,E.FLOD,0,0,0
	000100	   003 	   006 			.BYTE	3,$$$ARG
	000102	000000G				.WORD	IO.DET
	000104	000003 				.WORD	LSTLUN
	000106	   005 	   000 			.BYTE	E.FLOD,0
	000110	000000 				.WORD	0
	000112	000000 				.WORD	0
   6592
   6593	012646				.PSECT
SETCM -- SET / CLEAR COMMAND DI	MACRO M1113  10-NOV-81 17:48  PAGE 166
.WHOUT -- WHAT OUTPUT COMMAND

   6596					.TITLE	SETCM -- SET / CLEAR COMMAND DISPATCH MODULE 7603.30
   6597
   6598						.IDENT	"005000"
   6599					;
   6600					;                             COPYRIGHT (C) 1975, 1979 BY
   6601					;                     DIGITAL EQUIPMENT CORPORATION, MAYNARD MASS.
   6602					;
   6603					;       THIS SOFTWARE IS FURNISHED UNDER A LICENSE AND MAY BE  USED  AND  COPIED
   6604					;       ONLY IN ACCORDANCE WITH THE TERMS OF SUCH LICENSE AND WITH THE INCLUSION
   6605					;       OF THE ABOVE COPYRIGHT NOTICE.  THIS SOFTWARE OR ANY OTHER COPIES THERE-
   6606					;       OF  MAY NOT BE PROVIDED OR OTHERWISE MADE AVAILABLE TO ANY OTHER PERSON.
   6607					;       NO TITLE TO OR OWNERSHIP OF THE SOFTWARE IS HEREBY TRANSFERRED.
   6608					;
   6609					;       THE INFORMATION CONTAINED IN THIS SOFTWARE IS SUBJECT TO CHANGE  WITHOUT
   6610					;       NOTICE  AND SHOULD NOT BE CONSTRUED AS A COMMITMENT BY DIGITAL EQUIPMENT
   6611					;       CORPORATION.
   6612					;
   6613					;       DIGITAL ASSUMES NO RESPONSIBILITY FOR THE  USE  OR  RELIABILITY  OF  ITS
   6614					;       SOFTWARE ON EQUIPMENT WHICH IS NOT SUPPILED BY DIGITAL.
   6615					;
   6616					;		MODULE: SET / CLEAR COMMAND DISPATCH
   6617					;
   6618					;		VERSION: 05-00
   6619					;
   6620					;		AUTHOR: R. BELANGER
   6621					;
   6622					;		DATE: 7603.30
   6623					;
   6624					;	THIS MODULE CONTAINS:
   6625					;
   6626					;	1) SET / CLEAR COMMAND DISPATCH CODE
SETCM -- SET / CLEAR COMMAND DI	MACRO M1113  10-NOV-81 17:48  PAGE 167
.SETCM -- THE "SET" AND "CLEAR" COMMAND DISPATCHES 7602.19

   6628					.SBTTL	.SETCM -- THE "SET" AND "CLEAR" COMMAND DISPATCHES 7602.19
   6629
   6630					;+
   6631					; .CLRCM -- THE "CLEAR" COMMAND
   6632					; .SETCM -- THE "SET" COMMAND
   6633					;
   6634					; THESE ROUTINES ARE THE TOP LEVEL FOR THE SET AND CLEAR COMMANDS.
   6635					; ARGUMENTS ARE CHECKED AND A DISPATCH IS MADE FOR THE OBJECT
   6636					; SPECIFIED IN THE COMMAND LINE
   6637					;
   6638					; INPUT ARGUMENTS:
   6639					;
   6640					;	NONE.
   6641					;
   6642					; OUTPUT ARGUMENTS:
   6643					;
   6644					;	NONE.
   6645					;
   6646					; ERROR CODES RETURNED:
   6647					;
   6648					;	ILC -- ILLEGAL COMMAND.
   6649					;-
   6650
   6651						.ENABL	LSB
   6652
   6653	012646				.CLRCM::
   6654	012646					CALL	.CKOBJ		; SEE IF OBJECT FOLLOWS
	012646	004737 	000000G			 JSR	PC,.CKOBJ
   6655	012652	005737 	000000G			TST	.NOTSW		; LOOK AT THE "NOT" SWITCH
   6656	012656	001007 				BNE	10$		; ALREADY SAYS CLEAR -- GO ON
   6657	012660	005137 	000000G			COM	.NOTSW		; INVERT THE "NOT" SWITCH
   6658	012664	000404 				BR	10$		; AND TREAT AS A "SET" COMMAND
   6659						;
   6660	012666				.SETCM::
   6661	012666					CALL	.CKOBJ		; LOOK FOR AN OBJECT
	012666	004737 	000000G			 JSR	PC,.CKOBJ
   6662	012672	005037 	000000G			CLR	.NOTSW		; CLEAR THE "NOT" SWITCH
   6663	012676				.SETC0::			; "SET NOT" ENTRY POINT
   6664	012676				10$:
   6665	012676	012700 	000000G			MOV	#.SETTB,R0	; TABLE POINTER TO R0
   6666	012702					CALL	.TSCAN		; SCAN IT
	012702	004737 	000000G			 JSR	PC,.TSCAN
   6667	012706	011001 				MOV	(R0),R1		; LEGAL BITS TO R1
   6668	012710	005101 				COM	R1		; INVERT THEM
   6669	012712	040137 	000000G			BIC	R1,.LGLWD	; SET UP NEW LEGAL WORD
   6670	012716					CALLR	@2(R0)		; DO WHAT IT SAYS TO
	012716	000170 	000002 			 JMP	@2(R0)
   6671						;
   6672
   6673						.DSABL	LSB
SETCM -- SET / CLEAR COMMAND DI	MACRO M1113  10-NOV-81 17:48  PAGE 168
.WHATC -- THE "WHAT" COMMAND DISPATCH 7607.14

   6675					.SBTTL	.WHATC -- THE "WHAT" COMMAND DISPATCH 7607.14
   6676
   6677					;+
   6678					; .WHATC -- THE "WHAT" COMMAND DISPATCH
   6679					;
   6680					; THIS ROUTINE IS THE TOPMOST LEVEL OF THE "WHAT COMMAND WHICH
   6681					; PERFORMS THE DISPATCH FOR THE SPECIFIED OBJECT.
   6682					;
   6683					; INPUT ARGUMENTS:
   6684					;
   6685					;	NONE.
   6686					;
   6687					; OUTPUT ARGUMENTS:
   6688					;
   6689					;	NONE.
   6690					;
   6691					; ERROR CODES RETURNED:
   6692					;
   6693					;	NONE.
   6694					;-
   6695
   6696	012722				.WHATC::
   6697	012722	012700 	000000G			MOV	#.WHATB,R0	; TABLE POINTER TO R0
   6698	012726					CALL	.CKOBJ		; MUST HAVE AN OBJECT
	012726	004737 	000000G			 JSR	PC,.CKOBJ
   6699	012732					CALL	.TSCAN		; SCAN IT
	012732	004737 	000000G			 JSR	PC,.TSCAN
   6700	012736					CALL	.CKEOC		; MUST HAVE E-O-C
	012736	004737 	000000G			 JSR	PC,.CKEOC
   6701	012742					CALLR	@2(R0)		; DO WHAT IT SAYS
	012742	000170 	000002 			 JMP	@2(R0)
   6702						;
SETCM -- SET / CLEAR COMMAND DI	MACRO M1113  10-NOV-81 17:48  PAGE 169
.SCNOT -- THE "SET / CLEAR NOT" COMMAND 7602.19

   6704					.SBTTL	.SCNOT -- THE "SET / CLEAR NOT" COMMAND 7602.19
   6705
   6706	012746				.SCNOT::			; SET/CLEAR "NO"
   6707	012746					CALL	.CKOBJ		; MUST HAVE AN OBJECT
	012746	004737 	000000G			 JSR	PC,.CKOBJ
   6708	012752	005137 	000000G			COM	.NOTSW		; INVERT THE "NOT" SWITCH
   6709	012756	000747 				BR	.SETC0		; AND GET NEXT OBJECT
   6710						;
SHUTC -- SHUTDOWN COMMAND MODUL	MACRO M1113  10-NOV-81 17:48  PAGE 170
.SCNOT -- THE "SET / CLEAR NOT" COMMAND 7602.19

   6712					.TITLE	SHUTC -- SHUTDOWN COMMAND MODULE 7707.12
   6713
   6714						.IDENT	"005000"
   6715					;
   6716					;                             COPYRIGHT (C) 1975, 1979 BY
   6717					;                     DIGITAL EQUIPMENT CORPORATION, MAYNARD MASS.
   6718					;
   6719					;       THIS SOFTWARE IS FURNISHED UNDER A LICENSE AND MAY BE  USED  AND  COPIED
   6720					;       ONLY IN ACCORDANCE WITH THE TERMS OF SUCH LICENSE AND WITH THE INCLUSION
   6721					;       OF THE ABOVE COPYRIGHT NOTICE.  THIS SOFTWARE OR ANY OTHER COPIES THERE-
   6722					;       OF  MAY NOT BE PROVIDED OR OTHERWISE MADE AVAILABLE TO ANY OTHER PERSON.
   6723					;       NO TITLE TO OR OWNERSHIP OF THE SOFTWARE IS HEREBY TRANSFERRED.
   6724					;
   6725					;       THE INFORMATION CONTAINED IN THIS SOFTWARE IS SUBJECT TO CHANGE  WITHOUT
   6726					;       NOTICE  AND SHOULD NOT BE CONSTRUED AS A COMMITMENT BY DIGITAL EQUIPMENT
   6727					;       CORPORATION.
   6728					;
   6729					;       DIGITAL ASSUMES NO RESPONSIBILITY FOR THE  USE  OR  RELIABILITY  OF  ITS
   6730					;       SOFTWARE ON EQUIPMENT WHICH IS NOT SUPPILED BY DIGITAL.
   6731					;
   6732					;		MODULE: SHUTDOWN COMMAND
   6733					;
   6734					;		VERSION: 03-06
   6735					;
   6736					;		AUTHOR: R. BELANGER
   6737					;
   6738					;		DATE: 7707.12
   6739					;
   6740					;	THIS MODULE CONTAINS:
   6741					;
   6742					;	1) SHUTDOWN COMMAND CODE
SHUTC -- SHUTDOWN COMMAND MODUL	MACRO M1113  10-NOV-81 17:48  PAGE 171
.SHUTC -- THE "SHUTDOWN" COMMAND 7707.12

   6744					.SBTTL	.SHUTC -- THE "SHUTDOWN" COMMAND 7707.12
   6745
   6746					;+
   6747					; .SHUTC -- THE SHUTDOWN COMMAND
   6748					;
   6749					; THIS ROUTINE WILL DEPOSIT A -1 INTO KL LOCATION 30 (EXEC VIRTUAL)
   6750					; TO SHUTDOWN TIMESHARING.
   6751					;
   6752					; INPUT ARGUMENTS:
   6753					;
   6754					;	NONE.
   6755					;
   6756					; OUTPUT ARGUMENTS:
   6757					;
   6758					;	NONE.
   6759					;
   6760					; ERROR CODES RETURNED:
   6761					;
   6762					;	NONE
   6763					;-
   6764
   6765	012760				.SHUTC::
   6766	012760					CALL	.CKEOC		; CHECK E-O-C
	012760	004737 	000000G			 JSR	PC,.CKEOC
   6767	012764	112737 	000001 	000000G		MOVB	#1,.NOHLT	; TELL RSX20F NOT TO PANIC OVER HALTED KL
   6768	012772	005046 				CLR	-(SP)		; CLEAR ADDRESS BUFFER
   6769	012774					PUSH	#30		; .SET THE ADDRESS UP
	012774	012746 	000030 			 MOV	#30,-(SP)
   6770	013000	010600 				MOV	SP,R0		; ..GET ADDRESS POINTER
   6771	013002					PUSH	#17		; ..SET UP DEPOSIT WORD
	013002	012746 	000017 			 MOV	#17,-(SP)
   6772	013006					PUSH	#-^D1		; ...
	013006	012746 	177777 			 MOV	#-^D1,-(SP)
   6773	013012					PUSH	(SP)		; ....
	013012	011646 				 MOV	(SP),-(SP)
   6774	013014	010601 				MOV	SP,R1		; .....SAVE THE POINTER
   6775	013016					PUSH	R1		; .....SET UP THE DATA BLOCK
	013016	010146 				 MOV	R1,-(SP)
   6776	013020					PUSH	R0		; ......
	013020	010046 				 MOV	R0,-(SP)
   6777	013022	010601 				MOV	SP,R1		; .......POINT TO THE BLOCK
   6778	013024	012700 	000040 			MOV	#ED.EXV,R0	; .......EXEC VIRTUAL REFERENCE
   6779	013030					CALL	.DPKLM		; .......DO THE DEPOSIT
	013030	004737 	000000G			 JSR	PC,.DPKLM
   6780	013034	062706 	000016 			ADD	#^D14,SP	; .......CLEAR THE STACK
   6781	013040					CALL	..DTP2		; START SECONDARY PROTOCOL
	013040	004737 	000000G			 JSR	PC,..DTP2
   6782	013044					CALLR	.EXITP		; EXIT THE PARSER
	013044	000137 	000000G			 JMP	.EXITP
   6783						;
STRTC -- START COMMAND DISPATCH	MACRO M1113  10-NOV-81 17:48  PAGE 172
.SHUTC -- THE "SHUTDOWN" COMMAND 7707.12

   6785					.TITLE	STRTC -- START COMMAND DISPATCH MODULE 7603.30
   6786
   6787						.IDENT	"005000"
   6788
   6789					;
   6790					;                             COPYRIGHT (C) 1975, 1979 BY
   6791					;                     DIGITAL EQUIPMENT CORPORATION, MAYNARD MASS.
   6792					;
   6793					;       THIS SOFTWARE IS FURNISHED UNDER A LICENSE AND MAY BE  USED  AND  COPIED
   6794					;       ONLY IN ACCORDANCE WITH THE TERMS OF SUCH LICENSE AND WITH THE INCLUSION
   6795					;       OF THE ABOVE COPYRIGHT NOTICE.  THIS SOFTWARE OR ANY OTHER COPIES THERE-
   6796					;       OF  MAY NOT BE PROVIDED OR OTHERWISE MADE AVAILABLE TO ANY OTHER PERSON.
   6797					;       NO TITLE TO OR OWNERSHIP OF THE SOFTWARE IS HEREBY TRANSFERRED.
   6798					;
   6799					;       THE INFORMATION CONTAINED IN THIS SOFTWARE IS SUBJECT TO CHANGE  WITHOUT
   6800					;       NOTICE  AND SHOULD NOT BE CONSTRUED AS A COMMITMENT BY DIGITAL EQUIPMENT
   6801					;       CORPORATION.
   6802					;
   6803					;       DIGITAL ASSUMES NO RESPONSIBILITY FOR THE  USE  OR  RELIABILITY  OF  ITS
   6804					;       SOFTWARE ON EQUIPMENT WHICH IS NOT SUPPILED BY DIGITAL.
   6805					;
   6806					;		MODULE: START COMMAND DISPATCH
   6807					;
   6808					;		VERSION: 05-00
   6809					;
   6810					;		AUTHOR: R. BELANGER
   6811					;
   6812					;		DATE: 7603.30
   6813					;
   6814					;	THIS MODULE CONTAINS:
   6815					;
   6816					;	1) START COMMAND DISPATCH CODE
STRTC -- START COMMAND DISPATCH	MACRO M1113  10-NOV-81 17:48  PAGE 173
.STRTC -- THE "START" COMMAND 7602.26

   6818					.SBTTL	.STRTC -- THE "START" COMMAND 7602.26
   6819
   6820					;+
   6821					; .STRTC -- THE "START" COMMAND.
   6822					;
   6823					; THIS IS THE TOP LEVEL OF THE "START" COMMAND, WHICH CHECKS FOR
   6824					; ARGUMENTS AND DISPATCHES TO THE PROPER LOWER LEVEL ROUTINE.
   6825					;
   6826					; INPUT ARGUMENTS:
   6827					;
   6828					;	NONE.
   6829					;
   6830					; OUTPUT ARGUMENTS:
   6831					;
   6832					;	NONE.
   6833					;
   6834					; ERROR CODES RETURNED:
   6835					;
   6836					;	NONE.
   6837					;-
   6838
   6839	013050				.STRTC::
   6840	013050					CALL	.CKARG		; LOOK FOR AN ARGUMENT
	013050	004737 	000000G			 JSR	PC,.CKARG
   6841	013054	001012 				BNE	.STRTT		; START THE TEN IF NUMERIC
   6842	013056	012700 	000000G			MOV	#.STRTB,R0	; TABLE POINTER TO R0
   6843	013062					CALL	.TSCAN		; SCAN THE TABLE
	013062	004737 	000000G			 JSR	PC,.TSCAN
   6844	013066					CALLR	@2(R0)		; DISPATCH FOR THE OBJECT
	013066	000170 	000002 			 JMP	@2(R0)
   6845						;
STRTC -- START COMMAND DISPATCH	MACRO M1113  10-NOV-81 17:48  PAGE 174
.STRTT -- THE "START <TEN>" COMMAND 7710.11

   6847					.SBTTL	.STRTT -- THE "START <TEN>" COMMAND 7710.11
   6848
   6849					;+
   6850					; .STRTT -- THE "START <TEN>" COMMAND.
   6851					; .JUMPC -- THE "JUMP" COMMAND.
   6852					;
   6853					; THESE ROUTINES WILL START THE KL IN EXEC (KERNEL) MODE AT THE
   6854					; ADDRESS SPECIFIED IN THE INPUT STREAM.
   6855					;
   6856					; INPUT ARGUMENTS:
   6857					;
   6858					;	NONE.
   6859					;
   6860					; OUTPUT ARGUMENTS:
   6861					;
   6862					;	NONE.
   6863					;
   6864					; ERROR CODES RETURNED:
   6865					;
   6866					;	ILS -- ILLEGAL SEPARATOR CHARACTER
   6867					;	KLA -- KL ADDRESS ERROR
   6868					;	MRA -- MISSING REQUIRED ARGUMENT
   6869					;	SZI -- START AT ZERO ILLEGAL
   6870					;-
   6871
   6872						.MCALL	$DEF
   6873
   6874	013072					$DEF
STRTC -- START COMMAND DISPATCH	MACRO M1113  10-NOV-81 17:48  PAGE 175
.STRTT -- THE "START <TEN>" COMMAND 7710.11

   6876						.ENABL	LSB
   6877
   6878	013072				.JUMPC::
   6879	013072					CALL	10$		; START THE KL
	013072	004737 	013106'			 JSR	PC,10$
   6880	013076	000137 	000000G			JMP	.EXITP		; AND EXIT FROM THE PARSER
   6881						;
   6882	013102				.STRTT::
   6883	013102					CALL	.CKRNP		; SEE IF THE KL IS RUNNING
	013102	004737 	000000G			 JSR	PC,.CKRNP
   6884	013106				10$:
   6885	013106	005046 				CLR	-(SP)		; CLEAR ADDRESS BUFFER
   6886	013110	005046 				CLR	-(SP)		; .
   6887	013112	005046 				CLR	-(SP)		; ..
   6888	013114	010600 				MOV	SP,R0		; ...POINTER TO R0
   6889	013116					CALL	.GTKLA		; ...GET THE START ADDRESS
	013116	004737 	000000G			 JSR	PC,.GTKLA
   6890	013122					CALL	.TPTST		; ...SEE IF IT IS NON ZERO
	013122	004737 	000000G			 JSR	PC,.TPTST
   6891	013126	001424 				BEQ	STASZI		; ...CAN'T START KL AT 0
   6892	013130					CALL	.CKEOC		; ...CHECK FOR E-O-C
	013130	004737 	000000G			 JSR	PC,.CKEOC
   6893	013134	032737 	000002 	000000G		BIT	#LG.PRG,.FEMOD	; ...ARE WE AT LEAST IN PROGRAMMER MODE??
   6894	013142	001402 				BEQ	20$		; ...NO -- JUST GO ON
   6895	013144					CALL	.ABORT		; ...YES -- START THE KL BY ANY MEANS
	013144	004737 	000004'			 JSR	PC,.ABORT
   6896	013150				20$:
   6897	013150	010001 				MOV	R0,R1		; ...POINTER FOR THE CALL
   6898	013152					CALL	.KLST		; ...START THE KL
	013152	004737 	000000G			 JSR	PC,.KLST
   6899	013156	062706 	000006 			ADD	#^D6,SP		; ...CLEAR THE STACK
   6900	013162	005037 	000000G			CLR	.NOERR		; LET RSX20F RECOGNIZE KL ERRORS
   6901	013166	052737 	000000G	000002G		BIS	#EF.CRI,.COMEF+2 ; DECLARE THE COMM REGION INVALID
   6902	013174					CALLR	..DTP2		; START UP SECONDARY PROTOCOL AND EXIT.
	013174	000137 	000000G			 JMP	..DTP2
   6903						;
   6904	013200				STASZI:
   6905	013200					ERROR$	SZI		; ERROR -- START AT ZERO ILLEGAL
	013200	012746 	075331 			 MOV	#^RSZI,-(SP)
	013204	104400 				 TRAP	TC.ERR
   6906						;
   6907
   6908						.DSABL	LSB
STRTC -- START COMMAND DISPATCH	MACRO M1113  10-NOV-81 17:48  PAGE 176
.STRTU -- THE "START MICROCODE" COMMAND 7602.26

   6910					.SBTTL	.STRTU -- THE "START MICROCODE" COMMAND 7602.26
   6911
   6912					;+
   6913					; .STRTU -- THE "START MICROCODE" COMMAND.
   6914					;
   6915					; THIS ROUTINE STARTS THE KL MICROCODE AT THE ADDRESS SPECIFIED.
   6916					; IF NO ADDRESS IS SPECIFIED, 0000 IS ASSUMED.
   6917					;
   6918					; INPUT ARGUMENTS:
   6919					;
   6920					;	NONE.
   6921					;
   6922					; OUTPUT ARGUMENTS:
   6923					;
   6924					;	NONE.
   6925					;
   6926					; ERROR CODES RETURNED:
   6927					;
   6928					;	NONE.
   6929					;-
   6930
   6931	013206				.STRTU::
   6932	013206					CALL	.CKRUN		; SEE IF THE KL IS RUNNING
	013206	004737 	000000G			 JSR	PC,.CKRUN
   6933	013212	005000 				CLR	R0		; CLEAR R0 (FOR DEFAULT)
   6934	013214	111504 				MOVB	(R5),R4		; LOOK AT THE CURRENT CHARACTER
   6935	013216	132764 	000010 	000000G		BITB	#CH.EOC,.CHTAB(R4)
   6936	013224	001004 				BNE	10$		; DO DEFAULT START IF E-O-C
   6937	013226					CALL	.GTELN		; GO READ THE ADDRESS
	013226	004737 	000000G			 JSR	PC,.GTELN
   6938	013232					CALL	.CKEOC		; MUST HAVE E-O-C
	013232	004737 	000000G			 JSR	PC,.CKEOC
   6939	013236				10$:
   6940	013236	032737 	100000 	000000G		BIT	#KF.CLK,.KLFLG	; IS THE KL CLOCK ON?
   6941	013244	001402 				BEQ	20$		; NO -- JUST START THE MICROCODE
   6942	013246					CALL	.KLHLT		; YES -- STOP THE KL
	013246	004737 	000000G			 JSR	PC,.KLHLT
   6943	013252				20$:
   6944	013252					CALLR	.STUCD		; START THE KL MICROCODE AND RETURN
	013252	000137 	000000G			 JMP	.STUCD
   6945						;
SWCMD -- SET / CLEAR / WHAT COM	MACRO M1113  10-NOV-81 17:48  PAGE 177
.STRTU -- THE "START MICROCODE" COMMAND 7602.26

   6947					.TITLE	SWCMD -- SET / CLEAR / WHAT COMMAND MODULE 7702.16
   6948
   6949						.IDENT	"006250"
   6950
   6951					;                             COPYRIGHT (C) 1975, 1979 BY
   6952					;                     DIGITAL EQUIPMENT CORPORATION, MAYNARD MASS.
   6953					;
   6954					;       THIS SOFTWARE IS FURNISHED UNDER A LICENSE AND MAY BE  USED  AND  COPIED
   6955					;       ONLY IN ACCORDANCE WITH THE TERMS OF SUCH LICENSE AND WITH THE INCLUSION
   6956					;       OF THE ABOVE COPYRIGHT NOTICE.  THIS SOFTWARE OR ANY OTHER COPIES THERE-
   6957					;       OF  MAY NOT BE PROVIDED OR OTHERWISE MADE AVAILABLE TO ANY OTHER PERSON.
   6958					;       NO TITLE TO OR OWNERSHIP OF THE SOFTWARE IS HEREBY TRANSFERRED.
   6959					;
   6960					;       THE INFORMATION CONTAINED IN THIS SOFTWARE IS SUBJECT TO CHANGE  WITHOUT
   6961					;       NOTICE  AND SHOULD NOT BE CONSTRUED AS A COMMITMENT BY DIGITAL EQUIPMENT
   6962					;       CORPORATION.
   6963					;
   6964					;       DIGITAL ASSUMES NO RESPONSIBILITY FOR THE  USE  OR  RELIABILITY  OF  ITS
   6965					;       SOFTWARE ON EQUIPMENT WHICH IS NOT SUPPILED BY DIGITAL.
   6966					;
   6967					;		MODULE: SET / CLEAR COMMAND
   6968					;
   6969					;		VERSION: 06-25
   6970					;
   6971					;		AUTHOR: R. BELANGER
   6972					;
   6973					;		DATE: 7702.16
   6974					;
   6975					;	THIS MODULE CONTAINS:
   6976					;
   6977					;	1) SET / CLEAR CONSOLE COMMAND CODE
   6978					;
   6979					;	MODIFICATIONS:
   6980					;
   6981					;	NO.	DATE		PROGRAMMER	REASON
   6982					;	---	----		----------	------
   6983					;	001	28-FEB-77	R. BELANGER	CHANGE "ECL" ERROR TO "CLE"
   6984					;    [5.1011]	19-OCT-79	R. BELANGER	ADD "WHAT HARDWARE" COMMAND
   6985					;	002	11-MAR-80	S. LEAPLINE	ADD "SET/CLEAR/WHAT FAULT"
   6986					;	003	05-NOV-80	S. LEAPLINE	ADD "SET/CLEAR/WHAT AUTO-TAKE"
SWCMD -- SET / CLEAR / WHAT COM	MACRO M1113  10-NOV-81 17:48  PAGE 178
.SCCON -- THE " SET / CLEAR CONSOLE" COMMAND 7702.16

   6988					.SBTTL	.SCCON -- THE " SET / CLEAR CONSOLE" COMMAND 7702.16
   6989
   6990						.ENABL	LSB
   6991
   6992	013256				.SCCON::
   6993	013256	005737 	000000G			TST	.NOTSW		; IS THIS A CLEAR?
   6994	013262	001016 				BNE	10$		; YES -- SET OPERATOR
   6995	013264	132764 	000010 	000000G		BITB	#CH.EOC,.CHTAB(R4)
   6996	013272	001017 				BNE	.SCCOP		; E-O-C -- SET PROGRAMMER
   6997	013274					CALL	.CKOBJ		; MUST HAVE AN OBJECT
	013274	004737 	000000G			 JSR	PC,.CKOBJ
   6998	013300	012700 	000000G			MOV	#.SCCOT,R0	; TABLE POINTER TO R0
   6999	013304					CALL	.TSCAN		; SCAN THE TABLE
	013304	004737 	000000G			 JSR	PC,.TSCAN
   7000	013310					CALL	.CKEOC		; MUST HAVE E-O-C
	013310	004737 	000000G			 JSR	PC,.CKEOC
   7001	013314					CALLR	@2(R0)		; EXECUTE THE COMMAND
	013314	000170 	000002 			 JMP	@2(R0)
   7002						;
   7003	013320				10$:
   7004	013320					CALL	.CKEOC		; MUST HAVE E-O-C IF CLEAR
	013320	004737 	000000G			 JSR	PC,.CKEOC
   7005	013324				.SCCOO::
   7006	013324	012701 	000001 			MOV	#LG.OPR,R1	; OPERATOR CONSULE
   7007	013330	000405 				BR	20$		; EXIT
   7008						;
   7009	013332				.SCCOP::
   7010	013332	012701 	000003 			MOV	#LG.PRM,R1	; PROGRAMMER CONSOLE
   7011	013336	000402 				BR	20$		; EXIT
   7012						;
   7013	013340				.SCCOM::
   7014	013340	012701 	000007 			MOV	#LG.ALL,R1	; MAINTENANCE CONSOLE
   7015	013344				20$:
   7016	013344	105737 	000000G			TSTB	.KLNSW+0	; +++001 IS REMOTE KLINIK MODE ENABLED?
   7017	013350	003403 				BLE	30$		; +++001 NO -- GO ON
   7018	013352	120137 	000001G			CMPB	R1,.KLNMD+1	; +++001 YES -- CAN WE DO THIS?
   7019	013356	003005 				BGT	SCCCLE		; NO -- GIVE "CLE" ERROR
   7020	013360				30$:
   7021	013360	010137 	000000G			MOV	R1,.FEMOD	; YES -- SET THE CONSOLE MODE
   7022	013364	000405 				BR	.WHCON		; PRINT CONSOLE MODE AND EXIT
   7023						;
   7024	013366				.SCCOU::
   7025	013366					CALLR	.EXITP		; EXIT TO USER CONSOLE
	013366	000137 	000000G			 JMP	.EXITP
   7026						;
   7027	013372				SCCCLE:
   7028	013372					ERROR$	CLE		; ERROR -- CONSOLE LIMIT EXCEEDED
	013372	012746 	012245 			 MOV	#^RCLE,-(SP)
	013376	104400 				 TRAP	TC.ERR
   7029						;
   7030
   7031						.DSABL	LSB
SWCMD -- SET / CLEAR / WHAT COM	MACRO M1113  10-NOV-81 17:48  PAGE 179
.WHCON -- THE "WHAT CONSOLE" COMMAND 7607.14

   7033					.SBTTL	.WHCON -- THE "WHAT CONSOLE" COMMAND 7607.14
   7034
   7035	013400				.WHCON::
   7036	013400	012700 	003413'			MOV	#WCMMSG,R0	; MESSAGE POINTER TO R0
   7037	013404					CALL	.TYMSG		; PRINT IT
	013404	004737 	000000G			 JSR	PC,.TYMSG
   7038	013410	013701 	000000G			MOV	.FEMOD,R1	; MODE WORD TO R1
   7039	013414	012700 	000000G			MOV	#MNTMSG,R0	; MAINTENANCE
   7040	013420	032701 	000004 			BIT	#LG.MNT,R1	; IS IT ON?
   7041	013424	001007 				BNE	10$		; YES -- SAY SO
   7042	013426	012700 	000000G			MOV	#PRGMSG,R0	; NO -- PROGRAMMER?
   7043	013432	032701 	000002 			BIT	#LG.PRG,R1	; IS IT ON?
   7044	013436	001002 				BNE	10$		; YES -- SAY SO
   7045	013440	012700 	000000G			MOV	#OPRMSG,R0	; NO -- MUST BE OPERATOR
   7046	013444				10$:
   7047	013444					CALLR	.TYLIN		; YES -- PRINT AND EXIT
	013444	000137 	000000G			 JMP	.TYLIN
   7048						;
   7049
   7050	003413				.PSECT	MESSAG
   7051
   7052	003413				WCMMSG:
   7053	003413	   040 	   103 	   117 		.ASCIZ	% CONSOLE MODE: %
	003416	   116 	   123 	   117
	003421	   114 	   105 	   040
	003424	   115 	   117 	   104
	003427	   105 	   072 	   040
	003432	   000
   7054
   7055	013450				.PSECT
SWCMD -- SET / CLEAR / WHAT COM	MACRO M1113  10-NOV-81 17:48  PAGE 180
.SCINC -- THE "SET / CLEAR INCREMENT" COMMAND 7606.20

   7057					.SBTTL	.SCINC -- THE "SET / CLEAR INCREMENT" COMMAND 7606.20
   7058
   7059	013450				.SCINC::			; SET/CLEAR "INCREMENT"
   7060	013450	005737 	000000G			TST	.NOTSW		; IS THIS A CLEAR?
   7061	013454	001016 				BNE	10$		; YES -- JUST CLEAR IT
   7062	013456	005046 				CLR	-(SP)		; NO -- CLEAR A BUFFER ON THE STACK
   7063	013460	005046 				CLR	-(SP)		; .
   7064	013462	005046 				CLR	-(SP)		; ..
   7065	013464	010600 				MOV	SP,R0		; ...POINT TO THE BUFFER
   7066	013466					CALL	.GTNUM		; ...READ THE NUMBER
	013466	004737 	000000G			 JSR	PC,.GTNUM
   7067	013472					CALL	.CKEOC		; ...MUST HAVE E-O-C
	013472	004737 	000000G			 JSR	PC,.CKEOC
   7068	013476	012701 	000000G			MOV	#.KLINC,R1	; ...POINT TO THE INCREMENT
   7069	013502					POP	(R1)+		; ...LOAD THE NEW INCREMENT
	013502	012621 				 MOV	(SP)+,(R1)+
   7070	013504					POP	(R1)+		; ..
	013504	012621 				 MOV	(SP)+,(R1)+
   7071	013506					POP	(R1)		; .
	013506	012611 				 MOV	(SP)+,(R1)
   7072	013510	000406 				BR	20$		; AND EXIT
   7073						;
   7074	013512				10$:
   7075	013512					CALL	.CKEOC		; MUST HAVE E-O-C
	013512	004737 	000000G			 JSR	PC,.CKEOC
   7076	013516	012700 	000000G			MOV	#.KLINC,R0	; POINT TO THE  INCREMENT
   7077	013522					CALL	.TPCLR		; CLEAR IT
	013522	004737 	000000G			 JSR	PC,.TPCLR
   7078	013526				20$:
   7079					;	BR	.WHINC		; PRINT INCREMENT AND EXIT
   7080						;
SWCMD -- SET / CLEAR / WHAT COM	MACRO M1113  10-NOV-81 17:48  PAGE 181
.WHINC -- THE "WHAT INCREMENT" COMMAND 7703.25

   7082					.SBTTL	.WHINC -- THE "WHAT INCREMENT" COMMAND 7703.25
   7083
   7084						.ENABL	LSB
   7085
   7086	013526				.WHINC::
   7087	013526	012700 	003433'			MOV	#WHIMSG,R0	; MESSAGE POINTER TO R0
   7088	013532	012701 	000000G			MOV	#.KLINC,R1	; INREMENT POINTER
   7089	013536	000412 				BR	10$		; DO COMMON CODE
   7090						;
   7091	013540				.WHRPT::
   7092	013540	013737 	000000G	000000G		MOV	.ORADX,.RDXSV	; SAVE CURRENT OUTPUT RADIX
   7093	013546	012737 	000012 	000000G		MOV	#^D10,.ORADX	; SET IT TO DECIMAL
   7094	013554	012700 	003453'			MOV	#WHRMSG,R0	; MESSAGE POINTER TO R0
   7095	013560	012701 	000000G			MOV	#.RPTCT,R1	; REPEAT POINTER
   7096	013564				10$:
   7097	013564					CALL	.TYMSG		; PRINT THE MESSAGE
	013564	004737 	000000G			 JSR	PC,.TYMSG
   7098	013570	005037 	000000G			CLR	.LDZFL		; NO LEADING ZEROES
   7099	013574	010100 				MOV	R1,R0		; POINTER TO R0
   7100	013576					CALL	.TYKLN		; PRINT THE NUMBER
	013576	004737 	000000G			 JSR	PC,.TYKLN
   7101	013602	013737 	000000G	000000G		MOV	.RDXSV,.ORADX	; RESET THE OUTPUT RADIX
   7102	013610					CALLR	.TCRLF		; END THE LINE AND EXIT
	013610	000137 	000000G			 JMP	.TCRLF
   7103						;
   7104
   7105						.DSABL	LSB
   7106
   7107	003433				.PSECT	MESSAG
   7108
   7109	003433				WHIMSG:
   7110	003433	   040 	   113 	   114 		.ASCIZ	% KL INCREMENT: %
	003436	   040 	   111 	   116
	003441	   103 	   122 	   105
	003444	   115 	   105 	   116
	003447	   124 	   072 	   040
	003452	   000
   7111	003453				WHRMSG:
   7112	003453	   040 	   122 	   105 		.ASCIZ	% REPEAT COUNT: %
	003456	   120 	   105 	   101
	003461	   124 	   040 	   103
	003464	   117 	   125 	   116
	003467	   124 	   072 	   040
	003472	   000
   7113	013614				.PSECT
SWCMD -- SET / CLEAR / WHAT COM	MACRO M1113  10-NOV-81 17:48  PAGE 182
.SCMEM -- THE "SET / CLEAR MEMORY" COMMAND 7607.08

   7115					.SBTTL	.SCMEM -- THE "SET / CLEAR MEMORY" COMMAND 7607.08
   7116
   7117						.ENABL	LSB
   7118
   7119	013614				.SCMEM::			; SET / CLEAR "MEMORY"
   7120	013614	005737 	000000G			TST	.NOTSW		; IS THIS A CLEAR?
   7121	013620	001015 				BNE	10$		; YES -- GO DO THE CLEAR
   7122	013622					CALL	.CKOBJ		; NO -- MUST HAVE AN OBJECT
	013622	004737 	000000G			 JSR	PC,.CKOBJ
   7123	013626	012700 	000000G			MOV	#.SCMTB,R0	; TABLE POINTER TO R0
   7124	013632					CALL	.TSCAN		; SCAN IT
	013632	004737 	000000G			 JSR	PC,.TSCAN
   7125	013636					CALL	.CKEOC		; MUST BE E-O-C
	013636	004737 	000000G			 JSR	PC,.CKEOC
   7126	013642					CALLR	@2(R0)		; DISPATCH FOR OBJECT
	013642	000170 	000002 			 JMP	@2(R0)
   7127						;
   7128	013646				.SCMEL::			; SET MEMORY ELEVEN
   7129	013646	012700 	000002 			MOV	#^D2,R0		; ELEVEN OFFSET IS 2
   7130	013652	000403 				BR	20$		; DO COMMON STUFF
   7131	013654				10$:
   7132	013654					CALL	.CKEOC		; MUST HAVE E-O-C TO CLEAR
	013654	004737 	000000G			 JSR	PC,.CKEOC
   7133	013660				.SCMKL::
   7134	013660	005000 				CLR	R0		; TEN OFFSET IS 0
   7135	013662				20$:
   7136	013662	010037 	000000G			MOV	R0,.MEMFL	; SET THE FLAG
   7137					;	BR	.WHMEM		; AND EXIT
   7138						;
   7139
   7140						.DSABL	LSB
SWCMD -- SET / CLEAR / WHAT COM	MACRO M1113  10-NOV-81 17:48  PAGE 183
.WHMEM -- THE "WHAT MEMORY" COMMAND 7603.21

   7142					.SBTTL	.WHMEM -- THE "WHAT MEMORY" COMMAND 7603.21
   7143
   7144	013666				.WHMEM::
   7145	013666	012700 	003473'			MOV	#WHMMSG,R0	; MESSAGE POINTER TO R0
   7146	013672					CALL	.TYMSG		; TYPE IT
	013672	004737 	000000G			 JSR	PC,.TYMSG
   7147	013676	012700 	000000G			MOV	#TENMSG,R0	; ASSUME TEN
   7148	013702	005737 	000000G			TST	.MEMFL		; IS IT "TEN"
   7149	013706	001402 				BEQ	10$		; YES -- SAY SO
   7150	013710	012700 	000000G			MOV	#ELEMSG,R0	; NO -- SAY "ELEVEN"
   7151	013714				10$:
   7152	013714					CALLR	.TYLIN		; PRINT AND EXIT
	013714	000137 	000000G			 JMP	.TYLIN
   7153						;
   7154
   7155	003473				.PSECT	MESSAG
   7156
   7157	003473				WHMMSG:
   7158	003473	   040 	   115 	   105 		.ASCIZ	% MEMORY: %
	003476	   115 	   117 	   122
	003501	   131 	   072 	   040
	003504	   000
   7159
   7160	013720				.PSECT
SWCMD -- SET / CLEAR / WHAT COM	MACRO M1113  10-NOV-81 17:48  PAGE 184
.SCOFS -- THE "SET / CLEAR OFFSET" COMMAND 7602.19

   7162					.SBTTL	.SCOFS -- THE "SET / CLEAR OFFSET" COMMAND 7602.19
   7163
   7164	013720				.SCOFS::			; SET/CLEAR "OFFSET"
   7165	013720	012700 	000000G			MOV	#.APRWD,R0	; DEFAULT OFFSET
   7166	013724	005737 	000000G			TST	.NOTSW		; IS THIS A CLEAR?
   7167	013730	001002 				BNE	10$		; YES -- JUST EXIT
   7168	013732					CALL	.GTELN		; NO -- READ NEW OFFSET
	013732	004737 	000000G			 JSR	PC,.GTELN
   7169	013736				10$:
   7170	013736					CALL	.CKEOC		; MUST HAVE E-O-C
	013736	004737 	000000G			 JSR	PC,.CKEOC
   7171	013742	010037 	000000G			MOV	R0,.RELWD	; SET IT
   7172					;	BR	.WHOFS		; PRINT IT AND RETURN
   7173						;
SWCMD -- SET / CLEAR / WHAT COM	MACRO M1113  10-NOV-81 17:48  PAGE 185
.WHOFS -- THE "WHAT OFFSET" COMMAND 7603.20

   7175					.SBTTL	.WHOFS -- THE "WHAT OFFSET" COMMAND 7603.20
   7176
   7177	013746				.WHOFS::
   7178	013746	012700 	003505'			MOV	#WHOMSG,R0	; MESSAGE POINTER TO R0
   7179	013752					CALL	.TYMSG		; PRINT IT
	013752	004737 	000000G			 JSR	PC,.TYMSG
   7180	013756	013700 	000000G			MOV	.RELWD,R0	; OFFSET TO R0
   7181	013762					CALL	.TYELA		; PRINT IT
	013762	004737 	000000G			 JSR	PC,.TYELA
   7182	013766					CALLR	.TCRLF		; END THE LINE AND EXIT
	013766	000137 	000000G			 JMP	.TCRLF
   7183						;
   7184
   7185	003505				.PSECT	MESSAG
   7186
   7187	003505				WHOMSG:
   7188	003505	   040 	   120 	   104 		.ASCIZ	% PDP-11 OFFSET: %
	003510	   120 	   055 	   061
	003513	   061 	   040 	   117
	003516	   106 	   106 	   123
	003521	   105 	   124 	   072
	003524	   040 	   000
   7189	013772				.PSECT
SWCMD -- SET / CLEAR / WHAT COM	MACRO M1113  10-NOV-81 17:48  PAGE 186
.SCRLD -- THE "SET / CLEAR RELOAD" COMMAND 7602.19

   7191					.SBTTL	.SCRLD -- THE "SET / CLEAR RELOAD" COMMAND 7602.19
   7192
   7193	013772				.SCRLD::			; SET/CLEAR "RELOAD"
   7194	013772					CALL	.CKEOC		; MUST HAVE E-O-C
	013772	004737 	000000G			 JSR	PC,.CKEOC
   7195	013776	113737 	000000G	000000G		MOVB	.NOTSW,.KLRLD	; SET/CLEAR THE SWITCH
   7196	014004	000413 				BR	.WHRLD		; PRINT THE STATE AND EXIT
   7197						;
SWCMD -- SET / CLEAR / WHAT COM	MACRO M1113  10-NOV-81 17:48  PAGE 187
.SCRTY -- THE "SET / CLEAR RETRY" COMMAND 7-DEC-78

   7199					.SBTTL	.SCRTY -- THE "SET / CLEAR RETRY" COMMAND 7-DEC-78
   7200
   7201	014006				.SCRTY::			;[TCO 4.2107] SET/CLEAR "RETRY"
   7202	014006					CALL	.CKEOC		;[TCO 4.2107] MUST HAVE E-O-C
	014006	004737 	000000G			 JSR	PC,.CKEOC
   7203	014012	012701 	000001 			MOV	#1,R1		;[TCO 4.2107] DEFAULT IS SET
   7204	014016	005737 	000000G			TST	.NOTSW		;[TCO 4.2107] IS THIS A CLEAR
   7205	014022	001401 				BEQ	10$		;[TCO 4.2107] NO -- GO ON
   7206	014024	005001 				CLR	R1		;[TCO 4.2107] YES -- CLEAR FLAG
   7207	014026	010137 	000000G		10$:	MOV	R1,.KACFL	;[TCO 4.2107] SET/CLEAR FLAG
   7208	014032	000412 				BR	.WHRTY		;[TCO 4.2107] PRINT STATE AND EXIT
   7209						;
SWCMD -- SET / CLEAR / WHAT COM	MACRO M1113  10-NOV-81 17:48  PAGE 188
.WHRLD -- THE "WHAT RELOAD" COMMAND 7603.21

   7211					.SBTTL	.WHRLD -- THE "WHAT RELOAD" COMMAND 7603.21
   7212
   7213						.ENABL	LSB
   7214
   7215	014034				.WHRLD::
   7216	014034	012700 	003526'			MOV	#WRLMSG,R0	; MESSAGE POINTER TO R0
   7217	014040					CALL	.TYMSG		; PRINT IT
	014040	004737 	000000G			 JSR	PC,.TYMSG
   7218	014044	012700 	000000G			MOV	#OFFMSG,R0	; ASSUME "OFF"
   7219	014050	105737 	000000G			TSTB	.KLRLD		; IS IT OFF?
   7220	014054	001014 				BNE	20$		; YES -- GO ON
   7221	014056	000411 				BR	10$		; NO -- SAY SO
   7222						;
SWCMD -- SET / CLEAR / WHAT COM	MACRO M1113  10-NOV-81 17:48  PAGE 189
.WHRTY -- THE "WHAT RETRY" COMMAND 7-DEC-78

   7224					.SBTTL	.WHRTY -- THE "WHAT RETRY" COMMAND 7-DEC-78
   7225
   7226	014060				.WHRTY::			; [TCO 4.2107] WHAT RETRY COMMAND ENTRY
   7227	014060	012700 	003547'			MOV	#WRTMSG,R0	; [TCO 4.2107] MESSAGE POINTER
   7228	014064					CALL	.TYMSG		; [TCO 4.2107] PRINT IT
	014064	004737 	000000G			 JSR	PC,.TYMSG
   7229	014070	012700 	000000G			MOV	#OFFMSG,R0	; [TCO 4.2107] ASSUME OFF
   7230	014074	005737 	000000G			TST	.KACFL		; [TCO 4.2107] IS IT SET?
   7231	014100	001402 				BEQ	20$		; [TCO 4.2107] NO -- GO ON
   7232	014102				10$:
   7233	014102	012700 	000000G			MOV	#ONMSG,R0	; [TCO 4.2107] YES -- CHANGE MESSAGE
   7234	014106				20$:
   7235	014106					CALLR	.TYLIN		; [TCO 4.2107] PRINT AND EXIT
	014106	000137 	000000G			 JMP	.TYLIN
   7236						;
   7237
   7238						.DSABL	LSB
   7239
   7240	003526				.PSECT	MESSAG
   7241
   7242	003526				WRLMSG:
   7243	003526	   040 	   122 	   105 		.ASCIZ	% RELOAD ENABLE: %
	003531	   114 	   117 	   101
	003534	   104 	   040 	   105
	003537	   116 	   101 	   102
	003542	   114 	   105 	   072
	003545	   040 	   000
   7244	003547				WRTMSG:
   7245	003547	   040 	   122 	   105 		.ASCIZ	% RETRY ENABLE: %
	003552	   124 	   122 	   131
	003555	   040 	   105 	   116
	003560	   101 	   102 	   114
	003563	   105 	   072 	   040
	003566	   000
   7246	014112				.PSECT
SWCMD -- SET / CLEAR / WHAT COM	MACRO M1113  10-NOV-81 17:48  PAGE 190
.SCRPT -- THE "SET / CLEAR REPEAT" COMMAND 7703.25

   7248					.SBTTL	.SCRPT -- THE "SET / CLEAR REPEAT" COMMAND 7703.25
   7249
   7250	014112				.SCRPT::
   7251	014112	013737 	000000G	000000G		MOV	.IRADX,.RDXSV	; SAVE CURRENT INPUT RADIX
   7252	014120	012737 	000012 	000000G		MOV	#^D10,.IRADX	; SET IT TO DECIMAL
   7253	014126	005046 				CLR	-(SP)		; CLEAR A BUFFER ON THE STACK
   7254	014130	005046 				CLR	-(SP)		; .
   7255	014132	005046 				CLR	-(SP)		; ..
   7256	014134	010600 				MOV	SP,R0		; ...POINT TO THE BUFFER
   7257	014136	005737 	000000G			TST	.NOTSW		; ...IS THIS A CLEAR?
   7258	014142	001002 				BNE	10$		; ...YES -- DO THE CLEAR
   7259	014144					CALL	.GTKLN		; ...NO -- READ THE NEW REPEAT COUNT
	014144	004737 	000000G			 JSR	PC,.GTKLN
   7260	014150				10$:
   7261	014150					CALL	.CKEOC		; ...MUST HAVE E-O-C
	014150	004737 	000000G			 JSR	PC,.CKEOC
   7262	014154	012701 	000000G			MOV	#.RPTCT,R1	; ...POINT TO THE CURRENT REPEAT COUNT
   7263	014160					POP	<(R1)+,(R1)+,(R1)>
	014160	012621 				 MOV	(SP)+,(R1)+
	014162	012621 				 MOV	(SP)+,(R1)+
	014164	012611 				 MOV	(SP)+,(R1)
   7264	014166	013700 	000000G			MOV	.RPTPT,R0	; POINT TO THE STACKED REPEAT COUNT
   7265	014172					CALL	.TPCLR		; CLEAR IT OUT
	014172	004737 	000000G			 JSR	PC,.TPCLR
   7266	014176	013737 	000000G	000000G		MOV	.RDXSV,.IRADX	; RESET INPUT RADIX
   7267	014204					CALLR	.WHRPT		; PRINT THE NEW REPEAT COUNT AND EXIT
	014204	000137 	013540'			 JMP	.WHRPT
   7268						;
SWCMD -- SET / CLEAR / WHAT COM	MACRO M1113  10-NOV-81 17:48  PAGE 191
.SCTRK -- THE "SET / CLEAR TRACK" COMMAND 7602.19

   7270					.SBTTL	.SCTRK -- THE "SET / CLEAR TRACK" COMMAND 7602.19
   7271
   7272	014210				.SCTRK::			; SET/CLEAR "TRACK"
   7273	014210					CALL	.CKEOC		; MUST HAVE E-O-C
	014210	004737 	000000G			 JSR	PC,.CKEOC
   7274	014214	005001 				CLR	R1		; CLEAR R1
   7275	014216	005737 	000000G			TST	.NOTSW		; IS THIS A CLEAR?
   7276	014222	001001 				BNE	10$		; YES -- GO ON
   7277	014224	005101 				COM	R1		; NO -- INVERT THE SWITCH
   7278	014226				10$:
   7279	014226	010137 	000000G			MOV	R1,.TRKWD	; SET/CLEAR THE SWITCH
   7280					;	BR	.WHTRK		; PRINT STATE AND RETURN
   7281						;
SWCMD -- SET / CLEAR / WHAT COM	MACRO M1113  10-NOV-81 17:48  PAGE 192
.WHTRK -- THE "WHAT TRACKS" COMMAND 7603.20

   7283					.SBTTL	.WHTRK -- THE "WHAT TRACKS" COMMAND 7603.20
   7284
   7285						.ENABL	LSB
   7286
   7287	014232				.WHTRK::
   7288	014232	012700 	003567'			MOV	#WHTMSG,R0	; MESSAGE POINTER TO R0
   7289	014236					CALL	.TYMSG		; PRINT IT
	014236	004737 	000000G			 JSR	PC,.TYMSG
   7290	014242	012700 	000000G			MOV	#ONMSG,R0	; ASSUME "ON"
   7291	014246	005737 	000000G			TST	.TRKWD		; IS IT ON?
   7292	014252	001021 				BNE	10$		; YES -- GO ON
   7293	014254	012700 	000000G			MOV	#OFFMSG,R0	; NO -- SAY SO
   7294	014260	000416 				BR	10$		; PRINT AND EXIT
   7295						;
   7296
SWCMD -- SET / CLEAR / WHAT COM	MACRO M1113  10-NOV-81 17:48  PAGE 193
.WHATV -- THE "WHAT VERSION" COMMAND 7607.21

   7298					.SBTTL	.WHATV -- THE "WHAT VERSION" COMMAND 7607.21
   7299
   7300	014262				.WHATV::
   7301	014262	012700 	003607'			MOV	#WVMSG1,R0	; MESSAGE POINTER TO R0
   7302	014266					CALL	.TYMSG		; PRINT THAT
	014266	004737 	000000G			 JSR	PC,.TYMSG
   7303	014272	012700 	000000G			MOV	#CPVMSG,R0	; PARSER VERSION NUMBER
   7304	014276					CALL	.TYLIN		; PRINT IT
	014276	004737 	000000G			 JSR	PC,.TYLIN
   7305	014302	012700 	003631'			MOV	#WVMSG2,R0	; MESSAGE POINTER TO R0
   7306	014306					CALL	.TYMSG		; PRINT IT
	014306	004737 	000000G			 JSR	PC,.TYMSG
   7307	014312	012700 	000000G			MOV	#.VERNO,R0	; POINTER TO RSX20F ASCIZ VERSION NUMBER
   7308	014316				10$:
   7309	014316					CALLR	.TYLIN		; PRINT IT AND EXIT
	014316	000137 	000000G			 JMP	.TYLIN
   7310						;
   7311
   7312	003567				.PSECT	MESSAG
   7313
   7314	003567				WHTMSG:
   7315	003567	   040 	   124 	   122 		.ASCIZ	% TRACK ENABLE: %
	003572	   101 	   103 	   113
	003575	   040 	   105 	   116
	003600	   101 	   102 	   114
	003603	   105 	   072 	   040
	003606	   000
   7316	003607				WVMSG1:
   7317	003607	   040 	   120 	   101 		.ASCIZ	% PARSER VERSION: %
	003612	   122 	   123 	   105
	003615	   122 	   040 	   126
	003620	   105 	   122 	   123
	003623	   111 	   117 	   116
	003626	   072 	   040 	   000
   7318	003631				WVMSG2:
   7319	003631	   040 	   122 	   123 		.ASCIZ	% RSX20F VERSION: %
	003634	   130 	   062 	   060
	003637	   106 	   040 	   126
	003642	   105 	   122 	   123
	003645	   111 	   117 	   116
	003650	   072 	   040 	   000
   7320
   7321	014322				.PSECT
   7322
   7323						.DSABL	LSB
SWCMD -- SET / CLEAR / WHAT COM	MACRO M1113  10-NOV-81 17:48  PAGE 194
.WHRDW -- DISPLAY KL10 HARDWARE ENVIRONMENT 7910.18

   7325					.SBTTL	.WHRDW -- DISPLAY KL10 HARDWARE ENVIRONMENT 7910.18
   7326
   7327					;+
   7328					; .WHRDW -- DISPLAY KL10 HARDWARE ENVIRONMENT
   7329					;
   7330					; THIS SUBROUTINE WILL DISPLAY THE KL10 HARDWARE ENVIRONMENT DETERMINED
   7331					; FROM THE CONTENT OF ".CPUSN" AND ".HRDWR" IN THE FRONT-END STATUS BLOCK.
   7332					;
   7333					;	THIS ROUTINE WAS ADDED FOR TCO 5.1011
   7334					;
   7335					; INPUT ARGUMENTS:
   7336					;
   7337					;	NONE.
   7338					;
   7339					; OUTPUT ARGUMENTS:
   7340					;
   7341					;	NONE.
   7342					;
   7343					; ERROR CODES RETURNED:
   7344					;
   7345					;	CRH -- CAN'T READ HARDWARE OPTIONS
   7346					;	MRH -- HARDWARE OPTIONS MUST YET BE READ
   7347					;-
   7348
   7349	014322				.WHRDW::
   7350	014322	005737 	000000G			TST	.CPUSN		; DO WE HAVE THE HARDWARE OPTIONS??
   7351	014326	001474 				BEQ	WHRMRH		; NO -- MUST BE READ BY KLINIT
   7352	014330	002476 				BLT	WHRCRH		; NO -- CAN'T BE READ
   7353	014332	012700 	003653'			MOV	#WHHMS0,R0	; YES -- SET UP PREAMBLE
   7354	014336					CALL	.TYMSG		; PRINT IT
	014336	004737 	000000G			 JSR	PC,.TYMSG
   7355	014342	013700 	000000G			MOV	.CPUSN,R0	; GET THE SERIAL NUMBER
   7356	014346					PUSH	.ORADX		; SAVE CURRENT RADIX
	014346	013746 	000000G			 MOV	.ORADX,-(SP)
   7357	014352	012737 	000012 	000000G		MOV	#^D10,.ORADX	; .SET RADIX TO DECIMAL
   7358	014360					CALL	.TYELN		; .PRINT IT
	014360	004737 	000000G			 JSR	PC,.TYELN
   7359	014364	012700 	003667'			MOV	#WHHMS1,R0	; .MODEL PREAMBLE TO R0
   7360	014370					CALL	.TYMSG		; .PRINT IT
	014370	004737 	000000G			 JSR	PC,.TYMSG
   7361	014374	012700 	000101 			MOV	#'A,R0		; .ASSUME A MODEL "A"
   7362	014400	032737 	000000G	000000G		BIT	#H.KEXT,.HRDWR	; .IS IT A MODEL "A"??
   7363	014406	001401 				BEQ	10$		; .YES -- GO ON
   7364	014410	005200 				INC	R0		; .NO -- SET IT TO "B"
   7365	014412				10$:
   7366	014412					CALL	.TYCHR		; .AND PRINT IT
	014412	004737 	000000G			 JSR	PC,.TYCHR
   7367	014416					CALL	.TYCOM		; .PRINT COMMA
	014416	004737 	000000G			 JSR	PC,.TYCOM
   7368	014422					CALL	.TYSPC		; .AND A SPACE
	014422	004737 	000000G			 JSR	PC,.TYSPC
   7369	014426	012700 	000074 			MOV	#^D60,R0	; .ASSUME 60 HERTZ
   7370	014432	032737 	000000G	000000G		BIT	#H.KPWR,.HRDWR	; .IS IT 60 HERTZ??
   7371	014440	001402 				BEQ	20$		; .YES -- GO ON
   7372	014442	162700 	000012 			SUB	#^D10,R0	; .NO -- MAKE IT 50
   7373	014446				20$:
   7374	014446					CALL	.TYELN		; .PRINT POWER FREQUENCY
SWCMD -- SET / CLEAR / WHAT COM	MACRO M1113  10-NOV-81 17:48  PAGE 194-1
.WHRDW -- DISPLAY KL10 HARDWARE ENVIRONMENT 7910.18

	014446	004737 	000000G			 JSR	PC,.TYELN
   7375	014452					POP	.ORADX		; RESTORE RADIX
	014452	012637 	000000G			 MOV	(SP)+,.ORADX
   7376	014456	012700 	003701'			MOV	#WHHMS2,R0	; END OF LINE
   7377	014462					CALL	.TYLIN		; PRINT THE LINE
	014462	004737 	000000G			 JSR	PC,.TYLIN
   7378	014466	012702 	000004 			MOV	#4,R2		; ITERATION COUNT TO R2
   7379	014472	012703 	001030'			MOV	#WHWTAB,R3	; TABLE POINTER TO R3
   7380	014476				30$:
   7381	014476	012300 				MOV	(R3)+,R0	; MESSAGE POINTER TO R0
   7382	014500	032337 	000000G			BIT	(R3)+,.HRDWR	; IS THE OPTION PRESENT??
   7383	014504	001402 				BEQ	40$		; NO -- GO ON
   7384	014506					CALL	.TYLIN		; YES -- SAY SO
	014506	004737 	000000G			 JSR	PC,.TYLIN
   7385	014512				40$:
   7386	014512	077207 				SOB	R2,30$		; LOOP THROUGH ALL OPTIONS
   7387	014514					CALLR	.TCRLF		; END THE LINE AND EXIT
	014514	000137 	000000G			 JMP	.TCRLF
   7388						;
   7389	014520				WHRMRH:
   7390	014520					ERROR$	MRH		; MUST READ HARDWARE
	014520	012746 	052030 			 MOV	#^RMRH,-(SP)
	014524	104400 				 TRAP	TC.ERR
   7391						;
   7392	014526				WHRCRH:
   7393	014526					ERROR$	CRH		; CAN'T READ HARDWARE
	014526	012746 	012630 			 MOV	#^RCRH,-(SP)
	014532	104400 				 TRAP	TC.ERR
   7394						;
   7395
   7396	001030					.PSECT	DATA
   7397
   7398	001030				WHWTAB:
   7399	001030	003711'	000000G			.WORD	WHHMS3,H.KMOS
   7400	001034	003740'	000000G			.WORD	WHHMS4,H.KEXT
   7401	001040	003765'	000000G			.WORD	WHHMS5,H.KCHN
   7402	001044	004010'	000000G			.WORD	WHHMS6,H.KCAC
   7403
   7404	003653					.PSECT	MESSAG
   7405
   7406	003653				WHHMS0:
   7407	003653	   040 	   113 	   114 		.ASCIZ	% KL10 S/N: %
	003656	   061 	   060 	   040
	003661	   123 	   057 	   116
	003664	   072 	   040 	   000
   7408	003667				WHHMS1:
   7409	003667	   056 	   054 	   040 		.ASCIZ	%., MODEL %
	003672	   115 	   117 	   104
	003675	   105 	   114 	   040
	003700	   000
   7410	003701				WHHMS2:
   7411	003701	   056 	   040 	   110 		.ASCIZ	%. HERTZ%
	003704	   105 	   122 	   124
	003707	   132 	   000
   7412	003711				WHHMS3:
   7413	003711	   011 	   115 	   117 		.ASCIZ	%	MOS MASTER OSCILLATOR%
	003714	   123 	   040 	   115
SWCMD -- SET / CLEAR / WHAT COM	MACRO M1113  10-NOV-81 17:48  PAGE 194-2
.WHRDW -- DISPLAY KL10 HARDWARE ENVIRONMENT 7910.18

	003717	   101 	   123 	   124
	003722	   105 	   122 	   040
	003725	   117 	   123 	   103
	003730	   111 	   114 	   114
	003733	   101 	   124 	   117
	003736	   122 	   000
   7414	003740				WHHMS4:
   7415	003740	   011 	   105 	   130 		.ASCIZ	%	EXTENDED ADDRESSING%
	003743	   124 	   105 	   116
	003746	   104 	   105 	   104
	003751	   040 	   101 	   104
	003754	   104 	   122 	   105
	003757	   123 	   123 	   111
	003762	   116 	   107 	   000
   7416	003765				WHHMS5:
   7417	003765	   011 	   111 	   116 		.ASCIZ	%	INTERNAL CHANNELS%
	003770	   124 	   105 	   122
	003773	   116 	   101 	   114
	003776	   040 	   103 	   110
	004001	   101 	   116 	   116
	004004	   105 	   114 	   123
	004007	   000
   7418	004010				WHHMS6:
   7419	004010	   011 	   103 	   101 		.ASCIZ	%	CACHE%
	004013	   103 	   110 	   105
	004016	   000
   7420
   7421	014534					.PSECT
SWCMD -- SET / CLEAR / WHAT COM	MACRO M1113  10-NOV-81 17:48  PAGE 195
.SFREC -- SET/CLEAR FAULT COMMAND

   7423						.SBTTL	.SFREC -- SET/CLEAR FAULT COMMAND
   7424
   7425						.ENABL	LSB
   7426
   7427	014534				.SFREC::
   7428	014534					CALL	.CKEOC			;MUST HAVE E-O-C
	014534	004737 	000000G			 JSR	PC,.CKEOC
   7429	014540	113737 	000000G	000000G		MOVB	.NOTSW,.KLFCF		;SET/CLEAR THE FLAG
   7430	014546	000402 				BR	20$
   7431						;
SWCMD -- SET / CLEAR / WHAT COM	MACRO M1113  10-NOV-81 17:48  PAGE 196
WHAT FAULT CONTINUATION COMMAND

   7433						.SBTTL	WHAT FAULT CONTINUATION COMMAND
   7434
   7435	014550				.WHREC::
   7436	014550					CALL	.CKEOC			;MUST HAVE E-O-C
	014550	004737 	000000G			 JSR	PC,.CKEOC
   7437	014554				20$:
   7438	014554	012700 	004017'			MOV	#WHRECM,R0		;FAULT-CONTINUATION MESSAGE
   7439	014560					CALL	.TYMSG			;TYPE IT
	014560	004737 	000000G			 JSR	PC,.TYMSG
   7440	014564	012700 	000000G			MOV	#ONMSG,R0		;ASSUME IT'S ON
   7441	014570	105737 	000000G			TSTB	.KLFCF			;.KLCON = 0 = ON
   7442	014574	001402 				BEQ	10$			;BIT IS OFF, F-C IS ON
   7443	014576	012700 	000000G			MOV	#OFFMSG,R0		;BIT IS ON, F-C IS OFF
   7444	014602				10$:
   7445	014602					CALLR	.TYLIN			;TYPE IT AND EXIT
	014602	000137 	000000G			 JMP	.TYLIN
   7446						;
   7447						.DSABL	LSB
   7448	004017					.PSECT	MESSAG
   7449
   7450	004017				WHRECM:
   7451	004017	   106 	   101 	   125 		.ASCIZ	%FAULT-CONTINUATION: %
	004022	   114 	   124 	   055
	004025	   103 	   117 	   116
	004030	   124 	   111 	   116
	004033	   125 	   101 	   124
	004036	   111 	   117 	   116
	004041	   072 	   040 	   000
   7452
   7453	014606					.PSECT
SWCMD -- SET / CLEAR / WHAT COM	MACRO M1113  10-NOV-81 17:48  PAGE 197
.SCTAK -- THE "SET/CLEAR AUTO-TAKE" COMMAND

   7455						.SBTTL	.SCTAK -- THE "SET/CLEAR AUTO-TAKE" COMMAND
   7456
   7457					;+
   7458					; THIS SECTION CONTAINS THE SET AND CLEAR OF THE AUTO-TAKE FLAG FOR
   7459					; PARSER.CMD. THE DEFAULT FOR THIS FLAG IS OFF.
   7460					;-
   7461
   7462						.ENABL	LSB
   7463
   7464	014606				.SCTAK::
   7465	014606					CALL	.CKEOC		; GET END OF COMMAND
	014606	004737 	000000G			 JSR	PC,.CKEOC
   7466	014612	113737 	000000G	000000G		MOVB	.NOTSW,.ATOTAK	; SET/CLEAR THE FLAG
   7467	014620	000402 				BR	10$		; PRINT THE STATUS OF THE FLAG
SWCMD -- SET / CLEAR / WHAT COM	MACRO M1113  10-NOV-81 17:48  PAGE 198
.WHTAK -- THE "WHAT AUTO-TAKE" COMMAND

   7469						.SBTTL	.WHTAK -- THE "WHAT AUTO-TAKE" COMMAND
   7470
   7471	014622				.WHTAK::
   7472	014622					CALL	.CKEOC		;GET EOC
	014622	004737 	000000G			 JSR	PC,.CKEOC
   7473	014626				10$:
   7474	014626	012700 	004044'			MOV	#ATOMSG,R0	;AUTO-TAKE TEXT
   7475	014632					CALL	.TYMSG		; TYPE IT
	014632	004737 	000000G			 JSR	PC,.TYMSG
   7476	014636	012700 	000000G			MOV	#ONMSG,R0	; ASSUME ON
   7477	014642	105737 	000000G			TSTB	.ATOTAK		; IS IT
   7478	014646	001402 				BEQ	20$		; BRANCH IF YES
   7479	014650	012700 	000000G			MOV	#OFFMSG,R0	; PRINT OFF MESSAGE
   7480	014654				20$:
   7481	014654					CALLR	.TYLIN		; PRINT AND EXIT
	014654	000137 	000000G			 JMP	.TYLIN
   7482						;
   7483						.DSABL	LSB
   7484	004044					.PSECT	MESSAG
   7485
   7486	004044				ATOMSG:
   7487	004044	   101 	   125 	   124 		.ASCIZ	%AUTO-TAKE: %
	004047	   117 	   055 	   124
	004052	   101 	   113 	   105
	004055	   072 	   040 	   000
   7488	014660					.PSECT
   7489
   7490					.TITLE	SWCPC -- SET / CLEAR CLOCK AND PARITY MODULE 7608.19
   7491
   7492						.IDENT	"005000"
   7493
   7494					;
   7495					;                             COPYRIGHT (C) 1975, 1979 BY
   7496					;                     DIGITAL EQUIPMENT CORPORATION, MAYNARD MASS.
   7497					;
   7498					;       THIS SOFTWARE IS FURNISHED UNDER A LICENSE AND MAY BE  USED  AND  COPIED
   7499					;       ONLY IN ACCORDANCE WITH THE TERMS OF SUCH LICENSE AND WITH THE INCLUSION
   7500					;       OF THE ABOVE COPYRIGHT NOTICE.  THIS SOFTWARE OR ANY OTHER COPIES THERE-
   7501					;       OF  MAY NOT BE PROVIDED OR OTHERWISE MADE AVAILABLE TO ANY OTHER PERSON.
   7502					;       NO TITLE TO OR OWNERSHIP OF THE SOFTWARE IS HEREBY TRANSFERRED.
   7503					;
   7504					;       THE INFORMATION CONTAINED IN THIS SOFTWARE IS SUBJECT TO CHANGE  WITHOUT
   7505					;       NOTICE  AND SHOULD NOT BE CONSTRUED AS A COMMITMENT BY DIGITAL EQUIPMENT
   7506					;       CORPORATION.
   7507					;
   7508					;       DIGITAL ASSUMES NO RESPONSIBILITY FOR THE  USE  OR  RELIABILITY  OF  ITS
   7509					;       SOFTWARE ON EQUIPMENT WHICH IS NOT SUPPILED BY DIGITAL.
   7510					;
   7511					;		MODULE: SET / CLEAR CLOCK AND PARITY
   7512					;
   7513					;		VERSION: 05-00
   7514					;
   7515					;		AUTHOR: R. BELANGER
   7516					;
   7517					;		DATE: 7608.19
   7518					;
   7519					;	THIS MODULE CONTAINS:
SWCPC -- SET / CLEAR CLOCK AND 	MACRO M1113  10-NOV-81 17:48  PAGE 198-1
.WHTAK -- THE "WHAT AUTO-TAKE" COMMAND

   7520					;
   7521					;	1) SET / CLEAR CLOCK DISPATCH CODE
   7522					;
   7523					;	MODIFIED BY A. PECKHAM 7612.10 TO DELETE REFERENCES TO .SECFL
SWCPC -- SET / CLEAR CLOCK AND 	MACRO M1113  10-NOV-81 17:48  PAGE 199
.SCCLK -- THE "SET / CLEAR CLOCK" COMMAND DISPATCH 7608.19

   7525					.SBTTL	.SCCLK -- THE "SET / CLEAR CLOCK" COMMAND DISPATCH 7608.19
   7526
   7527					;+
   7528					; .SCCLK -- THE "SET / CLEAR CLOCK" COMMAND DISPATCH.
   7529					; .SCFSS -- THE "SET / CLEAR FS-STOP" COMMAND DISPATCH.
   7530					; .SCPAR -- THE "SET / CLEAR PARITY-STOP" COMMAND DISPATCH.
   7531					;
   7532					; THESE SUBROUTINES WILL SET OR CLEAR THE SPECIFIED KL INTERNAL
   7533					; PARITY STOP ENABLE AS DIRECTED BY THE INPUT STREAM.
   7534					;
   7535					; INPUT ARGUMENTS:
   7536					;
   7537					;	THE CURRENT PARITY STOP ENABLES ARE IN ".PSCWD"
   7538					;	THE CURRENT CLOCK PARAMETERS ARE IN ".CLKWD"
   7539					;
   7540					; OUTPUT ARGUMENTS:
   7541					;
   7542					;	THE NEW PARITY STOP ENABLES ARE IN ".PSCWD".
   7543					;	THE NEW CLOCK PARAMETERS ARE IN ".CLKWD"
   7544					;
   7545					; ERROR CODES RETURNED:
   7546					;
   7547					;	ILS -- ILLEGAL SEPARATOR CHARACTER.
   7548					;-
   7549
   7550						.ENABL	LSB
   7551
   7552	014660				.SCCLK::			; SET / CLEAR "CLOCK"
   7553	014660					CALL	.CKARG		; MUST HAVE AN ARGUMENT
	014660	004737 	000000G			 JSR	PC,.CKARG
   7554	014664	012703 	001050'			MOV	#SCCLKT,R3	; TABLE POINTER TO R3
   7555	014670	000415 				BR	10$		; DO COMMON CODE
   7556						;
   7557	014672				.SCFSS::			; SET / CLEAR "FS-STOP"
   7558	014672					CALL	.CKEOC		; MUST BE E-O-C
	014672	004737 	000000G			 JSR	PC,.CKEOC
   7559	014676	012703 	001062'			MOV	#SCPART,R3	; TABLE POINTER TO R3
   7560	014702					CALL	40$		; READ THE CURRENT PARAMETERS
	014702	004737 	015034'			 JSR	PC,40$
   7561	014706					CALL	.SCPFS		; SET THE CONTROL WORD UP
	014706	004737 	015322'			 JSR	PC,.SCPFS
   7562	014712	000425 				BR	20$		; AND GO SET IT
   7563						;
   7564	014714				.SCPST::			; SET / CLEAR "PARITY-STOP"
   7565	014714					CALL	.CKARG		; MUST HAVE AN ARGUMENT
	014714	004737 	000000G			 JSR	PC,.CKARG
   7566	014720	012703 	001062'			MOV	#SCPART,R3	; TABLE POINTER TO R3
   7567					;	BR	10$		; DO COMMON CODE
   7568						;
   7569
   7570					;	[CONTINUED ON THE FOLLOWING PAGE]
SWCPC -- SET / CLEAR CLOCK AND 	MACRO M1113  10-NOV-81 17:48  PAGE 200
.SCCLK -- THE "SET / CLEAR CLOCK" COMMAND DISPATCH 7608.19

   7572					;	[CONTINUED FROM THE PREVIOUS PAGE]
   7573
   7574	014724				10$:
   7575	014724					CALL	40$		; READ THE CURRENT PARAMETERS
	014724	004737 	015034'			 JSR	PC,40$
   7576	014730	011300 				MOV	(R3),R0		; TABLE POINTER TO R0
   7577	014732					CALL	.TSCAN		; SCAN THE TABLE
	014732	004737 	000000G			 JSR	PC,.TSCAN
   7578	014736					CALL	@2(R0)		; DO WHAT IT SAYS TO
	014736	004770 	000002 			 JSR	PC,@2(R0)
   7579	014742	111504 				MOVB	(R5),R4		; GET THE LAST CHARACTER INTO R4
   7580	014744	132764 	000010 	000000G		BITB	#CH.EOC,.CHTAB(R4)
   7581	014752	001005 				BNE	20$		; E-O-C -- GO SET PARITY STOPS
   7582	014754	122704 	000054 			CMPB	#.COMMA,R4	; NOT E-O-C -- IS IT A <COMMA>?
   7583	014760	001037 				BNE	SCPILS		; NO -- GIVE "ILS" ERROR
   7584	014762	105725 				TSTB	(R5)+		; YES -- GET OVER THE COMMA
   7585	014764	000757 				BR	10$		; AND GO ON
   7586						;
   7587	014766				20$:
   7588	014766	005723 				TST	(R3)+		; ADVANCE THE POINTER
   7589	014770					PUSH	R1		; SAVE NEW CONTROL WORD
	014770	010146 				 MOV	R1,-(SP)
   7590	014772	010601 				MOV	SP,R1		; .POINT TO THE ENABLE WORD
   7591	014774					PUSH	.KLFLG		; .SAVE ".KLFLG"
	014774	013746 	000000G			 MOV	.KLFLG,-(SP)
   7592	015000					CALL	.KLHLT		; ..STOP THE KL
	015000	004737 	000000G			 JSR	PC,.KLHLT
   7593	015004					CALL	@(R3)+		; ..LOAD THE PARAMETERS
	015004	004733 				 JSR	PC,@(R3)+
   7594	015006					POP	.SVKLF		; ..SET UP ".SVKLF"
	015006	012637 	000000G			 MOV	(SP)+,.SVKLF
   7595	015012					CALL	.RDCPP		; .READ BACK WHAT WE WROTE
	015012	004737 	000000G			 JSR	PC,.RDCPP
   7596	015016	023326 				CMP	@(R3)+,(SP)+	; .DID WE READ WHAT WE WROTE
   7597	015020	001401 				BEQ	30$		; YES -- GO ON
   7598	015022					CALLR	@(R3)+		; NO -- GIVE THE PROPER ERROR
	015022	000133 				 JMP	@(R3)+
   7599						;
   7600	015024				30$:
   7601	015024	005723 				TST	(R3)+		; GET OVER THE ERROR POINTER
   7602	015026					CALL	.KLRST		; RESTART THE KL
	015026	004737 	000000G			 JSR	PC,.KLRST
   7603	015032					CALLR	@(R3)+		; DISPLAY CURRENT PARAMETERS AND EXIT
	015032	000133 				 JMP	@(R3)+
   7604						;
   7605
   7606					;	[CONTINUED ON THE FOLLOWING PAGE]
SWCPC -- SET / CLEAR CLOCK AND 	MACRO M1113  10-NOV-81 17:48  PAGE 201
.SCCLK -- THE "SET / CLEAR CLOCK" COMMAND DISPATCH 7608.19

   7608					;	[CONTINUED FROM THE PREVIOUS PAGE]
   7609
   7610	015034				40$:
   7611	015034					CALL	.CKRUN		; INSURE WE CAN DO THIS
	015034	004737 	000000G			 JSR	PC,.CKRUN
   7612	015040					CALL	.STPKL		; STOP THE KL10
	015040	004737 	000000G			 JSR	PC,.STPKL
   7613	015044					CALL	.RDCPP		; READ CLOCK AND PARITY
	015044	004737 	000000G			 JSR	PC,.RDCPP
   7614	015050	017301 	000004 			MOV	@4(R3),R1	; DESIRED CONTROL WORD TO R1
   7615	015054					CALLR	.RSTKL		; RESTART THE KL AND EXIT
	015054	000137 	000000G			 JMP	.RSTKL
   7616						;
   7617
   7618						.DSABL	LSB
   7619
   7620	015060				SCPILS:
   7621	015060					ERROR$	ILS		; ERROR -- ILLEGAL SEPARATOR CHARACTER
	015060	012746 	035063 			 MOV	#^RILS,-(SP)
	015064	104400 				 TRAP	TC.ERR
   7622						;
   7623	015066				SCPSCF:
   7624	015066					ERROR$	SCF		; ERROR -- SET CLOCK FAILED
	015066	012746 	073476 			 MOV	#^RSCF,-(SP)
	015072	104400 				 TRAP	TC.ERR
   7625						;
   7626	015074				SCPSPF:
   7627	015074					ERROR$	SPF		; ERROR -- SET PARITY FAILED
	015074	012746 	074506 			 MOV	#^RSPF,-(SP)
	015100	104400 				 TRAP	TC.ERR
   7628						;
   7629
   7630	001050				.PSECT	DATA
   7631
   7632	001050				SCCLKT:
   7633	001050	000000G				.WORD	.SCCTB		; TABLE TO SCAN
   7634	001052	000000G				.WORD	.LDCLK		; LOAD ROUTINE
   7635	001054	000000G				.WORD	.CLKWD		; PARAMETER WORD
   7636	001056	015066'				.WORD	SCPSCF		; ERROR ROUTINE
   7637	001060	015364'				.WORD	.WHTCA		; DISPLAY ROUTINE
   7638	001062				SCPART:
   7639	001062	000000G				.WORD	.SCPTB		; TABLE TO SCAN
   7640	001064	000000G				.WORD	.LDPAR		; LOAD ROUTINE
   7641	001066	000000G				.WORD	.PSCWD		; PARAMETER WORD
   7642	001070	015074'				.WORD	SCPSPF		; ERROR ROUTINE
   7643	001072	015566'				.WORD	.WHTPA		; DISPLAY ROUTINE
   7644
   7645	015102				.PSECT
SWCPC -- SET / CLEAR CLOCK AND 	MACRO M1113  10-NOV-81 17:48  PAGE 202
.SCCRF -- SET / CLEAR "CLOCK <OBJECT>" 7603.09

   7647					.SBTTL	.SCCRF -- SET / CLEAR "CLOCK <OBJECT>" 7603.09
   7648
   7649						.ENABL	LSB
   7650
   7651	015102				.SCCLN::			; SET / CLEAR CLOCK "NORMAL"
   7652	015102	005001 				CLR	R1		; CLEAR THE PARAMETER WORD
   7653	015104				.SCCRF::			; SET / CLEAR CLOCK "FULL"
   7654	015104	005002 				CLR	R2		; "FULL" CLOCK RATE
   7655	015106	000410 				BR	10$		; DO COMMON CODE
   7656						;
   7657	015110				.SCCRH::			; SET / CLEAR CLOCK "HALF"
   7658	015110	012702 	000001 			MOV	#CR.HLF,R2	; "HALF" CLOCK RATE
   7659	015114	000405 				BR	10$		; DO COMMON CODE
   7660						;
   7661	015116				.SCCRQ::			; SET / CLEAR CLOCK "QUARTER"
   7662	015116	012702 	000002 			MOV	#CR.QTR,R2	; "QUARTER" CLOCK RATE
   7663	015122	000402 				BR	10$		; DO COMMON CODE
   7664						;
   7665	015124				.SCCRS::			; SET / CLEAR CLOCK "SLOW"
   7666	015124	012702 	000003 			MOV	#CR.SLO,R2	; "SLOW" CLOCK RATE
   7667	015130				10$:
   7668	015130	042701 	000003 			BIC	#CR.ALL,R1	; CLEAR OUT THE OLD CLOCK RATE
   7669	015134	000422 				BR	40$		; AND GO DO CLEAR CHECK
   7670						;
   7671	015136				.SCCSE::			; SET / CLEAR CLOCK "EXTERNAL"
   7672	015136	012700 	004060'			MOV	#CCEMSG,R0	; ASK "ARE YOU SURE"
   7673	015142					CALL	.TYMSG		; PRINT IT
	015142	004737 	000000G			 JSR	PC,.TYMSG
   7674	015146					CALL	.YESNO		; ASK "YES OR NO"
	015146	004737 	015726'			 JSR	PC,.YESNO
   7675	015152	103403 				BCS	20$		; SAID "NO" IF CC-C IS SET
   7676	015154	012702 	000010 			MOV	#CS.EXT,R2	; "EXTERNAL" CLOCK SOURCE
   7677	015160	000406 				BR	30$		; DO COMMNON CODE
   7678						;
   7679	015162				20$:
   7680	015162	000177 	000000G			JMP	@.STRTV		; RESTART THE PARSER
   7681						;
   7682	015166				.SCCSI::			; SET / CLEAR CLOCK "INTERNAL"
   7683	015166	005002 				CLR	R2		; "INTERNAL" CLOCK SOURCE
   7684	015170	000402 				BR	30$		; DO COMMON CODE
   7685						;
   7686	015172				.SCCSM::			; SET / CLEAR CLOCK "MARGIN"
   7687	015172	012702 	000004 			MOV	#CS.MGN,R2	; "MARGIN" CLOCK SOURCE
   7688	015176				30$:
   7689	015176	042701 	000014 			BIC	#CS.ALL,R1	; CLEAR OUT THE OLD CLOCK SOURCE
   7690	015202				40$:
   7691	015202	005737 	000000G			TST	.NOTSW		; IS THIS A CLEAR?
   7692	015206	001002 				BNE	50$		; YES -- JUST EXIT
   7693	015210	050201 				BIS	R2,R1		; NO -- SET THE NEW CLOCK PARAMETERS
   7694	015212	000401 				BR	60$		; AND EXIT
   7695						;
   7696	015214				50$:
   7697	015214	040201 				BIC	R2,R1		; CLEAR THE NEW CLOCK PARAMETERS
   7698	015216				60$:
   7699	015216					RETURN			; EXIT
	015216	000207 				 RTS	PC
   7700
SWCPC -- SET / CLEAR CLOCK AND 	MACRO M1113  10-NOV-81 17:48  PAGE 202-1
.SCCRF -- SET / CLEAR "CLOCK <OBJECT>" 7603.09

   7701						.DSABL	LSB
SWCPC -- SET / CLEAR CLOCK AND 	MACRO M1113  10-NOV-81 17:48  PAGE 203
.SCCRF -- SET / CLEAR "CLOCK <OBJECT>" 7603.09

   7703						.ENABL	LSB
   7704
   7705	015220				.SCCEC::			; SET / CLEAR CLOCK "CRAM"
   7706	015220	012702 	002000 			MOV	#CD.CRC,R2	; "CRAM" CLOCK ENABLE
   7707	015224	000405 				BR	10$		; DO COMMON CODE
   7708						;
   7709	015226				.SCCED::			; SET / CLEAR CLOCK "DATA-PATH"
   7710	015226	012702 	001000 			MOV	#CD.DPC,R2	; "DATA-PATH" CLOCK ENABLE
   7711	015232	000402 				BR	10$		; DO COMMON CODE
   7712						;
   7713	015234				.SCCEE::			; SET / CLEAR CLOCK "CONTROL"
   7714	015234	012702 	000400 			MOV	#CD.CLC,R2	; "CONTROL" CLOCK ENABLE
   7715	015240				10$:
   7716	015240	005737 	000000G			TST	.NOTSW		; IS THIS A CLEAR?
   7717	015244	001402 				BEQ	20$		; NO -- SET THE NEW CLOCK ENABLE
   7718	015246	050201 				BIS	R2,R1		; YES -- SET THE DISABLE
   7719	015250	000401 				BR	30$		; AND EXIT
   7720						;
   7721	015252				20$:
   7722	015252	040201 				BIC	R2,R1		; CLEAR THE DISABLE
   7723	015254				30$:
   7724	015254					RETURN			; AND EXIT
	015254	000207 				 RTS	PC
   7725
   7726						.DSABL	LSB
   7727
   7728	004060				.PSECT	MESSAG
   7729
   7730	004060				CCEMSG:
   7731	004060	   007 	   177 	   177 		.ASCII	<007><177><177><007><177><177><007><177><177>
	004063	   007 	   177 	   177
	004066	   007 	   177 	   177
   7732	004071	   040 	   103 	   117 		.ASCIZ	% CONFIRM EXTERNAL CLOCK SOURCE%
	004074	   116 	   106 	   111
	004077	   122 	   115 	   040
	004102	   105 	   130 	   124
	004105	   105 	   122 	   116
	004110	   101 	   114 	   040
	004113	   103 	   114 	   117
	004116	   103 	   113 	   040
	004121	   123 	   117 	   125
	004124	   122 	   103 	   105
	004127	   000
   7733
   7734	015256				.PSECT
SWCPC -- SET / CLEAR CLOCK AND 	MACRO M1113  10-NOV-81 17:48  PAGE 204
.SCPAR -- SET / CLEAR PARITY-STOP "<OBJECT>" 7603.08

   7736					.SBTTL	.SCPAR -- SET / CLEAR PARITY-STOP "<OBJECT>" 7603.08
   7737
   7738						.ENABL	LSB
   7739
   7740	015256				.SCPAL::			; SET CLEAR PARITY-STOP "ALL"
   7741	015256	012702 	001416 			MOV	#PS.NRM,R2	; NORMAL PARITY STOPS
   7742	015262	000421 				BR	10$		; DO COMMON CODE
   7743						;
   7744	015264				.SCPAR::			; SET / CLEAR PARITY-STOP "AR"
   7745	015264	012702 	001000 			MOV	#AP.ARP,R2	; AR / ARX PARITY STOP
   7746	015270	000416 				BR	10$		; DO COMMON CODE
   7747						;
   7748	015272				.SCPCR::			; SET / CLEAR PARITY-STOP "CRAM"
   7749	015272	012702 	000004 			MOV	#IP.CRP,R2	; CRAM PARITY STOP
   7750	015276	000413 				BR	10$		; DO COMMON CODE
   7751						;
   7752	015300				.SCPDR::			; SET / CLEAR PARITY-STOP "DRAM"
   7753	015300	012702 	000002 			MOV	#IP.DRP,R2	; DRAM PARITY STOP
   7754	015304	000410 				BR	10$		; DO COMMON CODE
   7755						;
   7756	015306				.SCPEN::			; SET / CLEAR PARITY-STOP "ENABLE"
   7757	015306	012702 	000400 			MOV	#AP.EIP,R2	; PARITY STOP ENABLE
   7758	015312	000405 				BR	10$		; DO COMMON CODE
   7759						;
   7760	015314				.SCPFM::			; SET / CLEAR PARITY-STOP "FM"
   7761	015314	012702 	000010 			MOV	#IP.FMP,R2	; FAST MEMORY PARITY STOP
   7762	015320	000402 				BR	10$		; DO COMMON CODE
   7763						;
   7764	015322				.SCPFS::			; SET / CLEAR PARITY-STOP "FS-STOP"
   7765	015322	012702 	000001 			MOV	#IP.FSS,R2	; FS STOP
   7766	015326				10$:
   7767	015326	005737 	000000G			TST	.NOTSW		; IS THIS A CLEAR?
   7768	015332	001402 				BEQ	20$		; NO -- GO ON
   7769	015334	040201 				BIC	R2,R1		; YES -- CLEAR THE ENABLE
   7770	015336					RETURN			; EXIT
	015336	000207 				 RTS	PC
   7771	015340				20$:
   7772	015340	052701 	000400 			BIS	#AP.EIP,R1	; ENABLE THE ERROR STOPS
   7773	015344	050201 				BIS	R2,R1		; SET THE ENABLES
   7774	015346					RETURN			; TO CALLER
	015346	000207 				 RTS	PC
   7775
   7776						.DSABL	LSB
SWCPC -- SET / CLEAR CLOCK AND 	MACRO M1113  10-NOV-81 17:48  PAGE 205
.WHTCL -- THE "WHAT CLOCK" COMMAND 7608.17

   7778					.SBTTL	.WHTCL -- THE "WHAT CLOCK" COMMAND 7608.17
   7779
   7780	015350				.WHTCL::
   7781	015350					CALL	.STPKL		; STOP THE KL
	015350	004737 	000000G			 JSR	PC,.STPKL
   7782	015354					CALL	.RDCPP		; READ THE CLOCK BOARD
	015354	004737 	000000G			 JSR	PC,.RDCPP
   7783	015360					CALL	.RSTKL		; RESTART THE KL
	015360	004737 	000000G			 JSR	PC,.RSTKL
   7784	015364				.WHTCA::
   7785	015364					PUSH	.CLKWD		; SAVE THE WORD ON THE STACK
	015364	013746 	000000G			 MOV	.CLKWD,-(SP)
   7786	015370	012700 	004130'			MOV	#WCMSG0,R0	; .HEADER MESSAGE
   7787	015374					CALL	.TYLIN		; .TYPE IT
	015374	004737 	000000G			 JSR	PC,.TYLIN
   7788	015400	012700 	004154'			MOV	#WCMSG1,R0	; .ENABLES
   7789	015404					CALL	.TYMSG		; .TYPE IT
	015404	004737 	000000G			 JSR	PC,.TYMSG
   7790	015410	012701 	001074'			MOV	#CLDSTB,R1	; .TABLE POINTER TO R1
   7791	015414	012702 	000003 			MOV	#^D3,R2		; .ITERATION COUNT TO R2
   7792	015420	011603 				MOV	(SP),R3		; .CLOCK WORD TO R3
   7793	015422	042703 	174377 			BIC	#^C<CD.ALL>,R3	; .MASK OUT THE DISABLES
   7794	015426	001005 				BNE	10$		; .GO PRINT DISABLES
   7795	015430	012700 	004212'			MOV	#NONMSG,R0	; .NO DISABLES SET -- SAY SO
   7796	015434					CALL	.TYLIN		; .TYPE IT
	015434	004737 	000000G			 JSR	PC,.TYLIN
   7797	015440	000414 				BR	30$		; .AND GO ON
   7798						;
   7799	015442				10$:
   7800	015442	012100 				MOV	(R1)+,R0	; .MESSAGE POINTER TO R0
   7801	015444	032103 				BIT	(R1)+,R3	; .IS THE DISABLE ON??
   7802	015446	001406 				BEQ	20$		; .NO -- FORGET IT
   7803	015450					CALL	.TYMSG		; .YES -- SAY SO
	015450	004737 	000000G			 JSR	PC,.TYMSG
   7804	015454					CALL	.TYCOM		; .TYPE A COMMA
	015454	004737 	000000G			 JSR	PC,.TYCOM
   7805	015460					CALL	.TYSPC		; .TYPE A <SPACE>
	015460	004737 	000000G			 JSR	PC,.TYSPC
   7806	015464				20$:
   7807	015464	077212 				SOB	R2,10$		; .LOOP TILL DONE
   7808	015466					CALL	.TCRLF		; .END THE LINE
	015466	004737 	000000G			 JSR	PC,.TCRLF
   7809
   7810					;	[CONTINUED ON THE FOLLOWING PAGE]
SWCPC -- SET / CLEAR CLOCK AND 	MACRO M1113  10-NOV-81 17:48  PAGE 206
.WHTCL -- THE "WHAT CLOCK" COMMAND 7608.17

   7812					;	[CONTINUED FROM THE PREVIOUS PAGE]
   7813
   7814	015472				30$:
   7815	015472	012700 	004170'			MOV	#WCMSG2,R0	; .SOURCE MESSAGE
   7816	015476					CALL	.TYMSG		; .PRINT IT
	015476	004737 	000000G			 JSR	PC,.TYMSG
   7817	015502	011601 				MOV	(SP),R1		; .CLOCK CONTROL WORD TO R1
   7818	015504	042701 	177763 			BIC	#^C<CS.ALL>,R1	; .FLUSH JUNK
   7819	015510	006201 				ASR	R1		; .MAKE AN INDEX OF IT
   7820	015512	016100 	001110'			MOV	CLSRTB(R1),R0	; .SOURCE NAME TO R0
   7821	015516					CALL	.TYLIN		; .PRINT IT
	015516	004737 	000000G			 JSR	PC,.TYLIN
   7822	015522	012700 	004202'			MOV	#WCMSG3,R0	; .RATE MESSAGE
   7823	015526					CALL	.TYMSG		; .PRINT IT
	015526	004737 	000000G			 JSR	PC,.TYMSG
   7824	015532					POP	R1		; .CLOCK CONTROL WORD TO R1
	015532	012601 				 MOV	(SP)+,R1
   7825	015534	042701 	177774 			BIC	#^C<CR.ALL>,R1	; FLUSH JUNK
   7826	015540	006301 				ASL	R1		; MAKE AN INDEX FROM IT
   7827	015542	016100 	001120'			MOV	CLRTTB(R1),R0	; RATE NAME TO R0
   7828	015546					CALLR	.TYLIN		; PRINT IT AND EXIT
	015546	000137 	000000G			 JMP	.TYLIN
   7829						;
   7830
   7831	001074				.PSECT	DATA
   7832
   7833	001074				CLDSTB:
   7834	001074	000000G				.WORD	CRMMSG
   7835	001076	002000 				.WORD	CD.CRC
   7836	001100	000000G				.WORD	DPTMSG
   7837	001102	001000 				.WORD	CD.DPC
   7838	001104	000000G				.WORD	CTLMSG
   7839	001106	000400 				.WORD	CD.CLC
   7840	001110				CLSRTB:
   7841	001110	000000G				.WORD	INTMSG
   7842	001112	000000G				.WORD	MGNMSG
   7843	001114	000000G				.WORD	EXTMSG
   7844	001116	000000G				.WORD	MGNMSG
   7845	001120				CLRTTB:
   7846	001120	000000G				.WORD	FULMSG
   7847	001122	000000G				.WORD	HLFMSG
   7848	001124	000000G				.WORD	QTRMSG
   7849	001126	000000G				.WORD	SLOMSG
   7850
   7851	015552				.PSECT
SWCPC -- SET / CLEAR CLOCK AND 	MACRO M1113  10-NOV-81 17:48  PAGE 207
.WHTCL -- THE "WHAT CLOCK" COMMAND 7608.17

   7853	004130				.PSECT	MESSAG
   7854
   7855	004130				WCMSG0:
   7856	004130	   113 	   114 	   040 		.ASCIZ	%KL CLOCK PARAMETERS%
	004133	   103 	   114 	   117
	004136	   103 	   113 	   040
	004141	   120 	   101 	   122
	004144	   101 	   115 	   105
	004147	   124 	   105 	   122
	004152	   123 	   000
   7857	004154				WCMSG1:
   7858	004154	   040 	   104 	   111 		.ASCIZ	% DISABLED: %
	004157	   123 	   101 	   102
	004162	   114 	   105 	   104
	004165	   072 	   040 	   000
   7859	004170				WCMSG2:
   7860	004170	   040 	   123 	   117 		.ASCIZ	% SOURCE: %
	004173	   125 	   122 	   103
	004176	   105 	   072 	   040
	004201	   000
   7861	004202				WCMSG3:
   7862	004202	   040 	   122 	   101 		.ASCIZ	% RATE: %
	004205	   124 	   105 	   072
	004210	   040 	   000
   7863	004212				NONMSG:
   7864	004212	   116 	   117 	   116 		.ASCIZ	%NONE%
	004215	   105 	   000
   7865
   7866	015552				.PSECT
SWCPC -- SET / CLEAR CLOCK AND 	MACRO M1113  10-NOV-81 17:48  PAGE 208
.WHTPS -- THE "WHAT PARITY-STOP" COMMAND 7608.19

   7868					.SBTTL	.WHTPS -- THE "WHAT PARITY-STOP" COMMAND 7608.19
   7869
   7870	015552				.WHTPS::
   7871	015552					CALL	.STPKL		; STOP THE KL
	015552	004737 	000000G			 JSR	PC,.STPKL
   7872	015556					CALL	.RDCPP		; READ THE CLOCK BOARD
	015556	004737 	000000G			 JSR	PC,.RDCPP
   7873	015562					CALL	.RSTKL		; RESTART THE KL
	015562	004737 	000000G			 JSR	PC,.RSTKL
   7874	015566				.WHTPA::
   7875	015566					PUSH	.PSCWD		; SAVE THE WORD ON THE STACK
	015566	013746 	000000G			 MOV	.PSCWD,-(SP)
   7876	015572	012700 	004217'			MOV	#WPMSG0,R0	; .HEADER MESSAGE
   7877	015576					CALL	.TYLIN		; .TYPE IT
	015576	004737 	000000G			 JSR	PC,.TYLIN
   7878	015602	012700 	004251'			MOV	#WPMSG1,R0	; .ENABLE MESSAGE
   7879	015606					CALL	.TYMSG		; .TYPE IT
	015606	004737 	000000G			 JSR	PC,.TYMSG
   7880	015612	012700 	000000G			MOV	#ONMSG,R0	; .ASSUME THAT IT IS ON
   7881	015616	032716 	000400 			BIT	#AP.EIP,(SP)	; .IS THE ENABLE BIT ON?
   7882	015622	001002 				BNE	10$		; .YES -- SAY SO
   7883	015624	012700 	000000G			MOV	#OFFMSG,R0	; .NO -- CHANGE MESSAGE
   7884	015630				10$:
   7885	015630					CALL	.TYLIN		; .TYPE IT
	015630	004737 	000000G			 JSR	PC,.TYLIN
   7886	015634	012700 	004277'			MOV	#WPMSG2,R0	; .PARITY STOPS
   7887	015640					CALL	.TYMSG		; .TYPE IT
	015640	004737 	000000G			 JSR	PC,.TYMSG
   7888	015644	042716 	000400 			BIC	#AP.EIP,(SP)	; .CLEAR THE ENABLE BIT
   7889	015650	001005 				BNE	20$		; .GO ON IF BITS ARE THERE
   7890	015652	012700 	004212'			MOV	#NONMSG,R0	; .NONE THERE -- SAY SO
   7891	015656					CALL	.TYMSG		; .TYPE IT
	015656	004737 	000000G			 JSR	PC,.TYMSG
   7892	015662	000416 				BR	50$		; .AND EXIT
   7893						;
   7894
   7895					;	[CONTINUED ON THE FOLLOWING PAGE]
SWCPC -- SET / CLEAR CLOCK AND 	MACRO M1113  10-NOV-81 17:48  PAGE 209
.WHTPS -- THE "WHAT PARITY-STOP" COMMAND 7608.19

   7897					;	[CONTINUED FROM THE PREVIOUS PAGE]
   7898
   7899	015664				20$:
   7900	015664	012701 	001130'			MOV	#PSENTB,R1	; .TABLE POINTER TO R1
   7901	015670	012702 	000005 			MOV	#^D5,R2		; .ITERATION COUNT TO R2
   7902	015674				30$:
   7903	015674	012100 				MOV	(R1)+,R0	; .MESSAGE POINTER TO R0
   7904	015676	032116 				BIT	(R1)+,(SP)	; .IS THE BIT ON?
   7905	015700	001406 				BEQ	40$		; .NO -- GO ON
   7906	015702					CALL	.TYMSG		; .YES -- SAY SO
	015702	004737 	000000G			 JSR	PC,.TYMSG
   7907	015706					CALL	.TYCOM		; .TYPE A COMMA
	015706	004737 	000000G			 JSR	PC,.TYCOM
   7908	015712					CALL	.TYSPC		; .PRINT A <SPACE>
	015712	004737 	000000G			 JSR	PC,.TYSPC
   7909	015716				40$:
   7910	015716	077212 				SOB	R2,30$		; .LOOP TILL DONE
   7911	015720				50$:
   7912	015720	005726 				TST	(SP)+		; .CLEAR THE STACK
   7913	015722					CALLR	.TCRLF		; END THE LINE AND EXIT
	015722	000137 	000000G			 JMP	.TCRLF
   7914						;
   7915
   7916	001130				.PSECT	DATA
   7917
   7918	001130				PSENTB:
   7919	001130	000000G				.WORD	ARMSG
   7920	001132	001000 				.WORD	AP.ARP
   7921	001134	000000G				.WORD	CRMMSG
   7922	001136	000004 				.WORD	IP.CRP
   7923	001140	000000G				.WORD	DRMMSG
   7924	001142	000002 				.WORD	IP.DRP
   7925	001144	000000G				.WORD	FMMSG
   7926	001146	000010 				.WORD	IP.FMP
   7927	001150	000000G				.WORD	FSSMSG
   7928	001152	000001 				.WORD	IP.FSS
   7929
   7930	015726				.PSECT
SWCPC -- SET / CLEAR CLOCK AND 	MACRO M1113  10-NOV-81 17:48  PAGE 210
.WHTPS -- THE "WHAT PARITY-STOP" COMMAND 7608.19

   7932	004217				.PSECT	MESSAG
   7933
   7934	004217				WPMSG0:
   7935	004217	   113 	   114 	   040 		.ASCIZ	%KL PARITY STOP PARAMETERS%
	004222	   120 	   101 	   122
	004225	   111 	   124 	   131
	004230	   040 	   123 	   124
	004233	   117 	   120 	   040
	004236	   120 	   101 	   122
	004241	   101 	   115 	   105
	004244	   124 	   105 	   122
	004247	   123 	   000
   7936	004251				WPMSG1:
   7937	004251	   040 	   120 	   101 		.ASCIZ	% PARITY STOP ENABLE: %
	004254	   122 	   111 	   124
	004257	   131 	   040 	   123
	004262	   124 	   117 	   120
	004265	   040 	   105 	   116
	004270	   101 	   102 	   114
	004273	   105 	   072 	   040
	004276	   000
   7938	004277				WPMSG2:
   7939	004277	   040 	   120 	   101 		.ASCIZ	% PARITY STOPS: %
	004302	   122 	   111 	   124
	004305	   131 	   040 	   123
	004310	   124 	   117 	   120
	004313	   123 	   072 	   040
	004316	   000
   7940	015726				.PSECT
SWCPC -- SET / CLEAR CLOCK AND 	MACRO M1113  10-NOV-81 17:48  PAGE 211
.YESNO -- SUBROUTINE TO ASK "YES OR NO" 7603.22

   7942					.SBTTL	.YESNO -- SUBROUTINE TO ASK "YES OR NO" 7603.22
   7943
   7944					;+
   7945					; .YESNO -- SUBROUTINE TO ASK "YES OR NO".
   7946					;
   7947					; THIS SUBROUTINE WILL ASK FOR A CONFIMATION TO A QUESTION, AND RETURN
   7948					; THE STATE OF THE RESPONSE IN CC-C ON RETURN. IF THE RESPONSE IS OTHER
   7949					; THAN A "YES" OR A "NO", THE QUESTION IS REITERATED.
   7950					;
   7951					; INPUT ARGUMENTS:
   7952					;
   7953					;	NONE.
   7954					;
   7955					; OUTPUT ARGUMENTS:
   7956					;
   7957					;	IF THE RESPONSE WAS "YES" CC-C IS CLEAR.
   7958					;	IF THE RESPONSE WAS "NO" CC-C IS SET.
   7959					;
   7960					; ERROR CODES RETURNED:
   7961					;
   7962					;	NONE.
   7963					;-
   7964
   7965	015726				.YESNO::
   7966	015726					PUSH	<R0,R1,R5>	; SAVE CALLERS REGISTERS
	015726	010046 				 MOV	R0,-(SP)
	015730	010146 				 MOV	R1,-(SP)
	015732	010546 				 MOV	R5,-(SP)
   7967	015734				10$:
   7968	015734	012700 	004317'			MOV	#YONMSG,R0	; ...MESSAGE POINTER TO R0
   7969	015740					CALL	.TYMSG		; ...PRINT IT
	015740	004737 	000000G			 JSR	PC,.TYMSG
   7970	015744					CALL	.TYOUT		; ...FORCE IT OUT
	015744	004737 	000000G			 JSR	PC,.TYOUT
   7971	015750	012701 	000000G			MOV	#.CIBFR,R1	; ...POINT TO THE INPUT BUFFER
   7972	015754					CALL	.GTLIN		; ...READ THE RESPONSE
	015754	004737 	000000G			 JSR	PC,.GTLIN
   7973	015760	001765 				BEQ	10$		; ...TRY AGAIN IF NO REAL RESPONSE
   7974	015762	010105 				MOV	R1,R5		; ...BUFFER POINTER TO R5
   7975	015764	012700 	004336'			MOV	#YESMSG,R0	; ...EXPECT "YES"
   7976	015770					CALL	.SSCAN		; ...SCAN FOR IT
	015770	004737 	000000G			 JSR	PC,.SSCAN
   7977	015774	103012 				BCC	30$		; ...WE GOT IT -- EXIT
   7978	015776	010105 				MOV	R1,R5		; ...SET UP BUFFER POINTER
   7979	016000	012700 	004342'			MOV	#NOMSG,R0	; ...TRY FOR "NO"
   7980	016004					CALL	.SSCAN		; ...SCAN THE SYMBOL
	016004	004737 	000000G			 JSR	PC,.SSCAN
   7981	016010	103003 				BCC	20$		; ...WE GOT IT
   7982	016012					CALL	.TCRLF		; ...DID'NT GET EITHER
	016012	004737 	000000G			 JSR	PC,.TCRLF
   7983	016016	000746 				BR	10$		; ...SO TRY AGAIN
   7984						;
   7985
   7986					;	[CONTINUED ON THE FOLLOWING PAGE]
SWCPC -- SET / CLEAR CLOCK AND 	MACRO M1113  10-NOV-81 17:48  PAGE 212
.YESNO -- SUBROUTINE TO ASK "YES OR NO" 7603.22

   7988					;	[CONTINUED FROM THE PREVIOUS PAGE]
   7989
   7990	016020				20$:
   7991	016020	000261 				SEC			; ...SET CC-C TO SAY "NO"
   7992	016022				30$:
   7993	016022					POP	<R5,R1,R0>	; ...RESTORE REGISTERS
	016022	012605 				 MOV	(SP)+,R5
	016024	012601 				 MOV	(SP)+,R1
	016026	012600 				 MOV	(SP)+,R0
   7994	016030					RETURN			; ...TO CALLER
	016030	000207 				 RTS	PC
   7995
   7996	004317				.PSECT	MESSAG
   7997
   7998	004317				YONMSG:
   7999	004317	   040 	   050 	   131 		.ASCIZ	% (YES OR NO)? %
	004322	   105 	   123 	   040
	004325	   117 	   122 	   040
	004330	   116 	   117 	   051
	004333	   077 	   040 	   000
   8000	004336				YESMSG:
   8001	004336	   131 	   105 	   123 		.ASCIZ	%YES%
	004341	   000
   8002	004342				NOMSG:
   8003	004342	   116 	   117 	   000 		.ASCIZ	%NO%
   8004
   8005	016032				.PSECT
SWDAT -- SET/CLEAR/WHAT "DATE" 	MACRO M1113  10-NOV-81 17:48  PAGE 213
.YESNO -- SUBROUTINE TO ASK "YES OR NO" 7603.22

   8007					.TITLE	SWDAT -- SET/CLEAR/WHAT "DATE" COMMAND MODULE 7703.04
   8008
   8009						.IDENT	"006060"
   8010
   8011					;
   8012					;                             COPYRIGHT (C) 1975, 1979 BY
   8013					;                     DIGITAL EQUIPMENT CORPORATION, MAYNARD MASS.
   8014					;
   8015					;       THIS SOFTWARE IS FURNISHED UNDER A LICENSE AND MAY BE  USED  AND  COPIED
   8016					;       ONLY IN ACCORDANCE WITH THE TERMS OF SUCH LICENSE AND WITH THE INCLUSION
   8017					;       OF THE ABOVE COPYRIGHT NOTICE.  THIS SOFTWARE OR ANY OTHER COPIES THERE-
   8018					;       OF  MAY NOT BE PROVIDED OR OTHERWISE MADE AVAILABLE TO ANY OTHER PERSON.
   8019					;       NO TITLE TO OR OWNERSHIP OF THE SOFTWARE IS HEREBY TRANSFERRED.
   8020					;
   8021					;       THE INFORMATION CONTAINED IN THIS SOFTWARE IS SUBJECT TO CHANGE  WITHOUT
   8022					;       NOTICE  AND SHOULD NOT BE CONSTRUED AS A COMMITMENT BY DIGITAL EQUIPMENT
   8023					;       CORPORATION.
   8024					;
   8025					;       DIGITAL ASSUMES NO RESPONSIBILITY FOR THE  USE  OR  RELIABILITY  OF  ITS
   8026					;       SOFTWARE ON EQUIPMENT WHICH IS NOT SUPPILED BY DIGITAL.
   8027					;
   8028					;		MODULE: "DATE" SUPPORT
   8029					;
   8030					;		VERSION: 06-06
   8031					;
   8032					;		AUTHOR: R. BELANGER
   8033					;
   8034					;		DATE: 7703.04
   8035					;
   8036					;	THIS MODULE CONTAINS:
   8037					;
   8038					;	1) SET CLEAR DATE CODE
   8039					;	2) WHAT DATE CODE
SWDAT -- SET/CLEAR/WHAT "DATE" 	MACRO M1113  10-NOV-81 17:48  PAGE 214
.SCDAT -- "SET DATE" COMMAND 7703.04

   8041					.SBTTL	.SCDAT -- "SET DATE" COMMAND 7703.04
   8042
   8043					;+
   8044					; .SCDAT -- THE "SET DATE" COMMAND
   8045					;
   8046					; THIS SUBROUTINE WILL ACCEPT A DATE AND TIME AS THE SYSTEM DATE AND TIME
   8047					; IF AND ONLY IF THE SYSTEM DATE VALID FLAG IS OFF.
   8048					;
   8049					; INPUT ARGUMENTS:
   8050					;
   8051					;	NONE.
   8052					;
   8053					; OUTPUT ARGUMENTS:
   8054					;
   8055					;	THE SYSTEM DATE IS SET AS SPECIFIED
   8056					;
   8057					; ERROR CODES RETURNED:
   8058					;
   8059					;	CDI -- CLEAR DATE ILLEGAL
   8060					;	DAV -- DATE ALREADY VALID
   8061					;	NDI -- NULL DATE ILLEGAL
   8062					;	NTI -- NULL TIME ILLEGAL
   8063					;-
   8064
   8065						.MCALL	GTIM$S,.INH6,.ENB6
   8066
   8067	016032				.SCDAT::
   8068	016032	032737 	000000G	000002G		BIT	#EF.PR1,.COMEF+2 ; IS PRIMARY PROTOCOL RUNNING??
   8069	016040	001133 				BNE	SCDCDI		; YES -- GIVE "CDI" ERROR
   8070	016042	005737 	000000G			TST	.NOTSW		; NO -- IS THIS A "CLEAR"??
   8071	016046	001404 				BEQ	10$		; NO -- GO ON
   8072	016050	005037 	000000G			CLR	.DATE3		; YES -- SET DATE INVALID
   8073	016054	005037 	000000G			CLR	.YEAR		; AND ALLOW "FUNNY" DATES
   8074	016060				10$:
   8075	016060	005737 	000000G			TST	.DATE3		; IS TIME ALREADY VALID?
   8076	016064	001124 				BNE	SCDDAV		; YES -- GIVE "DAV" ERROR
   8077	016066					CALL	.CKEOC		; NO -- MUST HAVE E-O-C
	016066	004737 	000000G			 JSR	PC,.CKEOC
   8078	016072	005046 				CLR	-(SP)		; CLEAR BUFFER ON STACK
   8079	016074	005046 				CLR	-(SP)		; .SO
   8080	016076	010600 				MOV	SP,R0		; ..POINT TO IT
   8081	016100					CALL	.GTDAT		; ..READ THE DATE
	016100	004737 	005600'			 JSR	PC,.GTDAT
   8082	016104	001517 				BEQ	SCDNDI		; ..ERROR IF NULL
   8083	016106	005046 				CLR	-(SP)		; ..SPACE FOR TIME
   8084	016110	010600 				MOV	SP,R0		; ...POINT TO IT
   8085	016112					CALL	.GTTIM		; ...READ THE TIME
	016112	004737 	006244'			 JSR	PC,.GTTIM
   8086	016116	001515 				BEQ	SCDNTI		; ...ERROR IF NULL
   8087	016120	116600 	000002 			MOVB	2(SP),R0	; ...YEAR TO R0
   8088	016124	162700 	000114 			SUB	#^D76,R0	; ...MINUS 1976
   8089	016130	010002 				MOV	R0,R2		; ...SAVE RESULT IN R2
   8090	016132	001406 				BEQ	20$		; ...GO ON IF .EQ. 0
   8091	016134	012701 	000555 			MOV	#^D365,R1	; ...CONVERT TO DAYS
   8092	016140					CALL	$MUL		; ...SO
	016140	004737 	000000G			 JSR	PC,$MUL
   8093	016144	010100 				MOV	R1,R0		; ...RESULT TO R0
SWDAT -- SET/CLEAR/WHAT "DATE" 	MACRO M1113  10-NOV-81 17:48  PAGE 214-1
.SCDAT -- "SET DATE" COMMAND 7703.04

   8094	016146	005200 				INC	R0		; ...PLUS 1 FOR 1976
   8095	016150				20$:
   8096	016150	116601 	000003 			MOVB	3(SP),R1	; ...MONTH TO R1
   8097	016154	006301 				ASL	R1		; ...MAKE A WORD INDEX
   8098	016156	066100 	001162'			ADD	CDMTB-2(R1),R0	; ...ADD DAYS TO THIS MONTH
   8099	016162	005702 				TST	R2		; ...IS THIS 1976?
   8100	016164	001412 				BEQ	40$		; ...YES -- GO ON
   8101	016166	132702 	000003 			BITB	#3,R2		; ...NO -- IS THIS A LEAP YEAR?
   8102	016172	001004 				BNE	30$		; ...NO -- GO ON
   8103	016174	022701 	000002 			CMP	#2,R1		; ...YES -- BEYOND FEBRUARY?
   8104	016200	002401 				BLT	30$		; ...YES -- GO ON
   8105	016202	005302 				DEC	R2		; ...NO -- SUBTRACT ONE FOR THIS YEAR
   8106	016204				30$:
   8107	016204	006202 				ASR	R2		; ...DIVIDE DIFFERENCE BY 4
   8108	016206	006202 				ASR	R2		; ...SO
   8109	016210	060200 				ADD	R2,R0		; ...ADD OFFSET FOR LEAP YEARS
   8110	016212				40$:
   8111	016212	116601 	000004 			MOVB	4(SP),R1	; ...DATE TO R1
   8112	016216	005301 				DEC	R1		; ...MINUS 1
   8113	016220	060100 				ADD	R1,R0		; ...ADD IT IN
   8114	016222	012701 	000007 			MOV	#^D7,R1		; ...DIVIDE BY DAYS PER WEEK
   8115	016226					CALL	$DIV		; ...SO
	016226	004737 	000000G			 JSR	PC,$DIV
   8116	016232	010100 				MOV	R1,R0		; ...DAY OF WEEK OFFSET TO R0
   8117	016234	010601 				MOV	SP,R1		; ...STACK POINTER TO R1
   8119	016236					.INH6			; ...DISALLOW INTERRUPTS
	016236	013746 	177776 			MOV	@#PS,-(SP)
	016242	112737 	000300 	177776 		MOVB	#300,@#PS
   8121	016250	116037 	001154'	000000G		MOVB	DOWTAB(R0),.DOW	;;; ...SET DAY OF WEEK FROM TABLE
   8122	016256	012137 	000000G			MOV	(R1)+,.SSM	;;; ...SET THE TIME
   8123	016262	112100 				MOVB	(R1)+,R0	;;; ...GET THE YEAR
   8124	016264	062700 	003554 			ADD	#^D1900,R0	;;; ...PLUS 1900
   8125	016270	010037 	000000G			MOV	R0,.YEAR	;;; ...SET IT
   8126	016274	105311 				DECB	(R1)		;;; ...COMPUTE TRUE MONTH
   8127	016276	112137 	000000G			MOVB	(R1)+,.MON	;;; ...SET IT
   8128	016302	105311 				DECB	(R1)		;;; ...COMPUTE TRUE DAY
   8129	016304	111137 	000000G			MOVB	(R1),.DAY	;;; ...SET IT
   8130	016310	012737 	000001 	000000G		MOV	#1,.DATE3	;;; ...SET THE VALID FLAG
   8132	016316					.ENB6			;;; ...ALLOW INTERRUPTS
	016316	012637 	177776 			MOV	(SP)+,@#PS
   8134	016322	062706 	000006 			ADD	#^D6,SP		; ...RESET STACK
   8135	016326				50$:
   8136	016326	000414 				BR	.WHDAT		; DISPLAY TIME AND EXIT
   8137						;
SWDAT -- SET/CLEAR/WHAT "DATE" 	MACRO M1113  10-NOV-81 17:48  PAGE 215
.SCDAT -- "SET DATE" COMMAND 7703.04

   8139	016330				SCDCDI:
   8140	016330					ERROR$	CDI		; ERROR -- CLEAR DATE ILLEGAL
	016330	012746 	011551 			 MOV	#^RCDI,-(SP)
	016334	104400 				 TRAP	TC.ERR
   8141						;
   8142	016336				SCDDAV:
   8143	016336					ERROR$	DAV		; ERROR -- DATE ALREADY VALID
	016336	012746 	014476 			 MOV	#^RDAV,-(SP)
	016342	104400 				 TRAP	TC.ERR
   8144						;
   8145	016344				SCDNDI:
   8146	016344					ERROR$	NDI		; ERROR -- NULL DATE ILLEGAL
	016344	012746 	054051 			 MOV	#^RNDI,-(SP)
	016350	104400 				 TRAP	TC.ERR
   8147						;
   8148	016352				SCDNTI:
   8149	016352					ERROR$	NTI		; ERROR -- NULL TIME ILLEGAL
	016352	012746 	055251 			 MOV	#^RNTI,-(SP)
	016356	104400 				 TRAP	TC.ERR
   8150						;
   8151
   8152	001154				.PSECT	DATA
   8153
   8154	001154				DOWTAB:
   8155	001154	   003 	   004 			.BYTE	3,4
   8156	001156	   005 	   006 			.BYTE	5,6
   8157	001160	   000 	   001 			.BYTE	0,1
   8158	001162	   002 				.BYTE	2
   8159						.EVEN
   8160
   8161	001164				CDMTB:
   8162	001164	000000 				.WORD	0
   8163	001166	000037 				.WORD	^D31
   8164	001170	000073 				.WORD	^D59
   8165	001172	000132 				.WORD	^D90
   8166	001174	000170 				.WORD	^D120
   8167	001176	000227 				.WORD	^D151
   8168	001200	000265 				.WORD	^D181
   8169	001202	000324 				.WORD	^D212
   8170	001204	000363 				.WORD	^D243
   8171	001206	000421 				.WORD	^D273
   8172	001210	000460 				.WORD	^D304
   8173	001212	000516 				.WORD	^D334
   8174
   8175	016360				.PSECT
SWDAT -- SET/CLEAR/WHAT "DATE" 	MACRO M1113  10-NOV-81 17:48  PAGE 216
.WHDAT -- THE "WHAT" DATE COMMAND 7703.03

   8177					.SBTTL	.WHDAT -- THE "WHAT" DATE COMMAND 7703.03
   8178
   8179					;+
   8180					; .WHDAT -- THE "WHAT DATE" COMMAND
   8181					;
   8182					; THIS SUBROUTINE WILL DISPLAY THE THE CURRENT SYSTEM TIME OF DAY
   8183					; ON THE CONSOLE DEVICE. IF THE TIME HAS NOT BEEN SET BY EITHER A
   8184					; "SET DATE" COMMAND OR BY THE KL10 EXECUTIVE THE VALID FLAG WILL BE OFF
   8185					; OTHERWISE IT WILL BE ON.
   8186					;
   8187					; INPUT ARGUMENTS:
   8188					;
   8189					;	NONE.
   8190					;
   8191					; OUTPUT ARGUMENTS:
   8192					;
   8193					;	NONE.
   8194					;
   8195					; ERROR CODES RETUNED:
   8196					;
   8197					;	NONE.
   8198					;-
   8199
   8200
   8201	016360				.WHDAT::
   8202	016360					CALL	.CKEOC		; MUST HAVE E-O-C
	016360	004737 	000000G			 JSR	PC,.CKEOC
   8203	016364	012701 	001232'			MOV	#DATBUF,R1	; BUFFER POINTER TO R1
   8204	016370					GTIM$S	R1		; REAAD THE DATE AND TIME
	016370	010146 				MOV	R1,-(SP)
	016372	012746 				MOV	(PC)+,-(SP)
	016374	   073 	   002 			.BYTE	59.,2
	016376	104375 				EMT	375
   8205	016400	005046 				CLR	-(SP)		; CLEAR A BUFFER ON STACK
   8206	016402	005046 				CLR	-(SP)		; .SO
   8207	016404	010600 				MOV	SP,R0		; ..POINTER TO R0
   8208	016406	112120 				MOVB	(R1)+,(R0)+	; ..SET YEAR
   8209	016410	105721 				TSTB	(R1)+		; ..ADVANCE POINTER
   8210	016412	112120 				MOVB	(R1)+,(R0)+	; ..SET MONTH
   8211	016414	105721 				TSTB	(R1)+		; ..ADVANCE POINTER
   8212	016416	112120 				MOVB	(R1)+,(R0)+	; ..SET DAY
   8213	016420	012700 	004345'			MOV	#WHDMS0,R0	; ..MESSAGE POINTER TO R0
   8214	016424					CALL	.TYLIN		; ..PRINT IT
	016424	004737 	000000G			 JSR	PC,.TYLIN
   8215	016430	113700 	000000G			MOVB	.DOW,R0		; ..DAY OF WEEK INDEX TO R0
   8216	016434	006300 				ASL	R0		; ..TIMES 2
   8217	016436	016000 	001214'			MOV	DOWMTB(R0),R0	; ..MESSAGE POINTER TO R0
   8218	016442					CALL	.TYMSG		; ..PRINT IT
	016442	004737 	000000G			 JSR	PC,.TYMSG
   8219	016446					CALL	.TYSPC		; ..AND A <SPACE>
	016446	004737 	000000G			 JSR	PC,.TYSPC
   8220	016452	010600 				MOV	SP,R0		; ..POINT TO DATE
   8221	016454					CALL	.TYDAT		; ..TYPE THE DATE
	016454	004737 	006612'			 JSR	PC,.TYDAT
   8222	016460					CALL	.TYSPC		; ..AND A <SPACE>
	016460	004737 	000000G			 JSR	PC,.TYSPC
   8223	016464	012700 	000000G			MOV	#.SSM,R0	; ..POINT TO THE TIME
SWDAT -- SET/CLEAR/WHAT "DATE" 	MACRO M1113  10-NOV-81 17:48  PAGE 216-1
.WHDAT -- THE "WHAT" DATE COMMAND 7703.03

   8224	016470					CALL	.TYTIM		; ..TYPE IT
	016470	004737 	006726'			 JSR	PC,.TYTIM
   8225	016474					CALL	.TCRLF		; ..END THE LINE
	016474	004737 	000000G			 JSR	PC,.TCRLF
   8226	016500	012700 	004373'			MOV	#WHDMS1,R0	; ..MESSAGE POINTER TO R0
   8227	016504					CALL	.TYMSG		; ..PRINT IT
	016504	004737 	000000G			 JSR	PC,.TYMSG
   8228	016510	012700 	000000G			MOV	#ONMSG,R0	; ..ASSUME VALID
   8229	016514	005737 	000000G			TST	.DATE3		; ..IS IT??
   8230	016520	001002 				BNE	10$		; ..YES -- GO ON
   8231	016522	012700 	000000G			MOV	#OFFMSG,R0	; ..NO -- SAY SO
   8232	016526				10$:
   8233	016526	022626 				CMP	(SP)+,(SP)+	; ..CLEAR STACK
   8234	016530					CALLR	.TYLIN		; PRINT AND EXIT
	016530	000137 	000000G			 JMP	.TYLIN
   8235						;
   8236
   8237	001214				.PSECT	DATA
   8238
   8239	001214				DOWMTB:
   8240	001214	004417'				.WORD	MONMSG
   8241	001216	004427'				.WORD	TUEMSG
   8242	001220	004440'				.WORD	WEDMSG
   8243	001222	004453'				.WORD	THUMSG
   8244	001224	004465'				.WORD	FRIMSG
   8245	001226	004475'				.WORD	SATMSG
   8246	001230	004507'				.WORD	SUNMSG
   8247
   8248	001232				DATBUF:
   8249	001232	000000 	000000 	000000 		.WORD	0,0,0,0,0,0,0,0
	001240	000000 	000000 	000000
	001246	000000 	000000
   8250
   8251	016534				.PSECT
SWDAT -- SET/CLEAR/WHAT "DATE" 	MACRO M1113  10-NOV-81 17:48  PAGE 217
.WHDAT -- THE "WHAT" DATE COMMAND 7703.03

   8253	004345				.PSECT	MESSAG
   8254
   8255	004345				WHDMS0:
   8256	004345	   103 	   125 	   122 		.ASCIZ	%CURRENT SYSTEM DATE: %
	004350	   122 	   105 	   116
	004353	   124 	   040 	   123
	004356	   131 	   123 	   124
	004361	   105 	   115 	   040
	004364	   104 	   101 	   124
	004367	   105 	   072 	   040
	004372	   000
   8257	004373				WHDMS1:
   8258	004373	   040 	   126 	   101 		.ASCIZ	% VALIDITY FLAG IS: %
	004376	   114 	   111 	   104
	004401	   111 	   124 	   131
	004404	   040 	   106 	   114
	004407	   101 	   107 	   040
	004412	   111 	   123 	   072
	004415	   040 	   000
   8259
   8260	004417				MONMSG:
   8261	004417	   115 	   117 	   116 		.ASCIZ	%MONDAY,%
	004422	   104 	   101 	   131
	004425	   054 	   000
   8262	004427				TUEMSG:
   8263	004427	   124 	   125 	   105 		.ASCIZ	%TUESDAY,%
	004432	   123 	   104 	   101
	004435	   131 	   054 	   000
   8264	004440				WEDMSG:
   8265	004440	   127 	   105 	   104 		.ASCIZ	%WEDNESDAY,%
	004443	   116 	   105 	   123
	004446	   104 	   101 	   131
	004451	   054 	   000
   8266	004453				THUMSG:
   8267	004453	   124 	   110 	   125 		.ASCIZ	%THURSDAY,%
	004456	   122 	   123 	   104
	004461	   101 	   131 	   054
	004464	   000
   8268	004465				FRIMSG:
   8269	004465	   106 	   122 	   111 		.ASCIZ	%FRIDAY,%
	004470	   104 	   101 	   131
	004473	   054 	   000
   8270	004475				SATMSG:
   8271	004475	   123 	   101 	   124 		.ASCIZ	%SATURDAY,%
	004500	   125 	   122 	   104
	004503	   101 	   131 	   054
	004506	   000
   8272	004507				SUNMSG:
   8273	004507	   123 	   125 	   116 		.ASCIZ	%SUNDAY,%
	004512	   104 	   101 	   131
	004515	   054 	   000
   8274
   8275	016534				.PSECT
SWKLN -- SET/CLEAR/WHAT "KLINIK	MACRO M1113  10-NOV-81 17:48  PAGE 219
.WHDAT -- THE "WHAT" DATE COMMAND 7703.03

   8278					.TITLE	SWKLN -- SET/CLEAR/WHAT "KLINIK" COMMAND MODULE 7703.04
   8279
   8280						.IDENT	"006060"
   8281
   8282					;
   8283					;                             COPYRIGHT (C) 1975, 1979 BY
   8284					;                     DIGITAL EQUIPMENT CORPORATION, MAYNARD MASS.
   8285					;
   8286					;       THIS SOFTWARE IS FURNISHED UNDER A LICENSE AND MAY BE  USED  AND  COPIED
   8287					;       ONLY IN ACCORDANCE WITH THE TERMS OF SUCH LICENSE AND WITH THE INCLUSION
   8288					;       OF THE ABOVE COPYRIGHT NOTICE.  THIS SOFTWARE OR ANY OTHER COPIES THERE-
   8289					;       OF  MAY NOT BE PROVIDED OR OTHERWISE MADE AVAILABLE TO ANY OTHER PERSON.
   8290					;       NO TITLE TO OR OWNERSHIP OF THE SOFTWARE IS HEREBY TRANSFERRED.
   8291					;
   8292					;       THE INFORMATION CONTAINED IN THIS SOFTWARE IS SUBJECT TO CHANGE  WITHOUT
   8293					;       NOTICE  AND SHOULD NOT BE CONSTRUED AS A COMMITMENT BY DIGITAL EQUIPMENT
   8294					;       CORPORATION.
   8295					;
   8296					;       DIGITAL ASSUMES NO RESPONSIBILITY FOR THE  USE  OR  RELIABILITY  OF  ITS
   8297					;       SOFTWARE ON EQUIPMENT WHICH IS NOT SUPPILED BY DIGITAL.
   8298					;
   8299					;		MODULE: "KLINIK" SUPPORT
   8300					;
   8301					;		VERSION: 06-06
   8302					;
   8303					;		AUTHOR: R. BELANGER
   8304					;
   8305					;		DATE: 7703.04
   8306					;
   8307					;	THIS MODULE CONTAINS:
   8308					;
   8309					;	1) SET CLEAR KLINIK CODE
   8310					;	2) WHAT KLINIK CODE
SWKLN -- SET/CLEAR/WHAT "KLINIK	MACRO M1113  10-NOV-81 17:48  PAGE 220
.SCKLN -- THE "SET / CLEAR KLINIK" COMMAND 7709.20

   8312					.SBTTL	.SCKLN -- THE "SET / CLEAR KLINIK" COMMAND 7709.20
   8313
   8314					;+
   8315					; .SCKLN -- THE SET / CLEAR KLINIK COMMAND
   8316					;
   8317					; THIS SUBROUTINE WILL SET OR CLEAR THE KLINIK PARAMETERS FOR THE
   8318					; RSX20F FRONT END. THE CLEAR COMMAND SIMPLY CLEARS THE KLINIK
   8319					; THE KLINIK ENABLE FLAG AND REQUESTS THE KLINIK TERMINATION TASK
   8320					; "KLD" IN ORDER THAT THE OPERATOR BE NOTIFIED.
   8321					;
   8322					; THE "SET KLINIK" COMMAND WILL PROMPT THE OPERATOR FOR THE REQUIRED
   8323					; KLINIK PARAMETERS, VALIDATE THEM AND PASS THEM TO THE RSX20F EXECUTIVE.
   8324					;
   8325					; INPUT ARGUMENTS:
   8326					;
   8327					;	NONE.
   8328					;
   8329					; OUTPUT ARGUMENTS:
   8330					;
   8331					;	NONE.
   8332					;
   8333					; ERROR CODES RETURNED:
   8334					;
   8335					;	IPC -- ILLEGAL PASSWORD CHARACTER.
   8336					;	KWE -- KLINIK WINDOW ERROR.
   8337					;	NPI -- NULL PASSWORD ILLEGAL.
   8338					;	PTL -- PASSWORD TOO LONG.
   8339					;	SKI -- SET KLINIK ILLEGAL WHILE ACTIVE.
   8340					;-
   8341
   8342						.MCALL	.ENB6,.INH6,WTSE$S,CLEF$S
SWKLN -- SET/CLEAR/WHAT "KLINIK	MACRO M1113  10-NOV-81 17:48  PAGE 221
.SCKLN -- THE "SET / CLEAR KLINIK" COMMAND 7709.20

   8344						.ENABL	LSB
   8345
   8346	016534				.SCKLN::
   8347	016534					CALL	.CKEOC		; MUST HAVE E-O-C
	016534	004737 	000000G			 JSR	PC,.CKEOC
   8348	016540	005737 	000000G			TST	.NOTSW		; IS THIS A CLEAR?
   8349	016544	001402 				BEQ	10$		; NO -- GO ON
   8350	016546	000137 	017456'			JMP	80$		; YES -- DO IT
   8351						;
   8352	016552				10$:
   8353	016552	105737 	000000G			TSTB	.KLNSW+0	; IS KLINIK ALREADY ACTIVE??
   8354	016556	001055 				BNE	SCKSKI		; YES -- COMPLAIN
   8355	016560					PUSH	R5		; SET UP TO GET KLINIK PARAMETERS
	016560	010546 				 MOV	R5,-(SP)
   8356	016562	012700 	004632'			MOV	#SCKMS4,R0	; .MESSAGE POINTER TO R0
   8357	016566					CALL	.TYMSF		; .FORCE IT OUT
	016566	004737 	000000G			 JSR	PC,.TYMSF
   8358	016572	012701 	000000G			MOV	#.CIBFR,R1	; .BUFFER POINTER TO R1
   8359	016576	010105 				MOV	R1,R5		; .AND R5
   8360	016600					CALL	.GTLIN		; .READ KLINIK MODE
	016600	004737 	000000G			 JSR	PC,.GTLIN
   8361	016604	012700 	000000G			MOV	#.KLMT1,R0	; .KLINIK MODE TABLE POINTER TO R0
   8362	016610					CALL	.TSCAN		; .SCAN THE TABLE
	016610	004737 	000000G			 JSR	PC,.TSCAN
   8363	016614	116046 	000002 			MOVB	2(R0),-(SP)	; .KLINIK MODE FLAG TO STACK
   8364	016620	100462 				BMI	25$		; READ WINDOW DATA IF USER
   8365	016622	012700 	004517'			MOV	#SCKMS0,R0	; ..MESSAGE POINTER TO R0
   8366	016626					CALL	.TYMSF		; ..FORCE THE MESSAGE
	016626	004737 	000000G			 JSR	PC,.TYMSF
   8367	016632	012701 	000000G			MOV	#.CIBFR,R1	; ..USE THE INPUT DEVICE BUFFER
   8368	016636					CALL	.GTLIN		; ..READ THE LINE
	016636	004737 	000000G			 JSR	PC,.GTLIN
   8369	016642	001415 				BEQ	SCKNPI		; ..GIVE "NPI" ERROR IF NULL PASSWORD
   8370	016644	013700 	000000G			MOV	.INCHC,R0	; ..CHARACTER COUNT TO R0
   8371	016650	022700 	000006 			CMP	#^D6,R0		; ..IS THE PASSWORD TOO LONG?
   8372	016654	002413 				BLT	SCKPTL		; ..YES -- GIVE "PTL" ERROR
   8373	016656	160001 				SUB	R0,R1		; ..NO -- ADJUST THE STRING POINTER
   8374	016660	012702 	001276'			MOV	#KLNPWD,R2	; ..POINT TO THE PASSWORD
   8375	016664	005022 				CLR	(R2)+		; ..CLEAR IT
   8376	016666	005022 				CLR	(R2)+		; ..
   8377	016670	005012 				CLR	(R2)		; ..SO
   8378	016672	024242 				CMP	-(R2),-(R2)	; ..RESET THE POINTER
   8379	016674	000415 				BR	15$		; ..AND GO ON
   8380						;
   8381	016676				SCKNPI:
   8382	016676					ERROR$	NPI		; ERROR -- NULL PASSWORD ILLEGAL
	016676	012746 	055011 			 MOV	#^RNPI,-(SP)
	016702	104400 				 TRAP	TC.ERR
   8383						;
   8384	016704				SCKPTL:
   8385	016704					ERROR$	PTL		; ERROR -- PASSWORD TOO LONG
	016704	012746 	063454 			 MOV	#^RPTL,-(SP)
	016710	104400 				 TRAP	TC.ERR
   8386						;
   8387	016712				SCKSKI:
   8388	016712					ERROR$	SKI		; ERROR -- ILLEGAL WHILE KLINIK ACTIVE
	016712	012746 	074201 			 MOV	#^RSKI,-(SP)
SWKLN -- SET/CLEAR/WHAT "KLINIK	MACRO M1113  10-NOV-81 17:48  PAGE 221-1
.SCKLN -- THE "SET / CLEAR KLINIK" COMMAND 7709.20

	016716	104400 				 TRAP	TC.ERR
   8389						;
   8390	016720				SCKIPC:
   8391	016720	011204 				MOV	(R2),R4		; OFFENDING CHARACTER TO R4
   8392	016722					ERROR$	IPC		; ERROR -- ILLEGAL PASSWORD CHARACTER
	016722	012746 	035303 			 MOV	#^RIPC,-(SP)
	016726	104400 				 TRAP	TC.ERR
   8393						;
   8394	016730				15$:
   8395	016730	112112 				MOVB	(R1)+,(R2)	; ..LOAD THE PASSWORD
   8396	016732	122712 	000060 			CMPB	#'0,(R2)	; ..SEE IF NUMERIC
   8397	016736	003370 				BGT	SCKIPC		; ..TOO SMALL -- GIVE "IPC" ERROR
   8398	016740	122712 	000071 			CMPB	#'9,(R2)	; ..IN RANGE?
   8399	016744	002006 				BGE	20$		; ..YES -- GO ON
   8400	016746	122712 	000101 			CMPB	#'A,(R2)	; ..NO -- IS THE CHARACTER ALPHABETIC?
   8401	016752	003362 				BGT	SCKIPC		; ..TOO SMALL -- GIVE "IPC" ERROR
   8402	016754	122712 	000132 			CMPB	#'Z,(R2)	; ..[TCO 4.2084] IS IT REALLY IN RANGE?
   8403	016760	002757 				BLT	SCKIPC		; ..TOO BIG  -- GIVE "IPC" ERROR
   8404	016762				20$:
   8405	016762	105722 				TSTB	(R2)+		; ..[TCO 4.2084] ADVANCE BYTE POINTER
   8406	016764	077017 				SOB	R0,15$		; ..LOOP UNTIL DONE
   8407	016766				25$:
   8408	016766	012700 	004532'			MOV	#SCKMS1,R0	; .."FROM" MESSAGE POINTER
   8409	016772					CALL	.TYMSG		; ..PRINT IT
	016772	004737 	000000G			 JSR	PC,.TYMSG
   8410	016776	005046 				CLR	-(SP)		; ..CLEAR A BUFFER FOR THE START DATE
   8411	017000	005046 				CLR	-(SP)		; ...
   8412	017002	010600 				MOV	SP,R0		; ....POINT TO IT
   8413	017004					CALL	.GTDAT		; ....GET WINDOW OPEN DATE
	017004	004737 	005600'			 JSR	PC,.GTDAT
   8414	017010	012700 	004532'			MOV	#SCKMS1,R0	; ....SAME MESSAGE
   8415	017014					CALL	.TYMSG		; ....PRINT IT
	017014	004737 	000000G			 JSR	PC,.TYMSG
   8416	017020	005046 				CLR	-(SP)		; ....CLEAR A SPACE FOR THE START TIME
   8417	017022	010600 				MOV	SP,R0		; .....POINT TO IT
   8418	017024					CALL	.GTTIM		; .....GET WINDOW OPEN TIME
	017024	004737 	006244'			 JSR	PC,.GTTIM
   8419	017030	001002 				BNE	30$		; .....GO ON IF NOT DEFAULT
   8420	017032	013716 	000000G			MOV	.SSM,(SP)	; .....ELSE SET DEFAULT FROM THE SYSTEM
   8421	017036				30$:
   8422	017036	012700 	004556'			MOV	#SCKMS2,R0	; ....."TO" MESSAGE POINTER
   8423	017042					CALL	.TYMSG		; .....OUTPUT THAT
	017042	004737 	000000G			 JSR	PC,.TYMSG
   8424	017046	005046 				CLR	-(SP)		; .....CLEAR A BUFFER FOR THE END DATE
   8425	017050	005046 				CLR	-(SP)		; ......
   8426	017052	010600 				MOV	SP,R0		; .......POINT TO IT
   8427	017054					CALL	.GTDAT		; .......GET THE END DATE
	017054	004737 	005600'			 JSR	PC,.GTDAT
   8428	017060	001044 				BNE	50$		; .......GO ON IF NOT DEFAULT
   8429	017062	016616 	000006 			MOV	6(SP),(SP)	; .......DEFAULT -- GET OPEN DATE
   8430	017066	016666 	000010 	000002 		MOV	10(SP),2(SP)	; .......LOAD IT INTO CLOSE DATE
   8431	017074	105720 				TSTB	(R0)+		; .......GET OVER THE YEAR
   8432	017076	112002 				MOVB	(R0)+,R2	; .......MONTH TO R2
   8433	017100	105210 				INCB	(R0)		; .......INCREMENT THE DATE
   8434	017102	122702 	000002 			CMPB	#^D2,R2		; .......IS THIS FEBRUARY?
   8435	017106	001422 				BEQ	45$		; .......YES -- HANDLE SPECIAL CASE
   8436	017110	122710 	000036 			CMPB	#^D30,(R0)	; .......NO -- HOW MANY DAYS?
SWKLN -- SET/CLEAR/WHAT "KLINIK	MACRO M1113  10-NOV-81 17:48  PAGE 221-2
.SCKLN -- THE "SET / CLEAR KLINIK" COMMAND 7709.20

   8437	017114	002026 				BGE	50$		; .......ALL OK IF .LE. 30.
   8438	017116	012701 	172452 			MOV	#^C5325,R1	; .......BIT MASK TO R1
   8439	017122				35$:
   8440	017122	006201 				ASR	R1		; .......SHIFT IT RIGHT
   8441	017124	077202 				SOB	R2,35$		; .......TILL DONE
   8442	017126	103021 				BCC	50$		; .......ALL OK IF CC-C IS CLEAR
   8443	017130				40$:
   8444	017130	112710 	000001 			MOVB	#^D1,(R0)	; .......SET THE DAY TO 1
   8445	017134	105240 				INCB	-(R0)		; .......INCREMENT THE MONTH
   8446	017136	122710 	000014 			CMPB	#^D12,(R0)	; .......DECEMBER?
   8447	017142	002013 				BGE	50$		; .......YES -- GO ON
   8448	017144	012710 	000001 			MOV	#^D1,(R0)	; .......NO -- SET THE MONTH TO JANUARY
   8449	017150	105240 				INCB	-(R0)		; .......AND INCREMENT THE YEAR
   8450	017152	000407 				BR	50$		; .......EXIT
   8451						;
   8452	017154				45$:
   8453	017154	122710 	000034 			CMPB	#^D28,(R0)	; .......28 DAYS?
   8454	017160	002004 				BGE	50$		; .......YES -- GO ON
   8455	017162	132760 	000003 	177776 		BITB	#3,-2(R0)	; .......NO -- LEAP YEAR?
   8456	017170	001357 				BNE	40$		; .......NO -- SET TO MARCH 1
   8457	017172				50$:
   8458	017172	012700 	004556'			MOV	#SCKMS2,R0	; .......SAME MESSAGE FOR END TIME
   8459	017176					CALL	.TYMSG		; .......PRINT IT
	017176	004737 	000000G			 JSR	PC,.TYMSG
   8460	017202	005046 				CLR	-(SP)		; .......CLEAR A SPACE FOR THE END TIME
   8461	017204	010600 				MOV	SP,R0		; ........POINT TO IT
   8462	017206					CALL	.GTTIM		; ........GET THE END TIME
	017206	004737 	006244'			 JSR	PC,.GTTIM
   8463	017212	001002 				BNE	55$		; ........GO ON IF NOT DEFAULT
   8464	017214	016616 	000006 			MOV	6(SP),(SP)	; ........ELSE SET DEFAULT
   8465	017220				55$:
   8466	017220	126666 	000002 	000010 		CMPB	2(SP),10(SP)	; ........ARE THE YEARS IN RANGE?
   8467	017226	002416 				BLT	SCKKWE		; ........NO -- GIVE "KWE" ERROR
   8468	017230	003020 				BGT	60$		; ........YES -- SAME YEAR?
   8469	017232	126666 	000003 	000011 		CMPB	3(SP),11(SP)	; ........YES -- ARE THE MONTHS OK?
   8470	017240	002411 				BLT	SCKKWE		; ........NO -- GIVE "KWE" ERROR
   8471	017242	003013 				BGT	60$		; ........YES -- SAME MONTH?
   8472	017244	126666 	000004 	000012 		CMPB	4(SP),12(SP)	; ........YES -- ARE THE DATES OK?
   8473	017252	002404 				BLT	SCKKWE		; ........NO -- GIVE "KWE" ERROR
   8474	017254	003006 				BGT	60$		; ........YES -- SAME DATE?
   8475	017256	021666 	000006 			CMP	(SP),6(SP)	; ........YES -- ARE THE TIMES OK?
   8476	017262	101003 				BHI	60$		; ........YES -- GO ON
   8477	017264				SCKKWE:
   8478	017264					ERROR$	KWE		; ERROR -- KLINIK WINDOW ERROR
	017264	012746 	044135 			 MOV	#^RKWE,-(SP)
	017270	104400 				 TRAP	TC.ERR
   8479	017272				60$:
   8480	017272	005000 				CLR	R0		; ........CLEAR R0
   8481	017274	105766 	000014 			TSTB	14(SP)		; ........LOOK AT THE KLINIK MODE
   8482	017300	002423 				BLT	65$		; ........GO ON IF USER
   8483	017302	012700 	004603'			MOV	#SCKMS3,R0	; ........ASK FOR HIGHEST CONSOLE MODE
   8484	017306					CALL	.TYMSF		; ........FORCE IT
	017306	004737 	000000G			 JSR	PC,.TYMSF
   8485	017312	012701 	000000G			MOV	#.CIBFR,R1	; ........POINT TO THE INPUT BUFFER
   8486	017316	010105 				MOV	R1,R5		; ........AND R5 TOO
   8487	017320					CALL	.GTLIN		; ........READ THE RESPONSE
	017320	004737 	000000G			 JSR	PC,.GTLIN
SWKLN -- SET/CLEAR/WHAT "KLINIK	MACRO M1113  10-NOV-81 17:48  PAGE 221-3
.SCKLN -- THE "SET / CLEAR KLINIK" COMMAND 7709.20

   8488	017324					CALL	.CKOBJ		; ........MUST HAVE AN OBJECT
	017324	004737 	000000G			 JSR	PC,.CKOBJ
   8489	017330	012700 	000000G			MOV	#.KLMTB,R0	; ........TABLE POINTER TO R0
   8490	017334					CALL	.TSCAN		; ........SCAN THE TABLE
	017334	004737 	000000G			 JSR	PC,.TSCAN
   8491	017340	116000 	000002 			MOVB	2(R0),R0	; ........SAVE THE CONSOLE MODE
   8492	017344					CALL	.CKEOC		; ........MUST HAVE E-O-C
	017344	004737 	000000G			 JSR	PC,.CKEOC
   8493	017350				65$:
   8495	017350					.INH6			; ........DISALLOW INTERRUPTS
	017350	013746 	177776 			MOV	@#PS,-(SP)
	017354	112737 	000300 	177776 		MOVB	#300,@#PS
   8496	017362					POP	R3		;;; .........SAVED PSW TO R3
	017362	012603 				 MOV	(SP)+,R3
   8498	017364	110037 	000001G			MOVB	R0,.KLNMD+1	;;; ........SET THE CONSOLE MODE
   8499	017370					POP	.KLNTT		;;; ........SET THE END TIME
	017370	012637 	000000G			 MOV	(SP)+,.KLNTT
   8500	017374					POP	.KLNTD		;;; .......GET THE END DATE
	017374	012637 	000000G			 MOV	(SP)+,.KLNTD
   8501	017400					POP	.KLNTD+2	;;; ......BOTH HALVES
	017400	012637 	000002G			 MOV	(SP)+,.KLNTD+2
   8502	017404					POP	.KLNFT		;;; .....SET THE START TIME
	017404	012637 	000000G			 MOV	(SP)+,.KLNFT
   8503	017410					POP	.KLNFD		;;; ....POINT TO THE START DATE
	017410	012637 	000000G			 MOV	(SP)+,.KLNFD
   8504	017414					POP	.KLNFD+2	;;; ...BOTH HALVES
	017414	012637 	000002G			 MOV	(SP)+,.KLNFD+2
   8505	017420	112637 	000000G			MOVB	(SP)+,.KLNMD+0	;;; ..SET THE KLINIK MODE
   8506	017424	002410 				BLT	75$		;;; .GO ON IF USER
   8507	017426	012702 	000006 			MOV	#^D6,R2		;;; .CHARACTER COUNT TO R2
   8508	017432	012701 	000000G			MOV	#.KLNPW,R1	;;; .POINT TO THE PASSWORD
   8509	017436	012700 	001276'			MOV	#KLNPWD,R0	;;; .POINT TO OURS
   8510	017442				70$:
   8511	017442	112021 				MOVB	(R0)+,(R1)+	;;; .LOAD THE PASSWORD
   8512	017444	077202 				SOB	R2,70$		;;; .LOOP TILL DONE
   8513	017446				75$:
   8515	017446	010337 	177776 			MOV	R3,@#PS		;;; ENABLE INTERRUPTS
   8517	017452					POP	R5		; .RESTORE R5
	017452	012605 				 MOV	(SP)+,R5
   8518	017454	000421 				BR	85$		; AND EXIT
   8519						;
   8520	017456				80$:
   8521	017456	105737 	000000G			TSTB	.KLNMD+0	; ANYTHING TO CLEAR??
   8522	017462	001502 				BEQ	100$		; NO -- JUST TELL OPERATOR ITS ALREADY CLEAR
   8524	017464					.INH6			; DISALLOW INTERRUPTS
	017464	013746 	177776 			MOV	@#PS,-(SP)
	017470	112737 	000300 	177776 		MOVB	#300,@#PS
   8526	017476	105037 	000000G			CLRB	.KLNMD+0	;;; CLEAR KLINIK
   8527	017502	105037 	000000G			CLRB	.KLNPW+0	;;; CLEAR THE KLINIK PASSWORD
   8528	017506	112737 	000001 	000001G		MOVB	#1,.KLNSW+1	;;; MARK THAT WE WANT A CLEAR
   8530	017514					.ENB6			;;; ENABLE INTERRUPTS
	017514	012637 	177776 			MOV	(SP)+,@#PS
   8532	017520				85$:
   8534	017520	032737 	000000G	000002G		BIT	#EF.PR1,.COMEF+2 ; ANY THING THERE TO GET THIS?
   8535	017526	001460 				BEQ	100$		; NO -- GO ON
   8536	017530					CLEF$S	#E.FKLN		; RESET THE FLAG
	017530	012746 	000004 			MOV	#E.FKLN,-(SP)
SWKLN -- SET/CLEAR/WHAT "KLINIK	MACRO M1113  10-NOV-81 17:48  PAGE 221-4
.SCKLN -- THE "SET / CLEAR KLINIK" COMMAND 7709.20

	017534	012746 				MOV	(PC)+,-(SP)
	017536	   037 	   002 			.BYTE	31.,2
	017540	104375 				EMT	375
   8538	017542	012700 	000000G			MOV	#.KLNPB,R0	; BUFFER POINTER TO R0
   8539	017546	012710 	000000G			MOV	#KLNPLN,(R0)	; BUFFER SIZE TO HEADER
   8540	017552	012701 	100000G			MOV	#BC.SKP+100000,R1 ; FUNCTION CODE TO R1
   8541	017556	005002 				CLR	R2		; NO EVENT FLAG
   8542	017560	012703 	000000G			MOV	#D.CCPU,R3	; DEVICE CODE TO R3
   8543	017564					CALL	..STIN		; SEND THE NEW PARAMETERS
	017564	004737 	000000G			 JSR	PC,..STIN
   8544	017570	012702 	000000C			MOV	#KLNLGL/2,R2	; ARGUMENT COUNT TO R2
   8545	017574	012701 	000000G			MOV	#.KLNPE,R1	; INPUT BLOCK POINTER
   8546	017600	012700 	001276'			MOV	#KLNLGE,R0	; OUTPUT BLOCK POINTER
   8547	017604				90$:
   8548	017604	014140 				MOV	-(R1),-(R0)	; LOAD THE PARAMETERS
   8549	017606	077202 				SOB	R2,90$		; LOOP TILL DONE
   8550	017610	012702 	000001 			MOV	#1,R2		; ASSUME "SET"
   8551	017614	005737 	000000G			TST	.NOTSW		; IS IT??
   8552	017620	001401 				BEQ	95$		; YES -- GO ON
   8553	017622	005402 				NEG	R2		; NO -- INVERT IT
   8554	017624				95$:
   8555	017624	105740 				TSTB	-(R0)		; GET OVER THE LOG CODE
   8556	017626	110240 				MOVB	R2,-(R0)	; SET THE EVENT CODE
   8557	017630	005740 				TST	-(R0)		; BACK OVER THE LOG FLAG
   8558	017632	012740 	000022 			MOV	#22,-(R0)	; SET THE PACKET SIZE
   8559	017636	012701 	100000G			MOV	#BC.HDS+100000,R1 ; FUNCTION CODE TO R1
   8560	017642	012702 	000004 			MOV	#E.FKLN,R2	; EVENT FLAG TO R2
   8561	017646	012703 	000000G			MOV	#D.CKLN,R3	; DEVICE CODE TO R3
   8562	017652					CALL	..STIN		; LOG IT
	017652	004737 	000000G			 JSR	PC,..STIN
   8564	017656					WTSE$S	#E.FKLN		; WAIT FOR IT
	017656	012746 	000004 			MOV	#E.FKLN,-(SP)
	017662	012746 				MOV	(PC)+,-(SP)
	017664	   051 	   002 			.BYTE	41.,2
	017666	104375 				EMT	375
   8566	017670				100$:
   8567					;	BR	.WHKLN		; TELL THE STATE AND EXIT
   8568						;
   8569
   8570						.DSABL	LSB
SWKLN -- SET/CLEAR/WHAT "KLINIK	MACRO M1113  10-NOV-81 17:48  PAGE 222
.SCKLN -- THE "SET / CLEAR KLINIK" COMMAND 7709.20

   8572	001252				.PSECT	DATA
   8573
   8574	001252				KLNLOG:
   8575	001252	000000 				.WORD	0
   8576	001254	000000G				.WORD	DV.LOG
   8577	001256	000000G				.WORD	K.LSCK
   8578	001260	000000 	000000 	000000 		.WORD	0,0,0
   8579	001266	000000 	000000 	000000 		.WORD	0,0,0
   8580	001274	000000 				.WORD	0
   8581		001276'			KLNLGE=.
   8582
   8583	001276				KLNPWD:
   8584	001276	000000 	000000 	000000 		.WORD	0,0,0		; TEMP PASSWORD STORAGE
   8585	004517				.PSECT	MESSAG
   8586
   8587	004517				SCKMS0:
   8588	004517	   120 	   101 	   123 		.ASCIZ	%PASSWORD: %
	004522	   123 	   127 	   117
	004525	   122 	   104 	   072
	004530	   040 	   000
   8589	004532				SCKMS1:
   8590	004532	   101 	   103 	   103 		.ASCIZ	%ACCESS WINDOW OPEN %
	004535	   105 	   123 	   123
	004540	   040 	   127 	   111
	004543	   116 	   104 	   117
	004546	   127 	   040 	   117
	004551	   120 	   105 	   116
	004554	   040 	   000
   8591	004556				SCKMS2:
   8592	004556	   101 	   103 	   103 		.ASCIZ	%ACCESS WINDOW CLOSE %
	004561	   105 	   123 	   123
	004564	   040 	   127 	   111
	004567	   116 	   104 	   117
	004572	   127 	   040 	   103
	004575	   114 	   117 	   123
	004600	   105 	   040 	   000
   8593	004603				SCKMS3:
   8594	004603	   110 	   111 	   107 		.ASCIZ	%HIGHEST CONSOLE MODE: %
	004606	   110 	   105 	   123
	004611	   124 	   040 	   103
	004614	   117 	   116 	   123
	004617	   117 	   114 	   105
	004622	   040 	   115 	   117
	004625	   104 	   105 	   072
	004630	   040 	   000
   8595	004632				SCKMS4:
   8596	004632	   113 	   114 	   111 		.ASCIZ	%KLINIK MODE: %
	004635	   116 	   111 	   113
	004640	   040 	   115 	   117
	004643	   104 	   105 	   072
	004646	   040 	   000
   8597	017670				.PSECT
SWKLN -- SET/CLEAR/WHAT "KLINIK	MACRO M1113  10-NOV-81 17:48  PAGE 223
.WHKLN -- THE "WHAT KLINIK" COMMAND 7702.16

   8599					.SBTTL	.WHKLN -- THE "WHAT KLINIK" COMMAND 7702.16
   8600
   8601					;+
   8602					; .WHKLN -- THE "WHAT KLINIK" COMMAND
   8603					;
   8604					; THIS SUBROUTINE WILL REPORT THE STATE OF THE KLINIK PARAMETERS
   8605					; ON THE CONSOLE DEVICE.
   8606					;
   8607					; INPUT ARGUMENTS:
   8608					;
   8609					;	NONE.
   8610					;
   8611					; OUTPUT ARGUMENTS:
   8612					;
   8613					;	NONE.
   8614					;
   8615					; ERROR CODES RETURNED:
   8616					;
   8617					;	NONE.
   8618					;-
   8619
   8620						.MCALL	DIR$,RQST$
   8621
   8622	017670				.WHKLN::
   8623	017670					CALL	.CKEOC		; MUST HAVE E-O-C
	017670	004737 	000000G			 JSR	PC,.CKEOC
   8624	017674	012700 	004650'			MOV	#WHKMS0,R0	; MESSAGE POINTER TO R0
   8625	017700					CALL	.TYMSG		; PRINT IT
	017700	004737 	000000G			 JSR	PC,.TYMSG
   8626	017704	012700 	004661'			MOV	#WHKMS1,R0	; ASSUME KLINIK IS DISABLED
   8627	017710	105737 	000000G			TSTB	.KLNMD+0	; IS IT?
   8628	017714	001514 				BEQ	40$		; YES -- SAY SO
   8629	017716	012700 	005000'			MOV	#WHKMSA,R0	; NO -- ASSUME ACTIVE
   8630	017722	105737 	000000G			TSTB	.KLNSW+0	; IS IT??
   8631	017726	001002 				BNE	10$		; YES -- GO ON
   8632	017730	012700 	005032'			MOV	#WHKMSI,R0	; NO -- SAY INACTIVE
   8633	017734				10$:
   8634	017734	005737 	000000G			TST	.KLNFD		; IS THERE A DATE??
   8635	017740	001005 				BNE	20$		; YES -- KLINIK REALLY ALIVE
   8636	017742	012700 	005007'			MOV	#WHKMRB,R0	; NO -- ALIVE FROM REBOOT
   8637	017746					CALL	.TYLIN
	017746	004737 	000000G			 JSR	PC,.TYLIN
   8638	017752	000436 				BR	30$		; TYPE MODE AND EXIT
   8639						;
   8640	017754				20$:
   8641	017754					CALL	.TYLIN		; TYPE STATE
	017754	004737 	000000G			 JSR	PC,.TYLIN
   8642	017760	012700 	004672'			MOV	#WHKMS2,R0	; GET OPEN MESSAGE
   8643	017764					CALL	.TYMSG		; PRINT IT
	017764	004737 	000000G			 JSR	PC,.TYMSG
   8644	017770	012700 	000000G			MOV	#.KLNFD,R0	; POINT TO THE FROM DATE
   8645	017774					CALL	.TYDAT		; PRINT IT
	017774	004737 	006612'			 JSR	PC,.TYDAT
   8646	020000	012700 	000000G			MOV	#.KLNFT,R0	; POINT TO THE FROM TIME
   8647	020004					CALL	.TYTIM		; PRINT IT
	020004	004737 	006726'			 JSR	PC,.TYTIM
   8648	020010					CALL	.TCRLF		; END THE LINE
SWKLN -- SET/CLEAR/WHAT "KLINIK	MACRO M1113  10-NOV-81 17:48  PAGE 223-1
.WHKLN -- THE "WHAT KLINIK" COMMAND 7702.16

	020010	004737 	000000G			 JSR	PC,.TCRLF
   8649	020014	012700 	004720'			MOV	#WHKMS3,R0	; CLOSE MESSAGE POINTER
   8650	020020					CALL	.TYMSG		; PRINT IT
	020020	004737 	000000G			 JSR	PC,.TYMSG
   8651	020024	012700 	000000G			MOV	#.KLNTD,R0	; POINT TO THE TO DATE
   8652	020030					CALL	.TYDAT		; PRINT IT
	020030	004737 	006612'			 JSR	PC,.TYDAT
   8653	020034	012700 	000000G			MOV	#.KLNTT,R0	; POINT TO THE TO TIME
   8654	020040					CALL	.TYTIM		; PRINT IT
	020040	004737 	006726'			 JSR	PC,.TYTIM
   8655	020044					CALL	.TCRLF		; END THE LINE
	020044	004737 	000000G			 JSR	PC,.TCRLF
   8656	020050				30$:
   8657	020050	012700 	005043'			MOV	#WHKMSK,R0	; KLINIK MODE
   8658	020054					CALL	.TYMSG		; PRINT IT
	020054	004737 	000000G			 JSR	PC,.TYMSG
   8659	020060	012700 	000000G			MOV	#USRMSG,R0	; ASSUME USER
   8660	020064	105737 	000000G			TSTB	.KLNMD+0	; IS IT??
   8661	020070	100426 				BMI	40$		; YES -- PRINT AND EXIT
   8662	020072	012700 	000000G			MOV	#REMMSG,R0	; NO -- SAY REMOTE
   8663	020076					CALL	.TYLIN		; PRINT IT
	020076	004737 	000000G			 JSR	PC,.TYLIN
   8664	020102	012700 	004750'			MOV	#WHKMS4,R0	; CONSOLE MODE MESSAGE
   8665	020106					CALL	.TYMSG		; PRINT IT
	020106	004737 	000000G			 JSR	PC,.TYMSG
   8666	020112	012700 	000000G			MOV	#MNTMSG,R0	; MAINTENANCE MODE
   8667	020116	122737 	000007 	000001G		CMPB	#LG.ALL,.KLNMD+1
   8668	020124	001410 				BEQ	40$		; YES -- SAY SO
   8669	020126	012700 	000000G			MOV	#PRGMSG,R0	; NO -- PROGRAMMER MAYBE
   8670	020132	122737 	000003 	000001G		CMPB	#LG.PRM,.KLNMD+1
   8671	020140	001402 				BEQ	40$		; YES -- SAY SO
   8672	020142	012700 	000000G			MOV	#OPRMSG,R0	; NO -- MUST BE OPERATOR
   8673	020146				40$:
   8674	020146	105737 	000001G			TSTB	.KLNSW+1	; IS THIS A CLEAR COMMAND??
   8675	020152	001407 				BEQ	50$		; NO -- JUST GO AWAY
   8676	020154					CALL	.TYLIN		; YES -- PRINT THE LINE
	020154	004737 	000000G			 JSR	PC,.TYLIN
   8677	020160					DIR$	#REQKLD		; REQUEST KLD
	020160	012746 	000114'			MOV	#REQKLD,-(SP)
	020164	104375 				EMT	375
   8678	020166					CALLR	.EXITP		; AND EXIT
	020166	000137 	000000G			 JMP	.EXITP
   8679						;
   8680	020172				50$:
   8681	020172					CALLR	.TYLIN		; PRINT AND EXIT
	020172	000137 	000000G			 JMP	.TYLIN
   8682						;
   8683
   8684	000114				.PSECT	DPBS
   8685
   8686	000114				REQKLD:
   8687	000114					RQST$	KLDISC,,10
	000114	   013 	   007 			.BYTE	11.,7
	000116	043244 	035473 			.RAD50	/KLDISC/
	000122	000000 	000000 			.WORD	0,0
	000126	000010 				.WORD	10
	000130	   000 	   000 			.BYTE	,
SWKLN -- SET/CLEAR/WHAT "KLINIK	MACRO M1113  10-NOV-81 17:48  PAGE 223-2
.WHKLN -- THE "WHAT KLINIK" COMMAND 7702.16

   8688
   8689	020176				.PSECT
SWKLN -- SET/CLEAR/WHAT "KLINIK	MACRO M1113  10-NOV-81 17:48  PAGE 224
.WHKLN -- THE "WHAT KLINIK" COMMAND 7702.16

   8691	004650				.PSECT	MESSAG
   8692
   8693	004650				WHKMS0:
   8694	004650	   040 	   113 	   114 		.ASCIZ	% KLINIK %
	004653	   111 	   116 	   111
	004656	   113 	   040 	   000
   8695	004661				WHKMS1:
   8696	004661	   104 	   111 	   123 		.ASCIZ	%DISABLED%
	004664	   101 	   102 	   114
	004667	   105 	   104 	   000
   8697	004672				WHKMS2:
   8698	004672	   040 	   101 	   103 		.ASCIZ	% ACCESS WINDOW OPEN: %
	004675	   103 	   105 	   123
	004700	   123 	   040 	   127
	004703	   111 	   116 	   104
	004706	   117 	   127 	   040
	004711	   117 	   120 	   105
	004714	   116 	   072 	   040
	004717	   000
   8699	004720				WHKMS3:
   8700	004720	   040 	   101 	   103 		.ASCIZ	% ACCESS WINDOW CLOSED: %
	004723	   103 	   105 	   123
	004726	   123 	   040 	   127
	004731	   111 	   116 	   104
	004734	   117 	   127 	   040
	004737	   103 	   114 	   117
	004742	   123 	   105 	   104
	004745	   072 	   040 	   000
   8701	004750				WHKMS4:
   8702	004750	   040 	   110 	   111 		.ASCIZ	% HIGHEST CONSOLE MODE: %
	004753	   107 	   110 	   105
	004756	   123 	   124 	   040
	004761	   103 	   117 	   116
	004764	   123 	   117 	   114
	004767	   105 	   040 	   115
	004772	   117 	   104 	   105
	004775	   072 	   040 	   000
   8703	005000				WHKMSA:
   8704	005000	   101 	   103 	   124 		.ASCIZ	%ACTIVE%
	005003	   111 	   126 	   105
	005006	   000
   8705	005007				WHKMRB:
   8706	005007	   101 	   103 	   124 		.ASCIZ	%ACTIVE FROM REBOOT%
	005012	   111 	   126 	   105
	005015	   040 	   106 	   122
	005020	   117 	   115 	   040
	005023	   122 	   105 	   102
	005026	   117 	   117 	   124
	005031	   000
   8707	005032				WHKMSI:
   8708	005032	   111 	   116 	   101 		.ASCIZ	%INACTIVE%
	005035	   103 	   124 	   111
	005040	   126 	   105 	   000
   8709	005043				WHKMSK:
   8710	005043	   040 	   113 	   114 		.ASCIZ	% KLINIK MODE: %
	005046	   111 	   116 	   111
	005051	   113 	   040 	   115
SWKLN -- SET/CLEAR/WHAT "KLINIK	MACRO M1113  10-NOV-81 17:48  PAGE 224-1
.WHKLN -- THE "WHAT KLINIK" COMMAND 7702.16

	005054	   117 	   104 	   105
	005057	   072 	   040 	   000
   8711	020176				.PSECT
ZEROC -- ZERO COMMAND MODULE 76	MACRO M1113  10-NOV-81 17:48  PAGE 226
.WHKLN -- THE "WHAT KLINIK" COMMAND 7702.16

   8714					.TITLE	ZEROC -- ZERO COMMAND MODULE 7609.15
   8715
   8716						.IDENT	"006130"
   8717
   8718					;
   8719					;                             COPYRIGHT (C) 1975, 1979 BY
   8720					;                     DIGITAL EQUIPMENT CORPORATION, MAYNARD MASS.
   8721					;
   8722					;       THIS SOFTWARE IS FURNISHED UNDER A LICENSE AND MAY BE  USED  AND  COPIED
   8723					;       ONLY IN ACCORDANCE WITH THE TERMS OF SUCH LICENSE AND WITH THE INCLUSION
   8724					;       OF THE ABOVE COPYRIGHT NOTICE.  THIS SOFTWARE OR ANY OTHER COPIES THERE-
   8725					;       OF  MAY NOT BE PROVIDED OR OTHERWISE MADE AVAILABLE TO ANY OTHER PERSON.
   8726					;       NO TITLE TO OR OWNERSHIP OF THE SOFTWARE IS HEREBY TRANSFERRED.
   8727					;
   8728					;       THE INFORMATION CONTAINED IN THIS SOFTWARE IS SUBJECT TO CHANGE  WITHOUT
   8729					;       NOTICE  AND SHOULD NOT BE CONSTRUED AS A COMMITMENT BY DIGITAL EQUIPMENT
   8730					;       CORPORATION.
   8731					;
   8732					;       DIGITAL ASSUMES NO RESPONSIBILITY FOR THE  USE  OR  RELIABILITY  OF  ITS
   8733					;       SOFTWARE ON EQUIPMENT WHICH IS NOT SUPPILED BY DIGITAL.
   8734					;
   8735					;		MODULE: ZERO COMMAND
   8736					;
   8737					;		VERSION: 06-13
   8738					;
   8739					;		AUTHOR: R. BELANGER
   8740					;
   8741					;		DATE: 7609.15
   8742					;
   8743					;	THIS MODULE CONTAINS:
   8744					;
   8745					;	1) ZERO COMMAND CODE
   8746					;
   8747
   8748						.MCALL	$DEF, DIR$, PRDP$
   8749
   8750	020176					$DEF
ZEROC -- ZERO COMMAND MODULE 76	MACRO M1113  10-NOV-81 17:48  PAGE 227
.ZEROC -- THE "ZERO" COMMAND 7609.15

   8752					.SBTTL	.ZEROC -- THE "ZERO" COMMAND 7609.15
   8753
   8754					;+
   8755					; .ZEROC -- THE "ZERO" COMMAND.
   8756					;
   8757					; THIS ROUTINE WILL SET UP AND EXECUTE A KL "BLT" INSTRUCTION THAT
   8758					; WILL ZERO THE LOWER 256K OF KL MEMORY. KL AC 0 IS USED AS THE
   8759					; BLT POINTER, AND THUS IS NOT ZEROED.
   8760					;
   8761					; INPUT ARGUMENTS:
   8762					;
   8763					;	NONE.
   8764					;
   8765					; OUTPUT ARGUMENTS:
   8766					;
   8767					;	NONE
   8768					;
   8769					; ERROR CODES RETURNED:
   8770					;
   8771					;	NONE.
   8772					;-
   8773
   8774	020176				.ZEROC::
   8775	020176					CALL	.CKRUN		; SEE IF THE KL IS RUNNING
	020176	004737 	000000G			 JSR	PC,.CKRUN
   8776	020202	005046 				CLR	-(SP)		; CLEAR A BUFFER ON THE STACK
   8777	020204	005046 				CLR	-(SP)		; .
   8778	020206	005046 				CLR	-(SP)		; ..
   8779	020210	010600 				MOV	SP,R0		; ...POINT TO THE BUFFER
   8780	020212					CALL	.GTKLA		; ...READ THE FIRST ADDRESS
	020212	004737 	000000G			 JSR	PC,.GTKLA
   8781	020216	010001 				MOV	R0,R1		; ...SAVE POINTER TO FIRST ADDRESS
   8782	020220	122704 	000072 			CMPB	#':,R4		; ...IS LAST CHARACTER A BRACKET?
   8783	020224	001403 				BEQ	10$		; ...YES -- GO ON
   8784	020226	162706 	000006 			SUB	#^D6,SP		; ...NO -- FUDGE THE STACK POINTER
   8785	020232	000407 				BR	20$		; ......AND ASSUME IT IS E-O-C
   8786						;
   8787
   8788					;	[CONTINUED ON THE FOLLOWING PAGE]
ZEROC -- ZERO COMMAND MODULE 76	MACRO M1113  10-NOV-81 17:48  PAGE 228
.ZEROC -- THE "ZERO" COMMAND 7609.15

   8790					;	[CONTINUED FROM THE PREVIOUS PAGE]
   8791
   8792	020234				10$:
   8793	020234	105725 				TSTB	(R5)+		; ...GET OVER THE SEPARATOR
   8794	020236	005046 				CLR	-(SP)		; ...CLEAR ANOTHER BUFFER
   8795	020240	005046 				CLR	-(SP)		; ....
   8796	020242	005046 				CLR	-(SP)		; .....
   8797	020244	010600 				MOV	SP,R0		; ......GET SECOND BUFFER POINTER
   8798	020246					CALL	.GTKLA		; ......READ THE SECOND ADDRESS
	020246	004737 	000000G			 JSR	PC,.GTKLA
   8799	020252				20$:
   8800	020252					CALL	.CKEOC		; ......MUST BE E-O-C
	020252	004737 	000000G			 JSR	PC,.CKEOC
   8801	020256					PUSH	<R0,R1>		; ......SAVE THE POINTERS
	020256	010046 				 MOV	R0,-(SP)
	020260	010146 				 MOV	R1,-(SP)
   8802	020262					CALL	.STPKL		; ........STOP THE KL
	020262	004737 	000000G			 JSR	PC,.STPKL
   8803	020266	032737 	100000 	000000G		BIT	#KF.CLK,.KLFLG	; ........IS THE CLOCK RUNNING?
   8804	020274	001002 				BNE	30$		; ........YES -- GO ON
   8805	020276					CALL	.STCLK		; ........NO -- START IT
	020276	004737 	000000G			 JSR	PC,.STCLK
   8806	020302				30$:
   8807	020302					POP	<R1,R0>		; ........RESTORE THE POINTERS
	020302	012601 				 MOV	(SP)+,R1
	020304	012600 				 MOV	(SP)+,R0
   8808	020306	012702 	000000G			MOV	#.TPDEC,R2	; ......DISPATCH FOR DECREMENT
   8809	020312					CALL	.TPCMP		; ......COMPARE ADDRESSES
	020312	004737 	000000G			 JSR	PC,.TPCMP
   8810	020316	002402 				BLT	40$		; ......ALL OK IF (R1) .GT. (R0)
   8811	020320	012702 	000000G			MOV	#.TPINC,R2	; ......SET UP FOR FORWARD
   8812	020324				40$:
   8813	020324	010003 				MOV	R0,R3		; ......END ADDRESS TO R3
   8814	020326	010100 				MOV	R1,R0		; ......BEGINNING ADDESSS TO R0
   8815	020330	010301 				MOV	R3,R1		; ......END ADDRESS TO R1
   8816	020332	005046 				CLR	-(SP)		; ......CLEAR A DATA BUFFER
   8817	020334	005046 				CLR	-(SP)		; .......
   8818	020336	005046 				CLR	-(SP)		; ........
   8819	020340	010603 				MOV	SP,R3		; .........POINT TO IT
   8820	020342	010337 	000140'			MOV	R3,ZERDPB+6	; .........SET UP THE DEPOSIT DPB
   8821	020346	010037 	000136'			MOV	R0,ZERDPB+4	; .........SO
   8822
   8823					;	[CONTINUED ON THE FOLLOWING PAGE]
ZEROC -- ZERO COMMAND MODULE 76	MACRO M1113  10-NOV-81 17:48  PAGE 229
.ZEROC -- THE "ZERO" COMMAND 7609.15

   8825					;	[CONTINUED FROM THE PREVIOUS PAGE]
   8826
   8827	020352				50$:
   8828	020352	012703 	000144 			MOV	#^D100,R3	; .........LOOP COUNT TO R4
   8829	020356				60$:
   8833	020356					DIR$	#ZERDPB		; .........DO THE DEPOSIT
	020356	012746 	000132'			MOV	#ZERDPB,-(SP)
	020362	104375 				EMT	375
   8835	020364	103415 				BCS	80$		; .........ERROR IF CC-C IS SET
   8836	020366					CALL	.TPCMP		; .........ARE WE DONE?
	020366	004737 	000000G			 JSR	PC,.TPCMP
   8837	020372	001405 				BEQ	70$		; .........YES -- EXIT
   8838	020374					CALL	(R2)		; .........NO -- COMPUTE NEXT ADDRESS
	020374	004712 				 JSR	PC,(R2)
   8839	020376	077311 				SOB	R3,60$		; .........LOOP THRU THIS SET
   8840	020400					CALL	.CKCTC		; .........LOOK FOR CONTROL-C
	020400	004737 	000000G			 JSR	PC,.CKCTC
   8841	020404	000762 				BR	50$		; .........AND GO ON
   8842						;
   8843	020406				70$:
   8844	020406	062706 	000022 			ADD	#^D18,SP	; .........CLEAR THE STACK
   8845	020412	005037 	000000G			CLR	.SVKLF		; CLEAR ".SVKLF"
   8846	020416					RETURN			; TO CALLER
	020416	000207 				 RTS	PC
   8847	020420				80$:
   8848	020420	022737 	000000G	000000G		CMP	#IE.EBX,$DSW	; IS THE EBOX STOPPED?
   8849	020426	001403 				BEQ	ZERESD		; YES -- SAY SO
   8850	020430					ERROR$	DMF		; NO -- ERROR -- DEPOSIT MEMORY FAILED
	020430	012746 	015416 			 MOV	#^RDMF,-(SP)
	020434	104400 				 TRAP	TC.ERR
   8851						;
   8852	020436				ZERESD:
   8853	020436					ERROR$	ESD		; ERROR -- EBOX STOPPED - DEPOSIT
	020436	012746 	021074 			 MOV	#^RESD,-(SP)
	020442	104400 				 TRAP	TC.ERR
   8854						;
   8855
   8856	000132				.PSECT	DPBS
   8857
   8858	000132				ZERDPB:
   8859	000132					PRDP$	0,0,0,ED.PHY
	000132	   011 	   005 			.BYTE	DR.DTE,5
	000134	   016 	   200 			.BYTE	DF.PDP,ED.PHY
	000136	000000 				.WORD	0
	000140	000000 				.WORD	0
	000142	000000 				.WORD	0
   8860
   8861	020444				.PSECT
ZEROC -- ZERO COMMAND MODULE 76	MACRO M1113  10-NOV-81 17:48  PAGE 231
.ZEROC -- THE "ZERO" COMMAND 7609.15

   8864
   8865						.EVEN
   8866		000001 				.END
ZEROC -- ZERO COMMAND MODULE 76	MACRO M1113  10-NOV-81 17:48  PAGE 231-1
SYMBOL TABLE

ABTAB   000502R     002	ASH   = 000240   	CCA   = 000014   	CONI  = 000005   	DF.EMN= 000006
ACADR   000776RG    002	ASHC  = 000244   	CCEMSG  004060R     003	CONKNC  000152R  	DF.KLR= 000012
ACDAT   000736R     002	ATOMSG  004044R     003	CC.ALL= 003417   	CONO  = 000004   	DF.KLW= 000013
ADD   = 000270   	AUGMSG= ****** GX	CC.NRM= 000000   	CONSO = 000007   	DF.KLX= 000014
ADDB  = 000273   	A.LULU= 000002   	CDD   = 000020   	CONSZ = 000006   	DF.OFF= 000002
ADDI  = 000271   	A.LUNA= 000004   	CDMTB   001164R     002	CPVMSG= ****** GX	DF.ON = 000003
ADDM  = 000272   	A.LUNU= 000006   	CD.ALL= 003400   	CRATAB  000364R     002	DF.PDP= 000016
ADH   = 000000   	BC.HDS= ****** GX	CD.CLC= 000400   	CRLTAB  000400R     002	DF.PEX= 000015
ADL   = 000100   	BC.SKP= ****** GX	CD.CRC= 002000   	CRMMSG= ****** GX	DG1B10  001534R     003
AND   = 000404   	BIT0  = 000001   	CD.DPC= 001000   	CR.ALL= 000003   	DG1B11  001503R     003
ANDB  = 000407   	BIT00 = 000001   	CD.NRM= 000000   	CR.CR1= 000001   	DG1B5   001757R     003
ANDCA = 000410   	BIT01 = 000002   	CHNPNT= 000001   	CR.CR2= 000002   	DG1B6   001714R     003
ANDCAB= 000413   	BIT02 = 000004   	CH.ALP= 000001   	CR.FUL= 000000   	DG1B7   001651R     003
ANDCAI= 000411   	BIT03 = 000010   	CH.ANM= 000003   	CR.HLF= 000001   	DG1B8   001605R     003
ANDCAM= 000412   	BIT04 = 000020   	CH.AOP= 000100   	CR.NRM= 000000   	DG1B9   001560R     003
ANDCB = 000440   	BIT05 = 000040   	CH.END= 000034   	CR.QTR= 000002   	DG3B1   002021R     003
ANDCBB= 000443   	BIT06 = 000100   	CH.EOC= 000010   	CR.SLO= 000003   	DIAG1 = 174430
ANDCBI= 000441   	BIT07 = 000200   	CH.EOL= 000004   	CS.ALL= 000014   	DIAG2 = 174432
ANDCBM= 000442   	BIT08 = 000400   	CH.EOS= 000020   	CS.CS1= 000004   	DIAG3 = 174436
ANDCM = 000420   	BIT09 = 001000   	CH.ILL= 000200   	CS.CS2= 000010   	DIATAB  000330R     002
ANDCMB= 000423   	BIT1  = 000002   	CH.NUL= 000000   	CS.EXP= 177670   	DIKL10= 000010
ANDCMI= 000421   	BIT10 = 002000   	CH.NUM= 000002   	CS.EXT= 000010   	DIV   = 000234
ANDCMM= 000422   	BIT11 = 004000   	CH.PFX= 000040   	CS.FST= 000004   	DIVB  = 000237
ANDI  = 000405   	BIT12 = 010000   	CIDLUN= 000001   	CS.MGN= 000004   	DIVI  = 000235
ANDM  = 000406   	BIT13 = 020000   	CLDSTB  001074R     002	CS.NRM= 000000   	DIVM  = 000236
AOBJN = 000253   	BIT14 = 040000   	CLEAR = 000400   	CS.UDF= 000014   	DLYCNT= 174400
AOBJP = 000252   	BIT15 = 100000   	CLEARB= 000403   	CTLMSG= ****** GX	DMOVE = 000120
AOJ   = 000340   	BIT2  = 000004   	CLEARI= 000401   	CYCLS = 000002   	DMOVEM= 000124
AOJA  = 000344   	BIT3  = 000010   	CLEARM= 000402   	DATAI = 000001   	DMOVN = 000121
AOJE  = 000342   	BIT4  = 000020   	CLOSE = 000070   	DATAO = 000003   	DMOVNM= 000125
AOJG  = 000347   	BIT5  = 000040   	CLRTTB  001120R     002	DATBUF  001232R     002	DON10C= 040000
AOJGE = 000345   	BIT6  = 000100   	CLSRTB  001110R     002	DATE  = 000004   	DON10S= 100000
AOJL  = 000341   	BIT7  = 000200   	CMD1    002341R     003	DCOMST= 000001   	DON11C= 000100
AOJLE = 000343   	BIT8  = 000400   	CMD1A   002360R     003	DECMSG= ****** GX	DON11S= 000200
AOJN  = 000346   	BIT9  = 001000   	CMD1B   002373R     003	DEP   = 010000   	DOWMTB  001214R     002
AOS   = 000350   	BLKI  = 000000   	CMD1C   002414R     003	DEPBLK  000726R     002	DOWTAB  001154R     002
AOSA  = 000354   	BLKO  = 000002   	CMD1D   002444R     003	DEPOS   001453R     003	DPB   = 000137
AOSE  = 000352   	BLT   = 000251   	CMD10   002732R     003	DEX   = 000400   	DPOAPE  002504R
AOSG  = 000357   	BPARER= 000020   	CMD10B  002770R     003	DEXDON= 000004   	DPOATB  000000R     002
AOSGE = 000355   	CAI   = 000300   	CMD11   003007R     003	DEXWD1= 174406   	DPODTB  000004R     002
AOSL  = 000351   	CAIA  = 000304   	CMD11A  003043R     003	DEXWD2= 174404   	DPOITB  000010R     002
AOSLE = 000353   	CAIE  = 000302   	CMD12   003062R     003	DEXWD3= 174402   	DPOKCN  002512R
AOSN  = 000356   	CAIG  = 000307   	CMD13   003101R     003	DFAD  = 000110   	DPONTB  000014R     002
APR   = 000000   	CAIGE = 000305   	CMD14   003122R     003	DFBEND= ****** GX	DPOOAI  001510R
APRMSG= ****** GX	CAIL  = 000301   	CMD2    002462R     003	DFCIFC  000644R  	DPOPTB  000020R     002
AP.ALL= 000177   	CAILE = 000303   	CMD3    002476R     003	DFDV  = 000113   	DPOVFE  002520R
AP.ARP= 001000   	CAIN  = 000306   	CMD3A   002514R     003	DFMP  = 000112   	DPOZTB  000024R     002
AP.CDP= 000004   	CALL  = 000040   	CMD4    002524R     003	DFN   = 000131   	DPS4  = 040000
AP.EIP= 000400   	CALLI = 000047   	CMD4A   002532R     003	DFRMSG  000000R     003	DPTMSG= ****** GX
AP.IPF= 000020   	CAM   = 000310   	CMD5    002543R     003	DFSB  = 000111   	DRATAB  000414R     002
AP.MPE= 000010   	CAMA  = 000314   	CMD5A   002576R     003	DFUNC = 000200   	DRESET= 000100
AP.NRM= 001400   	CAME  = 000312   	CMD6    002615R     003	DF.DMG= 000004   	DRMMSG= ****** GX
AP.NXM= 000040   	CAMG  = 000317   	CMD6A   002642R     003	DF.DMN= 000007   	DR.DTE= 000011
AP.PWF= 000001   	CAMGE = 000315   	CMD7    002661R     003	DF.DOR= 000001   	DSEND = 000004
AP.SAP= 000002   	CAML  = 000311   	CMD7A   002713R     003	DF.EHG= 000010   	DS04  = 004000
AP.SBE= 000100   	CAMLE = 000313   	CNUPE = 000002   	DF.EHM= 000011   	DS05  = 002000
ARMSG = ****** GX	CAMN  = 000316   	CODLUN= 000002   	DF.EMG= 000005   	DS06  = 001000
ZEROC -- ZERO COMMAND MODULE 76	MACRO M1113  10-NOV-81 17:48  PAGE 231-2
SYMBOL TABLE

DTEBUF  000112R     002	D3.WEP= 000010   	FADR  = 000144   	FR.RAR= 000240   	FR.151= 000322
DTECMD= 000451   	EBSEL = 000100   	FADRB = 000147   	FR.RBR= 000242   	FR.152= 000324
DTEFLG= 000444   	EBUSPC= 000020   	FADRI = 000145   	FR.RFM= 000246   	FR.153= 000326
DTEF11= 000450   	EBUSPS= 000004   	FADRM = 000146   	FR.RMQ= 000244   	FR.154= 000330
DTEMTD= 000455   	EDNKLA  000534R  	FDV   = 000170   	FR.SC1= 000262   	FR.155= 000332
DTEMTI= 000456   	EDONES= 040000   	FDVB  = 000173   	FR.SC2= 000260   	FR.156= 000334
DTEREG  000152R     002	ED.EPT= 000000   	FDVL  = 000171   	FR.SR1= 000306   	FR.157= 000336
DUPE  = 000020   	ED.EXV= 000040   	FDVM  = 000172   	FR.SR2= 000304   	FR.160= 000340
DURE  = 000004   	ED.PHY= 000200   	FDVR  = 000174   	FR.VM0= 000320   	FR.161= 000342
DV.LOG= ****** GX	ED.UPT= 000100   	FDVRB = 000177   	FR.VM1= 000322   	FR.162= 000344
DXWRD1= 002000   	ED.USV= 000140   	FDVRI = 000175   	FR.VM2= 000324   	FR.163= 000346
DX1MS1  001123R     003	EF.CRI= ****** GX	FDVRM = 000176   	FR.VM3= 000326   	FR.164= 000350
DX1MS2  001143R     003	EF.PR1= ****** GX	FEBMSG= ****** GX	FR.VM4= 000330   	FR.165= 000352
D.CCPU= ****** GX	ELEMSG= ****** GX	FERTAB  000430R     002	FR.VM5= 000332   	FR.166= 000354
D.CKLN= ****** GX	ENTER = 000077   	FIX   = 000122   	FR.VM6= 000334   	FR.167= 000356
D1.CES= 004000   	EOSMSG  002315R     003	FIXR  = 000126   	FR.VM7= 000336   	FR.170= 000360
D1.DCS= 000001   	EPMSG0  002222R     003	FLTR  = 000127   	FR.100= 000200   	FR.171= 000362
D1.DDT= 000040   	EPMSG1  002236R     003	FMABO   003207R     003	FR.101= 000202   	FR.172= 000364
D1.DEX= 000400   	EPMSG2  002250R     003	FMBUF   000754R     002	FR.102= 000204   	FR.173= 000366
D1.DFM= 000010   	EPMSG3  002264R     003	FMERR   000752R     002	FR.103= 000206   	FR.174= 000370
D1.DS0= 100000   	EPTR  = 000000   	FMHED   003143R     003	FR.104= 000210   	FR.175= 000372
D1.DS1= 040000   	EQV   = 000444   	FMMSG = ****** GX	FR.105= 000212   	FR.176= 000374
D1.DS2= 020000   	EQVB  = 000447   	FMP   = 000160   	FR.106= 000214   	FR.177= 000376
D1.DS3= 010000   	EQVI  = 000445   	FMPB  = 000163   	FR.107= 000216   	FSB   = 000150
D1.DS4= 004000   	EQVM  = 000446   	FMPL  = 000161   	FR.110= 000220   	FSBB  = 000153
D1.DS5= 002000   	ERR10C= 010000   	FMPM  = 000162   	FR.111= 000222   	FSBL  = 000151
D1.DS6= 001000   	ERR10S= 020000   	FMPR  = 000164   	FR.112= 000224   	FSBM  = 000152
D1.HLP= 001000   	ERR11C= 000001   	FMPRB = 000167   	FR.113= 000226   	FSBR  = 000154
D1.LBK= 000200   	ERR11S= 000002   	FMPRI = 000165   	FR.114= 000230   	FSBRB = 000157
D1.MBZ= 000442   	EXADTB  000034R     002	FMPRM = 000166   	FR.115= 000232   	FSBRI = 000155
D1.PLS= 000020   	EXAITB  000040R     002	FNCIFC  001274R  	FR.116= 000234   	FSBRM = 000156
D1.RUN= 002000   	EXAM    001463R     003	FNCOFC  001302R  	FR.117= 000236   	FSC   = 000132
D1.T10= 000200   	EXANTB  000044R     002	FOFMSG  002113R     003	FR.120= 000240   	FSSMSG= ****** GX
D1.T11= 000100   	EXAOAI  002052R  	FONMSG  002105R     003	FR.121= 000242   	FTBYTE= 000000
D1.V04= 000020   	EXAPTB  000050R     002	FORPRO= 000020   	FR.122= 000244   	FTCRAM= 000000
D1.XFR= 000004   	EXAZTB  000054R     002	FRIMSG  004465R     003	FR.123= 000246   	FTDEBU= 000001
D1011 = 000040   	EXBLK   000772R     002	FR.ADX= 000254   	FR.124= 000250   	FTDISP= 000000
D2.EBD= 040000   	EXCH  = 000250   	FR.APR= 000220   	FR.125= 000252   	FTDRAM= 000000
D2.MBZ= 177641   	EXCIOC  003346R  	FR.ARX= 000252   	FR.126= 000254   	FTHELP= 000000
D2.MS1= 000002   	EXDAT   001002RG    002	FR.BRX= 000250   	FR.127= 000256   	FTKLE = 000001
D2.MS2= 000004   	EXFMSG  002121R     003	FR.CA1= 000312   	FR.130= 000260   	FTKLER= 000000
D2.MS4= 000010   	EXMDTB  000030R     002	FR.CA2= 000310   	FR.131= 000262   	FTLCVT= 000000
D2.MS8= 000020   	EXRTBL= ****** GX	FR.CL1= 000316   	FR.132= 000264   	FTLIST= 000001
D2.RA0= 100000   	EXTEND= 000123   	FR.CL2= 000314   	FR.133= 000266   	FTTRAK= 000001
D2.RA1= 040000   	EXTKCN  003172R  	FR.CRD= 000302   	FR.134= 000270   	FTTRP4= 000001
D2.RA2= 020000   	EXTMSG= ****** GX	FR.CR1= 000316   	FR.135= 000272   	FTUCVR= 000130
D2.RST= 000100   	E.FCID= 000002   	FR.CR2= 000314   	FR.136= 000274   	FT1105= 000001
D3.CDD= 000020   	E.FCOD= 000003   	FR.CR3= 000312   	FR.137= 000276   	FT1110= 000001
D3.MBZ= 177704   	E.FCTC= ****** GX	FR.CR4= 000310   	FR.140= 000300   	FT1115= 000001
D3.NPE= 000002   	E.FFIL= 000006   	FR.DA1= 000260   	FR.141= 000302   	FT1120= 000001
D3.PAR= 040000   	E.FHTO= 000001   	FR.DA2= 000262   	FR.142= 000304   	FT1135= 000001
D3.RST= 000001   	E.FKLN= 000004   	FR.EBS= 000356   	FR.143= 000306   	FT1140= 000001
D3.SCD= 000040   	E.FLOD= 000005   	FR.FE1= 000266   	FR.144= 000310   	FT1145= 000000
D3.SSL= 100000   	FAD   = 000140   	FR.FE2= 000264   	FR.145= 000312   	FULMSG= ****** GX
D3.TXB= 000001   	FADB  = 000143   	FR.PI0= 000200   	FR.146= 000314   	FW.APE= 000116
D3.UPE= 000020   	FADL  = 000141   	FR.PI1= 000202   	FR.147= 000316   	FW.CA1= 000122
D3.URE= 000004   	FADM  = 000142   	FR.RAD= 000256   	FR.150= 000320   	FW.CA2= 000124
ZEROC -- ZERO COMMAND MODULE 76	MACRO M1113  10-NOV-81 17:48  PAGE 231-3
SYMBOL TABLE

FW.CDR= 000112   	FX.CON= 000024   	G.TIMI= 000010   	HRLI  = 000505   	INPUT = 000066
FW.CHN= 000160   	FX.CRF= 000020   	G.TIMO= 000002   	HRLM  = 000506   	INTMSG= ****** GX
FW.CRD= 000126   	FX.CSP= 000000   	G.TISC= 000012   	HRLO  = 000564   	INTROF= 000010
FW.CR1= 000136   	FX.CST= 000002   	G.TIYR= 000000   	HRLOI = 000565   	INTRON= 000040
FW.CR2= 000134   	FX.EBC= 000006   	HDDAG1  000216R     003	HRLOM = 000566   	INTSON= 000001
FW.CR3= 000132   	FX.MBC= 000004   	HDDAG2  000232R     003	HRLOS = 000567   	INT10S= 000400
FW.CR4= 000130   	FX.SMR= 000016   	HDDAG3  000262R     003	HRLS  = 000507   	INT11C= 002000
FW.CSR= 000110   	FX.SRF= 000022   	HDDEX1  000046R     003	HRLZ  = 000514   	INT11S= 004000
FW.DJE= 000146   	FX.SYC= 000010   	HDDEX2  000032R     003	HRLZI = 000515   	IOR   = 000434
FW.DJO= 000150   	FX.UDR= 000032   	HDDEX3  000016R     003	HRLZM = 000516   	IORB  = 000437
FW.DR1= 000140   	FX.UIR= 000030   	HDDLY   000004R     003	HRLZS = 000517   	IORI  = 000435
FW.DR2= 000142   	FX.000= 000000   	HDSTAT  000246R     003	HRR   = 000540   	IORM  = 000436
FW.DR3= 000144   	FX.001= 000002   	HDTAD1  000062R     003	HRRE  = 000570   	IO.ACE= ****** GX
FW.EBL= 000174   	FX.002= 000004   	HDTAD2  000076R     003	HRREI = 000571   	IO.ACR= ****** GX
FW.IAC= 000154   	FX.003= 000006   	HDT10A  000140R     003	HRREM = 000572   	IO.ATT= ****** GX
FW.IOJ= 000152   	FX.004= 000010   	HDT10B  000111R     003	HRRES = 000573   	IO.DET= ****** GX
FW.IPE= 000114   	FX.005= 000012   	HDT10D  000167R     003	HRRI  = 000541   	IP.ALL= 000017
FW.KLO= 000156   	FX.006= 000014   	HDT11A  000154R     003	HRRM  = 000542   	IP.CRP= 000004
FW.LAR= 000176   	FX.007= 000016   	HDT11B  000125R     003	HRRO  = 000560   	IP.DRP= 000002
FW.LBL= 000106   	FX.010= 000020   	HDT11D  000203R     003	HRROI = 000561   	IP.FMP= 000010
FW.LBR= 000104   	FX.011= 000022   	HIBYTE= 177400   	HRROM = 000562   	IP.FSS= 000001
FW.MBX= 000162   	FX.012= 000024   	HLFMSG= ****** GX	HRROS = 000563   	IP.NRM= 000016
FW.SBR= 000174   	FX.013= 000026   	HLL   = 000500   	HRRS  = 000543   	JANMSG= ****** GX
FW.040= 000100   	FX.014= 000030   	HLLE  = 000530   	HRRZ  = 000550   	JFCL  = 000255
FW.041= 000102   	FX.015= 000032   	HLLEI = 000531   	HRRZI = 000551   	JFFO  = 000243
FW.042= 000104   	FX.016= 000034   	HLLEM = 000532   	HRRZM = 000552   	JRA   = 000267
FW.043= 000106   	FX.017= 000036   	HLLES = 000533   	HRRZS = 000553   	JRST  = 000254
FW.044= 000110   	FX.020= 000040   	HLLI  = 000501   	H.KCAC= ****** GX	JSA   = 000266
FW.045= 000112   	FX.021= 000042   	HLLM  = 000502   	H.KCHN= ****** GX	JSP   = 000265
FW.046= 000114   	FX.022= 000044   	HLLO  = 000520   	H.KEXT= ****** GX	JSR   = 000264
FW.047= 000116   	FX.023= 000046   	HLLOI = 000521   	H.KMOS= ****** GX	JSYS  = 000104
FW.050= 000120   	FX.024= 000050   	HLLOM = 000522   	H.KPWR= ****** GX	JULMSG= ****** GX
FW.051= 000122   	FX.025= 000052   	HLLOS = 000523   	I     = 000000   	JUMP  = 000320
FW.052= 000124   	FX.026= 000054   	HLLS  = 000503   	IBP   = 000133   	JUMPA = 000324
FW.053= 000126   	FX.027= 000056   	HLLZ  = 000510   	IDIV  = 000230   	JUMPE = 000322
FW.054= 000130   	FX.030= 000060   	HLLZI = 000511   	IDIVB = 000233   	JUMPG = 000327
FW.055= 000132   	FX.031= 000062   	HLLZM = 000512   	IDIVI = 000231   	JUMPGE= 000325
FW.056= 000134   	FX.032= 000064   	HLLZS = 000513   	IDIVM = 000232   	JUMPL = 000321
FW.057= 000136   	FX.033= 000066   	HLR   = 000544   	IDPB  = 000136   	JUMPLE= 000323
FW.060= 000140   	FX.034= 000070   	HLRE  = 000574   	IE.ACT= ****** GX	JUMPN = 000326
FW.061= 000142   	FX.035= 000072   	HLREI = 000575   	IE.EBX= ****** GX	JUNMSG= ****** GX
FW.062= 000144   	FX.036= 000074   	HLREM = 000576   	IE.INS= ****** GX	KF.BRM= 001000
FW.063= 000146   	FX.037= 000076   	HLRES = 000577   	IFLOP = 100000   	KF.CES= 000100
FW.064= 000150   	GETSTS= 000062   	HLRO  = 000564   	ILDB  = 000134   	KF.CLK= 100000
FW.065= 000152   	GOOBLK  000766R     002	HLROI = 000565   	IMUL  = 000220   	KF.CON= 000200
FW.066= 000154   	GTDDBT  006214R  	HLROM = 000566   	IMULB = 000223   	KF.DEF= 000200
FW.067= 000156   	GTDDOR  006222R  	HLROS = 000567   	IMULI = 000221   	KF.KLO= 000400
FW.070= 000160   	GTDIDF  006230R  	HLRS  = 000547   	IMULM = 000222   	KF.MRS= 020000
FW.071= 000162   	GTDMS0  002277R     003	HLRZ  = 000554   	IN    = 000056   	KF.RUN= 040000
FW.072= 000164   	GTDYOR  006236R  	HLRZI = 000555   	INBUF = 000064   	KF.SIM= 010000
FW.073= 000166   	GTTITF  006576R  	HLRZM = 000556   	INCEX   000072R     002	KF.SMC= 004000
FW.074= 000170   	GTTMS0  002306R     003	HLRZS = 000557   	INCFR   000064R     002	KF.SPM= 002000
FW.075= 000172   	GTTTOR  006604R  	HRL   = 000504   	INCTX   000102R     002	KLETAB  000600RG    002
FW.076= 000174   	G.TICP= 000016   	HRLE  = 000534   	INDLUN= 000005   	KLIOT = 000700
FW.077= 000176   	G.TICT= 000014   	HRLEI = 000535   	INIDNP  007314R  	KLNLGE= 001276R     002
FX.BMC= 000012   	G.TIDA= 000004   	HRLEM = 000536   	INIDTC  007322R  	KLNLGL= ****** GX
FX.CMR= 000014   	G.TIHR= 000006   	HRLES = 000537   	INIT  = 000041   	KLNLOG  001252R     002
ZEROC -- ZERO COMMAND MODULE 76	MACRO M1113  10-NOV-81 17:48  PAGE 231-4
SYMBOL TABLE

KLNPLN= ****** GX	MULM  = 000226   	PE.FMP= 000010   	REQKLD  000114R     004	SETA  = 000424
KLNPWD  001276R     002	M.TAKP= ****** GX	PE.FSS= 000020   	RFMAD0= 100000   	SETAB = 000427
KLPWRF= 000010   	NOFMSG  002056R     003	PHYS  = 100000   	RFMAD1= 040000   	SETACI  000744R     002
KL.ABO= ****** GX	NOMSG   004342R     003	PI    = 000004   	RFMAD2= 020000   	SETAI = 000425
KL.REQ= ****** GX	NONMSG  004212R     003	PIDENT= 000000   	RFMAD3= 010000   	SETAM = 000426
K.LSCK= ****** GX	NOOP    000252R     002	POP   = 000262   	RM    = 000010   	SETCA = 000450
LDB   = 000135   	NOVMSG= ****** GX	POPJ  = 000263   	RNGEX   000070R     002	SETCAB= 000453
LGFMSG  003335R     003	NULSTP= 000040   	PRGMSG= ****** GX	RNGFR   000062R     002	SETCAI= 000451
LGSMSG  003270R     003	NUPE  = 000002   	PRI7  = 000340   	RNGTX   000110R     002	SETCAM= 000452
LGVMSG  003323R     003	OCTMSG= ****** GX	PROFF   001477R     003	ROT   = 000241   	SETCM = 000460
LG.ALL= 000007   	OFFMSG= ****** GX	PRON    001473R     003	ROTC  = 000245   	SETCMB= 000463
LG.ARG= 000010   	ONMSG = ****** GX	PROPNT= 000021   	RQSKLD  000000R     004	SETCMI= 000461
LG.MAR= 000020   	OPEN  = 000050   	PRTOFF= 004000   	RSAKCN  010234R  	SETCMM= 000462
LG.MNT= 000004   	OPRMSG= ****** GX	PR0   = 000000   	RSAPRI  000662R     002	SETM  = 000414
LG.MOD= 000040   	OR    = 000434   	PR1   = 000040   	RSERRI  000670R     002	SETMB = 000417
LG.NUL= 000000   	ORB   = 000437   	PR2   = 000100   	RSPGI0  000712R     002	SETMI = 000415
LG.OPR= 000001   	ORCA  = 000454   	PR3   = 000140   	RSPGI1  000720R     002	SETMM = 000416
LG.PRG= 000002   	ORCAB = 000457   	PR4   = 000200   	RSPKCN  010412R  	SETO  = 000474
LG.PRM= 000003   	ORCAI = 000455   	PR5   = 000240   	RSTIOI  000676R     002	SETOB = 000477
LG.RNG= 000100   	ORCAM = 000456   	PR6   = 000300   	RSTPII  000704R     002	SETOI = 000475
LG.RPT= 000400   	ORCB  = 000470   	PR7   = 000340   	RUNITN  010504R  	SETOM = 000476
LG.STR= 000200   	ORCBB = 000473   	PS    = 177776   	RUNNST  010512R  	SETSTS= 000060
LOAD11= 000004   	ORCBI = 000471   	PSENTB  001130R     002	RUNTAA  010520R  	SETZ  = 000400
LOGBUF  001010R     002	ORCBM = 000472   	PSWW1 = 000005   	R.QSGC= 000015   	SETZB = 000403
LOGLUN= 000004   	ORCM  = 000464   	PSWW10= 000014   	R.QSPC= 000014   	SETZI = 000401
LOGMSG= ****** GX	ORCMB = 000467   	PSWW11= 000015   	R.QSPN= 000006   	SETZM = 000402
LOOKUP= 000076   	ORCMI = 000465   	PSWW12= 000016   	R.QSPR= 000012   	SKIP  = 000330
LPTMSG= ****** GX	ORCMM = 000466   	PSWW13= 000017   	R.QSTN= 000002   	SKIPA = 000334
LSH   = 000242   	ORI   = 000435   	PSWW2 = 000006   	SATMSG  004475R     003	SKIPE = 000332
LSHC  = 000246   	ORM   = 000436   	PSWW3 = 000007   	SAVBLK  000764R     002	SKIPG = 000337
LSTLUN= 000003   	OUT   = 000057   	PSWW4 = 000010   	SBRTAB  000444R     002	SKIPGE= 000335
MAP   = 000257   	OUTBUF= 000065   	PSWW5 = 000011   	SCAILI  011052R  	SKIPL = 000331
MARMSG= ****** GX	OUTPUT= 000067   	PSWW6 = 000012   	SCANOR  011060R  	SKIPLE= 000333
MAYMSG= ****** GX	PAG   = 000010   	PSWW7 = 000013   	SCCCLE  013372R  	SKIPN = 000336
MGNMSG= ****** GX	PAR$$E= 000027   	PS.NRM= 001416   	SCCLKT  001050R     002	SLOMSG= ****** GX
MNTMSG= ****** GX	PAR$$K= 000126   	PULSE = 000020   	SCD   = 000040   	SOJ   = 000360
MONMSG  004417R     003	PAR$$V= 000006   	PUSH  = 000261   	SCDCDI  016330R  	SOJA  = 000364
MOVE  = 000200   	PCMSG = ****** GX	PUSHJ = 000260   	SCDDAV  016336R  	SOJE  = 000362
MOVEI = 000201   	PCTAB   000474R     002	QSIZE = 000023   	SCDNDI  016344R  	SOJG  = 000367
MOVEM = 000202   	PC.AFI= 000020   	QTRMSG= ****** GX	SCDNTI  016352R  	SOJGE = 000365
MOVES = 000203   	PC.AT0= 000004   	Q.BYCT= 000016   	SCKIPC  016720R  	SOJL  = 000361
MOVM  = 000214   	PC.AT1= 000010   	Q.IBUF= 000014   	SCKKWE  017264R  	SOJLE = 000363
MOVMI = 000215   	PC.BIS= 000400   	Q.IOAE= 000012   	SCKMS0  004517R     003	SOJN  = 000366
MOVMM = 000216   	PC.CY0= 004000   	Q.IOEF= 000006   	SCKMS1  004532R     003	SOS   = 000370
MOVMS = 000217   	PC.CY1= 002000   	Q.IOFN= 000002   	SCKMS2  004556R     003	SOSA  = 000374
MOVN  = 000210   	PC.FOV= 001000   	Q.IOLU= 000004   	SCKMS3  004603R     003	SOSE  = 000372
MOVNI = 000211   	PC.FUF= 000002   	Q.IOPL= 000014   	SCKMS4  004632R     003	SOSG  = 000377
MOVNM = 000212   	PC.LIP= 000040   	Q.IOPR= 000007   	SCKNPI  016676R  	SOSGE = 000375
MOVNS = 000213   	PC.NDV= 000001   	Q.IOSB= 000010   	SCKPTL  016704R  	SOSL  = 000371
MOVS  = 000204   	PC.OVF= 010000   	Q.OBUF= 000014   	SCKSKI  016712R  	SOSLE = 000373
MOVSI = 000205   	PC.UIO= 000100   	Q.OVFC= 000020   	SCOCAP  012454R  	SOSN  = 000376
MOVSM = 000206   	PC.USR= 000200   	RAMIS0= 010000   	SCPART  001062R     002	SPCTAB  000314R     002
MOVSS = 000207   	PERCLR= 001000   	RDPITB  000346R     002	SCPILS  015060R  	SPC1    001367R     003
MPE11 = 001000   	PE.ALL= 000037   	RDPITE= 000362R     002	SCPSCF  015066R  	SPC2    001373R     003
MUL   = 000224   	PE.CES= 000001   	RELEAS= 000071   	SCPSPF  015074R  	SPC3    001410R     003
MULB  = 000227   	PE.CRM= 000004   	REMMSG= ****** GX	SCRTAB  000460R     002	SPC4    001414R     003
MULI  = 000225   	PE.DRM= 000002   	RENAME= 000055   	SEPMSG= ****** GX	SPC5    001431R     003
ZEROC -- ZERO COMMAND MODULE 76	MACRO M1113  10-NOV-81 17:48  PAGE 231-5
SYMBOL TABLE

SPC6    001442R     003	SUNMSG  004507R     003	TOIP  = 000002   	TTCALL= 000051   	WHMMSG  003473R     003
SSTLEN= ****** GX	SWPFSW  011664R  	TOIT  = 000001   	TTYMSG= ****** GX	WHOMSG  003505R     003
STASZI  013200R  	SWR   = 177570   	TO10  = 000200   	TUEMSG  004427R     003	WHOTMS  003371R     003
STAT  = 174434   	SWSLLT= 100000   	TO10AD= 174420   	TYDMTB  000544R     002	WHRCRH  014526R
STATAB  000254R     002	SXCT  = 000106   	TO10BC= 174414   	TYLGMS  012312R  	WHRECM  004017R     003
STATO = 000061   	SYMTAB  000212R     002	TO10BM= 000001   	TYPAD2  003570R  	WHRMRH  014520R
STATUS= 000022   	TAKIRE  010662R  	TO10DB= 000400   	TYPDG1  004012R  	WHRMSG  003453R     003
STATYP  003462R  	TAKNSF  010670R  	TO10DN= 100000   	TYPDG3  004064R  	WHTMSG  003567R     003
STATZ = 000063   	TAKTAB  000656RG    002	TO10DT= 174424   	TYPDTE  003364R  	WHWTAB  001030R     002
STA0    001100R     003	TA2MS1  001202R     003	TO10ER= 020000   	TYPDX1  003520R  	WPMSG0  004217R     003
STA1    001036R     003	TA2MS2  001226R     003	TO11  = 000100   	UGETF = 000073   	WPMSG1  004251R     003
STA10   000475R     003	TA2MS3  001246R     003	TO11AD= 174422   	UJEN  = 000100   	WPMSG2  004277R     003
STA11   000436R     003	TA2MS4  001305R     003	TO11BC= 174416   	UNASG1= 000032   	WRLMSG  003526R     003
STA12   000414R     003	TA2MS5  001344R     003	TO11BM= 020000   	UNASG2= 000033   	WRTMSG  003547R     003
STA13   000357R     003	TC.CON= 000377   	TO11DB= 004000   	UNASG3= 000034   	WVMSG1  003607R     003
STA14   000334R     003	TC.CTC= 000002   	TO11DN= 000200   	UNASG4= 000035   	WVMSG2  003631R     003
STA15   000276R     003	TC.ERR= 000000   	TO11DT= 174426   	UNASG5= 000036   	XCT   = 000256
STA2    001004R     003	TC.RST= 000001   	TO11ER= 000002   	UNASG6= 000037   	XOR   = 000430
STA3    000757R     003	TDC   = 000650   	TRC   = 000640   	USETI = 000074   	XORB  = 000433
STA4    000727R     003	TDCA  = 000654   	TRCA  = 000644   	USETO = 000075   	XORI  = 000431
STA5    000666R     003	TDCE  = 000652   	TRCE  = 000642   	USRMSG= ****** GX	XORM  = 000432
STA6    000641R     003	TDCN  = 000656   	TRCN  = 000646   	VF.DSP= 000060   	XR    = 000000
STA7    000610R     003	TDN   = 000610   	TRN   = 000600   	VF.FFD= 000061   	YESMSG  004336R     003
STA8    000551R     003	TDNA  = 000614   	TRNA  = 000604   	VF.INT= 000000   	YONMSG  004317R     003
STA9    000515R     003	TDNE  = 000612   	TRNE  = 000602   	VF.OVR= 000053   	ZERDPB  000132R     004
STOPEX  000066R     002	TDNN  = 000616   	TRNN  = 000606   	VF.PRM= 000044   	ZERESD  020436R
STOPFR  000060R     002	TDO   = 000670   	TRO   = 000660   	VF.SSP= 000040   	ZSTOP = 040000
STOPTX  000074R     002	TDOA  = 000674   	TROA  = 000664   	VMAMSG= ****** GX	$DIV  = ****** GX
ST.CED= 000100   	TDOE  = 000672   	TROE  = 000662   	VMATB   000510R     002	$DSW  = ****** GX
ST.CLE= 000001   	TDON  = 000676   	TRON  = 000666   	VMHTB   000516R     002	$MUL  = ****** GX
ST.CTD= 040000   	TDZ   = 000630   	TRZ   = 000620   	WACMSG  003127R     003	$$    = 000037
ST.CTE= 010000   	TDZA  = 000634   	TRZA  = 000624   	WCMMSG  003413R     003	$$A   = 000100
ST.DW1= 002000   	TDZE  = 000632   	TRZE  = 000622   	WCMSG0  004130R     003	$$B   = 000000
ST.DXD= 000004   	TDZN  = 000636   	TRZN  = 000626   	WCMSG1  004154R     003	$$C   = 000200
ST.EBS= 000100   	TEMADR  000732R     002	TR.ALL= 000077   	WCMSG2  004170R     003	$$D   = 000011
ST.EDB= 004000   	TENAD1= 174410   	TR.DEP= 000020   	WCMSG3  004202R     003	$$E   = 000016
ST.EPE= 000020   	TENAD2= 174412   	TR.DTE= 000040   	WEDMSG  004440R     003	$$F   = 000000
ST.IDS= 000010   	TENMSG= ****** GX	TR.EXM= 000010   	WEP   = 000010   	$$$ARG= 000006
ST.IEN= 000040   	THUMSG  004453R     003	TR.FRD= 000002   	WHDMS0  004345R     003	$$$OST= 000016
ST.ION= 000001   	TLC   = 000641   	TR.FWR= 000004   	WHDMS1  004373R     003	$$$T1 = 000000
ST.MBZ= 000000   	TLCA  = 000645   	TR.FXC= 000001   	WHHMS0  003653R     003	.ABORT  000004RG
ST.MOD= 000010   	TLCE  = 000643   	TSC   = 000651   	WHHMS1  003667R     003	.ABRTC  000000RG
ST.MPE= 001000   	TLCN  = 000647   	TSCA  = 000655   	WHHMS2  003701R     003	.ABRT0  000032RG
ST.NST= 000040   	TLN   = 000601   	TSCE  = 000653   	WHHMS3  003711R     003	.APRWD= ****** GX
ST.RIZ= 010000   	TLNA  = 000605   	TSCN  = 000657   	WHHMS4  003740R     003	.ASCID  000016RG    004
ST.RST= 011121   	TLNE  = 000603   	TSN   = 000611   	WHHMS5  003765R     003	.ASCOD  000026RG    004
ST.SEP= 000004   	TLNN  = 000607   	TSNA  = 000615   	WHHMS6  004010R     003	.ASLST  000036RG    004
ST.STE= 000002   	TLO   = 000661   	TSNE  = 000613   	WHIMSG  003433R     003	.ATLMD= 000033
ST.TED= 000200   	TLOA  = 000665   	TSNN  = 000617   	WHKMRB  005007R     003	.ATLST  000064R     004
ST.TER= 000002   	TLOE  = 000663   	TSO   = 000671   	WHKMSA  005000R     003	.ATOTA= ****** GX
ST.TXD= 100000   	TLON  = 000667   	TSOA  = 000675   	WHKMSI  005032R     003	.BRCLK= 005000
ST.TXE= 020000   	TLZ   = 000621   	TSOE  = 000673   	WHKMSK  005043R     003	.BUFSZ= ****** GX
ST.XDB= 000400   	TLZA  = 000625   	TSON  = 000677   	WHKMS0  004650R     003	.CECLK= 004000
SUB   = 000274   	TLZE  = 000623   	TSZ   = 000631   	WHKMS1  004661R     003	.CESCK= ****** GX
SUBB  = 000277   	TLZN  = 000627   	TSZA  = 000635   	WHKMS2  004672R     003	.CHTAB= ****** GX
SUBI  = 000275   	TOBM  = 000004   	TSZE  = 000633   	WHKMS3  004720R     003	.CIBFR= ****** GX
SUBM  = 000276   	TOD   = 000003   	TSZN  = 000637   	WHKMS4  004750R     003	.CISTS= ****** GX
ZEROC -- ZERO COMMAND MODULE 76	MACRO M1113  10-NOV-81 17:48  PAGE 231-6
SYMBOL TABLE

.CKARG= ****** GX	.DPOST  002206RG 	.EXEWI  002074RG 	.INVBN= ****** GX	.MEMFL= ****** GX
.CKCOL= ****** GX	.DPOSZ  000216RG 	.EXEWN  002102RG 	.IRADX= ****** GX	.MEMRS= 076000
.CKCTC= ****** GX	.DPOTB= ****** GX	.EXEWP  002110RG 	.IRLTC= 014000   	.MISC = ****** GX
.CKEOC= ****** GX	.DPSEE  001406RG 	.EXEWT  002060RG 	.JUMPC  013072RG 	.MON  = ****** GX
.CKEOS= ****** GX	.DPSTE  002256RG 	.EXFER  004520RG 	.KACFL= ****** GX	.MONTB= ****** GX
.CKOBJ= ****** GX	.DRLTC= 015000   	.EXFMR  004164RG 	.KLCON= ****** GX	.NOERR= ****** GX
.CKRNP= ****** GX	.DSACF= 066000   	.EXITP= ****** GX	.KLE    007520RG 	.NOHLT= ****** GX
.CKRUN= ****** GX	.DSIOJ= 065000   	.EXKLD  003206RG 	.KLEDF= ****** GX	.NOTSW= ****** GX
.CKSYM= ****** GX	.DTBUF  000524RG    002	.EXKLI  003214RG 	.KLEPT= ****** GX	.OPEN = ****** GX
.CLKWD= ****** GX	.DTDW1= ****** GX	.EXKLM= ****** GX	.KLERQ= ****** GX	.ORADX= ****** GX
.CLOSE= ****** GX	.DTLST  000100R     004	.EXKLN  003222RG 	.KLEVL= ****** GX	.OTATT= ****** GX
.CLRCM  012646RG 	.DTSTA= ****** GX	.EXKLP  003230RG 	.KLFCF= ****** GX	.OTBBC= ****** GX
.CLRMR= 006000   	.DTSTW= 000004   	.EXKLT  003200RG 	.KLFLG= ****** GX	.OTBUF= ****** GX
.CLRUN= 010000   	.EDELA= ****** GX	.EXMEE  001632RG 	.KLHLT= ****** GX	.OTFN = ****** GX
.COMEF= ****** GX	.EDEWD  000370RG 	.EXMEL  000352RG 	.KLINC= ****** GX	.OTFNB= ****** GX
.COMMA= 000054   	.EDEWI  000402RG 	.EXMKL  000362RG 	.KLIWD= ****** GX	.OTPOS= ****** GX
.CONBT= 012000   	.EDEWN  000402RG 	.EXMPI  004612RG 	.KLMTB= ****** GX	.OTVBN= ****** GX
.CONTC  000056RG 	.EDEWP  000370RG 	.EXMQR  004172RG 	.KLMT1= ****** GX	.OUTLG= ****** GX
.CPUSN= ****** GX	.EDKLA= ****** GX	.EXMTB= ****** GX	.KLNFD= ****** GX	.OUTLP= ****** GX
.CSHRG= 164000   	.EDKLC  000512RG 	.EXMTE  002646RG 	.KLNFT= ****** GX	.OUTTY= ****** GX
.DATE3= ****** GX	.EDKLD  000440RG 	.EXOBJ  000324RG 	.KLNMD= ****** GX	.PASS = ****** GX
.DAY  = ****** GX	.EDKLI  000456RG 	.EXREG  004764RG 	.KLNPB= ****** GX	.PCAB1= 150000
.DEPAR  002116RG 	.EDKLN  000426RG 	.EXSBR  004526RG 	.KLNPE= ****** GX	.PCAB2= 151000
.DFBLK= ****** GX	.EDKLP  000414RG 	.EXSCR  004534RG 	.KLNPW= ****** GX	.PCAB3= 152000
.DFCOM  000542RG 	.EDKLX= ****** GX	.EXVAB  004200RG 	.KLNSW= ****** GX	.PCAB4= 153000
.DFRED  000652RG 	.EIOJA= 067000   	.EXVMA  004206RG 	.KLNTD= ****** GX	.PITAB= ****** GX
.DFWRT  001106RG 	.ELDDW= ****** GX	.EXVMH  004214RG 	.KLNTT= ****** GX	.PRDTE= ****** GX
.DFXCT  001166RG 	.ELEDW= ****** GX	.EXVPC  004222RG 	.KLRLD= ****** GX	.PSCWD= ****** GX
.DIAG1= 000000   	.ENTER= ****** GX	.FEMOD= ****** GX	.KLRST= ****** GX	.QUITC  011004RG
.DIAG2= 000002   	.EXAD   004112RG 	.FREAD= ****** GX	.KLSNP= ****** GX	.RCRM1= 147000
.DIAG3= 000006   	.EXADX  004120RG 	.FWRIT= ****** GX	.KLST = ****** GX	.RCRM2= 146000
.DISCC  001310RG 	.EXAMA  000234RG 	.FXCT = ****** GX	.KLSTP= ****** GX	.RCRM3= 145000
.DOW  = ****** GX	.EXAMC  000222RG 	.GFNR = 102000   	.LCRDL= 052000   	.RCRM4= 144000
.DPBFR= ****** GX	.EXAMD  000240RG 	.GTDAT  005600RG 	.LCRDR= 051000   	.RCSPF= 141000
.DPBFX= ****** GX	.EXAME  001604RG 	.GTELN= ****** GX	.LCRM1= 057000   	.RDADR  005026RG
.DPETB= ****** GX	.EXAMF  004316RG 	.GTKLA= ****** GX	.LCRM2= 056000   	.RDADX  005034RG
.DPEWD  001524RG 	.EXAMI  000244RG 	.GTKLN= ****** GX	.LCRM3= 055000   	.RDAPR  003236RG
.DPEWI  001532RG 	.EXAMK  004422RG 	.GTLIN= ****** GX	.LCRM4= 054000   	.RDARR  005042RG
.DPEWN  001540RG 	.EXAMN  000250RG 	.GTNBR= ****** GX	.LCRM5= 053000   	.RDARX  005050RG
.DPEWP  001546RG 	.EXAMP  000254RG 	.GTNUM= ****** GX	.LDAR = 077000   	.RDBRR  005056RG
.DPEWT  001516RG 	.EXAMT  002614RG 	.GTR50  010676RG 	.LDBRL= 043000   	.RDBRX  005064RG
.DPKLD  002534RG 	.EXAMZ  000260RG 	.GTTIM  006244RG 	.LDBRR= 042000   	.RDCPP= ****** GX
.DPKLI  002542RG 	.EXARR  004126RG 	.HALTC  007064RG 	.LDCK1= 046000   	.RDCRA  005322RG
.DPKLM= ****** GX	.EXARX  004134RG 	.HRDWR= ****** GX	.LDCK2= 047000   	.RDCRL  005330RG
.DPKLN  002550RG 	.EXBFR= ****** GX	.INBBC= ****** GX	.LDCLK= ****** GX	.RDCRM= ****** GX
.DPKLP  002556RG 	.EXBRR  004142RG 	.INCHC= ****** GX	.LDDIS= 045000   	.RDDRA  005336RG
.DPKLT  002526RG 	.EXBRX  004150RG 	.INDFG= ****** GX	.LDPAR= ****** GX	.RDEBS  005072RG
.DPOBJ  000264RG 	.EXCRA  004476RG 	.INEXT  000574R     002	.LDRJD= 064000   	.RDFER  005344RG
.DPOEL  000314RG 	.EXCRL  004504RG 	.INFN = ****** GX	.LDRJV= 063000   	.RDFLG  005116RG
.DPOKL  000306RG 	.EXCTC  003300RG 	.INFNB= ****** GX	.LDRM1= 060000   	.RDFMA= ****** GX
.DPOSA  000172RG 	.EXCTF= ****** GX	.INICL= 070000   	.LDRM2= 061000   	.RDFMO= ****** GX
.DPOSC  000160RG 	.EXDRA  004512RG 	.INICP  007330RG 	.LDRM3= 062000   	.RDFMP= ****** GX
.DPOSD  000176RG 	.EXDTE  003354RG 	.INIC0  007100RG 	.LDSEL= 044000   	.RDFMR  005100RG
.DPOSE  001334RG 	.EXEBS  004156RG 	.INIT   007102RG 	.LDZFL= ****** GX	.RDIPE= ****** GX
.DPOSI  000202RG 	.EXECT= ****** GX	.INITC  007074RG 	.LGLWD= ****** GX	.RDJ14= 134000
.DPOSN  000206RG 	.EXETB= ****** GX	.INKLF  007132RG 	.LOKUP= ****** GX	.RDJ71= 135000
.DPOSP  000212RG 	.EXEWD  002066RG 	.INPOS= ****** GX	.MARKC  007770RG 	.RDMAB= 133000
ZEROC -- ZERO COMMAND MODULE 76	MACRO M1113  10-NOV-81 17:48  PAGE 231-7
SYMBOL TABLE

.RDMQR  005106RG 	.SCCEE  015234RG 	.SCPFM  015314RG 	.TAKEC  010526RG 	.UMRKC  007764RG
.RDPI   005242RG 	.SCCLK  014660RG 	.SCPFS  015322RG 	.TAKE1  010602RG 	.VERNO= ****** GX
.RDSBR  005352RG 	.SCCLN  015102RG 	.SCPST  014714RG 	.TCRLF= ****** GX	.VFYFL= ****** GX
.RDSCR  005360RG 	.SCCOM  013340RG 	.SCPTB= ****** GX	.TPADD= ****** GX	.WHACB  011152RG
.RDVAB  005456RG 	.SCCON  013256RG 	.SCRLD  013772RG 	.TPCLR= ****** GX	.WHATB= ****** GX
.RDVMA  005464RG 	.SCCOO  013324RG 	.SCRPT  014112RG 	.TPCMP= ****** GX	.WHATC  012722RG
.RDVMH  005472RG 	.SCCOP  013332RG 	.SCRTY  014006RG 	.TPDEC= ****** GX	.WHATV  014262RG
.RDVPC  005450RG 	.SCCOT= ****** GX	.SCTAK  014606RG 	.TPDIV= ****** GX	.WHCON  013400RG
.RDXSV= ****** GX	.SCCOU  013366RG 	.SCTRK  014210RG 	.TPINC= ****** GX	.WHDAT  016360RG
.RECNT= ****** GX	.SCCRF  015104RG 	.SECLK= 003000   	.TPNEG= ****** GX	.WHINC  013526RG
.RECPT= ****** GX	.SCCRH  015110RG 	.SETCM  012666RG 	.TPSHI= ****** GX	.WHKLN  017670RG
.RECRD= ****** GX	.SCCRQ  015116RG 	.SETC0  012676RG 	.TPSUB= ****** GX	.WHMEM  013666RG
.REGSV= ****** GX	.SCCRS  015124RG 	.SETMR= 007000   	.TPTST= ****** GX	.WHOFS  013746RG
.RELWD= ****** GX	.SCCSE  015136RG 	.SETRN= 011000   	.TRKWD= ****** GX	.WHOUT  012530RG
.RESTB= ****** GX	.SCCSI  015166RG 	.SETTB= ****** GX	.TRPTV= ****** GX	.WHRDW  014322RG
.RESTC  010066RG 	.SCCSM  015172RG 	.SFREC  014534RG 	.TRP4V= ****** GX	.WHREC  014550RG
.RESTD= ****** GX	.SCCTB= ****** GX	.SHUTC  012760RG 	.TSCAN= ****** GX	.WHRLD  014034RG
.RESTI= ****** GX	.SCDAT  016032RG 	.SNAP   007736RG 	.TYACE= ****** GX	.WHRPT  013540RG
.RESTP= ****** GX	.SCFSS  014672RG 	.SPACE= 000040   	.TYAC1= ****** GX	.WHRTY  014060RG
.RNDPB  000046RG    004	.SCINC  013450RG 	.SSCAN= ****** GX	.TYCHR= ****** GX	.WHTAK  014622RG
.RPTCT= ****** GX	.SCKLN  016534RG 	.SSCLK= 002000   	.TYCOL= ****** GX	.WHTCA  015364RG
.RPTPT= ****** GX	.SCMEL  013646RG 	.SSM  = ****** GX	.TYCOM= ****** GX	.WHTCL  015350RG
.RSALL  010146RG 	.SCMEM  013614RG 	.SSTTB= ****** GX	.TYDAT  006612RG 	.WHTPA  015566RG
.RSAPR  010242RG 	.SCMKL  013660RG 	.STCLK= ****** GX	.TYELA= ****** GX	.WHTPS  015552RG
.RSDTE  010214RG 	.SCMTB= ****** GX	.STPCL= 000000   	.TYELN= ****** GX	.WHTRK  014232RG
.RSERR  010250RG 	.SCNOT  012746RG 	.STPKL= ****** GX	.TYKLA= ****** GX	.WRCRM= ****** GX
.RSPAG  010274RG 	.SCOFS  013720RG 	.STRCL= 001000   	.TYKLN= ****** GX	.WRITZ= ****** GX
.RSSWP  011672RG 	.SCOTC  012506RG 	.STRTB= ****** GX	.TYLIN= ****** GX	.WRMBX= 071000
.RSTIN  010220RG 	.SCOTL  012014RG 	.STRTC  013050RG 	.TYMIN= ****** GX	.WRTAR= ****** GX
.RSTIO  010256RG 	.SCOTP  012374RG 	.STRTT  013102RG 	.TYMSF= ****** GX	.XFRCK  001222RG
.RSTKL= ****** GX	.SCOTT= ****** GX	.STRTU  013206RG 	.TYMSG= ****** GX	.XFWCK  001240RG
.RSTPI  010264RG 	.SCOTY  012462RG 	.STRTV= ****** GX	.TYOUT= ****** GX	.XFXCK  001256RG
.RUNCM  010420RG 	.SCOUT  011726RG 	.STUCD= ****** GX	.TYP3D= ****** GX	.YEAR = ****** GX
.SACBK  011066RG 	.SCPAL  015256RG 	.SVESP= ****** GX	.TYSLS= ****** GX	.YESNO  015726RG
.SACB1  011070RG 	.SCPAR  015264RG 	.SVKLF= ****** GX	.TYSPC= ****** GX	.ZEROC  020176RG
.SCACB  011014RG 	.SCPCR  015272RG 	.SWPAC  011534RG 	.TYTIM  006726RG 	..DTP2= ****** GX
.SCCEC  015220RG 	.SCPDR  015300RG 	.SWPC   011234RG 	.T50TB= ****** GX	..STIN= ****** GX
.SCCED  015226RG 	.SCPEN  015306RG 	.SWPIP= ****** GX

. ABS.	000000	   000
      	020444	   001
DATA  	001304	   002
MESSAG	005062	   003
DPBS  	000144	   004
ERRORS DETECTED:  0

VIRTUAL MEMORY USED:  15728 WORDS  ( 62 PAGES)
DYNAMIC MEMORY:  17606 WORDS  ( 67 PAGES)
ELAPSED TIME:  00:04:09
,[51,20]PATREE/CR/-SP=[51,30]PATREE.TMP
